{
	"Vulnerable.sol": {
		"Vulnerable": {
			"abi": [
				{
					"inputs": [],
					"stateMutability": "payable",
					"type": "constructor"
				},
				{
					"inputs": [
						{
							"internalType": "address",
							"name": "",
							"type": "address"
						}
					],
					"name": "balances",
					"outputs": [
						{
							"internalType": "uint256",
							"name": "",
							"type": "uint256"
						}
					],
					"stateMutability": "view",
					"type": "function"
				},
				{
					"inputs": [],
					"name": "deposit",
					"outputs": [],
					"stateMutability": "payable",
					"type": "function"
				},
				{
					"inputs": [],
					"name": "getBalance",
					"outputs": [
						{
							"internalType": "uint256",
							"name": "",
							"type": "uint256"
						}
					],
					"stateMutability": "view",
					"type": "function"
				},
				{
					"inputs": [
						{
							"internalType": "address payable",
							"name": "_to",
							"type": "address"
						},
						{
							"internalType": "uint256",
							"name": "amount",
							"type": "uint256"
						}
					],
					"name": "transfer",
					"outputs": [],
					"stateMutability": "nonpayable",
					"type": "function"
				},
				{
					"inputs": [],
					"name": "withdrawAll",
					"outputs": [],
					"stateMutability": "nonpayable",
					"type": "function"
				},
				{
					"stateMutability": "payable",
					"type": "receive"
				}
			],
			"devdoc": {
				"kind": "dev",
				"methods": {},
				"version": 1
			},
			"evm": {
				"assembly": "    /* \"Vulnerable.sol\":66:815  contract Vulnerable {... */\n  mstore(0x40, 0x80)\n  dataSize(sub_0)\n  dup1\n  dataOffset(sub_0)\n  0x00\n  codecopy\n  0x00\n  return\nstop\n\nsub_0: assembly {\n        /* \"Vulnerable.sol\":66:815  contract Vulnerable {... */\n      mstore(0x40, 0x80)\n      jumpi(tag_1, lt(calldatasize, 0x04))\n      shr(0xe0, calldataload(0x00))\n      dup1\n      0x12065fe0\n      eq\n      tag_3\n      jumpi\n      dup1\n      0x27e235e3\n      eq\n      tag_4\n      jumpi\n      dup1\n      0x853828b6\n      eq\n      tag_5\n      jumpi\n      dup1\n      0xa9059cbb\n      eq\n      tag_6\n      jumpi\n      dup1\n      0xd0e30db0\n      eq\n      tag_7\n      jumpi\n      jump(tag_2)\n    tag_1:\n      jumpi(tag_2, calldatasize)\n      stop\n    tag_2:\n      0x00\n      dup1\n      revert\n        /* \"Vulnerable.sol\":716:813  function getBalance() public view returns (uint256) {... */\n    tag_3:\n      callvalue\n      dup1\n      iszero\n      tag_10\n      jumpi\n      0x00\n      dup1\n      revert\n    tag_10:\n      pop\n      tag_11\n      tag_12\n      jump\t// in\n    tag_11:\n      mload(0x40)\n      tag_13\n      swap2\n      swap1\n      tag_14\n      jump\t// in\n    tag_13:\n      mload(0x40)\n      dup1\n      swap2\n      sub\n      swap1\n      return\n        /* \"Vulnerable.sol\":92:135  mapping(address => uint256) public balances */\n    tag_4:\n      callvalue\n      dup1\n      iszero\n      tag_15\n      jumpi\n      0x00\n      dup1\n      revert\n    tag_15:\n      pop\n      tag_16\n      0x04\n      dup1\n      calldatasize\n      sub\n      dup2\n      add\n      swap1\n      tag_17\n      swap2\n      swap1\n      tag_18\n      jump\t// in\n    tag_17:\n      tag_19\n      jump\t// in\n    tag_16:\n      mload(0x40)\n      tag_20\n      swap2\n      swap1\n      tag_14\n      jump\t// in\n    tag_20:\n      mload(0x40)\n      dup1\n      swap2\n      sub\n      swap1\n      return\n        /* \"Vulnerable.sol\":264:478  function withdrawAll() external {... */\n    tag_5:\n      callvalue\n      dup1\n      iszero\n      tag_21\n      jumpi\n      0x00\n      dup1\n      revert\n    tag_21:\n      pop\n      tag_22\n      tag_23\n      jump\t// in\n    tag_22:\n      stop\n        /* \"Vulnerable.sol\":484:675  function transfer(address payable _to, uint256 amount) public {... */\n    tag_6:\n      callvalue\n      dup1\n      iszero\n      tag_24\n      jumpi\n      0x00\n      dup1\n      revert\n    tag_24:\n      pop\n      tag_25\n      0x04\n      dup1\n      calldatasize\n      sub\n      dup2\n      add\n      swap1\n      tag_26\n      swap2\n      swap1\n      tag_27\n      jump\t// in\n    tag_26:\n      tag_28\n      jump\t// in\n    tag_25:\n      stop\n        /* \"Vulnerable.sol\":172:258  function deposit() external payable {... */\n    tag_7:\n      tag_29\n      tag_30\n      jump\t// in\n    tag_29:\n      stop\n        /* \"Vulnerable.sol\":716:813  function getBalance() public view returns (uint256) {... */\n    tag_12:\n        /* \"Vulnerable.sol\":759:766  uint256 */\n      0x00\n        /* \"Vulnerable.sol\":785:806  address(this).balance */\n      selfbalance\n        /* \"Vulnerable.sol\":778:806  return address(this).balance */\n      swap1\n      pop\n        /* \"Vulnerable.sol\":716:813  function getBalance() public view returns (uint256) {... */\n      swap1\n      jump\t// out\n        /* \"Vulnerable.sol\":92:135  mapping(address => uint256) public balances */\n    tag_19:\n      mstore(0x20, 0x00)\n      dup1\n      0x00\n      mstore\n      keccak256(0x00, 0x40)\n      0x00\n      swap2\n      pop\n      swap1\n      pop\n      sload\n      dup2\n      jump\t// out\n        /* \"Vulnerable.sol\":264:478  function withdrawAll() external {... */\n    tag_23:\n        /* \"Vulnerable.sol\":338:339  0 */\n      0x00\n        /* \"Vulnerable.sol\":314:322  balances */\n      dup1\n        /* \"Vulnerable.sol\":314:334  balances[msg.sender] */\n      0x00\n        /* \"Vulnerable.sol\":323:333  msg.sender */\n      caller\n        /* \"Vulnerable.sol\":314:334  balances[msg.sender] */\n      0xffffffffffffffffffffffffffffffffffffffff\n      and\n      0xffffffffffffffffffffffffffffffffffffffff\n      and\n      dup2\n      mstore\n      0x20\n      add\n      swap1\n      dup2\n      mstore\n      0x20\n      add\n      0x00\n      keccak256\n      sload\n        /* \"Vulnerable.sol\":314:339  balances[msg.sender] >= 0 */\n      lt\n      iszero\n        /* \"Vulnerable.sol\":306:340  require(balances[msg.sender] >= 0) */\n      tag_33\n      jumpi\n      0x00\n      dup1\n      revert\n    tag_33:\n        /* \"Vulnerable.sol\":351:360  bool sent */\n      0x00\n        /* \"Vulnerable.sol\":366:376  msg.sender */\n      caller\n        /* \"Vulnerable.sol\":366:381  msg.sender.call */\n      0xffffffffffffffffffffffffffffffffffffffff\n      and\n        /* \"Vulnerable.sol\":389:397  balances */\n      0x00\n        /* \"Vulnerable.sol\":389:409  balances[msg.sender] */\n      dup1\n        /* \"Vulnerable.sol\":398:408  msg.sender */\n      caller\n        /* \"Vulnerable.sol\":389:409  balances[msg.sender] */\n      0xffffffffffffffffffffffffffffffffffffffff\n      and\n      0xffffffffffffffffffffffffffffffffffffffff\n      and\n      dup2\n      mstore\n      0x20\n      add\n      swap1\n      dup2\n      mstore\n      0x20\n      add\n      0x00\n      keccak256\n      sload\n        /* \"Vulnerable.sol\":366:414  msg.sender.call{value: balances[msg.sender]}(\"\") */\n      mload(0x40)\n      tag_34\n      swap1\n      tag_35\n      jump\t// in\n    tag_34:\n      0x00\n      mload(0x40)\n      dup1\n      dup4\n      sub\n      dup2\n      dup6\n      dup8\n      gas\n      call\n      swap3\n      pop\n      pop\n      pop\n      returndatasize\n      dup1\n      0x00\n      dup2\n      eq\n      tag_38\n      jumpi\n      mload(0x40)\n      swap2\n      pop\n      and(add(returndatasize, 0x3f), not(0x1f))\n      dup3\n      add\n      0x40\n      mstore\n      returndatasize\n      dup3\n      mstore\n      returndatasize\n      0x00\n      0x20\n      dup5\n      add\n      returndatacopy\n      jump(tag_37)\n    tag_38:\n      0x60\n      swap2\n      pop\n    tag_37:\n      pop\n        /* \"Vulnerable.sol\":350:414  (bool sent, ) = msg.sender.call{value: balances[msg.sender]}(\"\") */\n      pop\n      swap1\n      pop\n        /* \"Vulnerable.sol\":432:436  sent */\n      dup1\n        /* \"Vulnerable.sol\":424:437  require(sent) */\n      tag_39\n      jumpi\n      0x00\n      dup1\n      revert\n    tag_39:\n        /* \"Vulnerable.sol\":470:471  0 */\n      0x00\n        /* \"Vulnerable.sol\":447:455  balances */\n      dup1\n        /* \"Vulnerable.sol\":447:467  balances[msg.sender] */\n      0x00\n        /* \"Vulnerable.sol\":456:466  msg.sender */\n      caller\n        /* \"Vulnerable.sol\":447:467  balances[msg.sender] */\n      0xffffffffffffffffffffffffffffffffffffffff\n      and\n      0xffffffffffffffffffffffffffffffffffffffff\n      and\n      dup2\n      mstore\n      0x20\n      add\n      swap1\n      dup2\n      mstore\n      0x20\n      add\n      0x00\n      keccak256\n        /* \"Vulnerable.sol\":447:471  balances[msg.sender] = 0 */\n      dup2\n      swap1\n      sstore\n      pop\n        /* \"Vulnerable.sol\":296:478  {... */\n      pop\n        /* \"Vulnerable.sol\":264:478  function withdrawAll() external {... */\n      jump\t// out\n        /* \"Vulnerable.sol\":484:675  function transfer(address payable _to, uint256 amount) public {... */\n    tag_28:\n        /* \"Vulnerable.sol\":588:594  amount */\n      dup1\n        /* \"Vulnerable.sol\":564:572  balances */\n      0x00\n        /* \"Vulnerable.sol\":564:584  balances[msg.sender] */\n      dup1\n        /* \"Vulnerable.sol\":573:583  msg.sender */\n      caller\n        /* \"Vulnerable.sol\":564:584  balances[msg.sender] */\n      0xffffffffffffffffffffffffffffffffffffffff\n      and\n      0xffffffffffffffffffffffffffffffffffffffff\n      and\n      dup2\n      mstore\n      0x20\n      add\n      swap1\n      dup2\n      mstore\n      0x20\n      add\n      0x00\n      keccak256\n      sload\n        /* \"Vulnerable.sol\":564:594  balances[msg.sender] >= amount */\n      lt\n      iszero\n        /* \"Vulnerable.sol\":556:595  require(balances[msg.sender] >= amount) */\n      tag_41\n      jumpi\n      0x00\n      dup1\n      revert\n    tag_41:\n        /* \"Vulnerable.sol\":629:635  amount */\n      dup1\n        /* \"Vulnerable.sol\":605:613  balances */\n      0x00\n        /* \"Vulnerable.sol\":605:625  balances[msg.sender] */\n      dup1\n        /* \"Vulnerable.sol\":614:624  msg.sender */\n      caller\n        /* \"Vulnerable.sol\":605:625  balances[msg.sender] */\n      0xffffffffffffffffffffffffffffffffffffffff\n      and\n      0xffffffffffffffffffffffffffffffffffffffff\n      and\n      dup2\n      mstore\n      0x20\n      add\n      swap1\n      dup2\n      mstore\n      0x20\n      add\n      0x00\n      keccak256\n      0x00\n        /* \"Vulnerable.sol\":605:635  balances[msg.sender] -= amount */\n      dup3\n      dup3\n      sload\n      tag_42\n      swap2\n      swap1\n      tag_43\n      jump\t// in\n    tag_42:\n      swap3\n      pop\n      pop\n      dup2\n      swap1\n      sstore\n      pop\n        /* \"Vulnerable.sol\":662:668  amount */\n      dup1\n        /* \"Vulnerable.sol\":645:653  balances */\n      0x00\n        /* \"Vulnerable.sol\":645:658  balances[_to] */\n      dup1\n        /* \"Vulnerable.sol\":654:657  _to */\n      dup5\n        /* \"Vulnerable.sol\":645:658  balances[_to] */\n      0xffffffffffffffffffffffffffffffffffffffff\n      and\n      0xffffffffffffffffffffffffffffffffffffffff\n      and\n      dup2\n      mstore\n      0x20\n      add\n      swap1\n      dup2\n      mstore\n      0x20\n      add\n      0x00\n      keccak256\n      0x00\n        /* \"Vulnerable.sol\":645:668  balances[_to] += amount */\n      dup3\n      dup3\n      sload\n      tag_44\n      swap2\n      swap1\n      tag_45\n      jump\t// in\n    tag_44:\n      swap3\n      pop\n      pop\n      dup2\n      swap1\n      sstore\n      pop\n        /* \"Vulnerable.sol\":484:675  function transfer(address payable _to, uint256 amount) public {... */\n      pop\n      pop\n      jump\t// out\n        /* \"Vulnerable.sol\":172:258  function deposit() external payable {... */\n    tag_30:\n        /* \"Vulnerable.sol\":242:251  msg.value */\n      callvalue\n        /* \"Vulnerable.sol\":218:226  balances */\n      0x00\n        /* \"Vulnerable.sol\":218:238  balances[msg.sender] */\n      dup1\n        /* \"Vulnerable.sol\":227:237  msg.sender */\n      caller\n        /* \"Vulnerable.sol\":218:238  balances[msg.sender] */\n      0xffffffffffffffffffffffffffffffffffffffff\n      and\n      0xffffffffffffffffffffffffffffffffffffffff\n      and\n      dup2\n      mstore\n      0x20\n      add\n      swap1\n      dup2\n      mstore\n      0x20\n      add\n      0x00\n      keccak256\n      0x00\n        /* \"Vulnerable.sol\":218:251  balances[msg.sender] += msg.value */\n      dup3\n      dup3\n      sload\n      tag_47\n      swap2\n      swap1\n      tag_45\n      jump\t// in\n    tag_47:\n      swap3\n      pop\n      pop\n      dup2\n      swap1\n      sstore\n      pop\n        /* \"Vulnerable.sol\":172:258  function deposit() external payable {... */\n      jump\t// out\n        /* \"#utility.yul\":7:84   */\n    tag_48:\n        /* \"#utility.yul\":44:51   */\n      0x00\n        /* \"#utility.yul\":73:78   */\n      dup2\n        /* \"#utility.yul\":62:78   */\n      swap1\n      pop\n        /* \"#utility.yul\":7:84   */\n      swap2\n      swap1\n      pop\n      jump\t// out\n        /* \"#utility.yul\":90:208   */\n    tag_49:\n        /* \"#utility.yul\":177:201   */\n      tag_69\n        /* \"#utility.yul\":195:200   */\n      dup2\n        /* \"#utility.yul\":177:201   */\n      tag_48\n      jump\t// in\n    tag_69:\n        /* \"#utility.yul\":172:175   */\n      dup3\n        /* \"#utility.yul\":165:202   */\n      mstore\n        /* \"#utility.yul\":90:208   */\n      pop\n      pop\n      jump\t// out\n        /* \"#utility.yul\":214:436   */\n    tag_14:\n        /* \"#utility.yul\":307:311   */\n      0x00\n        /* \"#utility.yul\":345:347   */\n      0x20\n        /* \"#utility.yul\":334:343   */\n      dup3\n        /* \"#utility.yul\":330:348   */\n      add\n        /* \"#utility.yul\":322:348   */\n      swap1\n      pop\n        /* \"#utility.yul\":358:429   */\n      tag_71\n        /* \"#utility.yul\":426:427   */\n      0x00\n        /* \"#utility.yul\":415:424   */\n      dup4\n        /* \"#utility.yul\":411:428   */\n      add\n        /* \"#utility.yul\":402:408   */\n      dup5\n        /* \"#utility.yul\":358:429   */\n      tag_49\n      jump\t// in\n    tag_71:\n        /* \"#utility.yul\":214:436   */\n      swap3\n      swap2\n      pop\n      pop\n      jump\t// out\n        /* \"#utility.yul\":523:640   */\n    tag_51:\n        /* \"#utility.yul\":632:633   */\n      0x00\n        /* \"#utility.yul\":629:630   */\n      dup1\n        /* \"#utility.yul\":622:634   */\n      revert\n        /* \"#utility.yul\":769:895   */\n    tag_53:\n        /* \"#utility.yul\":806:813   */\n      0x00\n        /* \"#utility.yul\":846:888   */\n      0xffffffffffffffffffffffffffffffffffffffff\n        /* \"#utility.yul\":839:844   */\n      dup3\n        /* \"#utility.yul\":835:889   */\n      and\n        /* \"#utility.yul\":824:889   */\n      swap1\n      pop\n        /* \"#utility.yul\":769:895   */\n      swap2\n      swap1\n      pop\n      jump\t// out\n        /* \"#utility.yul\":901:997   */\n    tag_54:\n        /* \"#utility.yul\":938:945   */\n      0x00\n        /* \"#utility.yul\":967:991   */\n      tag_77\n        /* \"#utility.yul\":985:990   */\n      dup3\n        /* \"#utility.yul\":967:991   */\n      tag_53\n      jump\t// in\n    tag_77:\n        /* \"#utility.yul\":956:991   */\n      swap1\n      pop\n        /* \"#utility.yul\":901:997   */\n      swap2\n      swap1\n      pop\n      jump\t// out\n        /* \"#utility.yul\":1003:1125   */\n    tag_55:\n        /* \"#utility.yul\":1076:1100   */\n      tag_79\n        /* \"#utility.yul\":1094:1099   */\n      dup2\n        /* \"#utility.yul\":1076:1100   */\n      tag_54\n      jump\t// in\n    tag_79:\n        /* \"#utility.yul\":1069:1074   */\n      dup2\n        /* \"#utility.yul\":1066:1101   */\n      eq\n        /* \"#utility.yul\":1056:1119   */\n      tag_80\n      jumpi\n        /* \"#utility.yul\":1115:1116   */\n      0x00\n        /* \"#utility.yul\":1112:1113   */\n      dup1\n        /* \"#utility.yul\":1105:1117   */\n      revert\n        /* \"#utility.yul\":1056:1119   */\n    tag_80:\n        /* \"#utility.yul\":1003:1125   */\n      pop\n      jump\t// out\n        /* \"#utility.yul\":1131:1270   */\n    tag_56:\n        /* \"#utility.yul\":1177:1182   */\n      0x00\n        /* \"#utility.yul\":1215:1221   */\n      dup2\n        /* \"#utility.yul\":1202:1222   */\n      calldataload\n        /* \"#utility.yul\":1193:1222   */\n      swap1\n      pop\n        /* \"#utility.yul\":1231:1264   */\n      tag_82\n        /* \"#utility.yul\":1258:1263   */\n      dup2\n        /* \"#utility.yul\":1231:1264   */\n      tag_55\n      jump\t// in\n    tag_82:\n        /* \"#utility.yul\":1131:1270   */\n      swap3\n      swap2\n      pop\n      pop\n      jump\t// out\n        /* \"#utility.yul\":1276:1605   */\n    tag_18:\n        /* \"#utility.yul\":1335:1341   */\n      0x00\n        /* \"#utility.yul\":1384:1386   */\n      0x20\n        /* \"#utility.yul\":1372:1381   */\n      dup3\n        /* \"#utility.yul\":1363:1370   */\n      dup5\n        /* \"#utility.yul\":1359:1382   */\n      sub\n        /* \"#utility.yul\":1355:1387   */\n      slt\n        /* \"#utility.yul\":1352:1471   */\n      iszero\n      tag_84\n      jumpi\n        /* \"#utility.yul\":1390:1469   */\n      tag_85\n      tag_51\n      jump\t// in\n    tag_85:\n        /* \"#utility.yul\":1352:1471   */\n    tag_84:\n        /* \"#utility.yul\":1510:1511   */\n      0x00\n        /* \"#utility.yul\":1535:1588   */\n      tag_86\n        /* \"#utility.yul\":1580:1587   */\n      dup5\n        /* \"#utility.yul\":1571:1577   */\n      dup3\n        /* \"#utility.yul\":1560:1569   */\n      dup6\n        /* \"#utility.yul\":1556:1578   */\n      add\n        /* \"#utility.yul\":1535:1588   */\n      tag_56\n      jump\t// in\n    tag_86:\n        /* \"#utility.yul\":1525:1588   */\n      swap2\n      pop\n        /* \"#utility.yul\":1481:1598   */\n      pop\n        /* \"#utility.yul\":1276:1605   */\n      swap3\n      swap2\n      pop\n      pop\n      jump\t// out\n        /* \"#utility.yul\":1611:1715   */\n    tag_57:\n        /* \"#utility.yul\":1656:1663   */\n      0x00\n        /* \"#utility.yul\":1685:1709   */\n      tag_88\n        /* \"#utility.yul\":1703:1708   */\n      dup3\n        /* \"#utility.yul\":1685:1709   */\n      tag_53\n      jump\t// in\n    tag_88:\n        /* \"#utility.yul\":1674:1709   */\n      swap1\n      pop\n        /* \"#utility.yul\":1611:1715   */\n      swap2\n      swap1\n      pop\n      jump\t// out\n        /* \"#utility.yul\":1721:1859   */\n    tag_58:\n        /* \"#utility.yul\":1802:1834   */\n      tag_90\n        /* \"#utility.yul\":1828:1833   */\n      dup2\n        /* \"#utility.yul\":1802:1834   */\n      tag_57\n      jump\t// in\n    tag_90:\n        /* \"#utility.yul\":1795:1800   */\n      dup2\n        /* \"#utility.yul\":1792:1835   */\n      eq\n        /* \"#utility.yul\":1782:1853   */\n      tag_91\n      jumpi\n        /* \"#utility.yul\":1849:1850   */\n      0x00\n        /* \"#utility.yul\":1846:1847   */\n      dup1\n        /* \"#utility.yul\":1839:1851   */\n      revert\n        /* \"#utility.yul\":1782:1853   */\n    tag_91:\n        /* \"#utility.yul\":1721:1859   */\n      pop\n      jump\t// out\n        /* \"#utility.yul\":1865:2020   */\n    tag_59:\n        /* \"#utility.yul\":1919:1924   */\n      0x00\n        /* \"#utility.yul\":1957:1963   */\n      dup2\n        /* \"#utility.yul\":1944:1964   */\n      calldataload\n        /* \"#utility.yul\":1935:1964   */\n      swap1\n      pop\n        /* \"#utility.yul\":1973:2014   */\n      tag_93\n        /* \"#utility.yul\":2008:2013   */\n      dup2\n        /* \"#utility.yul\":1973:2014   */\n      tag_58\n      jump\t// in\n    tag_93:\n        /* \"#utility.yul\":1865:2020   */\n      swap3\n      swap2\n      pop\n      pop\n      jump\t// out\n        /* \"#utility.yul\":2026:2148   */\n    tag_60:\n        /* \"#utility.yul\":2099:2123   */\n      tag_95\n        /* \"#utility.yul\":2117:2122   */\n      dup2\n        /* \"#utility.yul\":2099:2123   */\n      tag_48\n      jump\t// in\n    tag_95:\n        /* \"#utility.yul\":2092:2097   */\n      dup2\n        /* \"#utility.yul\":2089:2124   */\n      eq\n        /* \"#utility.yul\":2079:2142   */\n      tag_96\n      jumpi\n        /* \"#utility.yul\":2138:2139   */\n      0x00\n        /* \"#utility.yul\":2135:2136   */\n      dup1\n        /* \"#utility.yul\":2128:2140   */\n      revert\n        /* \"#utility.yul\":2079:2142   */\n    tag_96:\n        /* \"#utility.yul\":2026:2148   */\n      pop\n      jump\t// out\n        /* \"#utility.yul\":2154:2293   */\n    tag_61:\n        /* \"#utility.yul\":2200:2205   */\n      0x00\n        /* \"#utility.yul\":2238:2244   */\n      dup2\n        /* \"#utility.yul\":2225:2245   */\n      calldataload\n        /* \"#utility.yul\":2216:2245   */\n      swap1\n      pop\n        /* \"#utility.yul\":2254:2287   */\n      tag_98\n        /* \"#utility.yul\":2281:2286   */\n      dup2\n        /* \"#utility.yul\":2254:2287   */\n      tag_60\n      jump\t// in\n    tag_98:\n        /* \"#utility.yul\":2154:2293   */\n      swap3\n      swap2\n      pop\n      pop\n      jump\t// out\n        /* \"#utility.yul\":2299:2789   */\n    tag_27:\n        /* \"#utility.yul\":2375:2381   */\n      0x00\n        /* \"#utility.yul\":2383:2389   */\n      dup1\n        /* \"#utility.yul\":2432:2434   */\n      0x40\n        /* \"#utility.yul\":2420:2429   */\n      dup4\n        /* \"#utility.yul\":2411:2418   */\n      dup6\n        /* \"#utility.yul\":2407:2430   */\n      sub\n        /* \"#utility.yul\":2403:2435   */\n      slt\n        /* \"#utility.yul\":2400:2519   */\n      iszero\n      tag_100\n      jumpi\n        /* \"#utility.yul\":2438:2517   */\n      tag_101\n      tag_51\n      jump\t// in\n    tag_101:\n        /* \"#utility.yul\":2400:2519   */\n    tag_100:\n        /* \"#utility.yul\":2558:2559   */\n      0x00\n        /* \"#utility.yul\":2583:2644   */\n      tag_102\n        /* \"#utility.yul\":2636:2643   */\n      dup6\n        /* \"#utility.yul\":2627:2633   */\n      dup3\n        /* \"#utility.yul\":2616:2625   */\n      dup7\n        /* \"#utility.yul\":2612:2634   */\n      add\n        /* \"#utility.yul\":2583:2644   */\n      tag_59\n      jump\t// in\n    tag_102:\n        /* \"#utility.yul\":2573:2644   */\n      swap3\n      pop\n        /* \"#utility.yul\":2529:2654   */\n      pop\n        /* \"#utility.yul\":2693:2695   */\n      0x20\n        /* \"#utility.yul\":2719:2772   */\n      tag_103\n        /* \"#utility.yul\":2764:2771   */\n      dup6\n        /* \"#utility.yul\":2755:2761   */\n      dup3\n        /* \"#utility.yul\":2744:2753   */\n      dup7\n        /* \"#utility.yul\":2740:2762   */\n      add\n        /* \"#utility.yul\":2719:2772   */\n      tag_61\n      jump\t// in\n    tag_103:\n        /* \"#utility.yul\":2709:2772   */\n      swap2\n      pop\n        /* \"#utility.yul\":2664:2782   */\n      pop\n        /* \"#utility.yul\":2299:2789   */\n      swap3\n      pop\n      swap3\n      swap1\n      pop\n      jump\t// out\n        /* \"#utility.yul\":2795:2942   */\n    tag_62:\n        /* \"#utility.yul\":2896:2907   */\n      0x00\n        /* \"#utility.yul\":2933:2936   */\n      dup2\n        /* \"#utility.yul\":2918:2936   */\n      swap1\n      pop\n        /* \"#utility.yul\":2795:2942   */\n      swap3\n      swap2\n      pop\n      pop\n      jump\t// out\n        /* \"#utility.yul\":2948:3062   */\n    tag_63:\n      pop\n      jump\t// out\n        /* \"#utility.yul\":3068:3466   */\n    tag_64:\n        /* \"#utility.yul\":3227:3230   */\n      0x00\n        /* \"#utility.yul\":3248:3331   */\n      tag_107\n        /* \"#utility.yul\":3329:3330   */\n      0x00\n        /* \"#utility.yul\":3324:3327   */\n      dup4\n        /* \"#utility.yul\":3248:3331   */\n      tag_62\n      jump\t// in\n    tag_107:\n        /* \"#utility.yul\":3241:3331   */\n      swap2\n      pop\n        /* \"#utility.yul\":3340:3433   */\n      tag_108\n        /* \"#utility.yul\":3429:3432   */\n      dup3\n        /* \"#utility.yul\":3340:3433   */\n      tag_63\n      jump\t// in\n    tag_108:\n        /* \"#utility.yul\":3458:3459   */\n      0x00\n        /* \"#utility.yul\":3453:3456   */\n      dup3\n        /* \"#utility.yul\":3449:3460   */\n      add\n        /* \"#utility.yul\":3442:3460   */\n      swap1\n      pop\n        /* \"#utility.yul\":3068:3466   */\n      swap2\n      swap1\n      pop\n      jump\t// out\n        /* \"#utility.yul\":3472:3851   */\n    tag_35:\n        /* \"#utility.yul\":3656:3659   */\n      0x00\n        /* \"#utility.yul\":3678:3825   */\n      tag_110\n        /* \"#utility.yul\":3821:3824   */\n      dup3\n        /* \"#utility.yul\":3678:3825   */\n      tag_64\n      jump\t// in\n    tag_110:\n        /* \"#utility.yul\":3671:3825   */\n      swap2\n      pop\n        /* \"#utility.yul\":3842:3845   */\n      dup2\n        /* \"#utility.yul\":3835:3845   */\n      swap1\n      pop\n        /* \"#utility.yul\":3472:3851   */\n      swap2\n      swap1\n      pop\n      jump\t// out\n        /* \"#utility.yul\":3857:4037   */\n    tag_65:\n        /* \"#utility.yul\":3905:3982   */\n      0x4e487b7100000000000000000000000000000000000000000000000000000000\n        /* \"#utility.yul\":3902:3903   */\n      0x00\n        /* \"#utility.yul\":3895:3983   */\n      mstore\n        /* \"#utility.yul\":4002:4006   */\n      0x11\n        /* \"#utility.yul\":3999:4000   */\n      0x04\n        /* \"#utility.yul\":3992:4007   */\n      mstore\n        /* \"#utility.yul\":4026:4030   */\n      0x24\n        /* \"#utility.yul\":4023:4024   */\n      0x00\n        /* \"#utility.yul\":4016:4031   */\n      revert\n        /* \"#utility.yul\":4043:4237   */\n    tag_43:\n        /* \"#utility.yul\":4083:4087   */\n      0x00\n        /* \"#utility.yul\":4103:4123   */\n      tag_113\n        /* \"#utility.yul\":4121:4122   */\n      dup3\n        /* \"#utility.yul\":4103:4123   */\n      tag_48\n      jump\t// in\n    tag_113:\n        /* \"#utility.yul\":4098:4123   */\n      swap2\n      pop\n        /* \"#utility.yul\":4137:4157   */\n      tag_114\n        /* \"#utility.yul\":4155:4156   */\n      dup4\n        /* \"#utility.yul\":4137:4157   */\n      tag_48\n      jump\t// in\n    tag_114:\n        /* \"#utility.yul\":4132:4157   */\n      swap3\n      pop\n        /* \"#utility.yul\":4181:4182   */\n      dup3\n        /* \"#utility.yul\":4178:4179   */\n      dup3\n        /* \"#utility.yul\":4174:4183   */\n      sub\n        /* \"#utility.yul\":4166:4183   */\n      swap1\n      pop\n        /* \"#utility.yul\":4205:4206   */\n      dup2\n        /* \"#utility.yul\":4199:4203   */\n      dup2\n        /* \"#utility.yul\":4196:4207   */\n      gt\n        /* \"#utility.yul\":4193:4230   */\n      iszero\n      tag_115\n      jumpi\n        /* \"#utility.yul\":4210:4228   */\n      tag_116\n      tag_65\n      jump\t// in\n    tag_116:\n        /* \"#utility.yul\":4193:4230   */\n    tag_115:\n        /* \"#utility.yul\":4043:4237   */\n      swap3\n      swap2\n      pop\n      pop\n      jump\t// out\n        /* \"#utility.yul\":4243:4434   */\n    tag_45:\n        /* \"#utility.yul\":4283:4286   */\n      0x00\n        /* \"#utility.yul\":4302:4322   */\n      tag_118\n        /* \"#utility.yul\":4320:4321   */\n      dup3\n        /* \"#utility.yul\":4302:4322   */\n      tag_48\n      jump\t// in\n    tag_118:\n        /* \"#utility.yul\":4297:4322   */\n      swap2\n      pop\n        /* \"#utility.yul\":4336:4356   */\n      tag_119\n        /* \"#utility.yul\":4354:4355   */\n      dup4\n        /* \"#utility.yul\":4336:4356   */\n      tag_48\n      jump\t// in\n    tag_119:\n        /* \"#utility.yul\":4331:4356   */\n      swap3\n      pop\n        /* \"#utility.yul\":4379:4380   */\n      dup3\n        /* \"#utility.yul\":4376:4377   */\n      dup3\n        /* \"#utility.yul\":4372:4381   */\n      add\n        /* \"#utility.yul\":4365:4381   */\n      swap1\n      pop\n        /* \"#utility.yul\":4400:4403   */\n      dup1\n        /* \"#utility.yul\":4397:4398   */\n      dup3\n        /* \"#utility.yul\":4394:4404   */\n      gt\n        /* \"#utility.yul\":4391:4427   */\n      iszero\n      tag_120\n      jumpi\n        /* \"#utility.yul\":4407:4425   */\n      tag_121\n      tag_65\n      jump\t// in\n    tag_121:\n        /* \"#utility.yul\":4391:4427   */\n    tag_120:\n        /* \"#utility.yul\":4243:4434   */\n      swap3\n      swap2\n      pop\n      pop\n      jump\t// out\n\n    auxdata: 0xa26469706673582212208dbb88889130a2f24b6d27e698fa702498c448fbc9023bd97aea3ed853fec07d64736f6c63430008110033\n}\n",
				"bytecode": {
					"linkReferences": {},
					"object": "6080604052610644806100136000396000f3fe60806040526004361061004e5760003560e01c806312065fe01461005a57806327e235e314610085578063853828b6146100c2578063a9059cbb146100d9578063d0e30db01461010257610055565b3661005557005b600080fd5b34801561006657600080fd5b5061006f61010c565b60405161007c91906103dc565b60405180910390f35b34801561009157600080fd5b506100ac60048036038101906100a7919061045a565b610114565b6040516100b991906103dc565b60405180910390f35b3480156100ce57600080fd5b506100d761012c565b005b3480156100e557600080fd5b5061010060048036038101906100fb91906104f1565b610273565b005b61010a61036c565b005b600047905090565b60006020528060005260406000206000915090505481565b60008060003373ffffffffffffffffffffffffffffffffffffffff1673ffffffffffffffffffffffffffffffffffffffff16815260200190815260200160002054101561017857600080fd5b60003373ffffffffffffffffffffffffffffffffffffffff166000803373ffffffffffffffffffffffffffffffffffffffff1673ffffffffffffffffffffffffffffffffffffffff168152602001908152602001600020546040516101dc90610562565b60006040518083038185875af1925050503d8060008114610219576040519150601f19603f3d011682016040523d82523d6000602084013e61021e565b606091505b505090508061022c57600080fd5b60008060003373ffffffffffffffffffffffffffffffffffffffff1673ffffffffffffffffffffffffffffffffffffffff1681526020019081526020016000208190555050565b806000803373ffffffffffffffffffffffffffffffffffffffff1673ffffffffffffffffffffffffffffffffffffffff1681526020019081526020016000205410156102be57600080fd5b806000803373ffffffffffffffffffffffffffffffffffffffff1673ffffffffffffffffffffffffffffffffffffffff168152602001908152602001600020600082825461030c91906105a6565b92505081905550806000808473ffffffffffffffffffffffffffffffffffffffff1673ffffffffffffffffffffffffffffffffffffffff168152602001908152602001600020600082825461036191906105da565b925050819055505050565b346000803373ffffffffffffffffffffffffffffffffffffffff1673ffffffffffffffffffffffffffffffffffffffff16815260200190815260200160002060008282546103ba91906105da565b92505081905550565b6000819050919050565b6103d6816103c3565b82525050565b60006020820190506103f160008301846103cd565b92915050565b600080fd5b600073ffffffffffffffffffffffffffffffffffffffff82169050919050565b6000610427826103fc565b9050919050565b6104378161041c565b811461044257600080fd5b50565b6000813590506104548161042e565b92915050565b6000602082840312156104705761046f6103f7565b5b600061047e84828501610445565b91505092915050565b6000610492826103fc565b9050919050565b6104a281610487565b81146104ad57600080fd5b50565b6000813590506104bf81610499565b92915050565b6104ce816103c3565b81146104d957600080fd5b50565b6000813590506104eb816104c5565b92915050565b60008060408385031215610508576105076103f7565b5b6000610516858286016104b0565b9250506020610527858286016104dc565b9150509250929050565b600081905092915050565b50565b600061054c600083610531565b91506105578261053c565b600082019050919050565b600061056d8261053f565b9150819050919050565b7f4e487b7100000000000000000000000000000000000000000000000000000000600052601160045260246000fd5b60006105b1826103c3565b91506105bc836103c3565b92508282039050818111156105d4576105d3610577565b5b92915050565b60006105e5826103c3565b91506105f0836103c3565b925082820190508082111561060857610607610577565b5b9291505056fea26469706673582212208dbb88889130a2f24b6d27e698fa702498c448fbc9023bd97aea3ed853fec07d64736f6c63430008110033",
					"opcodes": "PUSH1 0x80 PUSH1 0x40 MSTORE PUSH2 0x644 DUP1 PUSH2 0x13 PUSH1 0x0 CODECOPY PUSH1 0x0 RETURN INVALID PUSH1 0x80 PUSH1 0x40 MSTORE PUSH1 0x4 CALLDATASIZE LT PUSH2 0x4E JUMPI PUSH1 0x0 CALLDATALOAD PUSH1 0xE0 SHR DUP1 PUSH4 0x12065FE0 EQ PUSH2 0x5A JUMPI DUP1 PUSH4 0x27E235E3 EQ PUSH2 0x85 JUMPI DUP1 PUSH4 0x853828B6 EQ PUSH2 0xC2 JUMPI DUP1 PUSH4 0xA9059CBB EQ PUSH2 0xD9 JUMPI DUP1 PUSH4 0xD0E30DB0 EQ PUSH2 0x102 JUMPI PUSH2 0x55 JUMP JUMPDEST CALLDATASIZE PUSH2 0x55 JUMPI STOP JUMPDEST PUSH1 0x0 DUP1 REVERT JUMPDEST CALLVALUE DUP1 ISZERO PUSH2 0x66 JUMPI PUSH1 0x0 DUP1 REVERT JUMPDEST POP PUSH2 0x6F PUSH2 0x10C JUMP JUMPDEST PUSH1 0x40 MLOAD PUSH2 0x7C SWAP2 SWAP1 PUSH2 0x3DC JUMP JUMPDEST PUSH1 0x40 MLOAD DUP1 SWAP2 SUB SWAP1 RETURN JUMPDEST CALLVALUE DUP1 ISZERO PUSH2 0x91 JUMPI PUSH1 0x0 DUP1 REVERT JUMPDEST POP PUSH2 0xAC PUSH1 0x4 DUP1 CALLDATASIZE SUB DUP2 ADD SWAP1 PUSH2 0xA7 SWAP2 SWAP1 PUSH2 0x45A JUMP JUMPDEST PUSH2 0x114 JUMP JUMPDEST PUSH1 0x40 MLOAD PUSH2 0xB9 SWAP2 SWAP1 PUSH2 0x3DC JUMP JUMPDEST PUSH1 0x40 MLOAD DUP1 SWAP2 SUB SWAP1 RETURN JUMPDEST CALLVALUE DUP1 ISZERO PUSH2 0xCE JUMPI PUSH1 0x0 DUP1 REVERT JUMPDEST POP PUSH2 0xD7 PUSH2 0x12C JUMP JUMPDEST STOP JUMPDEST CALLVALUE DUP1 ISZERO PUSH2 0xE5 JUMPI PUSH1 0x0 DUP1 REVERT JUMPDEST POP PUSH2 0x100 PUSH1 0x4 DUP1 CALLDATASIZE SUB DUP2 ADD SWAP1 PUSH2 0xFB SWAP2 SWAP1 PUSH2 0x4F1 JUMP JUMPDEST PUSH2 0x273 JUMP JUMPDEST STOP JUMPDEST PUSH2 0x10A PUSH2 0x36C JUMP JUMPDEST STOP JUMPDEST PUSH1 0x0 SELFBALANCE SWAP1 POP SWAP1 JUMP JUMPDEST PUSH1 0x0 PUSH1 0x20 MSTORE DUP1 PUSH1 0x0 MSTORE PUSH1 0x40 PUSH1 0x0 KECCAK256 PUSH1 0x0 SWAP2 POP SWAP1 POP SLOAD DUP2 JUMP JUMPDEST PUSH1 0x0 DUP1 PUSH1 0x0 CALLER PUSH20 0xFFFFFFFFFFFFFFFFFFFFFFFFFFFFFFFFFFFFFFFF AND PUSH20 0xFFFFFFFFFFFFFFFFFFFFFFFFFFFFFFFFFFFFFFFF AND DUP2 MSTORE PUSH1 0x20 ADD SWAP1 DUP2 MSTORE PUSH1 0x20 ADD PUSH1 0x0 KECCAK256 SLOAD LT ISZERO PUSH2 0x178 JUMPI PUSH1 0x0 DUP1 REVERT JUMPDEST PUSH1 0x0 CALLER PUSH20 0xFFFFFFFFFFFFFFFFFFFFFFFFFFFFFFFFFFFFFFFF AND PUSH1 0x0 DUP1 CALLER PUSH20 0xFFFFFFFFFFFFFFFFFFFFFFFFFFFFFFFFFFFFFFFF AND PUSH20 0xFFFFFFFFFFFFFFFFFFFFFFFFFFFFFFFFFFFFFFFF AND DUP2 MSTORE PUSH1 0x20 ADD SWAP1 DUP2 MSTORE PUSH1 0x20 ADD PUSH1 0x0 KECCAK256 SLOAD PUSH1 0x40 MLOAD PUSH2 0x1DC SWAP1 PUSH2 0x562 JUMP JUMPDEST PUSH1 0x0 PUSH1 0x40 MLOAD DUP1 DUP4 SUB DUP2 DUP6 DUP8 GAS CALL SWAP3 POP POP POP RETURNDATASIZE DUP1 PUSH1 0x0 DUP2 EQ PUSH2 0x219 JUMPI PUSH1 0x40 MLOAD SWAP2 POP PUSH1 0x1F NOT PUSH1 0x3F RETURNDATASIZE ADD AND DUP3 ADD PUSH1 0x40 MSTORE RETURNDATASIZE DUP3 MSTORE RETURNDATASIZE PUSH1 0x0 PUSH1 0x20 DUP5 ADD RETURNDATACOPY PUSH2 0x21E JUMP JUMPDEST PUSH1 0x60 SWAP2 POP JUMPDEST POP POP SWAP1 POP DUP1 PUSH2 0x22C JUMPI PUSH1 0x0 DUP1 REVERT JUMPDEST PUSH1 0x0 DUP1 PUSH1 0x0 CALLER PUSH20 0xFFFFFFFFFFFFFFFFFFFFFFFFFFFFFFFFFFFFFFFF AND PUSH20 0xFFFFFFFFFFFFFFFFFFFFFFFFFFFFFFFFFFFFFFFF AND DUP2 MSTORE PUSH1 0x20 ADD SWAP1 DUP2 MSTORE PUSH1 0x20 ADD PUSH1 0x0 KECCAK256 DUP2 SWAP1 SSTORE POP POP JUMP JUMPDEST DUP1 PUSH1 0x0 DUP1 CALLER PUSH20 0xFFFFFFFFFFFFFFFFFFFFFFFFFFFFFFFFFFFFFFFF AND PUSH20 0xFFFFFFFFFFFFFFFFFFFFFFFFFFFFFFFFFFFFFFFF AND DUP2 MSTORE PUSH1 0x20 ADD SWAP1 DUP2 MSTORE PUSH1 0x20 ADD PUSH1 0x0 KECCAK256 SLOAD LT ISZERO PUSH2 0x2BE JUMPI PUSH1 0x0 DUP1 REVERT JUMPDEST DUP1 PUSH1 0x0 DUP1 CALLER PUSH20 0xFFFFFFFFFFFFFFFFFFFFFFFFFFFFFFFFFFFFFFFF AND PUSH20 0xFFFFFFFFFFFFFFFFFFFFFFFFFFFFFFFFFFFFFFFF AND DUP2 MSTORE PUSH1 0x20 ADD SWAP1 DUP2 MSTORE PUSH1 0x20 ADD PUSH1 0x0 KECCAK256 PUSH1 0x0 DUP3 DUP3 SLOAD PUSH2 0x30C SWAP2 SWAP1 PUSH2 0x5A6 JUMP JUMPDEST SWAP3 POP POP DUP2 SWAP1 SSTORE POP DUP1 PUSH1 0x0 DUP1 DUP5 PUSH20 0xFFFFFFFFFFFFFFFFFFFFFFFFFFFFFFFFFFFFFFFF AND PUSH20 0xFFFFFFFFFFFFFFFFFFFFFFFFFFFFFFFFFFFFFFFF AND DUP2 MSTORE PUSH1 0x20 ADD SWAP1 DUP2 MSTORE PUSH1 0x20 ADD PUSH1 0x0 KECCAK256 PUSH1 0x0 DUP3 DUP3 SLOAD PUSH2 0x361 SWAP2 SWAP1 PUSH2 0x5DA JUMP JUMPDEST SWAP3 POP POP DUP2 SWAP1 SSTORE POP POP POP JUMP JUMPDEST CALLVALUE PUSH1 0x0 DUP1 CALLER PUSH20 0xFFFFFFFFFFFFFFFFFFFFFFFFFFFFFFFFFFFFFFFF AND PUSH20 0xFFFFFFFFFFFFFFFFFFFFFFFFFFFFFFFFFFFFFFFF AND DUP2 MSTORE PUSH1 0x20 ADD SWAP1 DUP2 MSTORE PUSH1 0x20 ADD PUSH1 0x0 KECCAK256 PUSH1 0x0 DUP3 DUP3 SLOAD PUSH2 0x3BA SWAP2 SWAP1 PUSH2 0x5DA JUMP JUMPDEST SWAP3 POP POP DUP2 SWAP1 SSTORE POP JUMP JUMPDEST PUSH1 0x0 DUP2 SWAP1 POP SWAP2 SWAP1 POP JUMP JUMPDEST PUSH2 0x3D6 DUP2 PUSH2 0x3C3 JUMP JUMPDEST DUP3 MSTORE POP POP JUMP JUMPDEST PUSH1 0x0 PUSH1 0x20 DUP3 ADD SWAP1 POP PUSH2 0x3F1 PUSH1 0x0 DUP4 ADD DUP5 PUSH2 0x3CD JUMP JUMPDEST SWAP3 SWAP2 POP POP JUMP JUMPDEST PUSH1 0x0 DUP1 REVERT JUMPDEST PUSH1 0x0 PUSH20 0xFFFFFFFFFFFFFFFFFFFFFFFFFFFFFFFFFFFFFFFF DUP3 AND SWAP1 POP SWAP2 SWAP1 POP JUMP JUMPDEST PUSH1 0x0 PUSH2 0x427 DUP3 PUSH2 0x3FC JUMP JUMPDEST SWAP1 POP SWAP2 SWAP1 POP JUMP JUMPDEST PUSH2 0x437 DUP2 PUSH2 0x41C JUMP JUMPDEST DUP2 EQ PUSH2 0x442 JUMPI PUSH1 0x0 DUP1 REVERT JUMPDEST POP JUMP JUMPDEST PUSH1 0x0 DUP2 CALLDATALOAD SWAP1 POP PUSH2 0x454 DUP2 PUSH2 0x42E JUMP JUMPDEST SWAP3 SWAP2 POP POP JUMP JUMPDEST PUSH1 0x0 PUSH1 0x20 DUP3 DUP5 SUB SLT ISZERO PUSH2 0x470 JUMPI PUSH2 0x46F PUSH2 0x3F7 JUMP JUMPDEST JUMPDEST PUSH1 0x0 PUSH2 0x47E DUP5 DUP3 DUP6 ADD PUSH2 0x445 JUMP JUMPDEST SWAP2 POP POP SWAP3 SWAP2 POP POP JUMP JUMPDEST PUSH1 0x0 PUSH2 0x492 DUP3 PUSH2 0x3FC JUMP JUMPDEST SWAP1 POP SWAP2 SWAP1 POP JUMP JUMPDEST PUSH2 0x4A2 DUP2 PUSH2 0x487 JUMP JUMPDEST DUP2 EQ PUSH2 0x4AD JUMPI PUSH1 0x0 DUP1 REVERT JUMPDEST POP JUMP JUMPDEST PUSH1 0x0 DUP2 CALLDATALOAD SWAP1 POP PUSH2 0x4BF DUP2 PUSH2 0x499 JUMP JUMPDEST SWAP3 SWAP2 POP POP JUMP JUMPDEST PUSH2 0x4CE DUP2 PUSH2 0x3C3 JUMP JUMPDEST DUP2 EQ PUSH2 0x4D9 JUMPI PUSH1 0x0 DUP1 REVERT JUMPDEST POP JUMP JUMPDEST PUSH1 0x0 DUP2 CALLDATALOAD SWAP1 POP PUSH2 0x4EB DUP2 PUSH2 0x4C5 JUMP JUMPDEST SWAP3 SWAP2 POP POP JUMP JUMPDEST PUSH1 0x0 DUP1 PUSH1 0x40 DUP4 DUP6 SUB SLT ISZERO PUSH2 0x508 JUMPI PUSH2 0x507 PUSH2 0x3F7 JUMP JUMPDEST JUMPDEST PUSH1 0x0 PUSH2 0x516 DUP6 DUP3 DUP7 ADD PUSH2 0x4B0 JUMP JUMPDEST SWAP3 POP POP PUSH1 0x20 PUSH2 0x527 DUP6 DUP3 DUP7 ADD PUSH2 0x4DC JUMP JUMPDEST SWAP2 POP POP SWAP3 POP SWAP3 SWAP1 POP JUMP JUMPDEST PUSH1 0x0 DUP2 SWAP1 POP SWAP3 SWAP2 POP POP JUMP JUMPDEST POP JUMP JUMPDEST PUSH1 0x0 PUSH2 0x54C PUSH1 0x0 DUP4 PUSH2 0x531 JUMP JUMPDEST SWAP2 POP PUSH2 0x557 DUP3 PUSH2 0x53C JUMP JUMPDEST PUSH1 0x0 DUP3 ADD SWAP1 POP SWAP2 SWAP1 POP JUMP JUMPDEST PUSH1 0x0 PUSH2 0x56D DUP3 PUSH2 0x53F JUMP JUMPDEST SWAP2 POP DUP2 SWAP1 POP SWAP2 SWAP1 POP JUMP JUMPDEST PUSH32 0x4E487B7100000000000000000000000000000000000000000000000000000000 PUSH1 0x0 MSTORE PUSH1 0x11 PUSH1 0x4 MSTORE PUSH1 0x24 PUSH1 0x0 REVERT JUMPDEST PUSH1 0x0 PUSH2 0x5B1 DUP3 PUSH2 0x3C3 JUMP JUMPDEST SWAP2 POP PUSH2 0x5BC DUP4 PUSH2 0x3C3 JUMP JUMPDEST SWAP3 POP DUP3 DUP3 SUB SWAP1 POP DUP2 DUP2 GT ISZERO PUSH2 0x5D4 JUMPI PUSH2 0x5D3 PUSH2 0x577 JUMP JUMPDEST JUMPDEST SWAP3 SWAP2 POP POP JUMP JUMPDEST PUSH1 0x0 PUSH2 0x5E5 DUP3 PUSH2 0x3C3 JUMP JUMPDEST SWAP2 POP PUSH2 0x5F0 DUP4 PUSH2 0x3C3 JUMP JUMPDEST SWAP3 POP DUP3 DUP3 ADD SWAP1 POP DUP1 DUP3 GT ISZERO PUSH2 0x608 JUMPI PUSH2 0x607 PUSH2 0x577 JUMP JUMPDEST JUMPDEST SWAP3 SWAP2 POP POP JUMP INVALID LOG2 PUSH5 0x6970667358 0x22 SLT KECCAK256 DUP14 0xBB DUP9 DUP9 SWAP2 ADDRESS LOG2 CALLCODE 0x4B PUSH14 0x27E698FA702498C448FBC9023BD9 PUSH27 0xEA3ED853FEC07D64736F6C63430008110033000000000000000000 "
				},
				"gasEstimates": {
					"creation": {
						"codeDepositCost": "320800",
						"executionCost": "338",
						"totalCost": "321138"
					},
					"external": {
						"balances(address)": "2814",
						"deposit()": "infinite",
						"getBalance()": "317",
						"transfer(address,uint256)": "infinite",
						"withdrawAll()": "infinite"
					}
				},
				"methodIdentifiers": {
					"balances(address)": "27e235e3",
					"deposit()": "d0e30db0",
					"getBalance()": "12065fe0",
					"transfer(address,uint256)": "a9059cbb",
					"withdrawAll()": "853828b6"
				}
			},
			"storageLayout": {
				"storage": [
					{
						"astId": 5,
						"contract": "Vulnerable.sol:Vulnerable",
						"label": "balances",
						"offset": 0,
						"slot": "0",
						"type": "t_mapping(t_address,t_uint256)"
					}
				],
				"types": {
					"t_address": {
						"encoding": "inplace",
						"label": "address",
						"numberOfBytes": "20"
					},
					"t_mapping(t_address,t_uint256)": {
						"encoding": "mapping",
						"key": "t_address",
						"label": "mapping(address => uint256)",
						"numberOfBytes": "32",
						"value": "t_uint256"
					},
					"t_uint256": {
						"encoding": "inplace",
						"label": "uint256",
						"numberOfBytes": "32"
					}
				}
			},
			"userdoc": {
				"kind": "user",
				"methods": {},
				"version": 1
			}
		}
	}
}