{
	"contracts/FlowerConductor.sol": {
		"FlowerConductor": {
			"abi": [
				{
					"inputs": [
						{
							"internalType": "address",
							"name": "flowerStorageAddress",
							"type": "address"
						},
						{
							"internalType": "address",
							"name": "flowerCoinStorageAddress",
							"type": "address"
						}
					],
					"stateMutability": "nonpayable",
					"type": "constructor"
				},
				{
					"anonymous": false,
					"inputs": [
						{
							"indexed": true,
							"internalType": "address",
							"name": "addr",
							"type": "address"
						},
						{
							"indexed": true,
							"internalType": "uint256",
							"name": "timestamp",
							"type": "uint256"
						},
						{
							"indexed": false,
							"internalType": "uint256",
							"name": "amount",
							"type": "uint256"
						}
					],
					"name": "BurnFlower",
					"type": "event"
				},
				{
					"anonymous": false,
					"inputs": [
						{
							"indexed": true,
							"internalType": "address",
							"name": "addr",
							"type": "address"
						},
						{
							"indexed": true,
							"internalType": "uint256",
							"name": "timestamp",
							"type": "uint256"
						},
						{
							"indexed": false,
							"internalType": "uint256",
							"name": "amount",
							"type": "uint256"
						}
					],
					"name": "BurnFlowerCoin",
					"type": "event"
				},
				{
					"anonymous": false,
					"inputs": [
						{
							"indexed": true,
							"internalType": "address",
							"name": "addr",
							"type": "address"
						},
						{
							"indexed": true,
							"internalType": "uint256",
							"name": "timestamp",
							"type": "uint256"
						},
						{
							"indexed": false,
							"internalType": "uint256",
							"name": "amount",
							"type": "uint256"
						}
					],
					"name": "ExpireFlower",
					"type": "event"
				},
				{
					"anonymous": false,
					"inputs": [
						{
							"indexed": true,
							"internalType": "address",
							"name": "addr",
							"type": "address"
						},
						{
							"indexed": true,
							"internalType": "uint256",
							"name": "timestamp",
							"type": "uint256"
						},
						{
							"indexed": false,
							"internalType": "uint256",
							"name": "amount",
							"type": "uint256"
						}
					],
					"name": "MintFlower",
					"type": "event"
				},
				{
					"anonymous": false,
					"inputs": [
						{
							"indexed": true,
							"internalType": "address",
							"name": "from",
							"type": "address"
						},
						{
							"indexed": true,
							"internalType": "address",
							"name": "to",
							"type": "address"
						},
						{
							"indexed": false,
							"internalType": "uint256",
							"name": "amount",
							"type": "uint256"
						}
					],
					"name": "MintFlowerCoin",
					"type": "event"
				},
				{
					"anonymous": false,
					"inputs": [
						{
							"indexed": true,
							"internalType": "address",
							"name": "previousOwner",
							"type": "address"
						},
						{
							"indexed": true,
							"internalType": "address",
							"name": "newOwner",
							"type": "address"
						}
					],
					"name": "OwnershipTransferred",
					"type": "event"
				},
				{
					"anonymous": false,
					"inputs": [
						{
							"indexed": true,
							"internalType": "address",
							"name": "from",
							"type": "address"
						},
						{
							"indexed": true,
							"internalType": "address",
							"name": "to",
							"type": "address"
						},
						{
							"indexed": false,
							"internalType": "uint256",
							"name": "amount",
							"type": "uint256"
						}
					],
					"name": "TransferFlowerCoin",
					"type": "event"
				},
				{
					"inputs": [
						{
							"internalType": "address",
							"name": "addr",
							"type": "address"
						}
					],
					"name": "FlowerCoinTotalBalance",
					"outputs": [
						{
							"internalType": "uint256",
							"name": "",
							"type": "uint256"
						}
					],
					"stateMutability": "view",
					"type": "function"
				},
				{
					"inputs": [],
					"name": "FlowerCoinTotalBurned",
					"outputs": [
						{
							"internalType": "uint256",
							"name": "",
							"type": "uint256"
						}
					],
					"stateMutability": "view",
					"type": "function"
				},
				{
					"inputs": [],
					"name": "FlowerCoinTotalSupply",
					"outputs": [
						{
							"internalType": "uint256",
							"name": "",
							"type": "uint256"
						}
					],
					"stateMutability": "view",
					"type": "function"
				},
				{
					"inputs": [
						{
							"internalType": "address",
							"name": "addr",
							"type": "address"
						}
					],
					"name": "FlowerTotalBalance",
					"outputs": [
						{
							"internalType": "uint256",
							"name": "",
							"type": "uint256"
						}
					],
					"stateMutability": "view",
					"type": "function"
				},
				{
					"inputs": [],
					"name": "FlowerTotalBurned",
					"outputs": [
						{
							"internalType": "uint256",
							"name": "",
							"type": "uint256"
						}
					],
					"stateMutability": "view",
					"type": "function"
				},
				{
					"inputs": [],
					"name": "FlowerTotalExpired",
					"outputs": [
						{
							"internalType": "uint256",
							"name": "",
							"type": "uint256"
						}
					],
					"stateMutability": "view",
					"type": "function"
				},
				{
					"inputs": [],
					"name": "FlowerTotalSupply",
					"outputs": [
						{
							"internalType": "uint256",
							"name": "",
							"type": "uint256"
						}
					],
					"stateMutability": "view",
					"type": "function"
				},
				{
					"inputs": [
						{
							"internalType": "address",
							"name": "addr",
							"type": "address"
						},
						{
							"internalType": "uint256",
							"name": "amount",
							"type": "uint256"
						}
					],
					"name": "burnFlower",
					"outputs": [],
					"stateMutability": "nonpayable",
					"type": "function"
				},
				{
					"inputs": [
						{
							"internalType": "address",
							"name": "addr",
							"type": "address"
						},
						{
							"internalType": "uint256",
							"name": "amount",
							"type": "uint256"
						}
					],
					"name": "burnFlowerCoin",
					"outputs": [],
					"stateMutability": "nonpayable",
					"type": "function"
				},
				{
					"inputs": [
						{
							"internalType": "address",
							"name": "addr",
							"type": "address"
						}
					],
					"name": "expireFlower",
					"outputs": [],
					"stateMutability": "nonpayable",
					"type": "function"
				},
				{
					"inputs": [],
					"name": "flowerCoinStorage",
					"outputs": [
						{
							"internalType": "contract FlowerCoinStorage",
							"name": "",
							"type": "address"
						}
					],
					"stateMutability": "view",
					"type": "function"
				},
				{
					"inputs": [],
					"name": "flowerStorage",
					"outputs": [
						{
							"internalType": "contract FlowerStorage",
							"name": "",
							"type": "address"
						}
					],
					"stateMutability": "view",
					"type": "function"
				},
				{
					"inputs": [],
					"name": "flowersPerFlowerCoin",
					"outputs": [
						{
							"internalType": "uint256",
							"name": "",
							"type": "uint256"
						}
					],
					"stateMutability": "view",
					"type": "function"
				},
				{
					"inputs": [
						{
							"internalType": "address",
							"name": "_addr",
							"type": "address"
						},
						{
							"internalType": "uint256",
							"name": "_numNodes",
							"type": "uint256"
						}
					],
					"name": "getBalanceNodes",
					"outputs": [
						{
							"components": [
								{
									"internalType": "uint256",
									"name": "timestamp",
									"type": "uint256"
								},
								{
									"internalType": "uint256",
									"name": "balance",
									"type": "uint256"
								},
								{
									"internalType": "uint256",
									"name": "next",
									"type": "uint256"
								}
							],
							"internalType": "struct TBNode[]",
							"name": "",
							"type": "tuple[]"
						}
					],
					"stateMutability": "view",
					"type": "function"
				},
				{
					"inputs": [
						{
							"internalType": "address",
							"name": "addr",
							"type": "address"
						},
						{
							"internalType": "uint256",
							"name": "amount",
							"type": "uint256"
						}
					],
					"name": "mintFlower",
					"outputs": [],
					"stateMutability": "nonpayable",
					"type": "function"
				},
				{
					"inputs": [
						{
							"internalType": "address",
							"name": "to",
							"type": "address"
						},
						{
							"internalType": "uint256",
							"name": "amount",
							"type": "uint256"
						}
					],
					"name": "mintFlowerCoin",
					"outputs": [],
					"stateMutability": "nonpayable",
					"type": "function"
				},
				{
					"inputs": [
						{
							"internalType": "address",
							"name": "to",
							"type": "address"
						},
						{
							"internalType": "uint256",
							"name": "amount",
							"type": "uint256"
						}
					],
					"name": "mintFlowerCoinWithFlower",
					"outputs": [],
					"stateMutability": "nonpayable",
					"type": "function"
				},
				{
					"inputs": [],
					"name": "owner",
					"outputs": [
						{
							"internalType": "address",
							"name": "",
							"type": "address"
						}
					],
					"stateMutability": "view",
					"type": "function"
				},
				{
					"inputs": [],
					"name": "renounceOwnership",
					"outputs": [],
					"stateMutability": "nonpayable",
					"type": "function"
				},
				{
					"inputs": [
						{
							"internalType": "uint256",
							"name": "amount",
							"type": "uint256"
						}
					],
					"name": "setFlowersPerFlowerCoin",
					"outputs": [],
					"stateMutability": "nonpayable",
					"type": "function"
				},
				{
					"inputs": [
						{
							"internalType": "uint256",
							"name": "time",
							"type": "uint256"
						}
					],
					"name": "setTimeToExpire",
					"outputs": [],
					"stateMutability": "nonpayable",
					"type": "function"
				},
				{
					"inputs": [],
					"name": "timeToExpire",
					"outputs": [
						{
							"internalType": "uint256",
							"name": "",
							"type": "uint256"
						}
					],
					"stateMutability": "view",
					"type": "function"
				},
				{
					"inputs": [
						{
							"internalType": "address",
							"name": "to",
							"type": "address"
						},
						{
							"internalType": "uint256",
							"name": "flowerAmount",
							"type": "uint256"
						},
						{
							"internalType": "uint256",
							"name": "flowerCoinAmount",
							"type": "uint256"
						}
					],
					"name": "transfer",
					"outputs": [],
					"stateMutability": "nonpayable",
					"type": "function"
				},
				{
					"inputs": [
						{
							"internalType": "address",
							"name": "to",
							"type": "address"
						},
						{
							"internalType": "uint256",
							"name": "amount",
							"type": "uint256"
						}
					],
					"name": "transferFlowerCoin",
					"outputs": [],
					"stateMutability": "nonpayable",
					"type": "function"
				},
				{
					"inputs": [
						{
							"internalType": "address",
							"name": "newOwner",
							"type": "address"
						}
					],
					"name": "transferOwnership",
					"outputs": [],
					"stateMutability": "nonpayable",
					"type": "function"
				}
			],
			"devdoc": {
				"kind": "dev",
				"methods": {
					"owner()": {
						"details": "Returns the address of the current owner."
					},
					"renounceOwnership()": {
						"details": "Leaves the contract without owner. It will not be possible to call `onlyOwner` functions anymore. Can only be called by the current owner. NOTE: Renouncing ownership will leave the contract without an owner, thereby removing any functionality that is only available to the owner."
					},
					"transferOwnership(address)": {
						"details": "Transfers ownership of the contract to a new account (`newOwner`). Can only be called by the current owner."
					}
				},
				"version": 1
			},
			"evm": {
				"assembly": "    /* \"contracts/FlowerConductor.sol\":291:10854  contract FlowerConductor is Ownable {... */\n  mstore(0x40, 0x80)\n    /* \"contracts/FlowerConductor.sol\":508:510  30 */\n  0x1e\n    /* \"contracts/FlowerConductor.sol\":478:510  uint256 public timeToExpire = 30 */\n  0x03\n  sstore\n    /* \"contracts/FlowerConductor.sol\":620:621  1 */\n  0x01\n    /* \"contracts/FlowerConductor.sol\":582:621  uint256 public flowersPerFlowerCoin = 1 */\n  0x04\n  sstore\n    /* \"contracts/FlowerConductor.sol\":1333:1718  constructor(address flowerStorageAddress, address flowerCoinStorageAddress) {... */\n  callvalue\n  dup1\n  iszero\n  tag_1\n  jumpi\n  0x00\n  dup1\n  revert\ntag_1:\n  pop\n  mload(0x40)\n  sub(codesize, bytecodeSize)\n  dup1\n  bytecodeSize\n  dup4\n  codecopy\n  dup2\n  dup2\n  add\n  0x40\n  mstore\n  dup2\n  add\n  swap1\n  tag_2\n  swap2\n  swap1\n  tag_3\n  jump\t// in\ntag_2:\n    /* \"@openzeppelin/contracts/access/Ownable.sol\":936:968  _transferOwnership(_msgSender()) */\n  tag_7\n    /* \"@openzeppelin/contracts/access/Ownable.sol\":955:967  _msgSender() */\n  tag_8\n    /* \"@openzeppelin/contracts/access/Ownable.sol\":955:965  _msgSender */\n  shl(0x20, tag_9)\n    /* \"@openzeppelin/contracts/access/Ownable.sol\":955:967  _msgSender() */\n  0x20\n  shr\n  jump\t// in\ntag_8:\n    /* \"@openzeppelin/contracts/access/Ownable.sol\":936:954  _transferOwnership */\n  shl(0x20, tag_10)\n    /* \"@openzeppelin/contracts/access/Ownable.sol\":936:968  _transferOwnership(_msgSender()) */\n  0x20\n  shr\n  jump\t// in\ntag_7:\n    /* \"contracts/FlowerConductor.sol\":1468:1497  transferOwnership(msg.sender) */\n  tag_12\n    /* \"contracts/FlowerConductor.sol\":1486:1496  msg.sender */\n  caller\n    /* \"contracts/FlowerConductor.sol\":1468:1485  transferOwnership */\n  shl(0x20, tag_13)\n    /* \"contracts/FlowerConductor.sol\":1468:1497  transferOwnership(msg.sender) */\n  0x20\n  shr\n  jump\t// in\ntag_12:\n    /* \"contracts/FlowerConductor.sol\":1575:1595  flowerStorageAddress */\n  dup2\n    /* \"contracts/FlowerConductor.sol\":1545:1558  flowerStorage */\n  0x01\n  0x00\n    /* \"contracts/FlowerConductor.sol\":1545:1596  flowerStorage = FlowerStorage(flowerStorageAddress) */\n  0x0100\n  exp\n  dup2\n  sload\n  dup2\n  0xffffffffffffffffffffffffffffffffffffffff\n  mul\n  not\n  and\n  swap1\n  dup4\n  0xffffffffffffffffffffffffffffffffffffffff\n  and\n  mul\n  or\n  swap1\n  sstore\n  pop\n    /* \"contracts/FlowerConductor.sol\":1686:1710  flowerCoinStorageAddress */\n  dup1\n    /* \"contracts/FlowerConductor.sol\":1648:1665  flowerCoinStorage */\n  0x02\n  0x00\n    /* \"contracts/FlowerConductor.sol\":1648:1711  flowerCoinStorage = FlowerCoinStorage(flowerCoinStorageAddress) */\n  0x0100\n  exp\n  dup2\n  sload\n  dup2\n  0xffffffffffffffffffffffffffffffffffffffff\n  mul\n  not\n  and\n  swap1\n  dup4\n  0xffffffffffffffffffffffffffffffffffffffff\n  and\n  mul\n  or\n  swap1\n  sstore\n  pop\n    /* \"contracts/FlowerConductor.sol\":1333:1718  constructor(address flowerStorageAddress, address flowerCoinStorageAddress) {... */\n  pop\n  pop\n    /* \"contracts/FlowerConductor.sol\":291:10854  contract FlowerConductor is Ownable {... */\n  jump(tag_14)\n    /* \"@openzeppelin/contracts/utils/Context.sol\":640:736  function _msgSender() internal view virtual returns (address) {... */\ntag_9:\n    /* \"@openzeppelin/contracts/utils/Context.sol\":693:700  address */\n  0x00\n    /* \"@openzeppelin/contracts/utils/Context.sol\":719:729  msg.sender */\n  caller\n    /* \"@openzeppelin/contracts/utils/Context.sol\":712:729  return msg.sender */\n  swap1\n  pop\n    /* \"@openzeppelin/contracts/utils/Context.sol\":640:736  function _msgSender() internal view virtual returns (address) {... */\n  swap1\n  jump\t// out\n    /* \"@openzeppelin/contracts/access/Ownable.sol\":2433:2620  function _transferOwnership(address newOwner) internal virtual {... */\ntag_10:\n    /* \"@openzeppelin/contracts/access/Ownable.sol\":2506:2522  address oldOwner */\n  0x00\n    /* \"@openzeppelin/contracts/access/Ownable.sol\":2525:2531  _owner */\n  dup1\n  0x00\n  swap1\n  sload\n  swap1\n  0x0100\n  exp\n  swap1\n  div\n  0xffffffffffffffffffffffffffffffffffffffff\n  and\n    /* \"@openzeppelin/contracts/access/Ownable.sol\":2506:2531  address oldOwner = _owner */\n  swap1\n  pop\n    /* \"@openzeppelin/contracts/access/Ownable.sol\":2550:2558  newOwner */\n  dup2\n    /* \"@openzeppelin/contracts/access/Ownable.sol\":2541:2547  _owner */\n  0x00\n  dup1\n    /* \"@openzeppelin/contracts/access/Ownable.sol\":2541:2558  _owner = newOwner */\n  0x0100\n  exp\n  dup2\n  sload\n  dup2\n  0xffffffffffffffffffffffffffffffffffffffff\n  mul\n  not\n  and\n  swap1\n  dup4\n  0xffffffffffffffffffffffffffffffffffffffff\n  and\n  mul\n  or\n  swap1\n  sstore\n  pop\n    /* \"@openzeppelin/contracts/access/Ownable.sol\":2604:2612  newOwner */\n  dup2\n    /* \"@openzeppelin/contracts/access/Ownable.sol\":2573:2613  OwnershipTransferred(oldOwner, newOwner) */\n  0xffffffffffffffffffffffffffffffffffffffff\n  and\n    /* \"@openzeppelin/contracts/access/Ownable.sol\":2594:2602  oldOwner */\n  dup2\n    /* \"@openzeppelin/contracts/access/Ownable.sol\":2573:2613  OwnershipTransferred(oldOwner, newOwner) */\n  0xffffffffffffffffffffffffffffffffffffffff\n  and\n  0x8be0079c531659141344cd1fd0a4f28419497f9722a3daafe3b4186f6b6457e0\n  mload(0x40)\n  mload(0x40)\n  dup1\n  swap2\n  sub\n  swap1\n  log3\n    /* \"@openzeppelin/contracts/access/Ownable.sol\":2433:2620  function _transferOwnership(address newOwner) internal virtual {... */\n  pop\n  pop\n  jump\t// out\n    /* \"@openzeppelin/contracts/access/Ownable.sol\":2081:2279  function transferOwnership(address newOwner) public virtual onlyOwner {... */\ntag_13:\n    /* \"@openzeppelin/contracts/access/Ownable.sol\":1094:1107  _checkOwner() */\n  tag_18\n    /* \"@openzeppelin/contracts/access/Ownable.sol\":1094:1105  _checkOwner */\n  shl(0x20, tag_19)\n    /* \"@openzeppelin/contracts/access/Ownable.sol\":1094:1107  _checkOwner() */\n  0x20\n  shr\n  jump\t// in\ntag_18:\n    /* \"@openzeppelin/contracts/access/Ownable.sol\":2189:2190  0 */\n  0x00\n    /* \"@openzeppelin/contracts/access/Ownable.sol\":2169:2191  newOwner != address(0) */\n  0xffffffffffffffffffffffffffffffffffffffff\n  and\n    /* \"@openzeppelin/contracts/access/Ownable.sol\":2169:2177  newOwner */\n  dup2\n    /* \"@openzeppelin/contracts/access/Ownable.sol\":2169:2191  newOwner != address(0) */\n  0xffffffffffffffffffffffffffffffffffffffff\n  and\n  eq\n  iszero\n    /* \"@openzeppelin/contracts/access/Ownable.sol\":2161:2234  require(newOwner != address(0), \"Ownable: new owner is the zero address\") */\n  tag_21\n  jumpi\n  mload(0x40)\n  0x08c379a000000000000000000000000000000000000000000000000000000000\n  dup2\n  mstore\n  0x04\n  add\n  tag_22\n  swap1\n  tag_23\n  jump\t// in\ntag_22:\n  mload(0x40)\n  dup1\n  swap2\n  sub\n  swap1\n  revert\ntag_21:\n    /* \"@openzeppelin/contracts/access/Ownable.sol\":2244:2272  _transferOwnership(newOwner) */\n  tag_24\n    /* \"@openzeppelin/contracts/access/Ownable.sol\":2263:2271  newOwner */\n  dup2\n    /* \"@openzeppelin/contracts/access/Ownable.sol\":2244:2262  _transferOwnership */\n  shl(0x20, tag_10)\n    /* \"@openzeppelin/contracts/access/Ownable.sol\":2244:2272  _transferOwnership(newOwner) */\n  0x20\n  shr\n  jump\t// in\ntag_24:\n    /* \"@openzeppelin/contracts/access/Ownable.sol\":2081:2279  function transferOwnership(address newOwner) public virtual onlyOwner {... */\n  pop\n  jump\t// out\n    /* \"@openzeppelin/contracts/access/Ownable.sol\":1359:1489  function _checkOwner() internal view virtual {... */\ntag_19:\n    /* \"@openzeppelin/contracts/access/Ownable.sol\":1433:1445  _msgSender() */\n  tag_26\n    /* \"@openzeppelin/contracts/access/Ownable.sol\":1433:1443  _msgSender */\n  shl(0x20, tag_9)\n    /* \"@openzeppelin/contracts/access/Ownable.sol\":1433:1445  _msgSender() */\n  0x20\n  shr\n  jump\t// in\ntag_26:\n    /* \"@openzeppelin/contracts/access/Ownable.sol\":1422:1445  owner() == _msgSender() */\n  0xffffffffffffffffffffffffffffffffffffffff\n  and\n    /* \"@openzeppelin/contracts/access/Ownable.sol\":1422:1429  owner() */\n  tag_27\n    /* \"@openzeppelin/contracts/access/Ownable.sol\":1422:1427  owner */\n  shl(0x20, tag_28)\n    /* \"@openzeppelin/contracts/access/Ownable.sol\":1422:1429  owner() */\n  0x20\n  shr\n  jump\t// in\ntag_27:\n    /* \"@openzeppelin/contracts/access/Ownable.sol\":1422:1445  owner() == _msgSender() */\n  0xffffffffffffffffffffffffffffffffffffffff\n  and\n  eq\n    /* \"@openzeppelin/contracts/access/Ownable.sol\":1414:1482  require(owner() == _msgSender(), \"Ownable: caller is not the owner\") */\n  tag_29\n  jumpi\n  mload(0x40)\n  0x08c379a000000000000000000000000000000000000000000000000000000000\n  dup2\n  mstore\n  0x04\n  add\n  tag_30\n  swap1\n  tag_31\n  jump\t// in\ntag_30:\n  mload(0x40)\n  dup1\n  swap2\n  sub\n  swap1\n  revert\ntag_29:\n    /* \"@openzeppelin/contracts/access/Ownable.sol\":1359:1489  function _checkOwner() internal view virtual {... */\n  jump\t// out\n    /* \"@openzeppelin/contracts/access/Ownable.sol\":1201:1286  function owner() public view virtual returns (address) {... */\ntag_28:\n    /* \"@openzeppelin/contracts/access/Ownable.sol\":1247:1254  address */\n  0x00\n    /* \"@openzeppelin/contracts/access/Ownable.sol\":1273:1279  _owner */\n  dup1\n  0x00\n  swap1\n  sload\n  swap1\n  0x0100\n  exp\n  swap1\n  div\n  0xffffffffffffffffffffffffffffffffffffffff\n  and\n    /* \"@openzeppelin/contracts/access/Ownable.sol\":1266:1279  return _owner */\n  swap1\n  pop\n    /* \"@openzeppelin/contracts/access/Ownable.sol\":1201:1286  function owner() public view virtual returns (address) {... */\n  swap1\n  jump\t// out\n    /* \"#utility.yul\":7:150   */\ntag_34:\n    /* \"#utility.yul\":64:69   */\n  0x00\n    /* \"#utility.yul\":95:101   */\n  dup2\n    /* \"#utility.yul\":89:102   */\n  mload\n    /* \"#utility.yul\":80:102   */\n  swap1\n  pop\n    /* \"#utility.yul\":111:144   */\n  tag_36\n    /* \"#utility.yul\":138:143   */\n  dup2\n    /* \"#utility.yul\":111:144   */\n  tag_37\n  jump\t// in\ntag_36:\n    /* \"#utility.yul\":70:150   */\n  swap3\n  swap2\n  pop\n  pop\n  jump\t// out\n    /* \"#utility.yul\":156:596   */\ntag_3:\n    /* \"#utility.yul\":235:241   */\n  0x00\n    /* \"#utility.yul\":243:249   */\n  dup1\n    /* \"#utility.yul\":292:294   */\n  0x40\n    /* \"#utility.yul\":280:289   */\n  dup4\n    /* \"#utility.yul\":271:278   */\n  dup6\n    /* \"#utility.yul\":267:290   */\n  sub\n    /* \"#utility.yul\":263:295   */\n  slt\n    /* \"#utility.yul\":260:262   */\n  iszero\n  tag_39\n  jumpi\n    /* \"#utility.yul\":308:309   */\n  0x00\n    /* \"#utility.yul\":305:306   */\n  dup1\n    /* \"#utility.yul\":298:310   */\n  revert\n    /* \"#utility.yul\":260:262   */\ntag_39:\n    /* \"#utility.yul\":351:352   */\n  0x00\n    /* \"#utility.yul\":376:440   */\n  tag_40\n    /* \"#utility.yul\":432:439   */\n  dup6\n    /* \"#utility.yul\":423:429   */\n  dup3\n    /* \"#utility.yul\":412:421   */\n  dup7\n    /* \"#utility.yul\":408:430   */\n  add\n    /* \"#utility.yul\":376:440   */\n  tag_34\n  jump\t// in\ntag_40:\n    /* \"#utility.yul\":366:440   */\n  swap3\n  pop\n    /* \"#utility.yul\":322:450   */\n  pop\n    /* \"#utility.yul\":489:491   */\n  0x20\n    /* \"#utility.yul\":515:579   */\n  tag_41\n    /* \"#utility.yul\":571:578   */\n  dup6\n    /* \"#utility.yul\":562:568   */\n  dup3\n    /* \"#utility.yul\":551:560   */\n  dup7\n    /* \"#utility.yul\":547:569   */\n  add\n    /* \"#utility.yul\":515:579   */\n  tag_34\n  jump\t// in\ntag_41:\n    /* \"#utility.yul\":505:579   */\n  swap2\n  pop\n    /* \"#utility.yul\":460:589   */\n  pop\n    /* \"#utility.yul\":250:596   */\n  swap3\n  pop\n  swap3\n  swap1\n  pop\n  jump\t// out\n    /* \"#utility.yul\":602:968   */\ntag_42:\n    /* \"#utility.yul\":744:747   */\n  0x00\n    /* \"#utility.yul\":765:832   */\n  tag_44\n    /* \"#utility.yul\":829:831   */\n  0x26\n    /* \"#utility.yul\":824:827   */\n  dup4\n    /* \"#utility.yul\":765:832   */\n  tag_45\n  jump\t// in\ntag_44:\n    /* \"#utility.yul\":758:832   */\n  swap2\n  pop\n    /* \"#utility.yul\":841:934   */\n  tag_46\n    /* \"#utility.yul\":930:933   */\n  dup3\n    /* \"#utility.yul\":841:934   */\n  tag_47\n  jump\t// in\ntag_46:\n    /* \"#utility.yul\":959:961   */\n  0x40\n    /* \"#utility.yul\":954:957   */\n  dup3\n    /* \"#utility.yul\":950:962   */\n  add\n    /* \"#utility.yul\":943:962   */\n  swap1\n  pop\n    /* \"#utility.yul\":748:968   */\n  swap2\n  swap1\n  pop\n  jump\t// out\n    /* \"#utility.yul\":974:1340   */\ntag_48:\n    /* \"#utility.yul\":1116:1119   */\n  0x00\n    /* \"#utility.yul\":1137:1204   */\n  tag_50\n    /* \"#utility.yul\":1201:1203   */\n  0x20\n    /* \"#utility.yul\":1196:1199   */\n  dup4\n    /* \"#utility.yul\":1137:1204   */\n  tag_45\n  jump\t// in\ntag_50:\n    /* \"#utility.yul\":1130:1204   */\n  swap2\n  pop\n    /* \"#utility.yul\":1213:1306   */\n  tag_51\n    /* \"#utility.yul\":1302:1305   */\n  dup3\n    /* \"#utility.yul\":1213:1306   */\n  tag_52\n  jump\t// in\ntag_51:\n    /* \"#utility.yul\":1331:1333   */\n  0x20\n    /* \"#utility.yul\":1326:1329   */\n  dup3\n    /* \"#utility.yul\":1322:1334   */\n  add\n    /* \"#utility.yul\":1315:1334   */\n  swap1\n  pop\n    /* \"#utility.yul\":1120:1340   */\n  swap2\n  swap1\n  pop\n  jump\t// out\n    /* \"#utility.yul\":1346:1765   */\ntag_23:\n    /* \"#utility.yul\":1512:1516   */\n  0x00\n    /* \"#utility.yul\":1550:1552   */\n  0x20\n    /* \"#utility.yul\":1539:1548   */\n  dup3\n    /* \"#utility.yul\":1535:1553   */\n  add\n    /* \"#utility.yul\":1527:1553   */\n  swap1\n  pop\n    /* \"#utility.yul\":1599:1608   */\n  dup2\n    /* \"#utility.yul\":1593:1597   */\n  dup2\n    /* \"#utility.yul\":1589:1609   */\n  sub\n    /* \"#utility.yul\":1585:1586   */\n  0x00\n    /* \"#utility.yul\":1574:1583   */\n  dup4\n    /* \"#utility.yul\":1570:1587   */\n  add\n    /* \"#utility.yul\":1563:1610   */\n  mstore\n    /* \"#utility.yul\":1627:1758   */\n  tag_54\n    /* \"#utility.yul\":1753:1757   */\n  dup2\n    /* \"#utility.yul\":1627:1758   */\n  tag_42\n  jump\t// in\ntag_54:\n    /* \"#utility.yul\":1619:1758   */\n  swap1\n  pop\n    /* \"#utility.yul\":1517:1765   */\n  swap2\n  swap1\n  pop\n  jump\t// out\n    /* \"#utility.yul\":1771:2190   */\ntag_31:\n    /* \"#utility.yul\":1937:1941   */\n  0x00\n    /* \"#utility.yul\":1975:1977   */\n  0x20\n    /* \"#utility.yul\":1964:1973   */\n  dup3\n    /* \"#utility.yul\":1960:1978   */\n  add\n    /* \"#utility.yul\":1952:1978   */\n  swap1\n  pop\n    /* \"#utility.yul\":2024:2033   */\n  dup2\n    /* \"#utility.yul\":2018:2022   */\n  dup2\n    /* \"#utility.yul\":2014:2034   */\n  sub\n    /* \"#utility.yul\":2010:2011   */\n  0x00\n    /* \"#utility.yul\":1999:2008   */\n  dup4\n    /* \"#utility.yul\":1995:2012   */\n  add\n    /* \"#utility.yul\":1988:2035   */\n  mstore\n    /* \"#utility.yul\":2052:2183   */\n  tag_56\n    /* \"#utility.yul\":2178:2182   */\n  dup2\n    /* \"#utility.yul\":2052:2183   */\n  tag_48\n  jump\t// in\ntag_56:\n    /* \"#utility.yul\":2044:2183   */\n  swap1\n  pop\n    /* \"#utility.yul\":1942:2190   */\n  swap2\n  swap1\n  pop\n  jump\t// out\n    /* \"#utility.yul\":2196:2365   */\ntag_45:\n    /* \"#utility.yul\":2280:2291   */\n  0x00\n    /* \"#utility.yul\":2314:2320   */\n  dup3\n    /* \"#utility.yul\":2309:2312   */\n  dup3\n    /* \"#utility.yul\":2302:2321   */\n  mstore\n    /* \"#utility.yul\":2354:2358   */\n  0x20\n    /* \"#utility.yul\":2349:2352   */\n  dup3\n    /* \"#utility.yul\":2345:2359   */\n  add\n    /* \"#utility.yul\":2330:2359   */\n  swap1\n  pop\n    /* \"#utility.yul\":2292:2365   */\n  swap3\n  swap2\n  pop\n  pop\n  jump\t// out\n    /* \"#utility.yul\":2371:2467   */\ntag_58:\n    /* \"#utility.yul\":2408:2415   */\n  0x00\n    /* \"#utility.yul\":2437:2461   */\n  tag_60\n    /* \"#utility.yul\":2455:2460   */\n  dup3\n    /* \"#utility.yul\":2437:2461   */\n  tag_61\n  jump\t// in\ntag_60:\n    /* \"#utility.yul\":2426:2461   */\n  swap1\n  pop\n    /* \"#utility.yul\":2416:2467   */\n  swap2\n  swap1\n  pop\n  jump\t// out\n    /* \"#utility.yul\":2473:2599   */\ntag_61:\n    /* \"#utility.yul\":2510:2517   */\n  0x00\n    /* \"#utility.yul\":2550:2592   */\n  0xffffffffffffffffffffffffffffffffffffffff\n    /* \"#utility.yul\":2543:2548   */\n  dup3\n    /* \"#utility.yul\":2539:2593   */\n  and\n    /* \"#utility.yul\":2528:2593   */\n  swap1\n  pop\n    /* \"#utility.yul\":2518:2599   */\n  swap2\n  swap1\n  pop\n  jump\t// out\n    /* \"#utility.yul\":2605:2830   */\ntag_47:\n    /* \"#utility.yul\":2745:2779   */\n  0x4f776e61626c653a206e6577206f776e657220697320746865207a65726f2061\n    /* \"#utility.yul\":2741:2742   */\n  0x00\n    /* \"#utility.yul\":2733:2739   */\n  dup3\n    /* \"#utility.yul\":2729:2743   */\n  add\n    /* \"#utility.yul\":2722:2780   */\n  mstore\n    /* \"#utility.yul\":2814:2822   */\n  0x6464726573730000000000000000000000000000000000000000000000000000\n    /* \"#utility.yul\":2809:2811   */\n  0x20\n    /* \"#utility.yul\":2801:2807   */\n  dup3\n    /* \"#utility.yul\":2797:2812   */\n  add\n    /* \"#utility.yul\":2790:2823   */\n  mstore\n    /* \"#utility.yul\":2711:2830   */\n  pop\n  jump\t// out\n    /* \"#utility.yul\":2836:3018   */\ntag_52:\n    /* \"#utility.yul\":2976:3010   */\n  0x4f776e61626c653a2063616c6c6572206973206e6f7420746865206f776e6572\n    /* \"#utility.yul\":2972:2973   */\n  0x00\n    /* \"#utility.yul\":2964:2970   */\n  dup3\n    /* \"#utility.yul\":2960:2974   */\n  add\n    /* \"#utility.yul\":2953:3011   */\n  mstore\n    /* \"#utility.yul\":2942:3018   */\n  pop\n  jump\t// out\n    /* \"#utility.yul\":3024:3146   */\ntag_37:\n    /* \"#utility.yul\":3097:3121   */\n  tag_66\n    /* \"#utility.yul\":3115:3120   */\n  dup2\n    /* \"#utility.yul\":3097:3121   */\n  tag_58\n  jump\t// in\ntag_66:\n    /* \"#utility.yul\":3090:3095   */\n  dup2\n    /* \"#utility.yul\":3087:3122   */\n  eq\n    /* \"#utility.yul\":3077:3079   */\n  tag_67\n  jumpi\n    /* \"#utility.yul\":3136:3137   */\n  0x00\n    /* \"#utility.yul\":3133:3134   */\n  dup1\n    /* \"#utility.yul\":3126:3138   */\n  revert\n    /* \"#utility.yul\":3077:3079   */\ntag_67:\n    /* \"#utility.yul\":3067:3146   */\n  pop\n  jump\t// out\n    /* \"contracts/FlowerConductor.sol\":291:10854  contract FlowerConductor is Ownable {... */\ntag_14:\n  dataSize(sub_0)\n  dup1\n  dataOffset(sub_0)\n  0x00\n  codecopy\n  0x00\n  return\nstop\n\nsub_0: assembly {\n        /* \"contracts/FlowerConductor.sol\":291:10854  contract FlowerConductor is Ownable {... */\n      mstore(0x40, 0x80)\n      callvalue\n      dup1\n      iszero\n      tag_1\n      jumpi\n      0x00\n      dup1\n      revert\n    tag_1:\n      pop\n      jumpi(tag_2, lt(calldatasize, 0x04))\n      shr(0xe0, calldataload(0x00))\n      dup1\n      0x8da5cb5b\n      gt\n      tag_28\n      jumpi\n      dup1\n      0xbe1cba2f\n      gt\n      tag_29\n      jumpi\n      dup1\n      0xd45519a1\n      gt\n      tag_30\n      jumpi\n      dup1\n      0xd45519a1\n      eq\n      tag_24\n      jumpi\n      dup1\n      0xf2fde38b\n      eq\n      tag_25\n      jumpi\n      dup1\n      0xf699aca7\n      eq\n      tag_26\n      jumpi\n      dup1\n      0xfe590724\n      eq\n      tag_27\n      jumpi\n      jump(tag_2)\n    tag_30:\n      dup1\n      0xbe1cba2f\n      eq\n      tag_21\n      jumpi\n      dup1\n      0xcc55209b\n      eq\n      tag_22\n      jumpi\n      dup1\n      0xd140bbe1\n      eq\n      tag_23\n      jumpi\n      jump(tag_2)\n    tag_29:\n      dup1\n      0x8da5cb5b\n      eq\n      tag_15\n      jumpi\n      dup1\n      0x9f9db463\n      eq\n      tag_16\n      jumpi\n      dup1\n      0xae9957ec\n      eq\n      tag_17\n      jumpi\n      dup1\n      0xaec898ca\n      eq\n      tag_18\n      jumpi\n      dup1\n      0xb5e6de75\n      eq\n      tag_19\n      jumpi\n      dup1\n      0xb7f6d906\n      eq\n      tag_20\n      jumpi\n      jump(tag_2)\n    tag_28:\n      dup1\n      0x4d781330\n      gt\n      tag_31\n      jumpi\n      dup1\n      0x4d781330\n      eq\n      tag_9\n      jumpi\n      dup1\n      0x6219005d\n      eq\n      tag_10\n      jumpi\n      dup1\n      0x644b637e\n      eq\n      tag_11\n      jumpi\n      dup1\n      0x715018a6\n      eq\n      tag_12\n      jumpi\n      dup1\n      0x8a67f1e5\n      eq\n      tag_13\n      jumpi\n      dup1\n      0x8bf02357\n      eq\n      tag_14\n      jumpi\n      jump(tag_2)\n    tag_31:\n      dup1\n      0x095bcdb6\n      eq\n      tag_3\n      jumpi\n      dup1\n      0x0c39fc27\n      eq\n      tag_4\n      jumpi\n      dup1\n      0x1f054bbe\n      eq\n      tag_5\n      jumpi\n      dup1\n      0x2cd3d43d\n      eq\n      tag_6\n      jumpi\n      dup1\n      0x48db11f8\n      eq\n      tag_7\n      jumpi\n      dup1\n      0x4d2e8994\n      eq\n      tag_8\n      jumpi\n    tag_2:\n      0x00\n      dup1\n      revert\n        /* \"contracts/FlowerConductor.sol\":10657:10852  function transfer(address to, uint256 flowerAmount, uint256 flowerCoinAmount) public {... */\n    tag_3:\n      tag_32\n      0x04\n      dup1\n      calldatasize\n      sub\n      dup2\n      add\n      swap1\n      tag_33\n      swap2\n      swap1\n      tag_34\n      jump\t// in\n    tag_33:\n      tag_35\n      jump\t// in\n    tag_32:\n      stop\n        /* \"contracts/FlowerConductor.sol\":4023:4135  function setFlowersPerFlowerCoin(uint256 amount) public onlyOwner {... */\n    tag_4:\n      tag_36\n      0x04\n      dup1\n      calldatasize\n      sub\n      dup2\n      add\n      swap1\n      tag_37\n      swap2\n      swap1\n      tag_38\n      jump\t// in\n    tag_37:\n      tag_39\n      jump\t// in\n    tag_36:\n      stop\n        /* \"contracts/FlowerConductor.sol\":333:367  FlowerStorage public flowerStorage */\n    tag_5:\n      tag_40\n      tag_41\n      jump\t// in\n    tag_40:\n      mload(0x40)\n      tag_42\n      swap2\n      swap1\n      tag_43\n      jump\t// in\n    tag_42:\n      mload(0x40)\n      dup1\n      swap2\n      sub\n      swap1\n      return\n        /* \"contracts/FlowerConductor.sol\":4162:5963  function expireFlower(address addr) public onlyOwner {... */\n    tag_6:\n      tag_44\n      0x04\n      dup1\n      calldatasize\n      sub\n      dup2\n      add\n      swap1\n      tag_45\n      swap2\n      swap1\n      tag_46\n      jump\t// in\n    tag_45:\n      tag_47\n      jump\t// in\n    tag_44:\n      stop\n        /* \"contracts/FlowerConductor.sol\":6701:9490  function burnFlower(address addr, uint256 amount) public onlyOwner {... */\n    tag_7:\n      tag_48\n      0x04\n      dup1\n      calldatasize\n      sub\n      dup2\n      add\n      swap1\n      tag_49\n      swap2\n      swap1\n      tag_50\n      jump\t// in\n    tag_49:\n      tag_51\n      jump\t// in\n    tag_48:\n      stop\n        /* \"contracts/FlowerConductor.sol\":2012:2126  function FlowerTotalExpired() external view returns (uint256) {... */\n    tag_8:\n      tag_52\n      tag_53\n      jump\t// in\n    tag_52:\n      mload(0x40)\n      tag_54\n      swap2\n      swap1\n      tag_55\n      jump\t// in\n    tag_54:\n      mload(0x40)\n      dup1\n      swap2\n      sub\n      swap1\n      return\n        /* \"contracts/FlowerConductor.sol\":2132:2244  function FlowerTotalBurned() external view returns (uint256) {... */\n    tag_9:\n      tag_56\n      tag_57\n      jump\t// in\n    tag_56:\n      mload(0x40)\n      tag_58\n      swap2\n      swap1\n      tag_55\n      jump\t// in\n    tag_58:\n      mload(0x40)\n      dup1\n      swap2\n      sub\n      swap1\n      return\n        /* \"contracts/FlowerConductor.sol\":3847:3939  function setTimeToExpire(uint256 time) public onlyOwner {... */\n    tag_10:\n      tag_59\n      0x04\n      dup1\n      calldatasize\n      sub\n      dup2\n      add\n      swap1\n      tag_60\n      swap2\n      swap1\n      tag_38\n      jump\t// in\n    tag_60:\n      tag_61\n      jump\t// in\n    tag_59:\n      stop\n        /* \"contracts/FlowerConductor.sol\":5989:6595  function mintFlower(address addr, uint256 amount) public onlyOwner {... */\n    tag_11:\n      tag_62\n      0x04\n      dup1\n      calldatasize\n      sub\n      dup2\n      add\n      swap1\n      tag_63\n      swap2\n      swap1\n      tag_50\n      jump\t// in\n    tag_63:\n      tag_64\n      jump\t// in\n    tag_62:\n      stop\n        /* \"@openzeppelin/contracts/access/Ownable.sol\":1831:1932  function renounceOwnership() public virtual onlyOwner {... */\n    tag_12:\n      tag_65\n      tag_66\n      jump\t// in\n    tag_65:\n      stop\n        /* \"contracts/FlowerConductor.sol\":1894:2006  function FlowerTotalSupply() external view returns (uint256) {... */\n    tag_13:\n      tag_67\n      tag_68\n      jump\t// in\n    tag_67:\n      mload(0x40)\n      tag_69\n      swap2\n      swap1\n      tag_55\n      jump\t// in\n    tag_69:\n      mload(0x40)\n      dup1\n      swap2\n      sub\n      swap1\n      return\n        /* \"contracts/FlowerConductor.sol\":478:510  uint256 public timeToExpire = 30 */\n    tag_14:\n      tag_70\n      tag_71\n      jump\t// in\n    tag_70:\n      mload(0x40)\n      tag_72\n      swap2\n      swap1\n      tag_55\n      jump\t// in\n    tag_72:\n      mload(0x40)\n      dup1\n      swap2\n      sub\n      swap1\n      return\n        /* \"@openzeppelin/contracts/access/Ownable.sol\":1201:1286  function owner() public view virtual returns (address) {... */\n    tag_15:\n      tag_73\n      tag_74\n      jump\t// in\n    tag_73:\n      mload(0x40)\n      tag_75\n      swap2\n      swap1\n      tag_76\n      jump\t// in\n    tag_75:\n      mload(0x40)\n      dup1\n      swap2\n      sub\n      swap1\n      return\n        /* \"contracts/FlowerConductor.sol\":3296:3435  function FlowerCoinTotalBalance(address addr) external view returns (uint256) {... */\n    tag_16:\n      tag_77\n      0x04\n      dup1\n      calldatasize\n      sub\n      dup2\n      add\n      swap1\n      tag_78\n      swap2\n      swap1\n      tag_46\n      jump\t// in\n    tag_78:\n      tag_79\n      jump\t// in\n    tag_77:\n      mload(0x40)\n      tag_80\n      swap2\n      swap1\n      tag_55\n      jump\t// in\n    tag_80:\n      mload(0x40)\n      dup1\n      swap2\n      sub\n      swap1\n      return\n        /* \"contracts/FlowerConductor.sol\":9522:9743  function mintFlowerCoin(address to, uint256 amount) public onlyOwner {... */\n    tag_17:\n      tag_81\n      0x04\n      dup1\n      calldatasize\n      sub\n      dup2\n      add\n      swap1\n      tag_82\n      swap2\n      swap1\n      tag_50\n      jump\t// in\n    tag_82:\n      tag_83\n      jump\t// in\n    tag_81:\n      stop\n        /* \"contracts/FlowerConductor.sol\":3441:3561  function FlowerCoinTotalSupply() external view returns (uint256) {... */\n    tag_18:\n      tag_84\n      tag_85\n      jump\t// in\n    tag_84:\n      mload(0x40)\n      tag_86\n      swap2\n      swap1\n      tag_55\n      jump\t// in\n    tag_86:\n      mload(0x40)\n      dup1\n      swap2\n      sub\n      swap1\n      return\n        /* \"contracts/FlowerConductor.sol\":9775:10007  function burnFlowerCoin(address addr, uint256 amount) public onlyOwner {... */\n    tag_19:\n      tag_87\n      0x04\n      dup1\n      calldatasize\n      sub\n      dup2\n      add\n      swap1\n      tag_88\n      swap2\n      swap1\n      tag_50\n      jump\t// in\n    tag_88:\n      tag_89\n      jump\t// in\n    tag_87:\n      stop\n        /* \"contracts/FlowerConductor.sol\":373:415  FlowerCoinStorage public flowerCoinStorage */\n    tag_20:\n      tag_90\n      tag_91\n      jump\t// in\n    tag_90:\n      mload(0x40)\n      tag_92\n      swap2\n      swap1\n      tag_93\n      jump\t// in\n    tag_92:\n      mload(0x40)\n      dup1\n      swap2\n      sub\n      swap1\n      return\n        /* \"contracts/FlowerConductor.sol\":3567:3687  function FlowerCoinTotalBurned() external view returns (uint256) {... */\n    tag_21:\n      tag_94\n      tag_95\n      jump\t// in\n    tag_94:\n      mload(0x40)\n      tag_96\n      swap2\n      swap1\n      tag_55\n      jump\t// in\n    tag_96:\n      mload(0x40)\n      dup1\n      swap2\n      sub\n      swap1\n      return\n        /* \"contracts/FlowerConductor.sol\":582:621  uint256 public flowersPerFlowerCoin = 1 */\n    tag_22:\n      tag_97\n      tag_98\n      jump\t// in\n    tag_97:\n      mload(0x40)\n      tag_99\n      swap2\n      swap1\n      tag_55\n      jump\t// in\n    tag_99:\n      mload(0x40)\n      dup1\n      swap2\n      sub\n      swap1\n      return\n        /* \"contracts/FlowerConductor.sol\":1757:1888  function FlowerTotalBalance(address addr) external view returns (uint256) {... */\n    tag_23:\n      tag_100\n      0x04\n      dup1\n      calldatasize\n      sub\n      dup2\n      add\n      swap1\n      tag_101\n      swap2\n      swap1\n      tag_46\n      jump\t// in\n    tag_101:\n      tag_102\n      jump\t// in\n    tag_100:\n      mload(0x40)\n      tag_103\n      swap2\n      swap1\n      tag_55\n      jump\t// in\n    tag_103:\n      mload(0x40)\n      dup1\n      swap2\n      sub\n      swap1\n      return\n        /* \"contracts/FlowerConductor.sol\":10063:10324  function mintFlowerCoinWithFlower(address to, uint256 amount) public {... */\n    tag_24:\n      tag_104\n      0x04\n      dup1\n      calldatasize\n      sub\n      dup2\n      add\n      swap1\n      tag_105\n      swap2\n      swap1\n      tag_50\n      jump\t// in\n    tag_105:\n      tag_106\n      jump\t// in\n    tag_104:\n      stop\n        /* \"@openzeppelin/contracts/access/Ownable.sol\":2081:2279  function transferOwnership(address newOwner) public virtual onlyOwner {... */\n    tag_25:\n      tag_107\n      0x04\n      dup1\n      calldatasize\n      sub\n      dup2\n      add\n      swap1\n      tag_108\n      swap2\n      swap1\n      tag_46\n      jump\t// in\n    tag_108:\n      tag_109\n      jump\t// in\n    tag_107:\n      stop\n        /* \"contracts/FlowerConductor.sol\":10360:10598  function transferFlowerCoin(address to, uint256 amount) public {... */\n    tag_26:\n      tag_110\n      0x04\n      dup1\n      calldatasize\n      sub\n      dup2\n      add\n      swap1\n      tag_111\n      swap2\n      swap1\n      tag_50\n      jump\t// in\n    tag_111:\n      tag_112\n      jump\t// in\n    tag_110:\n      stop\n        /* \"contracts/FlowerConductor.sol\":2366:3253  function getBalanceNodes(address _addr, uint256 _numNodes) public view returns (TBNode[] memory) {... */\n    tag_27:\n      tag_113\n      0x04\n      dup1\n      calldatasize\n      sub\n      dup2\n      add\n      swap1\n      tag_114\n      swap2\n      swap1\n      tag_50\n      jump\t// in\n    tag_114:\n      tag_115\n      jump\t// in\n    tag_113:\n      mload(0x40)\n      tag_116\n      swap2\n      swap1\n      tag_117\n      jump\t// in\n    tag_116:\n      mload(0x40)\n      dup1\n      swap2\n      sub\n      swap1\n      return\n        /* \"contracts/FlowerConductor.sol\":10657:10852  function transfer(address to, uint256 flowerAmount, uint256 flowerCoinAmount) public {... */\n    tag_35:\n        /* \"contracts/FlowerConductor.sol\":10752:10794  mintFlowerCoinWithFlower(to, flowerAmount) */\n      tag_119\n        /* \"contracts/FlowerConductor.sol\":10777:10779  to */\n      dup4\n        /* \"contracts/FlowerConductor.sol\":10781:10793  flowerAmount */\n      dup4\n        /* \"contracts/FlowerConductor.sol\":10752:10776  mintFlowerCoinWithFlower */\n      tag_106\n        /* \"contracts/FlowerConductor.sol\":10752:10794  mintFlowerCoinWithFlower(to, flowerAmount) */\n      jump\t// in\n    tag_119:\n        /* \"contracts/FlowerConductor.sol\":10805:10845  transferFlowerCoin(to, flowerCoinAmount) */\n      tag_120\n        /* \"contracts/FlowerConductor.sol\":10824:10826  to */\n      dup4\n        /* \"contracts/FlowerConductor.sol\":10828:10844  flowerCoinAmount */\n      dup3\n        /* \"contracts/FlowerConductor.sol\":10805:10823  transferFlowerCoin */\n      tag_112\n        /* \"contracts/FlowerConductor.sol\":10805:10845  transferFlowerCoin(to, flowerCoinAmount) */\n      jump\t// in\n    tag_120:\n        /* \"contracts/FlowerConductor.sol\":10657:10852  function transfer(address to, uint256 flowerAmount, uint256 flowerCoinAmount) public {... */\n      pop\n      pop\n      pop\n      jump\t// out\n        /* \"contracts/FlowerConductor.sol\":4023:4135  function setFlowersPerFlowerCoin(uint256 amount) public onlyOwner {... */\n    tag_39:\n        /* \"@openzeppelin/contracts/access/Ownable.sol\":1094:1107  _checkOwner() */\n      tag_122\n        /* \"@openzeppelin/contracts/access/Ownable.sol\":1094:1105  _checkOwner */\n      tag_123\n        /* \"@openzeppelin/contracts/access/Ownable.sol\":1094:1107  _checkOwner() */\n      jump\t// in\n    tag_122:\n        /* \"contracts/FlowerConductor.sol\":4122:4128  amount */\n      dup1\n        /* \"contracts/FlowerConductor.sol\":4099:4119  flowersPerFlowerCoin */\n      0x04\n        /* \"contracts/FlowerConductor.sol\":4099:4128  flowersPerFlowerCoin = amount */\n      dup2\n      swap1\n      sstore\n      pop\n        /* \"contracts/FlowerConductor.sol\":4023:4135  function setFlowersPerFlowerCoin(uint256 amount) public onlyOwner {... */\n      pop\n      jump\t// out\n        /* \"contracts/FlowerConductor.sol\":333:367  FlowerStorage public flowerStorage */\n    tag_41:\n      0x01\n      0x00\n      swap1\n      sload\n      swap1\n      0x0100\n      exp\n      swap1\n      div\n      0xffffffffffffffffffffffffffffffffffffffff\n      and\n      dup2\n      jump\t// out\n        /* \"contracts/FlowerConductor.sol\":4162:5963  function expireFlower(address addr) public onlyOwner {... */\n    tag_47:\n        /* \"@openzeppelin/contracts/access/Ownable.sol\":1094:1107  _checkOwner() */\n      tag_126\n        /* \"@openzeppelin/contracts/access/Ownable.sol\":1094:1105  _checkOwner */\n      tag_123\n        /* \"@openzeppelin/contracts/access/Ownable.sol\":1094:1107  _checkOwner() */\n      jump\t// in\n    tag_126:\n        /* \"contracts/FlowerConductor.sol\":4225:4245  uint256 currentIndex */\n      0x00\n        /* \"contracts/FlowerConductor.sol\":4248:4261  flowerStorage */\n      0x01\n      0x00\n      swap1\n      sload\n      swap1\n      0x0100\n      exp\n      swap1\n      div\n      0xffffffffffffffffffffffffffffffffffffffff\n      and\n        /* \"contracts/FlowerConductor.sol\":4248:4273  flowerStorage.firstTBNode */\n      0xffffffffffffffffffffffffffffffffffffffff\n      and\n      0x6e76c3cf\n        /* \"contracts/FlowerConductor.sol\":4274:4278  addr */\n      dup4\n        /* \"contracts/FlowerConductor.sol\":4248:4279  flowerStorage.firstTBNode(addr) */\n      mload(0x40)\n      dup3\n      0xffffffff\n      and\n      0xe0\n      shl\n      dup2\n      mstore\n      0x04\n      add\n      tag_128\n      swap2\n      swap1\n      tag_76\n      jump\t// in\n    tag_128:\n      0x20\n      mload(0x40)\n      dup1\n      dup4\n      sub\n      dup2\n      dup7\n      dup1\n      extcodesize\n      iszero\n      dup1\n      iszero\n      tag_129\n      jumpi\n      0x00\n      dup1\n      revert\n    tag_129:\n      pop\n      gas\n      staticcall\n      iszero\n      dup1\n      iszero\n      tag_131\n      jumpi\n      returndatasize\n      0x00\n      dup1\n      returndatacopy\n      revert(0x00, returndatasize)\n    tag_131:\n      pop\n      pop\n      pop\n      pop\n      mload(0x40)\n      returndatasize\n      not(0x1f)\n      0x1f\n      dup3\n      add\n      and\n      dup3\n      add\n      dup1\n      0x40\n      mstore\n      pop\n      dup2\n      add\n      swap1\n      tag_132\n      swap2\n      swap1\n      tag_133\n      jump\t// in\n    tag_132:\n        /* \"contracts/FlowerConductor.sol\":4225:4279  uint256 currentIndex = flowerStorage.firstTBNode(addr) */\n      swap1\n      pop\n        /* \"contracts/FlowerConductor.sol\":4291:4316  TBNode memory currentNode */\n      0x00\n        /* \"contracts/FlowerConductor.sol\":4319:4332  flowerStorage */\n      0x01\n      0x00\n      swap1\n      sload\n      swap1\n      0x0100\n      exp\n      swap1\n      div\n      0xffffffffffffffffffffffffffffffffffffffff\n      and\n        /* \"contracts/FlowerConductor.sol\":4319:4349  flowerStorage.getTBNodeByIndex */\n      0xffffffffffffffffffffffffffffffffffffffff\n      and\n      0xb1398144\n        /* \"contracts/FlowerConductor.sol\":4350:4354  addr */\n      dup5\n        /* \"contracts/FlowerConductor.sol\":4356:4368  currentIndex */\n      dup5\n        /* \"contracts/FlowerConductor.sol\":4319:4369  flowerStorage.getTBNodeByIndex(addr, currentIndex) */\n      mload(0x40)\n      dup4\n      0xffffffff\n      and\n      0xe0\n      shl\n      dup2\n      mstore\n      0x04\n      add\n      tag_134\n      swap3\n      swap2\n      swap1\n      tag_135\n      jump\t// in\n    tag_134:\n      0x60\n      mload(0x40)\n      dup1\n      dup4\n      sub\n      dup2\n      dup7\n      dup1\n      extcodesize\n      iszero\n      dup1\n      iszero\n      tag_136\n      jumpi\n      0x00\n      dup1\n      revert\n    tag_136:\n      pop\n      gas\n      staticcall\n      iszero\n      dup1\n      iszero\n      tag_138\n      jumpi\n      returndatasize\n      0x00\n      dup1\n      returndatacopy\n      revert(0x00, returndatasize)\n    tag_138:\n      pop\n      pop\n      pop\n      pop\n      mload(0x40)\n      returndatasize\n      not(0x1f)\n      0x1f\n      dup3\n      add\n      and\n      dup3\n      add\n      dup1\n      0x40\n      mstore\n      pop\n      dup2\n      add\n      swap1\n      tag_139\n      swap2\n      swap1\n      tag_140\n      jump\t// in\n    tag_139:\n        /* \"contracts/FlowerConductor.sol\":4291:4369  TBNode memory currentNode = flowerStorage.getTBNodeByIndex(addr, currentIndex) */\n      swap1\n      pop\n        /* \"contracts/FlowerConductor.sol\":4475:4501  uint256 totalTokensExpired */\n      0x00\n        /* \"contracts/FlowerConductor.sol\":4593:5503  while (currentIndex != 0 && currentNode.timestamp + timeToExpire <= block.timestamp)... */\n    tag_141:\n        /* \"contracts/FlowerConductor.sol\":4616:4617  0 */\n      0x00\n        /* \"contracts/FlowerConductor.sol\":4600:4612  currentIndex */\n      dup4\n        /* \"contracts/FlowerConductor.sol\":4600:4617  currentIndex != 0 */\n      eq\n      iszero\n        /* \"contracts/FlowerConductor.sol\":4600:4676  currentIndex != 0 && currentNode.timestamp + timeToExpire <= block.timestamp */\n      dup1\n      iszero\n      tag_143\n      jumpi\n      pop\n        /* \"contracts/FlowerConductor.sol\":4661:4676  block.timestamp */\n      timestamp\n        /* \"contracts/FlowerConductor.sol\":4645:4657  timeToExpire */\n      sload(0x03)\n        /* \"contracts/FlowerConductor.sol\":4621:4632  currentNode */\n      dup4\n        /* \"contracts/FlowerConductor.sol\":4621:4642  currentNode.timestamp */\n      0x00\n      add\n      mload\n        /* \"contracts/FlowerConductor.sol\":4621:4657  currentNode.timestamp + timeToExpire */\n      tag_144\n      swap2\n      swap1\n      tag_145\n      jump\t// in\n    tag_144:\n        /* \"contracts/FlowerConductor.sol\":4621:4676  currentNode.timestamp + timeToExpire <= block.timestamp */\n      gt\n      iszero\n        /* \"contracts/FlowerConductor.sol\":4600:4676  currentIndex != 0 && currentNode.timestamp + timeToExpire <= block.timestamp */\n    tag_143:\n        /* \"contracts/FlowerConductor.sol\":4593:5503  while (currentIndex != 0 && currentNode.timestamp + timeToExpire <= block.timestamp)... */\n      iszero\n      tag_142\n      jumpi\n        /* \"contracts/FlowerConductor.sol\":4744:4757  flowerStorage */\n      0x01\n      0x00\n      swap1\n      sload\n      swap1\n      0x0100\n      exp\n      swap1\n      div\n      0xffffffffffffffffffffffffffffffffffffffff\n      and\n        /* \"contracts/FlowerConductor.sol\":4744:4772  flowerStorage.setFirstTBNode */\n      0xffffffffffffffffffffffffffffffffffffffff\n      and\n      0x7ab436f8\n        /* \"contracts/FlowerConductor.sol\":4773:4777  addr */\n      dup6\n        /* \"contracts/FlowerConductor.sol\":4779:4790  currentNode */\n      dup5\n        /* \"contracts/FlowerConductor.sol\":4779:4795  currentNode.next */\n      0x40\n      add\n      mload\n        /* \"contracts/FlowerConductor.sol\":4744:4796  flowerStorage.setFirstTBNode(addr, currentNode.next) */\n      mload(0x40)\n      dup4\n      0xffffffff\n      and\n      0xe0\n      shl\n      dup2\n      mstore\n      0x04\n      add\n      tag_146\n      swap3\n      swap2\n      swap1\n      tag_135\n      jump\t// in\n    tag_146:\n      0x00\n      mload(0x40)\n      dup1\n      dup4\n      sub\n      dup2\n      0x00\n      dup8\n      dup1\n      extcodesize\n      iszero\n      dup1\n      iszero\n      tag_147\n      jumpi\n      0x00\n      dup1\n      revert\n    tag_147:\n      pop\n      gas\n      call\n      iszero\n      dup1\n      iszero\n      tag_149\n      jumpi\n      returndatasize\n      0x00\n      dup1\n      returndatacopy\n      revert(0x00, returndatasize)\n    tag_149:\n      pop\n      pop\n      pop\n      pop\n        /* \"contracts/FlowerConductor.sol\":4938:4950  currentIndex */\n      dup3\n        /* \"contracts/FlowerConductor.sol\":4904:4917  flowerStorage */\n      0x01\n      0x00\n      swap1\n      sload\n      swap1\n      0x0100\n      exp\n      swap1\n      div\n      0xffffffffffffffffffffffffffffffffffffffff\n      and\n        /* \"contracts/FlowerConductor.sol\":4904:4928  flowerStorage.lastTBNode */\n      0xffffffffffffffffffffffffffffffffffffffff\n      and\n      0xbaafd2d8\n        /* \"contracts/FlowerConductor.sol\":4929:4933  addr */\n      dup7\n        /* \"contracts/FlowerConductor.sol\":4904:4934  flowerStorage.lastTBNode(addr) */\n      mload(0x40)\n      dup3\n      0xffffffff\n      and\n      0xe0\n      shl\n      dup2\n      mstore\n      0x04\n      add\n      tag_150\n      swap2\n      swap1\n      tag_76\n      jump\t// in\n    tag_150:\n      0x20\n      mload(0x40)\n      dup1\n      dup4\n      sub\n      dup2\n      dup7\n      dup1\n      extcodesize\n      iszero\n      dup1\n      iszero\n      tag_151\n      jumpi\n      0x00\n      dup1\n      revert\n    tag_151:\n      pop\n      gas\n      staticcall\n      iszero\n      dup1\n      iszero\n      tag_153\n      jumpi\n      returndatasize\n      0x00\n      dup1\n      returndatacopy\n      revert(0x00, returndatasize)\n    tag_153:\n      pop\n      pop\n      pop\n      pop\n      mload(0x40)\n      returndatasize\n      not(0x1f)\n      0x1f\n      dup3\n      add\n      and\n      dup3\n      add\n      dup1\n      0x40\n      mstore\n      pop\n      dup2\n      add\n      swap1\n      tag_154\n      swap2\n      swap1\n      tag_133\n      jump\t// in\n    tag_154:\n        /* \"contracts/FlowerConductor.sol\":4904:4950  flowerStorage.lastTBNode(addr) == currentIndex */\n      eq\n        /* \"contracts/FlowerConductor.sol\":4900:5048  if (flowerStorage.lastTBNode(addr) == currentIndex)... */\n      iszero\n      tag_155\n      jumpi\n        /* \"contracts/FlowerConductor.sol\":4982:4995  flowerStorage */\n      0x01\n      0x00\n      swap1\n      sload\n      swap1\n      0x0100\n      exp\n      swap1\n      div\n      0xffffffffffffffffffffffffffffffffffffffff\n      and\n        /* \"contracts/FlowerConductor.sol\":4982:5009  flowerStorage.setLastTBNode */\n      0xffffffffffffffffffffffffffffffffffffffff\n      and\n      0x85393a8e\n        /* \"contracts/FlowerConductor.sol\":5010:5014  addr */\n      dup6\n        /* \"contracts/FlowerConductor.sol\":5016:5027  currentNode */\n      dup5\n        /* \"contracts/FlowerConductor.sol\":5016:5032  currentNode.next */\n      0x40\n      add\n      mload\n        /* \"contracts/FlowerConductor.sol\":4982:5033  flowerStorage.setLastTBNode(addr, currentNode.next) */\n      mload(0x40)\n      dup4\n      0xffffffff\n      and\n      0xe0\n      shl\n      dup2\n      mstore\n      0x04\n      add\n      tag_156\n      swap3\n      swap2\n      swap1\n      tag_135\n      jump\t// in\n    tag_156:\n      0x00\n      mload(0x40)\n      dup1\n      dup4\n      sub\n      dup2\n      0x00\n      dup8\n      dup1\n      extcodesize\n      iszero\n      dup1\n      iszero\n      tag_157\n      jumpi\n      0x00\n      dup1\n      revert\n    tag_157:\n      pop\n      gas\n      call\n      iszero\n      dup1\n      iszero\n      tag_159\n      jumpi\n      returndatasize\n      0x00\n      dup1\n      returndatacopy\n      revert(0x00, returndatasize)\n    tag_159:\n      pop\n      pop\n      pop\n      pop\n        /* \"contracts/FlowerConductor.sol\":4900:5048  if (flowerStorage.lastTBNode(addr) == currentIndex)... */\n    tag_155:\n        /* \"contracts/FlowerConductor.sol\":5154:5165  currentNode */\n      dup2\n        /* \"contracts/FlowerConductor.sol\":5154:5173  currentNode.balance */\n      0x20\n      add\n      mload\n        /* \"contracts/FlowerConductor.sol\":5132:5173  totalTokensExpired += currentNode.balance */\n      dup2\n      tag_160\n      swap2\n      swap1\n      tag_145\n      jump\t// in\n    tag_160:\n      swap1\n      pop\n        /* \"contracts/FlowerConductor.sol\":5262:5275  flowerStorage */\n      0x01\n      0x00\n      swap1\n      sload\n      swap1\n      0x0100\n      exp\n      swap1\n      div\n      0xffffffffffffffffffffffffffffffffffffffff\n      and\n        /* \"contracts/FlowerConductor.sol\":5262:5295  flowerStorage.removeTBNodeByIndex */\n      0xffffffffffffffffffffffffffffffffffffffff\n      and\n      0xd89b5ed6\n        /* \"contracts/FlowerConductor.sol\":5296:5300  addr */\n      dup6\n        /* \"contracts/FlowerConductor.sol\":5302:5314  currentIndex */\n      dup6\n        /* \"contracts/FlowerConductor.sol\":5262:5315  flowerStorage.removeTBNodeByIndex(addr, currentIndex) */\n      mload(0x40)\n      dup4\n      0xffffffff\n      and\n      0xe0\n      shl\n      dup2\n      mstore\n      0x04\n      add\n      tag_161\n      swap3\n      swap2\n      swap1\n      tag_135\n      jump\t// in\n    tag_161:\n      0x00\n      mload(0x40)\n      dup1\n      dup4\n      sub\n      dup2\n      0x00\n      dup8\n      dup1\n      extcodesize\n      iszero\n      dup1\n      iszero\n      tag_162\n      jumpi\n      0x00\n      dup1\n      revert\n    tag_162:\n      pop\n      gas\n      call\n      iszero\n      dup1\n      iszero\n      tag_164\n      jumpi\n      returndatasize\n      0x00\n      dup1\n      returndatacopy\n      revert(0x00, returndatasize)\n    tag_164:\n      pop\n      pop\n      pop\n      pop\n        /* \"contracts/FlowerConductor.sol\":5391:5402  currentNode */\n      dup2\n        /* \"contracts/FlowerConductor.sol\":5391:5407  currentNode.next */\n      0x40\n      add\n      mload\n        /* \"contracts/FlowerConductor.sol\":5376:5407  currentIndex = currentNode.next */\n      swap3\n      pop\n        /* \"contracts/FlowerConductor.sol\":5435:5448  flowerStorage */\n      0x01\n      0x00\n      swap1\n      sload\n      swap1\n      0x0100\n      exp\n      swap1\n      div\n      0xffffffffffffffffffffffffffffffffffffffff\n      and\n        /* \"contracts/FlowerConductor.sol\":5435:5465  flowerStorage.getTBNodeByIndex */\n      0xffffffffffffffffffffffffffffffffffffffff\n      and\n      0xb1398144\n        /* \"contracts/FlowerConductor.sol\":5466:5470  addr */\n      dup6\n        /* \"contracts/FlowerConductor.sol\":5472:5484  currentIndex */\n      dup6\n        /* \"contracts/FlowerConductor.sol\":5435:5485  flowerStorage.getTBNodeByIndex(addr, currentIndex) */\n      mload(0x40)\n      dup4\n      0xffffffff\n      and\n      0xe0\n      shl\n      dup2\n      mstore\n      0x04\n      add\n      tag_165\n      swap3\n      swap2\n      swap1\n      tag_135\n      jump\t// in\n    tag_165:\n      0x60\n      mload(0x40)\n      dup1\n      dup4\n      sub\n      dup2\n      dup7\n      dup1\n      extcodesize\n      iszero\n      dup1\n      iszero\n      tag_166\n      jumpi\n      0x00\n      dup1\n      revert\n    tag_166:\n      pop\n      gas\n      staticcall\n      iszero\n      dup1\n      iszero\n      tag_168\n      jumpi\n      returndatasize\n      0x00\n      dup1\n      returndatacopy\n      revert(0x00, returndatasize)\n    tag_168:\n      pop\n      pop\n      pop\n      pop\n      mload(0x40)\n      returndatasize\n      not(0x1f)\n      0x1f\n      dup3\n      add\n      and\n      dup3\n      add\n      dup1\n      0x40\n      mstore\n      pop\n      dup2\n      add\n      swap1\n      tag_169\n      swap2\n      swap1\n      tag_140\n      jump\t// in\n    tag_169:\n        /* \"contracts/FlowerConductor.sol\":5421:5485  currentNode = flowerStorage.getTBNodeByIndex(addr, currentIndex) */\n      swap2\n      pop\n        /* \"contracts/FlowerConductor.sol\":4593:5503  while (currentIndex != 0 && currentNode.timestamp + timeToExpire <= block.timestamp)... */\n      jump(tag_141)\n    tag_142:\n        /* \"contracts/FlowerConductor.sol\":5583:5596  flowerStorage */\n      0x01\n      0x00\n      swap1\n      sload\n      swap1\n      0x0100\n      exp\n      swap1\n      div\n      0xffffffffffffffffffffffffffffffffffffffff\n      and\n        /* \"contracts/FlowerConductor.sol\":5583:5612  flowerStorage.subtractBalance */\n      0xffffffffffffffffffffffffffffffffffffffff\n      and\n      0xcfd4f18a\n        /* \"contracts/FlowerConductor.sol\":5613:5617  addr */\n      dup6\n        /* \"contracts/FlowerConductor.sol\":5619:5637  totalTokensExpired */\n      dup4\n        /* \"contracts/FlowerConductor.sol\":5583:5638  flowerStorage.subtractBalance(addr, totalTokensExpired) */\n      mload(0x40)\n      dup4\n      0xffffffff\n      and\n      0xe0\n      shl\n      dup2\n      mstore\n      0x04\n      add\n      tag_170\n      swap3\n      swap2\n      swap1\n      tag_135\n      jump\t// in\n    tag_170:\n      0x00\n      mload(0x40)\n      dup1\n      dup4\n      sub\n      dup2\n      0x00\n      dup8\n      dup1\n      extcodesize\n      iszero\n      dup1\n      iszero\n      tag_171\n      jumpi\n      0x00\n      dup1\n      revert\n    tag_171:\n      pop\n      gas\n      call\n      iszero\n      dup1\n      iszero\n      tag_173\n      jumpi\n      returndatasize\n      0x00\n      dup1\n      returndatacopy\n      revert(0x00, returndatasize)\n    tag_173:\n      pop\n      pop\n      pop\n      pop\n        /* \"contracts/FlowerConductor.sol\":5690:5703  flowerStorage */\n      0x01\n      0x00\n      swap1\n      sload\n      swap1\n      0x0100\n      exp\n      swap1\n      div\n      0xffffffffffffffffffffffffffffffffffffffff\n      and\n        /* \"contracts/FlowerConductor.sol\":5690:5723  flowerStorage.subtractTotalSupply */\n      0xffffffffffffffffffffffffffffffffffffffff\n      and\n      0x4b9ecd54\n        /* \"contracts/FlowerConductor.sol\":5724:5742  totalTokensExpired */\n      dup3\n        /* \"contracts/FlowerConductor.sol\":5690:5743  flowerStorage.subtractTotalSupply(totalTokensExpired) */\n      mload(0x40)\n      dup3\n      0xffffffff\n      and\n      0xe0\n      shl\n      dup2\n      mstore\n      0x04\n      add\n      tag_174\n      swap2\n      swap1\n      tag_55\n      jump\t// in\n    tag_174:\n      0x00\n      mload(0x40)\n      dup1\n      dup4\n      sub\n      dup2\n      0x00\n      dup8\n      dup1\n      extcodesize\n      iszero\n      dup1\n      iszero\n      tag_175\n      jumpi\n      0x00\n      dup1\n      revert\n    tag_175:\n      pop\n      gas\n      call\n      iszero\n      dup1\n      iszero\n      tag_177\n      jumpi\n      returndatasize\n      0x00\n      dup1\n      returndatacopy\n      revert(0x00, returndatasize)\n    tag_177:\n      pop\n      pop\n      pop\n      pop\n        /* \"contracts/FlowerConductor.sol\":5793:5806  flowerStorage */\n      0x01\n      0x00\n      swap1\n      sload\n      swap1\n      0x0100\n      exp\n      swap1\n      div\n      0xffffffffffffffffffffffffffffffffffffffff\n      and\n        /* \"contracts/FlowerConductor.sol\":5793:5822  flowerStorage.addTotalExpired */\n      0xffffffffffffffffffffffffffffffffffffffff\n      and\n      0xd53045c8\n        /* \"contracts/FlowerConductor.sol\":5823:5841  totalTokensExpired */\n      dup3\n        /* \"contracts/FlowerConductor.sol\":5793:5842  flowerStorage.addTotalExpired(totalTokensExpired) */\n      mload(0x40)\n      dup3\n      0xffffffff\n      and\n      0xe0\n      shl\n      dup2\n      mstore\n      0x04\n      add\n      tag_178\n      swap2\n      swap1\n      tag_55\n      jump\t// in\n    tag_178:\n      0x00\n      mload(0x40)\n      dup1\n      dup4\n      sub\n      dup2\n      0x00\n      dup8\n      dup1\n      extcodesize\n      iszero\n      dup1\n      iszero\n      tag_179\n      jumpi\n      0x00\n      dup1\n      revert\n    tag_179:\n      pop\n      gas\n      call\n      iszero\n      dup1\n      iszero\n      tag_181\n      jumpi\n      returndatasize\n      0x00\n      dup1\n      returndatacopy\n      revert(0x00, returndatasize)\n    tag_181:\n      pop\n      pop\n      pop\n      pop\n        /* \"contracts/FlowerConductor.sol\":5920:5935  block.timestamp */\n      timestamp\n        /* \"contracts/FlowerConductor.sol\":5914:5918  addr */\n      dup5\n        /* \"contracts/FlowerConductor.sol\":5901:5956  ExpireFlower(addr, block.timestamp, totalTokensExpired) */\n      0xffffffffffffffffffffffffffffffffffffffff\n      and\n      0x73d69c2a657bbcb6b4c79961e8103e47ce0adeeed5de389007265ac46aef496b\n        /* \"contracts/FlowerConductor.sol\":5937:5955  totalTokensExpired */\n      dup4\n        /* \"contracts/FlowerConductor.sol\":5901:5956  ExpireFlower(addr, block.timestamp, totalTokensExpired) */\n      mload(0x40)\n      tag_182\n      swap2\n      swap1\n      tag_55\n      jump\t// in\n    tag_182:\n      mload(0x40)\n      dup1\n      swap2\n      sub\n      swap1\n      log3\n        /* \"@openzeppelin/contracts/access/Ownable.sol\":1117:1118  _ */\n      pop\n      pop\n      pop\n        /* \"contracts/FlowerConductor.sol\":4162:5963  function expireFlower(address addr) public onlyOwner {... */\n      pop\n      jump\t// out\n        /* \"contracts/FlowerConductor.sol\":6701:9490  function burnFlower(address addr, uint256 amount) public onlyOwner {... */\n    tag_51:\n        /* \"@openzeppelin/contracts/access/Ownable.sol\":1094:1107  _checkOwner() */\n      tag_184\n        /* \"@openzeppelin/contracts/access/Ownable.sol\":1094:1105  _checkOwner */\n      tag_123\n        /* \"@openzeppelin/contracts/access/Ownable.sol\":1094:1107  _checkOwner() */\n      jump\t// in\n    tag_184:\n        /* \"contracts/FlowerConductor.sol\":6927:6945  expireFlower(addr) */\n      tag_186\n        /* \"contracts/FlowerConductor.sol\":6940:6944  addr */\n      dup3\n        /* \"contracts/FlowerConductor.sol\":6927:6939  expireFlower */\n      tag_47\n        /* \"contracts/FlowerConductor.sol\":6927:6945  expireFlower(addr) */\n      jump\t// in\n    tag_186:\n        /* \"contracts/FlowerConductor.sol\":7088:7094  amount */\n      dup1\n        /* \"contracts/FlowerConductor.sol\":7051:7064  flowerStorage */\n      0x01\n      0x00\n      swap1\n      sload\n      swap1\n      0x0100\n      exp\n      swap1\n      div\n      0xffffffffffffffffffffffffffffffffffffffff\n      and\n        /* \"contracts/FlowerConductor.sol\":7051:7078  flowerStorage.totalBalances */\n      0xffffffffffffffffffffffffffffffffffffffff\n      and\n      0xaee9c872\n        /* \"contracts/FlowerConductor.sol\":7079:7083  addr */\n      dup5\n        /* \"contracts/FlowerConductor.sol\":7051:7084  flowerStorage.totalBalances(addr) */\n      mload(0x40)\n      dup3\n      0xffffffff\n      and\n      0xe0\n      shl\n      dup2\n      mstore\n      0x04\n      add\n      tag_187\n      swap2\n      swap1\n      tag_76\n      jump\t// in\n    tag_187:\n      0x20\n      mload(0x40)\n      dup1\n      dup4\n      sub\n      dup2\n      dup7\n      dup1\n      extcodesize\n      iszero\n      dup1\n      iszero\n      tag_188\n      jumpi\n      0x00\n      dup1\n      revert\n    tag_188:\n      pop\n      gas\n      staticcall\n      iszero\n      dup1\n      iszero\n      tag_190\n      jumpi\n      returndatasize\n      0x00\n      dup1\n      returndatacopy\n      revert(0x00, returndatasize)\n    tag_190:\n      pop\n      pop\n      pop\n      pop\n      mload(0x40)\n      returndatasize\n      not(0x1f)\n      0x1f\n      dup3\n      add\n      and\n      dup3\n      add\n      dup1\n      0x40\n      mstore\n      pop\n      dup2\n      add\n      swap1\n      tag_191\n      swap2\n      swap1\n      tag_133\n      jump\t// in\n    tag_191:\n        /* \"contracts/FlowerConductor.sol\":7051:7094  flowerStorage.totalBalances(addr) >= amount */\n      lt\n      iszero\n        /* \"contracts/FlowerConductor.sol\":7043:7124  require(flowerStorage.totalBalances(addr) >= amount, \"Not enough tokens to burn\") */\n      tag_192\n      jumpi\n      mload(0x40)\n      0x08c379a000000000000000000000000000000000000000000000000000000000\n      dup2\n      mstore\n      0x04\n      add\n      tag_193\n      swap1\n      tag_194\n      jump\t// in\n    tag_193:\n      mload(0x40)\n      dup1\n      swap2\n      sub\n      swap1\n      revert\n    tag_192:\n        /* \"contracts/FlowerConductor.sol\":7184:7204  uint256 currentIndex */\n      0x00\n        /* \"contracts/FlowerConductor.sol\":7208:7221  flowerStorage */\n      0x01\n      0x00\n      swap1\n      sload\n      swap1\n      0x0100\n      exp\n      swap1\n      div\n      0xffffffffffffffffffffffffffffffffffffffff\n      and\n        /* \"contracts/FlowerConductor.sol\":7208:7233  flowerStorage.firstTBNode */\n      0xffffffffffffffffffffffffffffffffffffffff\n      and\n      0x6e76c3cf\n        /* \"contracts/FlowerConductor.sol\":7234:7238  addr */\n      dup5\n        /* \"contracts/FlowerConductor.sol\":7208:7239  flowerStorage.firstTBNode(addr) */\n      mload(0x40)\n      dup3\n      0xffffffff\n      and\n      0xe0\n      shl\n      dup2\n      mstore\n      0x04\n      add\n      tag_195\n      swap2\n      swap1\n      tag_76\n      jump\t// in\n    tag_195:\n      0x20\n      mload(0x40)\n      dup1\n      dup4\n      sub\n      dup2\n      dup7\n      dup1\n      extcodesize\n      iszero\n      dup1\n      iszero\n      tag_196\n      jumpi\n      0x00\n      dup1\n      revert\n    tag_196:\n      pop\n      gas\n      staticcall\n      iszero\n      dup1\n      iszero\n      tag_198\n      jumpi\n      returndatasize\n      0x00\n      dup1\n      returndatacopy\n      revert(0x00, returndatasize)\n    tag_198:\n      pop\n      pop\n      pop\n      pop\n      mload(0x40)\n      returndatasize\n      not(0x1f)\n      0x1f\n      dup3\n      add\n      and\n      dup3\n      add\n      dup1\n      0x40\n      mstore\n      pop\n      dup2\n      add\n      swap1\n      tag_199\n      swap2\n      swap1\n      tag_133\n      jump\t// in\n    tag_199:\n        /* \"contracts/FlowerConductor.sol\":7184:7239  uint256 currentIndex =  flowerStorage.firstTBNode(addr) */\n      swap1\n      pop\n        /* \"contracts/FlowerConductor.sol\":7249:7274  TBNode memory currentNode */\n      0x00\n        /* \"contracts/FlowerConductor.sol\":7277:7290  flowerStorage */\n      0x01\n      0x00\n      swap1\n      sload\n      swap1\n      0x0100\n      exp\n      swap1\n      div\n      0xffffffffffffffffffffffffffffffffffffffff\n      and\n        /* \"contracts/FlowerConductor.sol\":7277:7307  flowerStorage.getTBNodeByIndex */\n      0xffffffffffffffffffffffffffffffffffffffff\n      and\n      0xb1398144\n        /* \"contracts/FlowerConductor.sol\":7308:7312  addr */\n      dup6\n        /* \"contracts/FlowerConductor.sol\":7314:7326  currentIndex */\n      dup5\n        /* \"contracts/FlowerConductor.sol\":7277:7327  flowerStorage.getTBNodeByIndex(addr, currentIndex) */\n      mload(0x40)\n      dup4\n      0xffffffff\n      and\n      0xe0\n      shl\n      dup2\n      mstore\n      0x04\n      add\n      tag_200\n      swap3\n      swap2\n      swap1\n      tag_135\n      jump\t// in\n    tag_200:\n      0x60\n      mload(0x40)\n      dup1\n      dup4\n      sub\n      dup2\n      dup7\n      dup1\n      extcodesize\n      iszero\n      dup1\n      iszero\n      tag_201\n      jumpi\n      0x00\n      dup1\n      revert\n    tag_201:\n      pop\n      gas\n      staticcall\n      iszero\n      dup1\n      iszero\n      tag_203\n      jumpi\n      returndatasize\n      0x00\n      dup1\n      returndatacopy\n      revert(0x00, returndatasize)\n    tag_203:\n      pop\n      pop\n      pop\n      pop\n      mload(0x40)\n      returndatasize\n      not(0x1f)\n      0x1f\n      dup3\n      add\n      and\n      dup3\n      add\n      dup1\n      0x40\n      mstore\n      pop\n      dup2\n      add\n      swap1\n      tag_204\n      swap2\n      swap1\n      tag_140\n      jump\t// in\n    tag_204:\n        /* \"contracts/FlowerConductor.sol\":7249:7327  TBNode memory currentNode = flowerStorage.getTBNodeByIndex(addr, currentIndex) */\n      swap1\n      pop\n        /* \"contracts/FlowerConductor.sol\":7430:7450  uint256 amountBurned */\n      0x00\n        /* \"contracts/FlowerConductor.sol\":7533:9063  while (amountBurned < amount)... */\n    tag_205:\n        /* \"contracts/FlowerConductor.sol\":7555:7561  amount */\n      dup4\n        /* \"contracts/FlowerConductor.sol\":7540:7552  amountBurned */\n      dup2\n        /* \"contracts/FlowerConductor.sol\":7540:7561  amountBurned < amount */\n      lt\n        /* \"contracts/FlowerConductor.sol\":7533:9063  while (amountBurned < amount)... */\n      iszero\n      tag_206\n      jumpi\n        /* \"contracts/FlowerConductor.sol\":7648:7660  uint256 diff */\n      0x00\n        /* \"contracts/FlowerConductor.sol\":7672:7684  amountBurned */\n      dup2\n        /* \"contracts/FlowerConductor.sol\":7663:7669  amount */\n      dup6\n        /* \"contracts/FlowerConductor.sol\":7663:7684  amount - amountBurned */\n      tag_207\n      swap2\n      swap1\n      tag_208\n      jump\t// in\n    tag_207:\n        /* \"contracts/FlowerConductor.sol\":7648:7684  uint256 diff = amount - amountBurned */\n      swap1\n      pop\n        /* \"contracts/FlowerConductor.sol\":7807:7818  currentNode */\n      dup3\n        /* \"contracts/FlowerConductor.sol\":7807:7826  currentNode.balance */\n      0x20\n      add\n      mload\n        /* \"contracts/FlowerConductor.sol\":7799:7803  diff */\n      dup2\n        /* \"contracts/FlowerConductor.sol\":7799:7826  diff >= currentNode.balance */\n      lt\n        /* \"contracts/FlowerConductor.sol\":7795:9053  if (diff >= currentNode.balance)... */\n      tag_209\n      jumpi\n        /* \"contracts/FlowerConductor.sol\":7936:7947  currentNode */\n      dup3\n        /* \"contracts/FlowerConductor.sol\":7936:7955  currentNode.balance */\n      0x20\n      add\n      mload\n        /* \"contracts/FlowerConductor.sol\":7920:7955  amountBurned += currentNode.balance */\n      dup3\n      tag_210\n      swap2\n      swap1\n      tag_145\n      jump\t// in\n    tag_210:\n      swap2\n      pop\n        /* \"contracts/FlowerConductor.sol\":8040:8053  flowerStorage */\n      0x01\n      0x00\n      swap1\n      sload\n      swap1\n      0x0100\n      exp\n      swap1\n      div\n      0xffffffffffffffffffffffffffffffffffffffff\n      and\n        /* \"contracts/FlowerConductor.sol\":8040:8073  flowerStorage.removeTBNodeByIndex */\n      0xffffffffffffffffffffffffffffffffffffffff\n      and\n      0xd89b5ed6\n        /* \"contracts/FlowerConductor.sol\":8074:8078  addr */\n      dup8\n        /* \"contracts/FlowerConductor.sol\":8080:8092  currentIndex */\n      dup7\n        /* \"contracts/FlowerConductor.sol\":8040:8093  flowerStorage.removeTBNodeByIndex(addr, currentIndex) */\n      mload(0x40)\n      dup4\n      0xffffffff\n      and\n      0xe0\n      shl\n      dup2\n      mstore\n      0x04\n      add\n      tag_211\n      swap3\n      swap2\n      swap1\n      tag_135\n      jump\t// in\n    tag_211:\n      0x00\n      mload(0x40)\n      dup1\n      dup4\n      sub\n      dup2\n      0x00\n      dup8\n      dup1\n      extcodesize\n      iszero\n      dup1\n      iszero\n      tag_212\n      jumpi\n      0x00\n      dup1\n      revert\n    tag_212:\n      pop\n      gas\n      call\n      iszero\n      dup1\n      iszero\n      tag_214\n      jumpi\n      returndatasize\n      0x00\n      dup1\n      returndatacopy\n      revert(0x00, returndatasize)\n    tag_214:\n      pop\n      pop\n      pop\n      pop\n        /* \"contracts/FlowerConductor.sol\":8160:8173  flowerStorage */\n      0x01\n      0x00\n      swap1\n      sload\n      swap1\n      0x0100\n      exp\n      swap1\n      div\n      0xffffffffffffffffffffffffffffffffffffffff\n      and\n        /* \"contracts/FlowerConductor.sol\":8160:8188  flowerStorage.setFirstTBNode */\n      0xffffffffffffffffffffffffffffffffffffffff\n      and\n      0x7ab436f8\n        /* \"contracts/FlowerConductor.sol\":8189:8193  addr */\n      dup8\n        /* \"contracts/FlowerConductor.sol\":8195:8206  currentNode */\n      dup6\n        /* \"contracts/FlowerConductor.sol\":8195:8211  currentNode.next */\n      0x40\n      add\n      mload\n        /* \"contracts/FlowerConductor.sol\":8160:8212  flowerStorage.setFirstTBNode(addr, currentNode.next) */\n      mload(0x40)\n      dup4\n      0xffffffff\n      and\n      0xe0\n      shl\n      dup2\n      mstore\n      0x04\n      add\n      tag_215\n      swap3\n      swap2\n      swap1\n      tag_135\n      jump\t// in\n    tag_215:\n      0x00\n      mload(0x40)\n      dup1\n      dup4\n      sub\n      dup2\n      0x00\n      dup8\n      dup1\n      extcodesize\n      iszero\n      dup1\n      iszero\n      tag_216\n      jumpi\n      0x00\n      dup1\n      revert\n    tag_216:\n      pop\n      gas\n      call\n      iszero\n      dup1\n      iszero\n      tag_218\n      jumpi\n      returndatasize\n      0x00\n      dup1\n      returndatacopy\n      revert(0x00, returndatasize)\n    tag_218:\n      pop\n      pop\n      pop\n      pop\n        /* \"contracts/FlowerConductor.sol\":8362:8374  currentIndex */\n      dup4\n        /* \"contracts/FlowerConductor.sol\":8328:8341  flowerStorage */\n      0x01\n      0x00\n      swap1\n      sload\n      swap1\n      0x0100\n      exp\n      swap1\n      div\n      0xffffffffffffffffffffffffffffffffffffffff\n      and\n        /* \"contracts/FlowerConductor.sol\":8328:8352  flowerStorage.lastTBNode */\n      0xffffffffffffffffffffffffffffffffffffffff\n      and\n      0xbaafd2d8\n        /* \"contracts/FlowerConductor.sol\":8353:8357  addr */\n      dup9\n        /* \"contracts/FlowerConductor.sol\":8328:8358  flowerStorage.lastTBNode(addr) */\n      mload(0x40)\n      dup3\n      0xffffffff\n      and\n      0xe0\n      shl\n      dup2\n      mstore\n      0x04\n      add\n      tag_219\n      swap2\n      swap1\n      tag_76\n      jump\t// in\n    tag_219:\n      0x20\n      mload(0x40)\n      dup1\n      dup4\n      sub\n      dup2\n      dup7\n      dup1\n      extcodesize\n      iszero\n      dup1\n      iszero\n      tag_220\n      jumpi\n      0x00\n      dup1\n      revert\n    tag_220:\n      pop\n      gas\n      staticcall\n      iszero\n      dup1\n      iszero\n      tag_222\n      jumpi\n      returndatasize\n      0x00\n      dup1\n      returndatacopy\n      revert(0x00, returndatasize)\n    tag_222:\n      pop\n      pop\n      pop\n      pop\n      mload(0x40)\n      returndatasize\n      not(0x1f)\n      0x1f\n      dup3\n      add\n      and\n      dup3\n      add\n      dup1\n      0x40\n      mstore\n      pop\n      dup2\n      add\n      swap1\n      tag_223\n      swap2\n      swap1\n      tag_133\n      jump\t// in\n    tag_223:\n        /* \"contracts/FlowerConductor.sol\":8328:8374  flowerStorage.lastTBNode(addr) == currentIndex */\n      eq\n        /* \"contracts/FlowerConductor.sol\":8324:8484  if (flowerStorage.lastTBNode(addr) == currentIndex)... */\n      iszero\n      tag_224\n      jumpi\n        /* \"contracts/FlowerConductor.sol\":8414:8427  flowerStorage */\n      0x01\n      0x00\n      swap1\n      sload\n      swap1\n      0x0100\n      exp\n      swap1\n      div\n      0xffffffffffffffffffffffffffffffffffffffff\n      and\n        /* \"contracts/FlowerConductor.sol\":8414:8441  flowerStorage.setLastTBNode */\n      0xffffffffffffffffffffffffffffffffffffffff\n      and\n      0x85393a8e\n        /* \"contracts/FlowerConductor.sol\":8442:8446  addr */\n      dup8\n        /* \"contracts/FlowerConductor.sol\":8448:8459  currentNode */\n      dup6\n        /* \"contracts/FlowerConductor.sol\":8448:8464  currentNode.next */\n      0x40\n      add\n      mload\n        /* \"contracts/FlowerConductor.sol\":8414:8465  flowerStorage.setLastTBNode(addr, currentNode.next) */\n      mload(0x40)\n      dup4\n      0xffffffff\n      and\n      0xe0\n      shl\n      dup2\n      mstore\n      0x04\n      add\n      tag_225\n      swap3\n      swap2\n      swap1\n      tag_135\n      jump\t// in\n    tag_225:\n      0x00\n      mload(0x40)\n      dup1\n      dup4\n      sub\n      dup2\n      0x00\n      dup8\n      dup1\n      extcodesize\n      iszero\n      dup1\n      iszero\n      tag_226\n      jumpi\n      0x00\n      dup1\n      revert\n    tag_226:\n      pop\n      gas\n      call\n      iszero\n      dup1\n      iszero\n      tag_228\n      jumpi\n      returndatasize\n      0x00\n      dup1\n      returndatacopy\n      revert(0x00, returndatasize)\n    tag_228:\n      pop\n      pop\n      pop\n      pop\n        /* \"contracts/FlowerConductor.sol\":8324:8484  if (flowerStorage.lastTBNode(addr) == currentIndex)... */\n    tag_224:\n        /* \"contracts/FlowerConductor.sol\":8567:8578  currentNode */\n      dup3\n        /* \"contracts/FlowerConductor.sol\":8567:8583  currentNode.next */\n      0x40\n      add\n      mload\n        /* \"contracts/FlowerConductor.sol\":8552:8583  currentIndex = currentNode.next */\n      swap4\n      pop\n        /* \"contracts/FlowerConductor.sol\":8615:8628  flowerStorage */\n      0x01\n      0x00\n      swap1\n      sload\n      swap1\n      0x0100\n      exp\n      swap1\n      div\n      0xffffffffffffffffffffffffffffffffffffffff\n      and\n        /* \"contracts/FlowerConductor.sol\":8615:8645  flowerStorage.getTBNodeByIndex */\n      0xffffffffffffffffffffffffffffffffffffffff\n      and\n      0xb1398144\n        /* \"contracts/FlowerConductor.sol\":8646:8650  addr */\n      dup8\n        /* \"contracts/FlowerConductor.sol\":8652:8664  currentIndex */\n      dup7\n        /* \"contracts/FlowerConductor.sol\":8615:8665  flowerStorage.getTBNodeByIndex(addr, currentIndex) */\n      mload(0x40)\n      dup4\n      0xffffffff\n      and\n      0xe0\n      shl\n      dup2\n      mstore\n      0x04\n      add\n      tag_229\n      swap3\n      swap2\n      swap1\n      tag_135\n      jump\t// in\n    tag_229:\n      0x60\n      mload(0x40)\n      dup1\n      dup4\n      sub\n      dup2\n      dup7\n      dup1\n      extcodesize\n      iszero\n      dup1\n      iszero\n      tag_230\n      jumpi\n      0x00\n      dup1\n      revert\n    tag_230:\n      pop\n      gas\n      staticcall\n      iszero\n      dup1\n      iszero\n      tag_232\n      jumpi\n      returndatasize\n      0x00\n      dup1\n      returndatacopy\n      revert(0x00, returndatasize)\n    tag_232:\n      pop\n      pop\n      pop\n      pop\n      mload(0x40)\n      returndatasize\n      not(0x1f)\n      0x1f\n      dup3\n      add\n      and\n      dup3\n      add\n      dup1\n      0x40\n      mstore\n      pop\n      dup2\n      add\n      swap1\n      tag_233\n      swap2\n      swap1\n      tag_140\n      jump\t// in\n    tag_233:\n        /* \"contracts/FlowerConductor.sol\":8601:8665  currentNode = flowerStorage.getTBNodeByIndex(addr, currentIndex) */\n      swap3\n      pop\n        /* \"contracts/FlowerConductor.sol\":7795:9053  if (diff >= currentNode.balance)... */\n      jump(tag_234)\n    tag_209:\n        /* \"contracts/FlowerConductor.sol\":8886:8890  diff */\n      dup1\n        /* \"contracts/FlowerConductor.sol\":8870:8890  amountBurned += diff */\n      dup3\n      tag_235\n      swap2\n      swap1\n      tag_145\n      jump\t// in\n    tag_235:\n      swap2\n      pop\n        /* \"contracts/FlowerConductor.sol\":8970:8983  flowerStorage */\n      0x01\n      0x00\n      swap1\n      sload\n      swap1\n      0x0100\n      exp\n      swap1\n      div\n      0xffffffffffffffffffffffffffffffffffffffff\n      and\n        /* \"contracts/FlowerConductor.sol\":8970:9012  flowerStorage.subtractTBNodeByIndexBalance */\n      0xffffffffffffffffffffffffffffffffffffffff\n      and\n      0xee650665\n        /* \"contracts/FlowerConductor.sol\":9013:9017  addr */\n      dup8\n        /* \"contracts/FlowerConductor.sol\":9019:9031  currentIndex */\n      dup7\n        /* \"contracts/FlowerConductor.sol\":9033:9037  diff */\n      dup5\n        /* \"contracts/FlowerConductor.sol\":8970:9038  flowerStorage.subtractTBNodeByIndexBalance(addr, currentIndex, diff) */\n      mload(0x40)\n      dup5\n      0xffffffff\n      and\n      0xe0\n      shl\n      dup2\n      mstore\n      0x04\n      add\n      tag_236\n      swap4\n      swap3\n      swap2\n      swap1\n      tag_237\n      jump\t// in\n    tag_236:\n      0x00\n      mload(0x40)\n      dup1\n      dup4\n      sub\n      dup2\n      0x00\n      dup8\n      dup1\n      extcodesize\n      iszero\n      dup1\n      iszero\n      tag_238\n      jumpi\n      0x00\n      dup1\n      revert\n    tag_238:\n      pop\n      gas\n      call\n      iszero\n      dup1\n      iszero\n      tag_240\n      jumpi\n      returndatasize\n      0x00\n      dup1\n      returndatacopy\n      revert(0x00, returndatasize)\n    tag_240:\n      pop\n      pop\n      pop\n      pop\n        /* \"contracts/FlowerConductor.sol\":7795:9053  if (diff >= currentNode.balance)... */\n    tag_234:\n        /* \"contracts/FlowerConductor.sol\":7533:9063  while (amountBurned < amount)... */\n      pop\n      jump(tag_205)\n    tag_206:\n        /* \"contracts/FlowerConductor.sol\":9142:9155  flowerStorage */\n      0x01\n      0x00\n      swap1\n      sload\n      swap1\n      0x0100\n      exp\n      swap1\n      div\n      0xffffffffffffffffffffffffffffffffffffffff\n      and\n        /* \"contracts/FlowerConductor.sol\":9142:9171  flowerStorage.subtractBalance */\n      0xffffffffffffffffffffffffffffffffffffffff\n      and\n      0xcfd4f18a\n        /* \"contracts/FlowerConductor.sol\":9172:9176  addr */\n      dup7\n        /* \"contracts/FlowerConductor.sol\":9178:9190  amountBurned */\n      dup4\n        /* \"contracts/FlowerConductor.sol\":9142:9191  flowerStorage.subtractBalance(addr, amountBurned) */\n      mload(0x40)\n      dup4\n      0xffffffff\n      and\n      0xe0\n      shl\n      dup2\n      mstore\n      0x04\n      add\n      tag_241\n      swap3\n      swap2\n      swap1\n      tag_135\n      jump\t// in\n    tag_241:\n      0x00\n      mload(0x40)\n      dup1\n      dup4\n      sub\n      dup2\n      0x00\n      dup8\n      dup1\n      extcodesize\n      iszero\n      dup1\n      iszero\n      tag_242\n      jumpi\n      0x00\n      dup1\n      revert\n    tag_242:\n      pop\n      gas\n      call\n      iszero\n      dup1\n      iszero\n      tag_244\n      jumpi\n      returndatasize\n      0x00\n      dup1\n      returndatacopy\n      revert(0x00, returndatasize)\n    tag_244:\n      pop\n      pop\n      pop\n      pop\n        /* \"contracts/FlowerConductor.sol\":9242:9255  flowerStorage */\n      0x01\n      0x00\n      swap1\n      sload\n      swap1\n      0x0100\n      exp\n      swap1\n      div\n      0xffffffffffffffffffffffffffffffffffffffff\n      and\n        /* \"contracts/FlowerConductor.sol\":9242:9275  flowerStorage.subtractTotalSupply */\n      0xffffffffffffffffffffffffffffffffffffffff\n      and\n      0x4b9ecd54\n        /* \"contracts/FlowerConductor.sol\":9276:9288  amountBurned */\n      dup3\n        /* \"contracts/FlowerConductor.sol\":9242:9289  flowerStorage.subtractTotalSupply(amountBurned) */\n      mload(0x40)\n      dup3\n      0xffffffff\n      and\n      0xe0\n      shl\n      dup2\n      mstore\n      0x04\n      add\n      tag_245\n      swap2\n      swap1\n      tag_55\n      jump\t// in\n    tag_245:\n      0x00\n      mload(0x40)\n      dup1\n      dup4\n      sub\n      dup2\n      0x00\n      dup8\n      dup1\n      extcodesize\n      iszero\n      dup1\n      iszero\n      tag_246\n      jumpi\n      0x00\n      dup1\n      revert\n    tag_246:\n      pop\n      gas\n      call\n      iszero\n      dup1\n      iszero\n      tag_248\n      jumpi\n      returndatasize\n      0x00\n      dup1\n      returndatacopy\n      revert(0x00, returndatasize)\n    tag_248:\n      pop\n      pop\n      pop\n      pop\n        /* \"contracts/FlowerConductor.sol\":9337:9350  flowerStorage */\n      0x01\n      0x00\n      swap1\n      sload\n      swap1\n      0x0100\n      exp\n      swap1\n      div\n      0xffffffffffffffffffffffffffffffffffffffff\n      and\n        /* \"contracts/FlowerConductor.sol\":9337:9365  flowerStorage.addTotalBurned */\n      0xffffffffffffffffffffffffffffffffffffffff\n      and\n      0x93f0f55a\n        /* \"contracts/FlowerConductor.sol\":9366:9378  amountBurned */\n      dup3\n        /* \"contracts/FlowerConductor.sol\":9337:9379  flowerStorage.addTotalBurned(amountBurned) */\n      mload(0x40)\n      dup3\n      0xffffffff\n      and\n      0xe0\n      shl\n      dup2\n      mstore\n      0x04\n      add\n      tag_249\n      swap2\n      swap1\n      tag_55\n      jump\t// in\n    tag_249:\n      0x00\n      mload(0x40)\n      dup1\n      dup4\n      sub\n      dup2\n      0x00\n      dup8\n      dup1\n      extcodesize\n      iszero\n      dup1\n      iszero\n      tag_250\n      jumpi\n      0x00\n      dup1\n      revert\n    tag_250:\n      pop\n      gas\n      call\n      iszero\n      dup1\n      iszero\n      tag_252\n      jumpi\n      returndatasize\n      0x00\n      dup1\n      returndatacopy\n      revert(0x00, returndatasize)\n    tag_252:\n      pop\n      pop\n      pop\n      pop\n        /* \"contracts/FlowerConductor.sol\":9453:9468  block.timestamp */\n      timestamp\n        /* \"contracts/FlowerConductor.sol\":9447:9451  addr */\n      dup6\n        /* \"contracts/FlowerConductor.sol\":9436:9483  BurnFlower(addr, block.timestamp, amountBurned) */\n      0xffffffffffffffffffffffffffffffffffffffff\n      and\n      0x80a298b5c21f8032af01c83f19729136b533b45053ee957c22d08f7c483b974e\n        /* \"contracts/FlowerConductor.sol\":9470:9482  amountBurned */\n      dup4\n        /* \"contracts/FlowerConductor.sol\":9436:9483  BurnFlower(addr, block.timestamp, amountBurned) */\n      mload(0x40)\n      tag_253\n      swap2\n      swap1\n      tag_55\n      jump\t// in\n    tag_253:\n      mload(0x40)\n      dup1\n      swap2\n      sub\n      swap1\n      log3\n        /* \"@openzeppelin/contracts/access/Ownable.sol\":1117:1118  _ */\n      pop\n      pop\n      pop\n        /* \"contracts/FlowerConductor.sol\":6701:9490  function burnFlower(address addr, uint256 amount) public onlyOwner {... */\n      pop\n      pop\n      jump\t// out\n        /* \"contracts/FlowerConductor.sol\":2012:2126  function FlowerTotalExpired() external view returns (uint256) {... */\n    tag_53:\n        /* \"contracts/FlowerConductor.sol\":2065:2072  uint256 */\n      0x00\n        /* \"contracts/FlowerConductor.sol\":2091:2104  flowerStorage */\n      0x01\n      0x00\n      swap1\n      sload\n      swap1\n      0x0100\n      exp\n      swap1\n      div\n      0xffffffffffffffffffffffffffffffffffffffff\n      and\n        /* \"contracts/FlowerConductor.sol\":2091:2117  flowerStorage.totalExpired */\n      0xffffffffffffffffffffffffffffffffffffffff\n      and\n      0xce5e9365\n        /* \"contracts/FlowerConductor.sol\":2091:2119  flowerStorage.totalExpired() */\n      mload(0x40)\n      dup2\n      0xffffffff\n      and\n      0xe0\n      shl\n      dup2\n      mstore\n      0x04\n      add\n      0x20\n      mload(0x40)\n      dup1\n      dup4\n      sub\n      dup2\n      dup7\n      dup1\n      extcodesize\n      iszero\n      dup1\n      iszero\n      tag_255\n      jumpi\n      0x00\n      dup1\n      revert\n    tag_255:\n      pop\n      gas\n      staticcall\n      iszero\n      dup1\n      iszero\n      tag_257\n      jumpi\n      returndatasize\n      0x00\n      dup1\n      returndatacopy\n      revert(0x00, returndatasize)\n    tag_257:\n      pop\n      pop\n      pop\n      pop\n      mload(0x40)\n      returndatasize\n      not(0x1f)\n      0x1f\n      dup3\n      add\n      and\n      dup3\n      add\n      dup1\n      0x40\n      mstore\n      pop\n      dup2\n      add\n      swap1\n      tag_258\n      swap2\n      swap1\n      tag_133\n      jump\t// in\n    tag_258:\n        /* \"contracts/FlowerConductor.sol\":2084:2119  return flowerStorage.totalExpired() */\n      swap1\n      pop\n        /* \"contracts/FlowerConductor.sol\":2012:2126  function FlowerTotalExpired() external view returns (uint256) {... */\n      swap1\n      jump\t// out\n        /* \"contracts/FlowerConductor.sol\":2132:2244  function FlowerTotalBurned() external view returns (uint256) {... */\n    tag_57:\n        /* \"contracts/FlowerConductor.sol\":2184:2191  uint256 */\n      0x00\n        /* \"contracts/FlowerConductor.sol\":2210:2223  flowerStorage */\n      0x01\n      0x00\n      swap1\n      sload\n      swap1\n      0x0100\n      exp\n      swap1\n      div\n      0xffffffffffffffffffffffffffffffffffffffff\n      and\n        /* \"contracts/FlowerConductor.sol\":2210:2235  flowerStorage.totalBurned */\n      0xffffffffffffffffffffffffffffffffffffffff\n      and\n      0xd89135cd\n        /* \"contracts/FlowerConductor.sol\":2210:2237  flowerStorage.totalBurned() */\n      mload(0x40)\n      dup2\n      0xffffffff\n      and\n      0xe0\n      shl\n      dup2\n      mstore\n      0x04\n      add\n      0x20\n      mload(0x40)\n      dup1\n      dup4\n      sub\n      dup2\n      dup7\n      dup1\n      extcodesize\n      iszero\n      dup1\n      iszero\n      tag_260\n      jumpi\n      0x00\n      dup1\n      revert\n    tag_260:\n      pop\n      gas\n      staticcall\n      iszero\n      dup1\n      iszero\n      tag_262\n      jumpi\n      returndatasize\n      0x00\n      dup1\n      returndatacopy\n      revert(0x00, returndatasize)\n    tag_262:\n      pop\n      pop\n      pop\n      pop\n      mload(0x40)\n      returndatasize\n      not(0x1f)\n      0x1f\n      dup3\n      add\n      and\n      dup3\n      add\n      dup1\n      0x40\n      mstore\n      pop\n      dup2\n      add\n      swap1\n      tag_263\n      swap2\n      swap1\n      tag_133\n      jump\t// in\n    tag_263:\n        /* \"contracts/FlowerConductor.sol\":2203:2237  return flowerStorage.totalBurned() */\n      swap1\n      pop\n        /* \"contracts/FlowerConductor.sol\":2132:2244  function FlowerTotalBurned() external view returns (uint256) {... */\n      swap1\n      jump\t// out\n        /* \"contracts/FlowerConductor.sol\":3847:3939  function setTimeToExpire(uint256 time) public onlyOwner {... */\n    tag_61:\n        /* \"@openzeppelin/contracts/access/Ownable.sol\":1094:1107  _checkOwner() */\n      tag_265\n        /* \"@openzeppelin/contracts/access/Ownable.sol\":1094:1105  _checkOwner */\n      tag_123\n        /* \"@openzeppelin/contracts/access/Ownable.sol\":1094:1107  _checkOwner() */\n      jump\t// in\n    tag_265:\n        /* \"contracts/FlowerConductor.sol\":3928:3932  time */\n      dup1\n        /* \"contracts/FlowerConductor.sol\":3913:3925  timeToExpire */\n      0x03\n        /* \"contracts/FlowerConductor.sol\":3913:3932  timeToExpire = time */\n      dup2\n      swap1\n      sstore\n      pop\n        /* \"contracts/FlowerConductor.sol\":3847:3939  function setTimeToExpire(uint256 time) public onlyOwner {... */\n      pop\n      jump\t// out\n        /* \"contracts/FlowerConductor.sol\":5989:6595  function mintFlower(address addr, uint256 amount) public onlyOwner {... */\n    tag_64:\n        /* \"@openzeppelin/contracts/access/Ownable.sol\":1094:1107  _checkOwner() */\n      tag_268\n        /* \"@openzeppelin/contracts/access/Ownable.sol\":1094:1105  _checkOwner */\n      tag_123\n        /* \"@openzeppelin/contracts/access/Ownable.sol\":1094:1107  _checkOwner() */\n      jump\t// in\n    tag_268:\n        /* \"contracts/FlowerConductor.sol\":6122:6140  expireFlower(addr) */\n      tag_270\n        /* \"contracts/FlowerConductor.sol\":6135:6139  addr */\n      dup3\n        /* \"contracts/FlowerConductor.sol\":6122:6134  expireFlower */\n      tag_47\n        /* \"contracts/FlowerConductor.sol\":6122:6140  expireFlower(addr) */\n      jump\t// in\n    tag_270:\n        /* \"contracts/FlowerConductor.sol\":6176:6193  uint256 timeAdded */\n      0x00\n        /* \"contracts/FlowerConductor.sol\":6196:6211  block.timestamp */\n      timestamp\n        /* \"contracts/FlowerConductor.sol\":6176:6211  uint256 timeAdded = block.timestamp */\n      swap1\n      pop\n        /* \"contracts/FlowerConductor.sol\":6272:6285  flowerStorage */\n      0x01\n      0x00\n      swap1\n      sload\n      swap1\n      0x0100\n      exp\n      swap1\n      div\n      0xffffffffffffffffffffffffffffffffffffffff\n      and\n        /* \"contracts/FlowerConductor.sol\":6272:6293  flowerStorage.addNode */\n      0xffffffffffffffffffffffffffffffffffffffff\n      and\n      0x4eb84791\n        /* \"contracts/FlowerConductor.sol\":6294:6298  addr */\n      dup5\n        /* \"contracts/FlowerConductor.sol\":6300:6309  timeAdded */\n      dup4\n        /* \"contracts/FlowerConductor.sol\":6311:6317  amount */\n      dup6\n        /* \"contracts/FlowerConductor.sol\":6272:6318  flowerStorage.addNode(addr, timeAdded, amount) */\n      mload(0x40)\n      dup5\n      0xffffffff\n      and\n      0xe0\n      shl\n      dup2\n      mstore\n      0x04\n      add\n      tag_271\n      swap4\n      swap3\n      swap2\n      swap1\n      tag_237\n      jump\t// in\n    tag_271:\n      0x00\n      mload(0x40)\n      dup1\n      dup4\n      sub\n      dup2\n      0x00\n      dup8\n      dup1\n      extcodesize\n      iszero\n      dup1\n      iszero\n      tag_272\n      jumpi\n      0x00\n      dup1\n      revert\n    tag_272:\n      pop\n      gas\n      call\n      iszero\n      dup1\n      iszero\n      tag_274\n      jumpi\n      returndatasize\n      0x00\n      dup1\n      returndatacopy\n      revert(0x00, returndatasize)\n    tag_274:\n      pop\n      pop\n      pop\n      pop\n        /* \"contracts/FlowerConductor.sol\":6371:6384  flowerStorage */\n      0x01\n      0x00\n      swap1\n      sload\n      swap1\n      0x0100\n      exp\n      swap1\n      div\n      0xffffffffffffffffffffffffffffffffffffffff\n      and\n        /* \"contracts/FlowerConductor.sol\":6371:6395  flowerStorage.addBalance */\n      0xffffffffffffffffffffffffffffffffffffffff\n      and\n      0x21e5383a\n        /* \"contracts/FlowerConductor.sol\":6396:6400  addr */\n      dup5\n        /* \"contracts/FlowerConductor.sol\":6402:6408  amount */\n      dup5\n        /* \"contracts/FlowerConductor.sol\":6371:6409  flowerStorage.addBalance(addr, amount) */\n      mload(0x40)\n      dup4\n      0xffffffff\n      and\n      0xe0\n      shl\n      dup2\n      mstore\n      0x04\n      add\n      tag_275\n      swap3\n      swap2\n      swap1\n      tag_135\n      jump\t// in\n    tag_275:\n      0x00\n      mload(0x40)\n      dup1\n      dup4\n      sub\n      dup2\n      0x00\n      dup8\n      dup1\n      extcodesize\n      iszero\n      dup1\n      iszero\n      tag_276\n      jumpi\n      0x00\n      dup1\n      revert\n    tag_276:\n      pop\n      gas\n      call\n      iszero\n      dup1\n      iszero\n      tag_278\n      jumpi\n      returndatasize\n      0x00\n      dup1\n      returndatacopy\n      revert(0x00, returndatasize)\n    tag_278:\n      pop\n      pop\n      pop\n      pop\n        /* \"contracts/FlowerConductor.sol\":6460:6473  flowerStorage */\n      0x01\n      0x00\n      swap1\n      sload\n      swap1\n      0x0100\n      exp\n      swap1\n      div\n      0xffffffffffffffffffffffffffffffffffffffff\n      and\n        /* \"contracts/FlowerConductor.sol\":6460:6488  flowerStorage.addTotalSupply */\n      0xffffffffffffffffffffffffffffffffffffffff\n      and\n      0xe468688e\n        /* \"contracts/FlowerConductor.sol\":6489:6495  amount */\n      dup4\n        /* \"contracts/FlowerConductor.sol\":6460:6496  flowerStorage.addTotalSupply(amount) */\n      mload(0x40)\n      dup3\n      0xffffffff\n      and\n      0xe0\n      shl\n      dup2\n      mstore\n      0x04\n      add\n      tag_279\n      swap2\n      swap1\n      tag_55\n      jump\t// in\n    tag_279:\n      0x00\n      mload(0x40)\n      dup1\n      dup4\n      sub\n      dup2\n      0x00\n      dup8\n      dup1\n      extcodesize\n      iszero\n      dup1\n      iszero\n      tag_280\n      jumpi\n      0x00\n      dup1\n      revert\n    tag_280:\n      pop\n      gas\n      call\n      iszero\n      dup1\n      iszero\n      tag_282\n      jumpi\n      returndatasize\n      0x00\n      dup1\n      returndatacopy\n      revert(0x00, returndatasize)\n    tag_282:\n      pop\n      pop\n      pop\n      pop\n        /* \"contracts/FlowerConductor.sol\":6570:6579  timeAdded */\n      dup1\n        /* \"contracts/FlowerConductor.sol\":6564:6568  addr */\n      dup4\n        /* \"contracts/FlowerConductor.sol\":6553:6588  MintFlower(addr, timeAdded, amount) */\n      0xffffffffffffffffffffffffffffffffffffffff\n      and\n      0x938975f453799f51fa7c7ff2e9329114295fc240c7d4bcb30a0b782c4e90c0a1\n        /* \"contracts/FlowerConductor.sol\":6581:6587  amount */\n      dup5\n        /* \"contracts/FlowerConductor.sol\":6553:6588  MintFlower(addr, timeAdded, amount) */\n      mload(0x40)\n      tag_283\n      swap2\n      swap1\n      tag_55\n      jump\t// in\n    tag_283:\n      mload(0x40)\n      dup1\n      swap2\n      sub\n      swap1\n      log3\n        /* \"@openzeppelin/contracts/access/Ownable.sol\":1117:1118  _ */\n      pop\n        /* \"contracts/FlowerConductor.sol\":5989:6595  function mintFlower(address addr, uint256 amount) public onlyOwner {... */\n      pop\n      pop\n      jump\t// out\n        /* \"@openzeppelin/contracts/access/Ownable.sol\":1831:1932  function renounceOwnership() public virtual onlyOwner {... */\n    tag_66:\n        /* \"@openzeppelin/contracts/access/Ownable.sol\":1094:1107  _checkOwner() */\n      tag_285\n        /* \"@openzeppelin/contracts/access/Ownable.sol\":1094:1105  _checkOwner */\n      tag_123\n        /* \"@openzeppelin/contracts/access/Ownable.sol\":1094:1107  _checkOwner() */\n      jump\t// in\n    tag_285:\n        /* \"@openzeppelin/contracts/access/Ownable.sol\":1895:1925  _transferOwnership(address(0)) */\n      tag_287\n        /* \"@openzeppelin/contracts/access/Ownable.sol\":1922:1923  0 */\n      0x00\n        /* \"@openzeppelin/contracts/access/Ownable.sol\":1895:1913  _transferOwnership */\n      tag_288\n        /* \"@openzeppelin/contracts/access/Ownable.sol\":1895:1925  _transferOwnership(address(0)) */\n      jump\t// in\n    tag_287:\n        /* \"@openzeppelin/contracts/access/Ownable.sol\":1831:1932  function renounceOwnership() public virtual onlyOwner {... */\n      jump\t// out\n        /* \"contracts/FlowerConductor.sol\":1894:2006  function FlowerTotalSupply() external view returns (uint256) {... */\n    tag_68:\n        /* \"contracts/FlowerConductor.sol\":1946:1953  uint256 */\n      0x00\n        /* \"contracts/FlowerConductor.sol\":1972:1985  flowerStorage */\n      0x01\n      0x00\n      swap1\n      sload\n      swap1\n      0x0100\n      exp\n      swap1\n      div\n      0xffffffffffffffffffffffffffffffffffffffff\n      and\n        /* \"contracts/FlowerConductor.sol\":1972:1997  flowerStorage.totalSupply */\n      0xffffffffffffffffffffffffffffffffffffffff\n      and\n      0x18160ddd\n        /* \"contracts/FlowerConductor.sol\":1972:1999  flowerStorage.totalSupply() */\n      mload(0x40)\n      dup2\n      0xffffffff\n      and\n      0xe0\n      shl\n      dup2\n      mstore\n      0x04\n      add\n      0x20\n      mload(0x40)\n      dup1\n      dup4\n      sub\n      dup2\n      dup7\n      dup1\n      extcodesize\n      iszero\n      dup1\n      iszero\n      tag_290\n      jumpi\n      0x00\n      dup1\n      revert\n    tag_290:\n      pop\n      gas\n      staticcall\n      iszero\n      dup1\n      iszero\n      tag_292\n      jumpi\n      returndatasize\n      0x00\n      dup1\n      returndatacopy\n      revert(0x00, returndatasize)\n    tag_292:\n      pop\n      pop\n      pop\n      pop\n      mload(0x40)\n      returndatasize\n      not(0x1f)\n      0x1f\n      dup3\n      add\n      and\n      dup3\n      add\n      dup1\n      0x40\n      mstore\n      pop\n      dup2\n      add\n      swap1\n      tag_293\n      swap2\n      swap1\n      tag_133\n      jump\t// in\n    tag_293:\n        /* \"contracts/FlowerConductor.sol\":1965:1999  return flowerStorage.totalSupply() */\n      swap1\n      pop\n        /* \"contracts/FlowerConductor.sol\":1894:2006  function FlowerTotalSupply() external view returns (uint256) {... */\n      swap1\n      jump\t// out\n        /* \"contracts/FlowerConductor.sol\":478:510  uint256 public timeToExpire = 30 */\n    tag_71:\n      sload(0x03)\n      dup2\n      jump\t// out\n        /* \"@openzeppelin/contracts/access/Ownable.sol\":1201:1286  function owner() public view virtual returns (address) {... */\n    tag_74:\n        /* \"@openzeppelin/contracts/access/Ownable.sol\":1247:1254  address */\n      0x00\n        /* \"@openzeppelin/contracts/access/Ownable.sol\":1273:1279  _owner */\n      dup1\n      0x00\n      swap1\n      sload\n      swap1\n      0x0100\n      exp\n      swap1\n      div\n      0xffffffffffffffffffffffffffffffffffffffff\n      and\n        /* \"@openzeppelin/contracts/access/Ownable.sol\":1266:1279  return _owner */\n      swap1\n      pop\n        /* \"@openzeppelin/contracts/access/Ownable.sol\":1201:1286  function owner() public view virtual returns (address) {... */\n      swap1\n      jump\t// out\n        /* \"contracts/FlowerConductor.sol\":3296:3435  function FlowerCoinTotalBalance(address addr) external view returns (uint256) {... */\n    tag_79:\n        /* \"contracts/FlowerConductor.sol\":3365:3372  uint256 */\n      0x00\n        /* \"contracts/FlowerConductor.sol\":3391:3408  flowerCoinStorage */\n      0x02\n      0x00\n      swap1\n      sload\n      swap1\n      0x0100\n      exp\n      swap1\n      div\n      0xffffffffffffffffffffffffffffffffffffffff\n      and\n        /* \"contracts/FlowerConductor.sol\":3391:3422  flowerCoinStorage.totalBalances */\n      0xffffffffffffffffffffffffffffffffffffffff\n      and\n      0xaee9c872\n        /* \"contracts/FlowerConductor.sol\":3423:3427  addr */\n      dup4\n        /* \"contracts/FlowerConductor.sol\":3391:3428  flowerCoinStorage.totalBalances(addr) */\n      mload(0x40)\n      dup3\n      0xffffffff\n      and\n      0xe0\n      shl\n      dup2\n      mstore\n      0x04\n      add\n      tag_296\n      swap2\n      swap1\n      tag_76\n      jump\t// in\n    tag_296:\n      0x20\n      mload(0x40)\n      dup1\n      dup4\n      sub\n      dup2\n      dup7\n      dup1\n      extcodesize\n      iszero\n      dup1\n      iszero\n      tag_297\n      jumpi\n      0x00\n      dup1\n      revert\n    tag_297:\n      pop\n      gas\n      staticcall\n      iszero\n      dup1\n      iszero\n      tag_299\n      jumpi\n      returndatasize\n      0x00\n      dup1\n      returndatacopy\n      revert(0x00, returndatasize)\n    tag_299:\n      pop\n      pop\n      pop\n      pop\n      mload(0x40)\n      returndatasize\n      not(0x1f)\n      0x1f\n      dup3\n      add\n      and\n      dup3\n      add\n      dup1\n      0x40\n      mstore\n      pop\n      dup2\n      add\n      swap1\n      tag_300\n      swap2\n      swap1\n      tag_133\n      jump\t// in\n    tag_300:\n        /* \"contracts/FlowerConductor.sol\":3384:3428  return flowerCoinStorage.totalBalances(addr) */\n      swap1\n      pop\n        /* \"contracts/FlowerConductor.sol\":3296:3435  function FlowerCoinTotalBalance(address addr) external view returns (uint256) {... */\n      swap2\n      swap1\n      pop\n      jump\t// out\n        /* \"contracts/FlowerConductor.sol\":9522:9743  function mintFlowerCoin(address to, uint256 amount) public onlyOwner {... */\n    tag_83:\n        /* \"@openzeppelin/contracts/access/Ownable.sol\":1094:1107  _checkOwner() */\n      tag_302\n        /* \"@openzeppelin/contracts/access/Ownable.sol\":1094:1105  _checkOwner */\n      tag_123\n        /* \"@openzeppelin/contracts/access/Ownable.sol\":1094:1107  _checkOwner() */\n      jump\t// in\n    tag_302:\n        /* \"contracts/FlowerConductor.sol\":9601:9618  flowerCoinStorage */\n      0x02\n      0x00\n      swap1\n      sload\n      swap1\n      0x0100\n      exp\n      swap1\n      div\n      0xffffffffffffffffffffffffffffffffffffffff\n      and\n        /* \"contracts/FlowerConductor.sol\":9601:9623  flowerCoinStorage.mint */\n      0xffffffffffffffffffffffffffffffffffffffff\n      and\n      0x40c10f19\n        /* \"contracts/FlowerConductor.sol\":9624:9626  to */\n      dup4\n        /* \"contracts/FlowerConductor.sol\":9628:9634  amount */\n      dup4\n        /* \"contracts/FlowerConductor.sol\":9601:9635  flowerCoinStorage.mint(to, amount) */\n      mload(0x40)\n      dup4\n      0xffffffff\n      and\n      0xe0\n      shl\n      dup2\n      mstore\n      0x04\n      add\n      tag_304\n      swap3\n      swap2\n      swap1\n      tag_135\n      jump\t// in\n    tag_304:\n      0x00\n      mload(0x40)\n      dup1\n      dup4\n      sub\n      dup2\n      0x00\n      dup8\n      dup1\n      extcodesize\n      iszero\n      dup1\n      iszero\n      tag_305\n      jumpi\n      0x00\n      dup1\n      revert\n    tag_305:\n      pop\n      gas\n      call\n      iszero\n      dup1\n      iszero\n      tag_307\n      jumpi\n      returndatasize\n      0x00\n      dup1\n      returndatacopy\n      revert(0x00, returndatasize)\n    tag_307:\n      pop\n      pop\n      pop\n      pop\n        /* \"contracts/FlowerConductor.sol\":9725:9727  to */\n      dup2\n        /* \"contracts/FlowerConductor.sol\":9698:9736  MintFlowerCoin(msg.sender, to, amount) */\n      0xffffffffffffffffffffffffffffffffffffffff\n      and\n        /* \"contracts/FlowerConductor.sol\":9713:9723  msg.sender */\n      caller\n        /* \"contracts/FlowerConductor.sol\":9698:9736  MintFlowerCoin(msg.sender, to, amount) */\n      0xffffffffffffffffffffffffffffffffffffffff\n      and\n      0x758e0e7bdda0715b5e694ff0d2f9126df6022b2ab018e1cdf24ba95bd32c89f1\n        /* \"contracts/FlowerConductor.sol\":9729:9735  amount */\n      dup4\n        /* \"contracts/FlowerConductor.sol\":9698:9736  MintFlowerCoin(msg.sender, to, amount) */\n      mload(0x40)\n      tag_308\n      swap2\n      swap1\n      tag_55\n      jump\t// in\n    tag_308:\n      mload(0x40)\n      dup1\n      swap2\n      sub\n      swap1\n      log3\n        /* \"contracts/FlowerConductor.sol\":9522:9743  function mintFlowerCoin(address to, uint256 amount) public onlyOwner {... */\n      pop\n      pop\n      jump\t// out\n        /* \"contracts/FlowerConductor.sol\":3441:3561  function FlowerCoinTotalSupply() external view returns (uint256) {... */\n    tag_85:\n        /* \"contracts/FlowerConductor.sol\":3497:3504  uint256 */\n      0x00\n        /* \"contracts/FlowerConductor.sol\":3523:3540  flowerCoinStorage */\n      0x02\n      0x00\n      swap1\n      sload\n      swap1\n      0x0100\n      exp\n      swap1\n      div\n      0xffffffffffffffffffffffffffffffffffffffff\n      and\n        /* \"contracts/FlowerConductor.sol\":3523:3552  flowerCoinStorage.totalSupply */\n      0xffffffffffffffffffffffffffffffffffffffff\n      and\n      0x18160ddd\n        /* \"contracts/FlowerConductor.sol\":3523:3554  flowerCoinStorage.totalSupply() */\n      mload(0x40)\n      dup2\n      0xffffffff\n      and\n      0xe0\n      shl\n      dup2\n      mstore\n      0x04\n      add\n      0x20\n      mload(0x40)\n      dup1\n      dup4\n      sub\n      dup2\n      dup7\n      dup1\n      extcodesize\n      iszero\n      dup1\n      iszero\n      tag_310\n      jumpi\n      0x00\n      dup1\n      revert\n    tag_310:\n      pop\n      gas\n      staticcall\n      iszero\n      dup1\n      iszero\n      tag_312\n      jumpi\n      returndatasize\n      0x00\n      dup1\n      returndatacopy\n      revert(0x00, returndatasize)\n    tag_312:\n      pop\n      pop\n      pop\n      pop\n      mload(0x40)\n      returndatasize\n      not(0x1f)\n      0x1f\n      dup3\n      add\n      and\n      dup3\n      add\n      dup1\n      0x40\n      mstore\n      pop\n      dup2\n      add\n      swap1\n      tag_313\n      swap2\n      swap1\n      tag_133\n      jump\t// in\n    tag_313:\n        /* \"contracts/FlowerConductor.sol\":3516:3554  return flowerCoinStorage.totalSupply() */\n      swap1\n      pop\n        /* \"contracts/FlowerConductor.sol\":3441:3561  function FlowerCoinTotalSupply() external view returns (uint256) {... */\n      swap1\n      jump\t// out\n        /* \"contracts/FlowerConductor.sol\":9775:10007  function burnFlowerCoin(address addr, uint256 amount) public onlyOwner {... */\n    tag_89:\n        /* \"@openzeppelin/contracts/access/Ownable.sol\":1094:1107  _checkOwner() */\n      tag_315\n        /* \"@openzeppelin/contracts/access/Ownable.sol\":1094:1105  _checkOwner */\n      tag_123\n        /* \"@openzeppelin/contracts/access/Ownable.sol\":1094:1107  _checkOwner() */\n      jump\t// in\n    tag_315:\n        /* \"contracts/FlowerConductor.sol\":9856:9873  flowerCoinStorage */\n      0x02\n      0x00\n      swap1\n      sload\n      swap1\n      0x0100\n      exp\n      swap1\n      div\n      0xffffffffffffffffffffffffffffffffffffffff\n      and\n        /* \"contracts/FlowerConductor.sol\":9856:9878  flowerCoinStorage.burn */\n      0xffffffffffffffffffffffffffffffffffffffff\n      and\n      0x9dc29fac\n        /* \"contracts/FlowerConductor.sol\":9879:9883  addr */\n      dup4\n        /* \"contracts/FlowerConductor.sol\":9885:9891  amount */\n      dup4\n        /* \"contracts/FlowerConductor.sol\":9856:9892  flowerCoinStorage.burn(addr, amount) */\n      mload(0x40)\n      dup4\n      0xffffffff\n      and\n      0xe0\n      shl\n      dup2\n      mstore\n      0x04\n      add\n      tag_317\n      swap3\n      swap2\n      swap1\n      tag_135\n      jump\t// in\n    tag_317:\n      0x00\n      mload(0x40)\n      dup1\n      dup4\n      sub\n      dup2\n      0x00\n      dup8\n      dup1\n      extcodesize\n      iszero\n      dup1\n      iszero\n      tag_318\n      jumpi\n      0x00\n      dup1\n      revert\n    tag_318:\n      pop\n      gas\n      call\n      iszero\n      dup1\n      iszero\n      tag_320\n      jumpi\n      returndatasize\n      0x00\n      dup1\n      returndatacopy\n      revert(0x00, returndatasize)\n    tag_320:\n      pop\n      pop\n      pop\n      pop\n        /* \"contracts/FlowerConductor.sol\":9976:9991  block.timestamp */\n      timestamp\n        /* \"contracts/FlowerConductor.sol\":9970:9974  addr */\n      dup3\n        /* \"contracts/FlowerConductor.sol\":9955:10000  BurnFlowerCoin(addr, block.timestamp, amount) */\n      0xffffffffffffffffffffffffffffffffffffffff\n      and\n      0x1c435e120af6f9cbaa8588942eb2f441f8ba3ce076838b00394c313438029141\n        /* \"contracts/FlowerConductor.sol\":9993:9999  amount */\n      dup4\n        /* \"contracts/FlowerConductor.sol\":9955:10000  BurnFlowerCoin(addr, block.timestamp, amount) */\n      mload(0x40)\n      tag_321\n      swap2\n      swap1\n      tag_55\n      jump\t// in\n    tag_321:\n      mload(0x40)\n      dup1\n      swap2\n      sub\n      swap1\n      log3\n        /* \"contracts/FlowerConductor.sol\":9775:10007  function burnFlowerCoin(address addr, uint256 amount) public onlyOwner {... */\n      pop\n      pop\n      jump\t// out\n        /* \"contracts/FlowerConductor.sol\":373:415  FlowerCoinStorage public flowerCoinStorage */\n    tag_91:\n      0x02\n      0x00\n      swap1\n      sload\n      swap1\n      0x0100\n      exp\n      swap1\n      div\n      0xffffffffffffffffffffffffffffffffffffffff\n      and\n      dup2\n      jump\t// out\n        /* \"contracts/FlowerConductor.sol\":3567:3687  function FlowerCoinTotalBurned() external view returns (uint256) {... */\n    tag_95:\n        /* \"contracts/FlowerConductor.sol\":3623:3630  uint256 */\n      0x00\n        /* \"contracts/FlowerConductor.sol\":3649:3666  flowerCoinStorage */\n      0x02\n      0x00\n      swap1\n      sload\n      swap1\n      0x0100\n      exp\n      swap1\n      div\n      0xffffffffffffffffffffffffffffffffffffffff\n      and\n        /* \"contracts/FlowerConductor.sol\":3649:3678  flowerCoinStorage.totalBurned */\n      0xffffffffffffffffffffffffffffffffffffffff\n      and\n      0xd89135cd\n        /* \"contracts/FlowerConductor.sol\":3649:3680  flowerCoinStorage.totalBurned() */\n      mload(0x40)\n      dup2\n      0xffffffff\n      and\n      0xe0\n      shl\n      dup2\n      mstore\n      0x04\n      add\n      0x20\n      mload(0x40)\n      dup1\n      dup4\n      sub\n      dup2\n      dup7\n      dup1\n      extcodesize\n      iszero\n      dup1\n      iszero\n      tag_323\n      jumpi\n      0x00\n      dup1\n      revert\n    tag_323:\n      pop\n      gas\n      staticcall\n      iszero\n      dup1\n      iszero\n      tag_325\n      jumpi\n      returndatasize\n      0x00\n      dup1\n      returndatacopy\n      revert(0x00, returndatasize)\n    tag_325:\n      pop\n      pop\n      pop\n      pop\n      mload(0x40)\n      returndatasize\n      not(0x1f)\n      0x1f\n      dup3\n      add\n      and\n      dup3\n      add\n      dup1\n      0x40\n      mstore\n      pop\n      dup2\n      add\n      swap1\n      tag_326\n      swap2\n      swap1\n      tag_133\n      jump\t// in\n    tag_326:\n        /* \"contracts/FlowerConductor.sol\":3642:3680  return flowerCoinStorage.totalBurned() */\n      swap1\n      pop\n        /* \"contracts/FlowerConductor.sol\":3567:3687  function FlowerCoinTotalBurned() external view returns (uint256) {... */\n      swap1\n      jump\t// out\n        /* \"contracts/FlowerConductor.sol\":582:621  uint256 public flowersPerFlowerCoin = 1 */\n    tag_98:\n      sload(0x04)\n      dup2\n      jump\t// out\n        /* \"contracts/FlowerConductor.sol\":1757:1888  function FlowerTotalBalance(address addr) external view returns (uint256) {... */\n    tag_102:\n        /* \"contracts/FlowerConductor.sol\":1822:1829  uint256 */\n      0x00\n        /* \"contracts/FlowerConductor.sol\":1848:1861  flowerStorage */\n      0x01\n      0x00\n      swap1\n      sload\n      swap1\n      0x0100\n      exp\n      swap1\n      div\n      0xffffffffffffffffffffffffffffffffffffffff\n      and\n        /* \"contracts/FlowerConductor.sol\":1848:1875  flowerStorage.totalBalances */\n      0xffffffffffffffffffffffffffffffffffffffff\n      and\n      0xaee9c872\n        /* \"contracts/FlowerConductor.sol\":1876:1880  addr */\n      dup4\n        /* \"contracts/FlowerConductor.sol\":1848:1881  flowerStorage.totalBalances(addr) */\n      mload(0x40)\n      dup3\n      0xffffffff\n      and\n      0xe0\n      shl\n      dup2\n      mstore\n      0x04\n      add\n      tag_328\n      swap2\n      swap1\n      tag_76\n      jump\t// in\n    tag_328:\n      0x20\n      mload(0x40)\n      dup1\n      dup4\n      sub\n      dup2\n      dup7\n      dup1\n      extcodesize\n      iszero\n      dup1\n      iszero\n      tag_329\n      jumpi\n      0x00\n      dup1\n      revert\n    tag_329:\n      pop\n      gas\n      staticcall\n      iszero\n      dup1\n      iszero\n      tag_331\n      jumpi\n      returndatasize\n      0x00\n      dup1\n      returndatacopy\n      revert(0x00, returndatasize)\n    tag_331:\n      pop\n      pop\n      pop\n      pop\n      mload(0x40)\n      returndatasize\n      not(0x1f)\n      0x1f\n      dup3\n      add\n      and\n      dup3\n      add\n      dup1\n      0x40\n      mstore\n      pop\n      dup2\n      add\n      swap1\n      tag_332\n      swap2\n      swap1\n      tag_133\n      jump\t// in\n    tag_332:\n        /* \"contracts/FlowerConductor.sol\":1841:1881  return flowerStorage.totalBalances(addr) */\n      swap1\n      pop\n        /* \"contracts/FlowerConductor.sol\":1757:1888  function FlowerTotalBalance(address addr) external view returns (uint256) {... */\n      swap2\n      swap1\n      pop\n      jump\t// out\n        /* \"contracts/FlowerConductor.sol\":10063:10324  function mintFlowerCoinWithFlower(address to, uint256 amount) public {... */\n    tag_106:\n        /* \"contracts/FlowerConductor.sol\":10189:10242  burnFlower(msg.sender, amount * flowersPerFlowerCoin) */\n      tag_334\n        /* \"contracts/FlowerConductor.sol\":10200:10210  msg.sender */\n      caller\n        /* \"contracts/FlowerConductor.sol\":10221:10241  flowersPerFlowerCoin */\n      sload(0x04)\n        /* \"contracts/FlowerConductor.sol\":10212:10218  amount */\n      dup4\n        /* \"contracts/FlowerConductor.sol\":10212:10241  amount * flowersPerFlowerCoin */\n      tag_335\n      swap2\n      swap1\n      tag_336\n      jump\t// in\n    tag_335:\n        /* \"contracts/FlowerConductor.sol\":10189:10199  burnFlower */\n      tag_51\n        /* \"contracts/FlowerConductor.sol\":10189:10242  burnFlower(msg.sender, amount * flowersPerFlowerCoin) */\n      jump\t// in\n    tag_334:\n        /* \"contracts/FlowerConductor.sol\":10291:10317  mintFlowerCoin(to, amount) */\n      tag_337\n        /* \"contracts/FlowerConductor.sol\":10306:10308  to */\n      dup3\n        /* \"contracts/FlowerConductor.sol\":10310:10316  amount */\n      dup3\n        /* \"contracts/FlowerConductor.sol\":10291:10305  mintFlowerCoin */\n      tag_83\n        /* \"contracts/FlowerConductor.sol\":10291:10317  mintFlowerCoin(to, amount) */\n      jump\t// in\n    tag_337:\n        /* \"contracts/FlowerConductor.sol\":10063:10324  function mintFlowerCoinWithFlower(address to, uint256 amount) public {... */\n      pop\n      pop\n      jump\t// out\n        /* \"@openzeppelin/contracts/access/Ownable.sol\":2081:2279  function transferOwnership(address newOwner) public virtual onlyOwner {... */\n    tag_109:\n        /* \"@openzeppelin/contracts/access/Ownable.sol\":1094:1107  _checkOwner() */\n      tag_339\n        /* \"@openzeppelin/contracts/access/Ownable.sol\":1094:1105  _checkOwner */\n      tag_123\n        /* \"@openzeppelin/contracts/access/Ownable.sol\":1094:1107  _checkOwner() */\n      jump\t// in\n    tag_339:\n        /* \"@openzeppelin/contracts/access/Ownable.sol\":2189:2190  0 */\n      0x00\n        /* \"@openzeppelin/contracts/access/Ownable.sol\":2169:2191  newOwner != address(0) */\n      0xffffffffffffffffffffffffffffffffffffffff\n      and\n        /* \"@openzeppelin/contracts/access/Ownable.sol\":2169:2177  newOwner */\n      dup2\n        /* \"@openzeppelin/contracts/access/Ownable.sol\":2169:2191  newOwner != address(0) */\n      0xffffffffffffffffffffffffffffffffffffffff\n      and\n      eq\n      iszero\n        /* \"@openzeppelin/contracts/access/Ownable.sol\":2161:2234  require(newOwner != address(0), \"Ownable: new owner is the zero address\") */\n      tag_341\n      jumpi\n      mload(0x40)\n      0x08c379a000000000000000000000000000000000000000000000000000000000\n      dup2\n      mstore\n      0x04\n      add\n      tag_342\n      swap1\n      tag_343\n      jump\t// in\n    tag_342:\n      mload(0x40)\n      dup1\n      swap2\n      sub\n      swap1\n      revert\n    tag_341:\n        /* \"@openzeppelin/contracts/access/Ownable.sol\":2244:2272  _transferOwnership(newOwner) */\n      tag_344\n        /* \"@openzeppelin/contracts/access/Ownable.sol\":2263:2271  newOwner */\n      dup2\n        /* \"@openzeppelin/contracts/access/Ownable.sol\":2244:2262  _transferOwnership */\n      tag_288\n        /* \"@openzeppelin/contracts/access/Ownable.sol\":2244:2272  _transferOwnership(newOwner) */\n      jump\t// in\n    tag_344:\n        /* \"@openzeppelin/contracts/access/Ownable.sol\":2081:2279  function transferOwnership(address newOwner) public virtual onlyOwner {... */\n      pop\n      jump\t// out\n        /* \"contracts/FlowerConductor.sol\":10360:10598  function transferFlowerCoin(address to, uint256 amount) public {... */\n    tag_112:\n        /* \"contracts/FlowerConductor.sol\":10433:10450  flowerCoinStorage */\n      0x02\n      0x00\n      swap1\n      sload\n      swap1\n      0x0100\n      exp\n      swap1\n      div\n      0xffffffffffffffffffffffffffffffffffffffff\n      and\n        /* \"contracts/FlowerConductor.sol\":10433:10459  flowerCoinStorage.transfer */\n      0xffffffffffffffffffffffffffffffffffffffff\n      and\n      0xbeabacc8\n        /* \"contracts/FlowerConductor.sol\":10460:10470  msg.sender */\n      caller\n        /* \"contracts/FlowerConductor.sol\":10472:10474  to */\n      dup5\n        /* \"contracts/FlowerConductor.sol\":10476:10482  amount */\n      dup5\n        /* \"contracts/FlowerConductor.sol\":10433:10483  flowerCoinStorage.transfer(msg.sender, to, amount) */\n      mload(0x40)\n      dup5\n      0xffffffff\n      and\n      0xe0\n      shl\n      dup2\n      mstore\n      0x04\n      add\n      tag_346\n      swap4\n      swap3\n      swap2\n      swap1\n      tag_347\n      jump\t// in\n    tag_346:\n      0x00\n      mload(0x40)\n      dup1\n      dup4\n      sub\n      dup2\n      0x00\n      dup8\n      dup1\n      extcodesize\n      iszero\n      dup1\n      iszero\n      tag_348\n      jumpi\n      0x00\n      dup1\n      revert\n    tag_348:\n      pop\n      gas\n      call\n      iszero\n      dup1\n      iszero\n      tag_350\n      jumpi\n      returndatasize\n      0x00\n      dup1\n      returndatacopy\n      revert(0x00, returndatasize)\n    tag_350:\n      pop\n      pop\n      pop\n      pop\n        /* \"contracts/FlowerConductor.sol\":10580:10582  to */\n      dup2\n        /* \"contracts/FlowerConductor.sol\":10549:10591  TransferFlowerCoin(msg.sender, to, amount) */\n      0xffffffffffffffffffffffffffffffffffffffff\n      and\n        /* \"contracts/FlowerConductor.sol\":10568:10578  msg.sender */\n      caller\n        /* \"contracts/FlowerConductor.sol\":10549:10591  TransferFlowerCoin(msg.sender, to, amount) */\n      0xffffffffffffffffffffffffffffffffffffffff\n      and\n      0xcdf5fe2846acdbbac796cdd717a184adcb9c43f109696332629b668600ba0183\n        /* \"contracts/FlowerConductor.sol\":10584:10590  amount */\n      dup4\n        /* \"contracts/FlowerConductor.sol\":10549:10591  TransferFlowerCoin(msg.sender, to, amount) */\n      mload(0x40)\n      tag_351\n      swap2\n      swap1\n      tag_55\n      jump\t// in\n    tag_351:\n      mload(0x40)\n      dup1\n      swap2\n      sub\n      swap1\n      log3\n        /* \"contracts/FlowerConductor.sol\":10360:10598  function transferFlowerCoin(address to, uint256 amount) public {... */\n      pop\n      pop\n      jump\t// out\n        /* \"contracts/FlowerConductor.sol\":2366:3253  function getBalanceNodes(address _addr, uint256 _numNodes) public view returns (TBNode[] memory) {... */\n    tag_115:\n        /* \"contracts/FlowerConductor.sol\":2446:2461  TBNode[] memory */\n      0x60\n        /* \"contracts/FlowerConductor.sol\":2557:2566  uint head */\n      0x00\n        /* \"contracts/FlowerConductor.sol\":2569:2582  flowerStorage */\n      0x01\n      0x00\n      swap1\n      sload\n      swap1\n      0x0100\n      exp\n      swap1\n      div\n      0xffffffffffffffffffffffffffffffffffffffff\n      and\n        /* \"contracts/FlowerConductor.sol\":2569:2594  flowerStorage.firstTBNode */\n      0xffffffffffffffffffffffffffffffffffffffff\n      and\n      0x6e76c3cf\n        /* \"contracts/FlowerConductor.sol\":2595:2600  _addr */\n      dup6\n        /* \"contracts/FlowerConductor.sol\":2569:2601  flowerStorage.firstTBNode(_addr) */\n      mload(0x40)\n      dup3\n      0xffffffff\n      and\n      0xe0\n      shl\n      dup2\n      mstore\n      0x04\n      add\n      tag_353\n      swap2\n      swap1\n      tag_76\n      jump\t// in\n    tag_353:\n      0x20\n      mload(0x40)\n      dup1\n      dup4\n      sub\n      dup2\n      dup7\n      dup1\n      extcodesize\n      iszero\n      dup1\n      iszero\n      tag_354\n      jumpi\n      0x00\n      dup1\n      revert\n    tag_354:\n      pop\n      gas\n      staticcall\n      iszero\n      dup1\n      iszero\n      tag_356\n      jumpi\n      returndatasize\n      0x00\n      dup1\n      returndatacopy\n      revert(0x00, returndatasize)\n    tag_356:\n      pop\n      pop\n      pop\n      pop\n      mload(0x40)\n      returndatasize\n      not(0x1f)\n      0x1f\n      dup3\n      add\n      and\n      dup3\n      add\n      dup1\n      0x40\n      mstore\n      pop\n      dup2\n      add\n      swap1\n      tag_357\n      swap2\n      swap1\n      tag_133\n      jump\t// in\n    tag_357:\n        /* \"contracts/FlowerConductor.sol\":2557:2601  uint head = flowerStorage.firstTBNode(_addr) */\n      swap1\n      pop\n        /* \"contracts/FlowerConductor.sol\":2611:2622  uint256 len */\n      0x00\n        /* \"contracts/FlowerConductor.sol\":2666:2667  1 */\n      0x01\n        /* \"contracts/FlowerConductor.sol\":2659:2663  head */\n      dup3\n        /* \"contracts/FlowerConductor.sol\":2625:2638  flowerStorage */\n      0x01\n      0x00\n      swap1\n      sload\n      swap1\n      0x0100\n      exp\n      swap1\n      div\n      0xffffffffffffffffffffffffffffffffffffffff\n      and\n        /* \"contracts/FlowerConductor.sol\":2625:2649  flowerStorage.lastTBNode */\n      0xffffffffffffffffffffffffffffffffffffffff\n      and\n      0xbaafd2d8\n        /* \"contracts/FlowerConductor.sol\":2650:2655  _addr */\n      dup9\n        /* \"contracts/FlowerConductor.sol\":2625:2656  flowerStorage.lastTBNode(_addr) */\n      mload(0x40)\n      dup3\n      0xffffffff\n      and\n      0xe0\n      shl\n      dup2\n      mstore\n      0x04\n      add\n      tag_358\n      swap2\n      swap1\n      tag_76\n      jump\t// in\n    tag_358:\n      0x20\n      mload(0x40)\n      dup1\n      dup4\n      sub\n      dup2\n      dup7\n      dup1\n      extcodesize\n      iszero\n      dup1\n      iszero\n      tag_359\n      jumpi\n      0x00\n      dup1\n      revert\n    tag_359:\n      pop\n      gas\n      staticcall\n      iszero\n      dup1\n      iszero\n      tag_361\n      jumpi\n      returndatasize\n      0x00\n      dup1\n      returndatacopy\n      revert(0x00, returndatasize)\n    tag_361:\n      pop\n      pop\n      pop\n      pop\n      mload(0x40)\n      returndatasize\n      not(0x1f)\n      0x1f\n      dup3\n      add\n      and\n      dup3\n      add\n      dup1\n      0x40\n      mstore\n      pop\n      dup2\n      add\n      swap1\n      tag_362\n      swap2\n      swap1\n      tag_133\n      jump\t// in\n    tag_362:\n        /* \"contracts/FlowerConductor.sol\":2625:2663  flowerStorage.lastTBNode(_addr) - head */\n      tag_363\n      swap2\n      swap1\n      tag_208\n      jump\t// in\n    tag_363:\n        /* \"contracts/FlowerConductor.sol\":2625:2667  flowerStorage.lastTBNode(_addr) - head + 1 */\n      tag_364\n      swap2\n      swap1\n      tag_145\n      jump\t// in\n    tag_364:\n        /* \"contracts/FlowerConductor.sol\":2611:2667  uint256 len = flowerStorage.lastTBNode(_addr) - head + 1 */\n      swap1\n      pop\n        /* \"contracts/FlowerConductor.sol\":2797:2798  0 */\n      0x00\n        /* \"contracts/FlowerConductor.sol\":2784:2793  _numNodes */\n      dup5\n        /* \"contracts/FlowerConductor.sol\":2784:2798  _numNodes == 0 */\n      eq\n        /* \"contracts/FlowerConductor.sol\":2784:2817  _numNodes == 0 || _numNodes > len */\n      dup1\n      tag_365\n      jumpi\n      pop\n        /* \"contracts/FlowerConductor.sol\":2814:2817  len */\n      dup1\n        /* \"contracts/FlowerConductor.sol\":2802:2811  _numNodes */\n      dup5\n        /* \"contracts/FlowerConductor.sol\":2802:2817  _numNodes > len */\n      gt\n        /* \"contracts/FlowerConductor.sol\":2784:2817  _numNodes == 0 || _numNodes > len */\n    tag_365:\n        /* \"contracts/FlowerConductor.sol\":2780:2859  if (_numNodes == 0 || _numNodes > len) {... */\n      iszero\n      tag_366\n      jumpi\n        /* \"contracts/FlowerConductor.sol\":2845:2848  len */\n      dup1\n        /* \"contracts/FlowerConductor.sol\":2833:2848  _numNodes = len */\n      swap4\n      pop\n        /* \"contracts/FlowerConductor.sol\":2780:2859  if (_numNodes == 0 || _numNodes > len) {... */\n    tag_366:\n        /* \"contracts/FlowerConductor.sol\":2902:2923  TBNode[] memory nodes */\n      0x00\n        /* \"contracts/FlowerConductor.sol\":2939:2948  _numNodes */\n      dup5\n        /* \"contracts/FlowerConductor.sol\":2926:2949  new TBNode[](_numNodes) */\n      0xffffffffffffffff\n      dup2\n      gt\n      iszero\n      tag_367\n      jumpi\n      mstore(0x00, 0x4e487b7100000000000000000000000000000000000000000000000000000000)\n      mstore(0x04, 0x41)\n      revert(0x00, 0x24)\n    tag_367:\n      mload(0x40)\n      swap1\n      dup1\n      dup3\n      mstore\n      dup1\n      0x20\n      mul\n      0x20\n      add\n      dup3\n      add\n      0x40\n      mstore\n      dup1\n      iszero\n      tag_368\n      jumpi\n      dup2\n      0x20\n      add\n    tag_369:\n      tag_370\n      tag_371\n      jump\t// in\n    tag_370:\n      dup2\n      mstore\n      0x20\n      add\n      swap1\n      0x01\n      swap1\n      sub\n      swap1\n      dup2\n      tag_369\n      jumpi\n      swap1\n      pop\n    tag_368:\n      pop\n        /* \"contracts/FlowerConductor.sol\":2902:2949  TBNode[] memory nodes = new TBNode[](_numNodes) */\n      swap1\n      pop\n        /* \"contracts/FlowerConductor.sol\":2959:2972  uint256 index */\n      0x00\n        /* \"contracts/FlowerConductor.sol\":3017:3224  while (index < _numNodes)... */\n    tag_372:\n        /* \"contracts/FlowerConductor.sol\":3032:3041  _numNodes */\n      dup6\n        /* \"contracts/FlowerConductor.sol\":3024:3029  index */\n      dup2\n        /* \"contracts/FlowerConductor.sol\":3024:3041  index < _numNodes */\n      lt\n        /* \"contracts/FlowerConductor.sol\":3017:3224  while (index < _numNodes)... */\n      iszero\n      tag_373\n      jumpi\n        /* \"contracts/FlowerConductor.sol\":3080:3093  flowerStorage */\n      0x01\n      0x00\n      swap1\n      sload\n      swap1\n      0x0100\n      exp\n      swap1\n      div\n      0xffffffffffffffffffffffffffffffffffffffff\n      and\n        /* \"contracts/FlowerConductor.sol\":3080:3110  flowerStorage.getTBNodeByIndex */\n      0xffffffffffffffffffffffffffffffffffffffff\n      and\n      0xb1398144\n        /* \"contracts/FlowerConductor.sol\":3111:3116  _addr */\n      dup9\n        /* \"contracts/FlowerConductor.sol\":3118:3122  head */\n      dup7\n        /* \"contracts/FlowerConductor.sol\":3080:3123  flowerStorage.getTBNodeByIndex(_addr, head) */\n      mload(0x40)\n      dup4\n      0xffffffff\n      and\n      0xe0\n      shl\n      dup2\n      mstore\n      0x04\n      add\n      tag_374\n      swap3\n      swap2\n      swap1\n      tag_135\n      jump\t// in\n    tag_374:\n      0x60\n      mload(0x40)\n      dup1\n      dup4\n      sub\n      dup2\n      dup7\n      dup1\n      extcodesize\n      iszero\n      dup1\n      iszero\n      tag_375\n      jumpi\n      0x00\n      dup1\n      revert\n    tag_375:\n      pop\n      gas\n      staticcall\n      iszero\n      dup1\n      iszero\n      tag_377\n      jumpi\n      returndatasize\n      0x00\n      dup1\n      returndatacopy\n      revert(0x00, returndatasize)\n    tag_377:\n      pop\n      pop\n      pop\n      pop\n      mload(0x40)\n      returndatasize\n      not(0x1f)\n      0x1f\n      dup3\n      add\n      and\n      dup3\n      add\n      dup1\n      0x40\n      mstore\n      pop\n      dup2\n      add\n      swap1\n      tag_378\n      swap2\n      swap1\n      tag_140\n      jump\t// in\n    tag_378:\n        /* \"contracts/FlowerConductor.sol\":3065:3070  nodes */\n      dup3\n        /* \"contracts/FlowerConductor.sol\":3071:3076  index */\n      dup3\n        /* \"contracts/FlowerConductor.sol\":3065:3077  nodes[index] */\n      dup2\n      mload\n      dup2\n      lt\n      tag_379\n      jumpi\n      mstore(0x00, 0x4e487b7100000000000000000000000000000000000000000000000000000000)\n      mstore(0x04, 0x32)\n      revert(0x00, 0x24)\n    tag_379:\n      0x20\n      mul\n      0x20\n      add\n      add\n        /* \"contracts/FlowerConductor.sol\":3065:3123  nodes[index] = flowerStorage.getTBNodeByIndex(_addr, head) */\n      dup2\n      swap1\n      mstore\n      pop\n        /* \"contracts/FlowerConductor.sol\":3186:3192  head++ */\n      dup4\n      dup1\n      tag_380\n      swap1\n      tag_381\n      jump\t// in\n    tag_380:\n      swap5\n      pop\n      pop\n        /* \"contracts/FlowerConductor.sol\":3206:3213  index++ */\n      dup1\n      dup1\n      tag_382\n      swap1\n      tag_381\n      jump\t// in\n    tag_382:\n      swap2\n      pop\n      pop\n        /* \"contracts/FlowerConductor.sol\":3017:3224  while (index < _numNodes)... */\n      jump(tag_372)\n    tag_373:\n        /* \"contracts/FlowerConductor.sol\":3241:3246  nodes */\n      dup2\n        /* \"contracts/FlowerConductor.sol\":3234:3246  return nodes */\n      swap5\n      pop\n      pop\n      pop\n      pop\n      pop\n        /* \"contracts/FlowerConductor.sol\":2366:3253  function getBalanceNodes(address _addr, uint256 _numNodes) public view returns (TBNode[] memory) {... */\n      swap3\n      swap2\n      pop\n      pop\n      jump\t// out\n        /* \"@openzeppelin/contracts/access/Ownable.sol\":1359:1489  function _checkOwner() internal view virtual {... */\n    tag_123:\n        /* \"@openzeppelin/contracts/access/Ownable.sol\":1433:1445  _msgSender() */\n      tag_384\n        /* \"@openzeppelin/contracts/access/Ownable.sol\":1433:1443  _msgSender */\n      tag_385\n        /* \"@openzeppelin/contracts/access/Ownable.sol\":1433:1445  _msgSender() */\n      jump\t// in\n    tag_384:\n        /* \"@openzeppelin/contracts/access/Ownable.sol\":1422:1445  owner() == _msgSender() */\n      0xffffffffffffffffffffffffffffffffffffffff\n      and\n        /* \"@openzeppelin/contracts/access/Ownable.sol\":1422:1429  owner() */\n      tag_386\n        /* \"@openzeppelin/contracts/access/Ownable.sol\":1422:1427  owner */\n      tag_74\n        /* \"@openzeppelin/contracts/access/Ownable.sol\":1422:1429  owner() */\n      jump\t// in\n    tag_386:\n        /* \"@openzeppelin/contracts/access/Ownable.sol\":1422:1445  owner() == _msgSender() */\n      0xffffffffffffffffffffffffffffffffffffffff\n      and\n      eq\n        /* \"@openzeppelin/contracts/access/Ownable.sol\":1414:1482  require(owner() == _msgSender(), \"Ownable: caller is not the owner\") */\n      tag_387\n      jumpi\n      mload(0x40)\n      0x08c379a000000000000000000000000000000000000000000000000000000000\n      dup2\n      mstore\n      0x04\n      add\n      tag_388\n      swap1\n      tag_389\n      jump\t// in\n    tag_388:\n      mload(0x40)\n      dup1\n      swap2\n      sub\n      swap1\n      revert\n    tag_387:\n        /* \"@openzeppelin/contracts/access/Ownable.sol\":1359:1489  function _checkOwner() internal view virtual {... */\n      jump\t// out\n        /* \"@openzeppelin/contracts/access/Ownable.sol\":2433:2620  function _transferOwnership(address newOwner) internal virtual {... */\n    tag_288:\n        /* \"@openzeppelin/contracts/access/Ownable.sol\":2506:2522  address oldOwner */\n      0x00\n        /* \"@openzeppelin/contracts/access/Ownable.sol\":2525:2531  _owner */\n      dup1\n      0x00\n      swap1\n      sload\n      swap1\n      0x0100\n      exp\n      swap1\n      div\n      0xffffffffffffffffffffffffffffffffffffffff\n      and\n        /* \"@openzeppelin/contracts/access/Ownable.sol\":2506:2531  address oldOwner = _owner */\n      swap1\n      pop\n        /* \"@openzeppelin/contracts/access/Ownable.sol\":2550:2558  newOwner */\n      dup2\n        /* \"@openzeppelin/contracts/access/Ownable.sol\":2541:2547  _owner */\n      0x00\n      dup1\n        /* \"@openzeppelin/contracts/access/Ownable.sol\":2541:2558  _owner = newOwner */\n      0x0100\n      exp\n      dup2\n      sload\n      dup2\n      0xffffffffffffffffffffffffffffffffffffffff\n      mul\n      not\n      and\n      swap1\n      dup4\n      0xffffffffffffffffffffffffffffffffffffffff\n      and\n      mul\n      or\n      swap1\n      sstore\n      pop\n        /* \"@openzeppelin/contracts/access/Ownable.sol\":2604:2612  newOwner */\n      dup2\n        /* \"@openzeppelin/contracts/access/Ownable.sol\":2573:2613  OwnershipTransferred(oldOwner, newOwner) */\n      0xffffffffffffffffffffffffffffffffffffffff\n      and\n        /* \"@openzeppelin/contracts/access/Ownable.sol\":2594:2602  oldOwner */\n      dup2\n        /* \"@openzeppelin/contracts/access/Ownable.sol\":2573:2613  OwnershipTransferred(oldOwner, newOwner) */\n      0xffffffffffffffffffffffffffffffffffffffff\n      and\n      0x8be0079c531659141344cd1fd0a4f28419497f9722a3daafe3b4186f6b6457e0\n      mload(0x40)\n      mload(0x40)\n      dup1\n      swap2\n      sub\n      swap1\n      log3\n        /* \"@openzeppelin/contracts/access/Ownable.sol\":2433:2620  function _transferOwnership(address newOwner) internal virtual {... */\n      pop\n      pop\n      jump\t// out\n        /* \"@openzeppelin/contracts/utils/Context.sol\":640:736  function _msgSender() internal view virtual returns (address) {... */\n    tag_385:\n        /* \"@openzeppelin/contracts/utils/Context.sol\":693:700  address */\n      0x00\n        /* \"@openzeppelin/contracts/utils/Context.sol\":719:729  msg.sender */\n      caller\n        /* \"@openzeppelin/contracts/utils/Context.sol\":712:729  return msg.sender */\n      swap1\n      pop\n        /* \"@openzeppelin/contracts/utils/Context.sol\":640:736  function _msgSender() internal view virtual returns (address) {... */\n      swap1\n      jump\t// out\n    tag_371:\n      mload(0x40)\n      dup1\n      0x60\n      add\n      0x40\n      mstore\n      dup1\n      0x00\n      dup2\n      mstore\n      0x20\n      add\n      0x00\n      dup2\n      mstore\n      0x20\n      add\n      0x00\n      dup2\n      mstore\n      pop\n      swap1\n      jump\t// out\n        /* \"#utility.yul\":7:146   */\n    tag_393:\n        /* \"#utility.yul\":53:58   */\n      0x00\n        /* \"#utility.yul\":91:97   */\n      dup2\n        /* \"#utility.yul\":78:98   */\n      calldataload\n        /* \"#utility.yul\":69:98   */\n      swap1\n      pop\n        /* \"#utility.yul\":107:140   */\n      tag_395\n        /* \"#utility.yul\":134:139   */\n      dup2\n        /* \"#utility.yul\":107:140   */\n      tag_396\n      jump\t// in\n    tag_395:\n        /* \"#utility.yul\":59:146   */\n      swap3\n      swap2\n      pop\n      pop\n      jump\t// out\n        /* \"#utility.yul\":173:892   */\n    tag_397:\n        /* \"#utility.yul\":257:262   */\n      0x00\n        /* \"#utility.yul\":301:305   */\n      0x60\n        /* \"#utility.yul\":289:298   */\n      dup3\n        /* \"#utility.yul\":284:287   */\n      dup5\n        /* \"#utility.yul\":280:299   */\n      sub\n        /* \"#utility.yul\":276:306   */\n      slt\n        /* \"#utility.yul\":273:275   */\n      iszero\n      tag_399\n      jumpi\n        /* \"#utility.yul\":319:320   */\n      0x00\n        /* \"#utility.yul\":316:317   */\n      dup1\n        /* \"#utility.yul\":309:321   */\n      revert\n        /* \"#utility.yul\":273:275   */\n    tag_399:\n        /* \"#utility.yul\":341:362   */\n      tag_400\n        /* \"#utility.yul\":357:361   */\n      0x60\n        /* \"#utility.yul\":341:362   */\n      tag_401\n      jump\t// in\n    tag_400:\n        /* \"#utility.yul\":332:362   */\n      swap1\n      pop\n        /* \"#utility.yul\":426:427   */\n      0x00\n        /* \"#utility.yul\":466:526   */\n      tag_402\n        /* \"#utility.yul\":522:525   */\n      dup5\n        /* \"#utility.yul\":513:519   */\n      dup3\n        /* \"#utility.yul\":502:511   */\n      dup6\n        /* \"#utility.yul\":498:520   */\n      add\n        /* \"#utility.yul\":466:526   */\n      tag_403\n      jump\t// in\n    tag_402:\n        /* \"#utility.yul\":459:463   */\n      0x00\n        /* \"#utility.yul\":452:457   */\n      dup4\n        /* \"#utility.yul\":448:464   */\n      add\n        /* \"#utility.yul\":441:527   */\n      mstore\n        /* \"#utility.yul\":372:538   */\n      pop\n        /* \"#utility.yul\":600:602   */\n      0x20\n        /* \"#utility.yul\":641:701   */\n      tag_404\n        /* \"#utility.yul\":697:700   */\n      dup5\n        /* \"#utility.yul\":688:694   */\n      dup3\n        /* \"#utility.yul\":677:686   */\n      dup6\n        /* \"#utility.yul\":673:695   */\n      add\n        /* \"#utility.yul\":641:701   */\n      tag_403\n      jump\t// in\n    tag_404:\n        /* \"#utility.yul\":634:638   */\n      0x20\n        /* \"#utility.yul\":627:632   */\n      dup4\n        /* \"#utility.yul\":623:639   */\n      add\n        /* \"#utility.yul\":616:702   */\n      mstore\n        /* \"#utility.yul\":548:713   */\n      pop\n        /* \"#utility.yul\":772:774   */\n      0x40\n        /* \"#utility.yul\":813:873   */\n      tag_405\n        /* \"#utility.yul\":869:872   */\n      dup5\n        /* \"#utility.yul\":860:866   */\n      dup3\n        /* \"#utility.yul\":849:858   */\n      dup6\n        /* \"#utility.yul\":845:867   */\n      add\n        /* \"#utility.yul\":813:873   */\n      tag_403\n      jump\t// in\n    tag_405:\n        /* \"#utility.yul\":806:810   */\n      0x40\n        /* \"#utility.yul\":799:804   */\n      dup4\n        /* \"#utility.yul\":795:811   */\n      add\n        /* \"#utility.yul\":788:874   */\n      mstore\n        /* \"#utility.yul\":723:885   */\n      pop\n        /* \"#utility.yul\":263:892   */\n      swap3\n      swap2\n      pop\n      pop\n      jump\t// out\n        /* \"#utility.yul\":898:1037   */\n    tag_406:\n        /* \"#utility.yul\":944:949   */\n      0x00\n        /* \"#utility.yul\":982:988   */\n      dup2\n        /* \"#utility.yul\":969:989   */\n      calldataload\n        /* \"#utility.yul\":960:989   */\n      swap1\n      pop\n        /* \"#utility.yul\":998:1031   */\n      tag_408\n        /* \"#utility.yul\":1025:1030   */\n      dup2\n        /* \"#utility.yul\":998:1031   */\n      tag_409\n      jump\t// in\n    tag_408:\n        /* \"#utility.yul\":950:1037   */\n      swap3\n      swap2\n      pop\n      pop\n      jump\t// out\n        /* \"#utility.yul\":1043:1186   */\n    tag_403:\n        /* \"#utility.yul\":1100:1105   */\n      0x00\n        /* \"#utility.yul\":1131:1137   */\n      dup2\n        /* \"#utility.yul\":1125:1138   */\n      mload\n        /* \"#utility.yul\":1116:1138   */\n      swap1\n      pop\n        /* \"#utility.yul\":1147:1180   */\n      tag_411\n        /* \"#utility.yul\":1174:1179   */\n      dup2\n        /* \"#utility.yul\":1147:1180   */\n      tag_409\n      jump\t// in\n    tag_411:\n        /* \"#utility.yul\":1106:1186   */\n      swap3\n      swap2\n      pop\n      pop\n      jump\t// out\n        /* \"#utility.yul\":1192:1454   */\n    tag_46:\n        /* \"#utility.yul\":1251:1257   */\n      0x00\n        /* \"#utility.yul\":1300:1302   */\n      0x20\n        /* \"#utility.yul\":1288:1297   */\n      dup3\n        /* \"#utility.yul\":1279:1286   */\n      dup5\n        /* \"#utility.yul\":1275:1298   */\n      sub\n        /* \"#utility.yul\":1271:1303   */\n      slt\n        /* \"#utility.yul\":1268:1270   */\n      iszero\n      tag_413\n      jumpi\n        /* \"#utility.yul\":1316:1317   */\n      0x00\n        /* \"#utility.yul\":1313:1314   */\n      dup1\n        /* \"#utility.yul\":1306:1318   */\n      revert\n        /* \"#utility.yul\":1268:1270   */\n    tag_413:\n        /* \"#utility.yul\":1359:1360   */\n      0x00\n        /* \"#utility.yul\":1384:1437   */\n      tag_414\n        /* \"#utility.yul\":1429:1436   */\n      dup5\n        /* \"#utility.yul\":1420:1426   */\n      dup3\n        /* \"#utility.yul\":1409:1418   */\n      dup6\n        /* \"#utility.yul\":1405:1427   */\n      add\n        /* \"#utility.yul\":1384:1437   */\n      tag_393\n      jump\t// in\n    tag_414:\n        /* \"#utility.yul\":1374:1437   */\n      swap2\n      pop\n        /* \"#utility.yul\":1330:1447   */\n      pop\n        /* \"#utility.yul\":1258:1454   */\n      swap3\n      swap2\n      pop\n      pop\n      jump\t// out\n        /* \"#utility.yul\":1460:1867   */\n    tag_50:\n        /* \"#utility.yul\":1528:1534   */\n      0x00\n        /* \"#utility.yul\":1536:1542   */\n      dup1\n        /* \"#utility.yul\":1585:1587   */\n      0x40\n        /* \"#utility.yul\":1573:1582   */\n      dup4\n        /* \"#utility.yul\":1564:1571   */\n      dup6\n        /* \"#utility.yul\":1560:1583   */\n      sub\n        /* \"#utility.yul\":1556:1588   */\n      slt\n        /* \"#utility.yul\":1553:1555   */\n      iszero\n      tag_416\n      jumpi\n        /* \"#utility.yul\":1601:1602   */\n      0x00\n        /* \"#utility.yul\":1598:1599   */\n      dup1\n        /* \"#utility.yul\":1591:1603   */\n      revert\n        /* \"#utility.yul\":1553:1555   */\n    tag_416:\n        /* \"#utility.yul\":1644:1645   */\n      0x00\n        /* \"#utility.yul\":1669:1722   */\n      tag_417\n        /* \"#utility.yul\":1714:1721   */\n      dup6\n        /* \"#utility.yul\":1705:1711   */\n      dup3\n        /* \"#utility.yul\":1694:1703   */\n      dup7\n        /* \"#utility.yul\":1690:1712   */\n      add\n        /* \"#utility.yul\":1669:1722   */\n      tag_393\n      jump\t// in\n    tag_417:\n        /* \"#utility.yul\":1659:1722   */\n      swap3\n      pop\n        /* \"#utility.yul\":1615:1732   */\n      pop\n        /* \"#utility.yul\":1771:1773   */\n      0x20\n        /* \"#utility.yul\":1797:1850   */\n      tag_418\n        /* \"#utility.yul\":1842:1849   */\n      dup6\n        /* \"#utility.yul\":1833:1839   */\n      dup3\n        /* \"#utility.yul\":1822:1831   */\n      dup7\n        /* \"#utility.yul\":1818:1840   */\n      add\n        /* \"#utility.yul\":1797:1850   */\n      tag_406\n      jump\t// in\n    tag_418:\n        /* \"#utility.yul\":1787:1850   */\n      swap2\n      pop\n        /* \"#utility.yul\":1742:1860   */\n      pop\n        /* \"#utility.yul\":1543:1867   */\n      swap3\n      pop\n      swap3\n      swap1\n      pop\n      jump\t// out\n        /* \"#utility.yul\":1873:2425   */\n    tag_34:\n        /* \"#utility.yul\":1950:1956   */\n      0x00\n        /* \"#utility.yul\":1958:1964   */\n      dup1\n        /* \"#utility.yul\":1966:1972   */\n      0x00\n        /* \"#utility.yul\":2015:2017   */\n      0x60\n        /* \"#utility.yul\":2003:2012   */\n      dup5\n        /* \"#utility.yul\":1994:2001   */\n      dup7\n        /* \"#utility.yul\":1990:2013   */\n      sub\n        /* \"#utility.yul\":1986:2018   */\n      slt\n        /* \"#utility.yul\":1983:1985   */\n      iszero\n      tag_420\n      jumpi\n        /* \"#utility.yul\":2031:2032   */\n      0x00\n        /* \"#utility.yul\":2028:2029   */\n      dup1\n        /* \"#utility.yul\":2021:2033   */\n      revert\n        /* \"#utility.yul\":1983:1985   */\n    tag_420:\n        /* \"#utility.yul\":2074:2075   */\n      0x00\n        /* \"#utility.yul\":2099:2152   */\n      tag_421\n        /* \"#utility.yul\":2144:2151   */\n      dup7\n        /* \"#utility.yul\":2135:2141   */\n      dup3\n        /* \"#utility.yul\":2124:2133   */\n      dup8\n        /* \"#utility.yul\":2120:2142   */\n      add\n        /* \"#utility.yul\":2099:2152   */\n      tag_393\n      jump\t// in\n    tag_421:\n        /* \"#utility.yul\":2089:2152   */\n      swap4\n      pop\n        /* \"#utility.yul\":2045:2162   */\n      pop\n        /* \"#utility.yul\":2201:2203   */\n      0x20\n        /* \"#utility.yul\":2227:2280   */\n      tag_422\n        /* \"#utility.yul\":2272:2279   */\n      dup7\n        /* \"#utility.yul\":2263:2269   */\n      dup3\n        /* \"#utility.yul\":2252:2261   */\n      dup8\n        /* \"#utility.yul\":2248:2270   */\n      add\n        /* \"#utility.yul\":2227:2280   */\n      tag_406\n      jump\t// in\n    tag_422:\n        /* \"#utility.yul\":2217:2280   */\n      swap3\n      pop\n        /* \"#utility.yul\":2172:2290   */\n      pop\n        /* \"#utility.yul\":2329:2331   */\n      0x40\n        /* \"#utility.yul\":2355:2408   */\n      tag_423\n        /* \"#utility.yul\":2400:2407   */\n      dup7\n        /* \"#utility.yul\":2391:2397   */\n      dup3\n        /* \"#utility.yul\":2380:2389   */\n      dup8\n        /* \"#utility.yul\":2376:2398   */\n      add\n        /* \"#utility.yul\":2355:2408   */\n      tag_406\n      jump\t// in\n    tag_423:\n        /* \"#utility.yul\":2345:2408   */\n      swap2\n      pop\n        /* \"#utility.yul\":2300:2418   */\n      pop\n        /* \"#utility.yul\":1973:2425   */\n      swap3\n      pop\n      swap3\n      pop\n      swap3\n      jump\t// out\n        /* \"#utility.yul\":2431:2763   */\n    tag_140:\n        /* \"#utility.yul\":2525:2531   */\n      0x00\n        /* \"#utility.yul\":2574:2576   */\n      0x60\n        /* \"#utility.yul\":2562:2571   */\n      dup3\n        /* \"#utility.yul\":2553:2560   */\n      dup5\n        /* \"#utility.yul\":2549:2572   */\n      sub\n        /* \"#utility.yul\":2545:2577   */\n      slt\n        /* \"#utility.yul\":2542:2544   */\n      iszero\n      tag_425\n      jumpi\n        /* \"#utility.yul\":2590:2591   */\n      0x00\n        /* \"#utility.yul\":2587:2588   */\n      dup1\n        /* \"#utility.yul\":2580:2592   */\n      revert\n        /* \"#utility.yul\":2542:2544   */\n    tag_425:\n        /* \"#utility.yul\":2633:2634   */\n      0x00\n        /* \"#utility.yul\":2658:2746   */\n      tag_426\n        /* \"#utility.yul\":2738:2745   */\n      dup5\n        /* \"#utility.yul\":2729:2735   */\n      dup3\n        /* \"#utility.yul\":2718:2727   */\n      dup6\n        /* \"#utility.yul\":2714:2736   */\n      add\n        /* \"#utility.yul\":2658:2746   */\n      tag_397\n      jump\t// in\n    tag_426:\n        /* \"#utility.yul\":2648:2746   */\n      swap2\n      pop\n        /* \"#utility.yul\":2604:2756   */\n      pop\n        /* \"#utility.yul\":2532:2763   */\n      swap3\n      swap2\n      pop\n      pop\n      jump\t// out\n        /* \"#utility.yul\":2769:3031   */\n    tag_38:\n        /* \"#utility.yul\":2828:2834   */\n      0x00\n        /* \"#utility.yul\":2877:2879   */\n      0x20\n        /* \"#utility.yul\":2865:2874   */\n      dup3\n        /* \"#utility.yul\":2856:2863   */\n      dup5\n        /* \"#utility.yul\":2852:2875   */\n      sub\n        /* \"#utility.yul\":2848:2880   */\n      slt\n        /* \"#utility.yul\":2845:2847   */\n      iszero\n      tag_428\n      jumpi\n        /* \"#utility.yul\":2893:2894   */\n      0x00\n        /* \"#utility.yul\":2890:2891   */\n      dup1\n        /* \"#utility.yul\":2883:2895   */\n      revert\n        /* \"#utility.yul\":2845:2847   */\n    tag_428:\n        /* \"#utility.yul\":2936:2937   */\n      0x00\n        /* \"#utility.yul\":2961:3014   */\n      tag_429\n        /* \"#utility.yul\":3006:3013   */\n      dup5\n        /* \"#utility.yul\":2997:3003   */\n      dup3\n        /* \"#utility.yul\":2986:2995   */\n      dup6\n        /* \"#utility.yul\":2982:3004   */\n      add\n        /* \"#utility.yul\":2961:3014   */\n      tag_406\n      jump\t// in\n    tag_429:\n        /* \"#utility.yul\":2951:3014   */\n      swap2\n      pop\n        /* \"#utility.yul\":2907:3024   */\n      pop\n        /* \"#utility.yul\":2835:3031   */\n      swap3\n      swap2\n      pop\n      pop\n      jump\t// out\n        /* \"#utility.yul\":3037:3321   */\n    tag_133:\n        /* \"#utility.yul\":3107:3113   */\n      0x00\n        /* \"#utility.yul\":3156:3158   */\n      0x20\n        /* \"#utility.yul\":3144:3153   */\n      dup3\n        /* \"#utility.yul\":3135:3142   */\n      dup5\n        /* \"#utility.yul\":3131:3154   */\n      sub\n        /* \"#utility.yul\":3127:3159   */\n      slt\n        /* \"#utility.yul\":3124:3126   */\n      iszero\n      tag_431\n      jumpi\n        /* \"#utility.yul\":3172:3173   */\n      0x00\n        /* \"#utility.yul\":3169:3170   */\n      dup1\n        /* \"#utility.yul\":3162:3174   */\n      revert\n        /* \"#utility.yul\":3124:3126   */\n    tag_431:\n        /* \"#utility.yul\":3215:3216   */\n      0x00\n        /* \"#utility.yul\":3240:3304   */\n      tag_432\n        /* \"#utility.yul\":3296:3303   */\n      dup5\n        /* \"#utility.yul\":3287:3293   */\n      dup3\n        /* \"#utility.yul\":3276:3285   */\n      dup6\n        /* \"#utility.yul\":3272:3294   */\n      add\n        /* \"#utility.yul\":3240:3304   */\n      tag_403\n      jump\t// in\n    tag_432:\n        /* \"#utility.yul\":3230:3304   */\n      swap2\n      pop\n        /* \"#utility.yul\":3186:3314   */\n      pop\n        /* \"#utility.yul\":3114:3321   */\n      swap3\n      swap2\n      pop\n      pop\n      jump\t// out\n        /* \"#utility.yul\":3327:3602   */\n    tag_433:\n        /* \"#utility.yul\":3444:3454   */\n      0x00\n        /* \"#utility.yul\":3465:3559   */\n      tag_435\n        /* \"#utility.yul\":3555:3558   */\n      dup4\n        /* \"#utility.yul\":3547:3553   */\n      dup4\n        /* \"#utility.yul\":3465:3559   */\n      tag_436\n      jump\t// in\n    tag_435:\n        /* \"#utility.yul\":3591:3595   */\n      0x60\n        /* \"#utility.yul\":3586:3589   */\n      dup4\n        /* \"#utility.yul\":3582:3596   */\n      add\n        /* \"#utility.yul\":3568:3596   */\n      swap1\n      pop\n        /* \"#utility.yul\":3455:3602   */\n      swap3\n      swap2\n      pop\n      pop\n      jump\t// out\n        /* \"#utility.yul\":3608:3726   */\n    tag_437:\n        /* \"#utility.yul\":3695:3719   */\n      tag_439\n        /* \"#utility.yul\":3713:3718   */\n      dup2\n        /* \"#utility.yul\":3695:3719   */\n      tag_440\n      jump\t// in\n    tag_439:\n        /* \"#utility.yul\":3690:3693   */\n      dup3\n        /* \"#utility.yul\":3683:3720   */\n      mstore\n        /* \"#utility.yul\":3673:3726   */\n      pop\n      pop\n      jump\t// out\n        /* \"#utility.yul\":3774:4698   */\n    tag_441:\n        /* \"#utility.yul\":3941:3944   */\n      0x00\n        /* \"#utility.yul\":3970:4048   */\n      tag_443\n        /* \"#utility.yul\":4042:4047   */\n      dup3\n        /* \"#utility.yul\":3970:4048   */\n      tag_444\n      jump\t// in\n    tag_443:\n        /* \"#utility.yul\":4064:4174   */\n      tag_445\n        /* \"#utility.yul\":4167:4173   */\n      dup2\n        /* \"#utility.yul\":4162:4165   */\n      dup6\n        /* \"#utility.yul\":4064:4174   */\n      tag_446\n      jump\t// in\n    tag_445:\n        /* \"#utility.yul\":4057:4174   */\n      swap4\n      pop\n        /* \"#utility.yul\":4198:4278   */\n      tag_447\n        /* \"#utility.yul\":4272:4277   */\n      dup4\n        /* \"#utility.yul\":4198:4278   */\n      tag_448\n      jump\t// in\n    tag_447:\n        /* \"#utility.yul\":4301:4308   */\n      dup1\n        /* \"#utility.yul\":4332:4333   */\n      0x00\n        /* \"#utility.yul\":4317:4673   */\n    tag_449:\n        /* \"#utility.yul\":4342:4348   */\n      dup4\n        /* \"#utility.yul\":4339:4340   */\n      dup2\n        /* \"#utility.yul\":4336:4349   */\n      lt\n        /* \"#utility.yul\":4317:4673   */\n      iszero\n      tag_451\n      jumpi\n        /* \"#utility.yul\":4418:4424   */\n      dup2\n        /* \"#utility.yul\":4412:4425   */\n      mload\n        /* \"#utility.yul\":4445:4556   */\n      tag_452\n        /* \"#utility.yul\":4552:4555   */\n      dup9\n        /* \"#utility.yul\":4537:4550   */\n      dup3\n        /* \"#utility.yul\":4445:4556   */\n      tag_433\n      jump\t// in\n    tag_452:\n        /* \"#utility.yul\":4438:4556   */\n      swap8\n      pop\n        /* \"#utility.yul\":4579:4663   */\n      tag_453\n        /* \"#utility.yul\":4656:4662   */\n      dup4\n        /* \"#utility.yul\":4579:4663   */\n      tag_454\n      jump\t// in\n    tag_453:\n        /* \"#utility.yul\":4569:4663   */\n      swap3\n      pop\n        /* \"#utility.yul\":4377:4673   */\n      pop\n        /* \"#utility.yul\":4364:4365   */\n      0x01\n        /* \"#utility.yul\":4361:4362   */\n      dup2\n        /* \"#utility.yul\":4357:4366   */\n      add\n        /* \"#utility.yul\":4352:4366   */\n      swap1\n      pop\n        /* \"#utility.yul\":4317:4673   */\n      jump(tag_449)\n    tag_451:\n        /* \"#utility.yul\":4321:4335   */\n      pop\n        /* \"#utility.yul\":4689:4692   */\n      dup6\n        /* \"#utility.yul\":4682:4692   */\n      swap4\n      pop\n        /* \"#utility.yul\":3946:4698   */\n      pop\n      pop\n      pop\n      swap3\n      swap2\n      pop\n      pop\n      jump\t// out\n        /* \"#utility.yul\":4704:4885   */\n    tag_455:\n        /* \"#utility.yul\":4816:4878   */\n      tag_457\n        /* \"#utility.yul\":4872:4877   */\n      dup2\n        /* \"#utility.yul\":4816:4878   */\n      tag_458\n      jump\t// in\n    tag_457:\n        /* \"#utility.yul\":4811:4814   */\n      dup3\n        /* \"#utility.yul\":4804:4879   */\n      mstore\n        /* \"#utility.yul\":4794:4885   */\n      pop\n      pop\n      jump\t// out\n        /* \"#utility.yul\":4891:5066   */\n    tag_459:\n        /* \"#utility.yul\":5000:5059   */\n      tag_461\n        /* \"#utility.yul\":5053:5058   */\n      dup2\n        /* \"#utility.yul\":5000:5059   */\n      tag_462\n      jump\t// in\n    tag_461:\n        /* \"#utility.yul\":4995:4998   */\n      dup3\n        /* \"#utility.yul\":4988:5060   */\n      mstore\n        /* \"#utility.yul\":4978:5066   */\n      pop\n      pop\n      jump\t// out\n        /* \"#utility.yul\":5072:5438   */\n    tag_463:\n        /* \"#utility.yul\":5214:5217   */\n      0x00\n        /* \"#utility.yul\":5235:5302   */\n      tag_465\n        /* \"#utility.yul\":5299:5301   */\n      0x26\n        /* \"#utility.yul\":5294:5297   */\n      dup4\n        /* \"#utility.yul\":5235:5302   */\n      tag_466\n      jump\t// in\n    tag_465:\n        /* \"#utility.yul\":5228:5302   */\n      swap2\n      pop\n        /* \"#utility.yul\":5311:5404   */\n      tag_467\n        /* \"#utility.yul\":5400:5403   */\n      dup3\n        /* \"#utility.yul\":5311:5404   */\n      tag_468\n      jump\t// in\n    tag_467:\n        /* \"#utility.yul\":5429:5431   */\n      0x40\n        /* \"#utility.yul\":5424:5427   */\n      dup3\n        /* \"#utility.yul\":5420:5432   */\n      add\n        /* \"#utility.yul\":5413:5432   */\n      swap1\n      pop\n        /* \"#utility.yul\":5218:5438   */\n      swap2\n      swap1\n      pop\n      jump\t// out\n        /* \"#utility.yul\":5444:5810   */\n    tag_469:\n        /* \"#utility.yul\":5586:5589   */\n      0x00\n        /* \"#utility.yul\":5607:5674   */\n      tag_471\n        /* \"#utility.yul\":5671:5673   */\n      0x19\n        /* \"#utility.yul\":5666:5669   */\n      dup4\n        /* \"#utility.yul\":5607:5674   */\n      tag_466\n      jump\t// in\n    tag_471:\n        /* \"#utility.yul\":5600:5674   */\n      swap2\n      pop\n        /* \"#utility.yul\":5683:5776   */\n      tag_472\n        /* \"#utility.yul\":5772:5775   */\n      dup3\n        /* \"#utility.yul\":5683:5776   */\n      tag_473\n      jump\t// in\n    tag_472:\n        /* \"#utility.yul\":5801:5803   */\n      0x20\n        /* \"#utility.yul\":5796:5799   */\n      dup3\n        /* \"#utility.yul\":5792:5804   */\n      add\n        /* \"#utility.yul\":5785:5804   */\n      swap1\n      pop\n        /* \"#utility.yul\":5590:5810   */\n      swap2\n      swap1\n      pop\n      jump\t// out\n        /* \"#utility.yul\":5816:6182   */\n    tag_474:\n        /* \"#utility.yul\":5958:5961   */\n      0x00\n        /* \"#utility.yul\":5979:6046   */\n      tag_476\n        /* \"#utility.yul\":6043:6045   */\n      0x20\n        /* \"#utility.yul\":6038:6041   */\n      dup4\n        /* \"#utility.yul\":5979:6046   */\n      tag_466\n      jump\t// in\n    tag_476:\n        /* \"#utility.yul\":5972:6046   */\n      swap2\n      pop\n        /* \"#utility.yul\":6055:6148   */\n      tag_477\n        /* \"#utility.yul\":6144:6147   */\n      dup3\n        /* \"#utility.yul\":6055:6148   */\n      tag_478\n      jump\t// in\n    tag_477:\n        /* \"#utility.yul\":6173:6175   */\n      0x20\n        /* \"#utility.yul\":6168:6171   */\n      dup3\n        /* \"#utility.yul\":6164:6176   */\n      add\n        /* \"#utility.yul\":6157:6176   */\n      swap1\n      pop\n        /* \"#utility.yul\":5962:6182   */\n      swap2\n      swap1\n      pop\n      jump\t// out\n        /* \"#utility.yul\":6226:6903   */\n    tag_436:\n        /* \"#utility.yul\":6361:6365   */\n      0x60\n        /* \"#utility.yul\":6356:6359   */\n      dup3\n        /* \"#utility.yul\":6352:6366   */\n      add\n        /* \"#utility.yul\":6453:6457   */\n      0x00\n        /* \"#utility.yul\":6446:6451   */\n      dup3\n        /* \"#utility.yul\":6442:6458   */\n      add\n        /* \"#utility.yul\":6436:6459   */\n      mload\n        /* \"#utility.yul\":6472:6535   */\n      tag_480\n        /* \"#utility.yul\":6529:6533   */\n      0x00\n        /* \"#utility.yul\":6524:6527   */\n      dup6\n        /* \"#utility.yul\":6520:6534   */\n      add\n        /* \"#utility.yul\":6506:6518   */\n      dup3\n        /* \"#utility.yul\":6472:6535   */\n      tag_481\n      jump\t// in\n    tag_480:\n        /* \"#utility.yul\":6376:6545   */\n      pop\n        /* \"#utility.yul\":6630:6634   */\n      0x20\n        /* \"#utility.yul\":6623:6628   */\n      dup3\n        /* \"#utility.yul\":6619:6635   */\n      add\n        /* \"#utility.yul\":6613:6636   */\n      mload\n        /* \"#utility.yul\":6649:6712   */\n      tag_482\n        /* \"#utility.yul\":6706:6710   */\n      0x20\n        /* \"#utility.yul\":6701:6704   */\n      dup6\n        /* \"#utility.yul\":6697:6711   */\n      add\n        /* \"#utility.yul\":6683:6695   */\n      dup3\n        /* \"#utility.yul\":6649:6712   */\n      tag_481\n      jump\t// in\n    tag_482:\n        /* \"#utility.yul\":6555:6722   */\n      pop\n        /* \"#utility.yul\":6804:6808   */\n      0x40\n        /* \"#utility.yul\":6797:6802   */\n      dup3\n        /* \"#utility.yul\":6793:6809   */\n      add\n        /* \"#utility.yul\":6787:6810   */\n      mload\n        /* \"#utility.yul\":6823:6886   */\n      tag_483\n        /* \"#utility.yul\":6880:6884   */\n      0x40\n        /* \"#utility.yul\":6875:6878   */\n      dup6\n        /* \"#utility.yul\":6871:6885   */\n      add\n        /* \"#utility.yul\":6857:6869   */\n      dup3\n        /* \"#utility.yul\":6823:6886   */\n      tag_481\n      jump\t// in\n    tag_483:\n        /* \"#utility.yul\":6732:6896   */\n      pop\n        /* \"#utility.yul\":6330:6903   */\n      pop\n      pop\n      pop\n      jump\t// out\n        /* \"#utility.yul\":6909:7017   */\n    tag_481:\n        /* \"#utility.yul\":6986:7010   */\n      tag_485\n        /* \"#utility.yul\":7004:7009   */\n      dup2\n        /* \"#utility.yul\":6986:7010   */\n      tag_486\n      jump\t// in\n    tag_485:\n        /* \"#utility.yul\":6981:6984   */\n      dup3\n        /* \"#utility.yul\":6974:7011   */\n      mstore\n        /* \"#utility.yul\":6964:7017   */\n      pop\n      pop\n      jump\t// out\n        /* \"#utility.yul\":7023:7141   */\n    tag_487:\n        /* \"#utility.yul\":7110:7134   */\n      tag_489\n        /* \"#utility.yul\":7128:7133   */\n      dup2\n        /* \"#utility.yul\":7110:7134   */\n      tag_486\n      jump\t// in\n    tag_489:\n        /* \"#utility.yul\":7105:7108   */\n      dup3\n        /* \"#utility.yul\":7098:7135   */\n      mstore\n        /* \"#utility.yul\":7088:7141   */\n      pop\n      pop\n      jump\t// out\n        /* \"#utility.yul\":7147:7369   */\n    tag_76:\n        /* \"#utility.yul\":7240:7244   */\n      0x00\n        /* \"#utility.yul\":7278:7280   */\n      0x20\n        /* \"#utility.yul\":7267:7276   */\n      dup3\n        /* \"#utility.yul\":7263:7281   */\n      add\n        /* \"#utility.yul\":7255:7281   */\n      swap1\n      pop\n        /* \"#utility.yul\":7291:7362   */\n      tag_491\n        /* \"#utility.yul\":7359:7360   */\n      0x00\n        /* \"#utility.yul\":7348:7357   */\n      dup4\n        /* \"#utility.yul\":7344:7361   */\n      add\n        /* \"#utility.yul\":7335:7341   */\n      dup5\n        /* \"#utility.yul\":7291:7362   */\n      tag_437\n      jump\t// in\n    tag_491:\n        /* \"#utility.yul\":7245:7369   */\n      swap3\n      swap2\n      pop\n      pop\n      jump\t// out\n        /* \"#utility.yul\":7375:7817   */\n    tag_347:\n        /* \"#utility.yul\":7524:7528   */\n      0x00\n        /* \"#utility.yul\":7562:7564   */\n      0x60\n        /* \"#utility.yul\":7551:7560   */\n      dup3\n        /* \"#utility.yul\":7547:7565   */\n      add\n        /* \"#utility.yul\":7539:7565   */\n      swap1\n      pop\n        /* \"#utility.yul\":7575:7646   */\n      tag_493\n        /* \"#utility.yul\":7643:7644   */\n      0x00\n        /* \"#utility.yul\":7632:7641   */\n      dup4\n        /* \"#utility.yul\":7628:7645   */\n      add\n        /* \"#utility.yul\":7619:7625   */\n      dup7\n        /* \"#utility.yul\":7575:7646   */\n      tag_437\n      jump\t// in\n    tag_493:\n        /* \"#utility.yul\":7656:7728   */\n      tag_494\n        /* \"#utility.yul\":7724:7726   */\n      0x20\n        /* \"#utility.yul\":7713:7722   */\n      dup4\n        /* \"#utility.yul\":7709:7727   */\n      add\n        /* \"#utility.yul\":7700:7706   */\n      dup6\n        /* \"#utility.yul\":7656:7728   */\n      tag_437\n      jump\t// in\n    tag_494:\n        /* \"#utility.yul\":7738:7810   */\n      tag_495\n        /* \"#utility.yul\":7806:7808   */\n      0x40\n        /* \"#utility.yul\":7795:7804   */\n      dup4\n        /* \"#utility.yul\":7791:7809   */\n      add\n        /* \"#utility.yul\":7782:7788   */\n      dup5\n        /* \"#utility.yul\":7738:7810   */\n      tag_487\n      jump\t// in\n    tag_495:\n        /* \"#utility.yul\":7529:7817   */\n      swap5\n      swap4\n      pop\n      pop\n      pop\n      pop\n      jump\t// out\n        /* \"#utility.yul\":7823:8155   */\n    tag_135:\n        /* \"#utility.yul\":7944:7948   */\n      0x00\n        /* \"#utility.yul\":7982:7984   */\n      0x40\n        /* \"#utility.yul\":7971:7980   */\n      dup3\n        /* \"#utility.yul\":7967:7985   */\n      add\n        /* \"#utility.yul\":7959:7985   */\n      swap1\n      pop\n        /* \"#utility.yul\":7995:8066   */\n      tag_497\n        /* \"#utility.yul\":8063:8064   */\n      0x00\n        /* \"#utility.yul\":8052:8061   */\n      dup4\n        /* \"#utility.yul\":8048:8065   */\n      add\n        /* \"#utility.yul\":8039:8045   */\n      dup6\n        /* \"#utility.yul\":7995:8066   */\n      tag_437\n      jump\t// in\n    tag_497:\n        /* \"#utility.yul\":8076:8148   */\n      tag_498\n        /* \"#utility.yul\":8144:8146   */\n      0x20\n        /* \"#utility.yul\":8133:8142   */\n      dup4\n        /* \"#utility.yul\":8129:8147   */\n      add\n        /* \"#utility.yul\":8120:8126   */\n      dup5\n        /* \"#utility.yul\":8076:8148   */\n      tag_487\n      jump\t// in\n    tag_498:\n        /* \"#utility.yul\":7949:8155   */\n      swap4\n      swap3\n      pop\n      pop\n      pop\n      jump\t// out\n        /* \"#utility.yul\":8161:8603   */\n    tag_237:\n        /* \"#utility.yul\":8310:8314   */\n      0x00\n        /* \"#utility.yul\":8348:8350   */\n      0x60\n        /* \"#utility.yul\":8337:8346   */\n      dup3\n        /* \"#utility.yul\":8333:8351   */\n      add\n        /* \"#utility.yul\":8325:8351   */\n      swap1\n      pop\n        /* \"#utility.yul\":8361:8432   */\n      tag_500\n        /* \"#utility.yul\":8429:8430   */\n      0x00\n        /* \"#utility.yul\":8418:8427   */\n      dup4\n        /* \"#utility.yul\":8414:8431   */\n      add\n        /* \"#utility.yul\":8405:8411   */\n      dup7\n        /* \"#utility.yul\":8361:8432   */\n      tag_437\n      jump\t// in\n    tag_500:\n        /* \"#utility.yul\":8442:8514   */\n      tag_501\n        /* \"#utility.yul\":8510:8512   */\n      0x20\n        /* \"#utility.yul\":8499:8508   */\n      dup4\n        /* \"#utility.yul\":8495:8513   */\n      add\n        /* \"#utility.yul\":8486:8492   */\n      dup6\n        /* \"#utility.yul\":8442:8514   */\n      tag_487\n      jump\t// in\n    tag_501:\n        /* \"#utility.yul\":8524:8596   */\n      tag_502\n        /* \"#utility.yul\":8592:8594   */\n      0x40\n        /* \"#utility.yul\":8581:8590   */\n      dup4\n        /* \"#utility.yul\":8577:8595   */\n      add\n        /* \"#utility.yul\":8568:8574   */\n      dup5\n        /* \"#utility.yul\":8524:8596   */\n      tag_487\n      jump\t// in\n    tag_502:\n        /* \"#utility.yul\":8315:8603   */\n      swap5\n      swap4\n      pop\n      pop\n      pop\n      pop\n      jump\t// out\n        /* \"#utility.yul\":8609:9078   */\n    tag_117:\n        /* \"#utility.yul\":8800:8804   */\n      0x00\n        /* \"#utility.yul\":8838:8840   */\n      0x20\n        /* \"#utility.yul\":8827:8836   */\n      dup3\n        /* \"#utility.yul\":8823:8841   */\n      add\n        /* \"#utility.yul\":8815:8841   */\n      swap1\n      pop\n        /* \"#utility.yul\":8887:8896   */\n      dup2\n        /* \"#utility.yul\":8881:8885   */\n      dup2\n        /* \"#utility.yul\":8877:8897   */\n      sub\n        /* \"#utility.yul\":8873:8874   */\n      0x00\n        /* \"#utility.yul\":8862:8871   */\n      dup4\n        /* \"#utility.yul\":8858:8875   */\n      add\n        /* \"#utility.yul\":8851:8898   */\n      mstore\n        /* \"#utility.yul\":8915:9071   */\n      tag_504\n        /* \"#utility.yul\":9066:9070   */\n      dup2\n        /* \"#utility.yul\":9057:9063   */\n      dup5\n        /* \"#utility.yul\":8915:9071   */\n      tag_441\n      jump\t// in\n    tag_504:\n        /* \"#utility.yul\":8907:9071   */\n      swap1\n      pop\n        /* \"#utility.yul\":8805:9078   */\n      swap3\n      swap2\n      pop\n      pop\n      jump\t// out\n        /* \"#utility.yul\":9084:9356   */\n    tag_93:\n        /* \"#utility.yul\":9202:9206   */\n      0x00\n        /* \"#utility.yul\":9240:9242   */\n      0x20\n        /* \"#utility.yul\":9229:9238   */\n      dup3\n        /* \"#utility.yul\":9225:9243   */\n      add\n        /* \"#utility.yul\":9217:9243   */\n      swap1\n      pop\n        /* \"#utility.yul\":9253:9349   */\n      tag_506\n        /* \"#utility.yul\":9346:9347   */\n      0x00\n        /* \"#utility.yul\":9335:9344   */\n      dup4\n        /* \"#utility.yul\":9331:9348   */\n      add\n        /* \"#utility.yul\":9322:9328   */\n      dup5\n        /* \"#utility.yul\":9253:9349   */\n      tag_455\n      jump\t// in\n    tag_506:\n        /* \"#utility.yul\":9207:9356   */\n      swap3\n      swap2\n      pop\n      pop\n      jump\t// out\n        /* \"#utility.yul\":9362:9628   */\n    tag_43:\n        /* \"#utility.yul\":9477:9481   */\n      0x00\n        /* \"#utility.yul\":9515:9517   */\n      0x20\n        /* \"#utility.yul\":9504:9513   */\n      dup3\n        /* \"#utility.yul\":9500:9518   */\n      add\n        /* \"#utility.yul\":9492:9518   */\n      swap1\n      pop\n        /* \"#utility.yul\":9528:9621   */\n      tag_508\n        /* \"#utility.yul\":9618:9619   */\n      0x00\n        /* \"#utility.yul\":9607:9616   */\n      dup4\n        /* \"#utility.yul\":9603:9620   */\n      add\n        /* \"#utility.yul\":9594:9600   */\n      dup5\n        /* \"#utility.yul\":9528:9621   */\n      tag_459\n      jump\t// in\n    tag_508:\n        /* \"#utility.yul\":9482:9628   */\n      swap3\n      swap2\n      pop\n      pop\n      jump\t// out\n        /* \"#utility.yul\":9634:10053   */\n    tag_343:\n        /* \"#utility.yul\":9800:9804   */\n      0x00\n        /* \"#utility.yul\":9838:9840   */\n      0x20\n        /* \"#utility.yul\":9827:9836   */\n      dup3\n        /* \"#utility.yul\":9823:9841   */\n      add\n        /* \"#utility.yul\":9815:9841   */\n      swap1\n      pop\n        /* \"#utility.yul\":9887:9896   */\n      dup2\n        /* \"#utility.yul\":9881:9885   */\n      dup2\n        /* \"#utility.yul\":9877:9897   */\n      sub\n        /* \"#utility.yul\":9873:9874   */\n      0x00\n        /* \"#utility.yul\":9862:9871   */\n      dup4\n        /* \"#utility.yul\":9858:9875   */\n      add\n        /* \"#utility.yul\":9851:9898   */\n      mstore\n        /* \"#utility.yul\":9915:10046   */\n      tag_510\n        /* \"#utility.yul\":10041:10045   */\n      dup2\n        /* \"#utility.yul\":9915:10046   */\n      tag_463\n      jump\t// in\n    tag_510:\n        /* \"#utility.yul\":9907:10046   */\n      swap1\n      pop\n        /* \"#utility.yul\":9805:10053   */\n      swap2\n      swap1\n      pop\n      jump\t// out\n        /* \"#utility.yul\":10059:10478   */\n    tag_194:\n        /* \"#utility.yul\":10225:10229   */\n      0x00\n        /* \"#utility.yul\":10263:10265   */\n      0x20\n        /* \"#utility.yul\":10252:10261   */\n      dup3\n        /* \"#utility.yul\":10248:10266   */\n      add\n        /* \"#utility.yul\":10240:10266   */\n      swap1\n      pop\n        /* \"#utility.yul\":10312:10321   */\n      dup2\n        /* \"#utility.yul\":10306:10310   */\n      dup2\n        /* \"#utility.yul\":10302:10322   */\n      sub\n        /* \"#utility.yul\":10298:10299   */\n      0x00\n        /* \"#utility.yul\":10287:10296   */\n      dup4\n        /* \"#utility.yul\":10283:10300   */\n      add\n        /* \"#utility.yul\":10276:10323   */\n      mstore\n        /* \"#utility.yul\":10340:10471   */\n      tag_512\n        /* \"#utility.yul\":10466:10470   */\n      dup2\n        /* \"#utility.yul\":10340:10471   */\n      tag_469\n      jump\t// in\n    tag_512:\n        /* \"#utility.yul\":10332:10471   */\n      swap1\n      pop\n        /* \"#utility.yul\":10230:10478   */\n      swap2\n      swap1\n      pop\n      jump\t// out\n        /* \"#utility.yul\":10484:10903   */\n    tag_389:\n        /* \"#utility.yul\":10650:10654   */\n      0x00\n        /* \"#utility.yul\":10688:10690   */\n      0x20\n        /* \"#utility.yul\":10677:10686   */\n      dup3\n        /* \"#utility.yul\":10673:10691   */\n      add\n        /* \"#utility.yul\":10665:10691   */\n      swap1\n      pop\n        /* \"#utility.yul\":10737:10746   */\n      dup2\n        /* \"#utility.yul\":10731:10735   */\n      dup2\n        /* \"#utility.yul\":10727:10747   */\n      sub\n        /* \"#utility.yul\":10723:10724   */\n      0x00\n        /* \"#utility.yul\":10712:10721   */\n      dup4\n        /* \"#utility.yul\":10708:10725   */\n      add\n        /* \"#utility.yul\":10701:10748   */\n      mstore\n        /* \"#utility.yul\":10765:10896   */\n      tag_514\n        /* \"#utility.yul\":10891:10895   */\n      dup2\n        /* \"#utility.yul\":10765:10896   */\n      tag_474\n      jump\t// in\n    tag_514:\n        /* \"#utility.yul\":10757:10896   */\n      swap1\n      pop\n        /* \"#utility.yul\":10655:10903   */\n      swap2\n      swap1\n      pop\n      jump\t// out\n        /* \"#utility.yul\":10909:11131   */\n    tag_55:\n        /* \"#utility.yul\":11002:11006   */\n      0x00\n        /* \"#utility.yul\":11040:11042   */\n      0x20\n        /* \"#utility.yul\":11029:11038   */\n      dup3\n        /* \"#utility.yul\":11025:11043   */\n      add\n        /* \"#utility.yul\":11017:11043   */\n      swap1\n      pop\n        /* \"#utility.yul\":11053:11124   */\n      tag_516\n        /* \"#utility.yul\":11121:11122   */\n      0x00\n        /* \"#utility.yul\":11110:11119   */\n      dup4\n        /* \"#utility.yul\":11106:11123   */\n      add\n        /* \"#utility.yul\":11097:11103   */\n      dup5\n        /* \"#utility.yul\":11053:11124   */\n      tag_487\n      jump\t// in\n    tag_516:\n        /* \"#utility.yul\":11007:11131   */\n      swap3\n      swap2\n      pop\n      pop\n      jump\t// out\n        /* \"#utility.yul\":11137:11266   */\n    tag_401:\n        /* \"#utility.yul\":11171:11177   */\n      0x00\n        /* \"#utility.yul\":11198:11218   */\n      tag_518\n      tag_519\n      jump\t// in\n    tag_518:\n        /* \"#utility.yul\":11188:11218   */\n      swap1\n      pop\n        /* \"#utility.yul\":11227:11260   */\n      tag_520\n        /* \"#utility.yul\":11255:11259   */\n      dup3\n        /* \"#utility.yul\":11247:11253   */\n      dup3\n        /* \"#utility.yul\":11227:11260   */\n      tag_521\n      jump\t// in\n    tag_520:\n        /* \"#utility.yul\":11178:11266   */\n      swap2\n      swap1\n      pop\n      jump\t// out\n        /* \"#utility.yul\":11272:11347   */\n    tag_519:\n        /* \"#utility.yul\":11305:11311   */\n      0x00\n        /* \"#utility.yul\":11338:11340   */\n      0x40\n        /* \"#utility.yul\":11332:11341   */\n      mload\n        /* \"#utility.yul\":11322:11341   */\n      swap1\n      pop\n        /* \"#utility.yul\":11312:11347   */\n      swap1\n      jump\t// out\n        /* \"#utility.yul\":11353:11509   */\n    tag_448:\n        /* \"#utility.yul\":11444:11448   */\n      0x00\n        /* \"#utility.yul\":11467:11470   */\n      dup2\n        /* \"#utility.yul\":11459:11470   */\n      swap1\n      pop\n        /* \"#utility.yul\":11497:11501   */\n      0x20\n        /* \"#utility.yul\":11492:11495   */\n      dup3\n        /* \"#utility.yul\":11488:11502   */\n      add\n        /* \"#utility.yul\":11480:11502   */\n      swap1\n      pop\n        /* \"#utility.yul\":11449:11509   */\n      swap2\n      swap1\n      pop\n      jump\t// out\n        /* \"#utility.yul\":11515:11653   */\n    tag_444:\n        /* \"#utility.yul\":11606:11612   */\n      0x00\n        /* \"#utility.yul\":11640:11645   */\n      dup2\n        /* \"#utility.yul\":11634:11646   */\n      mload\n        /* \"#utility.yul\":11624:11646   */\n      swap1\n      pop\n        /* \"#utility.yul\":11613:11653   */\n      swap2\n      swap1\n      pop\n      jump\t// out\n        /* \"#utility.yul\":11659:11796   */\n    tag_454:\n        /* \"#utility.yul\":11753:11757   */\n      0x00\n        /* \"#utility.yul\":11785:11789   */\n      0x20\n        /* \"#utility.yul\":11780:11783   */\n      dup3\n        /* \"#utility.yul\":11776:11790   */\n      add\n        /* \"#utility.yul\":11768:11790   */\n      swap1\n      pop\n        /* \"#utility.yul\":11758:11796   */\n      swap2\n      swap1\n      pop\n      jump\t// out\n        /* \"#utility.yul\":11802:12010   */\n    tag_446:\n        /* \"#utility.yul\":11925:11936   */\n      0x00\n        /* \"#utility.yul\":11959:11965   */\n      dup3\n        /* \"#utility.yul\":11954:11957   */\n      dup3\n        /* \"#utility.yul\":11947:11966   */\n      mstore\n        /* \"#utility.yul\":11999:12003   */\n      0x20\n        /* \"#utility.yul\":11994:11997   */\n      dup3\n        /* \"#utility.yul\":11990:12004   */\n      add\n        /* \"#utility.yul\":11975:12004   */\n      swap1\n      pop\n        /* \"#utility.yul\":11937:12010   */\n      swap3\n      swap2\n      pop\n      pop\n      jump\t// out\n        /* \"#utility.yul\":12016:12185   */\n    tag_466:\n        /* \"#utility.yul\":12100:12111   */\n      0x00\n        /* \"#utility.yul\":12134:12140   */\n      dup3\n        /* \"#utility.yul\":12129:12132   */\n      dup3\n        /* \"#utility.yul\":12122:12141   */\n      mstore\n        /* \"#utility.yul\":12174:12178   */\n      0x20\n        /* \"#utility.yul\":12169:12172   */\n      dup3\n        /* \"#utility.yul\":12165:12179   */\n      add\n        /* \"#utility.yul\":12150:12179   */\n      swap1\n      pop\n        /* \"#utility.yul\":12112:12185   */\n      swap3\n      swap2\n      pop\n      pop\n      jump\t// out\n        /* \"#utility.yul\":12191:12496   */\n    tag_145:\n        /* \"#utility.yul\":12231:12234   */\n      0x00\n        /* \"#utility.yul\":12250:12270   */\n      tag_529\n        /* \"#utility.yul\":12268:12269   */\n      dup3\n        /* \"#utility.yul\":12250:12270   */\n      tag_486\n      jump\t// in\n    tag_529:\n        /* \"#utility.yul\":12245:12270   */\n      swap2\n      pop\n        /* \"#utility.yul\":12284:12304   */\n      tag_530\n        /* \"#utility.yul\":12302:12303   */\n      dup4\n        /* \"#utility.yul\":12284:12304   */\n      tag_486\n      jump\t// in\n    tag_530:\n        /* \"#utility.yul\":12279:12304   */\n      swap3\n      pop\n        /* \"#utility.yul\":12438:12439   */\n      dup3\n        /* \"#utility.yul\":12370:12436   */\n      0xffffffffffffffffffffffffffffffffffffffffffffffffffffffffffffffff\n        /* \"#utility.yul\":12366:12440   */\n      sub\n        /* \"#utility.yul\":12363:12364   */\n      dup3\n        /* \"#utility.yul\":12360:12441   */\n      gt\n        /* \"#utility.yul\":12357:12359   */\n      iszero\n      tag_531\n      jumpi\n        /* \"#utility.yul\":12444:12462   */\n      tag_532\n      tag_533\n      jump\t// in\n    tag_532:\n        /* \"#utility.yul\":12357:12359   */\n    tag_531:\n        /* \"#utility.yul\":12488:12489   */\n      dup3\n        /* \"#utility.yul\":12485:12486   */\n      dup3\n        /* \"#utility.yul\":12481:12490   */\n      add\n        /* \"#utility.yul\":12474:12490   */\n      swap1\n      pop\n        /* \"#utility.yul\":12235:12496   */\n      swap3\n      swap2\n      pop\n      pop\n      jump\t// out\n        /* \"#utility.yul\":12502:12850   */\n    tag_336:\n        /* \"#utility.yul\":12542:12549   */\n      0x00\n        /* \"#utility.yul\":12565:12585   */\n      tag_535\n        /* \"#utility.yul\":12583:12584   */\n      dup3\n        /* \"#utility.yul\":12565:12585   */\n      tag_486\n      jump\t// in\n    tag_535:\n        /* \"#utility.yul\":12560:12585   */\n      swap2\n      pop\n        /* \"#utility.yul\":12599:12619   */\n      tag_536\n        /* \"#utility.yul\":12617:12618   */\n      dup4\n        /* \"#utility.yul\":12599:12619   */\n      tag_486\n      jump\t// in\n    tag_536:\n        /* \"#utility.yul\":12594:12619   */\n      swap3\n      pop\n        /* \"#utility.yul\":12787:12788   */\n      dup2\n        /* \"#utility.yul\":12719:12785   */\n      0xffffffffffffffffffffffffffffffffffffffffffffffffffffffffffffffff\n        /* \"#utility.yul\":12715:12789   */\n      div\n        /* \"#utility.yul\":12712:12713   */\n      dup4\n        /* \"#utility.yul\":12709:12790   */\n      gt\n        /* \"#utility.yul\":12704:12705   */\n      dup3\n        /* \"#utility.yul\":12697:12706   */\n      iszero\n        /* \"#utility.yul\":12690:12707   */\n      iszero\n        /* \"#utility.yul\":12686:12791   */\n      and\n        /* \"#utility.yul\":12683:12685   */\n      iszero\n      tag_537\n      jumpi\n        /* \"#utility.yul\":12794:12812   */\n      tag_538\n      tag_533\n      jump\t// in\n    tag_538:\n        /* \"#utility.yul\":12683:12685   */\n    tag_537:\n        /* \"#utility.yul\":12842:12843   */\n      dup3\n        /* \"#utility.yul\":12839:12840   */\n      dup3\n        /* \"#utility.yul\":12835:12844   */\n      mul\n        /* \"#utility.yul\":12824:12844   */\n      swap1\n      pop\n        /* \"#utility.yul\":12550:12850   */\n      swap3\n      swap2\n      pop\n      pop\n      jump\t// out\n        /* \"#utility.yul\":12856:13047   */\n    tag_208:\n        /* \"#utility.yul\":12896:12900   */\n      0x00\n        /* \"#utility.yul\":12916:12936   */\n      tag_540\n        /* \"#utility.yul\":12934:12935   */\n      dup3\n        /* \"#utility.yul\":12916:12936   */\n      tag_486\n      jump\t// in\n    tag_540:\n        /* \"#utility.yul\":12911:12936   */\n      swap2\n      pop\n        /* \"#utility.yul\":12950:12970   */\n      tag_541\n        /* \"#utility.yul\":12968:12969   */\n      dup4\n        /* \"#utility.yul\":12950:12970   */\n      tag_486\n      jump\t// in\n    tag_541:\n        /* \"#utility.yul\":12945:12970   */\n      swap3\n      pop\n        /* \"#utility.yul\":12989:12990   */\n      dup3\n        /* \"#utility.yul\":12986:12987   */\n      dup3\n        /* \"#utility.yul\":12983:12991   */\n      lt\n        /* \"#utility.yul\":12980:12982   */\n      iszero\n      tag_542\n      jumpi\n        /* \"#utility.yul\":12994:13012   */\n      tag_543\n      tag_533\n      jump\t// in\n    tag_543:\n        /* \"#utility.yul\":12980:12982   */\n    tag_542:\n        /* \"#utility.yul\":13039:13040   */\n      dup3\n        /* \"#utility.yul\":13036:13037   */\n      dup3\n        /* \"#utility.yul\":13032:13041   */\n      sub\n        /* \"#utility.yul\":13024:13041   */\n      swap1\n      pop\n        /* \"#utility.yul\":12901:13047   */\n      swap3\n      swap2\n      pop\n      pop\n      jump\t// out\n        /* \"#utility.yul\":13053:13149   */\n    tag_440:\n        /* \"#utility.yul\":13090:13097   */\n      0x00\n        /* \"#utility.yul\":13119:13143   */\n      tag_545\n        /* \"#utility.yul\":13137:13142   */\n      dup3\n        /* \"#utility.yul\":13119:13143   */\n      tag_546\n      jump\t// in\n    tag_545:\n        /* \"#utility.yul\":13108:13143   */\n      swap1\n      pop\n        /* \"#utility.yul\":13098:13149   */\n      swap2\n      swap1\n      pop\n      jump\t// out\n        /* \"#utility.yul\":13155:13281   */\n    tag_546:\n        /* \"#utility.yul\":13192:13199   */\n      0x00\n        /* \"#utility.yul\":13232:13274   */\n      0xffffffffffffffffffffffffffffffffffffffff\n        /* \"#utility.yul\":13225:13230   */\n      dup3\n        /* \"#utility.yul\":13221:13275   */\n      and\n        /* \"#utility.yul\":13210:13275   */\n      swap1\n      pop\n        /* \"#utility.yul\":13200:13281   */\n      swap2\n      swap1\n      pop\n      jump\t// out\n        /* \"#utility.yul\":13287:13364   */\n    tag_486:\n        /* \"#utility.yul\":13324:13331   */\n      0x00\n        /* \"#utility.yul\":13353:13358   */\n      dup2\n        /* \"#utility.yul\":13342:13358   */\n      swap1\n      pop\n        /* \"#utility.yul\":13332:13364   */\n      swap2\n      swap1\n      pop\n      jump\t// out\n        /* \"#utility.yul\":13370:13546   */\n    tag_458:\n        /* \"#utility.yul\":13445:13454   */\n      0x00\n        /* \"#utility.yul\":13478:13540   */\n      tag_550\n        /* \"#utility.yul\":13534:13539   */\n      dup3\n        /* \"#utility.yul\":13478:13540   */\n      tag_551\n      jump\t// in\n    tag_550:\n        /* \"#utility.yul\":13465:13540   */\n      swap1\n      pop\n        /* \"#utility.yul\":13455:13546   */\n      swap2\n      swap1\n      pop\n      jump\t// out\n        /* \"#utility.yul\":13552:13690   */\n    tag_551:\n        /* \"#utility.yul\":13627:13636   */\n      0x00\n        /* \"#utility.yul\":13660:13684   */\n      tag_553\n        /* \"#utility.yul\":13678:13683   */\n      dup3\n        /* \"#utility.yul\":13660:13684   */\n      tag_546\n      jump\t// in\n    tag_553:\n        /* \"#utility.yul\":13647:13684   */\n      swap1\n      pop\n        /* \"#utility.yul\":13637:13690   */\n      swap2\n      swap1\n      pop\n      jump\t// out\n        /* \"#utility.yul\":13696:13866   */\n    tag_462:\n        /* \"#utility.yul\":13768:13777   */\n      0x00\n        /* \"#utility.yul\":13801:13860   */\n      tag_555\n        /* \"#utility.yul\":13854:13859   */\n      dup3\n        /* \"#utility.yul\":13801:13860   */\n      tag_556\n      jump\t// in\n    tag_555:\n        /* \"#utility.yul\":13788:13860   */\n      swap1\n      pop\n        /* \"#utility.yul\":13778:13866   */\n      swap2\n      swap1\n      pop\n      jump\t// out\n        /* \"#utility.yul\":13872:14007   */\n    tag_556:\n        /* \"#utility.yul\":13944:13953   */\n      0x00\n        /* \"#utility.yul\":13977:14001   */\n      tag_558\n        /* \"#utility.yul\":13995:14000   */\n      dup3\n        /* \"#utility.yul\":13977:14001   */\n      tag_546\n      jump\t// in\n    tag_558:\n        /* \"#utility.yul\":13964:14001   */\n      swap1\n      pop\n        /* \"#utility.yul\":13954:14007   */\n      swap2\n      swap1\n      pop\n      jump\t// out\n        /* \"#utility.yul\":14013:14294   */\n    tag_521:\n        /* \"#utility.yul\":14096:14123   */\n      tag_560\n        /* \"#utility.yul\":14118:14122   */\n      dup3\n        /* \"#utility.yul\":14096:14123   */\n      tag_561\n      jump\t// in\n    tag_560:\n        /* \"#utility.yul\":14088:14094   */\n      dup2\n        /* \"#utility.yul\":14084:14124   */\n      add\n        /* \"#utility.yul\":14226:14232   */\n      dup2\n        /* \"#utility.yul\":14214:14224   */\n      dup2\n        /* \"#utility.yul\":14211:14233   */\n      lt\n        /* \"#utility.yul\":14190:14208   */\n      0xffffffffffffffff\n        /* \"#utility.yul\":14178:14188   */\n      dup3\n        /* \"#utility.yul\":14175:14209   */\n      gt\n        /* \"#utility.yul\":14172:14234   */\n      or\n        /* \"#utility.yul\":14169:14171   */\n      iszero\n      tag_562\n      jumpi\n        /* \"#utility.yul\":14237:14255   */\n      tag_563\n      tag_564\n      jump\t// in\n    tag_563:\n        /* \"#utility.yul\":14169:14171   */\n    tag_562:\n        /* \"#utility.yul\":14277:14287   */\n      dup1\n        /* \"#utility.yul\":14273:14275   */\n      0x40\n        /* \"#utility.yul\":14266:14288   */\n      mstore\n        /* \"#utility.yul\":14056:14294   */\n      pop\n      pop\n      pop\n      jump\t// out\n        /* \"#utility.yul\":14300:14533   */\n    tag_381:\n        /* \"#utility.yul\":14339:14342   */\n      0x00\n        /* \"#utility.yul\":14362:14386   */\n      tag_566\n        /* \"#utility.yul\":14380:14385   */\n      dup3\n        /* \"#utility.yul\":14362:14386   */\n      tag_486\n      jump\t// in\n    tag_566:\n        /* \"#utility.yul\":14353:14386   */\n      swap2\n      pop\n        /* \"#utility.yul\":14408:14474   */\n      0xffffffffffffffffffffffffffffffffffffffffffffffffffffffffffffffff\n        /* \"#utility.yul\":14401:14406   */\n      dup3\n        /* \"#utility.yul\":14398:14475   */\n      eq\n        /* \"#utility.yul\":14395:14397   */\n      iszero\n      tag_567\n      jumpi\n        /* \"#utility.yul\":14478:14496   */\n      tag_568\n      tag_533\n      jump\t// in\n    tag_568:\n        /* \"#utility.yul\":14395:14397   */\n    tag_567:\n        /* \"#utility.yul\":14525:14526   */\n      0x01\n        /* \"#utility.yul\":14518:14523   */\n      dup3\n        /* \"#utility.yul\":14514:14527   */\n      add\n        /* \"#utility.yul\":14507:14527   */\n      swap1\n      pop\n        /* \"#utility.yul\":14343:14533   */\n      swap2\n      swap1\n      pop\n      jump\t// out\n        /* \"#utility.yul\":14539:14719   */\n    tag_533:\n        /* \"#utility.yul\":14587:14664   */\n      0x4e487b7100000000000000000000000000000000000000000000000000000000\n        /* \"#utility.yul\":14584:14585   */\n      0x00\n        /* \"#utility.yul\":14577:14665   */\n      mstore\n        /* \"#utility.yul\":14684:14688   */\n      0x11\n        /* \"#utility.yul\":14681:14682   */\n      0x04\n        /* \"#utility.yul\":14674:14689   */\n      mstore\n        /* \"#utility.yul\":14708:14712   */\n      0x24\n        /* \"#utility.yul\":14705:14706   */\n      0x00\n        /* \"#utility.yul\":14698:14713   */\n      revert\n        /* \"#utility.yul\":14725:14905   */\n    tag_564:\n        /* \"#utility.yul\":14773:14850   */\n      0x4e487b7100000000000000000000000000000000000000000000000000000000\n        /* \"#utility.yul\":14770:14771   */\n      0x00\n        /* \"#utility.yul\":14763:14851   */\n      mstore\n        /* \"#utility.yul\":14870:14874   */\n      0x41\n        /* \"#utility.yul\":14867:14868   */\n      0x04\n        /* \"#utility.yul\":14860:14875   */\n      mstore\n        /* \"#utility.yul\":14894:14898   */\n      0x24\n        /* \"#utility.yul\":14891:14892   */\n      0x00\n        /* \"#utility.yul\":14884:14899   */\n      revert\n        /* \"#utility.yul\":14911:15013   */\n    tag_561:\n        /* \"#utility.yul\":14952:14958   */\n      0x00\n        /* \"#utility.yul\":15003:15005   */\n      0x1f\n        /* \"#utility.yul\":14999:15006   */\n      not\n        /* \"#utility.yul\":14994:14996   */\n      0x1f\n        /* \"#utility.yul\":14987:14992   */\n      dup4\n        /* \"#utility.yul\":14983:14997   */\n      add\n        /* \"#utility.yul\":14979:15007   */\n      and\n        /* \"#utility.yul\":14969:15007   */\n      swap1\n      pop\n        /* \"#utility.yul\":14959:15013   */\n      swap2\n      swap1\n      pop\n      jump\t// out\n        /* \"#utility.yul\":15019:15244   */\n    tag_468:\n        /* \"#utility.yul\":15159:15193   */\n      0x4f776e61626c653a206e6577206f776e657220697320746865207a65726f2061\n        /* \"#utility.yul\":15155:15156   */\n      0x00\n        /* \"#utility.yul\":15147:15153   */\n      dup3\n        /* \"#utility.yul\":15143:15157   */\n      add\n        /* \"#utility.yul\":15136:15194   */\n      mstore\n        /* \"#utility.yul\":15228:15236   */\n      0x6464726573730000000000000000000000000000000000000000000000000000\n        /* \"#utility.yul\":15223:15225   */\n      0x20\n        /* \"#utility.yul\":15215:15221   */\n      dup3\n        /* \"#utility.yul\":15211:15226   */\n      add\n        /* \"#utility.yul\":15204:15237   */\n      mstore\n        /* \"#utility.yul\":15125:15244   */\n      pop\n      jump\t// out\n        /* \"#utility.yul\":15250:15425   */\n    tag_473:\n        /* \"#utility.yul\":15390:15417   */\n      0x4e6f7420656e6f75676820746f6b656e7320746f206275726e00000000000000\n        /* \"#utility.yul\":15386:15387   */\n      0x00\n        /* \"#utility.yul\":15378:15384   */\n      dup3\n        /* \"#utility.yul\":15374:15388   */\n      add\n        /* \"#utility.yul\":15367:15418   */\n      mstore\n        /* \"#utility.yul\":15356:15425   */\n      pop\n      jump\t// out\n        /* \"#utility.yul\":15431:15613   */\n    tag_478:\n        /* \"#utility.yul\":15571:15605   */\n      0x4f776e61626c653a2063616c6c6572206973206e6f7420746865206f776e6572\n        /* \"#utility.yul\":15567:15568   */\n      0x00\n        /* \"#utility.yul\":15559:15565   */\n      dup3\n        /* \"#utility.yul\":15555:15569   */\n      add\n        /* \"#utility.yul\":15548:15606   */\n      mstore\n        /* \"#utility.yul\":15537:15613   */\n      pop\n      jump\t// out\n        /* \"#utility.yul\":15619:15741   */\n    tag_396:\n        /* \"#utility.yul\":15692:15716   */\n      tag_576\n        /* \"#utility.yul\":15710:15715   */\n      dup2\n        /* \"#utility.yul\":15692:15716   */\n      tag_440\n      jump\t// in\n    tag_576:\n        /* \"#utility.yul\":15685:15690   */\n      dup2\n        /* \"#utility.yul\":15682:15717   */\n      eq\n        /* \"#utility.yul\":15672:15674   */\n      tag_577\n      jumpi\n        /* \"#utility.yul\":15731:15732   */\n      0x00\n        /* \"#utility.yul\":15728:15729   */\n      dup1\n        /* \"#utility.yul\":15721:15733   */\n      revert\n        /* \"#utility.yul\":15672:15674   */\n    tag_577:\n        /* \"#utility.yul\":15662:15741   */\n      pop\n      jump\t// out\n        /* \"#utility.yul\":15747:15869   */\n    tag_409:\n        /* \"#utility.yul\":15820:15844   */\n      tag_579\n        /* \"#utility.yul\":15838:15843   */\n      dup2\n        /* \"#utility.yul\":15820:15844   */\n      tag_486\n      jump\t// in\n    tag_579:\n        /* \"#utility.yul\":15813:15818   */\n      dup2\n        /* \"#utility.yul\":15810:15845   */\n      eq\n        /* \"#utility.yul\":15800:15802   */\n      tag_580\n      jumpi\n        /* \"#utility.yul\":15859:15860   */\n      0x00\n        /* \"#utility.yul\":15856:15857   */\n      dup1\n        /* \"#utility.yul\":15849:15861   */\n      revert\n        /* \"#utility.yul\":15800:15802   */\n    tag_580:\n        /* \"#utility.yul\":15790:15869   */\n      pop\n      jump\t// out\n\n    auxdata: 0xa2646970667358221220f96cbecfde59df8e66f99df9a81a6617e56033442eef0ddac06c36377346321564736f6c63430008040033\n}\n",
				"bytecode": {
					"linkReferences": {},
					"object": "6080604052601e60035560016004553480156200001b57600080fd5b50604051620030c5380380620030c5833981810160405281019062000041919062000330565b6200006162000055620000fc60201b60201c565b6200010460201b60201c565b6200007233620001c860201b60201c565b81600160006101000a81548173ffffffffffffffffffffffffffffffffffffffff021916908373ffffffffffffffffffffffffffffffffffffffff16021790555080600260006101000a81548173ffffffffffffffffffffffffffffffffffffffff021916908373ffffffffffffffffffffffffffffffffffffffff1602179055505050620004da565b600033905090565b60008060009054906101000a900473ffffffffffffffffffffffffffffffffffffffff169050816000806101000a81548173ffffffffffffffffffffffffffffffffffffffff021916908373ffffffffffffffffffffffffffffffffffffffff1602179055508173ffffffffffffffffffffffffffffffffffffffff168173ffffffffffffffffffffffffffffffffffffffff167f8be0079c531659141344cd1fd0a4f28419497f9722a3daafe3b4186f6b6457e060405160405180910390a35050565b620001d86200025f60201b60201c565b600073ffffffffffffffffffffffffffffffffffffffff168173ffffffffffffffffffffffffffffffffffffffff1614156200024b576040517f08c379a00000000000000000000000000000000000000000000000000000000081526004016200024290620003bf565b60405180910390fd5b6200025c816200010460201b60201c565b50565b6200026f620000fc60201b60201c565b73ffffffffffffffffffffffffffffffffffffffff1662000295620002f060201b60201c565b73ffffffffffffffffffffffffffffffffffffffff1614620002ee576040517f08c379a0000000000000000000000000000000000000000000000000000000008152600401620002e590620003e1565b60405180910390fd5b565b60008060009054906101000a900473ffffffffffffffffffffffffffffffffffffffff16905090565b6000815190506200032a81620004c0565b92915050565b600080604083850312156200034457600080fd5b6000620003548582860162000319565b9250506020620003678582860162000319565b9150509250929050565b60006200038060268362000403565b91506200038d8262000448565b604082019050919050565b6000620003a760208362000403565b9150620003b48262000497565b602082019050919050565b60006020820190508181036000830152620003da8162000371565b9050919050565b60006020820190508181036000830152620003fc8162000398565b9050919050565b600082825260208201905092915050565b6000620004218262000428565b9050919050565b600073ffffffffffffffffffffffffffffffffffffffff82169050919050565b7f4f776e61626c653a206e6577206f776e657220697320746865207a65726f206160008201527f6464726573730000000000000000000000000000000000000000000000000000602082015250565b7f4f776e61626c653a2063616c6c6572206973206e6f7420746865206f776e6572600082015250565b620004cb8162000414565b8114620004d757600080fd5b50565b612bdb80620004ea6000396000f3fe608060405234801561001057600080fd5b50600436106101735760003560e01c80638da5cb5b116100de578063be1cba2f11610097578063d45519a111610071578063d45519a1146103ee578063f2fde38b1461040a578063f699aca714610426578063fe5907241461044257610173565b8063be1cba2f14610382578063cc55209b146103a0578063d140bbe1146103be57610173565b80638da5cb5b146102c05780639f9db463146102de578063ae9957ec1461030e578063aec898ca1461032a578063b5e6de7514610348578063b7f6d9061461036457610173565b80634d781330116101305780634d781330146102245780636219005d14610242578063644b637e1461025e578063715018a61461027a5780638a67f1e5146102845780638bf02357146102a257610173565b8063095bcdb6146101785780630c39fc27146101945780631f054bbe146101b05780632cd3d43d146101ce57806348db11f8146101ea5780634d2e899414610206575b600080fd5b610192600480360381019061018d919061245b565b610472565b005b6101ae60048036038101906101a991906124d3565b61048b565b005b6101b861049d565b6040516101c59190612780565b60405180910390f35b6101e860048036038101906101e391906123f6565b6104c3565b005b61020460048036038101906101ff919061241f565b610b88565b005b61020e6113e6565b60405161021b91906127fb565b60405180910390f35b61022c61148d565b60405161023991906127fb565b60405180910390f35b61025c600480360381019061025791906124d3565b611534565b005b6102786004803603810190610273919061241f565b611546565b005b61028261175d565b005b61028c611771565b60405161029991906127fb565b60405180910390f35b6102aa611818565b6040516102b791906127fb565b60405180910390f35b6102c861181e565b6040516102d59190612691565b60405180910390f35b6102f860048036038101906102f391906123f6565b611847565b60405161030591906127fb565b60405180910390f35b6103286004803603810190610323919061241f565b6118fb565b005b6103326119fb565b60405161033f91906127fb565b60405180910390f35b610362600480360381019061035d919061241f565b611aa2565b005b61036c611b8c565b6040516103799190612765565b60405180910390f35b61038a611bb2565b60405161039791906127fb565b60405180910390f35b6103a8611c59565b6040516103b591906127fb565b60405180910390f35b6103d860048036038101906103d391906123f6565b611c5f565b6040516103e591906127fb565b60405180910390f35b6104086004803603810190610403919061241f565b611d13565b005b610424600480360381019061041f91906123f6565b611d38565b005b610440600480360381019061043b919061241f565b611dbc565b005b61045c6004803603810190610457919061241f565b611eb6565b6040516104699190612743565b60405180910390f35b61047c8383611d13565b6104868382611dbc565b505050565b6104936121ec565b8060048190555050565b600160009054906101000a900473ffffffffffffffffffffffffffffffffffffffff1681565b6104cb6121ec565b6000600160009054906101000a900473ffffffffffffffffffffffffffffffffffffffff1673ffffffffffffffffffffffffffffffffffffffff16636e76c3cf836040518263ffffffff1660e01b81526004016105289190612691565b60206040518083038186803b15801561054057600080fd5b505afa158015610554573d6000803e3d6000fd5b505050506040513d601f19601f8201168201806040525081019061057891906124fc565b90506000600160009054906101000a900473ffffffffffffffffffffffffffffffffffffffff1673ffffffffffffffffffffffffffffffffffffffff1663b139814484846040518363ffffffff1660e01b81526004016105d99291906126e3565b60606040518083038186803b1580156105f157600080fd5b505afa158015610605573d6000803e3d6000fd5b505050506040513d601f19601f8201168201806040525081019061062991906124aa565b905060005b60008314158015610650575042600354836000015161064d9190612885565b11155b1561098a57600160009054906101000a900473ffffffffffffffffffffffffffffffffffffffff1673ffffffffffffffffffffffffffffffffffffffff16637ab436f88584604001516040518363ffffffff1660e01b81526004016106b69291906126e3565b600060405180830381600087803b1580156106d057600080fd5b505af11580156106e4573d6000803e3d6000fd5b5050505082600160009054906101000a900473ffffffffffffffffffffffffffffffffffffffff1673ffffffffffffffffffffffffffffffffffffffff1663baafd2d8866040518263ffffffff1660e01b81526004016107449190612691565b60206040518083038186803b15801561075c57600080fd5b505afa158015610770573d6000803e3d6000fd5b505050506040513d601f19601f8201168201806040525081019061079491906124fc565b141561082e57600160009054906101000a900473ffffffffffffffffffffffffffffffffffffffff1673ffffffffffffffffffffffffffffffffffffffff166385393a8e8584604001516040518363ffffffff1660e01b81526004016107fb9291906126e3565b600060405180830381600087803b15801561081557600080fd5b505af1158015610829573d6000803e3d6000fd5b505050505b81602001518161083e9190612885565b9050600160009054906101000a900473ffffffffffffffffffffffffffffffffffffffff1673ffffffffffffffffffffffffffffffffffffffff1663d89b5ed685856040518363ffffffff1660e01b815260040161089d9291906126e3565b600060405180830381600087803b1580156108b757600080fd5b505af11580156108cb573d6000803e3d6000fd5b5050505081604001519250600160009054906101000a900473ffffffffffffffffffffffffffffffffffffffff1673ffffffffffffffffffffffffffffffffffffffff1663b139814485856040518363ffffffff1660e01b81526004016109339291906126e3565b60606040518083038186803b15801561094b57600080fd5b505afa15801561095f573d6000803e3d6000fd5b505050506040513d601f19601f8201168201806040525081019061098391906124aa565b915061062e565b600160009054906101000a900473ffffffffffffffffffffffffffffffffffffffff1673ffffffffffffffffffffffffffffffffffffffff1663cfd4f18a85836040518363ffffffff1660e01b81526004016109e79291906126e3565b600060405180830381600087803b158015610a0157600080fd5b505af1158015610a15573d6000803e3d6000fd5b50505050600160009054906101000a900473ffffffffffffffffffffffffffffffffffffffff1673ffffffffffffffffffffffffffffffffffffffff16634b9ecd54826040518263ffffffff1660e01b8152600401610a7491906127fb565b600060405180830381600087803b158015610a8e57600080fd5b505af1158015610aa2573d6000803e3d6000fd5b50505050600160009054906101000a900473ffffffffffffffffffffffffffffffffffffffff1673ffffffffffffffffffffffffffffffffffffffff1663d53045c8826040518263ffffffff1660e01b8152600401610b0191906127fb565b600060405180830381600087803b158015610b1b57600080fd5b505af1158015610b2f573d6000803e3d6000fd5b50505050428473ffffffffffffffffffffffffffffffffffffffff167f73d69c2a657bbcb6b4c79961e8103e47ce0adeeed5de389007265ac46aef496b83604051610b7a91906127fb565b60405180910390a350505050565b610b906121ec565b610b99826104c3565b80600160009054906101000a900473ffffffffffffffffffffffffffffffffffffffff1673ffffffffffffffffffffffffffffffffffffffff1663aee9c872846040518263ffffffff1660e01b8152600401610bf59190612691565b60206040518083038186803b158015610c0d57600080fd5b505afa158015610c21573d6000803e3d6000fd5b505050506040513d601f19601f82011682018060405250810190610c4591906124fc565b1015610c86576040517f08c379a0000000000000000000000000000000000000000000000000000000008152600401610c7d906127bb565b60405180910390fd5b6000600160009054906101000a900473ffffffffffffffffffffffffffffffffffffffff1673ffffffffffffffffffffffffffffffffffffffff16636e76c3cf846040518263ffffffff1660e01b8152600401610ce39190612691565b60206040518083038186803b158015610cfb57600080fd5b505afa158015610d0f573d6000803e3d6000fd5b505050506040513d601f19601f82011682018060405250810190610d3391906124fc565b90506000600160009054906101000a900473ffffffffffffffffffffffffffffffffffffffff1673ffffffffffffffffffffffffffffffffffffffff1663b139814485846040518363ffffffff1660e01b8152600401610d949291906126e3565b60606040518083038186803b158015610dac57600080fd5b505afa158015610dc0573d6000803e3d6000fd5b505050506040513d601f19601f82011682018060405250810190610de491906124aa565b905060005b838110156111e75760008185610dff9190612935565b90508260200151811061114157826020015182610e1c9190612885565b9150600160009054906101000a900473ffffffffffffffffffffffffffffffffffffffff1673ffffffffffffffffffffffffffffffffffffffff1663d89b5ed687866040518363ffffffff1660e01b8152600401610e7b9291906126e3565b600060405180830381600087803b158015610e9557600080fd5b505af1158015610ea9573d6000803e3d6000fd5b50505050600160009054906101000a900473ffffffffffffffffffffffffffffffffffffffff1673ffffffffffffffffffffffffffffffffffffffff16637ab436f88785604001516040518363ffffffff1660e01b8152600401610f0e9291906126e3565b600060405180830381600087803b158015610f2857600080fd5b505af1158015610f3c573d6000803e3d6000fd5b5050505083600160009054906101000a900473ffffffffffffffffffffffffffffffffffffffff1673ffffffffffffffffffffffffffffffffffffffff1663baafd2d8886040518263ffffffff1660e01b8152600401610f9c9190612691565b60206040518083038186803b158015610fb457600080fd5b505afa158015610fc8573d6000803e3d6000fd5b505050506040513d601f19601f82011682018060405250810190610fec91906124fc565b141561108657600160009054906101000a900473ffffffffffffffffffffffffffffffffffffffff1673ffffffffffffffffffffffffffffffffffffffff166385393a8e8785604001516040518363ffffffff1660e01b81526004016110539291906126e3565b600060405180830381600087803b15801561106d57600080fd5b505af1158015611081573d6000803e3d6000fd5b505050505b82604001519350600160009054906101000a900473ffffffffffffffffffffffffffffffffffffffff1673ffffffffffffffffffffffffffffffffffffffff1663b139814487866040518363ffffffff1660e01b81526004016110ea9291906126e3565b60606040518083038186803b15801561110257600080fd5b505afa158015611116573d6000803e3d6000fd5b505050506040513d601f19601f8201168201806040525081019061113a91906124aa565b92506111e1565b808261114d9190612885565b9150600160009054906101000a900473ffffffffffffffffffffffffffffffffffffffff1673ffffffffffffffffffffffffffffffffffffffff1663ee6506658786846040518463ffffffff1660e01b81526004016111ae9392919061270c565b600060405180830381600087803b1580156111c857600080fd5b505af11580156111dc573d6000803e3d6000fd5b505050505b50610de9565b600160009054906101000a900473ffffffffffffffffffffffffffffffffffffffff1673ffffffffffffffffffffffffffffffffffffffff1663cfd4f18a86836040518363ffffffff1660e01b81526004016112449291906126e3565b600060405180830381600087803b15801561125e57600080fd5b505af1158015611272573d6000803e3d6000fd5b50505050600160009054906101000a900473ffffffffffffffffffffffffffffffffffffffff1673ffffffffffffffffffffffffffffffffffffffff16634b9ecd54826040518263ffffffff1660e01b81526004016112d191906127fb565b600060405180830381600087803b1580156112eb57600080fd5b505af11580156112ff573d6000803e3d6000fd5b50505050600160009054906101000a900473ffffffffffffffffffffffffffffffffffffffff1673ffffffffffffffffffffffffffffffffffffffff166393f0f55a826040518263ffffffff1660e01b815260040161135e91906127fb565b600060405180830381600087803b15801561137857600080fd5b505af115801561138c573d6000803e3d6000fd5b50505050428573ffffffffffffffffffffffffffffffffffffffff167f80a298b5c21f8032af01c83f19729136b533b45053ee957c22d08f7c483b974e836040516113d791906127fb565b60405180910390a35050505050565b6000600160009054906101000a900473ffffffffffffffffffffffffffffffffffffffff1673ffffffffffffffffffffffffffffffffffffffff1663ce5e93656040518163ffffffff1660e01b815260040160206040518083038186803b15801561145057600080fd5b505afa158015611464573d6000803e3d6000fd5b505050506040513d601f19601f8201168201806040525081019061148891906124fc565b905090565b6000600160009054906101000a900473ffffffffffffffffffffffffffffffffffffffff1673ffffffffffffffffffffffffffffffffffffffff1663d89135cd6040518163ffffffff1660e01b815260040160206040518083038186803b1580156114f757600080fd5b505afa15801561150b573d6000803e3d6000fd5b505050506040513d601f19601f8201168201806040525081019061152f91906124fc565b905090565b61153c6121ec565b8060038190555050565b61154e6121ec565b611557826104c3565b6000429050600160009054906101000a900473ffffffffffffffffffffffffffffffffffffffff1673ffffffffffffffffffffffffffffffffffffffff16634eb847918483856040518463ffffffff1660e01b81526004016115bb9392919061270c565b600060405180830381600087803b1580156115d557600080fd5b505af11580156115e9573d6000803e3d6000fd5b50505050600160009054906101000a900473ffffffffffffffffffffffffffffffffffffffff1673ffffffffffffffffffffffffffffffffffffffff166321e5383a84846040518363ffffffff1660e01b815260040161164a9291906126e3565b600060405180830381600087803b15801561166457600080fd5b505af1158015611678573d6000803e3d6000fd5b50505050600160009054906101000a900473ffffffffffffffffffffffffffffffffffffffff1673ffffffffffffffffffffffffffffffffffffffff1663e468688e836040518263ffffffff1660e01b81526004016116d791906127fb565b600060405180830381600087803b1580156116f157600080fd5b505af1158015611705573d6000803e3d6000fd5b50505050808373ffffffffffffffffffffffffffffffffffffffff167f938975f453799f51fa7c7ff2e9329114295fc240c7d4bcb30a0b782c4e90c0a18460405161175091906127fb565b60405180910390a3505050565b6117656121ec565b61176f600061226a565b565b6000600160009054906101000a900473ffffffffffffffffffffffffffffffffffffffff1673ffffffffffffffffffffffffffffffffffffffff166318160ddd6040518163ffffffff1660e01b815260040160206040518083038186803b1580156117db57600080fd5b505afa1580156117ef573d6000803e3d6000fd5b505050506040513d601f19601f8201168201806040525081019061181391906124fc565b905090565b60035481565b60008060009054906101000a900473ffffffffffffffffffffffffffffffffffffffff16905090565b6000600260009054906101000a900473ffffffffffffffffffffffffffffffffffffffff1673ffffffffffffffffffffffffffffffffffffffff1663aee9c872836040518263ffffffff1660e01b81526004016118a49190612691565b60206040518083038186803b1580156118bc57600080fd5b505afa1580156118d0573d6000803e3d6000fd5b505050506040513d601f19601f820116820180604052508101906118f491906124fc565b9050919050565b6119036121ec565b600260009054906101000a900473ffffffffffffffffffffffffffffffffffffffff1673ffffffffffffffffffffffffffffffffffffffff166340c10f1983836040518363ffffffff1660e01b81526004016119609291906126e3565b600060405180830381600087803b15801561197a57600080fd5b505af115801561198e573d6000803e3d6000fd5b505050508173ffffffffffffffffffffffffffffffffffffffff163373ffffffffffffffffffffffffffffffffffffffff167f758e0e7bdda0715b5e694ff0d2f9126df6022b2ab018e1cdf24ba95bd32c89f1836040516119ef91906127fb565b60405180910390a35050565b6000600260009054906101000a900473ffffffffffffffffffffffffffffffffffffffff1673ffffffffffffffffffffffffffffffffffffffff166318160ddd6040518163ffffffff1660e01b815260040160206040518083038186803b158015611a6557600080fd5b505afa158015611a79573d6000803e3d6000fd5b505050506040513d601f19601f82011682018060405250810190611a9d91906124fc565b905090565b611aaa6121ec565b600260009054906101000a900473ffffffffffffffffffffffffffffffffffffffff1673ffffffffffffffffffffffffffffffffffffffff16639dc29fac83836040518363ffffffff1660e01b8152600401611b079291906126e3565b600060405180830381600087803b158015611b2157600080fd5b505af1158015611b35573d6000803e3d6000fd5b50505050428273ffffffffffffffffffffffffffffffffffffffff167f1c435e120af6f9cbaa8588942eb2f441f8ba3ce076838b00394c31343802914183604051611b8091906127fb565b60405180910390a35050565b600260009054906101000a900473ffffffffffffffffffffffffffffffffffffffff1681565b6000600260009054906101000a900473ffffffffffffffffffffffffffffffffffffffff1673ffffffffffffffffffffffffffffffffffffffff1663d89135cd6040518163ffffffff1660e01b815260040160206040518083038186803b158015611c1c57600080fd5b505afa158015611c30573d6000803e3d6000fd5b505050506040513d601f19601f82011682018060405250810190611c5491906124fc565b905090565b60045481565b6000600160009054906101000a900473ffffffffffffffffffffffffffffffffffffffff1673ffffffffffffffffffffffffffffffffffffffff1663aee9c872836040518263ffffffff1660e01b8152600401611cbc9190612691565b60206040518083038186803b158015611cd457600080fd5b505afa158015611ce8573d6000803e3d6000fd5b505050506040513d601f19601f82011682018060405250810190611d0c91906124fc565b9050919050565b611d2a3360045483611d2591906128db565b610b88565b611d3482826118fb565b5050565b611d406121ec565b600073ffffffffffffffffffffffffffffffffffffffff168173ffffffffffffffffffffffffffffffffffffffff161415611db0576040517f08c379a0000000000000000000000000000000000000000000000000000000008152600401611da79061279b565b60405180910390fd5b611db98161226a565b50565b600260009054906101000a900473ffffffffffffffffffffffffffffffffffffffff1673ffffffffffffffffffffffffffffffffffffffff1663beabacc83384846040518463ffffffff1660e01b8152600401611e1b939291906126ac565b600060405180830381600087803b158015611e3557600080fd5b505af1158015611e49573d6000803e3d6000fd5b505050508173ffffffffffffffffffffffffffffffffffffffff163373ffffffffffffffffffffffffffffffffffffffff167fcdf5fe2846acdbbac796cdd717a184adcb9c43f109696332629b668600ba018383604051611eaa91906127fb565b60405180910390a35050565b60606000600160009054906101000a900473ffffffffffffffffffffffffffffffffffffffff1673ffffffffffffffffffffffffffffffffffffffff16636e76c3cf856040518263ffffffff1660e01b8152600401611f159190612691565b60206040518083038186803b158015611f2d57600080fd5b505afa158015611f41573d6000803e3d6000fd5b505050506040513d601f19601f82011682018060405250810190611f6591906124fc565b90506000600182600160009054906101000a900473ffffffffffffffffffffffffffffffffffffffff1673ffffffffffffffffffffffffffffffffffffffff1663baafd2d8886040518263ffffffff1660e01b8152600401611fc79190612691565b60206040518083038186803b158015611fdf57600080fd5b505afa158015611ff3573d6000803e3d6000fd5b505050506040513d601f19601f8201168201806040525081019061201791906124fc565b6120219190612935565b61202b9190612885565b9050600084148061203b57508084115b15612044578093505b60008467ffffffffffffffff811115612086577f4e487b7100000000000000000000000000000000000000000000000000000000600052604160045260246000fd5b6040519080825280602002602001820160405280156120bf57816020015b6120ac612336565b8152602001906001900390816120a45790505b50905060005b858110156121df57600160009054906101000a900473ffffffffffffffffffffffffffffffffffffffff1673ffffffffffffffffffffffffffffffffffffffff1663b139814488866040518363ffffffff1660e01b815260040161212a9291906126e3565b60606040518083038186803b15801561214257600080fd5b505afa158015612156573d6000803e3d6000fd5b505050506040513d601f19601f8201168201806040525081019061217a91906124aa565b8282815181106121b3577f4e487b7100000000000000000000000000000000000000000000000000000000600052603260045260246000fd5b602002602001018190525083806121c990612a1e565b94505080806121d790612a1e565b9150506120c5565b8194505050505092915050565b6121f461232e565b73ffffffffffffffffffffffffffffffffffffffff1661221261181e565b73ffffffffffffffffffffffffffffffffffffffff1614612268576040517f08c379a000000000000000000000000000000000000000000000000000000000815260040161225f906127db565b60405180910390fd5b565b60008060009054906101000a900473ffffffffffffffffffffffffffffffffffffffff169050816000806101000a81548173ffffffffffffffffffffffffffffffffffffffff021916908373ffffffffffffffffffffffffffffffffffffffff1602179055508173ffffffffffffffffffffffffffffffffffffffff168173ffffffffffffffffffffffffffffffffffffffff167f8be0079c531659141344cd1fd0a4f28419497f9722a3daafe3b4186f6b6457e060405160405180910390a35050565b600033905090565b60405180606001604052806000815260200160008152602001600081525090565b60008135905061236681612b77565b92915050565b60006060828403121561237e57600080fd5b6123886060612816565b90506000612398848285016123e1565b60008301525060206123ac848285016123e1565b60208301525060406123c0848285016123e1565b60408301525092915050565b6000813590506123db81612b8e565b92915050565b6000815190506123f081612b8e565b92915050565b60006020828403121561240857600080fd5b600061241684828501612357565b91505092915050565b6000806040838503121561243257600080fd5b600061244085828601612357565b9250506020612451858286016123cc565b9150509250929050565b60008060006060848603121561247057600080fd5b600061247e86828701612357565b935050602061248f868287016123cc565b92505060406124a0868287016123cc565b9150509250925092565b6000606082840312156124bc57600080fd5b60006124ca8482850161236c565b91505092915050565b6000602082840312156124e557600080fd5b60006124f3848285016123cc565b91505092915050565b60006020828403121561250e57600080fd5b600061251c848285016123e1565b91505092915050565b60006125318383612631565b60608301905092915050565b61254681612969565b82525050565b60006125578261284b565b6125618185612863565b935061256c8361283b565b8060005b8381101561259d5781516125848882612525565b975061258f83612856565b925050600181019050612570565b5085935050505092915050565b6125b3816129a5565b82525050565b6125c2816129c9565b82525050565b60006125d5602683612874565b91506125e082612ad6565b604082019050919050565b60006125f8601983612874565b915061260382612b25565b602082019050919050565b600061261b602083612874565b915061262682612b4e565b602082019050919050565b6060820160008201516126476000850182612673565b50602082015161265a6020850182612673565b50604082015161266d6040850182612673565b50505050565b61267c8161299b565b82525050565b61268b8161299b565b82525050565b60006020820190506126a6600083018461253d565b92915050565b60006060820190506126c1600083018661253d565b6126ce602083018561253d565b6126db6040830184612682565b949350505050565b60006040820190506126f8600083018561253d565b6127056020830184612682565b9392505050565b6000606082019050612721600083018661253d565b61272e6020830185612682565b61273b6040830184612682565b949350505050565b6000602082019050818103600083015261275d818461254c565b905092915050565b600060208201905061277a60008301846125aa565b92915050565b600060208201905061279560008301846125b9565b92915050565b600060208201905081810360008301526127b4816125c8565b9050919050565b600060208201905081810360008301526127d4816125eb565b9050919050565b600060208201905081810360008301526127f48161260e565b9050919050565b60006020820190506128106000830184612682565b92915050565b6000612820612831565b905061282c82826129ed565b919050565b6000604051905090565b6000819050602082019050919050565b600081519050919050565b6000602082019050919050565b600082825260208201905092915050565b600082825260208201905092915050565b60006128908261299b565b915061289b8361299b565b9250827fffffffffffffffffffffffffffffffffffffffffffffffffffffffffffffffff038211156128d0576128cf612a67565b5b828201905092915050565b60006128e68261299b565b91506128f18361299b565b9250817fffffffffffffffffffffffffffffffffffffffffffffffffffffffffffffffff048311821515161561292a57612929612a67565b5b828202905092915050565b60006129408261299b565b915061294b8361299b565b92508282101561295e5761295d612a67565b5b828203905092915050565b60006129748261297b565b9050919050565b600073ffffffffffffffffffffffffffffffffffffffff82169050919050565b6000819050919050565b60006129b0826129b7565b9050919050565b60006129c28261297b565b9050919050565b60006129d4826129db565b9050919050565b60006129e68261297b565b9050919050565b6129f682612ac5565b810181811067ffffffffffffffff82111715612a1557612a14612a96565b5b80604052505050565b6000612a298261299b565b91507fffffffffffffffffffffffffffffffffffffffffffffffffffffffffffffffff821415612a5c57612a5b612a67565b5b600182019050919050565b7f4e487b7100000000000000000000000000000000000000000000000000000000600052601160045260246000fd5b7f4e487b7100000000000000000000000000000000000000000000000000000000600052604160045260246000fd5b6000601f19601f8301169050919050565b7f4f776e61626c653a206e6577206f776e657220697320746865207a65726f206160008201527f6464726573730000000000000000000000000000000000000000000000000000602082015250565b7f4e6f7420656e6f75676820746f6b656e7320746f206275726e00000000000000600082015250565b7f4f776e61626c653a2063616c6c6572206973206e6f7420746865206f776e6572600082015250565b612b8081612969565b8114612b8b57600080fd5b50565b612b978161299b565b8114612ba257600080fd5b5056fea2646970667358221220f96cbecfde59df8e66f99df9a81a6617e56033442eef0ddac06c36377346321564736f6c63430008040033",
					"opcodes": "PUSH1 0x80 PUSH1 0x40 MSTORE PUSH1 0x1E PUSH1 0x3 SSTORE PUSH1 0x1 PUSH1 0x4 SSTORE CALLVALUE DUP1 ISZERO PUSH3 0x1B JUMPI PUSH1 0x0 DUP1 REVERT JUMPDEST POP PUSH1 0x40 MLOAD PUSH3 0x30C5 CODESIZE SUB DUP1 PUSH3 0x30C5 DUP4 CODECOPY DUP2 DUP2 ADD PUSH1 0x40 MSTORE DUP2 ADD SWAP1 PUSH3 0x41 SWAP2 SWAP1 PUSH3 0x330 JUMP JUMPDEST PUSH3 0x61 PUSH3 0x55 PUSH3 0xFC PUSH1 0x20 SHL PUSH1 0x20 SHR JUMP JUMPDEST PUSH3 0x104 PUSH1 0x20 SHL PUSH1 0x20 SHR JUMP JUMPDEST PUSH3 0x72 CALLER PUSH3 0x1C8 PUSH1 0x20 SHL PUSH1 0x20 SHR JUMP JUMPDEST DUP2 PUSH1 0x1 PUSH1 0x0 PUSH2 0x100 EXP DUP2 SLOAD DUP2 PUSH20 0xFFFFFFFFFFFFFFFFFFFFFFFFFFFFFFFFFFFFFFFF MUL NOT AND SWAP1 DUP4 PUSH20 0xFFFFFFFFFFFFFFFFFFFFFFFFFFFFFFFFFFFFFFFF AND MUL OR SWAP1 SSTORE POP DUP1 PUSH1 0x2 PUSH1 0x0 PUSH2 0x100 EXP DUP2 SLOAD DUP2 PUSH20 0xFFFFFFFFFFFFFFFFFFFFFFFFFFFFFFFFFFFFFFFF MUL NOT AND SWAP1 DUP4 PUSH20 0xFFFFFFFFFFFFFFFFFFFFFFFFFFFFFFFFFFFFFFFF AND MUL OR SWAP1 SSTORE POP POP POP PUSH3 0x4DA JUMP JUMPDEST PUSH1 0x0 CALLER SWAP1 POP SWAP1 JUMP JUMPDEST PUSH1 0x0 DUP1 PUSH1 0x0 SWAP1 SLOAD SWAP1 PUSH2 0x100 EXP SWAP1 DIV PUSH20 0xFFFFFFFFFFFFFFFFFFFFFFFFFFFFFFFFFFFFFFFF AND SWAP1 POP DUP2 PUSH1 0x0 DUP1 PUSH2 0x100 EXP DUP2 SLOAD DUP2 PUSH20 0xFFFFFFFFFFFFFFFFFFFFFFFFFFFFFFFFFFFFFFFF MUL NOT AND SWAP1 DUP4 PUSH20 0xFFFFFFFFFFFFFFFFFFFFFFFFFFFFFFFFFFFFFFFF AND MUL OR SWAP1 SSTORE POP DUP2 PUSH20 0xFFFFFFFFFFFFFFFFFFFFFFFFFFFFFFFFFFFFFFFF AND DUP2 PUSH20 0xFFFFFFFFFFFFFFFFFFFFFFFFFFFFFFFFFFFFFFFF AND PUSH32 0x8BE0079C531659141344CD1FD0A4F28419497F9722A3DAAFE3B4186F6B6457E0 PUSH1 0x40 MLOAD PUSH1 0x40 MLOAD DUP1 SWAP2 SUB SWAP1 LOG3 POP POP JUMP JUMPDEST PUSH3 0x1D8 PUSH3 0x25F PUSH1 0x20 SHL PUSH1 0x20 SHR JUMP JUMPDEST PUSH1 0x0 PUSH20 0xFFFFFFFFFFFFFFFFFFFFFFFFFFFFFFFFFFFFFFFF AND DUP2 PUSH20 0xFFFFFFFFFFFFFFFFFFFFFFFFFFFFFFFFFFFFFFFF AND EQ ISZERO PUSH3 0x24B JUMPI PUSH1 0x40 MLOAD PUSH32 0x8C379A000000000000000000000000000000000000000000000000000000000 DUP2 MSTORE PUSH1 0x4 ADD PUSH3 0x242 SWAP1 PUSH3 0x3BF JUMP JUMPDEST PUSH1 0x40 MLOAD DUP1 SWAP2 SUB SWAP1 REVERT JUMPDEST PUSH3 0x25C DUP2 PUSH3 0x104 PUSH1 0x20 SHL PUSH1 0x20 SHR JUMP JUMPDEST POP JUMP JUMPDEST PUSH3 0x26F PUSH3 0xFC PUSH1 0x20 SHL PUSH1 0x20 SHR JUMP JUMPDEST PUSH20 0xFFFFFFFFFFFFFFFFFFFFFFFFFFFFFFFFFFFFFFFF AND PUSH3 0x295 PUSH3 0x2F0 PUSH1 0x20 SHL PUSH1 0x20 SHR JUMP JUMPDEST PUSH20 0xFFFFFFFFFFFFFFFFFFFFFFFFFFFFFFFFFFFFFFFF AND EQ PUSH3 0x2EE JUMPI PUSH1 0x40 MLOAD PUSH32 0x8C379A000000000000000000000000000000000000000000000000000000000 DUP2 MSTORE PUSH1 0x4 ADD PUSH3 0x2E5 SWAP1 PUSH3 0x3E1 JUMP JUMPDEST PUSH1 0x40 MLOAD DUP1 SWAP2 SUB SWAP1 REVERT JUMPDEST JUMP JUMPDEST PUSH1 0x0 DUP1 PUSH1 0x0 SWAP1 SLOAD SWAP1 PUSH2 0x100 EXP SWAP1 DIV PUSH20 0xFFFFFFFFFFFFFFFFFFFFFFFFFFFFFFFFFFFFFFFF AND SWAP1 POP SWAP1 JUMP JUMPDEST PUSH1 0x0 DUP2 MLOAD SWAP1 POP PUSH3 0x32A DUP2 PUSH3 0x4C0 JUMP JUMPDEST SWAP3 SWAP2 POP POP JUMP JUMPDEST PUSH1 0x0 DUP1 PUSH1 0x40 DUP4 DUP6 SUB SLT ISZERO PUSH3 0x344 JUMPI PUSH1 0x0 DUP1 REVERT JUMPDEST PUSH1 0x0 PUSH3 0x354 DUP6 DUP3 DUP7 ADD PUSH3 0x319 JUMP JUMPDEST SWAP3 POP POP PUSH1 0x20 PUSH3 0x367 DUP6 DUP3 DUP7 ADD PUSH3 0x319 JUMP JUMPDEST SWAP2 POP POP SWAP3 POP SWAP3 SWAP1 POP JUMP JUMPDEST PUSH1 0x0 PUSH3 0x380 PUSH1 0x26 DUP4 PUSH3 0x403 JUMP JUMPDEST SWAP2 POP PUSH3 0x38D DUP3 PUSH3 0x448 JUMP JUMPDEST PUSH1 0x40 DUP3 ADD SWAP1 POP SWAP2 SWAP1 POP JUMP JUMPDEST PUSH1 0x0 PUSH3 0x3A7 PUSH1 0x20 DUP4 PUSH3 0x403 JUMP JUMPDEST SWAP2 POP PUSH3 0x3B4 DUP3 PUSH3 0x497 JUMP JUMPDEST PUSH1 0x20 DUP3 ADD SWAP1 POP SWAP2 SWAP1 POP JUMP JUMPDEST PUSH1 0x0 PUSH1 0x20 DUP3 ADD SWAP1 POP DUP2 DUP2 SUB PUSH1 0x0 DUP4 ADD MSTORE PUSH3 0x3DA DUP2 PUSH3 0x371 JUMP JUMPDEST SWAP1 POP SWAP2 SWAP1 POP JUMP JUMPDEST PUSH1 0x0 PUSH1 0x20 DUP3 ADD SWAP1 POP DUP2 DUP2 SUB PUSH1 0x0 DUP4 ADD MSTORE PUSH3 0x3FC DUP2 PUSH3 0x398 JUMP JUMPDEST SWAP1 POP SWAP2 SWAP1 POP JUMP JUMPDEST PUSH1 0x0 DUP3 DUP3 MSTORE PUSH1 0x20 DUP3 ADD SWAP1 POP SWAP3 SWAP2 POP POP JUMP JUMPDEST PUSH1 0x0 PUSH3 0x421 DUP3 PUSH3 0x428 JUMP JUMPDEST SWAP1 POP SWAP2 SWAP1 POP JUMP JUMPDEST PUSH1 0x0 PUSH20 0xFFFFFFFFFFFFFFFFFFFFFFFFFFFFFFFFFFFFFFFF DUP3 AND SWAP1 POP SWAP2 SWAP1 POP JUMP JUMPDEST PUSH32 0x4F776E61626C653A206E6577206F776E657220697320746865207A65726F2061 PUSH1 0x0 DUP3 ADD MSTORE PUSH32 0x6464726573730000000000000000000000000000000000000000000000000000 PUSH1 0x20 DUP3 ADD MSTORE POP JUMP JUMPDEST PUSH32 0x4F776E61626C653A2063616C6C6572206973206E6F7420746865206F776E6572 PUSH1 0x0 DUP3 ADD MSTORE POP JUMP JUMPDEST PUSH3 0x4CB DUP2 PUSH3 0x414 JUMP JUMPDEST DUP2 EQ PUSH3 0x4D7 JUMPI PUSH1 0x0 DUP1 REVERT JUMPDEST POP JUMP JUMPDEST PUSH2 0x2BDB DUP1 PUSH3 0x4EA PUSH1 0x0 CODECOPY PUSH1 0x0 RETURN INVALID PUSH1 0x80 PUSH1 0x40 MSTORE CALLVALUE DUP1 ISZERO PUSH2 0x10 JUMPI PUSH1 0x0 DUP1 REVERT JUMPDEST POP PUSH1 0x4 CALLDATASIZE LT PUSH2 0x173 JUMPI PUSH1 0x0 CALLDATALOAD PUSH1 0xE0 SHR DUP1 PUSH4 0x8DA5CB5B GT PUSH2 0xDE JUMPI DUP1 PUSH4 0xBE1CBA2F GT PUSH2 0x97 JUMPI DUP1 PUSH4 0xD45519A1 GT PUSH2 0x71 JUMPI DUP1 PUSH4 0xD45519A1 EQ PUSH2 0x3EE JUMPI DUP1 PUSH4 0xF2FDE38B EQ PUSH2 0x40A JUMPI DUP1 PUSH4 0xF699ACA7 EQ PUSH2 0x426 JUMPI DUP1 PUSH4 0xFE590724 EQ PUSH2 0x442 JUMPI PUSH2 0x173 JUMP JUMPDEST DUP1 PUSH4 0xBE1CBA2F EQ PUSH2 0x382 JUMPI DUP1 PUSH4 0xCC55209B EQ PUSH2 0x3A0 JUMPI DUP1 PUSH4 0xD140BBE1 EQ PUSH2 0x3BE JUMPI PUSH2 0x173 JUMP JUMPDEST DUP1 PUSH4 0x8DA5CB5B EQ PUSH2 0x2C0 JUMPI DUP1 PUSH4 0x9F9DB463 EQ PUSH2 0x2DE JUMPI DUP1 PUSH4 0xAE9957EC EQ PUSH2 0x30E JUMPI DUP1 PUSH4 0xAEC898CA EQ PUSH2 0x32A JUMPI DUP1 PUSH4 0xB5E6DE75 EQ PUSH2 0x348 JUMPI DUP1 PUSH4 0xB7F6D906 EQ PUSH2 0x364 JUMPI PUSH2 0x173 JUMP JUMPDEST DUP1 PUSH4 0x4D781330 GT PUSH2 0x130 JUMPI DUP1 PUSH4 0x4D781330 EQ PUSH2 0x224 JUMPI DUP1 PUSH4 0x6219005D EQ PUSH2 0x242 JUMPI DUP1 PUSH4 0x644B637E EQ PUSH2 0x25E JUMPI DUP1 PUSH4 0x715018A6 EQ PUSH2 0x27A JUMPI DUP1 PUSH4 0x8A67F1E5 EQ PUSH2 0x284 JUMPI DUP1 PUSH4 0x8BF02357 EQ PUSH2 0x2A2 JUMPI PUSH2 0x173 JUMP JUMPDEST DUP1 PUSH4 0x95BCDB6 EQ PUSH2 0x178 JUMPI DUP1 PUSH4 0xC39FC27 EQ PUSH2 0x194 JUMPI DUP1 PUSH4 0x1F054BBE EQ PUSH2 0x1B0 JUMPI DUP1 PUSH4 0x2CD3D43D EQ PUSH2 0x1CE JUMPI DUP1 PUSH4 0x48DB11F8 EQ PUSH2 0x1EA JUMPI DUP1 PUSH4 0x4D2E8994 EQ PUSH2 0x206 JUMPI JUMPDEST PUSH1 0x0 DUP1 REVERT JUMPDEST PUSH2 0x192 PUSH1 0x4 DUP1 CALLDATASIZE SUB DUP2 ADD SWAP1 PUSH2 0x18D SWAP2 SWAP1 PUSH2 0x245B JUMP JUMPDEST PUSH2 0x472 JUMP JUMPDEST STOP JUMPDEST PUSH2 0x1AE PUSH1 0x4 DUP1 CALLDATASIZE SUB DUP2 ADD SWAP1 PUSH2 0x1A9 SWAP2 SWAP1 PUSH2 0x24D3 JUMP JUMPDEST PUSH2 0x48B JUMP JUMPDEST STOP JUMPDEST PUSH2 0x1B8 PUSH2 0x49D JUMP JUMPDEST PUSH1 0x40 MLOAD PUSH2 0x1C5 SWAP2 SWAP1 PUSH2 0x2780 JUMP JUMPDEST PUSH1 0x40 MLOAD DUP1 SWAP2 SUB SWAP1 RETURN JUMPDEST PUSH2 0x1E8 PUSH1 0x4 DUP1 CALLDATASIZE SUB DUP2 ADD SWAP1 PUSH2 0x1E3 SWAP2 SWAP1 PUSH2 0x23F6 JUMP JUMPDEST PUSH2 0x4C3 JUMP JUMPDEST STOP JUMPDEST PUSH2 0x204 PUSH1 0x4 DUP1 CALLDATASIZE SUB DUP2 ADD SWAP1 PUSH2 0x1FF SWAP2 SWAP1 PUSH2 0x241F JUMP JUMPDEST PUSH2 0xB88 JUMP JUMPDEST STOP JUMPDEST PUSH2 0x20E PUSH2 0x13E6 JUMP JUMPDEST PUSH1 0x40 MLOAD PUSH2 0x21B SWAP2 SWAP1 PUSH2 0x27FB JUMP JUMPDEST PUSH1 0x40 MLOAD DUP1 SWAP2 SUB SWAP1 RETURN JUMPDEST PUSH2 0x22C PUSH2 0x148D JUMP JUMPDEST PUSH1 0x40 MLOAD PUSH2 0x239 SWAP2 SWAP1 PUSH2 0x27FB JUMP JUMPDEST PUSH1 0x40 MLOAD DUP1 SWAP2 SUB SWAP1 RETURN JUMPDEST PUSH2 0x25C PUSH1 0x4 DUP1 CALLDATASIZE SUB DUP2 ADD SWAP1 PUSH2 0x257 SWAP2 SWAP1 PUSH2 0x24D3 JUMP JUMPDEST PUSH2 0x1534 JUMP JUMPDEST STOP JUMPDEST PUSH2 0x278 PUSH1 0x4 DUP1 CALLDATASIZE SUB DUP2 ADD SWAP1 PUSH2 0x273 SWAP2 SWAP1 PUSH2 0x241F JUMP JUMPDEST PUSH2 0x1546 JUMP JUMPDEST STOP JUMPDEST PUSH2 0x282 PUSH2 0x175D JUMP JUMPDEST STOP JUMPDEST PUSH2 0x28C PUSH2 0x1771 JUMP JUMPDEST PUSH1 0x40 MLOAD PUSH2 0x299 SWAP2 SWAP1 PUSH2 0x27FB JUMP JUMPDEST PUSH1 0x40 MLOAD DUP1 SWAP2 SUB SWAP1 RETURN JUMPDEST PUSH2 0x2AA PUSH2 0x1818 JUMP JUMPDEST PUSH1 0x40 MLOAD PUSH2 0x2B7 SWAP2 SWAP1 PUSH2 0x27FB JUMP JUMPDEST PUSH1 0x40 MLOAD DUP1 SWAP2 SUB SWAP1 RETURN JUMPDEST PUSH2 0x2C8 PUSH2 0x181E JUMP JUMPDEST PUSH1 0x40 MLOAD PUSH2 0x2D5 SWAP2 SWAP1 PUSH2 0x2691 JUMP JUMPDEST PUSH1 0x40 MLOAD DUP1 SWAP2 SUB SWAP1 RETURN JUMPDEST PUSH2 0x2F8 PUSH1 0x4 DUP1 CALLDATASIZE SUB DUP2 ADD SWAP1 PUSH2 0x2F3 SWAP2 SWAP1 PUSH2 0x23F6 JUMP JUMPDEST PUSH2 0x1847 JUMP JUMPDEST PUSH1 0x40 MLOAD PUSH2 0x305 SWAP2 SWAP1 PUSH2 0x27FB JUMP JUMPDEST PUSH1 0x40 MLOAD DUP1 SWAP2 SUB SWAP1 RETURN JUMPDEST PUSH2 0x328 PUSH1 0x4 DUP1 CALLDATASIZE SUB DUP2 ADD SWAP1 PUSH2 0x323 SWAP2 SWAP1 PUSH2 0x241F JUMP JUMPDEST PUSH2 0x18FB JUMP JUMPDEST STOP JUMPDEST PUSH2 0x332 PUSH2 0x19FB JUMP JUMPDEST PUSH1 0x40 MLOAD PUSH2 0x33F SWAP2 SWAP1 PUSH2 0x27FB JUMP JUMPDEST PUSH1 0x40 MLOAD DUP1 SWAP2 SUB SWAP1 RETURN JUMPDEST PUSH2 0x362 PUSH1 0x4 DUP1 CALLDATASIZE SUB DUP2 ADD SWAP1 PUSH2 0x35D SWAP2 SWAP1 PUSH2 0x241F JUMP JUMPDEST PUSH2 0x1AA2 JUMP JUMPDEST STOP JUMPDEST PUSH2 0x36C PUSH2 0x1B8C JUMP JUMPDEST PUSH1 0x40 MLOAD PUSH2 0x379 SWAP2 SWAP1 PUSH2 0x2765 JUMP JUMPDEST PUSH1 0x40 MLOAD DUP1 SWAP2 SUB SWAP1 RETURN JUMPDEST PUSH2 0x38A PUSH2 0x1BB2 JUMP JUMPDEST PUSH1 0x40 MLOAD PUSH2 0x397 SWAP2 SWAP1 PUSH2 0x27FB JUMP JUMPDEST PUSH1 0x40 MLOAD DUP1 SWAP2 SUB SWAP1 RETURN JUMPDEST PUSH2 0x3A8 PUSH2 0x1C59 JUMP JUMPDEST PUSH1 0x40 MLOAD PUSH2 0x3B5 SWAP2 SWAP1 PUSH2 0x27FB JUMP JUMPDEST PUSH1 0x40 MLOAD DUP1 SWAP2 SUB SWAP1 RETURN JUMPDEST PUSH2 0x3D8 PUSH1 0x4 DUP1 CALLDATASIZE SUB DUP2 ADD SWAP1 PUSH2 0x3D3 SWAP2 SWAP1 PUSH2 0x23F6 JUMP JUMPDEST PUSH2 0x1C5F JUMP JUMPDEST PUSH1 0x40 MLOAD PUSH2 0x3E5 SWAP2 SWAP1 PUSH2 0x27FB JUMP JUMPDEST PUSH1 0x40 MLOAD DUP1 SWAP2 SUB SWAP1 RETURN JUMPDEST PUSH2 0x408 PUSH1 0x4 DUP1 CALLDATASIZE SUB DUP2 ADD SWAP1 PUSH2 0x403 SWAP2 SWAP1 PUSH2 0x241F JUMP JUMPDEST PUSH2 0x1D13 JUMP JUMPDEST STOP JUMPDEST PUSH2 0x424 PUSH1 0x4 DUP1 CALLDATASIZE SUB DUP2 ADD SWAP1 PUSH2 0x41F SWAP2 SWAP1 PUSH2 0x23F6 JUMP JUMPDEST PUSH2 0x1D38 JUMP JUMPDEST STOP JUMPDEST PUSH2 0x440 PUSH1 0x4 DUP1 CALLDATASIZE SUB DUP2 ADD SWAP1 PUSH2 0x43B SWAP2 SWAP1 PUSH2 0x241F JUMP JUMPDEST PUSH2 0x1DBC JUMP JUMPDEST STOP JUMPDEST PUSH2 0x45C PUSH1 0x4 DUP1 CALLDATASIZE SUB DUP2 ADD SWAP1 PUSH2 0x457 SWAP2 SWAP1 PUSH2 0x241F JUMP JUMPDEST PUSH2 0x1EB6 JUMP JUMPDEST PUSH1 0x40 MLOAD PUSH2 0x469 SWAP2 SWAP1 PUSH2 0x2743 JUMP JUMPDEST PUSH1 0x40 MLOAD DUP1 SWAP2 SUB SWAP1 RETURN JUMPDEST PUSH2 0x47C DUP4 DUP4 PUSH2 0x1D13 JUMP JUMPDEST PUSH2 0x486 DUP4 DUP3 PUSH2 0x1DBC JUMP JUMPDEST POP POP POP JUMP JUMPDEST PUSH2 0x493 PUSH2 0x21EC JUMP JUMPDEST DUP1 PUSH1 0x4 DUP2 SWAP1 SSTORE POP POP JUMP JUMPDEST PUSH1 0x1 PUSH1 0x0 SWAP1 SLOAD SWAP1 PUSH2 0x100 EXP SWAP1 DIV PUSH20 0xFFFFFFFFFFFFFFFFFFFFFFFFFFFFFFFFFFFFFFFF AND DUP2 JUMP JUMPDEST PUSH2 0x4CB PUSH2 0x21EC JUMP JUMPDEST PUSH1 0x0 PUSH1 0x1 PUSH1 0x0 SWAP1 SLOAD SWAP1 PUSH2 0x100 EXP SWAP1 DIV PUSH20 0xFFFFFFFFFFFFFFFFFFFFFFFFFFFFFFFFFFFFFFFF AND PUSH20 0xFFFFFFFFFFFFFFFFFFFFFFFFFFFFFFFFFFFFFFFF AND PUSH4 0x6E76C3CF DUP4 PUSH1 0x40 MLOAD DUP3 PUSH4 0xFFFFFFFF AND PUSH1 0xE0 SHL DUP2 MSTORE PUSH1 0x4 ADD PUSH2 0x528 SWAP2 SWAP1 PUSH2 0x2691 JUMP JUMPDEST PUSH1 0x20 PUSH1 0x40 MLOAD DUP1 DUP4 SUB DUP2 DUP7 DUP1 EXTCODESIZE ISZERO DUP1 ISZERO PUSH2 0x540 JUMPI PUSH1 0x0 DUP1 REVERT JUMPDEST POP GAS STATICCALL ISZERO DUP1 ISZERO PUSH2 0x554 JUMPI RETURNDATASIZE PUSH1 0x0 DUP1 RETURNDATACOPY RETURNDATASIZE PUSH1 0x0 REVERT JUMPDEST POP POP POP POP PUSH1 0x40 MLOAD RETURNDATASIZE PUSH1 0x1F NOT PUSH1 0x1F DUP3 ADD AND DUP3 ADD DUP1 PUSH1 0x40 MSTORE POP DUP2 ADD SWAP1 PUSH2 0x578 SWAP2 SWAP1 PUSH2 0x24FC JUMP JUMPDEST SWAP1 POP PUSH1 0x0 PUSH1 0x1 PUSH1 0x0 SWAP1 SLOAD SWAP1 PUSH2 0x100 EXP SWAP1 DIV PUSH20 0xFFFFFFFFFFFFFFFFFFFFFFFFFFFFFFFFFFFFFFFF AND PUSH20 0xFFFFFFFFFFFFFFFFFFFFFFFFFFFFFFFFFFFFFFFF AND PUSH4 0xB1398144 DUP5 DUP5 PUSH1 0x40 MLOAD DUP4 PUSH4 0xFFFFFFFF AND PUSH1 0xE0 SHL DUP2 MSTORE PUSH1 0x4 ADD PUSH2 0x5D9 SWAP3 SWAP2 SWAP1 PUSH2 0x26E3 JUMP JUMPDEST PUSH1 0x60 PUSH1 0x40 MLOAD DUP1 DUP4 SUB DUP2 DUP7 DUP1 EXTCODESIZE ISZERO DUP1 ISZERO PUSH2 0x5F1 JUMPI PUSH1 0x0 DUP1 REVERT JUMPDEST POP GAS STATICCALL ISZERO DUP1 ISZERO PUSH2 0x605 JUMPI RETURNDATASIZE PUSH1 0x0 DUP1 RETURNDATACOPY RETURNDATASIZE PUSH1 0x0 REVERT JUMPDEST POP POP POP POP PUSH1 0x40 MLOAD RETURNDATASIZE PUSH1 0x1F NOT PUSH1 0x1F DUP3 ADD AND DUP3 ADD DUP1 PUSH1 0x40 MSTORE POP DUP2 ADD SWAP1 PUSH2 0x629 SWAP2 SWAP1 PUSH2 0x24AA JUMP JUMPDEST SWAP1 POP PUSH1 0x0 JUMPDEST PUSH1 0x0 DUP4 EQ ISZERO DUP1 ISZERO PUSH2 0x650 JUMPI POP TIMESTAMP PUSH1 0x3 SLOAD DUP4 PUSH1 0x0 ADD MLOAD PUSH2 0x64D SWAP2 SWAP1 PUSH2 0x2885 JUMP JUMPDEST GT ISZERO JUMPDEST ISZERO PUSH2 0x98A JUMPI PUSH1 0x1 PUSH1 0x0 SWAP1 SLOAD SWAP1 PUSH2 0x100 EXP SWAP1 DIV PUSH20 0xFFFFFFFFFFFFFFFFFFFFFFFFFFFFFFFFFFFFFFFF AND PUSH20 0xFFFFFFFFFFFFFFFFFFFFFFFFFFFFFFFFFFFFFFFF AND PUSH4 0x7AB436F8 DUP6 DUP5 PUSH1 0x40 ADD MLOAD PUSH1 0x40 MLOAD DUP4 PUSH4 0xFFFFFFFF AND PUSH1 0xE0 SHL DUP2 MSTORE PUSH1 0x4 ADD PUSH2 0x6B6 SWAP3 SWAP2 SWAP1 PUSH2 0x26E3 JUMP JUMPDEST PUSH1 0x0 PUSH1 0x40 MLOAD DUP1 DUP4 SUB DUP2 PUSH1 0x0 DUP8 DUP1 EXTCODESIZE ISZERO DUP1 ISZERO PUSH2 0x6D0 JUMPI PUSH1 0x0 DUP1 REVERT JUMPDEST POP GAS CALL ISZERO DUP1 ISZERO PUSH2 0x6E4 JUMPI RETURNDATASIZE PUSH1 0x0 DUP1 RETURNDATACOPY RETURNDATASIZE PUSH1 0x0 REVERT JUMPDEST POP POP POP POP DUP3 PUSH1 0x1 PUSH1 0x0 SWAP1 SLOAD SWAP1 PUSH2 0x100 EXP SWAP1 DIV PUSH20 0xFFFFFFFFFFFFFFFFFFFFFFFFFFFFFFFFFFFFFFFF AND PUSH20 0xFFFFFFFFFFFFFFFFFFFFFFFFFFFFFFFFFFFFFFFF AND PUSH4 0xBAAFD2D8 DUP7 PUSH1 0x40 MLOAD DUP3 PUSH4 0xFFFFFFFF AND PUSH1 0xE0 SHL DUP2 MSTORE PUSH1 0x4 ADD PUSH2 0x744 SWAP2 SWAP1 PUSH2 0x2691 JUMP JUMPDEST PUSH1 0x20 PUSH1 0x40 MLOAD DUP1 DUP4 SUB DUP2 DUP7 DUP1 EXTCODESIZE ISZERO DUP1 ISZERO PUSH2 0x75C JUMPI PUSH1 0x0 DUP1 REVERT JUMPDEST POP GAS STATICCALL ISZERO DUP1 ISZERO PUSH2 0x770 JUMPI RETURNDATASIZE PUSH1 0x0 DUP1 RETURNDATACOPY RETURNDATASIZE PUSH1 0x0 REVERT JUMPDEST POP POP POP POP PUSH1 0x40 MLOAD RETURNDATASIZE PUSH1 0x1F NOT PUSH1 0x1F DUP3 ADD AND DUP3 ADD DUP1 PUSH1 0x40 MSTORE POP DUP2 ADD SWAP1 PUSH2 0x794 SWAP2 SWAP1 PUSH2 0x24FC JUMP JUMPDEST EQ ISZERO PUSH2 0x82E JUMPI PUSH1 0x1 PUSH1 0x0 SWAP1 SLOAD SWAP1 PUSH2 0x100 EXP SWAP1 DIV PUSH20 0xFFFFFFFFFFFFFFFFFFFFFFFFFFFFFFFFFFFFFFFF AND PUSH20 0xFFFFFFFFFFFFFFFFFFFFFFFFFFFFFFFFFFFFFFFF AND PUSH4 0x85393A8E DUP6 DUP5 PUSH1 0x40 ADD MLOAD PUSH1 0x40 MLOAD DUP4 PUSH4 0xFFFFFFFF AND PUSH1 0xE0 SHL DUP2 MSTORE PUSH1 0x4 ADD PUSH2 0x7FB SWAP3 SWAP2 SWAP1 PUSH2 0x26E3 JUMP JUMPDEST PUSH1 0x0 PUSH1 0x40 MLOAD DUP1 DUP4 SUB DUP2 PUSH1 0x0 DUP8 DUP1 EXTCODESIZE ISZERO DUP1 ISZERO PUSH2 0x815 JUMPI PUSH1 0x0 DUP1 REVERT JUMPDEST POP GAS CALL ISZERO DUP1 ISZERO PUSH2 0x829 JUMPI RETURNDATASIZE PUSH1 0x0 DUP1 RETURNDATACOPY RETURNDATASIZE PUSH1 0x0 REVERT JUMPDEST POP POP POP POP JUMPDEST DUP2 PUSH1 0x20 ADD MLOAD DUP2 PUSH2 0x83E SWAP2 SWAP1 PUSH2 0x2885 JUMP JUMPDEST SWAP1 POP PUSH1 0x1 PUSH1 0x0 SWAP1 SLOAD SWAP1 PUSH2 0x100 EXP SWAP1 DIV PUSH20 0xFFFFFFFFFFFFFFFFFFFFFFFFFFFFFFFFFFFFFFFF AND PUSH20 0xFFFFFFFFFFFFFFFFFFFFFFFFFFFFFFFFFFFFFFFF AND PUSH4 0xD89B5ED6 DUP6 DUP6 PUSH1 0x40 MLOAD DUP4 PUSH4 0xFFFFFFFF AND PUSH1 0xE0 SHL DUP2 MSTORE PUSH1 0x4 ADD PUSH2 0x89D SWAP3 SWAP2 SWAP1 PUSH2 0x26E3 JUMP JUMPDEST PUSH1 0x0 PUSH1 0x40 MLOAD DUP1 DUP4 SUB DUP2 PUSH1 0x0 DUP8 DUP1 EXTCODESIZE ISZERO DUP1 ISZERO PUSH2 0x8B7 JUMPI PUSH1 0x0 DUP1 REVERT JUMPDEST POP GAS CALL ISZERO DUP1 ISZERO PUSH2 0x8CB JUMPI RETURNDATASIZE PUSH1 0x0 DUP1 RETURNDATACOPY RETURNDATASIZE PUSH1 0x0 REVERT JUMPDEST POP POP POP POP DUP2 PUSH1 0x40 ADD MLOAD SWAP3 POP PUSH1 0x1 PUSH1 0x0 SWAP1 SLOAD SWAP1 PUSH2 0x100 EXP SWAP1 DIV PUSH20 0xFFFFFFFFFFFFFFFFFFFFFFFFFFFFFFFFFFFFFFFF AND PUSH20 0xFFFFFFFFFFFFFFFFFFFFFFFFFFFFFFFFFFFFFFFF AND PUSH4 0xB1398144 DUP6 DUP6 PUSH1 0x40 MLOAD DUP4 PUSH4 0xFFFFFFFF AND PUSH1 0xE0 SHL DUP2 MSTORE PUSH1 0x4 ADD PUSH2 0x933 SWAP3 SWAP2 SWAP1 PUSH2 0x26E3 JUMP JUMPDEST PUSH1 0x60 PUSH1 0x40 MLOAD DUP1 DUP4 SUB DUP2 DUP7 DUP1 EXTCODESIZE ISZERO DUP1 ISZERO PUSH2 0x94B JUMPI PUSH1 0x0 DUP1 REVERT JUMPDEST POP GAS STATICCALL ISZERO DUP1 ISZERO PUSH2 0x95F JUMPI RETURNDATASIZE PUSH1 0x0 DUP1 RETURNDATACOPY RETURNDATASIZE PUSH1 0x0 REVERT JUMPDEST POP POP POP POP PUSH1 0x40 MLOAD RETURNDATASIZE PUSH1 0x1F NOT PUSH1 0x1F DUP3 ADD AND DUP3 ADD DUP1 PUSH1 0x40 MSTORE POP DUP2 ADD SWAP1 PUSH2 0x983 SWAP2 SWAP1 PUSH2 0x24AA JUMP JUMPDEST SWAP2 POP PUSH2 0x62E JUMP JUMPDEST PUSH1 0x1 PUSH1 0x0 SWAP1 SLOAD SWAP1 PUSH2 0x100 EXP SWAP1 DIV PUSH20 0xFFFFFFFFFFFFFFFFFFFFFFFFFFFFFFFFFFFFFFFF AND PUSH20 0xFFFFFFFFFFFFFFFFFFFFFFFFFFFFFFFFFFFFFFFF AND PUSH4 0xCFD4F18A DUP6 DUP4 PUSH1 0x40 MLOAD DUP4 PUSH4 0xFFFFFFFF AND PUSH1 0xE0 SHL DUP2 MSTORE PUSH1 0x4 ADD PUSH2 0x9E7 SWAP3 SWAP2 SWAP1 PUSH2 0x26E3 JUMP JUMPDEST PUSH1 0x0 PUSH1 0x40 MLOAD DUP1 DUP4 SUB DUP2 PUSH1 0x0 DUP8 DUP1 EXTCODESIZE ISZERO DUP1 ISZERO PUSH2 0xA01 JUMPI PUSH1 0x0 DUP1 REVERT JUMPDEST POP GAS CALL ISZERO DUP1 ISZERO PUSH2 0xA15 JUMPI RETURNDATASIZE PUSH1 0x0 DUP1 RETURNDATACOPY RETURNDATASIZE PUSH1 0x0 REVERT JUMPDEST POP POP POP POP PUSH1 0x1 PUSH1 0x0 SWAP1 SLOAD SWAP1 PUSH2 0x100 EXP SWAP1 DIV PUSH20 0xFFFFFFFFFFFFFFFFFFFFFFFFFFFFFFFFFFFFFFFF AND PUSH20 0xFFFFFFFFFFFFFFFFFFFFFFFFFFFFFFFFFFFFFFFF AND PUSH4 0x4B9ECD54 DUP3 PUSH1 0x40 MLOAD DUP3 PUSH4 0xFFFFFFFF AND PUSH1 0xE0 SHL DUP2 MSTORE PUSH1 0x4 ADD PUSH2 0xA74 SWAP2 SWAP1 PUSH2 0x27FB JUMP JUMPDEST PUSH1 0x0 PUSH1 0x40 MLOAD DUP1 DUP4 SUB DUP2 PUSH1 0x0 DUP8 DUP1 EXTCODESIZE ISZERO DUP1 ISZERO PUSH2 0xA8E JUMPI PUSH1 0x0 DUP1 REVERT JUMPDEST POP GAS CALL ISZERO DUP1 ISZERO PUSH2 0xAA2 JUMPI RETURNDATASIZE PUSH1 0x0 DUP1 RETURNDATACOPY RETURNDATASIZE PUSH1 0x0 REVERT JUMPDEST POP POP POP POP PUSH1 0x1 PUSH1 0x0 SWAP1 SLOAD SWAP1 PUSH2 0x100 EXP SWAP1 DIV PUSH20 0xFFFFFFFFFFFFFFFFFFFFFFFFFFFFFFFFFFFFFFFF AND PUSH20 0xFFFFFFFFFFFFFFFFFFFFFFFFFFFFFFFFFFFFFFFF AND PUSH4 0xD53045C8 DUP3 PUSH1 0x40 MLOAD DUP3 PUSH4 0xFFFFFFFF AND PUSH1 0xE0 SHL DUP2 MSTORE PUSH1 0x4 ADD PUSH2 0xB01 SWAP2 SWAP1 PUSH2 0x27FB JUMP JUMPDEST PUSH1 0x0 PUSH1 0x40 MLOAD DUP1 DUP4 SUB DUP2 PUSH1 0x0 DUP8 DUP1 EXTCODESIZE ISZERO DUP1 ISZERO PUSH2 0xB1B JUMPI PUSH1 0x0 DUP1 REVERT JUMPDEST POP GAS CALL ISZERO DUP1 ISZERO PUSH2 0xB2F JUMPI RETURNDATASIZE PUSH1 0x0 DUP1 RETURNDATACOPY RETURNDATASIZE PUSH1 0x0 REVERT JUMPDEST POP POP POP POP TIMESTAMP DUP5 PUSH20 0xFFFFFFFFFFFFFFFFFFFFFFFFFFFFFFFFFFFFFFFF AND PUSH32 0x73D69C2A657BBCB6B4C79961E8103E47CE0ADEEED5DE389007265AC46AEF496B DUP4 PUSH1 0x40 MLOAD PUSH2 0xB7A SWAP2 SWAP1 PUSH2 0x27FB JUMP JUMPDEST PUSH1 0x40 MLOAD DUP1 SWAP2 SUB SWAP1 LOG3 POP POP POP POP JUMP JUMPDEST PUSH2 0xB90 PUSH2 0x21EC JUMP JUMPDEST PUSH2 0xB99 DUP3 PUSH2 0x4C3 JUMP JUMPDEST DUP1 PUSH1 0x1 PUSH1 0x0 SWAP1 SLOAD SWAP1 PUSH2 0x100 EXP SWAP1 DIV PUSH20 0xFFFFFFFFFFFFFFFFFFFFFFFFFFFFFFFFFFFFFFFF AND PUSH20 0xFFFFFFFFFFFFFFFFFFFFFFFFFFFFFFFFFFFFFFFF AND PUSH4 0xAEE9C872 DUP5 PUSH1 0x40 MLOAD DUP3 PUSH4 0xFFFFFFFF AND PUSH1 0xE0 SHL DUP2 MSTORE PUSH1 0x4 ADD PUSH2 0xBF5 SWAP2 SWAP1 PUSH2 0x2691 JUMP JUMPDEST PUSH1 0x20 PUSH1 0x40 MLOAD DUP1 DUP4 SUB DUP2 DUP7 DUP1 EXTCODESIZE ISZERO DUP1 ISZERO PUSH2 0xC0D JUMPI PUSH1 0x0 DUP1 REVERT JUMPDEST POP GAS STATICCALL ISZERO DUP1 ISZERO PUSH2 0xC21 JUMPI RETURNDATASIZE PUSH1 0x0 DUP1 RETURNDATACOPY RETURNDATASIZE PUSH1 0x0 REVERT JUMPDEST POP POP POP POP PUSH1 0x40 MLOAD RETURNDATASIZE PUSH1 0x1F NOT PUSH1 0x1F DUP3 ADD AND DUP3 ADD DUP1 PUSH1 0x40 MSTORE POP DUP2 ADD SWAP1 PUSH2 0xC45 SWAP2 SWAP1 PUSH2 0x24FC JUMP JUMPDEST LT ISZERO PUSH2 0xC86 JUMPI PUSH1 0x40 MLOAD PUSH32 0x8C379A000000000000000000000000000000000000000000000000000000000 DUP2 MSTORE PUSH1 0x4 ADD PUSH2 0xC7D SWAP1 PUSH2 0x27BB JUMP JUMPDEST PUSH1 0x40 MLOAD DUP1 SWAP2 SUB SWAP1 REVERT JUMPDEST PUSH1 0x0 PUSH1 0x1 PUSH1 0x0 SWAP1 SLOAD SWAP1 PUSH2 0x100 EXP SWAP1 DIV PUSH20 0xFFFFFFFFFFFFFFFFFFFFFFFFFFFFFFFFFFFFFFFF AND PUSH20 0xFFFFFFFFFFFFFFFFFFFFFFFFFFFFFFFFFFFFFFFF AND PUSH4 0x6E76C3CF DUP5 PUSH1 0x40 MLOAD DUP3 PUSH4 0xFFFFFFFF AND PUSH1 0xE0 SHL DUP2 MSTORE PUSH1 0x4 ADD PUSH2 0xCE3 SWAP2 SWAP1 PUSH2 0x2691 JUMP JUMPDEST PUSH1 0x20 PUSH1 0x40 MLOAD DUP1 DUP4 SUB DUP2 DUP7 DUP1 EXTCODESIZE ISZERO DUP1 ISZERO PUSH2 0xCFB JUMPI PUSH1 0x0 DUP1 REVERT JUMPDEST POP GAS STATICCALL ISZERO DUP1 ISZERO PUSH2 0xD0F JUMPI RETURNDATASIZE PUSH1 0x0 DUP1 RETURNDATACOPY RETURNDATASIZE PUSH1 0x0 REVERT JUMPDEST POP POP POP POP PUSH1 0x40 MLOAD RETURNDATASIZE PUSH1 0x1F NOT PUSH1 0x1F DUP3 ADD AND DUP3 ADD DUP1 PUSH1 0x40 MSTORE POP DUP2 ADD SWAP1 PUSH2 0xD33 SWAP2 SWAP1 PUSH2 0x24FC JUMP JUMPDEST SWAP1 POP PUSH1 0x0 PUSH1 0x1 PUSH1 0x0 SWAP1 SLOAD SWAP1 PUSH2 0x100 EXP SWAP1 DIV PUSH20 0xFFFFFFFFFFFFFFFFFFFFFFFFFFFFFFFFFFFFFFFF AND PUSH20 0xFFFFFFFFFFFFFFFFFFFFFFFFFFFFFFFFFFFFFFFF AND PUSH4 0xB1398144 DUP6 DUP5 PUSH1 0x40 MLOAD DUP4 PUSH4 0xFFFFFFFF AND PUSH1 0xE0 SHL DUP2 MSTORE PUSH1 0x4 ADD PUSH2 0xD94 SWAP3 SWAP2 SWAP1 PUSH2 0x26E3 JUMP JUMPDEST PUSH1 0x60 PUSH1 0x40 MLOAD DUP1 DUP4 SUB DUP2 DUP7 DUP1 EXTCODESIZE ISZERO DUP1 ISZERO PUSH2 0xDAC JUMPI PUSH1 0x0 DUP1 REVERT JUMPDEST POP GAS STATICCALL ISZERO DUP1 ISZERO PUSH2 0xDC0 JUMPI RETURNDATASIZE PUSH1 0x0 DUP1 RETURNDATACOPY RETURNDATASIZE PUSH1 0x0 REVERT JUMPDEST POP POP POP POP PUSH1 0x40 MLOAD RETURNDATASIZE PUSH1 0x1F NOT PUSH1 0x1F DUP3 ADD AND DUP3 ADD DUP1 PUSH1 0x40 MSTORE POP DUP2 ADD SWAP1 PUSH2 0xDE4 SWAP2 SWAP1 PUSH2 0x24AA JUMP JUMPDEST SWAP1 POP PUSH1 0x0 JUMPDEST DUP4 DUP2 LT ISZERO PUSH2 0x11E7 JUMPI PUSH1 0x0 DUP2 DUP6 PUSH2 0xDFF SWAP2 SWAP1 PUSH2 0x2935 JUMP JUMPDEST SWAP1 POP DUP3 PUSH1 0x20 ADD MLOAD DUP2 LT PUSH2 0x1141 JUMPI DUP3 PUSH1 0x20 ADD MLOAD DUP3 PUSH2 0xE1C SWAP2 SWAP1 PUSH2 0x2885 JUMP JUMPDEST SWAP2 POP PUSH1 0x1 PUSH1 0x0 SWAP1 SLOAD SWAP1 PUSH2 0x100 EXP SWAP1 DIV PUSH20 0xFFFFFFFFFFFFFFFFFFFFFFFFFFFFFFFFFFFFFFFF AND PUSH20 0xFFFFFFFFFFFFFFFFFFFFFFFFFFFFFFFFFFFFFFFF AND PUSH4 0xD89B5ED6 DUP8 DUP7 PUSH1 0x40 MLOAD DUP4 PUSH4 0xFFFFFFFF AND PUSH1 0xE0 SHL DUP2 MSTORE PUSH1 0x4 ADD PUSH2 0xE7B SWAP3 SWAP2 SWAP1 PUSH2 0x26E3 JUMP JUMPDEST PUSH1 0x0 PUSH1 0x40 MLOAD DUP1 DUP4 SUB DUP2 PUSH1 0x0 DUP8 DUP1 EXTCODESIZE ISZERO DUP1 ISZERO PUSH2 0xE95 JUMPI PUSH1 0x0 DUP1 REVERT JUMPDEST POP GAS CALL ISZERO DUP1 ISZERO PUSH2 0xEA9 JUMPI RETURNDATASIZE PUSH1 0x0 DUP1 RETURNDATACOPY RETURNDATASIZE PUSH1 0x0 REVERT JUMPDEST POP POP POP POP PUSH1 0x1 PUSH1 0x0 SWAP1 SLOAD SWAP1 PUSH2 0x100 EXP SWAP1 DIV PUSH20 0xFFFFFFFFFFFFFFFFFFFFFFFFFFFFFFFFFFFFFFFF AND PUSH20 0xFFFFFFFFFFFFFFFFFFFFFFFFFFFFFFFFFFFFFFFF AND PUSH4 0x7AB436F8 DUP8 DUP6 PUSH1 0x40 ADD MLOAD PUSH1 0x40 MLOAD DUP4 PUSH4 0xFFFFFFFF AND PUSH1 0xE0 SHL DUP2 MSTORE PUSH1 0x4 ADD PUSH2 0xF0E SWAP3 SWAP2 SWAP1 PUSH2 0x26E3 JUMP JUMPDEST PUSH1 0x0 PUSH1 0x40 MLOAD DUP1 DUP4 SUB DUP2 PUSH1 0x0 DUP8 DUP1 EXTCODESIZE ISZERO DUP1 ISZERO PUSH2 0xF28 JUMPI PUSH1 0x0 DUP1 REVERT JUMPDEST POP GAS CALL ISZERO DUP1 ISZERO PUSH2 0xF3C JUMPI RETURNDATASIZE PUSH1 0x0 DUP1 RETURNDATACOPY RETURNDATASIZE PUSH1 0x0 REVERT JUMPDEST POP POP POP POP DUP4 PUSH1 0x1 PUSH1 0x0 SWAP1 SLOAD SWAP1 PUSH2 0x100 EXP SWAP1 DIV PUSH20 0xFFFFFFFFFFFFFFFFFFFFFFFFFFFFFFFFFFFFFFFF AND PUSH20 0xFFFFFFFFFFFFFFFFFFFFFFFFFFFFFFFFFFFFFFFF AND PUSH4 0xBAAFD2D8 DUP9 PUSH1 0x40 MLOAD DUP3 PUSH4 0xFFFFFFFF AND PUSH1 0xE0 SHL DUP2 MSTORE PUSH1 0x4 ADD PUSH2 0xF9C SWAP2 SWAP1 PUSH2 0x2691 JUMP JUMPDEST PUSH1 0x20 PUSH1 0x40 MLOAD DUP1 DUP4 SUB DUP2 DUP7 DUP1 EXTCODESIZE ISZERO DUP1 ISZERO PUSH2 0xFB4 JUMPI PUSH1 0x0 DUP1 REVERT JUMPDEST POP GAS STATICCALL ISZERO DUP1 ISZERO PUSH2 0xFC8 JUMPI RETURNDATASIZE PUSH1 0x0 DUP1 RETURNDATACOPY RETURNDATASIZE PUSH1 0x0 REVERT JUMPDEST POP POP POP POP PUSH1 0x40 MLOAD RETURNDATASIZE PUSH1 0x1F NOT PUSH1 0x1F DUP3 ADD AND DUP3 ADD DUP1 PUSH1 0x40 MSTORE POP DUP2 ADD SWAP1 PUSH2 0xFEC SWAP2 SWAP1 PUSH2 0x24FC JUMP JUMPDEST EQ ISZERO PUSH2 0x1086 JUMPI PUSH1 0x1 PUSH1 0x0 SWAP1 SLOAD SWAP1 PUSH2 0x100 EXP SWAP1 DIV PUSH20 0xFFFFFFFFFFFFFFFFFFFFFFFFFFFFFFFFFFFFFFFF AND PUSH20 0xFFFFFFFFFFFFFFFFFFFFFFFFFFFFFFFFFFFFFFFF AND PUSH4 0x85393A8E DUP8 DUP6 PUSH1 0x40 ADD MLOAD PUSH1 0x40 MLOAD DUP4 PUSH4 0xFFFFFFFF AND PUSH1 0xE0 SHL DUP2 MSTORE PUSH1 0x4 ADD PUSH2 0x1053 SWAP3 SWAP2 SWAP1 PUSH2 0x26E3 JUMP JUMPDEST PUSH1 0x0 PUSH1 0x40 MLOAD DUP1 DUP4 SUB DUP2 PUSH1 0x0 DUP8 DUP1 EXTCODESIZE ISZERO DUP1 ISZERO PUSH2 0x106D JUMPI PUSH1 0x0 DUP1 REVERT JUMPDEST POP GAS CALL ISZERO DUP1 ISZERO PUSH2 0x1081 JUMPI RETURNDATASIZE PUSH1 0x0 DUP1 RETURNDATACOPY RETURNDATASIZE PUSH1 0x0 REVERT JUMPDEST POP POP POP POP JUMPDEST DUP3 PUSH1 0x40 ADD MLOAD SWAP4 POP PUSH1 0x1 PUSH1 0x0 SWAP1 SLOAD SWAP1 PUSH2 0x100 EXP SWAP1 DIV PUSH20 0xFFFFFFFFFFFFFFFFFFFFFFFFFFFFFFFFFFFFFFFF AND PUSH20 0xFFFFFFFFFFFFFFFFFFFFFFFFFFFFFFFFFFFFFFFF AND PUSH4 0xB1398144 DUP8 DUP7 PUSH1 0x40 MLOAD DUP4 PUSH4 0xFFFFFFFF AND PUSH1 0xE0 SHL DUP2 MSTORE PUSH1 0x4 ADD PUSH2 0x10EA SWAP3 SWAP2 SWAP1 PUSH2 0x26E3 JUMP JUMPDEST PUSH1 0x60 PUSH1 0x40 MLOAD DUP1 DUP4 SUB DUP2 DUP7 DUP1 EXTCODESIZE ISZERO DUP1 ISZERO PUSH2 0x1102 JUMPI PUSH1 0x0 DUP1 REVERT JUMPDEST POP GAS STATICCALL ISZERO DUP1 ISZERO PUSH2 0x1116 JUMPI RETURNDATASIZE PUSH1 0x0 DUP1 RETURNDATACOPY RETURNDATASIZE PUSH1 0x0 REVERT JUMPDEST POP POP POP POP PUSH1 0x40 MLOAD RETURNDATASIZE PUSH1 0x1F NOT PUSH1 0x1F DUP3 ADD AND DUP3 ADD DUP1 PUSH1 0x40 MSTORE POP DUP2 ADD SWAP1 PUSH2 0x113A SWAP2 SWAP1 PUSH2 0x24AA JUMP JUMPDEST SWAP3 POP PUSH2 0x11E1 JUMP JUMPDEST DUP1 DUP3 PUSH2 0x114D SWAP2 SWAP1 PUSH2 0x2885 JUMP JUMPDEST SWAP2 POP PUSH1 0x1 PUSH1 0x0 SWAP1 SLOAD SWAP1 PUSH2 0x100 EXP SWAP1 DIV PUSH20 0xFFFFFFFFFFFFFFFFFFFFFFFFFFFFFFFFFFFFFFFF AND PUSH20 0xFFFFFFFFFFFFFFFFFFFFFFFFFFFFFFFFFFFFFFFF AND PUSH4 0xEE650665 DUP8 DUP7 DUP5 PUSH1 0x40 MLOAD DUP5 PUSH4 0xFFFFFFFF AND PUSH1 0xE0 SHL DUP2 MSTORE PUSH1 0x4 ADD PUSH2 0x11AE SWAP4 SWAP3 SWAP2 SWAP1 PUSH2 0x270C JUMP JUMPDEST PUSH1 0x0 PUSH1 0x40 MLOAD DUP1 DUP4 SUB DUP2 PUSH1 0x0 DUP8 DUP1 EXTCODESIZE ISZERO DUP1 ISZERO PUSH2 0x11C8 JUMPI PUSH1 0x0 DUP1 REVERT JUMPDEST POP GAS CALL ISZERO DUP1 ISZERO PUSH2 0x11DC JUMPI RETURNDATASIZE PUSH1 0x0 DUP1 RETURNDATACOPY RETURNDATASIZE PUSH1 0x0 REVERT JUMPDEST POP POP POP POP JUMPDEST POP PUSH2 0xDE9 JUMP JUMPDEST PUSH1 0x1 PUSH1 0x0 SWAP1 SLOAD SWAP1 PUSH2 0x100 EXP SWAP1 DIV PUSH20 0xFFFFFFFFFFFFFFFFFFFFFFFFFFFFFFFFFFFFFFFF AND PUSH20 0xFFFFFFFFFFFFFFFFFFFFFFFFFFFFFFFFFFFFFFFF AND PUSH4 0xCFD4F18A DUP7 DUP4 PUSH1 0x40 MLOAD DUP4 PUSH4 0xFFFFFFFF AND PUSH1 0xE0 SHL DUP2 MSTORE PUSH1 0x4 ADD PUSH2 0x1244 SWAP3 SWAP2 SWAP1 PUSH2 0x26E3 JUMP JUMPDEST PUSH1 0x0 PUSH1 0x40 MLOAD DUP1 DUP4 SUB DUP2 PUSH1 0x0 DUP8 DUP1 EXTCODESIZE ISZERO DUP1 ISZERO PUSH2 0x125E JUMPI PUSH1 0x0 DUP1 REVERT JUMPDEST POP GAS CALL ISZERO DUP1 ISZERO PUSH2 0x1272 JUMPI RETURNDATASIZE PUSH1 0x0 DUP1 RETURNDATACOPY RETURNDATASIZE PUSH1 0x0 REVERT JUMPDEST POP POP POP POP PUSH1 0x1 PUSH1 0x0 SWAP1 SLOAD SWAP1 PUSH2 0x100 EXP SWAP1 DIV PUSH20 0xFFFFFFFFFFFFFFFFFFFFFFFFFFFFFFFFFFFFFFFF AND PUSH20 0xFFFFFFFFFFFFFFFFFFFFFFFFFFFFFFFFFFFFFFFF AND PUSH4 0x4B9ECD54 DUP3 PUSH1 0x40 MLOAD DUP3 PUSH4 0xFFFFFFFF AND PUSH1 0xE0 SHL DUP2 MSTORE PUSH1 0x4 ADD PUSH2 0x12D1 SWAP2 SWAP1 PUSH2 0x27FB JUMP JUMPDEST PUSH1 0x0 PUSH1 0x40 MLOAD DUP1 DUP4 SUB DUP2 PUSH1 0x0 DUP8 DUP1 EXTCODESIZE ISZERO DUP1 ISZERO PUSH2 0x12EB JUMPI PUSH1 0x0 DUP1 REVERT JUMPDEST POP GAS CALL ISZERO DUP1 ISZERO PUSH2 0x12FF JUMPI RETURNDATASIZE PUSH1 0x0 DUP1 RETURNDATACOPY RETURNDATASIZE PUSH1 0x0 REVERT JUMPDEST POP POP POP POP PUSH1 0x1 PUSH1 0x0 SWAP1 SLOAD SWAP1 PUSH2 0x100 EXP SWAP1 DIV PUSH20 0xFFFFFFFFFFFFFFFFFFFFFFFFFFFFFFFFFFFFFFFF AND PUSH20 0xFFFFFFFFFFFFFFFFFFFFFFFFFFFFFFFFFFFFFFFF AND PUSH4 0x93F0F55A DUP3 PUSH1 0x40 MLOAD DUP3 PUSH4 0xFFFFFFFF AND PUSH1 0xE0 SHL DUP2 MSTORE PUSH1 0x4 ADD PUSH2 0x135E SWAP2 SWAP1 PUSH2 0x27FB JUMP JUMPDEST PUSH1 0x0 PUSH1 0x40 MLOAD DUP1 DUP4 SUB DUP2 PUSH1 0x0 DUP8 DUP1 EXTCODESIZE ISZERO DUP1 ISZERO PUSH2 0x1378 JUMPI PUSH1 0x0 DUP1 REVERT JUMPDEST POP GAS CALL ISZERO DUP1 ISZERO PUSH2 0x138C JUMPI RETURNDATASIZE PUSH1 0x0 DUP1 RETURNDATACOPY RETURNDATASIZE PUSH1 0x0 REVERT JUMPDEST POP POP POP POP TIMESTAMP DUP6 PUSH20 0xFFFFFFFFFFFFFFFFFFFFFFFFFFFFFFFFFFFFFFFF AND PUSH32 0x80A298B5C21F8032AF01C83F19729136B533B45053EE957C22D08F7C483B974E DUP4 PUSH1 0x40 MLOAD PUSH2 0x13D7 SWAP2 SWAP1 PUSH2 0x27FB JUMP JUMPDEST PUSH1 0x40 MLOAD DUP1 SWAP2 SUB SWAP1 LOG3 POP POP POP POP POP JUMP JUMPDEST PUSH1 0x0 PUSH1 0x1 PUSH1 0x0 SWAP1 SLOAD SWAP1 PUSH2 0x100 EXP SWAP1 DIV PUSH20 0xFFFFFFFFFFFFFFFFFFFFFFFFFFFFFFFFFFFFFFFF AND PUSH20 0xFFFFFFFFFFFFFFFFFFFFFFFFFFFFFFFFFFFFFFFF AND PUSH4 0xCE5E9365 PUSH1 0x40 MLOAD DUP2 PUSH4 0xFFFFFFFF AND PUSH1 0xE0 SHL DUP2 MSTORE PUSH1 0x4 ADD PUSH1 0x20 PUSH1 0x40 MLOAD DUP1 DUP4 SUB DUP2 DUP7 DUP1 EXTCODESIZE ISZERO DUP1 ISZERO PUSH2 0x1450 JUMPI PUSH1 0x0 DUP1 REVERT JUMPDEST POP GAS STATICCALL ISZERO DUP1 ISZERO PUSH2 0x1464 JUMPI RETURNDATASIZE PUSH1 0x0 DUP1 RETURNDATACOPY RETURNDATASIZE PUSH1 0x0 REVERT JUMPDEST POP POP POP POP PUSH1 0x40 MLOAD RETURNDATASIZE PUSH1 0x1F NOT PUSH1 0x1F DUP3 ADD AND DUP3 ADD DUP1 PUSH1 0x40 MSTORE POP DUP2 ADD SWAP1 PUSH2 0x1488 SWAP2 SWAP1 PUSH2 0x24FC JUMP JUMPDEST SWAP1 POP SWAP1 JUMP JUMPDEST PUSH1 0x0 PUSH1 0x1 PUSH1 0x0 SWAP1 SLOAD SWAP1 PUSH2 0x100 EXP SWAP1 DIV PUSH20 0xFFFFFFFFFFFFFFFFFFFFFFFFFFFFFFFFFFFFFFFF AND PUSH20 0xFFFFFFFFFFFFFFFFFFFFFFFFFFFFFFFFFFFFFFFF AND PUSH4 0xD89135CD PUSH1 0x40 MLOAD DUP2 PUSH4 0xFFFFFFFF AND PUSH1 0xE0 SHL DUP2 MSTORE PUSH1 0x4 ADD PUSH1 0x20 PUSH1 0x40 MLOAD DUP1 DUP4 SUB DUP2 DUP7 DUP1 EXTCODESIZE ISZERO DUP1 ISZERO PUSH2 0x14F7 JUMPI PUSH1 0x0 DUP1 REVERT JUMPDEST POP GAS STATICCALL ISZERO DUP1 ISZERO PUSH2 0x150B JUMPI RETURNDATASIZE PUSH1 0x0 DUP1 RETURNDATACOPY RETURNDATASIZE PUSH1 0x0 REVERT JUMPDEST POP POP POP POP PUSH1 0x40 MLOAD RETURNDATASIZE PUSH1 0x1F NOT PUSH1 0x1F DUP3 ADD AND DUP3 ADD DUP1 PUSH1 0x40 MSTORE POP DUP2 ADD SWAP1 PUSH2 0x152F SWAP2 SWAP1 PUSH2 0x24FC JUMP JUMPDEST SWAP1 POP SWAP1 JUMP JUMPDEST PUSH2 0x153C PUSH2 0x21EC JUMP JUMPDEST DUP1 PUSH1 0x3 DUP2 SWAP1 SSTORE POP POP JUMP JUMPDEST PUSH2 0x154E PUSH2 0x21EC JUMP JUMPDEST PUSH2 0x1557 DUP3 PUSH2 0x4C3 JUMP JUMPDEST PUSH1 0x0 TIMESTAMP SWAP1 POP PUSH1 0x1 PUSH1 0x0 SWAP1 SLOAD SWAP1 PUSH2 0x100 EXP SWAP1 DIV PUSH20 0xFFFFFFFFFFFFFFFFFFFFFFFFFFFFFFFFFFFFFFFF AND PUSH20 0xFFFFFFFFFFFFFFFFFFFFFFFFFFFFFFFFFFFFFFFF AND PUSH4 0x4EB84791 DUP5 DUP4 DUP6 PUSH1 0x40 MLOAD DUP5 PUSH4 0xFFFFFFFF AND PUSH1 0xE0 SHL DUP2 MSTORE PUSH1 0x4 ADD PUSH2 0x15BB SWAP4 SWAP3 SWAP2 SWAP1 PUSH2 0x270C JUMP JUMPDEST PUSH1 0x0 PUSH1 0x40 MLOAD DUP1 DUP4 SUB DUP2 PUSH1 0x0 DUP8 DUP1 EXTCODESIZE ISZERO DUP1 ISZERO PUSH2 0x15D5 JUMPI PUSH1 0x0 DUP1 REVERT JUMPDEST POP GAS CALL ISZERO DUP1 ISZERO PUSH2 0x15E9 JUMPI RETURNDATASIZE PUSH1 0x0 DUP1 RETURNDATACOPY RETURNDATASIZE PUSH1 0x0 REVERT JUMPDEST POP POP POP POP PUSH1 0x1 PUSH1 0x0 SWAP1 SLOAD SWAP1 PUSH2 0x100 EXP SWAP1 DIV PUSH20 0xFFFFFFFFFFFFFFFFFFFFFFFFFFFFFFFFFFFFFFFF AND PUSH20 0xFFFFFFFFFFFFFFFFFFFFFFFFFFFFFFFFFFFFFFFF AND PUSH4 0x21E5383A DUP5 DUP5 PUSH1 0x40 MLOAD DUP4 PUSH4 0xFFFFFFFF AND PUSH1 0xE0 SHL DUP2 MSTORE PUSH1 0x4 ADD PUSH2 0x164A SWAP3 SWAP2 SWAP1 PUSH2 0x26E3 JUMP JUMPDEST PUSH1 0x0 PUSH1 0x40 MLOAD DUP1 DUP4 SUB DUP2 PUSH1 0x0 DUP8 DUP1 EXTCODESIZE ISZERO DUP1 ISZERO PUSH2 0x1664 JUMPI PUSH1 0x0 DUP1 REVERT JUMPDEST POP GAS CALL ISZERO DUP1 ISZERO PUSH2 0x1678 JUMPI RETURNDATASIZE PUSH1 0x0 DUP1 RETURNDATACOPY RETURNDATASIZE PUSH1 0x0 REVERT JUMPDEST POP POP POP POP PUSH1 0x1 PUSH1 0x0 SWAP1 SLOAD SWAP1 PUSH2 0x100 EXP SWAP1 DIV PUSH20 0xFFFFFFFFFFFFFFFFFFFFFFFFFFFFFFFFFFFFFFFF AND PUSH20 0xFFFFFFFFFFFFFFFFFFFFFFFFFFFFFFFFFFFFFFFF AND PUSH4 0xE468688E DUP4 PUSH1 0x40 MLOAD DUP3 PUSH4 0xFFFFFFFF AND PUSH1 0xE0 SHL DUP2 MSTORE PUSH1 0x4 ADD PUSH2 0x16D7 SWAP2 SWAP1 PUSH2 0x27FB JUMP JUMPDEST PUSH1 0x0 PUSH1 0x40 MLOAD DUP1 DUP4 SUB DUP2 PUSH1 0x0 DUP8 DUP1 EXTCODESIZE ISZERO DUP1 ISZERO PUSH2 0x16F1 JUMPI PUSH1 0x0 DUP1 REVERT JUMPDEST POP GAS CALL ISZERO DUP1 ISZERO PUSH2 0x1705 JUMPI RETURNDATASIZE PUSH1 0x0 DUP1 RETURNDATACOPY RETURNDATASIZE PUSH1 0x0 REVERT JUMPDEST POP POP POP POP DUP1 DUP4 PUSH20 0xFFFFFFFFFFFFFFFFFFFFFFFFFFFFFFFFFFFFFFFF AND PUSH32 0x938975F453799F51FA7C7FF2E9329114295FC240C7D4BCB30A0B782C4E90C0A1 DUP5 PUSH1 0x40 MLOAD PUSH2 0x1750 SWAP2 SWAP1 PUSH2 0x27FB JUMP JUMPDEST PUSH1 0x40 MLOAD DUP1 SWAP2 SUB SWAP1 LOG3 POP POP POP JUMP JUMPDEST PUSH2 0x1765 PUSH2 0x21EC JUMP JUMPDEST PUSH2 0x176F PUSH1 0x0 PUSH2 0x226A JUMP JUMPDEST JUMP JUMPDEST PUSH1 0x0 PUSH1 0x1 PUSH1 0x0 SWAP1 SLOAD SWAP1 PUSH2 0x100 EXP SWAP1 DIV PUSH20 0xFFFFFFFFFFFFFFFFFFFFFFFFFFFFFFFFFFFFFFFF AND PUSH20 0xFFFFFFFFFFFFFFFFFFFFFFFFFFFFFFFFFFFFFFFF AND PUSH4 0x18160DDD PUSH1 0x40 MLOAD DUP2 PUSH4 0xFFFFFFFF AND PUSH1 0xE0 SHL DUP2 MSTORE PUSH1 0x4 ADD PUSH1 0x20 PUSH1 0x40 MLOAD DUP1 DUP4 SUB DUP2 DUP7 DUP1 EXTCODESIZE ISZERO DUP1 ISZERO PUSH2 0x17DB JUMPI PUSH1 0x0 DUP1 REVERT JUMPDEST POP GAS STATICCALL ISZERO DUP1 ISZERO PUSH2 0x17EF JUMPI RETURNDATASIZE PUSH1 0x0 DUP1 RETURNDATACOPY RETURNDATASIZE PUSH1 0x0 REVERT JUMPDEST POP POP POP POP PUSH1 0x40 MLOAD RETURNDATASIZE PUSH1 0x1F NOT PUSH1 0x1F DUP3 ADD AND DUP3 ADD DUP1 PUSH1 0x40 MSTORE POP DUP2 ADD SWAP1 PUSH2 0x1813 SWAP2 SWAP1 PUSH2 0x24FC JUMP JUMPDEST SWAP1 POP SWAP1 JUMP JUMPDEST PUSH1 0x3 SLOAD DUP2 JUMP JUMPDEST PUSH1 0x0 DUP1 PUSH1 0x0 SWAP1 SLOAD SWAP1 PUSH2 0x100 EXP SWAP1 DIV PUSH20 0xFFFFFFFFFFFFFFFFFFFFFFFFFFFFFFFFFFFFFFFF AND SWAP1 POP SWAP1 JUMP JUMPDEST PUSH1 0x0 PUSH1 0x2 PUSH1 0x0 SWAP1 SLOAD SWAP1 PUSH2 0x100 EXP SWAP1 DIV PUSH20 0xFFFFFFFFFFFFFFFFFFFFFFFFFFFFFFFFFFFFFFFF AND PUSH20 0xFFFFFFFFFFFFFFFFFFFFFFFFFFFFFFFFFFFFFFFF AND PUSH4 0xAEE9C872 DUP4 PUSH1 0x40 MLOAD DUP3 PUSH4 0xFFFFFFFF AND PUSH1 0xE0 SHL DUP2 MSTORE PUSH1 0x4 ADD PUSH2 0x18A4 SWAP2 SWAP1 PUSH2 0x2691 JUMP JUMPDEST PUSH1 0x20 PUSH1 0x40 MLOAD DUP1 DUP4 SUB DUP2 DUP7 DUP1 EXTCODESIZE ISZERO DUP1 ISZERO PUSH2 0x18BC JUMPI PUSH1 0x0 DUP1 REVERT JUMPDEST POP GAS STATICCALL ISZERO DUP1 ISZERO PUSH2 0x18D0 JUMPI RETURNDATASIZE PUSH1 0x0 DUP1 RETURNDATACOPY RETURNDATASIZE PUSH1 0x0 REVERT JUMPDEST POP POP POP POP PUSH1 0x40 MLOAD RETURNDATASIZE PUSH1 0x1F NOT PUSH1 0x1F DUP3 ADD AND DUP3 ADD DUP1 PUSH1 0x40 MSTORE POP DUP2 ADD SWAP1 PUSH2 0x18F4 SWAP2 SWAP1 PUSH2 0x24FC JUMP JUMPDEST SWAP1 POP SWAP2 SWAP1 POP JUMP JUMPDEST PUSH2 0x1903 PUSH2 0x21EC JUMP JUMPDEST PUSH1 0x2 PUSH1 0x0 SWAP1 SLOAD SWAP1 PUSH2 0x100 EXP SWAP1 DIV PUSH20 0xFFFFFFFFFFFFFFFFFFFFFFFFFFFFFFFFFFFFFFFF AND PUSH20 0xFFFFFFFFFFFFFFFFFFFFFFFFFFFFFFFFFFFFFFFF AND PUSH4 0x40C10F19 DUP4 DUP4 PUSH1 0x40 MLOAD DUP4 PUSH4 0xFFFFFFFF AND PUSH1 0xE0 SHL DUP2 MSTORE PUSH1 0x4 ADD PUSH2 0x1960 SWAP3 SWAP2 SWAP1 PUSH2 0x26E3 JUMP JUMPDEST PUSH1 0x0 PUSH1 0x40 MLOAD DUP1 DUP4 SUB DUP2 PUSH1 0x0 DUP8 DUP1 EXTCODESIZE ISZERO DUP1 ISZERO PUSH2 0x197A JUMPI PUSH1 0x0 DUP1 REVERT JUMPDEST POP GAS CALL ISZERO DUP1 ISZERO PUSH2 0x198E JUMPI RETURNDATASIZE PUSH1 0x0 DUP1 RETURNDATACOPY RETURNDATASIZE PUSH1 0x0 REVERT JUMPDEST POP POP POP POP DUP2 PUSH20 0xFFFFFFFFFFFFFFFFFFFFFFFFFFFFFFFFFFFFFFFF AND CALLER PUSH20 0xFFFFFFFFFFFFFFFFFFFFFFFFFFFFFFFFFFFFFFFF AND PUSH32 0x758E0E7BDDA0715B5E694FF0D2F9126DF6022B2AB018E1CDF24BA95BD32C89F1 DUP4 PUSH1 0x40 MLOAD PUSH2 0x19EF SWAP2 SWAP1 PUSH2 0x27FB JUMP JUMPDEST PUSH1 0x40 MLOAD DUP1 SWAP2 SUB SWAP1 LOG3 POP POP JUMP JUMPDEST PUSH1 0x0 PUSH1 0x2 PUSH1 0x0 SWAP1 SLOAD SWAP1 PUSH2 0x100 EXP SWAP1 DIV PUSH20 0xFFFFFFFFFFFFFFFFFFFFFFFFFFFFFFFFFFFFFFFF AND PUSH20 0xFFFFFFFFFFFFFFFFFFFFFFFFFFFFFFFFFFFFFFFF AND PUSH4 0x18160DDD PUSH1 0x40 MLOAD DUP2 PUSH4 0xFFFFFFFF AND PUSH1 0xE0 SHL DUP2 MSTORE PUSH1 0x4 ADD PUSH1 0x20 PUSH1 0x40 MLOAD DUP1 DUP4 SUB DUP2 DUP7 DUP1 EXTCODESIZE ISZERO DUP1 ISZERO PUSH2 0x1A65 JUMPI PUSH1 0x0 DUP1 REVERT JUMPDEST POP GAS STATICCALL ISZERO DUP1 ISZERO PUSH2 0x1A79 JUMPI RETURNDATASIZE PUSH1 0x0 DUP1 RETURNDATACOPY RETURNDATASIZE PUSH1 0x0 REVERT JUMPDEST POP POP POP POP PUSH1 0x40 MLOAD RETURNDATASIZE PUSH1 0x1F NOT PUSH1 0x1F DUP3 ADD AND DUP3 ADD DUP1 PUSH1 0x40 MSTORE POP DUP2 ADD SWAP1 PUSH2 0x1A9D SWAP2 SWAP1 PUSH2 0x24FC JUMP JUMPDEST SWAP1 POP SWAP1 JUMP JUMPDEST PUSH2 0x1AAA PUSH2 0x21EC JUMP JUMPDEST PUSH1 0x2 PUSH1 0x0 SWAP1 SLOAD SWAP1 PUSH2 0x100 EXP SWAP1 DIV PUSH20 0xFFFFFFFFFFFFFFFFFFFFFFFFFFFFFFFFFFFFFFFF AND PUSH20 0xFFFFFFFFFFFFFFFFFFFFFFFFFFFFFFFFFFFFFFFF AND PUSH4 0x9DC29FAC DUP4 DUP4 PUSH1 0x40 MLOAD DUP4 PUSH4 0xFFFFFFFF AND PUSH1 0xE0 SHL DUP2 MSTORE PUSH1 0x4 ADD PUSH2 0x1B07 SWAP3 SWAP2 SWAP1 PUSH2 0x26E3 JUMP JUMPDEST PUSH1 0x0 PUSH1 0x40 MLOAD DUP1 DUP4 SUB DUP2 PUSH1 0x0 DUP8 DUP1 EXTCODESIZE ISZERO DUP1 ISZERO PUSH2 0x1B21 JUMPI PUSH1 0x0 DUP1 REVERT JUMPDEST POP GAS CALL ISZERO DUP1 ISZERO PUSH2 0x1B35 JUMPI RETURNDATASIZE PUSH1 0x0 DUP1 RETURNDATACOPY RETURNDATASIZE PUSH1 0x0 REVERT JUMPDEST POP POP POP POP TIMESTAMP DUP3 PUSH20 0xFFFFFFFFFFFFFFFFFFFFFFFFFFFFFFFFFFFFFFFF AND PUSH32 0x1C435E120AF6F9CBAA8588942EB2F441F8BA3CE076838B00394C313438029141 DUP4 PUSH1 0x40 MLOAD PUSH2 0x1B80 SWAP2 SWAP1 PUSH2 0x27FB JUMP JUMPDEST PUSH1 0x40 MLOAD DUP1 SWAP2 SUB SWAP1 LOG3 POP POP JUMP JUMPDEST PUSH1 0x2 PUSH1 0x0 SWAP1 SLOAD SWAP1 PUSH2 0x100 EXP SWAP1 DIV PUSH20 0xFFFFFFFFFFFFFFFFFFFFFFFFFFFFFFFFFFFFFFFF AND DUP2 JUMP JUMPDEST PUSH1 0x0 PUSH1 0x2 PUSH1 0x0 SWAP1 SLOAD SWAP1 PUSH2 0x100 EXP SWAP1 DIV PUSH20 0xFFFFFFFFFFFFFFFFFFFFFFFFFFFFFFFFFFFFFFFF AND PUSH20 0xFFFFFFFFFFFFFFFFFFFFFFFFFFFFFFFFFFFFFFFF AND PUSH4 0xD89135CD PUSH1 0x40 MLOAD DUP2 PUSH4 0xFFFFFFFF AND PUSH1 0xE0 SHL DUP2 MSTORE PUSH1 0x4 ADD PUSH1 0x20 PUSH1 0x40 MLOAD DUP1 DUP4 SUB DUP2 DUP7 DUP1 EXTCODESIZE ISZERO DUP1 ISZERO PUSH2 0x1C1C JUMPI PUSH1 0x0 DUP1 REVERT JUMPDEST POP GAS STATICCALL ISZERO DUP1 ISZERO PUSH2 0x1C30 JUMPI RETURNDATASIZE PUSH1 0x0 DUP1 RETURNDATACOPY RETURNDATASIZE PUSH1 0x0 REVERT JUMPDEST POP POP POP POP PUSH1 0x40 MLOAD RETURNDATASIZE PUSH1 0x1F NOT PUSH1 0x1F DUP3 ADD AND DUP3 ADD DUP1 PUSH1 0x40 MSTORE POP DUP2 ADD SWAP1 PUSH2 0x1C54 SWAP2 SWAP1 PUSH2 0x24FC JUMP JUMPDEST SWAP1 POP SWAP1 JUMP JUMPDEST PUSH1 0x4 SLOAD DUP2 JUMP JUMPDEST PUSH1 0x0 PUSH1 0x1 PUSH1 0x0 SWAP1 SLOAD SWAP1 PUSH2 0x100 EXP SWAP1 DIV PUSH20 0xFFFFFFFFFFFFFFFFFFFFFFFFFFFFFFFFFFFFFFFF AND PUSH20 0xFFFFFFFFFFFFFFFFFFFFFFFFFFFFFFFFFFFFFFFF AND PUSH4 0xAEE9C872 DUP4 PUSH1 0x40 MLOAD DUP3 PUSH4 0xFFFFFFFF AND PUSH1 0xE0 SHL DUP2 MSTORE PUSH1 0x4 ADD PUSH2 0x1CBC SWAP2 SWAP1 PUSH2 0x2691 JUMP JUMPDEST PUSH1 0x20 PUSH1 0x40 MLOAD DUP1 DUP4 SUB DUP2 DUP7 DUP1 EXTCODESIZE ISZERO DUP1 ISZERO PUSH2 0x1CD4 JUMPI PUSH1 0x0 DUP1 REVERT JUMPDEST POP GAS STATICCALL ISZERO DUP1 ISZERO PUSH2 0x1CE8 JUMPI RETURNDATASIZE PUSH1 0x0 DUP1 RETURNDATACOPY RETURNDATASIZE PUSH1 0x0 REVERT JUMPDEST POP POP POP POP PUSH1 0x40 MLOAD RETURNDATASIZE PUSH1 0x1F NOT PUSH1 0x1F DUP3 ADD AND DUP3 ADD DUP1 PUSH1 0x40 MSTORE POP DUP2 ADD SWAP1 PUSH2 0x1D0C SWAP2 SWAP1 PUSH2 0x24FC JUMP JUMPDEST SWAP1 POP SWAP2 SWAP1 POP JUMP JUMPDEST PUSH2 0x1D2A CALLER PUSH1 0x4 SLOAD DUP4 PUSH2 0x1D25 SWAP2 SWAP1 PUSH2 0x28DB JUMP JUMPDEST PUSH2 0xB88 JUMP JUMPDEST PUSH2 0x1D34 DUP3 DUP3 PUSH2 0x18FB JUMP JUMPDEST POP POP JUMP JUMPDEST PUSH2 0x1D40 PUSH2 0x21EC JUMP JUMPDEST PUSH1 0x0 PUSH20 0xFFFFFFFFFFFFFFFFFFFFFFFFFFFFFFFFFFFFFFFF AND DUP2 PUSH20 0xFFFFFFFFFFFFFFFFFFFFFFFFFFFFFFFFFFFFFFFF AND EQ ISZERO PUSH2 0x1DB0 JUMPI PUSH1 0x40 MLOAD PUSH32 0x8C379A000000000000000000000000000000000000000000000000000000000 DUP2 MSTORE PUSH1 0x4 ADD PUSH2 0x1DA7 SWAP1 PUSH2 0x279B JUMP JUMPDEST PUSH1 0x40 MLOAD DUP1 SWAP2 SUB SWAP1 REVERT JUMPDEST PUSH2 0x1DB9 DUP2 PUSH2 0x226A JUMP JUMPDEST POP JUMP JUMPDEST PUSH1 0x2 PUSH1 0x0 SWAP1 SLOAD SWAP1 PUSH2 0x100 EXP SWAP1 DIV PUSH20 0xFFFFFFFFFFFFFFFFFFFFFFFFFFFFFFFFFFFFFFFF AND PUSH20 0xFFFFFFFFFFFFFFFFFFFFFFFFFFFFFFFFFFFFFFFF AND PUSH4 0xBEABACC8 CALLER DUP5 DUP5 PUSH1 0x40 MLOAD DUP5 PUSH4 0xFFFFFFFF AND PUSH1 0xE0 SHL DUP2 MSTORE PUSH1 0x4 ADD PUSH2 0x1E1B SWAP4 SWAP3 SWAP2 SWAP1 PUSH2 0x26AC JUMP JUMPDEST PUSH1 0x0 PUSH1 0x40 MLOAD DUP1 DUP4 SUB DUP2 PUSH1 0x0 DUP8 DUP1 EXTCODESIZE ISZERO DUP1 ISZERO PUSH2 0x1E35 JUMPI PUSH1 0x0 DUP1 REVERT JUMPDEST POP GAS CALL ISZERO DUP1 ISZERO PUSH2 0x1E49 JUMPI RETURNDATASIZE PUSH1 0x0 DUP1 RETURNDATACOPY RETURNDATASIZE PUSH1 0x0 REVERT JUMPDEST POP POP POP POP DUP2 PUSH20 0xFFFFFFFFFFFFFFFFFFFFFFFFFFFFFFFFFFFFFFFF AND CALLER PUSH20 0xFFFFFFFFFFFFFFFFFFFFFFFFFFFFFFFFFFFFFFFF AND PUSH32 0xCDF5FE2846ACDBBAC796CDD717A184ADCB9C43F109696332629B668600BA0183 DUP4 PUSH1 0x40 MLOAD PUSH2 0x1EAA SWAP2 SWAP1 PUSH2 0x27FB JUMP JUMPDEST PUSH1 0x40 MLOAD DUP1 SWAP2 SUB SWAP1 LOG3 POP POP JUMP JUMPDEST PUSH1 0x60 PUSH1 0x0 PUSH1 0x1 PUSH1 0x0 SWAP1 SLOAD SWAP1 PUSH2 0x100 EXP SWAP1 DIV PUSH20 0xFFFFFFFFFFFFFFFFFFFFFFFFFFFFFFFFFFFFFFFF AND PUSH20 0xFFFFFFFFFFFFFFFFFFFFFFFFFFFFFFFFFFFFFFFF AND PUSH4 0x6E76C3CF DUP6 PUSH1 0x40 MLOAD DUP3 PUSH4 0xFFFFFFFF AND PUSH1 0xE0 SHL DUP2 MSTORE PUSH1 0x4 ADD PUSH2 0x1F15 SWAP2 SWAP1 PUSH2 0x2691 JUMP JUMPDEST PUSH1 0x20 PUSH1 0x40 MLOAD DUP1 DUP4 SUB DUP2 DUP7 DUP1 EXTCODESIZE ISZERO DUP1 ISZERO PUSH2 0x1F2D JUMPI PUSH1 0x0 DUP1 REVERT JUMPDEST POP GAS STATICCALL ISZERO DUP1 ISZERO PUSH2 0x1F41 JUMPI RETURNDATASIZE PUSH1 0x0 DUP1 RETURNDATACOPY RETURNDATASIZE PUSH1 0x0 REVERT JUMPDEST POP POP POP POP PUSH1 0x40 MLOAD RETURNDATASIZE PUSH1 0x1F NOT PUSH1 0x1F DUP3 ADD AND DUP3 ADD DUP1 PUSH1 0x40 MSTORE POP DUP2 ADD SWAP1 PUSH2 0x1F65 SWAP2 SWAP1 PUSH2 0x24FC JUMP JUMPDEST SWAP1 POP PUSH1 0x0 PUSH1 0x1 DUP3 PUSH1 0x1 PUSH1 0x0 SWAP1 SLOAD SWAP1 PUSH2 0x100 EXP SWAP1 DIV PUSH20 0xFFFFFFFFFFFFFFFFFFFFFFFFFFFFFFFFFFFFFFFF AND PUSH20 0xFFFFFFFFFFFFFFFFFFFFFFFFFFFFFFFFFFFFFFFF AND PUSH4 0xBAAFD2D8 DUP9 PUSH1 0x40 MLOAD DUP3 PUSH4 0xFFFFFFFF AND PUSH1 0xE0 SHL DUP2 MSTORE PUSH1 0x4 ADD PUSH2 0x1FC7 SWAP2 SWAP1 PUSH2 0x2691 JUMP JUMPDEST PUSH1 0x20 PUSH1 0x40 MLOAD DUP1 DUP4 SUB DUP2 DUP7 DUP1 EXTCODESIZE ISZERO DUP1 ISZERO PUSH2 0x1FDF JUMPI PUSH1 0x0 DUP1 REVERT JUMPDEST POP GAS STATICCALL ISZERO DUP1 ISZERO PUSH2 0x1FF3 JUMPI RETURNDATASIZE PUSH1 0x0 DUP1 RETURNDATACOPY RETURNDATASIZE PUSH1 0x0 REVERT JUMPDEST POP POP POP POP PUSH1 0x40 MLOAD RETURNDATASIZE PUSH1 0x1F NOT PUSH1 0x1F DUP3 ADD AND DUP3 ADD DUP1 PUSH1 0x40 MSTORE POP DUP2 ADD SWAP1 PUSH2 0x2017 SWAP2 SWAP1 PUSH2 0x24FC JUMP JUMPDEST PUSH2 0x2021 SWAP2 SWAP1 PUSH2 0x2935 JUMP JUMPDEST PUSH2 0x202B SWAP2 SWAP1 PUSH2 0x2885 JUMP JUMPDEST SWAP1 POP PUSH1 0x0 DUP5 EQ DUP1 PUSH2 0x203B JUMPI POP DUP1 DUP5 GT JUMPDEST ISZERO PUSH2 0x2044 JUMPI DUP1 SWAP4 POP JUMPDEST PUSH1 0x0 DUP5 PUSH8 0xFFFFFFFFFFFFFFFF DUP2 GT ISZERO PUSH2 0x2086 JUMPI PUSH32 0x4E487B7100000000000000000000000000000000000000000000000000000000 PUSH1 0x0 MSTORE PUSH1 0x41 PUSH1 0x4 MSTORE PUSH1 0x24 PUSH1 0x0 REVERT JUMPDEST PUSH1 0x40 MLOAD SWAP1 DUP1 DUP3 MSTORE DUP1 PUSH1 0x20 MUL PUSH1 0x20 ADD DUP3 ADD PUSH1 0x40 MSTORE DUP1 ISZERO PUSH2 0x20BF JUMPI DUP2 PUSH1 0x20 ADD JUMPDEST PUSH2 0x20AC PUSH2 0x2336 JUMP JUMPDEST DUP2 MSTORE PUSH1 0x20 ADD SWAP1 PUSH1 0x1 SWAP1 SUB SWAP1 DUP2 PUSH2 0x20A4 JUMPI SWAP1 POP JUMPDEST POP SWAP1 POP PUSH1 0x0 JUMPDEST DUP6 DUP2 LT ISZERO PUSH2 0x21DF JUMPI PUSH1 0x1 PUSH1 0x0 SWAP1 SLOAD SWAP1 PUSH2 0x100 EXP SWAP1 DIV PUSH20 0xFFFFFFFFFFFFFFFFFFFFFFFFFFFFFFFFFFFFFFFF AND PUSH20 0xFFFFFFFFFFFFFFFFFFFFFFFFFFFFFFFFFFFFFFFF AND PUSH4 0xB1398144 DUP9 DUP7 PUSH1 0x40 MLOAD DUP4 PUSH4 0xFFFFFFFF AND PUSH1 0xE0 SHL DUP2 MSTORE PUSH1 0x4 ADD PUSH2 0x212A SWAP3 SWAP2 SWAP1 PUSH2 0x26E3 JUMP JUMPDEST PUSH1 0x60 PUSH1 0x40 MLOAD DUP1 DUP4 SUB DUP2 DUP7 DUP1 EXTCODESIZE ISZERO DUP1 ISZERO PUSH2 0x2142 JUMPI PUSH1 0x0 DUP1 REVERT JUMPDEST POP GAS STATICCALL ISZERO DUP1 ISZERO PUSH2 0x2156 JUMPI RETURNDATASIZE PUSH1 0x0 DUP1 RETURNDATACOPY RETURNDATASIZE PUSH1 0x0 REVERT JUMPDEST POP POP POP POP PUSH1 0x40 MLOAD RETURNDATASIZE PUSH1 0x1F NOT PUSH1 0x1F DUP3 ADD AND DUP3 ADD DUP1 PUSH1 0x40 MSTORE POP DUP2 ADD SWAP1 PUSH2 0x217A SWAP2 SWAP1 PUSH2 0x24AA JUMP JUMPDEST DUP3 DUP3 DUP2 MLOAD DUP2 LT PUSH2 0x21B3 JUMPI PUSH32 0x4E487B7100000000000000000000000000000000000000000000000000000000 PUSH1 0x0 MSTORE PUSH1 0x32 PUSH1 0x4 MSTORE PUSH1 0x24 PUSH1 0x0 REVERT JUMPDEST PUSH1 0x20 MUL PUSH1 0x20 ADD ADD DUP2 SWAP1 MSTORE POP DUP4 DUP1 PUSH2 0x21C9 SWAP1 PUSH2 0x2A1E JUMP JUMPDEST SWAP5 POP POP DUP1 DUP1 PUSH2 0x21D7 SWAP1 PUSH2 0x2A1E JUMP JUMPDEST SWAP2 POP POP PUSH2 0x20C5 JUMP JUMPDEST DUP2 SWAP5 POP POP POP POP POP SWAP3 SWAP2 POP POP JUMP JUMPDEST PUSH2 0x21F4 PUSH2 0x232E JUMP JUMPDEST PUSH20 0xFFFFFFFFFFFFFFFFFFFFFFFFFFFFFFFFFFFFFFFF AND PUSH2 0x2212 PUSH2 0x181E JUMP JUMPDEST PUSH20 0xFFFFFFFFFFFFFFFFFFFFFFFFFFFFFFFFFFFFFFFF AND EQ PUSH2 0x2268 JUMPI PUSH1 0x40 MLOAD PUSH32 0x8C379A000000000000000000000000000000000000000000000000000000000 DUP2 MSTORE PUSH1 0x4 ADD PUSH2 0x225F SWAP1 PUSH2 0x27DB JUMP JUMPDEST PUSH1 0x40 MLOAD DUP1 SWAP2 SUB SWAP1 REVERT JUMPDEST JUMP JUMPDEST PUSH1 0x0 DUP1 PUSH1 0x0 SWAP1 SLOAD SWAP1 PUSH2 0x100 EXP SWAP1 DIV PUSH20 0xFFFFFFFFFFFFFFFFFFFFFFFFFFFFFFFFFFFFFFFF AND SWAP1 POP DUP2 PUSH1 0x0 DUP1 PUSH2 0x100 EXP DUP2 SLOAD DUP2 PUSH20 0xFFFFFFFFFFFFFFFFFFFFFFFFFFFFFFFFFFFFFFFF MUL NOT AND SWAP1 DUP4 PUSH20 0xFFFFFFFFFFFFFFFFFFFFFFFFFFFFFFFFFFFFFFFF AND MUL OR SWAP1 SSTORE POP DUP2 PUSH20 0xFFFFFFFFFFFFFFFFFFFFFFFFFFFFFFFFFFFFFFFF AND DUP2 PUSH20 0xFFFFFFFFFFFFFFFFFFFFFFFFFFFFFFFFFFFFFFFF AND PUSH32 0x8BE0079C531659141344CD1FD0A4F28419497F9722A3DAAFE3B4186F6B6457E0 PUSH1 0x40 MLOAD PUSH1 0x40 MLOAD DUP1 SWAP2 SUB SWAP1 LOG3 POP POP JUMP JUMPDEST PUSH1 0x0 CALLER SWAP1 POP SWAP1 JUMP JUMPDEST PUSH1 0x40 MLOAD DUP1 PUSH1 0x60 ADD PUSH1 0x40 MSTORE DUP1 PUSH1 0x0 DUP2 MSTORE PUSH1 0x20 ADD PUSH1 0x0 DUP2 MSTORE PUSH1 0x20 ADD PUSH1 0x0 DUP2 MSTORE POP SWAP1 JUMP JUMPDEST PUSH1 0x0 DUP2 CALLDATALOAD SWAP1 POP PUSH2 0x2366 DUP2 PUSH2 0x2B77 JUMP JUMPDEST SWAP3 SWAP2 POP POP JUMP JUMPDEST PUSH1 0x0 PUSH1 0x60 DUP3 DUP5 SUB SLT ISZERO PUSH2 0x237E JUMPI PUSH1 0x0 DUP1 REVERT JUMPDEST PUSH2 0x2388 PUSH1 0x60 PUSH2 0x2816 JUMP JUMPDEST SWAP1 POP PUSH1 0x0 PUSH2 0x2398 DUP5 DUP3 DUP6 ADD PUSH2 0x23E1 JUMP JUMPDEST PUSH1 0x0 DUP4 ADD MSTORE POP PUSH1 0x20 PUSH2 0x23AC DUP5 DUP3 DUP6 ADD PUSH2 0x23E1 JUMP JUMPDEST PUSH1 0x20 DUP4 ADD MSTORE POP PUSH1 0x40 PUSH2 0x23C0 DUP5 DUP3 DUP6 ADD PUSH2 0x23E1 JUMP JUMPDEST PUSH1 0x40 DUP4 ADD MSTORE POP SWAP3 SWAP2 POP POP JUMP JUMPDEST PUSH1 0x0 DUP2 CALLDATALOAD SWAP1 POP PUSH2 0x23DB DUP2 PUSH2 0x2B8E JUMP JUMPDEST SWAP3 SWAP2 POP POP JUMP JUMPDEST PUSH1 0x0 DUP2 MLOAD SWAP1 POP PUSH2 0x23F0 DUP2 PUSH2 0x2B8E JUMP JUMPDEST SWAP3 SWAP2 POP POP JUMP JUMPDEST PUSH1 0x0 PUSH1 0x20 DUP3 DUP5 SUB SLT ISZERO PUSH2 0x2408 JUMPI PUSH1 0x0 DUP1 REVERT JUMPDEST PUSH1 0x0 PUSH2 0x2416 DUP5 DUP3 DUP6 ADD PUSH2 0x2357 JUMP JUMPDEST SWAP2 POP POP SWAP3 SWAP2 POP POP JUMP JUMPDEST PUSH1 0x0 DUP1 PUSH1 0x40 DUP4 DUP6 SUB SLT ISZERO PUSH2 0x2432 JUMPI PUSH1 0x0 DUP1 REVERT JUMPDEST PUSH1 0x0 PUSH2 0x2440 DUP6 DUP3 DUP7 ADD PUSH2 0x2357 JUMP JUMPDEST SWAP3 POP POP PUSH1 0x20 PUSH2 0x2451 DUP6 DUP3 DUP7 ADD PUSH2 0x23CC JUMP JUMPDEST SWAP2 POP POP SWAP3 POP SWAP3 SWAP1 POP JUMP JUMPDEST PUSH1 0x0 DUP1 PUSH1 0x0 PUSH1 0x60 DUP5 DUP7 SUB SLT ISZERO PUSH2 0x2470 JUMPI PUSH1 0x0 DUP1 REVERT JUMPDEST PUSH1 0x0 PUSH2 0x247E DUP7 DUP3 DUP8 ADD PUSH2 0x2357 JUMP JUMPDEST SWAP4 POP POP PUSH1 0x20 PUSH2 0x248F DUP7 DUP3 DUP8 ADD PUSH2 0x23CC JUMP JUMPDEST SWAP3 POP POP PUSH1 0x40 PUSH2 0x24A0 DUP7 DUP3 DUP8 ADD PUSH2 0x23CC JUMP JUMPDEST SWAP2 POP POP SWAP3 POP SWAP3 POP SWAP3 JUMP JUMPDEST PUSH1 0x0 PUSH1 0x60 DUP3 DUP5 SUB SLT ISZERO PUSH2 0x24BC JUMPI PUSH1 0x0 DUP1 REVERT JUMPDEST PUSH1 0x0 PUSH2 0x24CA DUP5 DUP3 DUP6 ADD PUSH2 0x236C JUMP JUMPDEST SWAP2 POP POP SWAP3 SWAP2 POP POP JUMP JUMPDEST PUSH1 0x0 PUSH1 0x20 DUP3 DUP5 SUB SLT ISZERO PUSH2 0x24E5 JUMPI PUSH1 0x0 DUP1 REVERT JUMPDEST PUSH1 0x0 PUSH2 0x24F3 DUP5 DUP3 DUP6 ADD PUSH2 0x23CC JUMP JUMPDEST SWAP2 POP POP SWAP3 SWAP2 POP POP JUMP JUMPDEST PUSH1 0x0 PUSH1 0x20 DUP3 DUP5 SUB SLT ISZERO PUSH2 0x250E JUMPI PUSH1 0x0 DUP1 REVERT JUMPDEST PUSH1 0x0 PUSH2 0x251C DUP5 DUP3 DUP6 ADD PUSH2 0x23E1 JUMP JUMPDEST SWAP2 POP POP SWAP3 SWAP2 POP POP JUMP JUMPDEST PUSH1 0x0 PUSH2 0x2531 DUP4 DUP4 PUSH2 0x2631 JUMP JUMPDEST PUSH1 0x60 DUP4 ADD SWAP1 POP SWAP3 SWAP2 POP POP JUMP JUMPDEST PUSH2 0x2546 DUP2 PUSH2 0x2969 JUMP JUMPDEST DUP3 MSTORE POP POP JUMP JUMPDEST PUSH1 0x0 PUSH2 0x2557 DUP3 PUSH2 0x284B JUMP JUMPDEST PUSH2 0x2561 DUP2 DUP6 PUSH2 0x2863 JUMP JUMPDEST SWAP4 POP PUSH2 0x256C DUP4 PUSH2 0x283B JUMP JUMPDEST DUP1 PUSH1 0x0 JUMPDEST DUP4 DUP2 LT ISZERO PUSH2 0x259D JUMPI DUP2 MLOAD PUSH2 0x2584 DUP9 DUP3 PUSH2 0x2525 JUMP JUMPDEST SWAP8 POP PUSH2 0x258F DUP4 PUSH2 0x2856 JUMP JUMPDEST SWAP3 POP POP PUSH1 0x1 DUP2 ADD SWAP1 POP PUSH2 0x2570 JUMP JUMPDEST POP DUP6 SWAP4 POP POP POP POP SWAP3 SWAP2 POP POP JUMP JUMPDEST PUSH2 0x25B3 DUP2 PUSH2 0x29A5 JUMP JUMPDEST DUP3 MSTORE POP POP JUMP JUMPDEST PUSH2 0x25C2 DUP2 PUSH2 0x29C9 JUMP JUMPDEST DUP3 MSTORE POP POP JUMP JUMPDEST PUSH1 0x0 PUSH2 0x25D5 PUSH1 0x26 DUP4 PUSH2 0x2874 JUMP JUMPDEST SWAP2 POP PUSH2 0x25E0 DUP3 PUSH2 0x2AD6 JUMP JUMPDEST PUSH1 0x40 DUP3 ADD SWAP1 POP SWAP2 SWAP1 POP JUMP JUMPDEST PUSH1 0x0 PUSH2 0x25F8 PUSH1 0x19 DUP4 PUSH2 0x2874 JUMP JUMPDEST SWAP2 POP PUSH2 0x2603 DUP3 PUSH2 0x2B25 JUMP JUMPDEST PUSH1 0x20 DUP3 ADD SWAP1 POP SWAP2 SWAP1 POP JUMP JUMPDEST PUSH1 0x0 PUSH2 0x261B PUSH1 0x20 DUP4 PUSH2 0x2874 JUMP JUMPDEST SWAP2 POP PUSH2 0x2626 DUP3 PUSH2 0x2B4E JUMP JUMPDEST PUSH1 0x20 DUP3 ADD SWAP1 POP SWAP2 SWAP1 POP JUMP JUMPDEST PUSH1 0x60 DUP3 ADD PUSH1 0x0 DUP3 ADD MLOAD PUSH2 0x2647 PUSH1 0x0 DUP6 ADD DUP3 PUSH2 0x2673 JUMP JUMPDEST POP PUSH1 0x20 DUP3 ADD MLOAD PUSH2 0x265A PUSH1 0x20 DUP6 ADD DUP3 PUSH2 0x2673 JUMP JUMPDEST POP PUSH1 0x40 DUP3 ADD MLOAD PUSH2 0x266D PUSH1 0x40 DUP6 ADD DUP3 PUSH2 0x2673 JUMP JUMPDEST POP POP POP POP JUMP JUMPDEST PUSH2 0x267C DUP2 PUSH2 0x299B JUMP JUMPDEST DUP3 MSTORE POP POP JUMP JUMPDEST PUSH2 0x268B DUP2 PUSH2 0x299B JUMP JUMPDEST DUP3 MSTORE POP POP JUMP JUMPDEST PUSH1 0x0 PUSH1 0x20 DUP3 ADD SWAP1 POP PUSH2 0x26A6 PUSH1 0x0 DUP4 ADD DUP5 PUSH2 0x253D JUMP JUMPDEST SWAP3 SWAP2 POP POP JUMP JUMPDEST PUSH1 0x0 PUSH1 0x60 DUP3 ADD SWAP1 POP PUSH2 0x26C1 PUSH1 0x0 DUP4 ADD DUP7 PUSH2 0x253D JUMP JUMPDEST PUSH2 0x26CE PUSH1 0x20 DUP4 ADD DUP6 PUSH2 0x253D JUMP JUMPDEST PUSH2 0x26DB PUSH1 0x40 DUP4 ADD DUP5 PUSH2 0x2682 JUMP JUMPDEST SWAP5 SWAP4 POP POP POP POP JUMP JUMPDEST PUSH1 0x0 PUSH1 0x40 DUP3 ADD SWAP1 POP PUSH2 0x26F8 PUSH1 0x0 DUP4 ADD DUP6 PUSH2 0x253D JUMP JUMPDEST PUSH2 0x2705 PUSH1 0x20 DUP4 ADD DUP5 PUSH2 0x2682 JUMP JUMPDEST SWAP4 SWAP3 POP POP POP JUMP JUMPDEST PUSH1 0x0 PUSH1 0x60 DUP3 ADD SWAP1 POP PUSH2 0x2721 PUSH1 0x0 DUP4 ADD DUP7 PUSH2 0x253D JUMP JUMPDEST PUSH2 0x272E PUSH1 0x20 DUP4 ADD DUP6 PUSH2 0x2682 JUMP JUMPDEST PUSH2 0x273B PUSH1 0x40 DUP4 ADD DUP5 PUSH2 0x2682 JUMP JUMPDEST SWAP5 SWAP4 POP POP POP POP JUMP JUMPDEST PUSH1 0x0 PUSH1 0x20 DUP3 ADD SWAP1 POP DUP2 DUP2 SUB PUSH1 0x0 DUP4 ADD MSTORE PUSH2 0x275D DUP2 DUP5 PUSH2 0x254C JUMP JUMPDEST SWAP1 POP SWAP3 SWAP2 POP POP JUMP JUMPDEST PUSH1 0x0 PUSH1 0x20 DUP3 ADD SWAP1 POP PUSH2 0x277A PUSH1 0x0 DUP4 ADD DUP5 PUSH2 0x25AA JUMP JUMPDEST SWAP3 SWAP2 POP POP JUMP JUMPDEST PUSH1 0x0 PUSH1 0x20 DUP3 ADD SWAP1 POP PUSH2 0x2795 PUSH1 0x0 DUP4 ADD DUP5 PUSH2 0x25B9 JUMP JUMPDEST SWAP3 SWAP2 POP POP JUMP JUMPDEST PUSH1 0x0 PUSH1 0x20 DUP3 ADD SWAP1 POP DUP2 DUP2 SUB PUSH1 0x0 DUP4 ADD MSTORE PUSH2 0x27B4 DUP2 PUSH2 0x25C8 JUMP JUMPDEST SWAP1 POP SWAP2 SWAP1 POP JUMP JUMPDEST PUSH1 0x0 PUSH1 0x20 DUP3 ADD SWAP1 POP DUP2 DUP2 SUB PUSH1 0x0 DUP4 ADD MSTORE PUSH2 0x27D4 DUP2 PUSH2 0x25EB JUMP JUMPDEST SWAP1 POP SWAP2 SWAP1 POP JUMP JUMPDEST PUSH1 0x0 PUSH1 0x20 DUP3 ADD SWAP1 POP DUP2 DUP2 SUB PUSH1 0x0 DUP4 ADD MSTORE PUSH2 0x27F4 DUP2 PUSH2 0x260E JUMP JUMPDEST SWAP1 POP SWAP2 SWAP1 POP JUMP JUMPDEST PUSH1 0x0 PUSH1 0x20 DUP3 ADD SWAP1 POP PUSH2 0x2810 PUSH1 0x0 DUP4 ADD DUP5 PUSH2 0x2682 JUMP JUMPDEST SWAP3 SWAP2 POP POP JUMP JUMPDEST PUSH1 0x0 PUSH2 0x2820 PUSH2 0x2831 JUMP JUMPDEST SWAP1 POP PUSH2 0x282C DUP3 DUP3 PUSH2 0x29ED JUMP JUMPDEST SWAP2 SWAP1 POP JUMP JUMPDEST PUSH1 0x0 PUSH1 0x40 MLOAD SWAP1 POP SWAP1 JUMP JUMPDEST PUSH1 0x0 DUP2 SWAP1 POP PUSH1 0x20 DUP3 ADD SWAP1 POP SWAP2 SWAP1 POP JUMP JUMPDEST PUSH1 0x0 DUP2 MLOAD SWAP1 POP SWAP2 SWAP1 POP JUMP JUMPDEST PUSH1 0x0 PUSH1 0x20 DUP3 ADD SWAP1 POP SWAP2 SWAP1 POP JUMP JUMPDEST PUSH1 0x0 DUP3 DUP3 MSTORE PUSH1 0x20 DUP3 ADD SWAP1 POP SWAP3 SWAP2 POP POP JUMP JUMPDEST PUSH1 0x0 DUP3 DUP3 MSTORE PUSH1 0x20 DUP3 ADD SWAP1 POP SWAP3 SWAP2 POP POP JUMP JUMPDEST PUSH1 0x0 PUSH2 0x2890 DUP3 PUSH2 0x299B JUMP JUMPDEST SWAP2 POP PUSH2 0x289B DUP4 PUSH2 0x299B JUMP JUMPDEST SWAP3 POP DUP3 PUSH32 0xFFFFFFFFFFFFFFFFFFFFFFFFFFFFFFFFFFFFFFFFFFFFFFFFFFFFFFFFFFFFFFFF SUB DUP3 GT ISZERO PUSH2 0x28D0 JUMPI PUSH2 0x28CF PUSH2 0x2A67 JUMP JUMPDEST JUMPDEST DUP3 DUP3 ADD SWAP1 POP SWAP3 SWAP2 POP POP JUMP JUMPDEST PUSH1 0x0 PUSH2 0x28E6 DUP3 PUSH2 0x299B JUMP JUMPDEST SWAP2 POP PUSH2 0x28F1 DUP4 PUSH2 0x299B JUMP JUMPDEST SWAP3 POP DUP2 PUSH32 0xFFFFFFFFFFFFFFFFFFFFFFFFFFFFFFFFFFFFFFFFFFFFFFFFFFFFFFFFFFFFFFFF DIV DUP4 GT DUP3 ISZERO ISZERO AND ISZERO PUSH2 0x292A JUMPI PUSH2 0x2929 PUSH2 0x2A67 JUMP JUMPDEST JUMPDEST DUP3 DUP3 MUL SWAP1 POP SWAP3 SWAP2 POP POP JUMP JUMPDEST PUSH1 0x0 PUSH2 0x2940 DUP3 PUSH2 0x299B JUMP JUMPDEST SWAP2 POP PUSH2 0x294B DUP4 PUSH2 0x299B JUMP JUMPDEST SWAP3 POP DUP3 DUP3 LT ISZERO PUSH2 0x295E JUMPI PUSH2 0x295D PUSH2 0x2A67 JUMP JUMPDEST JUMPDEST DUP3 DUP3 SUB SWAP1 POP SWAP3 SWAP2 POP POP JUMP JUMPDEST PUSH1 0x0 PUSH2 0x2974 DUP3 PUSH2 0x297B JUMP JUMPDEST SWAP1 POP SWAP2 SWAP1 POP JUMP JUMPDEST PUSH1 0x0 PUSH20 0xFFFFFFFFFFFFFFFFFFFFFFFFFFFFFFFFFFFFFFFF DUP3 AND SWAP1 POP SWAP2 SWAP1 POP JUMP JUMPDEST PUSH1 0x0 DUP2 SWAP1 POP SWAP2 SWAP1 POP JUMP JUMPDEST PUSH1 0x0 PUSH2 0x29B0 DUP3 PUSH2 0x29B7 JUMP JUMPDEST SWAP1 POP SWAP2 SWAP1 POP JUMP JUMPDEST PUSH1 0x0 PUSH2 0x29C2 DUP3 PUSH2 0x297B JUMP JUMPDEST SWAP1 POP SWAP2 SWAP1 POP JUMP JUMPDEST PUSH1 0x0 PUSH2 0x29D4 DUP3 PUSH2 0x29DB JUMP JUMPDEST SWAP1 POP SWAP2 SWAP1 POP JUMP JUMPDEST PUSH1 0x0 PUSH2 0x29E6 DUP3 PUSH2 0x297B JUMP JUMPDEST SWAP1 POP SWAP2 SWAP1 POP JUMP JUMPDEST PUSH2 0x29F6 DUP3 PUSH2 0x2AC5 JUMP JUMPDEST DUP2 ADD DUP2 DUP2 LT PUSH8 0xFFFFFFFFFFFFFFFF DUP3 GT OR ISZERO PUSH2 0x2A15 JUMPI PUSH2 0x2A14 PUSH2 0x2A96 JUMP JUMPDEST JUMPDEST DUP1 PUSH1 0x40 MSTORE POP POP POP JUMP JUMPDEST PUSH1 0x0 PUSH2 0x2A29 DUP3 PUSH2 0x299B JUMP JUMPDEST SWAP2 POP PUSH32 0xFFFFFFFFFFFFFFFFFFFFFFFFFFFFFFFFFFFFFFFFFFFFFFFFFFFFFFFFFFFFFFFF DUP3 EQ ISZERO PUSH2 0x2A5C JUMPI PUSH2 0x2A5B PUSH2 0x2A67 JUMP JUMPDEST JUMPDEST PUSH1 0x1 DUP3 ADD SWAP1 POP SWAP2 SWAP1 POP JUMP JUMPDEST PUSH32 0x4E487B7100000000000000000000000000000000000000000000000000000000 PUSH1 0x0 MSTORE PUSH1 0x11 PUSH1 0x4 MSTORE PUSH1 0x24 PUSH1 0x0 REVERT JUMPDEST PUSH32 0x4E487B7100000000000000000000000000000000000000000000000000000000 PUSH1 0x0 MSTORE PUSH1 0x41 PUSH1 0x4 MSTORE PUSH1 0x24 PUSH1 0x0 REVERT JUMPDEST PUSH1 0x0 PUSH1 0x1F NOT PUSH1 0x1F DUP4 ADD AND SWAP1 POP SWAP2 SWAP1 POP JUMP JUMPDEST PUSH32 0x4F776E61626C653A206E6577206F776E657220697320746865207A65726F2061 PUSH1 0x0 DUP3 ADD MSTORE PUSH32 0x6464726573730000000000000000000000000000000000000000000000000000 PUSH1 0x20 DUP3 ADD MSTORE POP JUMP JUMPDEST PUSH32 0x4E6F7420656E6F75676820746F6B656E7320746F206275726E00000000000000 PUSH1 0x0 DUP3 ADD MSTORE POP JUMP JUMPDEST PUSH32 0x4F776E61626C653A2063616C6C6572206973206E6F7420746865206F776E6572 PUSH1 0x0 DUP3 ADD MSTORE POP JUMP JUMPDEST PUSH2 0x2B80 DUP2 PUSH2 0x2969 JUMP JUMPDEST DUP2 EQ PUSH2 0x2B8B JUMPI PUSH1 0x0 DUP1 REVERT JUMPDEST POP JUMP JUMPDEST PUSH2 0x2B97 DUP2 PUSH2 0x299B JUMP JUMPDEST DUP2 EQ PUSH2 0x2BA2 JUMPI PUSH1 0x0 DUP1 REVERT JUMPDEST POP JUMP INVALID LOG2 PUSH5 0x6970667358 0x22 SLT KECCAK256 0xF9 PUSH13 0xBECFDE59DF8E66F99DF9A81A66 OR 0xE5 PUSH1 0x33 DIFFICULTY 0x2E 0xEF 0xD 0xDA 0xC0 PUSH13 0x36377346321564736F6C634300 ADDMOD DIV STOP CALLER "
				},
				"gasEstimates": {
					"creation": {
						"codeDepositCost": "2245400",
						"executionCost": "infinite",
						"totalCost": "infinite"
					},
					"external": {
						"FlowerCoinTotalBalance(address)": "infinite",
						"FlowerCoinTotalBurned()": "infinite",
						"FlowerCoinTotalSupply()": "infinite",
						"FlowerTotalBalance(address)": "infinite",
						"FlowerTotalBurned()": "infinite",
						"FlowerTotalExpired()": "infinite",
						"FlowerTotalSupply()": "infinite",
						"burnFlower(address,uint256)": "infinite",
						"burnFlowerCoin(address,uint256)": "infinite",
						"expireFlower(address)": "infinite",
						"flowerCoinStorage()": "1390",
						"flowerStorage()": "1325",
						"flowersPerFlowerCoin()": "1196",
						"getBalanceNodes(address,uint256)": "infinite",
						"mintFlower(address,uint256)": "infinite",
						"mintFlowerCoin(address,uint256)": "infinite",
						"mintFlowerCoinWithFlower(address,uint256)": "infinite",
						"owner()": "1245",
						"renounceOwnership()": "24487",
						"setFlowersPerFlowerCoin(uint256)": "21430",
						"setTimeToExpire(uint256)": "21429",
						"timeToExpire()": "1262",
						"transfer(address,uint256,uint256)": "infinite",
						"transferFlowerCoin(address,uint256)": "infinite",
						"transferOwnership(address)": "24813"
					}
				},
				"methodIdentifiers": {
					"FlowerCoinTotalBalance(address)": "9f9db463",
					"FlowerCoinTotalBurned()": "be1cba2f",
					"FlowerCoinTotalSupply()": "aec898ca",
					"FlowerTotalBalance(address)": "d140bbe1",
					"FlowerTotalBurned()": "4d781330",
					"FlowerTotalExpired()": "4d2e8994",
					"FlowerTotalSupply()": "8a67f1e5",
					"burnFlower(address,uint256)": "48db11f8",
					"burnFlowerCoin(address,uint256)": "b5e6de75",
					"expireFlower(address)": "2cd3d43d",
					"flowerCoinStorage()": "b7f6d906",
					"flowerStorage()": "1f054bbe",
					"flowersPerFlowerCoin()": "cc55209b",
					"getBalanceNodes(address,uint256)": "fe590724",
					"mintFlower(address,uint256)": "644b637e",
					"mintFlowerCoin(address,uint256)": "ae9957ec",
					"mintFlowerCoinWithFlower(address,uint256)": "d45519a1",
					"owner()": "8da5cb5b",
					"renounceOwnership()": "715018a6",
					"setFlowersPerFlowerCoin(uint256)": "0c39fc27",
					"setTimeToExpire(uint256)": "6219005d",
					"timeToExpire()": "8bf02357",
					"transfer(address,uint256,uint256)": "095bcdb6",
					"transferFlowerCoin(address,uint256)": "f699aca7",
					"transferOwnership(address)": "f2fde38b"
				}
			},
			"storageLayout": {
				"storage": [
					{
						"astId": 7,
						"contract": "contracts/FlowerConductor.sol:FlowerConductor",
						"label": "_owner",
						"offset": 0,
						"slot": "0",
						"type": "t_address"
					},
					{
						"astId": 254,
						"contract": "contracts/FlowerConductor.sol:FlowerConductor",
						"label": "flowerStorage",
						"offset": 0,
						"slot": "1",
						"type": "t_contract(FlowerStorage)1259"
					},
					{
						"astId": 257,
						"contract": "contracts/FlowerConductor.sol:FlowerConductor",
						"label": "flowerCoinStorage",
						"offset": 0,
						"slot": "2",
						"type": "t_contract(FlowerCoinStorage)243"
					},
					{
						"astId": 260,
						"contract": "contracts/FlowerConductor.sol:FlowerConductor",
						"label": "timeToExpire",
						"offset": 0,
						"slot": "3",
						"type": "t_uint256"
					},
					{
						"astId": 263,
						"contract": "contracts/FlowerConductor.sol:FlowerConductor",
						"label": "flowersPerFlowerCoin",
						"offset": 0,
						"slot": "4",
						"type": "t_uint256"
					}
				],
				"types": {
					"t_address": {
						"encoding": "inplace",
						"label": "address",
						"numberOfBytes": "20"
					},
					"t_contract(FlowerCoinStorage)243": {
						"encoding": "inplace",
						"label": "contract FlowerCoinStorage",
						"numberOfBytes": "20"
					},
					"t_contract(FlowerStorage)1259": {
						"encoding": "inplace",
						"label": "contract FlowerStorage",
						"numberOfBytes": "20"
					},
					"t_uint256": {
						"encoding": "inplace",
						"label": "uint256",
						"numberOfBytes": "32"
					}
				}
			},
			"userdoc": {
				"kind": "user",
				"methods": {},
				"version": 1
			}
		}
	}
}