{
	"contracts/FlowerStorage.sol": {
		"FlowerStorage": {
			"abi": [
				{
					"inputs": [],
					"stateMutability": "nonpayable",
					"type": "constructor"
				},
				{
					"anonymous": false,
					"inputs": [
						{
							"indexed": true,
							"internalType": "address",
							"name": "previousOwner",
							"type": "address"
						},
						{
							"indexed": true,
							"internalType": "address",
							"name": "newOwner",
							"type": "address"
						}
					],
					"name": "OwnershipTransferred",
					"type": "event"
				},
				{
					"inputs": [
						{
							"internalType": "address",
							"name": "addr",
							"type": "address"
						},
						{
							"internalType": "uint256",
							"name": "amount",
							"type": "uint256"
						},
						{
							"internalType": "uint256",
							"name": "timeToExpire",
							"type": "uint256"
						}
					],
					"name": "addTokens",
					"outputs": [],
					"stateMutability": "nonpayable",
					"type": "function"
				},
				{
					"inputs": [
						{
							"internalType": "address",
							"name": "addr",
							"type": "address"
						},
						{
							"internalType": "uint256",
							"name": "amount",
							"type": "uint256"
						},
						{
							"internalType": "uint256",
							"name": "timeToExpire",
							"type": "uint256"
						}
					],
					"name": "burnTokens",
					"outputs": [],
					"stateMutability": "nonpayable",
					"type": "function"
				},
				{
					"inputs": [
						{
							"internalType": "address",
							"name": "",
							"type": "address"
						}
					],
					"name": "firstTBNode",
					"outputs": [
						{
							"internalType": "uint256",
							"name": "",
							"type": "uint256"
						}
					],
					"stateMutability": "view",
					"type": "function"
				},
				{
					"inputs": [
						{
							"internalType": "address",
							"name": "",
							"type": "address"
						}
					],
					"name": "lastTBNode",
					"outputs": [
						{
							"internalType": "uint256",
							"name": "",
							"type": "uint256"
						}
					],
					"stateMutability": "view",
					"type": "function"
				},
				{
					"inputs": [],
					"name": "owner",
					"outputs": [
						{
							"internalType": "address",
							"name": "",
							"type": "address"
						}
					],
					"stateMutability": "view",
					"type": "function"
				},
				{
					"inputs": [
						{
							"internalType": "address",
							"name": "addr",
							"type": "address"
						},
						{
							"internalType": "uint256",
							"name": "timeToExpire",
							"type": "uint256"
						}
					],
					"name": "removeExpiredTokens",
					"outputs": [],
					"stateMutability": "nonpayable",
					"type": "function"
				},
				{
					"inputs": [],
					"name": "renounceOwnership",
					"outputs": [],
					"stateMutability": "nonpayable",
					"type": "function"
				},
				{
					"inputs": [
						{
							"internalType": "address",
							"name": "",
							"type": "address"
						},
						{
							"internalType": "uint256",
							"name": "",
							"type": "uint256"
						}
					],
					"name": "tbNodeByIndex",
					"outputs": [
						{
							"internalType": "uint256",
							"name": "timestamp",
							"type": "uint256"
						},
						{
							"internalType": "uint256",
							"name": "balance",
							"type": "uint256"
						},
						{
							"internalType": "uint256",
							"name": "next",
							"type": "uint256"
						}
					],
					"stateMutability": "view",
					"type": "function"
				},
				{
					"inputs": [
						{
							"internalType": "address",
							"name": "",
							"type": "address"
						}
					],
					"name": "totalBalances",
					"outputs": [
						{
							"internalType": "uint256",
							"name": "",
							"type": "uint256"
						}
					],
					"stateMutability": "view",
					"type": "function"
				},
				{
					"inputs": [],
					"name": "totalBurned",
					"outputs": [
						{
							"internalType": "uint256",
							"name": "",
							"type": "uint256"
						}
					],
					"stateMutability": "view",
					"type": "function"
				},
				{
					"inputs": [],
					"name": "totalExpired",
					"outputs": [
						{
							"internalType": "uint256",
							"name": "",
							"type": "uint256"
						}
					],
					"stateMutability": "view",
					"type": "function"
				},
				{
					"inputs": [],
					"name": "totalSupply",
					"outputs": [
						{
							"internalType": "uint256",
							"name": "",
							"type": "uint256"
						}
					],
					"stateMutability": "view",
					"type": "function"
				},
				{
					"inputs": [
						{
							"internalType": "address",
							"name": "newOwner",
							"type": "address"
						}
					],
					"name": "transferOwnership",
					"outputs": [],
					"stateMutability": "nonpayable",
					"type": "function"
				}
			],
			"devdoc": {
				"kind": "dev",
				"methods": {
					"owner()": {
						"details": "Returns the address of the current owner."
					},
					"renounceOwnership()": {
						"details": "Leaves the contract without owner. It will not be possible to call `onlyOwner` functions anymore. Can only be called by the current owner. NOTE: Renouncing ownership will leave the contract without an owner, thereby removing any functionality that is only available to the owner."
					},
					"transferOwnership(address)": {
						"details": "Transfers ownership of the contract to a new account (`newOwner`). Can only be called by the current owner."
					}
				},
				"version": 1
			},
			"evm": {
				"assembly": "    /* \"contracts/FlowerStorage.sol\":155:7267  contract FlowerStorage is Ownable {... */\n  mstore(0x40, 0x80)\n    /* \"contracts/FlowerStorage.sol\":195:304  constructor() {... */\n  callvalue\n  dup1\n  iszero\n  tag_1\n  jumpi\n  0x00\n  dup1\n  revert\ntag_1:\n  pop\n    /* \"@openzeppelin/contracts/access/Ownable.sol\":936:968  _transferOwnership(_msgSender()) */\n  tag_5\n    /* \"@openzeppelin/contracts/access/Ownable.sol\":955:967  _msgSender() */\n  tag_6\n    /* \"@openzeppelin/contracts/access/Ownable.sol\":955:965  _msgSender */\n  shl(0x20, tag_7)\n    /* \"@openzeppelin/contracts/access/Ownable.sol\":955:967  _msgSender() */\n  0x20\n  shr\n  jump\t// in\ntag_6:\n    /* \"@openzeppelin/contracts/access/Ownable.sol\":936:954  _transferOwnership */\n  shl(0x20, tag_8)\n    /* \"@openzeppelin/contracts/access/Ownable.sol\":936:968  _transferOwnership(_msgSender()) */\n  0x20\n  shr\n  jump\t// in\ntag_5:\n    /* \"contracts/FlowerStorage.sol\":268:297  transferOwnership(msg.sender) */\n  tag_10\n    /* \"contracts/FlowerStorage.sol\":286:296  msg.sender */\n  caller\n    /* \"contracts/FlowerStorage.sol\":268:285  transferOwnership */\n  shl(0x20, tag_11)\n    /* \"contracts/FlowerStorage.sol\":268:297  transferOwnership(msg.sender) */\n  0x20\n  shr\n  jump\t// in\ntag_10:\n    /* \"contracts/FlowerStorage.sol\":155:7267  contract FlowerStorage is Ownable {... */\n  jump(tag_12)\n    /* \"@openzeppelin/contracts/utils/Context.sol\":640:736  function _msgSender() internal view virtual returns (address) {... */\ntag_7:\n    /* \"@openzeppelin/contracts/utils/Context.sol\":693:700  address */\n  0x00\n    /* \"@openzeppelin/contracts/utils/Context.sol\":719:729  msg.sender */\n  caller\n    /* \"@openzeppelin/contracts/utils/Context.sol\":712:729  return msg.sender */\n  swap1\n  pop\n    /* \"@openzeppelin/contracts/utils/Context.sol\":640:736  function _msgSender() internal view virtual returns (address) {... */\n  swap1\n  jump\t// out\n    /* \"@openzeppelin/contracts/access/Ownable.sol\":2433:2620  function _transferOwnership(address newOwner) internal virtual {... */\ntag_8:\n    /* \"@openzeppelin/contracts/access/Ownable.sol\":2506:2522  address oldOwner */\n  0x00\n    /* \"@openzeppelin/contracts/access/Ownable.sol\":2525:2531  _owner */\n  dup1\n  0x00\n  swap1\n  sload\n  swap1\n  0x0100\n  exp\n  swap1\n  div\n  0xffffffffffffffffffffffffffffffffffffffff\n  and\n    /* \"@openzeppelin/contracts/access/Ownable.sol\":2506:2531  address oldOwner = _owner */\n  swap1\n  pop\n    /* \"@openzeppelin/contracts/access/Ownable.sol\":2550:2558  newOwner */\n  dup2\n    /* \"@openzeppelin/contracts/access/Ownable.sol\":2541:2547  _owner */\n  0x00\n  dup1\n    /* \"@openzeppelin/contracts/access/Ownable.sol\":2541:2558  _owner = newOwner */\n  0x0100\n  exp\n  dup2\n  sload\n  dup2\n  0xffffffffffffffffffffffffffffffffffffffff\n  mul\n  not\n  and\n  swap1\n  dup4\n  0xffffffffffffffffffffffffffffffffffffffff\n  and\n  mul\n  or\n  swap1\n  sstore\n  pop\n    /* \"@openzeppelin/contracts/access/Ownable.sol\":2604:2612  newOwner */\n  dup2\n    /* \"@openzeppelin/contracts/access/Ownable.sol\":2573:2613  OwnershipTransferred(oldOwner, newOwner) */\n  0xffffffffffffffffffffffffffffffffffffffff\n  and\n    /* \"@openzeppelin/contracts/access/Ownable.sol\":2594:2602  oldOwner */\n  dup2\n    /* \"@openzeppelin/contracts/access/Ownable.sol\":2573:2613  OwnershipTransferred(oldOwner, newOwner) */\n  0xffffffffffffffffffffffffffffffffffffffff\n  and\n  0x8be0079c531659141344cd1fd0a4f28419497f9722a3daafe3b4186f6b6457e0\n  mload(0x40)\n  mload(0x40)\n  dup1\n  swap2\n  sub\n  swap1\n  log3\n    /* \"@openzeppelin/contracts/access/Ownable.sol\":2433:2620  function _transferOwnership(address newOwner) internal virtual {... */\n  pop\n  pop\n  jump\t// out\n    /* \"@openzeppelin/contracts/access/Ownable.sol\":2081:2279  function transferOwnership(address newOwner) public virtual onlyOwner {... */\ntag_11:\n    /* \"@openzeppelin/contracts/access/Ownable.sol\":1094:1107  _checkOwner() */\n  tag_16\n    /* \"@openzeppelin/contracts/access/Ownable.sol\":1094:1105  _checkOwner */\n  shl(0x20, tag_17)\n    /* \"@openzeppelin/contracts/access/Ownable.sol\":1094:1107  _checkOwner() */\n  0x20\n  shr\n  jump\t// in\ntag_16:\n    /* \"@openzeppelin/contracts/access/Ownable.sol\":2189:2190  0 */\n  0x00\n    /* \"@openzeppelin/contracts/access/Ownable.sol\":2169:2191  newOwner != address(0) */\n  0xffffffffffffffffffffffffffffffffffffffff\n  and\n    /* \"@openzeppelin/contracts/access/Ownable.sol\":2169:2177  newOwner */\n  dup2\n    /* \"@openzeppelin/contracts/access/Ownable.sol\":2169:2191  newOwner != address(0) */\n  0xffffffffffffffffffffffffffffffffffffffff\n  and\n  eq\n  iszero\n    /* \"@openzeppelin/contracts/access/Ownable.sol\":2161:2234  require(newOwner != address(0), \"Ownable: new owner is the zero address\") */\n  tag_19\n  jumpi\n  mload(0x40)\n  0x08c379a000000000000000000000000000000000000000000000000000000000\n  dup2\n  mstore\n  0x04\n  add\n  tag_20\n  swap1\n  tag_21\n  jump\t// in\ntag_20:\n  mload(0x40)\n  dup1\n  swap2\n  sub\n  swap1\n  revert\ntag_19:\n    /* \"@openzeppelin/contracts/access/Ownable.sol\":2244:2272  _transferOwnership(newOwner) */\n  tag_22\n    /* \"@openzeppelin/contracts/access/Ownable.sol\":2263:2271  newOwner */\n  dup2\n    /* \"@openzeppelin/contracts/access/Ownable.sol\":2244:2262  _transferOwnership */\n  shl(0x20, tag_8)\n    /* \"@openzeppelin/contracts/access/Ownable.sol\":2244:2272  _transferOwnership(newOwner) */\n  0x20\n  shr\n  jump\t// in\ntag_22:\n    /* \"@openzeppelin/contracts/access/Ownable.sol\":2081:2279  function transferOwnership(address newOwner) public virtual onlyOwner {... */\n  pop\n  jump\t// out\n    /* \"@openzeppelin/contracts/access/Ownable.sol\":1359:1489  function _checkOwner() internal view virtual {... */\ntag_17:\n    /* \"@openzeppelin/contracts/access/Ownable.sol\":1433:1445  _msgSender() */\n  tag_24\n    /* \"@openzeppelin/contracts/access/Ownable.sol\":1433:1443  _msgSender */\n  shl(0x20, tag_7)\n    /* \"@openzeppelin/contracts/access/Ownable.sol\":1433:1445  _msgSender() */\n  0x20\n  shr\n  jump\t// in\ntag_24:\n    /* \"@openzeppelin/contracts/access/Ownable.sol\":1422:1445  owner() == _msgSender() */\n  0xffffffffffffffffffffffffffffffffffffffff\n  and\n    /* \"@openzeppelin/contracts/access/Ownable.sol\":1422:1429  owner() */\n  tag_25\n    /* \"@openzeppelin/contracts/access/Ownable.sol\":1422:1427  owner */\n  shl(0x20, tag_26)\n    /* \"@openzeppelin/contracts/access/Ownable.sol\":1422:1429  owner() */\n  0x20\n  shr\n  jump\t// in\ntag_25:\n    /* \"@openzeppelin/contracts/access/Ownable.sol\":1422:1445  owner() == _msgSender() */\n  0xffffffffffffffffffffffffffffffffffffffff\n  and\n  eq\n    /* \"@openzeppelin/contracts/access/Ownable.sol\":1414:1482  require(owner() == _msgSender(), \"Ownable: caller is not the owner\") */\n  tag_27\n  jumpi\n  mload(0x40)\n  0x08c379a000000000000000000000000000000000000000000000000000000000\n  dup2\n  mstore\n  0x04\n  add\n  tag_28\n  swap1\n  tag_29\n  jump\t// in\ntag_28:\n  mload(0x40)\n  dup1\n  swap2\n  sub\n  swap1\n  revert\ntag_27:\n    /* \"@openzeppelin/contracts/access/Ownable.sol\":1359:1489  function _checkOwner() internal view virtual {... */\n  jump\t// out\n    /* \"@openzeppelin/contracts/access/Ownable.sol\":1201:1286  function owner() public view virtual returns (address) {... */\ntag_26:\n    /* \"@openzeppelin/contracts/access/Ownable.sol\":1247:1254  address */\n  0x00\n    /* \"@openzeppelin/contracts/access/Ownable.sol\":1273:1279  _owner */\n  dup1\n  0x00\n  swap1\n  sload\n  swap1\n  0x0100\n  exp\n  swap1\n  div\n  0xffffffffffffffffffffffffffffffffffffffff\n  and\n    /* \"@openzeppelin/contracts/access/Ownable.sol\":1266:1279  return _owner */\n  swap1\n  pop\n    /* \"@openzeppelin/contracts/access/Ownable.sol\":1201:1286  function owner() public view virtual returns (address) {... */\n  swap1\n  jump\t// out\n    /* \"#utility.yul\":7:373   */\ntag_32:\n    /* \"#utility.yul\":149:152   */\n  0x00\n    /* \"#utility.yul\":170:237   */\n  tag_34\n    /* \"#utility.yul\":234:236   */\n  0x26\n    /* \"#utility.yul\":229:232   */\n  dup4\n    /* \"#utility.yul\":170:237   */\n  tag_35\n  jump\t// in\ntag_34:\n    /* \"#utility.yul\":163:237   */\n  swap2\n  pop\n    /* \"#utility.yul\":246:339   */\n  tag_36\n    /* \"#utility.yul\":335:338   */\n  dup3\n    /* \"#utility.yul\":246:339   */\n  tag_37\n  jump\t// in\ntag_36:\n    /* \"#utility.yul\":364:366   */\n  0x40\n    /* \"#utility.yul\":359:362   */\n  dup3\n    /* \"#utility.yul\":355:367   */\n  add\n    /* \"#utility.yul\":348:367   */\n  swap1\n  pop\n    /* \"#utility.yul\":153:373   */\n  swap2\n  swap1\n  pop\n  jump\t// out\n    /* \"#utility.yul\":379:745   */\ntag_38:\n    /* \"#utility.yul\":521:524   */\n  0x00\n    /* \"#utility.yul\":542:609   */\n  tag_40\n    /* \"#utility.yul\":606:608   */\n  0x20\n    /* \"#utility.yul\":601:604   */\n  dup4\n    /* \"#utility.yul\":542:609   */\n  tag_35\n  jump\t// in\ntag_40:\n    /* \"#utility.yul\":535:609   */\n  swap2\n  pop\n    /* \"#utility.yul\":618:711   */\n  tag_41\n    /* \"#utility.yul\":707:710   */\n  dup3\n    /* \"#utility.yul\":618:711   */\n  tag_42\n  jump\t// in\ntag_41:\n    /* \"#utility.yul\":736:738   */\n  0x20\n    /* \"#utility.yul\":731:734   */\n  dup3\n    /* \"#utility.yul\":727:739   */\n  add\n    /* \"#utility.yul\":720:739   */\n  swap1\n  pop\n    /* \"#utility.yul\":525:745   */\n  swap2\n  swap1\n  pop\n  jump\t// out\n    /* \"#utility.yul\":751:1170   */\ntag_21:\n    /* \"#utility.yul\":917:921   */\n  0x00\n    /* \"#utility.yul\":955:957   */\n  0x20\n    /* \"#utility.yul\":944:953   */\n  dup3\n    /* \"#utility.yul\":940:958   */\n  add\n    /* \"#utility.yul\":932:958   */\n  swap1\n  pop\n    /* \"#utility.yul\":1004:1013   */\n  dup2\n    /* \"#utility.yul\":998:1002   */\n  dup2\n    /* \"#utility.yul\":994:1014   */\n  sub\n    /* \"#utility.yul\":990:991   */\n  0x00\n    /* \"#utility.yul\":979:988   */\n  dup4\n    /* \"#utility.yul\":975:992   */\n  add\n    /* \"#utility.yul\":968:1015   */\n  mstore\n    /* \"#utility.yul\":1032:1163   */\n  tag_44\n    /* \"#utility.yul\":1158:1162   */\n  dup2\n    /* \"#utility.yul\":1032:1163   */\n  tag_32\n  jump\t// in\ntag_44:\n    /* \"#utility.yul\":1024:1163   */\n  swap1\n  pop\n    /* \"#utility.yul\":922:1170   */\n  swap2\n  swap1\n  pop\n  jump\t// out\n    /* \"#utility.yul\":1176:1595   */\ntag_29:\n    /* \"#utility.yul\":1342:1346   */\n  0x00\n    /* \"#utility.yul\":1380:1382   */\n  0x20\n    /* \"#utility.yul\":1369:1378   */\n  dup3\n    /* \"#utility.yul\":1365:1383   */\n  add\n    /* \"#utility.yul\":1357:1383   */\n  swap1\n  pop\n    /* \"#utility.yul\":1429:1438   */\n  dup2\n    /* \"#utility.yul\":1423:1427   */\n  dup2\n    /* \"#utility.yul\":1419:1439   */\n  sub\n    /* \"#utility.yul\":1415:1416   */\n  0x00\n    /* \"#utility.yul\":1404:1413   */\n  dup4\n    /* \"#utility.yul\":1400:1417   */\n  add\n    /* \"#utility.yul\":1393:1440   */\n  mstore\n    /* \"#utility.yul\":1457:1588   */\n  tag_46\n    /* \"#utility.yul\":1583:1587   */\n  dup2\n    /* \"#utility.yul\":1457:1588   */\n  tag_38\n  jump\t// in\ntag_46:\n    /* \"#utility.yul\":1449:1588   */\n  swap1\n  pop\n    /* \"#utility.yul\":1347:1595   */\n  swap2\n  swap1\n  pop\n  jump\t// out\n    /* \"#utility.yul\":1601:1770   */\ntag_35:\n    /* \"#utility.yul\":1685:1696   */\n  0x00\n    /* \"#utility.yul\":1719:1725   */\n  dup3\n    /* \"#utility.yul\":1714:1717   */\n  dup3\n    /* \"#utility.yul\":1707:1726   */\n  mstore\n    /* \"#utility.yul\":1759:1763   */\n  0x20\n    /* \"#utility.yul\":1754:1757   */\n  dup3\n    /* \"#utility.yul\":1750:1764   */\n  add\n    /* \"#utility.yul\":1735:1764   */\n  swap1\n  pop\n    /* \"#utility.yul\":1697:1770   */\n  swap3\n  swap2\n  pop\n  pop\n  jump\t// out\n    /* \"#utility.yul\":1776:2001   */\ntag_37:\n    /* \"#utility.yul\":1916:1950   */\n  0x4f776e61626c653a206e6577206f776e657220697320746865207a65726f2061\n    /* \"#utility.yul\":1912:1913   */\n  0x00\n    /* \"#utility.yul\":1904:1910   */\n  dup3\n    /* \"#utility.yul\":1900:1914   */\n  add\n    /* \"#utility.yul\":1893:1951   */\n  mstore\n    /* \"#utility.yul\":1985:1993   */\n  0x6464726573730000000000000000000000000000000000000000000000000000\n    /* \"#utility.yul\":1980:1982   */\n  0x20\n    /* \"#utility.yul\":1972:1978   */\n  dup3\n    /* \"#utility.yul\":1968:1983   */\n  add\n    /* \"#utility.yul\":1961:1994   */\n  mstore\n    /* \"#utility.yul\":1882:2001   */\n  pop\n  jump\t// out\n    /* \"#utility.yul\":2007:2189   */\ntag_42:\n    /* \"#utility.yul\":2147:2181   */\n  0x4f776e61626c653a2063616c6c6572206973206e6f7420746865206f776e6572\n    /* \"#utility.yul\":2143:2144   */\n  0x00\n    /* \"#utility.yul\":2135:2141   */\n  dup3\n    /* \"#utility.yul\":2131:2145   */\n  add\n    /* \"#utility.yul\":2124:2182   */\n  mstore\n    /* \"#utility.yul\":2113:2189   */\n  pop\n  jump\t// out\n    /* \"contracts/FlowerStorage.sol\":155:7267  contract FlowerStorage is Ownable {... */\ntag_12:\n  dataSize(sub_0)\n  dup1\n  dataOffset(sub_0)\n  0x00\n  codecopy\n  0x00\n  return\nstop\n\nsub_0: assembly {\n        /* \"contracts/FlowerStorage.sol\":155:7267  contract FlowerStorage is Ownable {... */\n      mstore(0x40, 0x80)\n      callvalue\n      dup1\n      iszero\n      tag_1\n      jumpi\n      0x00\n      dup1\n      revert\n    tag_1:\n      pop\n      jumpi(tag_2, lt(calldatasize, 0x04))\n      shr(0xe0, calldataload(0x00))\n      dup1\n      0xbaafd2d8\n      gt\n      tag_16\n      jumpi\n      dup1\n      0xd89135cd\n      gt\n      tag_17\n      jumpi\n      dup1\n      0xd89135cd\n      eq\n      tag_12\n      jumpi\n      dup1\n      0xe0aeb7c1\n      eq\n      tag_13\n      jumpi\n      dup1\n      0xefe54dd5\n      eq\n      tag_14\n      jumpi\n      dup1\n      0xf2fde38b\n      eq\n      tag_15\n      jumpi\n      jump(tag_2)\n    tag_17:\n      dup1\n      0xbaafd2d8\n      eq\n      tag_9\n      jumpi\n      dup1\n      0xca056aed\n      eq\n      tag_10\n      jumpi\n      dup1\n      0xce5e9365\n      eq\n      tag_11\n      jumpi\n      jump(tag_2)\n    tag_16:\n      dup1\n      0x18160ddd\n      eq\n      tag_3\n      jumpi\n      dup1\n      0x6e76c3cf\n      eq\n      tag_4\n      jumpi\n      dup1\n      0x715018a6\n      eq\n      tag_5\n      jumpi\n      dup1\n      0x8da5cb5b\n      eq\n      tag_6\n      jumpi\n      dup1\n      0xa3a142d2\n      eq\n      tag_7\n      jumpi\n      dup1\n      0xaee9c872\n      eq\n      tag_8\n      jumpi\n    tag_2:\n      0x00\n      dup1\n      revert\n        /* \"contracts/FlowerStorage.sol\":648:674  uint256 public totalSupply */\n    tag_3:\n      tag_18\n      tag_19\n      jump\t// in\n    tag_18:\n      mload(0x40)\n      tag_20\n      swap2\n      swap1\n      tag_21\n      jump\t// in\n    tag_20:\n      mload(0x40)\n      dup1\n      swap2\n      sub\n      swap1\n      return\n        /* \"contracts/FlowerStorage.sol\":1015:1061  mapping(address => uint256) public firstTBNode */\n    tag_4:\n      tag_22\n      0x04\n      dup1\n      calldatasize\n      sub\n      dup2\n      add\n      swap1\n      tag_23\n      swap2\n      swap1\n      tag_24\n      jump\t// in\n    tag_23:\n      tag_25\n      jump\t// in\n    tag_22:\n      mload(0x40)\n      tag_26\n      swap2\n      swap1\n      tag_21\n      jump\t// in\n    tag_26:\n      mload(0x40)\n      dup1\n      swap2\n      sub\n      swap1\n      return\n        /* \"@openzeppelin/contracts/access/Ownable.sol\":1831:1932  function renounceOwnership() public virtual onlyOwner {... */\n    tag_5:\n      tag_27\n      tag_28\n      jump\t// in\n    tag_27:\n      stop\n        /* \"@openzeppelin/contracts/access/Ownable.sol\":1201:1286  function owner() public view virtual returns (address) {... */\n    tag_6:\n      tag_29\n      tag_30\n      jump\t// in\n    tag_29:\n      mload(0x40)\n      tag_31\n      swap2\n      swap1\n      tag_32\n      jump\t// in\n    tag_31:\n      mload(0x40)\n      dup1\n      swap2\n      sub\n      swap1\n      return\n        /* \"contracts/FlowerStorage.sol\":2423:3983  function removeExpiredTokens(address addr, uint256 timeToExpire) public onlyOwner {... */\n    tag_7:\n      tag_33\n      0x04\n      dup1\n      calldatasize\n      sub\n      dup2\n      add\n      swap1\n      tag_34\n      swap2\n      swap1\n      tag_35\n      jump\t// in\n    tag_34:\n      tag_36\n      jump\t// in\n    tag_33:\n      stop\n        /* \"contracts/FlowerStorage.sol\":367:418  mapping ( address => uint256 ) public totalBalances */\n    tag_8:\n      tag_37\n      0x04\n      dup1\n      calldatasize\n      sub\n      dup2\n      add\n      swap1\n      tag_38\n      swap2\n      swap1\n      tag_24\n      jump\t// in\n    tag_38:\n      tag_39\n      jump\t// in\n    tag_37:\n      mload(0x40)\n      tag_40\n      swap2\n      swap1\n      tag_21\n      jump\t// in\n    tag_40:\n      mload(0x40)\n      dup1\n      swap2\n      sub\n      swap1\n      return\n        /* \"contracts/FlowerStorage.sol\":1135:1180  mapping(address => uint256) public lastTBNode */\n    tag_9:\n      tag_41\n      0x04\n      dup1\n      calldatasize\n      sub\n      dup2\n      add\n      swap1\n      tag_42\n      swap2\n      swap1\n      tag_24\n      jump\t// in\n    tag_42:\n      tag_43\n      jump\t// in\n    tag_41:\n      mload(0x40)\n      tag_44\n      swap2\n      swap1\n      tag_21\n      jump\t// in\n    tag_44:\n      mload(0x40)\n      dup1\n      swap2\n      sub\n      swap1\n      return\n        /* \"contracts/FlowerStorage.sol\":4025:4543  function addTokens(address addr, uint256 amount, uint256 timeToExpire) public onlyOwner {... */\n    tag_10:\n      tag_45\n      0x04\n      dup1\n      calldatasize\n      sub\n      dup2\n      add\n      swap1\n      tag_46\n      swap2\n      swap1\n      tag_47\n      jump\t// in\n    tag_46:\n      tag_48\n      jump\t// in\n    tag_45:\n      stop\n        /* \"contracts/FlowerStorage.sol\":722:749  uint256 public totalExpired */\n    tag_11:\n      tag_49\n      tag_50\n      jump\t// in\n    tag_49:\n      mload(0x40)\n      tag_51\n      swap2\n      swap1\n      tag_21\n      jump\t// in\n    tag_51:\n      mload(0x40)\n      dup1\n      swap2\n      sub\n      swap1\n      return\n        /* \"contracts/FlowerStorage.sol\":796:822  uint256 public totalBurned */\n    tag_12:\n      tag_52\n      tag_53\n      jump\t// in\n    tag_52:\n      mload(0x40)\n      tag_54\n      swap2\n      swap1\n      tag_21\n      jump\t// in\n    tag_54:\n      mload(0x40)\n      dup1\n      swap2\n      sub\n      swap1\n      return\n        /* \"contracts/FlowerStorage.sol\":4716:7265  function burnTokens(address addr, uint256 amount, uint256 timeToExpire) public onlyOwner {... */\n    tag_13:\n      tag_55\n      0x04\n      dup1\n      calldatasize\n      sub\n      dup2\n      add\n      swap1\n      tag_56\n      swap2\n      swap1\n      tag_47\n      jump\t// in\n    tag_56:\n      tag_57\n      jump\t// in\n    tag_55:\n      stop\n        /* \"contracts/FlowerStorage.sol\":1228:1295  mapping(address => mapping(uint256 => TBNode)) public tbNodeByIndex */\n    tag_14:\n      tag_58\n      0x04\n      dup1\n      calldatasize\n      sub\n      dup2\n      add\n      swap1\n      tag_59\n      swap2\n      swap1\n      tag_35\n      jump\t// in\n    tag_59:\n      tag_60\n      jump\t// in\n    tag_58:\n      mload(0x40)\n      tag_61\n      swap4\n      swap3\n      swap2\n      swap1\n      tag_62\n      jump\t// in\n    tag_61:\n      mload(0x40)\n      dup1\n      swap2\n      sub\n      swap1\n      return\n        /* \"@openzeppelin/contracts/access/Ownable.sol\":2081:2279  function transferOwnership(address newOwner) public virtual onlyOwner {... */\n    tag_15:\n      tag_63\n      0x04\n      dup1\n      calldatasize\n      sub\n      dup2\n      add\n      swap1\n      tag_64\n      swap2\n      swap1\n      tag_24\n      jump\t// in\n    tag_64:\n      tag_65\n      jump\t// in\n    tag_63:\n      stop\n        /* \"contracts/FlowerStorage.sol\":648:674  uint256 public totalSupply */\n    tag_19:\n      sload(0x02)\n      dup2\n      jump\t// out\n        /* \"contracts/FlowerStorage.sol\":1015:1061  mapping(address => uint256) public firstTBNode */\n    tag_25:\n      mstore(0x20, 0x05)\n      dup1\n      0x00\n      mstore\n      keccak256(0x00, 0x40)\n      0x00\n      swap2\n      pop\n      swap1\n      pop\n      sload\n      dup2\n      jump\t// out\n        /* \"@openzeppelin/contracts/access/Ownable.sol\":1831:1932  function renounceOwnership() public virtual onlyOwner {... */\n    tag_28:\n        /* \"@openzeppelin/contracts/access/Ownable.sol\":1094:1107  _checkOwner() */\n      tag_67\n        /* \"@openzeppelin/contracts/access/Ownable.sol\":1094:1105  _checkOwner */\n      tag_68\n        /* \"@openzeppelin/contracts/access/Ownable.sol\":1094:1107  _checkOwner() */\n      jump\t// in\n    tag_67:\n        /* \"@openzeppelin/contracts/access/Ownable.sol\":1895:1925  _transferOwnership(address(0)) */\n      tag_70\n        /* \"@openzeppelin/contracts/access/Ownable.sol\":1922:1923  0 */\n      0x00\n        /* \"@openzeppelin/contracts/access/Ownable.sol\":1895:1913  _transferOwnership */\n      tag_71\n        /* \"@openzeppelin/contracts/access/Ownable.sol\":1895:1925  _transferOwnership(address(0)) */\n      jump\t// in\n    tag_70:\n        /* \"@openzeppelin/contracts/access/Ownable.sol\":1831:1932  function renounceOwnership() public virtual onlyOwner {... */\n      jump\t// out\n        /* \"@openzeppelin/contracts/access/Ownable.sol\":1201:1286  function owner() public view virtual returns (address) {... */\n    tag_30:\n        /* \"@openzeppelin/contracts/access/Ownable.sol\":1247:1254  address */\n      0x00\n        /* \"@openzeppelin/contracts/access/Ownable.sol\":1273:1279  _owner */\n      dup1\n      0x00\n      swap1\n      sload\n      swap1\n      0x0100\n      exp\n      swap1\n      div\n      0xffffffffffffffffffffffffffffffffffffffff\n      and\n        /* \"@openzeppelin/contracts/access/Ownable.sol\":1266:1279  return _owner */\n      swap1\n      pop\n        /* \"@openzeppelin/contracts/access/Ownable.sol\":1201:1286  function owner() public view virtual returns (address) {... */\n      swap1\n      jump\t// out\n        /* \"contracts/FlowerStorage.sol\":2423:3983  function removeExpiredTokens(address addr, uint256 timeToExpire) public onlyOwner {... */\n    tag_36:\n        /* \"@openzeppelin/contracts/access/Ownable.sol\":1094:1107  _checkOwner() */\n      tag_74\n        /* \"@openzeppelin/contracts/access/Ownable.sol\":1094:1105  _checkOwner */\n      tag_68\n        /* \"@openzeppelin/contracts/access/Ownable.sol\":1094:1107  _checkOwner() */\n      jump\t// in\n    tag_74:\n        /* \"contracts/FlowerStorage.sol\":2515:2535  uint256 currentIndex */\n      0x00\n        /* \"contracts/FlowerStorage.sol\":2539:2550  firstTBNode */\n      0x05\n        /* \"contracts/FlowerStorage.sol\":2539:2556  firstTBNode[addr] */\n      0x00\n        /* \"contracts/FlowerStorage.sol\":2551:2555  addr */\n      dup5\n        /* \"contracts/FlowerStorage.sol\":2539:2556  firstTBNode[addr] */\n      0xffffffffffffffffffffffffffffffffffffffff\n      and\n      0xffffffffffffffffffffffffffffffffffffffff\n      and\n      dup2\n      mstore\n      0x20\n      add\n      swap1\n      dup2\n      mstore\n      0x20\n      add\n      0x00\n      keccak256\n      sload\n        /* \"contracts/FlowerStorage.sol\":2515:2556  uint256 currentIndex =  firstTBNode[addr] */\n      swap1\n      pop\n        /* \"contracts/FlowerStorage.sol\":2566:2591  TBNode memory currentNode */\n      0x00\n        /* \"contracts/FlowerStorage.sol\":2594:2607  tbNodeByIndex */\n      0x07\n        /* \"contracts/FlowerStorage.sol\":2594:2613  tbNodeByIndex[addr] */\n      0x00\n        /* \"contracts/FlowerStorage.sol\":2608:2612  addr */\n      dup6\n        /* \"contracts/FlowerStorage.sol\":2594:2613  tbNodeByIndex[addr] */\n      0xffffffffffffffffffffffffffffffffffffffff\n      and\n      0xffffffffffffffffffffffffffffffffffffffff\n      and\n      dup2\n      mstore\n      0x20\n      add\n      swap1\n      dup2\n      mstore\n      0x20\n      add\n      0x00\n      keccak256\n        /* \"contracts/FlowerStorage.sol\":2594:2627  tbNodeByIndex[addr][currentIndex] */\n      0x00\n        /* \"contracts/FlowerStorage.sol\":2614:2626  currentIndex */\n      dup4\n        /* \"contracts/FlowerStorage.sol\":2594:2627  tbNodeByIndex[addr][currentIndex] */\n      dup2\n      mstore\n      0x20\n      add\n      swap1\n      dup2\n      mstore\n      0x20\n      add\n      0x00\n      keccak256\n        /* \"contracts/FlowerStorage.sol\":2566:2627  TBNode memory currentNode = tbNodeByIndex[addr][currentIndex] */\n      mload(0x40)\n      dup1\n      0x60\n      add\n      0x40\n      mstore\n      swap1\n      dup2\n      0x00\n      dup3\n      add\n      sload\n      dup2\n      mstore\n      0x20\n      add\n      0x01\n      dup3\n      add\n      sload\n      dup2\n      mstore\n      0x20\n      add\n      0x02\n      dup3\n      add\n      sload\n      dup2\n      mstore\n      pop\n      pop\n      swap1\n      pop\n        /* \"contracts/FlowerStorage.sol\":2733:2759  uint256 totalTokensExpired */\n      0x00\n        /* \"contracts/FlowerStorage.sol\":2851:3688  while (currentIndex != 0 && currentNode.timestamp + timeToExpire <= block.timestamp)... */\n    tag_76:\n        /* \"contracts/FlowerStorage.sol\":2874:2875  0 */\n      0x00\n        /* \"contracts/FlowerStorage.sol\":2858:2870  currentIndex */\n      dup4\n        /* \"contracts/FlowerStorage.sol\":2858:2875  currentIndex != 0 */\n      eq\n      iszero\n        /* \"contracts/FlowerStorage.sol\":2858:2934  currentIndex != 0 && currentNode.timestamp + timeToExpire <= block.timestamp */\n      dup1\n      iszero\n      tag_78\n      jumpi\n      pop\n        /* \"contracts/FlowerStorage.sol\":2919:2934  block.timestamp */\n      timestamp\n        /* \"contracts/FlowerStorage.sol\":2903:2915  timeToExpire */\n      dup5\n        /* \"contracts/FlowerStorage.sol\":2879:2890  currentNode */\n      dup4\n        /* \"contracts/FlowerStorage.sol\":2879:2900  currentNode.timestamp */\n      0x00\n      add\n      mload\n        /* \"contracts/FlowerStorage.sol\":2879:2915  currentNode.timestamp + timeToExpire */\n      tag_79\n      swap2\n      swap1\n      tag_80\n      jump\t// in\n    tag_79:\n        /* \"contracts/FlowerStorage.sol\":2879:2934  currentNode.timestamp + timeToExpire <= block.timestamp */\n      gt\n      iszero\n        /* \"contracts/FlowerStorage.sol\":2858:2934  currentIndex != 0 && currentNode.timestamp + timeToExpire <= block.timestamp */\n    tag_78:\n        /* \"contracts/FlowerStorage.sol\":2851:3688  while (currentIndex != 0 && currentNode.timestamp + timeToExpire <= block.timestamp)... */\n      iszero\n      tag_77\n      jumpi\n        /* \"contracts/FlowerStorage.sol\":3022:3033  currentNode */\n      dup2\n        /* \"contracts/FlowerStorage.sol\":3022:3038  currentNode.next */\n      0x40\n      add\n      mload\n        /* \"contracts/FlowerStorage.sol\":3002:3013  firstTBNode */\n      0x05\n        /* \"contracts/FlowerStorage.sol\":3002:3019  firstTBNode[addr] */\n      0x00\n        /* \"contracts/FlowerStorage.sol\":3014:3018  addr */\n      dup8\n        /* \"contracts/FlowerStorage.sol\":3002:3019  firstTBNode[addr] */\n      0xffffffffffffffffffffffffffffffffffffffff\n      and\n      0xffffffffffffffffffffffffffffffffffffffff\n      and\n      dup2\n      mstore\n      0x20\n      add\n      swap1\n      dup2\n      mstore\n      0x20\n      add\n      0x00\n      keccak256\n        /* \"contracts/FlowerStorage.sol\":3002:3038  firstTBNode[addr] = currentNode.next */\n      dup2\n      swap1\n      sstore\n      pop\n        /* \"contracts/FlowerStorage.sol\":3166:3178  currentIndex */\n      dup3\n        /* \"contracts/FlowerStorage.sol\":3146:3156  lastTBNode */\n      0x06\n        /* \"contracts/FlowerStorage.sol\":3146:3162  lastTBNode[addr] */\n      0x00\n        /* \"contracts/FlowerStorage.sol\":3157:3161  addr */\n      dup8\n        /* \"contracts/FlowerStorage.sol\":3146:3162  lastTBNode[addr] */\n      0xffffffffffffffffffffffffffffffffffffffff\n      and\n      0xffffffffffffffffffffffffffffffffffffffff\n      and\n      dup2\n      mstore\n      0x20\n      add\n      swap1\n      dup2\n      mstore\n      0x20\n      add\n      0x00\n      keccak256\n      sload\n        /* \"contracts/FlowerStorage.sol\":3146:3178  lastTBNode[addr] == currentIndex */\n      eq\n        /* \"contracts/FlowerStorage.sol\":3142:3260  if (lastTBNode[addr] == currentIndex)... */\n      iszero\n      tag_81\n      jumpi\n        /* \"contracts/FlowerStorage.sol\":3229:3240  currentNode */\n      dup2\n        /* \"contracts/FlowerStorage.sol\":3229:3245  currentNode.next */\n      0x40\n      add\n      mload\n        /* \"contracts/FlowerStorage.sol\":3210:3220  lastTBNode */\n      0x06\n        /* \"contracts/FlowerStorage.sol\":3210:3226  lastTBNode[addr] */\n      0x00\n        /* \"contracts/FlowerStorage.sol\":3221:3225  addr */\n      dup8\n        /* \"contracts/FlowerStorage.sol\":3210:3226  lastTBNode[addr] */\n      0xffffffffffffffffffffffffffffffffffffffff\n      and\n      0xffffffffffffffffffffffffffffffffffffffff\n      and\n      dup2\n      mstore\n      0x20\n      add\n      swap1\n      dup2\n      mstore\n      0x20\n      add\n      0x00\n      keccak256\n        /* \"contracts/FlowerStorage.sol\":3210:3245  lastTBNode[addr] = currentNode.next */\n      dup2\n      swap1\n      sstore\n      pop\n        /* \"contracts/FlowerStorage.sol\":3142:3260  if (lastTBNode[addr] == currentIndex)... */\n    tag_81:\n        /* \"contracts/FlowerStorage.sol\":3366:3377  currentNode */\n      dup2\n        /* \"contracts/FlowerStorage.sol\":3366:3385  currentNode.balance */\n      0x20\n      add\n      mload\n        /* \"contracts/FlowerStorage.sol\":3344:3385  totalTokensExpired += currentNode.balance */\n      dup2\n      tag_82\n      swap2\n      swap1\n      tag_80\n      jump\t// in\n    tag_82:\n      swap1\n      pop\n        /* \"contracts/FlowerStorage.sol\":3481:3494  tbNodeByIndex */\n      0x07\n        /* \"contracts/FlowerStorage.sol\":3481:3500  tbNodeByIndex[addr] */\n      0x00\n        /* \"contracts/FlowerStorage.sol\":3495:3499  addr */\n      dup7\n        /* \"contracts/FlowerStorage.sol\":3481:3500  tbNodeByIndex[addr] */\n      0xffffffffffffffffffffffffffffffffffffffff\n      and\n      0xffffffffffffffffffffffffffffffffffffffff\n      and\n      dup2\n      mstore\n      0x20\n      add\n      swap1\n      dup2\n      mstore\n      0x20\n      add\n      0x00\n      keccak256\n        /* \"contracts/FlowerStorage.sol\":3481:3514  tbNodeByIndex[addr][currentIndex] */\n      0x00\n        /* \"contracts/FlowerStorage.sol\":3501:3513  currentIndex */\n      dup5\n        /* \"contracts/FlowerStorage.sol\":3481:3514  tbNodeByIndex[addr][currentIndex] */\n      dup2\n      mstore\n      0x20\n      add\n      swap1\n      dup2\n      mstore\n      0x20\n      add\n      0x00\n      keccak256\n      0x00\n        /* \"contracts/FlowerStorage.sol\":3474:3514  delete tbNodeByIndex[addr][currentIndex] */\n      dup1\n      dup3\n      add\n      0x00\n      swap1\n      sstore\n      0x01\n      dup3\n      add\n      0x00\n      swap1\n      sstore\n      0x02\n      dup3\n      add\n      0x00\n      swap1\n      sstore\n      pop\n      pop\n        /* \"contracts/FlowerStorage.sol\":3590:3601  currentNode */\n      dup2\n        /* \"contracts/FlowerStorage.sol\":3590:3606  currentNode.next */\n      0x40\n      add\n      mload\n        /* \"contracts/FlowerStorage.sol\":3575:3606  currentIndex = currentNode.next */\n      swap3\n      pop\n        /* \"contracts/FlowerStorage.sol\":3634:3647  tbNodeByIndex */\n      0x07\n        /* \"contracts/FlowerStorage.sol\":3634:3653  tbNodeByIndex[addr] */\n      0x00\n        /* \"contracts/FlowerStorage.sol\":3648:3652  addr */\n      dup7\n        /* \"contracts/FlowerStorage.sol\":3634:3653  tbNodeByIndex[addr] */\n      0xffffffffffffffffffffffffffffffffffffffff\n      and\n      0xffffffffffffffffffffffffffffffffffffffff\n      and\n      dup2\n      mstore\n      0x20\n      add\n      swap1\n      dup2\n      mstore\n      0x20\n      add\n      0x00\n      keccak256\n        /* \"contracts/FlowerStorage.sol\":3634:3667  tbNodeByIndex[addr][currentIndex] */\n      0x00\n        /* \"contracts/FlowerStorage.sol\":3654:3666  currentIndex */\n      dup5\n        /* \"contracts/FlowerStorage.sol\":3634:3667  tbNodeByIndex[addr][currentIndex] */\n      dup2\n      mstore\n      0x20\n      add\n      swap1\n      dup2\n      mstore\n      0x20\n      add\n      0x00\n      keccak256\n        /* \"contracts/FlowerStorage.sol\":3620:3667  currentNode = tbNodeByIndex[addr][currentIndex] */\n      mload(0x40)\n      dup1\n      0x60\n      add\n      0x40\n      mstore\n      swap1\n      dup2\n      0x00\n      dup3\n      add\n      sload\n      dup2\n      mstore\n      0x20\n      add\n      0x01\n      dup3\n      add\n      sload\n      dup2\n      mstore\n      0x20\n      add\n      0x02\n      dup3\n      add\n      sload\n      dup2\n      mstore\n      pop\n      pop\n      swap2\n      pop\n        /* \"contracts/FlowerStorage.sol\":2851:3688  while (currentIndex != 0 && currentNode.timestamp + timeToExpire <= block.timestamp)... */\n      jump(tag_76)\n    tag_77:\n        /* \"contracts/FlowerStorage.sol\":3791:3809  totalTokensExpired */\n      dup1\n        /* \"contracts/FlowerStorage.sol\":3768:3781  totalBalances */\n      0x01\n        /* \"contracts/FlowerStorage.sol\":3768:3787  totalBalances[addr] */\n      0x00\n        /* \"contracts/FlowerStorage.sol\":3782:3786  addr */\n      dup8\n        /* \"contracts/FlowerStorage.sol\":3768:3787  totalBalances[addr] */\n      0xffffffffffffffffffffffffffffffffffffffff\n      and\n      0xffffffffffffffffffffffffffffffffffffffff\n      and\n      dup2\n      mstore\n      0x20\n      add\n      swap1\n      dup2\n      mstore\n      0x20\n      add\n      0x00\n      keccak256\n      0x00\n        /* \"contracts/FlowerStorage.sol\":3768:3809  totalBalances[addr] -= totalTokensExpired */\n      dup3\n      dup3\n      sload\n      tag_83\n      swap2\n      swap1\n      tag_84\n      jump\t// in\n    tag_83:\n      swap3\n      pop\n      pop\n      dup2\n      swap1\n      sstore\n      pop\n        /* \"contracts/FlowerStorage.sol\":3875:3893  totalTokensExpired */\n      dup1\n        /* \"contracts/FlowerStorage.sol\":3860:3871  totalSupply */\n      0x02\n      0x00\n        /* \"contracts/FlowerStorage.sol\":3860:3893  totalSupply -= totalTokensExpired */\n      dup3\n      dup3\n      sload\n      tag_85\n      swap2\n      swap1\n      tag_84\n      jump\t// in\n    tag_85:\n      swap3\n      pop\n      pop\n      dup2\n      swap1\n      sstore\n      pop\n        /* \"contracts/FlowerStorage.sol\":3958:3976  totalTokensExpired */\n      dup1\n        /* \"contracts/FlowerStorage.sol\":3942:3954  totalExpired */\n      0x03\n      0x00\n        /* \"contracts/FlowerStorage.sol\":3942:3976  totalExpired += totalTokensExpired */\n      dup3\n      dup3\n      sload\n      tag_86\n      swap2\n      swap1\n      tag_80\n      jump\t// in\n    tag_86:\n      swap3\n      pop\n      pop\n      dup2\n      swap1\n      sstore\n      pop\n        /* \"@openzeppelin/contracts/access/Ownable.sol\":1117:1118  _ */\n      pop\n      pop\n      pop\n        /* \"contracts/FlowerStorage.sol\":2423:3983  function removeExpiredTokens(address addr, uint256 timeToExpire) public onlyOwner {... */\n      pop\n      pop\n      jump\t// out\n        /* \"contracts/FlowerStorage.sol\":367:418  mapping ( address => uint256 ) public totalBalances */\n    tag_39:\n      mstore(0x20, 0x01)\n      dup1\n      0x00\n      mstore\n      keccak256(0x00, 0x40)\n      0x00\n      swap2\n      pop\n      swap1\n      pop\n      sload\n      dup2\n      jump\t// out\n        /* \"contracts/FlowerStorage.sol\":1135:1180  mapping(address => uint256) public lastTBNode */\n    tag_43:\n      mstore(0x20, 0x06)\n      dup1\n      0x00\n      mstore\n      keccak256(0x00, 0x40)\n      0x00\n      swap2\n      pop\n      swap1\n      pop\n      sload\n      dup2\n      jump\t// out\n        /* \"contracts/FlowerStorage.sol\":4025:4543  function addTokens(address addr, uint256 amount, uint256 timeToExpire) public onlyOwner {... */\n    tag_48:\n        /* \"@openzeppelin/contracts/access/Ownable.sol\":1094:1107  _checkOwner() */\n      tag_88\n        /* \"@openzeppelin/contracts/access/Ownable.sol\":1094:1105  _checkOwner */\n      tag_68\n        /* \"@openzeppelin/contracts/access/Ownable.sol\":1094:1107  _checkOwner() */\n      jump\t// in\n    tag_88:\n        /* \"contracts/FlowerStorage.sol\":4179:4218  removeExpiredTokens(addr, timeToExpire) */\n      tag_90\n        /* \"contracts/FlowerStorage.sol\":4199:4203  addr */\n      dup4\n        /* \"contracts/FlowerStorage.sol\":4205:4217  timeToExpire */\n      dup3\n        /* \"contracts/FlowerStorage.sol\":4179:4198  removeExpiredTokens */\n      tag_36\n        /* \"contracts/FlowerStorage.sol\":4179:4218  removeExpiredTokens(addr, timeToExpire) */\n      jump\t// in\n    tag_90:\n        /* \"contracts/FlowerStorage.sol\":4254:4271  uint256 timeAdded */\n      0x00\n        /* \"contracts/FlowerStorage.sol\":4274:4289  block.timestamp */\n      timestamp\n        /* \"contracts/FlowerStorage.sol\":4254:4289  uint256 timeAdded = block.timestamp */\n      swap1\n      pop\n        /* \"contracts/FlowerStorage.sol\":4350:4382  addNode(addr, timeAdded, amount) */\n      tag_91\n        /* \"contracts/FlowerStorage.sol\":4358:4362  addr */\n      dup5\n        /* \"contracts/FlowerStorage.sol\":4364:4373  timeAdded */\n      dup3\n        /* \"contracts/FlowerStorage.sol\":4375:4381  amount */\n      dup6\n        /* \"contracts/FlowerStorage.sol\":4350:4357  addNode */\n      tag_92\n        /* \"contracts/FlowerStorage.sol\":4350:4382  addNode(addr, timeAdded, amount) */\n      jump\t// in\n    tag_91:\n        /* \"contracts/FlowerStorage.sol\":4458:4464  amount */\n      dup3\n        /* \"contracts/FlowerStorage.sol\":4435:4448  totalBalances */\n      0x01\n        /* \"contracts/FlowerStorage.sol\":4435:4454  totalBalances[addr] */\n      0x00\n        /* \"contracts/FlowerStorage.sol\":4449:4453  addr */\n      dup7\n        /* \"contracts/FlowerStorage.sol\":4435:4454  totalBalances[addr] */\n      0xffffffffffffffffffffffffffffffffffffffff\n      and\n      0xffffffffffffffffffffffffffffffffffffffff\n      and\n      dup2\n      mstore\n      0x20\n      add\n      swap1\n      dup2\n      mstore\n      0x20\n      add\n      0x00\n      keccak256\n      0x00\n        /* \"contracts/FlowerStorage.sol\":4435:4464  totalBalances[addr] += amount */\n      dup3\n      dup3\n      sload\n      tag_93\n      swap2\n      swap1\n      tag_80\n      jump\t// in\n    tag_93:\n      swap3\n      pop\n      pop\n      dup2\n      swap1\n      sstore\n      pop\n        /* \"contracts/FlowerStorage.sol\":4530:4536  amount */\n      dup3\n        /* \"contracts/FlowerStorage.sol\":4515:4526  totalSupply */\n      0x02\n      0x00\n        /* \"contracts/FlowerStorage.sol\":4515:4536  totalSupply += amount */\n      dup3\n      dup3\n      sload\n      tag_94\n      swap2\n      swap1\n      tag_80\n      jump\t// in\n    tag_94:\n      swap3\n      pop\n      pop\n      dup2\n      swap1\n      sstore\n      pop\n        /* \"@openzeppelin/contracts/access/Ownable.sol\":1117:1118  _ */\n      pop\n        /* \"contracts/FlowerStorage.sol\":4025:4543  function addTokens(address addr, uint256 amount, uint256 timeToExpire) public onlyOwner {... */\n      pop\n      pop\n      pop\n      jump\t// out\n        /* \"contracts/FlowerStorage.sol\":722:749  uint256 public totalExpired */\n    tag_50:\n      sload(0x03)\n      dup2\n      jump\t// out\n        /* \"contracts/FlowerStorage.sol\":796:822  uint256 public totalBurned */\n    tag_53:\n      sload(0x04)\n      dup2\n      jump\t// out\n        /* \"contracts/FlowerStorage.sol\":4716:7265  function burnTokens(address addr, uint256 amount, uint256 timeToExpire) public onlyOwner {... */\n    tag_57:\n        /* \"@openzeppelin/contracts/access/Ownable.sol\":1094:1107  _checkOwner() */\n      tag_96\n        /* \"@openzeppelin/contracts/access/Ownable.sol\":1094:1105  _checkOwner */\n      tag_68\n        /* \"@openzeppelin/contracts/access/Ownable.sol\":1094:1107  _checkOwner() */\n      jump\t// in\n    tag_96:\n        /* \"contracts/FlowerStorage.sol\":4964:5003  removeExpiredTokens(addr, timeToExpire) */\n      tag_98\n        /* \"contracts/FlowerStorage.sol\":4984:4988  addr */\n      dup4\n        /* \"contracts/FlowerStorage.sol\":4990:5002  timeToExpire */\n      dup3\n        /* \"contracts/FlowerStorage.sol\":4964:4983  removeExpiredTokens */\n      tag_36\n        /* \"contracts/FlowerStorage.sol\":4964:5003  removeExpiredTokens(addr, timeToExpire) */\n      jump\t// in\n    tag_98:\n        /* \"contracts/FlowerStorage.sol\":5132:5138  amount */\n      dup2\n        /* \"contracts/FlowerStorage.sol\":5109:5122  totalBalances */\n      0x01\n        /* \"contracts/FlowerStorage.sol\":5109:5128  totalBalances[addr] */\n      0x00\n        /* \"contracts/FlowerStorage.sol\":5123:5127  addr */\n      dup6\n        /* \"contracts/FlowerStorage.sol\":5109:5128  totalBalances[addr] */\n      0xffffffffffffffffffffffffffffffffffffffff\n      and\n      0xffffffffffffffffffffffffffffffffffffffff\n      and\n      dup2\n      mstore\n      0x20\n      add\n      swap1\n      dup2\n      mstore\n      0x20\n      add\n      0x00\n      keccak256\n      sload\n        /* \"contracts/FlowerStorage.sol\":5109:5138  totalBalances[addr] >= amount */\n      lt\n      iszero\n        /* \"contracts/FlowerStorage.sol\":5101:5168  require(totalBalances[addr] >= amount, \"Not enough tokens to burn\") */\n      tag_99\n      jumpi\n      mload(0x40)\n      0x08c379a000000000000000000000000000000000000000000000000000000000\n      dup2\n      mstore\n      0x04\n      add\n      tag_100\n      swap1\n      tag_101\n      jump\t// in\n    tag_100:\n      mload(0x40)\n      dup1\n      swap2\n      sub\n      swap1\n      revert\n    tag_99:\n        /* \"contracts/FlowerStorage.sol\":5228:5248  uint256 currentIndex */\n      0x00\n        /* \"contracts/FlowerStorage.sol\":5252:5263  firstTBNode */\n      0x05\n        /* \"contracts/FlowerStorage.sol\":5252:5269  firstTBNode[addr] */\n      0x00\n        /* \"contracts/FlowerStorage.sol\":5264:5268  addr */\n      dup6\n        /* \"contracts/FlowerStorage.sol\":5252:5269  firstTBNode[addr] */\n      0xffffffffffffffffffffffffffffffffffffffff\n      and\n      0xffffffffffffffffffffffffffffffffffffffff\n      and\n      dup2\n      mstore\n      0x20\n      add\n      swap1\n      dup2\n      mstore\n      0x20\n      add\n      0x00\n      keccak256\n      sload\n        /* \"contracts/FlowerStorage.sol\":5228:5269  uint256 currentIndex =  firstTBNode[addr] */\n      swap1\n      pop\n        /* \"contracts/FlowerStorage.sol\":5279:5304  TBNode memory currentNode */\n      0x00\n        /* \"contracts/FlowerStorage.sol\":5307:5320  tbNodeByIndex */\n      0x07\n        /* \"contracts/FlowerStorage.sol\":5307:5326  tbNodeByIndex[addr] */\n      0x00\n        /* \"contracts/FlowerStorage.sol\":5321:5325  addr */\n      dup7\n        /* \"contracts/FlowerStorage.sol\":5307:5326  tbNodeByIndex[addr] */\n      0xffffffffffffffffffffffffffffffffffffffff\n      and\n      0xffffffffffffffffffffffffffffffffffffffff\n      and\n      dup2\n      mstore\n      0x20\n      add\n      swap1\n      dup2\n      mstore\n      0x20\n      add\n      0x00\n      keccak256\n        /* \"contracts/FlowerStorage.sol\":5307:5340  tbNodeByIndex[addr][currentIndex] */\n      0x00\n        /* \"contracts/FlowerStorage.sol\":5327:5339  currentIndex */\n      dup4\n        /* \"contracts/FlowerStorage.sol\":5307:5340  tbNodeByIndex[addr][currentIndex] */\n      dup2\n      mstore\n      0x20\n      add\n      swap1\n      dup2\n      mstore\n      0x20\n      add\n      0x00\n      keccak256\n        /* \"contracts/FlowerStorage.sol\":5279:5340  TBNode memory currentNode = tbNodeByIndex[addr][currentIndex] */\n      mload(0x40)\n      dup1\n      0x60\n      add\n      0x40\n      mstore\n      swap1\n      dup2\n      0x00\n      dup3\n      add\n      sload\n      dup2\n      mstore\n      0x20\n      add\n      0x01\n      dup3\n      add\n      sload\n      dup2\n      mstore\n      0x20\n      add\n      0x02\n      dup3\n      add\n      sload\n      dup2\n      mstore\n      pop\n      pop\n      swap1\n      pop\n        /* \"contracts/FlowerStorage.sol\":5443:5463  uint256 amountBurned */\n      0x00\n        /* \"contracts/FlowerStorage.sol\":5546:6991  while (amountBurned < amount)... */\n    tag_102:\n        /* \"contracts/FlowerStorage.sol\":5568:5574  amount */\n      dup5\n        /* \"contracts/FlowerStorage.sol\":5553:5565  amountBurned */\n      dup2\n        /* \"contracts/FlowerStorage.sol\":5553:5574  amountBurned < amount */\n      lt\n        /* \"contracts/FlowerStorage.sol\":5546:6991  while (amountBurned < amount)... */\n      iszero\n      tag_103\n      jumpi\n        /* \"contracts/FlowerStorage.sol\":5661:5673  uint256 diff */\n      0x00\n        /* \"contracts/FlowerStorage.sol\":5685:5697  amountBurned */\n      dup2\n        /* \"contracts/FlowerStorage.sol\":5676:5682  amount */\n      dup7\n        /* \"contracts/FlowerStorage.sol\":5676:5697  amount - amountBurned */\n      tag_104\n      swap2\n      swap1\n      tag_84\n      jump\t// in\n    tag_104:\n        /* \"contracts/FlowerStorage.sol\":5661:5697  uint256 diff = amount - amountBurned */\n      swap1\n      pop\n        /* \"contracts/FlowerStorage.sol\":5820:5831  currentNode */\n      dup3\n        /* \"contracts/FlowerStorage.sol\":5820:5839  currentNode.balance */\n      0x20\n      add\n      mload\n        /* \"contracts/FlowerStorage.sol\":5812:5816  diff */\n      dup2\n        /* \"contracts/FlowerStorage.sol\":5812:5839  diff >= currentNode.balance */\n      lt\n        /* \"contracts/FlowerStorage.sol\":5808:6981  if (diff >= currentNode.balance)... */\n      tag_105\n      jumpi\n        /* \"contracts/FlowerStorage.sol\":5949:5960  currentNode */\n      dup3\n        /* \"contracts/FlowerStorage.sol\":5949:5968  currentNode.balance */\n      0x20\n      add\n      mload\n        /* \"contracts/FlowerStorage.sol\":5933:5968  amountBurned += currentNode.balance */\n      dup3\n      tag_106\n      swap2\n      swap1\n      tag_80\n      jump\t// in\n    tag_106:\n      swap2\n      pop\n        /* \"contracts/FlowerStorage.sol\":6060:6073  tbNodeByIndex */\n      0x07\n        /* \"contracts/FlowerStorage.sol\":6060:6079  tbNodeByIndex[addr] */\n      0x00\n        /* \"contracts/FlowerStorage.sol\":6074:6078  addr */\n      dup9\n        /* \"contracts/FlowerStorage.sol\":6060:6079  tbNodeByIndex[addr] */\n      0xffffffffffffffffffffffffffffffffffffffff\n      and\n      0xffffffffffffffffffffffffffffffffffffffff\n      and\n      dup2\n      mstore\n      0x20\n      add\n      swap1\n      dup2\n      mstore\n      0x20\n      add\n      0x00\n      keccak256\n        /* \"contracts/FlowerStorage.sol\":6060:6093  tbNodeByIndex[addr][currentIndex] */\n      0x00\n        /* \"contracts/FlowerStorage.sol\":6080:6092  currentIndex */\n      dup6\n        /* \"contracts/FlowerStorage.sol\":6060:6093  tbNodeByIndex[addr][currentIndex] */\n      dup2\n      mstore\n      0x20\n      add\n      swap1\n      dup2\n      mstore\n      0x20\n      add\n      0x00\n      keccak256\n      0x00\n        /* \"contracts/FlowerStorage.sol\":6053:6093  delete tbNodeByIndex[addr][currentIndex] */\n      dup1\n      dup3\n      add\n      0x00\n      swap1\n      sstore\n      0x01\n      dup3\n      add\n      0x00\n      swap1\n      sstore\n      0x02\n      dup3\n      add\n      0x00\n      swap1\n      sstore\n      pop\n      pop\n        /* \"contracts/FlowerStorage.sol\":6180:6191  currentNode */\n      dup3\n        /* \"contracts/FlowerStorage.sol\":6180:6196  currentNode.next */\n      0x40\n      add\n      mload\n        /* \"contracts/FlowerStorage.sol\":6160:6171  firstTBNode */\n      0x05\n        /* \"contracts/FlowerStorage.sol\":6160:6177  firstTBNode[addr] */\n      0x00\n        /* \"contracts/FlowerStorage.sol\":6172:6176  addr */\n      dup10\n        /* \"contracts/FlowerStorage.sol\":6160:6177  firstTBNode[addr] */\n      0xffffffffffffffffffffffffffffffffffffffff\n      and\n      0xffffffffffffffffffffffffffffffffffffffff\n      and\n      dup2\n      mstore\n      0x20\n      add\n      swap1\n      dup2\n      mstore\n      0x20\n      add\n      0x00\n      keccak256\n        /* \"contracts/FlowerStorage.sol\":6160:6196  firstTBNode[addr] = currentNode.next */\n      dup2\n      swap1\n      sstore\n      pop\n        /* \"contracts/FlowerStorage.sol\":6332:6344  currentIndex */\n      dup4\n        /* \"contracts/FlowerStorage.sol\":6312:6322  lastTBNode */\n      0x06\n        /* \"contracts/FlowerStorage.sol\":6312:6328  lastTBNode[addr] */\n      0x00\n        /* \"contracts/FlowerStorage.sol\":6323:6327  addr */\n      dup10\n        /* \"contracts/FlowerStorage.sol\":6312:6328  lastTBNode[addr] */\n      0xffffffffffffffffffffffffffffffffffffffff\n      and\n      0xffffffffffffffffffffffffffffffffffffffff\n      and\n      dup2\n      mstore\n      0x20\n      add\n      swap1\n      dup2\n      mstore\n      0x20\n      add\n      0x00\n      keccak256\n      sload\n        /* \"contracts/FlowerStorage.sol\":6312:6344  lastTBNode[addr] == currentIndex */\n      eq\n        /* \"contracts/FlowerStorage.sol\":6308:6438  if (lastTBNode[addr] == currentIndex)... */\n      iszero\n      tag_107\n      jumpi\n        /* \"contracts/FlowerStorage.sol\":6403:6414  currentNode */\n      dup3\n        /* \"contracts/FlowerStorage.sol\":6403:6419  currentNode.next */\n      0x40\n      add\n      mload\n        /* \"contracts/FlowerStorage.sol\":6384:6394  lastTBNode */\n      0x06\n        /* \"contracts/FlowerStorage.sol\":6384:6400  lastTBNode[addr] */\n      0x00\n        /* \"contracts/FlowerStorage.sol\":6395:6399  addr */\n      dup10\n        /* \"contracts/FlowerStorage.sol\":6384:6400  lastTBNode[addr] */\n      0xffffffffffffffffffffffffffffffffffffffff\n      and\n      0xffffffffffffffffffffffffffffffffffffffff\n      and\n      dup2\n      mstore\n      0x20\n      add\n      swap1\n      dup2\n      mstore\n      0x20\n      add\n      0x00\n      keccak256\n        /* \"contracts/FlowerStorage.sol\":6384:6419  lastTBNode[addr] = currentNode.next */\n      dup2\n      swap1\n      sstore\n      pop\n        /* \"contracts/FlowerStorage.sol\":6308:6438  if (lastTBNode[addr] == currentIndex)... */\n    tag_107:\n        /* \"contracts/FlowerStorage.sol\":6521:6532  currentNode */\n      dup3\n        /* \"contracts/FlowerStorage.sol\":6521:6537  currentNode.next */\n      0x40\n      add\n      mload\n        /* \"contracts/FlowerStorage.sol\":6506:6537  currentIndex = currentNode.next */\n      swap4\n      pop\n        /* \"contracts/FlowerStorage.sol\":6569:6582  tbNodeByIndex */\n      0x07\n        /* \"contracts/FlowerStorage.sol\":6569:6588  tbNodeByIndex[addr] */\n      0x00\n        /* \"contracts/FlowerStorage.sol\":6583:6587  addr */\n      dup9\n        /* \"contracts/FlowerStorage.sol\":6569:6588  tbNodeByIndex[addr] */\n      0xffffffffffffffffffffffffffffffffffffffff\n      and\n      0xffffffffffffffffffffffffffffffffffffffff\n      and\n      dup2\n      mstore\n      0x20\n      add\n      swap1\n      dup2\n      mstore\n      0x20\n      add\n      0x00\n      keccak256\n        /* \"contracts/FlowerStorage.sol\":6569:6602  tbNodeByIndex[addr][currentIndex] */\n      0x00\n        /* \"contracts/FlowerStorage.sol\":6589:6601  currentIndex */\n      dup6\n        /* \"contracts/FlowerStorage.sol\":6569:6602  tbNodeByIndex[addr][currentIndex] */\n      dup2\n      mstore\n      0x20\n      add\n      swap1\n      dup2\n      mstore\n      0x20\n      add\n      0x00\n      keccak256\n        /* \"contracts/FlowerStorage.sol\":6555:6602  currentNode = tbNodeByIndex[addr][currentIndex] */\n      mload(0x40)\n      dup1\n      0x60\n      add\n      0x40\n      mstore\n      swap1\n      dup2\n      0x00\n      dup3\n      add\n      sload\n      dup2\n      mstore\n      0x20\n      add\n      0x01\n      dup3\n      add\n      sload\n      dup2\n      mstore\n      0x20\n      add\n      0x02\n      dup3\n      add\n      sload\n      dup2\n      mstore\n      pop\n      pop\n      swap3\n      pop\n        /* \"contracts/FlowerStorage.sol\":5808:6981  if (diff >= currentNode.balance)... */\n      jump(tag_108)\n    tag_105:\n        /* \"contracts/FlowerStorage.sol\":6833:6837  diff */\n      dup1\n        /* \"contracts/FlowerStorage.sol\":6817:6837  amountBurned += diff */\n      dup3\n      tag_109\n      swap2\n      swap1\n      tag_80\n      jump\t// in\n    tag_109:\n      swap2\n      pop\n        /* \"contracts/FlowerStorage.sol\":6962:6966  diff */\n      dup1\n        /* \"contracts/FlowerStorage.sol\":6917:6930  tbNodeByIndex */\n      0x07\n        /* \"contracts/FlowerStorage.sol\":6917:6936  tbNodeByIndex[addr] */\n      0x00\n        /* \"contracts/FlowerStorage.sol\":6931:6935  addr */\n      dup10\n        /* \"contracts/FlowerStorage.sol\":6917:6936  tbNodeByIndex[addr] */\n      0xffffffffffffffffffffffffffffffffffffffff\n      and\n      0xffffffffffffffffffffffffffffffffffffffff\n      and\n      dup2\n      mstore\n      0x20\n      add\n      swap1\n      dup2\n      mstore\n      0x20\n      add\n      0x00\n      keccak256\n        /* \"contracts/FlowerStorage.sol\":6917:6950  tbNodeByIndex[addr][currentIndex] */\n      0x00\n        /* \"contracts/FlowerStorage.sol\":6937:6949  currentIndex */\n      dup7\n        /* \"contracts/FlowerStorage.sol\":6917:6950  tbNodeByIndex[addr][currentIndex] */\n      dup2\n      mstore\n      0x20\n      add\n      swap1\n      dup2\n      mstore\n      0x20\n      add\n      0x00\n      keccak256\n        /* \"contracts/FlowerStorage.sol\":6917:6958  tbNodeByIndex[addr][currentIndex].balance */\n      0x01\n      add\n      0x00\n        /* \"contracts/FlowerStorage.sol\":6917:6966  tbNodeByIndex[addr][currentIndex].balance -= diff */\n      dup3\n      dup3\n      sload\n      tag_110\n      swap2\n      swap1\n      tag_84\n      jump\t// in\n    tag_110:\n      swap3\n      pop\n      pop\n      dup2\n      swap1\n      sstore\n      pop\n        /* \"contracts/FlowerStorage.sol\":5808:6981  if (diff >= currentNode.balance)... */\n    tag_108:\n        /* \"contracts/FlowerStorage.sol\":5546:6991  while (amountBurned < amount)... */\n      pop\n      jump(tag_102)\n    tag_103:\n        /* \"contracts/FlowerStorage.sol\":7093:7105  amountBurned */\n      dup1\n        /* \"contracts/FlowerStorage.sol\":7070:7083  totalBalances */\n      0x01\n        /* \"contracts/FlowerStorage.sol\":7070:7089  totalBalances[addr] */\n      0x00\n        /* \"contracts/FlowerStorage.sol\":7084:7088  addr */\n      dup9\n        /* \"contracts/FlowerStorage.sol\":7070:7089  totalBalances[addr] */\n      0xffffffffffffffffffffffffffffffffffffffff\n      and\n      0xffffffffffffffffffffffffffffffffffffffff\n      and\n      dup2\n      mstore\n      0x20\n      add\n      swap1\n      dup2\n      mstore\n      0x20\n      add\n      0x00\n      keccak256\n      0x00\n        /* \"contracts/FlowerStorage.sol\":7070:7105  totalBalances[addr] -= amountBurned */\n      dup3\n      dup3\n      sload\n      tag_111\n      swap2\n      swap1\n      tag_84\n      jump\t// in\n    tag_111:\n      swap3\n      pop\n      pop\n      dup2\n      swap1\n      sstore\n      pop\n        /* \"contracts/FlowerStorage.sol\":7171:7183  amountBurned */\n      dup1\n        /* \"contracts/FlowerStorage.sol\":7156:7167  totalSupply */\n      0x02\n      0x00\n        /* \"contracts/FlowerStorage.sol\":7156:7183  totalSupply -= amountBurned */\n      dup3\n      dup3\n      sload\n      tag_112\n      swap2\n      swap1\n      tag_84\n      jump\t// in\n    tag_112:\n      swap3\n      pop\n      pop\n      dup2\n      swap1\n      sstore\n      pop\n        /* \"contracts/FlowerStorage.sol\":7246:7258  amountBurned */\n      dup1\n        /* \"contracts/FlowerStorage.sol\":7231:7242  totalBurned */\n      0x04\n      0x00\n        /* \"contracts/FlowerStorage.sol\":7231:7258  totalBurned += amountBurned */\n      dup3\n      dup3\n      sload\n      tag_113\n      swap2\n      swap1\n      tag_80\n      jump\t// in\n    tag_113:\n      swap3\n      pop\n      pop\n      dup2\n      swap1\n      sstore\n      pop\n        /* \"@openzeppelin/contracts/access/Ownable.sol\":1117:1118  _ */\n      pop\n      pop\n      pop\n        /* \"contracts/FlowerStorage.sol\":4716:7265  function burnTokens(address addr, uint256 amount, uint256 timeToExpire) public onlyOwner {... */\n      pop\n      pop\n      pop\n      jump\t// out\n        /* \"contracts/FlowerStorage.sol\":1228:1295  mapping(address => mapping(uint256 => TBNode)) public tbNodeByIndex */\n    tag_60:\n      mstore(0x20, 0x07)\n      dup2\n      0x00\n      mstore\n      mstore(0x20, keccak256(0x00, 0x40))\n      dup1\n      0x00\n      mstore\n      keccak256(0x00, 0x40)\n      0x00\n      swap2\n      pop\n      swap2\n      pop\n      pop\n      dup1\n      0x00\n      add\n      sload\n      swap1\n      dup1\n      0x01\n      add\n      sload\n      swap1\n      dup1\n      0x02\n      add\n      sload\n      swap1\n      pop\n      dup4\n      jump\t// out\n        /* \"@openzeppelin/contracts/access/Ownable.sol\":2081:2279  function transferOwnership(address newOwner) public virtual onlyOwner {... */\n    tag_65:\n        /* \"@openzeppelin/contracts/access/Ownable.sol\":1094:1107  _checkOwner() */\n      tag_115\n        /* \"@openzeppelin/contracts/access/Ownable.sol\":1094:1105  _checkOwner */\n      tag_68\n        /* \"@openzeppelin/contracts/access/Ownable.sol\":1094:1107  _checkOwner() */\n      jump\t// in\n    tag_115:\n        /* \"@openzeppelin/contracts/access/Ownable.sol\":2189:2190  0 */\n      0x00\n        /* \"@openzeppelin/contracts/access/Ownable.sol\":2169:2191  newOwner != address(0) */\n      0xffffffffffffffffffffffffffffffffffffffff\n      and\n        /* \"@openzeppelin/contracts/access/Ownable.sol\":2169:2177  newOwner */\n      dup2\n        /* \"@openzeppelin/contracts/access/Ownable.sol\":2169:2191  newOwner != address(0) */\n      0xffffffffffffffffffffffffffffffffffffffff\n      and\n      eq\n      iszero\n        /* \"@openzeppelin/contracts/access/Ownable.sol\":2161:2234  require(newOwner != address(0), \"Ownable: new owner is the zero address\") */\n      tag_117\n      jumpi\n      mload(0x40)\n      0x08c379a000000000000000000000000000000000000000000000000000000000\n      dup2\n      mstore\n      0x04\n      add\n      tag_118\n      swap1\n      tag_119\n      jump\t// in\n    tag_118:\n      mload(0x40)\n      dup1\n      swap2\n      sub\n      swap1\n      revert\n    tag_117:\n        /* \"@openzeppelin/contracts/access/Ownable.sol\":2244:2272  _transferOwnership(newOwner) */\n      tag_120\n        /* \"@openzeppelin/contracts/access/Ownable.sol\":2263:2271  newOwner */\n      dup2\n        /* \"@openzeppelin/contracts/access/Ownable.sol\":2244:2262  _transferOwnership */\n      tag_71\n        /* \"@openzeppelin/contracts/access/Ownable.sol\":2244:2272  _transferOwnership(newOwner) */\n      jump\t// in\n    tag_120:\n        /* \"@openzeppelin/contracts/access/Ownable.sol\":2081:2279  function transferOwnership(address newOwner) public virtual onlyOwner {... */\n      pop\n      jump\t// out\n        /* \"@openzeppelin/contracts/access/Ownable.sol\":1359:1489  function _checkOwner() internal view virtual {... */\n    tag_68:\n        /* \"@openzeppelin/contracts/access/Ownable.sol\":1433:1445  _msgSender() */\n      tag_122\n        /* \"@openzeppelin/contracts/access/Ownable.sol\":1433:1443  _msgSender */\n      tag_123\n        /* \"@openzeppelin/contracts/access/Ownable.sol\":1433:1445  _msgSender() */\n      jump\t// in\n    tag_122:\n        /* \"@openzeppelin/contracts/access/Ownable.sol\":1422:1445  owner() == _msgSender() */\n      0xffffffffffffffffffffffffffffffffffffffff\n      and\n        /* \"@openzeppelin/contracts/access/Ownable.sol\":1422:1429  owner() */\n      tag_124\n        /* \"@openzeppelin/contracts/access/Ownable.sol\":1422:1427  owner */\n      tag_30\n        /* \"@openzeppelin/contracts/access/Ownable.sol\":1422:1429  owner() */\n      jump\t// in\n    tag_124:\n        /* \"@openzeppelin/contracts/access/Ownable.sol\":1422:1445  owner() == _msgSender() */\n      0xffffffffffffffffffffffffffffffffffffffff\n      and\n      eq\n        /* \"@openzeppelin/contracts/access/Ownable.sol\":1414:1482  require(owner() == _msgSender(), \"Ownable: caller is not the owner\") */\n      tag_125\n      jumpi\n      mload(0x40)\n      0x08c379a000000000000000000000000000000000000000000000000000000000\n      dup2\n      mstore\n      0x04\n      add\n      tag_126\n      swap1\n      tag_127\n      jump\t// in\n    tag_126:\n      mload(0x40)\n      dup1\n      swap2\n      sub\n      swap1\n      revert\n    tag_125:\n        /* \"@openzeppelin/contracts/access/Ownable.sol\":1359:1489  function _checkOwner() internal view virtual {... */\n      jump\t// out\n        /* \"@openzeppelin/contracts/access/Ownable.sol\":2433:2620  function _transferOwnership(address newOwner) internal virtual {... */\n    tag_71:\n        /* \"@openzeppelin/contracts/access/Ownable.sol\":2506:2522  address oldOwner */\n      0x00\n        /* \"@openzeppelin/contracts/access/Ownable.sol\":2525:2531  _owner */\n      dup1\n      0x00\n      swap1\n      sload\n      swap1\n      0x0100\n      exp\n      swap1\n      div\n      0xffffffffffffffffffffffffffffffffffffffff\n      and\n        /* \"@openzeppelin/contracts/access/Ownable.sol\":2506:2531  address oldOwner = _owner */\n      swap1\n      pop\n        /* \"@openzeppelin/contracts/access/Ownable.sol\":2550:2558  newOwner */\n      dup2\n        /* \"@openzeppelin/contracts/access/Ownable.sol\":2541:2547  _owner */\n      0x00\n      dup1\n        /* \"@openzeppelin/contracts/access/Ownable.sol\":2541:2558  _owner = newOwner */\n      0x0100\n      exp\n      dup2\n      sload\n      dup2\n      0xffffffffffffffffffffffffffffffffffffffff\n      mul\n      not\n      and\n      swap1\n      dup4\n      0xffffffffffffffffffffffffffffffffffffffff\n      and\n      mul\n      or\n      swap1\n      sstore\n      pop\n        /* \"@openzeppelin/contracts/access/Ownable.sol\":2604:2612  newOwner */\n      dup2\n        /* \"@openzeppelin/contracts/access/Ownable.sol\":2573:2613  OwnershipTransferred(oldOwner, newOwner) */\n      0xffffffffffffffffffffffffffffffffffffffff\n      and\n        /* \"@openzeppelin/contracts/access/Ownable.sol\":2594:2602  oldOwner */\n      dup2\n        /* \"@openzeppelin/contracts/access/Ownable.sol\":2573:2613  OwnershipTransferred(oldOwner, newOwner) */\n      0xffffffffffffffffffffffffffffffffffffffff\n      and\n      0x8be0079c531659141344cd1fd0a4f28419497f9722a3daafe3b4186f6b6457e0\n      mload(0x40)\n      mload(0x40)\n      dup1\n      swap2\n      sub\n      swap1\n      log3\n        /* \"@openzeppelin/contracts/access/Ownable.sol\":2433:2620  function _transferOwnership(address newOwner) internal virtual {... */\n      pop\n      pop\n      jump\t// out\n        /* \"contracts/FlowerStorage.sol\":1368:2363  function addNode(address addr, uint256 timestamp, uint256 balance) private {... */\n    tag_92:\n        /* \"contracts/FlowerStorage.sol\":1484:1505  TBNode memory newNode */\n      0x00\n        /* \"contracts/FlowerStorage.sol\":1508:1611  TBNode({... */\n      mload(0x40)\n      dup1\n      0x60\n      add\n      0x40\n      mstore\n      dup1\n        /* \"contracts/FlowerStorage.sol\":1540:1549  timestamp */\n      dup5\n        /* \"contracts/FlowerStorage.sol\":1508:1611  TBNode({... */\n      dup2\n      mstore\n      0x20\n      add\n        /* \"contracts/FlowerStorage.sol\":1572:1579  balance */\n      dup4\n        /* \"contracts/FlowerStorage.sol\":1508:1611  TBNode({... */\n      dup2\n      mstore\n      0x20\n      add\n        /* \"contracts/FlowerStorage.sol\":1599:1600  0 */\n      0x00\n        /* \"contracts/FlowerStorage.sol\":1508:1611  TBNode({... */\n      dup2\n      mstore\n      pop\n        /* \"contracts/FlowerStorage.sol\":1484:1611  TBNode memory newNode = TBNode({... */\n      swap1\n      pop\n        /* \"contracts/FlowerStorage.sol\":1683:1700  uint256 lastIndex */\n      0x00\n        /* \"contracts/FlowerStorage.sol\":1703:1713  lastTBNode */\n      0x06\n        /* \"contracts/FlowerStorage.sol\":1703:1719  lastTBNode[addr] */\n      0x00\n        /* \"contracts/FlowerStorage.sol\":1714:1718  addr */\n      dup7\n        /* \"contracts/FlowerStorage.sol\":1703:1719  lastTBNode[addr] */\n      0xffffffffffffffffffffffffffffffffffffffff\n      and\n      0xffffffffffffffffffffffffffffffffffffffff\n      and\n      dup2\n      mstore\n      0x20\n      add\n      swap1\n      dup2\n      mstore\n      0x20\n      add\n      0x00\n      keccak256\n      sload\n        /* \"contracts/FlowerStorage.sol\":1683:1719  uint256 lastIndex = lastTBNode[addr] */\n      swap1\n      pop\n        /* \"contracts/FlowerStorage.sol\":1806:1822  uint256 newIndex */\n      0x00\n        /* \"contracts/FlowerStorage.sol\":1837:1838  1 */\n      0x01\n        /* \"contracts/FlowerStorage.sol\":1825:1834  lastIndex */\n      dup3\n        /* \"contracts/FlowerStorage.sol\":1825:1838  lastIndex + 1 */\n      tag_130\n      swap2\n      swap1\n      tag_80\n      jump\t// in\n    tag_130:\n        /* \"contracts/FlowerStorage.sol\":1806:1838  uint256 newIndex = lastIndex + 1 */\n      swap1\n      pop\n        /* \"contracts/FlowerStorage.sol\":1880:1887  newNode */\n      dup3\n        /* \"contracts/FlowerStorage.sol\":1848:1861  tbNodeByIndex */\n      0x07\n        /* \"contracts/FlowerStorage.sol\":1848:1867  tbNodeByIndex[addr] */\n      0x00\n        /* \"contracts/FlowerStorage.sol\":1862:1866  addr */\n      dup9\n        /* \"contracts/FlowerStorage.sol\":1848:1867  tbNodeByIndex[addr] */\n      0xffffffffffffffffffffffffffffffffffffffff\n      and\n      0xffffffffffffffffffffffffffffffffffffffff\n      and\n      dup2\n      mstore\n      0x20\n      add\n      swap1\n      dup2\n      mstore\n      0x20\n      add\n      0x00\n      keccak256\n        /* \"contracts/FlowerStorage.sol\":1848:1877  tbNodeByIndex[addr][newIndex] */\n      0x00\n        /* \"contracts/FlowerStorage.sol\":1868:1876  newIndex */\n      dup4\n        /* \"contracts/FlowerStorage.sol\":1848:1877  tbNodeByIndex[addr][newIndex] */\n      dup2\n      mstore\n      0x20\n      add\n      swap1\n      dup2\n      mstore\n      0x20\n      add\n      0x00\n      keccak256\n        /* \"contracts/FlowerStorage.sol\":1848:1887  tbNodeByIndex[addr][newIndex] = newNode */\n      0x00\n      dup3\n      add\n      mload\n      dup2\n      0x00\n      add\n      sstore\n      0x20\n      dup3\n      add\n      mload\n      dup2\n      0x01\n      add\n      sstore\n      0x40\n      dup3\n      add\n      mload\n      dup2\n      0x02\n      add\n      sstore\n      swap1\n      pop\n      pop\n        /* \"contracts/FlowerStorage.sol\":1999:2000  0 */\n      0x00\n        /* \"contracts/FlowerStorage.sol\":1986:1995  lastIndex */\n      dup3\n        /* \"contracts/FlowerStorage.sol\":1986:2000  lastIndex != 0 */\n      eq\n        /* \"contracts/FlowerStorage.sol\":1982:2073  if (lastIndex != 0) {... */\n      tag_131\n      jumpi\n        /* \"contracts/FlowerStorage.sol\":2054:2062  newIndex */\n      dup1\n        /* \"contracts/FlowerStorage.sol\":2016:2029  tbNodeByIndex */\n      0x07\n        /* \"contracts/FlowerStorage.sol\":2016:2035  tbNodeByIndex[addr] */\n      0x00\n        /* \"contracts/FlowerStorage.sol\":2030:2034  addr */\n      dup9\n        /* \"contracts/FlowerStorage.sol\":2016:2035  tbNodeByIndex[addr] */\n      0xffffffffffffffffffffffffffffffffffffffff\n      and\n      0xffffffffffffffffffffffffffffffffffffffff\n      and\n      dup2\n      mstore\n      0x20\n      add\n      swap1\n      dup2\n      mstore\n      0x20\n      add\n      0x00\n      keccak256\n        /* \"contracts/FlowerStorage.sol\":2016:2046  tbNodeByIndex[addr][lastIndex] */\n      0x00\n        /* \"contracts/FlowerStorage.sol\":2036:2045  lastIndex */\n      dup5\n        /* \"contracts/FlowerStorage.sol\":2016:2046  tbNodeByIndex[addr][lastIndex] */\n      dup2\n      mstore\n      0x20\n      add\n      swap1\n      dup2\n      mstore\n      0x20\n      add\n      0x00\n      keccak256\n        /* \"contracts/FlowerStorage.sol\":2016:2051  tbNodeByIndex[addr][lastIndex].next */\n      0x02\n      add\n        /* \"contracts/FlowerStorage.sol\":2016:2062  tbNodeByIndex[addr][lastIndex].next = newIndex */\n      dup2\n      swap1\n      sstore\n      pop\n        /* \"contracts/FlowerStorage.sol\":1982:2073  if (lastIndex != 0) {... */\n    tag_131:\n        /* \"contracts/FlowerStorage.sol\":2168:2176  newIndex */\n      dup1\n        /* \"contracts/FlowerStorage.sol\":2149:2159  lastTBNode */\n      0x06\n        /* \"contracts/FlowerStorage.sol\":2149:2165  lastTBNode[addr] */\n      0x00\n        /* \"contracts/FlowerStorage.sol\":2160:2164  addr */\n      dup9\n        /* \"contracts/FlowerStorage.sol\":2149:2165  lastTBNode[addr] */\n      0xffffffffffffffffffffffffffffffffffffffff\n      and\n      0xffffffffffffffffffffffffffffffffffffffff\n      and\n      dup2\n      mstore\n      0x20\n      add\n      swap1\n      dup2\n      mstore\n      0x20\n      add\n      0x00\n      keccak256\n        /* \"contracts/FlowerStorage.sol\":2149:2176  lastTBNode[addr] = newIndex */\n      dup2\n      swap1\n      sstore\n      pop\n        /* \"contracts/FlowerStorage.sol\":2301:2302  0 */\n      0x00\n        /* \"contracts/FlowerStorage.sol\":2280:2291  firstTBNode */\n      0x05\n        /* \"contracts/FlowerStorage.sol\":2280:2297  firstTBNode[addr] */\n      0x00\n        /* \"contracts/FlowerStorage.sol\":2292:2296  addr */\n      dup9\n        /* \"contracts/FlowerStorage.sol\":2280:2297  firstTBNode[addr] */\n      0xffffffffffffffffffffffffffffffffffffffff\n      and\n      0xffffffffffffffffffffffffffffffffffffffff\n      and\n      dup2\n      mstore\n      0x20\n      add\n      swap1\n      dup2\n      mstore\n      0x20\n      add\n      0x00\n      keccak256\n      sload\n        /* \"contracts/FlowerStorage.sol\":2280:2302  firstTBNode[addr] == 0 */\n      eq\n        /* \"contracts/FlowerStorage.sol\":2276:2357  if (firstTBNode[addr] == 0) {... */\n      iszero\n      tag_132\n      jumpi\n        /* \"contracts/FlowerStorage.sol\":2338:2346  newIndex */\n      dup1\n        /* \"contracts/FlowerStorage.sol\":2318:2329  firstTBNode */\n      0x05\n        /* \"contracts/FlowerStorage.sol\":2318:2335  firstTBNode[addr] */\n      0x00\n        /* \"contracts/FlowerStorage.sol\":2330:2334  addr */\n      dup9\n        /* \"contracts/FlowerStorage.sol\":2318:2335  firstTBNode[addr] */\n      0xffffffffffffffffffffffffffffffffffffffff\n      and\n      0xffffffffffffffffffffffffffffffffffffffff\n      and\n      dup2\n      mstore\n      0x20\n      add\n      swap1\n      dup2\n      mstore\n      0x20\n      add\n      0x00\n      keccak256\n        /* \"contracts/FlowerStorage.sol\":2318:2346  firstTBNode[addr] = newIndex */\n      dup2\n      swap1\n      sstore\n      pop\n        /* \"contracts/FlowerStorage.sol\":2276:2357  if (firstTBNode[addr] == 0) {... */\n    tag_132:\n        /* \"contracts/FlowerStorage.sol\":1368:2363  function addNode(address addr, uint256 timestamp, uint256 balance) private {... */\n      pop\n      pop\n      pop\n      pop\n      pop\n      pop\n      jump\t// out\n        /* \"@openzeppelin/contracts/utils/Context.sol\":640:736  function _msgSender() internal view virtual returns (address) {... */\n    tag_123:\n        /* \"@openzeppelin/contracts/utils/Context.sol\":693:700  address */\n      0x00\n        /* \"@openzeppelin/contracts/utils/Context.sol\":719:729  msg.sender */\n      caller\n        /* \"@openzeppelin/contracts/utils/Context.sol\":712:729  return msg.sender */\n      swap1\n      pop\n        /* \"@openzeppelin/contracts/utils/Context.sol\":640:736  function _msgSender() internal view virtual returns (address) {... */\n      swap1\n      jump\t// out\n        /* \"#utility.yul\":7:146   */\n    tag_135:\n        /* \"#utility.yul\":53:58   */\n      0x00\n        /* \"#utility.yul\":91:97   */\n      dup2\n        /* \"#utility.yul\":78:98   */\n      calldataload\n        /* \"#utility.yul\":69:98   */\n      swap1\n      pop\n        /* \"#utility.yul\":107:140   */\n      tag_137\n        /* \"#utility.yul\":134:139   */\n      dup2\n        /* \"#utility.yul\":107:140   */\n      tag_138\n      jump\t// in\n    tag_137:\n        /* \"#utility.yul\":59:146   */\n      swap3\n      swap2\n      pop\n      pop\n      jump\t// out\n        /* \"#utility.yul\":152:291   */\n    tag_139:\n        /* \"#utility.yul\":198:203   */\n      0x00\n        /* \"#utility.yul\":236:242   */\n      dup2\n        /* \"#utility.yul\":223:243   */\n      calldataload\n        /* \"#utility.yul\":214:243   */\n      swap1\n      pop\n        /* \"#utility.yul\":252:285   */\n      tag_141\n        /* \"#utility.yul\":279:284   */\n      dup2\n        /* \"#utility.yul\":252:285   */\n      tag_142\n      jump\t// in\n    tag_141:\n        /* \"#utility.yul\":204:291   */\n      swap3\n      swap2\n      pop\n      pop\n      jump\t// out\n        /* \"#utility.yul\":297:559   */\n    tag_24:\n        /* \"#utility.yul\":356:362   */\n      0x00\n        /* \"#utility.yul\":405:407   */\n      0x20\n        /* \"#utility.yul\":393:402   */\n      dup3\n        /* \"#utility.yul\":384:391   */\n      dup5\n        /* \"#utility.yul\":380:403   */\n      sub\n        /* \"#utility.yul\":376:408   */\n      slt\n        /* \"#utility.yul\":373:375   */\n      iszero\n      tag_144\n      jumpi\n        /* \"#utility.yul\":421:422   */\n      0x00\n        /* \"#utility.yul\":418:419   */\n      dup1\n        /* \"#utility.yul\":411:423   */\n      revert\n        /* \"#utility.yul\":373:375   */\n    tag_144:\n        /* \"#utility.yul\":464:465   */\n      0x00\n        /* \"#utility.yul\":489:542   */\n      tag_145\n        /* \"#utility.yul\":534:541   */\n      dup5\n        /* \"#utility.yul\":525:531   */\n      dup3\n        /* \"#utility.yul\":514:523   */\n      dup6\n        /* \"#utility.yul\":510:532   */\n      add\n        /* \"#utility.yul\":489:542   */\n      tag_135\n      jump\t// in\n    tag_145:\n        /* \"#utility.yul\":479:542   */\n      swap2\n      pop\n        /* \"#utility.yul\":435:552   */\n      pop\n        /* \"#utility.yul\":363:559   */\n      swap3\n      swap2\n      pop\n      pop\n      jump\t// out\n        /* \"#utility.yul\":565:972   */\n    tag_35:\n        /* \"#utility.yul\":633:639   */\n      0x00\n        /* \"#utility.yul\":641:647   */\n      dup1\n        /* \"#utility.yul\":690:692   */\n      0x40\n        /* \"#utility.yul\":678:687   */\n      dup4\n        /* \"#utility.yul\":669:676   */\n      dup6\n        /* \"#utility.yul\":665:688   */\n      sub\n        /* \"#utility.yul\":661:693   */\n      slt\n        /* \"#utility.yul\":658:660   */\n      iszero\n      tag_147\n      jumpi\n        /* \"#utility.yul\":706:707   */\n      0x00\n        /* \"#utility.yul\":703:704   */\n      dup1\n        /* \"#utility.yul\":696:708   */\n      revert\n        /* \"#utility.yul\":658:660   */\n    tag_147:\n        /* \"#utility.yul\":749:750   */\n      0x00\n        /* \"#utility.yul\":774:827   */\n      tag_148\n        /* \"#utility.yul\":819:826   */\n      dup6\n        /* \"#utility.yul\":810:816   */\n      dup3\n        /* \"#utility.yul\":799:808   */\n      dup7\n        /* \"#utility.yul\":795:817   */\n      add\n        /* \"#utility.yul\":774:827   */\n      tag_135\n      jump\t// in\n    tag_148:\n        /* \"#utility.yul\":764:827   */\n      swap3\n      pop\n        /* \"#utility.yul\":720:837   */\n      pop\n        /* \"#utility.yul\":876:878   */\n      0x20\n        /* \"#utility.yul\":902:955   */\n      tag_149\n        /* \"#utility.yul\":947:954   */\n      dup6\n        /* \"#utility.yul\":938:944   */\n      dup3\n        /* \"#utility.yul\":927:936   */\n      dup7\n        /* \"#utility.yul\":923:945   */\n      add\n        /* \"#utility.yul\":902:955   */\n      tag_139\n      jump\t// in\n    tag_149:\n        /* \"#utility.yul\":892:955   */\n      swap2\n      pop\n        /* \"#utility.yul\":847:965   */\n      pop\n        /* \"#utility.yul\":648:972   */\n      swap3\n      pop\n      swap3\n      swap1\n      pop\n      jump\t// out\n        /* \"#utility.yul\":978:1530   */\n    tag_47:\n        /* \"#utility.yul\":1055:1061   */\n      0x00\n        /* \"#utility.yul\":1063:1069   */\n      dup1\n        /* \"#utility.yul\":1071:1077   */\n      0x00\n        /* \"#utility.yul\":1120:1122   */\n      0x60\n        /* \"#utility.yul\":1108:1117   */\n      dup5\n        /* \"#utility.yul\":1099:1106   */\n      dup7\n        /* \"#utility.yul\":1095:1118   */\n      sub\n        /* \"#utility.yul\":1091:1123   */\n      slt\n        /* \"#utility.yul\":1088:1090   */\n      iszero\n      tag_151\n      jumpi\n        /* \"#utility.yul\":1136:1137   */\n      0x00\n        /* \"#utility.yul\":1133:1134   */\n      dup1\n        /* \"#utility.yul\":1126:1138   */\n      revert\n        /* \"#utility.yul\":1088:1090   */\n    tag_151:\n        /* \"#utility.yul\":1179:1180   */\n      0x00\n        /* \"#utility.yul\":1204:1257   */\n      tag_152\n        /* \"#utility.yul\":1249:1256   */\n      dup7\n        /* \"#utility.yul\":1240:1246   */\n      dup3\n        /* \"#utility.yul\":1229:1238   */\n      dup8\n        /* \"#utility.yul\":1225:1247   */\n      add\n        /* \"#utility.yul\":1204:1257   */\n      tag_135\n      jump\t// in\n    tag_152:\n        /* \"#utility.yul\":1194:1257   */\n      swap4\n      pop\n        /* \"#utility.yul\":1150:1267   */\n      pop\n        /* \"#utility.yul\":1306:1308   */\n      0x20\n        /* \"#utility.yul\":1332:1385   */\n      tag_153\n        /* \"#utility.yul\":1377:1384   */\n      dup7\n        /* \"#utility.yul\":1368:1374   */\n      dup3\n        /* \"#utility.yul\":1357:1366   */\n      dup8\n        /* \"#utility.yul\":1353:1375   */\n      add\n        /* \"#utility.yul\":1332:1385   */\n      tag_139\n      jump\t// in\n    tag_153:\n        /* \"#utility.yul\":1322:1385   */\n      swap3\n      pop\n        /* \"#utility.yul\":1277:1395   */\n      pop\n        /* \"#utility.yul\":1434:1436   */\n      0x40\n        /* \"#utility.yul\":1460:1513   */\n      tag_154\n        /* \"#utility.yul\":1505:1512   */\n      dup7\n        /* \"#utility.yul\":1496:1502   */\n      dup3\n        /* \"#utility.yul\":1485:1494   */\n      dup8\n        /* \"#utility.yul\":1481:1503   */\n      add\n        /* \"#utility.yul\":1460:1513   */\n      tag_139\n      jump\t// in\n    tag_154:\n        /* \"#utility.yul\":1450:1513   */\n      swap2\n      pop\n        /* \"#utility.yul\":1405:1523   */\n      pop\n        /* \"#utility.yul\":1078:1530   */\n      swap3\n      pop\n      swap3\n      pop\n      swap3\n      jump\t// out\n        /* \"#utility.yul\":1536:1654   */\n    tag_155:\n        /* \"#utility.yul\":1623:1647   */\n      tag_157\n        /* \"#utility.yul\":1641:1646   */\n      dup2\n        /* \"#utility.yul\":1623:1647   */\n      tag_158\n      jump\t// in\n    tag_157:\n        /* \"#utility.yul\":1618:1621   */\n      dup3\n        /* \"#utility.yul\":1611:1648   */\n      mstore\n        /* \"#utility.yul\":1601:1654   */\n      pop\n      pop\n      jump\t// out\n        /* \"#utility.yul\":1660:2026   */\n    tag_159:\n        /* \"#utility.yul\":1802:1805   */\n      0x00\n        /* \"#utility.yul\":1823:1890   */\n      tag_161\n        /* \"#utility.yul\":1887:1889   */\n      0x26\n        /* \"#utility.yul\":1882:1885   */\n      dup4\n        /* \"#utility.yul\":1823:1890   */\n      tag_162\n      jump\t// in\n    tag_161:\n        /* \"#utility.yul\":1816:1890   */\n      swap2\n      pop\n        /* \"#utility.yul\":1899:1992   */\n      tag_163\n        /* \"#utility.yul\":1988:1991   */\n      dup3\n        /* \"#utility.yul\":1899:1992   */\n      tag_164\n      jump\t// in\n    tag_163:\n        /* \"#utility.yul\":2017:2019   */\n      0x40\n        /* \"#utility.yul\":2012:2015   */\n      dup3\n        /* \"#utility.yul\":2008:2020   */\n      add\n        /* \"#utility.yul\":2001:2020   */\n      swap1\n      pop\n        /* \"#utility.yul\":1806:2026   */\n      swap2\n      swap1\n      pop\n      jump\t// out\n        /* \"#utility.yul\":2032:2398   */\n    tag_165:\n        /* \"#utility.yul\":2174:2177   */\n      0x00\n        /* \"#utility.yul\":2195:2262   */\n      tag_167\n        /* \"#utility.yul\":2259:2261   */\n      0x19\n        /* \"#utility.yul\":2254:2257   */\n      dup4\n        /* \"#utility.yul\":2195:2262   */\n      tag_162\n      jump\t// in\n    tag_167:\n        /* \"#utility.yul\":2188:2262   */\n      swap2\n      pop\n        /* \"#utility.yul\":2271:2364   */\n      tag_168\n        /* \"#utility.yul\":2360:2363   */\n      dup3\n        /* \"#utility.yul\":2271:2364   */\n      tag_169\n      jump\t// in\n    tag_168:\n        /* \"#utility.yul\":2389:2391   */\n      0x20\n        /* \"#utility.yul\":2384:2387   */\n      dup3\n        /* \"#utility.yul\":2380:2392   */\n      add\n        /* \"#utility.yul\":2373:2392   */\n      swap1\n      pop\n        /* \"#utility.yul\":2178:2398   */\n      swap2\n      swap1\n      pop\n      jump\t// out\n        /* \"#utility.yul\":2404:2770   */\n    tag_170:\n        /* \"#utility.yul\":2546:2549   */\n      0x00\n        /* \"#utility.yul\":2567:2634   */\n      tag_172\n        /* \"#utility.yul\":2631:2633   */\n      0x20\n        /* \"#utility.yul\":2626:2629   */\n      dup4\n        /* \"#utility.yul\":2567:2634   */\n      tag_162\n      jump\t// in\n    tag_172:\n        /* \"#utility.yul\":2560:2634   */\n      swap2\n      pop\n        /* \"#utility.yul\":2643:2736   */\n      tag_173\n        /* \"#utility.yul\":2732:2735   */\n      dup3\n        /* \"#utility.yul\":2643:2736   */\n      tag_174\n      jump\t// in\n    tag_173:\n        /* \"#utility.yul\":2761:2763   */\n      0x20\n        /* \"#utility.yul\":2756:2759   */\n      dup3\n        /* \"#utility.yul\":2752:2764   */\n      add\n        /* \"#utility.yul\":2745:2764   */\n      swap1\n      pop\n        /* \"#utility.yul\":2550:2770   */\n      swap2\n      swap1\n      pop\n      jump\t// out\n        /* \"#utility.yul\":2776:2894   */\n    tag_175:\n        /* \"#utility.yul\":2863:2887   */\n      tag_177\n        /* \"#utility.yul\":2881:2886   */\n      dup2\n        /* \"#utility.yul\":2863:2887   */\n      tag_178\n      jump\t// in\n    tag_177:\n        /* \"#utility.yul\":2858:2861   */\n      dup3\n        /* \"#utility.yul\":2851:2888   */\n      mstore\n        /* \"#utility.yul\":2841:2894   */\n      pop\n      pop\n      jump\t// out\n        /* \"#utility.yul\":2900:3122   */\n    tag_32:\n        /* \"#utility.yul\":2993:2997   */\n      0x00\n        /* \"#utility.yul\":3031:3033   */\n      0x20\n        /* \"#utility.yul\":3020:3029   */\n      dup3\n        /* \"#utility.yul\":3016:3034   */\n      add\n        /* \"#utility.yul\":3008:3034   */\n      swap1\n      pop\n        /* \"#utility.yul\":3044:3115   */\n      tag_180\n        /* \"#utility.yul\":3112:3113   */\n      0x00\n        /* \"#utility.yul\":3101:3110   */\n      dup4\n        /* \"#utility.yul\":3097:3114   */\n      add\n        /* \"#utility.yul\":3088:3094   */\n      dup5\n        /* \"#utility.yul\":3044:3115   */\n      tag_155\n      jump\t// in\n    tag_180:\n        /* \"#utility.yul\":2998:3122   */\n      swap3\n      swap2\n      pop\n      pop\n      jump\t// out\n        /* \"#utility.yul\":3128:3547   */\n    tag_119:\n        /* \"#utility.yul\":3294:3298   */\n      0x00\n        /* \"#utility.yul\":3332:3334   */\n      0x20\n        /* \"#utility.yul\":3321:3330   */\n      dup3\n        /* \"#utility.yul\":3317:3335   */\n      add\n        /* \"#utility.yul\":3309:3335   */\n      swap1\n      pop\n        /* \"#utility.yul\":3381:3390   */\n      dup2\n        /* \"#utility.yul\":3375:3379   */\n      dup2\n        /* \"#utility.yul\":3371:3391   */\n      sub\n        /* \"#utility.yul\":3367:3368   */\n      0x00\n        /* \"#utility.yul\":3356:3365   */\n      dup4\n        /* \"#utility.yul\":3352:3369   */\n      add\n        /* \"#utility.yul\":3345:3392   */\n      mstore\n        /* \"#utility.yul\":3409:3540   */\n      tag_182\n        /* \"#utility.yul\":3535:3539   */\n      dup2\n        /* \"#utility.yul\":3409:3540   */\n      tag_159\n      jump\t// in\n    tag_182:\n        /* \"#utility.yul\":3401:3540   */\n      swap1\n      pop\n        /* \"#utility.yul\":3299:3547   */\n      swap2\n      swap1\n      pop\n      jump\t// out\n        /* \"#utility.yul\":3553:3972   */\n    tag_101:\n        /* \"#utility.yul\":3719:3723   */\n      0x00\n        /* \"#utility.yul\":3757:3759   */\n      0x20\n        /* \"#utility.yul\":3746:3755   */\n      dup3\n        /* \"#utility.yul\":3742:3760   */\n      add\n        /* \"#utility.yul\":3734:3760   */\n      swap1\n      pop\n        /* \"#utility.yul\":3806:3815   */\n      dup2\n        /* \"#utility.yul\":3800:3804   */\n      dup2\n        /* \"#utility.yul\":3796:3816   */\n      sub\n        /* \"#utility.yul\":3792:3793   */\n      0x00\n        /* \"#utility.yul\":3781:3790   */\n      dup4\n        /* \"#utility.yul\":3777:3794   */\n      add\n        /* \"#utility.yul\":3770:3817   */\n      mstore\n        /* \"#utility.yul\":3834:3965   */\n      tag_184\n        /* \"#utility.yul\":3960:3964   */\n      dup2\n        /* \"#utility.yul\":3834:3965   */\n      tag_165\n      jump\t// in\n    tag_184:\n        /* \"#utility.yul\":3826:3965   */\n      swap1\n      pop\n        /* \"#utility.yul\":3724:3972   */\n      swap2\n      swap1\n      pop\n      jump\t// out\n        /* \"#utility.yul\":3978:4397   */\n    tag_127:\n        /* \"#utility.yul\":4144:4148   */\n      0x00\n        /* \"#utility.yul\":4182:4184   */\n      0x20\n        /* \"#utility.yul\":4171:4180   */\n      dup3\n        /* \"#utility.yul\":4167:4185   */\n      add\n        /* \"#utility.yul\":4159:4185   */\n      swap1\n      pop\n        /* \"#utility.yul\":4231:4240   */\n      dup2\n        /* \"#utility.yul\":4225:4229   */\n      dup2\n        /* \"#utility.yul\":4221:4241   */\n      sub\n        /* \"#utility.yul\":4217:4218   */\n      0x00\n        /* \"#utility.yul\":4206:4215   */\n      dup4\n        /* \"#utility.yul\":4202:4219   */\n      add\n        /* \"#utility.yul\":4195:4242   */\n      mstore\n        /* \"#utility.yul\":4259:4390   */\n      tag_186\n        /* \"#utility.yul\":4385:4389   */\n      dup2\n        /* \"#utility.yul\":4259:4390   */\n      tag_170\n      jump\t// in\n    tag_186:\n        /* \"#utility.yul\":4251:4390   */\n      swap1\n      pop\n        /* \"#utility.yul\":4149:4397   */\n      swap2\n      swap1\n      pop\n      jump\t// out\n        /* \"#utility.yul\":4403:4625   */\n    tag_21:\n        /* \"#utility.yul\":4496:4500   */\n      0x00\n        /* \"#utility.yul\":4534:4536   */\n      0x20\n        /* \"#utility.yul\":4523:4532   */\n      dup3\n        /* \"#utility.yul\":4519:4537   */\n      add\n        /* \"#utility.yul\":4511:4537   */\n      swap1\n      pop\n        /* \"#utility.yul\":4547:4618   */\n      tag_188\n        /* \"#utility.yul\":4615:4616   */\n      0x00\n        /* \"#utility.yul\":4604:4613   */\n      dup4\n        /* \"#utility.yul\":4600:4617   */\n      add\n        /* \"#utility.yul\":4591:4597   */\n      dup5\n        /* \"#utility.yul\":4547:4618   */\n      tag_175\n      jump\t// in\n    tag_188:\n        /* \"#utility.yul\":4501:4625   */\n      swap3\n      swap2\n      pop\n      pop\n      jump\t// out\n        /* \"#utility.yul\":4631:5073   */\n    tag_62:\n        /* \"#utility.yul\":4780:4784   */\n      0x00\n        /* \"#utility.yul\":4818:4820   */\n      0x60\n        /* \"#utility.yul\":4807:4816   */\n      dup3\n        /* \"#utility.yul\":4803:4821   */\n      add\n        /* \"#utility.yul\":4795:4821   */\n      swap1\n      pop\n        /* \"#utility.yul\":4831:4902   */\n      tag_190\n        /* \"#utility.yul\":4899:4900   */\n      0x00\n        /* \"#utility.yul\":4888:4897   */\n      dup4\n        /* \"#utility.yul\":4884:4901   */\n      add\n        /* \"#utility.yul\":4875:4881   */\n      dup7\n        /* \"#utility.yul\":4831:4902   */\n      tag_175\n      jump\t// in\n    tag_190:\n        /* \"#utility.yul\":4912:4984   */\n      tag_191\n        /* \"#utility.yul\":4980:4982   */\n      0x20\n        /* \"#utility.yul\":4969:4978   */\n      dup4\n        /* \"#utility.yul\":4965:4983   */\n      add\n        /* \"#utility.yul\":4956:4962   */\n      dup6\n        /* \"#utility.yul\":4912:4984   */\n      tag_175\n      jump\t// in\n    tag_191:\n        /* \"#utility.yul\":4994:5066   */\n      tag_192\n        /* \"#utility.yul\":5062:5064   */\n      0x40\n        /* \"#utility.yul\":5051:5060   */\n      dup4\n        /* \"#utility.yul\":5047:5065   */\n      add\n        /* \"#utility.yul\":5038:5044   */\n      dup5\n        /* \"#utility.yul\":4994:5066   */\n      tag_175\n      jump\t// in\n    tag_192:\n        /* \"#utility.yul\":4785:5073   */\n      swap5\n      swap4\n      pop\n      pop\n      pop\n      pop\n      jump\t// out\n        /* \"#utility.yul\":5079:5248   */\n    tag_162:\n        /* \"#utility.yul\":5163:5174   */\n      0x00\n        /* \"#utility.yul\":5197:5203   */\n      dup3\n        /* \"#utility.yul\":5192:5195   */\n      dup3\n        /* \"#utility.yul\":5185:5204   */\n      mstore\n        /* \"#utility.yul\":5237:5241   */\n      0x20\n        /* \"#utility.yul\":5232:5235   */\n      dup3\n        /* \"#utility.yul\":5228:5242   */\n      add\n        /* \"#utility.yul\":5213:5242   */\n      swap1\n      pop\n        /* \"#utility.yul\":5175:5248   */\n      swap3\n      swap2\n      pop\n      pop\n      jump\t// out\n        /* \"#utility.yul\":5254:5559   */\n    tag_80:\n        /* \"#utility.yul\":5294:5297   */\n      0x00\n        /* \"#utility.yul\":5313:5333   */\n      tag_195\n        /* \"#utility.yul\":5331:5332   */\n      dup3\n        /* \"#utility.yul\":5313:5333   */\n      tag_178\n      jump\t// in\n    tag_195:\n        /* \"#utility.yul\":5308:5333   */\n      swap2\n      pop\n        /* \"#utility.yul\":5347:5367   */\n      tag_196\n        /* \"#utility.yul\":5365:5366   */\n      dup4\n        /* \"#utility.yul\":5347:5367   */\n      tag_178\n      jump\t// in\n    tag_196:\n        /* \"#utility.yul\":5342:5367   */\n      swap3\n      pop\n        /* \"#utility.yul\":5501:5502   */\n      dup3\n        /* \"#utility.yul\":5433:5499   */\n      0xffffffffffffffffffffffffffffffffffffffffffffffffffffffffffffffff\n        /* \"#utility.yul\":5429:5503   */\n      sub\n        /* \"#utility.yul\":5426:5427   */\n      dup3\n        /* \"#utility.yul\":5423:5504   */\n      gt\n        /* \"#utility.yul\":5420:5422   */\n      iszero\n      tag_197\n      jumpi\n        /* \"#utility.yul\":5507:5525   */\n      tag_198\n      tag_199\n      jump\t// in\n    tag_198:\n        /* \"#utility.yul\":5420:5422   */\n    tag_197:\n        /* \"#utility.yul\":5551:5552   */\n      dup3\n        /* \"#utility.yul\":5548:5549   */\n      dup3\n        /* \"#utility.yul\":5544:5553   */\n      add\n        /* \"#utility.yul\":5537:5553   */\n      swap1\n      pop\n        /* \"#utility.yul\":5298:5559   */\n      swap3\n      swap2\n      pop\n      pop\n      jump\t// out\n        /* \"#utility.yul\":5565:5756   */\n    tag_84:\n        /* \"#utility.yul\":5605:5609   */\n      0x00\n        /* \"#utility.yul\":5625:5645   */\n      tag_201\n        /* \"#utility.yul\":5643:5644   */\n      dup3\n        /* \"#utility.yul\":5625:5645   */\n      tag_178\n      jump\t// in\n    tag_201:\n        /* \"#utility.yul\":5620:5645   */\n      swap2\n      pop\n        /* \"#utility.yul\":5659:5679   */\n      tag_202\n        /* \"#utility.yul\":5677:5678   */\n      dup4\n        /* \"#utility.yul\":5659:5679   */\n      tag_178\n      jump\t// in\n    tag_202:\n        /* \"#utility.yul\":5654:5679   */\n      swap3\n      pop\n        /* \"#utility.yul\":5698:5699   */\n      dup3\n        /* \"#utility.yul\":5695:5696   */\n      dup3\n        /* \"#utility.yul\":5692:5700   */\n      lt\n        /* \"#utility.yul\":5689:5691   */\n      iszero\n      tag_203\n      jumpi\n        /* \"#utility.yul\":5703:5721   */\n      tag_204\n      tag_199\n      jump\t// in\n    tag_204:\n        /* \"#utility.yul\":5689:5691   */\n    tag_203:\n        /* \"#utility.yul\":5748:5749   */\n      dup3\n        /* \"#utility.yul\":5745:5746   */\n      dup3\n        /* \"#utility.yul\":5741:5750   */\n      sub\n        /* \"#utility.yul\":5733:5750   */\n      swap1\n      pop\n        /* \"#utility.yul\":5610:5756   */\n      swap3\n      swap2\n      pop\n      pop\n      jump\t// out\n        /* \"#utility.yul\":5762:5858   */\n    tag_158:\n        /* \"#utility.yul\":5799:5806   */\n      0x00\n        /* \"#utility.yul\":5828:5852   */\n      tag_206\n        /* \"#utility.yul\":5846:5851   */\n      dup3\n        /* \"#utility.yul\":5828:5852   */\n      tag_207\n      jump\t// in\n    tag_206:\n        /* \"#utility.yul\":5817:5852   */\n      swap1\n      pop\n        /* \"#utility.yul\":5807:5858   */\n      swap2\n      swap1\n      pop\n      jump\t// out\n        /* \"#utility.yul\":5864:5990   */\n    tag_207:\n        /* \"#utility.yul\":5901:5908   */\n      0x00\n        /* \"#utility.yul\":5941:5983   */\n      0xffffffffffffffffffffffffffffffffffffffff\n        /* \"#utility.yul\":5934:5939   */\n      dup3\n        /* \"#utility.yul\":5930:5984   */\n      and\n        /* \"#utility.yul\":5919:5984   */\n      swap1\n      pop\n        /* \"#utility.yul\":5909:5990   */\n      swap2\n      swap1\n      pop\n      jump\t// out\n        /* \"#utility.yul\":5996:6073   */\n    tag_178:\n        /* \"#utility.yul\":6033:6040   */\n      0x00\n        /* \"#utility.yul\":6062:6067   */\n      dup2\n        /* \"#utility.yul\":6051:6067   */\n      swap1\n      pop\n        /* \"#utility.yul\":6041:6073   */\n      swap2\n      swap1\n      pop\n      jump\t// out\n        /* \"#utility.yul\":6079:6259   */\n    tag_199:\n        /* \"#utility.yul\":6127:6204   */\n      0x4e487b7100000000000000000000000000000000000000000000000000000000\n        /* \"#utility.yul\":6124:6125   */\n      0x00\n        /* \"#utility.yul\":6117:6205   */\n      mstore\n        /* \"#utility.yul\":6224:6228   */\n      0x11\n        /* \"#utility.yul\":6221:6222   */\n      0x04\n        /* \"#utility.yul\":6214:6229   */\n      mstore\n        /* \"#utility.yul\":6248:6252   */\n      0x24\n        /* \"#utility.yul\":6245:6246   */\n      0x00\n        /* \"#utility.yul\":6238:6253   */\n      revert\n        /* \"#utility.yul\":6265:6490   */\n    tag_164:\n        /* \"#utility.yul\":6405:6439   */\n      0x4f776e61626c653a206e6577206f776e657220697320746865207a65726f2061\n        /* \"#utility.yul\":6401:6402   */\n      0x00\n        /* \"#utility.yul\":6393:6399   */\n      dup3\n        /* \"#utility.yul\":6389:6403   */\n      add\n        /* \"#utility.yul\":6382:6440   */\n      mstore\n        /* \"#utility.yul\":6474:6482   */\n      0x6464726573730000000000000000000000000000000000000000000000000000\n        /* \"#utility.yul\":6469:6471   */\n      0x20\n        /* \"#utility.yul\":6461:6467   */\n      dup3\n        /* \"#utility.yul\":6457:6472   */\n      add\n        /* \"#utility.yul\":6450:6483   */\n      mstore\n        /* \"#utility.yul\":6371:6490   */\n      pop\n      jump\t// out\n        /* \"#utility.yul\":6496:6671   */\n    tag_169:\n        /* \"#utility.yul\":6636:6663   */\n      0x4e6f7420656e6f75676820746f6b656e7320746f206275726e00000000000000\n        /* \"#utility.yul\":6632:6633   */\n      0x00\n        /* \"#utility.yul\":6624:6630   */\n      dup3\n        /* \"#utility.yul\":6620:6634   */\n      add\n        /* \"#utility.yul\":6613:6664   */\n      mstore\n        /* \"#utility.yul\":6602:6671   */\n      pop\n      jump\t// out\n        /* \"#utility.yul\":6677:6859   */\n    tag_174:\n        /* \"#utility.yul\":6817:6851   */\n      0x4f776e61626c653a2063616c6c6572206973206e6f7420746865206f776e6572\n        /* \"#utility.yul\":6813:6814   */\n      0x00\n        /* \"#utility.yul\":6805:6811   */\n      dup3\n        /* \"#utility.yul\":6801:6815   */\n      add\n        /* \"#utility.yul\":6794:6852   */\n      mstore\n        /* \"#utility.yul\":6783:6859   */\n      pop\n      jump\t// out\n        /* \"#utility.yul\":6865:6987   */\n    tag_138:\n        /* \"#utility.yul\":6938:6962   */\n      tag_215\n        /* \"#utility.yul\":6956:6961   */\n      dup2\n        /* \"#utility.yul\":6938:6962   */\n      tag_158\n      jump\t// in\n    tag_215:\n        /* \"#utility.yul\":6931:6936   */\n      dup2\n        /* \"#utility.yul\":6928:6963   */\n      eq\n        /* \"#utility.yul\":6918:6920   */\n      tag_216\n      jumpi\n        /* \"#utility.yul\":6977:6978   */\n      0x00\n        /* \"#utility.yul\":6974:6975   */\n      dup1\n        /* \"#utility.yul\":6967:6979   */\n      revert\n        /* \"#utility.yul\":6918:6920   */\n    tag_216:\n        /* \"#utility.yul\":6908:6987   */\n      pop\n      jump\t// out\n        /* \"#utility.yul\":6993:7115   */\n    tag_142:\n        /* \"#utility.yul\":7066:7090   */\n      tag_218\n        /* \"#utility.yul\":7084:7089   */\n      dup2\n        /* \"#utility.yul\":7066:7090   */\n      tag_178\n      jump\t// in\n    tag_218:\n        /* \"#utility.yul\":7059:7064   */\n      dup2\n        /* \"#utility.yul\":7056:7091   */\n      eq\n        /* \"#utility.yul\":7046:7048   */\n      tag_219\n      jumpi\n        /* \"#utility.yul\":7105:7106   */\n      0x00\n        /* \"#utility.yul\":7102:7103   */\n      dup1\n        /* \"#utility.yul\":7095:7107   */\n      revert\n        /* \"#utility.yul\":7046:7048   */\n    tag_219:\n        /* \"#utility.yul\":7036:7115   */\n      pop\n      jump\t// out\n\n    auxdata: 0xa2646970667358221220459f52bc68182a35e8e14b6ee0a369b53e4d99ca3cd2739ee8eb3cc9d918788d64736f6c63430008040033\n}\n",
				"bytecode": {
					"linkReferences": {},
					"object": "60806040523480156200001157600080fd5b5062000032620000266200004960201b60201c565b6200005160201b60201c565b62000043336200011560201b60201c565b62000381565b600033905090565b60008060009054906101000a900473ffffffffffffffffffffffffffffffffffffffff169050816000806101000a81548173ffffffffffffffffffffffffffffffffffffffff021916908373ffffffffffffffffffffffffffffffffffffffff1602179055508173ffffffffffffffffffffffffffffffffffffffff168173ffffffffffffffffffffffffffffffffffffffff167f8be0079c531659141344cd1fd0a4f28419497f9722a3daafe3b4186f6b6457e060405160405180910390a35050565b62000125620001ac60201b60201c565b600073ffffffffffffffffffffffffffffffffffffffff168173ffffffffffffffffffffffffffffffffffffffff16141562000198576040517f08c379a00000000000000000000000000000000000000000000000000000000081526004016200018f90620002b4565b60405180910390fd5b620001a9816200005160201b60201c565b50565b620001bc6200004960201b60201c565b73ffffffffffffffffffffffffffffffffffffffff16620001e26200023d60201b60201c565b73ffffffffffffffffffffffffffffffffffffffff16146200023b576040517f08c379a00000000000000000000000000000000000000000000000000000000081526004016200023290620002d6565b60405180910390fd5b565b60008060009054906101000a900473ffffffffffffffffffffffffffffffffffffffff16905090565b600062000275602683620002f8565b9150620002828262000309565b604082019050919050565b60006200029c602083620002f8565b9150620002a98262000358565b602082019050919050565b60006020820190508181036000830152620002cf8162000266565b9050919050565b60006020820190508181036000830152620002f1816200028d565b9050919050565b600082825260208201905092915050565b7f4f776e61626c653a206e6577206f776e657220697320746865207a65726f206160008201527f6464726573730000000000000000000000000000000000000000000000000000602082015250565b7f4f776e61626c653a2063616c6c6572206973206e6f7420746865206f776e6572600082015250565b6113db80620003916000396000f3fe608060405234801561001057600080fd5b50600436106100cf5760003560e01c8063baafd2d81161008c578063d89135cd11610066578063d89135cd14610200578063e0aeb7c11461021e578063efe54dd51461023a578063f2fde38b1461026c576100cf565b8063baafd2d814610196578063ca056aed146101c6578063ce5e9365146101e2576100cf565b806318160ddd146100d45780636e76c3cf146100f2578063715018a6146101225780638da5cb5b1461012c578063a3a142d21461014a578063aee9c87214610166575b600080fd5b6100dc610288565b6040516100e9919061117e565b60405180910390f35b61010c60048036038101906101079190610fc8565b61028e565b604051610119919061117e565b60405180910390f35b61012a6102a6565b005b6101346102ba565b6040516101419190611103565b60405180910390f35b610164600480360381019061015f9190610ff1565b6102e3565b005b610180600480360381019061017b9190610fc8565b61063f565b60405161018d919061117e565b60405180910390f35b6101b060048036038101906101ab9190610fc8565b610657565b6040516101bd919061117e565b60405180910390f35b6101e060048036038101906101db919061102d565b61066f565b005b6101ea610706565b6040516101f7919061117e565b60405180910390f35b61020861070c565b604051610215919061117e565b60405180910390f35b6102386004803603810190610233919061102d565b610712565b005b610254600480360381019061024f9190610ff1565b610b78565b60405161026393929190611199565b60405180910390f35b61028660048036038101906102819190610fc8565b610baf565b005b60025481565b60056020528060005260406000206000915090505481565b6102ae610c33565b6102b86000610cb1565b565b60008060009054906101000a900473ffffffffffffffffffffffffffffffffffffffff16905090565b6102eb610c33565b6000600560008473ffffffffffffffffffffffffffffffffffffffff1673ffffffffffffffffffffffffffffffffffffffff1681526020019081526020016000205490506000600760008573ffffffffffffffffffffffffffffffffffffffff1673ffffffffffffffffffffffffffffffffffffffff16815260200190815260200160002060008381526020019081526020016000206040518060600160405290816000820154815260200160018201548152602001600282015481525050905060005b600083141580156103cf5750428483600001516103cc91906111e1565b11155b156105b0578160400151600560008773ffffffffffffffffffffffffffffffffffffffff1673ffffffffffffffffffffffffffffffffffffffff1681526020019081526020016000208190555082600660008773ffffffffffffffffffffffffffffffffffffffff1673ffffffffffffffffffffffffffffffffffffffff1681526020019081526020016000205414156104ac578160400151600660008773ffffffffffffffffffffffffffffffffffffffff1673ffffffffffffffffffffffffffffffffffffffff168152602001908152602001600020819055505b8160200151816104bc91906111e1565b9050600760008673ffffffffffffffffffffffffffffffffffffffff1673ffffffffffffffffffffffffffffffffffffffff168152602001908152602001600020600084815260200190815260200160002060008082016000905560018201600090556002820160009055505081604001519250600760008673ffffffffffffffffffffffffffffffffffffffff1673ffffffffffffffffffffffffffffffffffffffff1681526020019081526020016000206000848152602001908152602001600020604051806060016040529081600082015481526020016001820154815260200160028201548152505091506103af565b80600160008773ffffffffffffffffffffffffffffffffffffffff1673ffffffffffffffffffffffffffffffffffffffff16815260200190815260200160002060008282546105ff9190611237565b9250508190555080600260008282546106189190611237565b92505081905550806003600082825461063191906111e1565b925050819055505050505050565b60016020528060005260406000206000915090505481565b60066020528060005260406000206000915090505481565b610677610c33565b61068183826102e3565b6000429050610691848285610d75565b82600160008673ffffffffffffffffffffffffffffffffffffffff1673ffffffffffffffffffffffffffffffffffffffff16815260200190815260200160002060008282546106e091906111e1565b9250508190555082600260008282546106f991906111e1565b9250508190555050505050565b60035481565b60045481565b61071a610c33565b61072483826102e3565b81600160008573ffffffffffffffffffffffffffffffffffffffff1673ffffffffffffffffffffffffffffffffffffffff1681526020019081526020016000205410156107a6576040517f08c379a000000000000000000000000000000000000000000000000000000000815260040161079d9061113e565b60405180910390fd5b6000600560008573ffffffffffffffffffffffffffffffffffffffff1673ffffffffffffffffffffffffffffffffffffffff1681526020019081526020016000205490506000600760008673ffffffffffffffffffffffffffffffffffffffff1673ffffffffffffffffffffffffffffffffffffffff16815260200190815260200160002060008381526020019081526020016000206040518060600160405290816000820154815260200160018201548152602001600282015481525050905060005b84811015610ae857600081866108809190611237565b905082602001518110610a695782602001518261089d91906111e1565b9150600760008873ffffffffffffffffffffffffffffffffffffffff1673ffffffffffffffffffffffffffffffffffffffff16815260200190815260200160002060008581526020019081526020016000206000808201600090556001820160009055600282016000905550508260400151600560008973ffffffffffffffffffffffffffffffffffffffff1673ffffffffffffffffffffffffffffffffffffffff1681526020019081526020016000208190555083600660008973ffffffffffffffffffffffffffffffffffffffff1673ffffffffffffffffffffffffffffffffffffffff1681526020019081526020016000205414156109e2578260400151600660008973ffffffffffffffffffffffffffffffffffffffff1673ffffffffffffffffffffffffffffffffffffffff168152602001908152602001600020819055505b82604001519350600760008873ffffffffffffffffffffffffffffffffffffffff1673ffffffffffffffffffffffffffffffffffffffff168152602001908152602001600020600085815260200190815260200160002060405180606001604052908160008201548152602001600182015481526020016002820154815250509250610ae2565b8082610a7591906111e1565b915080600760008973ffffffffffffffffffffffffffffffffffffffff1673ffffffffffffffffffffffffffffffffffffffff16815260200190815260200160002060008681526020019081526020016000206001016000828254610ada9190611237565b925050819055505b5061086a565b80600160008873ffffffffffffffffffffffffffffffffffffffff1673ffffffffffffffffffffffffffffffffffffffff1681526020019081526020016000206000828254610b379190611237565b925050819055508060026000828254610b509190611237565b925050819055508060046000828254610b6991906111e1565b92505081905550505050505050565b6007602052816000526040600020602052806000526040600020600091509150508060000154908060010154908060020154905083565b610bb7610c33565b600073ffffffffffffffffffffffffffffffffffffffff168173ffffffffffffffffffffffffffffffffffffffff161415610c27576040517f08c379a0000000000000000000000000000000000000000000000000000000008152600401610c1e9061111e565b60405180910390fd5b610c3081610cb1565b50565b610c3b610f96565b73ffffffffffffffffffffffffffffffffffffffff16610c596102ba565b73ffffffffffffffffffffffffffffffffffffffff1614610caf576040517f08c379a0000000000000000000000000000000000000000000000000000000008152600401610ca69061115e565b60405180910390fd5b565b60008060009054906101000a900473ffffffffffffffffffffffffffffffffffffffff169050816000806101000a81548173ffffffffffffffffffffffffffffffffffffffff021916908373ffffffffffffffffffffffffffffffffffffffff1602179055508173ffffffffffffffffffffffffffffffffffffffff168173ffffffffffffffffffffffffffffffffffffffff167f8be0079c531659141344cd1fd0a4f28419497f9722a3daafe3b4186f6b6457e060405160405180910390a35050565b60006040518060600160405280848152602001838152602001600081525090506000600660008673ffffffffffffffffffffffffffffffffffffffff1673ffffffffffffffffffffffffffffffffffffffff1681526020019081526020016000205490506000600182610de891906111e1565b905082600760008873ffffffffffffffffffffffffffffffffffffffff1673ffffffffffffffffffffffffffffffffffffffff168152602001908152602001600020600083815260200190815260200160002060008201518160000155602082015181600101556040820151816002015590505060008214610ebd5780600760008873ffffffffffffffffffffffffffffffffffffffff1673ffffffffffffffffffffffffffffffffffffffff1681526020019081526020016000206000848152602001908152602001600020600201819055505b80600660008873ffffffffffffffffffffffffffffffffffffffff1673ffffffffffffffffffffffffffffffffffffffff168152602001908152602001600020819055506000600560008873ffffffffffffffffffffffffffffffffffffffff1673ffffffffffffffffffffffffffffffffffffffff168152602001908152602001600020541415610f8e5780600560008873ffffffffffffffffffffffffffffffffffffffff1673ffffffffffffffffffffffffffffffffffffffff168152602001908152602001600020819055505b505050505050565b600033905090565b600081359050610fad81611377565b92915050565b600081359050610fc28161138e565b92915050565b600060208284031215610fda57600080fd5b6000610fe884828501610f9e565b91505092915050565b6000806040838503121561100457600080fd5b600061101285828601610f9e565b925050602061102385828601610fb3565b9150509250929050565b60008060006060848603121561104257600080fd5b600061105086828701610f9e565b935050602061106186828701610fb3565b925050604061107286828701610fb3565b9150509250925092565b6110858161126b565b82525050565b60006110986026836111d0565b91506110a3826112d6565b604082019050919050565b60006110bb6019836111d0565b91506110c682611325565b602082019050919050565b60006110de6020836111d0565b91506110e98261134e565b602082019050919050565b6110fd8161129d565b82525050565b6000602082019050611118600083018461107c565b92915050565b600060208201905081810360008301526111378161108b565b9050919050565b60006020820190508181036000830152611157816110ae565b9050919050565b60006020820190508181036000830152611177816110d1565b9050919050565b600060208201905061119360008301846110f4565b92915050565b60006060820190506111ae60008301866110f4565b6111bb60208301856110f4565b6111c860408301846110f4565b949350505050565b600082825260208201905092915050565b60006111ec8261129d565b91506111f78361129d565b9250827fffffffffffffffffffffffffffffffffffffffffffffffffffffffffffffffff0382111561122c5761122b6112a7565b5b828201905092915050565b60006112428261129d565b915061124d8361129d565b9250828210156112605761125f6112a7565b5b828203905092915050565b60006112768261127d565b9050919050565b600073ffffffffffffffffffffffffffffffffffffffff82169050919050565b6000819050919050565b7f4e487b7100000000000000000000000000000000000000000000000000000000600052601160045260246000fd5b7f4f776e61626c653a206e6577206f776e657220697320746865207a65726f206160008201527f6464726573730000000000000000000000000000000000000000000000000000602082015250565b7f4e6f7420656e6f75676820746f6b656e7320746f206275726e00000000000000600082015250565b7f4f776e61626c653a2063616c6c6572206973206e6f7420746865206f776e6572600082015250565b6113808161126b565b811461138b57600080fd5b50565b6113978161129d565b81146113a257600080fd5b5056fea2646970667358221220459f52bc68182a35e8e14b6ee0a369b53e4d99ca3cd2739ee8eb3cc9d918788d64736f6c63430008040033",
					"opcodes": "PUSH1 0x80 PUSH1 0x40 MSTORE CALLVALUE DUP1 ISZERO PUSH3 0x11 JUMPI PUSH1 0x0 DUP1 REVERT JUMPDEST POP PUSH3 0x32 PUSH3 0x26 PUSH3 0x49 PUSH1 0x20 SHL PUSH1 0x20 SHR JUMP JUMPDEST PUSH3 0x51 PUSH1 0x20 SHL PUSH1 0x20 SHR JUMP JUMPDEST PUSH3 0x43 CALLER PUSH3 0x115 PUSH1 0x20 SHL PUSH1 0x20 SHR JUMP JUMPDEST PUSH3 0x381 JUMP JUMPDEST PUSH1 0x0 CALLER SWAP1 POP SWAP1 JUMP JUMPDEST PUSH1 0x0 DUP1 PUSH1 0x0 SWAP1 SLOAD SWAP1 PUSH2 0x100 EXP SWAP1 DIV PUSH20 0xFFFFFFFFFFFFFFFFFFFFFFFFFFFFFFFFFFFFFFFF AND SWAP1 POP DUP2 PUSH1 0x0 DUP1 PUSH2 0x100 EXP DUP2 SLOAD DUP2 PUSH20 0xFFFFFFFFFFFFFFFFFFFFFFFFFFFFFFFFFFFFFFFF MUL NOT AND SWAP1 DUP4 PUSH20 0xFFFFFFFFFFFFFFFFFFFFFFFFFFFFFFFFFFFFFFFF AND MUL OR SWAP1 SSTORE POP DUP2 PUSH20 0xFFFFFFFFFFFFFFFFFFFFFFFFFFFFFFFFFFFFFFFF AND DUP2 PUSH20 0xFFFFFFFFFFFFFFFFFFFFFFFFFFFFFFFFFFFFFFFF AND PUSH32 0x8BE0079C531659141344CD1FD0A4F28419497F9722A3DAAFE3B4186F6B6457E0 PUSH1 0x40 MLOAD PUSH1 0x40 MLOAD DUP1 SWAP2 SUB SWAP1 LOG3 POP POP JUMP JUMPDEST PUSH3 0x125 PUSH3 0x1AC PUSH1 0x20 SHL PUSH1 0x20 SHR JUMP JUMPDEST PUSH1 0x0 PUSH20 0xFFFFFFFFFFFFFFFFFFFFFFFFFFFFFFFFFFFFFFFF AND DUP2 PUSH20 0xFFFFFFFFFFFFFFFFFFFFFFFFFFFFFFFFFFFFFFFF AND EQ ISZERO PUSH3 0x198 JUMPI PUSH1 0x40 MLOAD PUSH32 0x8C379A000000000000000000000000000000000000000000000000000000000 DUP2 MSTORE PUSH1 0x4 ADD PUSH3 0x18F SWAP1 PUSH3 0x2B4 JUMP JUMPDEST PUSH1 0x40 MLOAD DUP1 SWAP2 SUB SWAP1 REVERT JUMPDEST PUSH3 0x1A9 DUP2 PUSH3 0x51 PUSH1 0x20 SHL PUSH1 0x20 SHR JUMP JUMPDEST POP JUMP JUMPDEST PUSH3 0x1BC PUSH3 0x49 PUSH1 0x20 SHL PUSH1 0x20 SHR JUMP JUMPDEST PUSH20 0xFFFFFFFFFFFFFFFFFFFFFFFFFFFFFFFFFFFFFFFF AND PUSH3 0x1E2 PUSH3 0x23D PUSH1 0x20 SHL PUSH1 0x20 SHR JUMP JUMPDEST PUSH20 0xFFFFFFFFFFFFFFFFFFFFFFFFFFFFFFFFFFFFFFFF AND EQ PUSH3 0x23B JUMPI PUSH1 0x40 MLOAD PUSH32 0x8C379A000000000000000000000000000000000000000000000000000000000 DUP2 MSTORE PUSH1 0x4 ADD PUSH3 0x232 SWAP1 PUSH3 0x2D6 JUMP JUMPDEST PUSH1 0x40 MLOAD DUP1 SWAP2 SUB SWAP1 REVERT JUMPDEST JUMP JUMPDEST PUSH1 0x0 DUP1 PUSH1 0x0 SWAP1 SLOAD SWAP1 PUSH2 0x100 EXP SWAP1 DIV PUSH20 0xFFFFFFFFFFFFFFFFFFFFFFFFFFFFFFFFFFFFFFFF AND SWAP1 POP SWAP1 JUMP JUMPDEST PUSH1 0x0 PUSH3 0x275 PUSH1 0x26 DUP4 PUSH3 0x2F8 JUMP JUMPDEST SWAP2 POP PUSH3 0x282 DUP3 PUSH3 0x309 JUMP JUMPDEST PUSH1 0x40 DUP3 ADD SWAP1 POP SWAP2 SWAP1 POP JUMP JUMPDEST PUSH1 0x0 PUSH3 0x29C PUSH1 0x20 DUP4 PUSH3 0x2F8 JUMP JUMPDEST SWAP2 POP PUSH3 0x2A9 DUP3 PUSH3 0x358 JUMP JUMPDEST PUSH1 0x20 DUP3 ADD SWAP1 POP SWAP2 SWAP1 POP JUMP JUMPDEST PUSH1 0x0 PUSH1 0x20 DUP3 ADD SWAP1 POP DUP2 DUP2 SUB PUSH1 0x0 DUP4 ADD MSTORE PUSH3 0x2CF DUP2 PUSH3 0x266 JUMP JUMPDEST SWAP1 POP SWAP2 SWAP1 POP JUMP JUMPDEST PUSH1 0x0 PUSH1 0x20 DUP3 ADD SWAP1 POP DUP2 DUP2 SUB PUSH1 0x0 DUP4 ADD MSTORE PUSH3 0x2F1 DUP2 PUSH3 0x28D JUMP JUMPDEST SWAP1 POP SWAP2 SWAP1 POP JUMP JUMPDEST PUSH1 0x0 DUP3 DUP3 MSTORE PUSH1 0x20 DUP3 ADD SWAP1 POP SWAP3 SWAP2 POP POP JUMP JUMPDEST PUSH32 0x4F776E61626C653A206E6577206F776E657220697320746865207A65726F2061 PUSH1 0x0 DUP3 ADD MSTORE PUSH32 0x6464726573730000000000000000000000000000000000000000000000000000 PUSH1 0x20 DUP3 ADD MSTORE POP JUMP JUMPDEST PUSH32 0x4F776E61626C653A2063616C6C6572206973206E6F7420746865206F776E6572 PUSH1 0x0 DUP3 ADD MSTORE POP JUMP JUMPDEST PUSH2 0x13DB DUP1 PUSH3 0x391 PUSH1 0x0 CODECOPY PUSH1 0x0 RETURN INVALID PUSH1 0x80 PUSH1 0x40 MSTORE CALLVALUE DUP1 ISZERO PUSH2 0x10 JUMPI PUSH1 0x0 DUP1 REVERT JUMPDEST POP PUSH1 0x4 CALLDATASIZE LT PUSH2 0xCF JUMPI PUSH1 0x0 CALLDATALOAD PUSH1 0xE0 SHR DUP1 PUSH4 0xBAAFD2D8 GT PUSH2 0x8C JUMPI DUP1 PUSH4 0xD89135CD GT PUSH2 0x66 JUMPI DUP1 PUSH4 0xD89135CD EQ PUSH2 0x200 JUMPI DUP1 PUSH4 0xE0AEB7C1 EQ PUSH2 0x21E JUMPI DUP1 PUSH4 0xEFE54DD5 EQ PUSH2 0x23A JUMPI DUP1 PUSH4 0xF2FDE38B EQ PUSH2 0x26C JUMPI PUSH2 0xCF JUMP JUMPDEST DUP1 PUSH4 0xBAAFD2D8 EQ PUSH2 0x196 JUMPI DUP1 PUSH4 0xCA056AED EQ PUSH2 0x1C6 JUMPI DUP1 PUSH4 0xCE5E9365 EQ PUSH2 0x1E2 JUMPI PUSH2 0xCF JUMP JUMPDEST DUP1 PUSH4 0x18160DDD EQ PUSH2 0xD4 JUMPI DUP1 PUSH4 0x6E76C3CF EQ PUSH2 0xF2 JUMPI DUP1 PUSH4 0x715018A6 EQ PUSH2 0x122 JUMPI DUP1 PUSH4 0x8DA5CB5B EQ PUSH2 0x12C JUMPI DUP1 PUSH4 0xA3A142D2 EQ PUSH2 0x14A JUMPI DUP1 PUSH4 0xAEE9C872 EQ PUSH2 0x166 JUMPI JUMPDEST PUSH1 0x0 DUP1 REVERT JUMPDEST PUSH2 0xDC PUSH2 0x288 JUMP JUMPDEST PUSH1 0x40 MLOAD PUSH2 0xE9 SWAP2 SWAP1 PUSH2 0x117E JUMP JUMPDEST PUSH1 0x40 MLOAD DUP1 SWAP2 SUB SWAP1 RETURN JUMPDEST PUSH2 0x10C PUSH1 0x4 DUP1 CALLDATASIZE SUB DUP2 ADD SWAP1 PUSH2 0x107 SWAP2 SWAP1 PUSH2 0xFC8 JUMP JUMPDEST PUSH2 0x28E JUMP JUMPDEST PUSH1 0x40 MLOAD PUSH2 0x119 SWAP2 SWAP1 PUSH2 0x117E JUMP JUMPDEST PUSH1 0x40 MLOAD DUP1 SWAP2 SUB SWAP1 RETURN JUMPDEST PUSH2 0x12A PUSH2 0x2A6 JUMP JUMPDEST STOP JUMPDEST PUSH2 0x134 PUSH2 0x2BA JUMP JUMPDEST PUSH1 0x40 MLOAD PUSH2 0x141 SWAP2 SWAP1 PUSH2 0x1103 JUMP JUMPDEST PUSH1 0x40 MLOAD DUP1 SWAP2 SUB SWAP1 RETURN JUMPDEST PUSH2 0x164 PUSH1 0x4 DUP1 CALLDATASIZE SUB DUP2 ADD SWAP1 PUSH2 0x15F SWAP2 SWAP1 PUSH2 0xFF1 JUMP JUMPDEST PUSH2 0x2E3 JUMP JUMPDEST STOP JUMPDEST PUSH2 0x180 PUSH1 0x4 DUP1 CALLDATASIZE SUB DUP2 ADD SWAP1 PUSH2 0x17B SWAP2 SWAP1 PUSH2 0xFC8 JUMP JUMPDEST PUSH2 0x63F JUMP JUMPDEST PUSH1 0x40 MLOAD PUSH2 0x18D SWAP2 SWAP1 PUSH2 0x117E JUMP JUMPDEST PUSH1 0x40 MLOAD DUP1 SWAP2 SUB SWAP1 RETURN JUMPDEST PUSH2 0x1B0 PUSH1 0x4 DUP1 CALLDATASIZE SUB DUP2 ADD SWAP1 PUSH2 0x1AB SWAP2 SWAP1 PUSH2 0xFC8 JUMP JUMPDEST PUSH2 0x657 JUMP JUMPDEST PUSH1 0x40 MLOAD PUSH2 0x1BD SWAP2 SWAP1 PUSH2 0x117E JUMP JUMPDEST PUSH1 0x40 MLOAD DUP1 SWAP2 SUB SWAP1 RETURN JUMPDEST PUSH2 0x1E0 PUSH1 0x4 DUP1 CALLDATASIZE SUB DUP2 ADD SWAP1 PUSH2 0x1DB SWAP2 SWAP1 PUSH2 0x102D JUMP JUMPDEST PUSH2 0x66F JUMP JUMPDEST STOP JUMPDEST PUSH2 0x1EA PUSH2 0x706 JUMP JUMPDEST PUSH1 0x40 MLOAD PUSH2 0x1F7 SWAP2 SWAP1 PUSH2 0x117E JUMP JUMPDEST PUSH1 0x40 MLOAD DUP1 SWAP2 SUB SWAP1 RETURN JUMPDEST PUSH2 0x208 PUSH2 0x70C JUMP JUMPDEST PUSH1 0x40 MLOAD PUSH2 0x215 SWAP2 SWAP1 PUSH2 0x117E JUMP JUMPDEST PUSH1 0x40 MLOAD DUP1 SWAP2 SUB SWAP1 RETURN JUMPDEST PUSH2 0x238 PUSH1 0x4 DUP1 CALLDATASIZE SUB DUP2 ADD SWAP1 PUSH2 0x233 SWAP2 SWAP1 PUSH2 0x102D JUMP JUMPDEST PUSH2 0x712 JUMP JUMPDEST STOP JUMPDEST PUSH2 0x254 PUSH1 0x4 DUP1 CALLDATASIZE SUB DUP2 ADD SWAP1 PUSH2 0x24F SWAP2 SWAP1 PUSH2 0xFF1 JUMP JUMPDEST PUSH2 0xB78 JUMP JUMPDEST PUSH1 0x40 MLOAD PUSH2 0x263 SWAP4 SWAP3 SWAP2 SWAP1 PUSH2 0x1199 JUMP JUMPDEST PUSH1 0x40 MLOAD DUP1 SWAP2 SUB SWAP1 RETURN JUMPDEST PUSH2 0x286 PUSH1 0x4 DUP1 CALLDATASIZE SUB DUP2 ADD SWAP1 PUSH2 0x281 SWAP2 SWAP1 PUSH2 0xFC8 JUMP JUMPDEST PUSH2 0xBAF JUMP JUMPDEST STOP JUMPDEST PUSH1 0x2 SLOAD DUP2 JUMP JUMPDEST PUSH1 0x5 PUSH1 0x20 MSTORE DUP1 PUSH1 0x0 MSTORE PUSH1 0x40 PUSH1 0x0 KECCAK256 PUSH1 0x0 SWAP2 POP SWAP1 POP SLOAD DUP2 JUMP JUMPDEST PUSH2 0x2AE PUSH2 0xC33 JUMP JUMPDEST PUSH2 0x2B8 PUSH1 0x0 PUSH2 0xCB1 JUMP JUMPDEST JUMP JUMPDEST PUSH1 0x0 DUP1 PUSH1 0x0 SWAP1 SLOAD SWAP1 PUSH2 0x100 EXP SWAP1 DIV PUSH20 0xFFFFFFFFFFFFFFFFFFFFFFFFFFFFFFFFFFFFFFFF AND SWAP1 POP SWAP1 JUMP JUMPDEST PUSH2 0x2EB PUSH2 0xC33 JUMP JUMPDEST PUSH1 0x0 PUSH1 0x5 PUSH1 0x0 DUP5 PUSH20 0xFFFFFFFFFFFFFFFFFFFFFFFFFFFFFFFFFFFFFFFF AND PUSH20 0xFFFFFFFFFFFFFFFFFFFFFFFFFFFFFFFFFFFFFFFF AND DUP2 MSTORE PUSH1 0x20 ADD SWAP1 DUP2 MSTORE PUSH1 0x20 ADD PUSH1 0x0 KECCAK256 SLOAD SWAP1 POP PUSH1 0x0 PUSH1 0x7 PUSH1 0x0 DUP6 PUSH20 0xFFFFFFFFFFFFFFFFFFFFFFFFFFFFFFFFFFFFFFFF AND PUSH20 0xFFFFFFFFFFFFFFFFFFFFFFFFFFFFFFFFFFFFFFFF AND DUP2 MSTORE PUSH1 0x20 ADD SWAP1 DUP2 MSTORE PUSH1 0x20 ADD PUSH1 0x0 KECCAK256 PUSH1 0x0 DUP4 DUP2 MSTORE PUSH1 0x20 ADD SWAP1 DUP2 MSTORE PUSH1 0x20 ADD PUSH1 0x0 KECCAK256 PUSH1 0x40 MLOAD DUP1 PUSH1 0x60 ADD PUSH1 0x40 MSTORE SWAP1 DUP2 PUSH1 0x0 DUP3 ADD SLOAD DUP2 MSTORE PUSH1 0x20 ADD PUSH1 0x1 DUP3 ADD SLOAD DUP2 MSTORE PUSH1 0x20 ADD PUSH1 0x2 DUP3 ADD SLOAD DUP2 MSTORE POP POP SWAP1 POP PUSH1 0x0 JUMPDEST PUSH1 0x0 DUP4 EQ ISZERO DUP1 ISZERO PUSH2 0x3CF JUMPI POP TIMESTAMP DUP5 DUP4 PUSH1 0x0 ADD MLOAD PUSH2 0x3CC SWAP2 SWAP1 PUSH2 0x11E1 JUMP JUMPDEST GT ISZERO JUMPDEST ISZERO PUSH2 0x5B0 JUMPI DUP2 PUSH1 0x40 ADD MLOAD PUSH1 0x5 PUSH1 0x0 DUP8 PUSH20 0xFFFFFFFFFFFFFFFFFFFFFFFFFFFFFFFFFFFFFFFF AND PUSH20 0xFFFFFFFFFFFFFFFFFFFFFFFFFFFFFFFFFFFFFFFF AND DUP2 MSTORE PUSH1 0x20 ADD SWAP1 DUP2 MSTORE PUSH1 0x20 ADD PUSH1 0x0 KECCAK256 DUP2 SWAP1 SSTORE POP DUP3 PUSH1 0x6 PUSH1 0x0 DUP8 PUSH20 0xFFFFFFFFFFFFFFFFFFFFFFFFFFFFFFFFFFFFFFFF AND PUSH20 0xFFFFFFFFFFFFFFFFFFFFFFFFFFFFFFFFFFFFFFFF AND DUP2 MSTORE PUSH1 0x20 ADD SWAP1 DUP2 MSTORE PUSH1 0x20 ADD PUSH1 0x0 KECCAK256 SLOAD EQ ISZERO PUSH2 0x4AC JUMPI DUP2 PUSH1 0x40 ADD MLOAD PUSH1 0x6 PUSH1 0x0 DUP8 PUSH20 0xFFFFFFFFFFFFFFFFFFFFFFFFFFFFFFFFFFFFFFFF AND PUSH20 0xFFFFFFFFFFFFFFFFFFFFFFFFFFFFFFFFFFFFFFFF AND DUP2 MSTORE PUSH1 0x20 ADD SWAP1 DUP2 MSTORE PUSH1 0x20 ADD PUSH1 0x0 KECCAK256 DUP2 SWAP1 SSTORE POP JUMPDEST DUP2 PUSH1 0x20 ADD MLOAD DUP2 PUSH2 0x4BC SWAP2 SWAP1 PUSH2 0x11E1 JUMP JUMPDEST SWAP1 POP PUSH1 0x7 PUSH1 0x0 DUP7 PUSH20 0xFFFFFFFFFFFFFFFFFFFFFFFFFFFFFFFFFFFFFFFF AND PUSH20 0xFFFFFFFFFFFFFFFFFFFFFFFFFFFFFFFFFFFFFFFF AND DUP2 MSTORE PUSH1 0x20 ADD SWAP1 DUP2 MSTORE PUSH1 0x20 ADD PUSH1 0x0 KECCAK256 PUSH1 0x0 DUP5 DUP2 MSTORE PUSH1 0x20 ADD SWAP1 DUP2 MSTORE PUSH1 0x20 ADD PUSH1 0x0 KECCAK256 PUSH1 0x0 DUP1 DUP3 ADD PUSH1 0x0 SWAP1 SSTORE PUSH1 0x1 DUP3 ADD PUSH1 0x0 SWAP1 SSTORE PUSH1 0x2 DUP3 ADD PUSH1 0x0 SWAP1 SSTORE POP POP DUP2 PUSH1 0x40 ADD MLOAD SWAP3 POP PUSH1 0x7 PUSH1 0x0 DUP7 PUSH20 0xFFFFFFFFFFFFFFFFFFFFFFFFFFFFFFFFFFFFFFFF AND PUSH20 0xFFFFFFFFFFFFFFFFFFFFFFFFFFFFFFFFFFFFFFFF AND DUP2 MSTORE PUSH1 0x20 ADD SWAP1 DUP2 MSTORE PUSH1 0x20 ADD PUSH1 0x0 KECCAK256 PUSH1 0x0 DUP5 DUP2 MSTORE PUSH1 0x20 ADD SWAP1 DUP2 MSTORE PUSH1 0x20 ADD PUSH1 0x0 KECCAK256 PUSH1 0x40 MLOAD DUP1 PUSH1 0x60 ADD PUSH1 0x40 MSTORE SWAP1 DUP2 PUSH1 0x0 DUP3 ADD SLOAD DUP2 MSTORE PUSH1 0x20 ADD PUSH1 0x1 DUP3 ADD SLOAD DUP2 MSTORE PUSH1 0x20 ADD PUSH1 0x2 DUP3 ADD SLOAD DUP2 MSTORE POP POP SWAP2 POP PUSH2 0x3AF JUMP JUMPDEST DUP1 PUSH1 0x1 PUSH1 0x0 DUP8 PUSH20 0xFFFFFFFFFFFFFFFFFFFFFFFFFFFFFFFFFFFFFFFF AND PUSH20 0xFFFFFFFFFFFFFFFFFFFFFFFFFFFFFFFFFFFFFFFF AND DUP2 MSTORE PUSH1 0x20 ADD SWAP1 DUP2 MSTORE PUSH1 0x20 ADD PUSH1 0x0 KECCAK256 PUSH1 0x0 DUP3 DUP3 SLOAD PUSH2 0x5FF SWAP2 SWAP1 PUSH2 0x1237 JUMP JUMPDEST SWAP3 POP POP DUP2 SWAP1 SSTORE POP DUP1 PUSH1 0x2 PUSH1 0x0 DUP3 DUP3 SLOAD PUSH2 0x618 SWAP2 SWAP1 PUSH2 0x1237 JUMP JUMPDEST SWAP3 POP POP DUP2 SWAP1 SSTORE POP DUP1 PUSH1 0x3 PUSH1 0x0 DUP3 DUP3 SLOAD PUSH2 0x631 SWAP2 SWAP1 PUSH2 0x11E1 JUMP JUMPDEST SWAP3 POP POP DUP2 SWAP1 SSTORE POP POP POP POP POP POP JUMP JUMPDEST PUSH1 0x1 PUSH1 0x20 MSTORE DUP1 PUSH1 0x0 MSTORE PUSH1 0x40 PUSH1 0x0 KECCAK256 PUSH1 0x0 SWAP2 POP SWAP1 POP SLOAD DUP2 JUMP JUMPDEST PUSH1 0x6 PUSH1 0x20 MSTORE DUP1 PUSH1 0x0 MSTORE PUSH1 0x40 PUSH1 0x0 KECCAK256 PUSH1 0x0 SWAP2 POP SWAP1 POP SLOAD DUP2 JUMP JUMPDEST PUSH2 0x677 PUSH2 0xC33 JUMP JUMPDEST PUSH2 0x681 DUP4 DUP3 PUSH2 0x2E3 JUMP JUMPDEST PUSH1 0x0 TIMESTAMP SWAP1 POP PUSH2 0x691 DUP5 DUP3 DUP6 PUSH2 0xD75 JUMP JUMPDEST DUP3 PUSH1 0x1 PUSH1 0x0 DUP7 PUSH20 0xFFFFFFFFFFFFFFFFFFFFFFFFFFFFFFFFFFFFFFFF AND PUSH20 0xFFFFFFFFFFFFFFFFFFFFFFFFFFFFFFFFFFFFFFFF AND DUP2 MSTORE PUSH1 0x20 ADD SWAP1 DUP2 MSTORE PUSH1 0x20 ADD PUSH1 0x0 KECCAK256 PUSH1 0x0 DUP3 DUP3 SLOAD PUSH2 0x6E0 SWAP2 SWAP1 PUSH2 0x11E1 JUMP JUMPDEST SWAP3 POP POP DUP2 SWAP1 SSTORE POP DUP3 PUSH1 0x2 PUSH1 0x0 DUP3 DUP3 SLOAD PUSH2 0x6F9 SWAP2 SWAP1 PUSH2 0x11E1 JUMP JUMPDEST SWAP3 POP POP DUP2 SWAP1 SSTORE POP POP POP POP POP JUMP JUMPDEST PUSH1 0x3 SLOAD DUP2 JUMP JUMPDEST PUSH1 0x4 SLOAD DUP2 JUMP JUMPDEST PUSH2 0x71A PUSH2 0xC33 JUMP JUMPDEST PUSH2 0x724 DUP4 DUP3 PUSH2 0x2E3 JUMP JUMPDEST DUP2 PUSH1 0x1 PUSH1 0x0 DUP6 PUSH20 0xFFFFFFFFFFFFFFFFFFFFFFFFFFFFFFFFFFFFFFFF AND PUSH20 0xFFFFFFFFFFFFFFFFFFFFFFFFFFFFFFFFFFFFFFFF AND DUP2 MSTORE PUSH1 0x20 ADD SWAP1 DUP2 MSTORE PUSH1 0x20 ADD PUSH1 0x0 KECCAK256 SLOAD LT ISZERO PUSH2 0x7A6 JUMPI PUSH1 0x40 MLOAD PUSH32 0x8C379A000000000000000000000000000000000000000000000000000000000 DUP2 MSTORE PUSH1 0x4 ADD PUSH2 0x79D SWAP1 PUSH2 0x113E JUMP JUMPDEST PUSH1 0x40 MLOAD DUP1 SWAP2 SUB SWAP1 REVERT JUMPDEST PUSH1 0x0 PUSH1 0x5 PUSH1 0x0 DUP6 PUSH20 0xFFFFFFFFFFFFFFFFFFFFFFFFFFFFFFFFFFFFFFFF AND PUSH20 0xFFFFFFFFFFFFFFFFFFFFFFFFFFFFFFFFFFFFFFFF AND DUP2 MSTORE PUSH1 0x20 ADD SWAP1 DUP2 MSTORE PUSH1 0x20 ADD PUSH1 0x0 KECCAK256 SLOAD SWAP1 POP PUSH1 0x0 PUSH1 0x7 PUSH1 0x0 DUP7 PUSH20 0xFFFFFFFFFFFFFFFFFFFFFFFFFFFFFFFFFFFFFFFF AND PUSH20 0xFFFFFFFFFFFFFFFFFFFFFFFFFFFFFFFFFFFFFFFF AND DUP2 MSTORE PUSH1 0x20 ADD SWAP1 DUP2 MSTORE PUSH1 0x20 ADD PUSH1 0x0 KECCAK256 PUSH1 0x0 DUP4 DUP2 MSTORE PUSH1 0x20 ADD SWAP1 DUP2 MSTORE PUSH1 0x20 ADD PUSH1 0x0 KECCAK256 PUSH1 0x40 MLOAD DUP1 PUSH1 0x60 ADD PUSH1 0x40 MSTORE SWAP1 DUP2 PUSH1 0x0 DUP3 ADD SLOAD DUP2 MSTORE PUSH1 0x20 ADD PUSH1 0x1 DUP3 ADD SLOAD DUP2 MSTORE PUSH1 0x20 ADD PUSH1 0x2 DUP3 ADD SLOAD DUP2 MSTORE POP POP SWAP1 POP PUSH1 0x0 JUMPDEST DUP5 DUP2 LT ISZERO PUSH2 0xAE8 JUMPI PUSH1 0x0 DUP2 DUP7 PUSH2 0x880 SWAP2 SWAP1 PUSH2 0x1237 JUMP JUMPDEST SWAP1 POP DUP3 PUSH1 0x20 ADD MLOAD DUP2 LT PUSH2 0xA69 JUMPI DUP3 PUSH1 0x20 ADD MLOAD DUP3 PUSH2 0x89D SWAP2 SWAP1 PUSH2 0x11E1 JUMP JUMPDEST SWAP2 POP PUSH1 0x7 PUSH1 0x0 DUP9 PUSH20 0xFFFFFFFFFFFFFFFFFFFFFFFFFFFFFFFFFFFFFFFF AND PUSH20 0xFFFFFFFFFFFFFFFFFFFFFFFFFFFFFFFFFFFFFFFF AND DUP2 MSTORE PUSH1 0x20 ADD SWAP1 DUP2 MSTORE PUSH1 0x20 ADD PUSH1 0x0 KECCAK256 PUSH1 0x0 DUP6 DUP2 MSTORE PUSH1 0x20 ADD SWAP1 DUP2 MSTORE PUSH1 0x20 ADD PUSH1 0x0 KECCAK256 PUSH1 0x0 DUP1 DUP3 ADD PUSH1 0x0 SWAP1 SSTORE PUSH1 0x1 DUP3 ADD PUSH1 0x0 SWAP1 SSTORE PUSH1 0x2 DUP3 ADD PUSH1 0x0 SWAP1 SSTORE POP POP DUP3 PUSH1 0x40 ADD MLOAD PUSH1 0x5 PUSH1 0x0 DUP10 PUSH20 0xFFFFFFFFFFFFFFFFFFFFFFFFFFFFFFFFFFFFFFFF AND PUSH20 0xFFFFFFFFFFFFFFFFFFFFFFFFFFFFFFFFFFFFFFFF AND DUP2 MSTORE PUSH1 0x20 ADD SWAP1 DUP2 MSTORE PUSH1 0x20 ADD PUSH1 0x0 KECCAK256 DUP2 SWAP1 SSTORE POP DUP4 PUSH1 0x6 PUSH1 0x0 DUP10 PUSH20 0xFFFFFFFFFFFFFFFFFFFFFFFFFFFFFFFFFFFFFFFF AND PUSH20 0xFFFFFFFFFFFFFFFFFFFFFFFFFFFFFFFFFFFFFFFF AND DUP2 MSTORE PUSH1 0x20 ADD SWAP1 DUP2 MSTORE PUSH1 0x20 ADD PUSH1 0x0 KECCAK256 SLOAD EQ ISZERO PUSH2 0x9E2 JUMPI DUP3 PUSH1 0x40 ADD MLOAD PUSH1 0x6 PUSH1 0x0 DUP10 PUSH20 0xFFFFFFFFFFFFFFFFFFFFFFFFFFFFFFFFFFFFFFFF AND PUSH20 0xFFFFFFFFFFFFFFFFFFFFFFFFFFFFFFFFFFFFFFFF AND DUP2 MSTORE PUSH1 0x20 ADD SWAP1 DUP2 MSTORE PUSH1 0x20 ADD PUSH1 0x0 KECCAK256 DUP2 SWAP1 SSTORE POP JUMPDEST DUP3 PUSH1 0x40 ADD MLOAD SWAP4 POP PUSH1 0x7 PUSH1 0x0 DUP9 PUSH20 0xFFFFFFFFFFFFFFFFFFFFFFFFFFFFFFFFFFFFFFFF AND PUSH20 0xFFFFFFFFFFFFFFFFFFFFFFFFFFFFFFFFFFFFFFFF AND DUP2 MSTORE PUSH1 0x20 ADD SWAP1 DUP2 MSTORE PUSH1 0x20 ADD PUSH1 0x0 KECCAK256 PUSH1 0x0 DUP6 DUP2 MSTORE PUSH1 0x20 ADD SWAP1 DUP2 MSTORE PUSH1 0x20 ADD PUSH1 0x0 KECCAK256 PUSH1 0x40 MLOAD DUP1 PUSH1 0x60 ADD PUSH1 0x40 MSTORE SWAP1 DUP2 PUSH1 0x0 DUP3 ADD SLOAD DUP2 MSTORE PUSH1 0x20 ADD PUSH1 0x1 DUP3 ADD SLOAD DUP2 MSTORE PUSH1 0x20 ADD PUSH1 0x2 DUP3 ADD SLOAD DUP2 MSTORE POP POP SWAP3 POP PUSH2 0xAE2 JUMP JUMPDEST DUP1 DUP3 PUSH2 0xA75 SWAP2 SWAP1 PUSH2 0x11E1 JUMP JUMPDEST SWAP2 POP DUP1 PUSH1 0x7 PUSH1 0x0 DUP10 PUSH20 0xFFFFFFFFFFFFFFFFFFFFFFFFFFFFFFFFFFFFFFFF AND PUSH20 0xFFFFFFFFFFFFFFFFFFFFFFFFFFFFFFFFFFFFFFFF AND DUP2 MSTORE PUSH1 0x20 ADD SWAP1 DUP2 MSTORE PUSH1 0x20 ADD PUSH1 0x0 KECCAK256 PUSH1 0x0 DUP7 DUP2 MSTORE PUSH1 0x20 ADD SWAP1 DUP2 MSTORE PUSH1 0x20 ADD PUSH1 0x0 KECCAK256 PUSH1 0x1 ADD PUSH1 0x0 DUP3 DUP3 SLOAD PUSH2 0xADA SWAP2 SWAP1 PUSH2 0x1237 JUMP JUMPDEST SWAP3 POP POP DUP2 SWAP1 SSTORE POP JUMPDEST POP PUSH2 0x86A JUMP JUMPDEST DUP1 PUSH1 0x1 PUSH1 0x0 DUP9 PUSH20 0xFFFFFFFFFFFFFFFFFFFFFFFFFFFFFFFFFFFFFFFF AND PUSH20 0xFFFFFFFFFFFFFFFFFFFFFFFFFFFFFFFFFFFFFFFF AND DUP2 MSTORE PUSH1 0x20 ADD SWAP1 DUP2 MSTORE PUSH1 0x20 ADD PUSH1 0x0 KECCAK256 PUSH1 0x0 DUP3 DUP3 SLOAD PUSH2 0xB37 SWAP2 SWAP1 PUSH2 0x1237 JUMP JUMPDEST SWAP3 POP POP DUP2 SWAP1 SSTORE POP DUP1 PUSH1 0x2 PUSH1 0x0 DUP3 DUP3 SLOAD PUSH2 0xB50 SWAP2 SWAP1 PUSH2 0x1237 JUMP JUMPDEST SWAP3 POP POP DUP2 SWAP1 SSTORE POP DUP1 PUSH1 0x4 PUSH1 0x0 DUP3 DUP3 SLOAD PUSH2 0xB69 SWAP2 SWAP1 PUSH2 0x11E1 JUMP JUMPDEST SWAP3 POP POP DUP2 SWAP1 SSTORE POP POP POP POP POP POP POP JUMP JUMPDEST PUSH1 0x7 PUSH1 0x20 MSTORE DUP2 PUSH1 0x0 MSTORE PUSH1 0x40 PUSH1 0x0 KECCAK256 PUSH1 0x20 MSTORE DUP1 PUSH1 0x0 MSTORE PUSH1 0x40 PUSH1 0x0 KECCAK256 PUSH1 0x0 SWAP2 POP SWAP2 POP POP DUP1 PUSH1 0x0 ADD SLOAD SWAP1 DUP1 PUSH1 0x1 ADD SLOAD SWAP1 DUP1 PUSH1 0x2 ADD SLOAD SWAP1 POP DUP4 JUMP JUMPDEST PUSH2 0xBB7 PUSH2 0xC33 JUMP JUMPDEST PUSH1 0x0 PUSH20 0xFFFFFFFFFFFFFFFFFFFFFFFFFFFFFFFFFFFFFFFF AND DUP2 PUSH20 0xFFFFFFFFFFFFFFFFFFFFFFFFFFFFFFFFFFFFFFFF AND EQ ISZERO PUSH2 0xC27 JUMPI PUSH1 0x40 MLOAD PUSH32 0x8C379A000000000000000000000000000000000000000000000000000000000 DUP2 MSTORE PUSH1 0x4 ADD PUSH2 0xC1E SWAP1 PUSH2 0x111E JUMP JUMPDEST PUSH1 0x40 MLOAD DUP1 SWAP2 SUB SWAP1 REVERT JUMPDEST PUSH2 0xC30 DUP2 PUSH2 0xCB1 JUMP JUMPDEST POP JUMP JUMPDEST PUSH2 0xC3B PUSH2 0xF96 JUMP JUMPDEST PUSH20 0xFFFFFFFFFFFFFFFFFFFFFFFFFFFFFFFFFFFFFFFF AND PUSH2 0xC59 PUSH2 0x2BA JUMP JUMPDEST PUSH20 0xFFFFFFFFFFFFFFFFFFFFFFFFFFFFFFFFFFFFFFFF AND EQ PUSH2 0xCAF JUMPI PUSH1 0x40 MLOAD PUSH32 0x8C379A000000000000000000000000000000000000000000000000000000000 DUP2 MSTORE PUSH1 0x4 ADD PUSH2 0xCA6 SWAP1 PUSH2 0x115E JUMP JUMPDEST PUSH1 0x40 MLOAD DUP1 SWAP2 SUB SWAP1 REVERT JUMPDEST JUMP JUMPDEST PUSH1 0x0 DUP1 PUSH1 0x0 SWAP1 SLOAD SWAP1 PUSH2 0x100 EXP SWAP1 DIV PUSH20 0xFFFFFFFFFFFFFFFFFFFFFFFFFFFFFFFFFFFFFFFF AND SWAP1 POP DUP2 PUSH1 0x0 DUP1 PUSH2 0x100 EXP DUP2 SLOAD DUP2 PUSH20 0xFFFFFFFFFFFFFFFFFFFFFFFFFFFFFFFFFFFFFFFF MUL NOT AND SWAP1 DUP4 PUSH20 0xFFFFFFFFFFFFFFFFFFFFFFFFFFFFFFFFFFFFFFFF AND MUL OR SWAP1 SSTORE POP DUP2 PUSH20 0xFFFFFFFFFFFFFFFFFFFFFFFFFFFFFFFFFFFFFFFF AND DUP2 PUSH20 0xFFFFFFFFFFFFFFFFFFFFFFFFFFFFFFFFFFFFFFFF AND PUSH32 0x8BE0079C531659141344CD1FD0A4F28419497F9722A3DAAFE3B4186F6B6457E0 PUSH1 0x40 MLOAD PUSH1 0x40 MLOAD DUP1 SWAP2 SUB SWAP1 LOG3 POP POP JUMP JUMPDEST PUSH1 0x0 PUSH1 0x40 MLOAD DUP1 PUSH1 0x60 ADD PUSH1 0x40 MSTORE DUP1 DUP5 DUP2 MSTORE PUSH1 0x20 ADD DUP4 DUP2 MSTORE PUSH1 0x20 ADD PUSH1 0x0 DUP2 MSTORE POP SWAP1 POP PUSH1 0x0 PUSH1 0x6 PUSH1 0x0 DUP7 PUSH20 0xFFFFFFFFFFFFFFFFFFFFFFFFFFFFFFFFFFFFFFFF AND PUSH20 0xFFFFFFFFFFFFFFFFFFFFFFFFFFFFFFFFFFFFFFFF AND DUP2 MSTORE PUSH1 0x20 ADD SWAP1 DUP2 MSTORE PUSH1 0x20 ADD PUSH1 0x0 KECCAK256 SLOAD SWAP1 POP PUSH1 0x0 PUSH1 0x1 DUP3 PUSH2 0xDE8 SWAP2 SWAP1 PUSH2 0x11E1 JUMP JUMPDEST SWAP1 POP DUP3 PUSH1 0x7 PUSH1 0x0 DUP9 PUSH20 0xFFFFFFFFFFFFFFFFFFFFFFFFFFFFFFFFFFFFFFFF AND PUSH20 0xFFFFFFFFFFFFFFFFFFFFFFFFFFFFFFFFFFFFFFFF AND DUP2 MSTORE PUSH1 0x20 ADD SWAP1 DUP2 MSTORE PUSH1 0x20 ADD PUSH1 0x0 KECCAK256 PUSH1 0x0 DUP4 DUP2 MSTORE PUSH1 0x20 ADD SWAP1 DUP2 MSTORE PUSH1 0x20 ADD PUSH1 0x0 KECCAK256 PUSH1 0x0 DUP3 ADD MLOAD DUP2 PUSH1 0x0 ADD SSTORE PUSH1 0x20 DUP3 ADD MLOAD DUP2 PUSH1 0x1 ADD SSTORE PUSH1 0x40 DUP3 ADD MLOAD DUP2 PUSH1 0x2 ADD SSTORE SWAP1 POP POP PUSH1 0x0 DUP3 EQ PUSH2 0xEBD JUMPI DUP1 PUSH1 0x7 PUSH1 0x0 DUP9 PUSH20 0xFFFFFFFFFFFFFFFFFFFFFFFFFFFFFFFFFFFFFFFF AND PUSH20 0xFFFFFFFFFFFFFFFFFFFFFFFFFFFFFFFFFFFFFFFF AND DUP2 MSTORE PUSH1 0x20 ADD SWAP1 DUP2 MSTORE PUSH1 0x20 ADD PUSH1 0x0 KECCAK256 PUSH1 0x0 DUP5 DUP2 MSTORE PUSH1 0x20 ADD SWAP1 DUP2 MSTORE PUSH1 0x20 ADD PUSH1 0x0 KECCAK256 PUSH1 0x2 ADD DUP2 SWAP1 SSTORE POP JUMPDEST DUP1 PUSH1 0x6 PUSH1 0x0 DUP9 PUSH20 0xFFFFFFFFFFFFFFFFFFFFFFFFFFFFFFFFFFFFFFFF AND PUSH20 0xFFFFFFFFFFFFFFFFFFFFFFFFFFFFFFFFFFFFFFFF AND DUP2 MSTORE PUSH1 0x20 ADD SWAP1 DUP2 MSTORE PUSH1 0x20 ADD PUSH1 0x0 KECCAK256 DUP2 SWAP1 SSTORE POP PUSH1 0x0 PUSH1 0x5 PUSH1 0x0 DUP9 PUSH20 0xFFFFFFFFFFFFFFFFFFFFFFFFFFFFFFFFFFFFFFFF AND PUSH20 0xFFFFFFFFFFFFFFFFFFFFFFFFFFFFFFFFFFFFFFFF AND DUP2 MSTORE PUSH1 0x20 ADD SWAP1 DUP2 MSTORE PUSH1 0x20 ADD PUSH1 0x0 KECCAK256 SLOAD EQ ISZERO PUSH2 0xF8E JUMPI DUP1 PUSH1 0x5 PUSH1 0x0 DUP9 PUSH20 0xFFFFFFFFFFFFFFFFFFFFFFFFFFFFFFFFFFFFFFFF AND PUSH20 0xFFFFFFFFFFFFFFFFFFFFFFFFFFFFFFFFFFFFFFFF AND DUP2 MSTORE PUSH1 0x20 ADD SWAP1 DUP2 MSTORE PUSH1 0x20 ADD PUSH1 0x0 KECCAK256 DUP2 SWAP1 SSTORE POP JUMPDEST POP POP POP POP POP POP JUMP JUMPDEST PUSH1 0x0 CALLER SWAP1 POP SWAP1 JUMP JUMPDEST PUSH1 0x0 DUP2 CALLDATALOAD SWAP1 POP PUSH2 0xFAD DUP2 PUSH2 0x1377 JUMP JUMPDEST SWAP3 SWAP2 POP POP JUMP JUMPDEST PUSH1 0x0 DUP2 CALLDATALOAD SWAP1 POP PUSH2 0xFC2 DUP2 PUSH2 0x138E JUMP JUMPDEST SWAP3 SWAP2 POP POP JUMP JUMPDEST PUSH1 0x0 PUSH1 0x20 DUP3 DUP5 SUB SLT ISZERO PUSH2 0xFDA JUMPI PUSH1 0x0 DUP1 REVERT JUMPDEST PUSH1 0x0 PUSH2 0xFE8 DUP5 DUP3 DUP6 ADD PUSH2 0xF9E JUMP JUMPDEST SWAP2 POP POP SWAP3 SWAP2 POP POP JUMP JUMPDEST PUSH1 0x0 DUP1 PUSH1 0x40 DUP4 DUP6 SUB SLT ISZERO PUSH2 0x1004 JUMPI PUSH1 0x0 DUP1 REVERT JUMPDEST PUSH1 0x0 PUSH2 0x1012 DUP6 DUP3 DUP7 ADD PUSH2 0xF9E JUMP JUMPDEST SWAP3 POP POP PUSH1 0x20 PUSH2 0x1023 DUP6 DUP3 DUP7 ADD PUSH2 0xFB3 JUMP JUMPDEST SWAP2 POP POP SWAP3 POP SWAP3 SWAP1 POP JUMP JUMPDEST PUSH1 0x0 DUP1 PUSH1 0x0 PUSH1 0x60 DUP5 DUP7 SUB SLT ISZERO PUSH2 0x1042 JUMPI PUSH1 0x0 DUP1 REVERT JUMPDEST PUSH1 0x0 PUSH2 0x1050 DUP7 DUP3 DUP8 ADD PUSH2 0xF9E JUMP JUMPDEST SWAP4 POP POP PUSH1 0x20 PUSH2 0x1061 DUP7 DUP3 DUP8 ADD PUSH2 0xFB3 JUMP JUMPDEST SWAP3 POP POP PUSH1 0x40 PUSH2 0x1072 DUP7 DUP3 DUP8 ADD PUSH2 0xFB3 JUMP JUMPDEST SWAP2 POP POP SWAP3 POP SWAP3 POP SWAP3 JUMP JUMPDEST PUSH2 0x1085 DUP2 PUSH2 0x126B JUMP JUMPDEST DUP3 MSTORE POP POP JUMP JUMPDEST PUSH1 0x0 PUSH2 0x1098 PUSH1 0x26 DUP4 PUSH2 0x11D0 JUMP JUMPDEST SWAP2 POP PUSH2 0x10A3 DUP3 PUSH2 0x12D6 JUMP JUMPDEST PUSH1 0x40 DUP3 ADD SWAP1 POP SWAP2 SWAP1 POP JUMP JUMPDEST PUSH1 0x0 PUSH2 0x10BB PUSH1 0x19 DUP4 PUSH2 0x11D0 JUMP JUMPDEST SWAP2 POP PUSH2 0x10C6 DUP3 PUSH2 0x1325 JUMP JUMPDEST PUSH1 0x20 DUP3 ADD SWAP1 POP SWAP2 SWAP1 POP JUMP JUMPDEST PUSH1 0x0 PUSH2 0x10DE PUSH1 0x20 DUP4 PUSH2 0x11D0 JUMP JUMPDEST SWAP2 POP PUSH2 0x10E9 DUP3 PUSH2 0x134E JUMP JUMPDEST PUSH1 0x20 DUP3 ADD SWAP1 POP SWAP2 SWAP1 POP JUMP JUMPDEST PUSH2 0x10FD DUP2 PUSH2 0x129D JUMP JUMPDEST DUP3 MSTORE POP POP JUMP JUMPDEST PUSH1 0x0 PUSH1 0x20 DUP3 ADD SWAP1 POP PUSH2 0x1118 PUSH1 0x0 DUP4 ADD DUP5 PUSH2 0x107C JUMP JUMPDEST SWAP3 SWAP2 POP POP JUMP JUMPDEST PUSH1 0x0 PUSH1 0x20 DUP3 ADD SWAP1 POP DUP2 DUP2 SUB PUSH1 0x0 DUP4 ADD MSTORE PUSH2 0x1137 DUP2 PUSH2 0x108B JUMP JUMPDEST SWAP1 POP SWAP2 SWAP1 POP JUMP JUMPDEST PUSH1 0x0 PUSH1 0x20 DUP3 ADD SWAP1 POP DUP2 DUP2 SUB PUSH1 0x0 DUP4 ADD MSTORE PUSH2 0x1157 DUP2 PUSH2 0x10AE JUMP JUMPDEST SWAP1 POP SWAP2 SWAP1 POP JUMP JUMPDEST PUSH1 0x0 PUSH1 0x20 DUP3 ADD SWAP1 POP DUP2 DUP2 SUB PUSH1 0x0 DUP4 ADD MSTORE PUSH2 0x1177 DUP2 PUSH2 0x10D1 JUMP JUMPDEST SWAP1 POP SWAP2 SWAP1 POP JUMP JUMPDEST PUSH1 0x0 PUSH1 0x20 DUP3 ADD SWAP1 POP PUSH2 0x1193 PUSH1 0x0 DUP4 ADD DUP5 PUSH2 0x10F4 JUMP JUMPDEST SWAP3 SWAP2 POP POP JUMP JUMPDEST PUSH1 0x0 PUSH1 0x60 DUP3 ADD SWAP1 POP PUSH2 0x11AE PUSH1 0x0 DUP4 ADD DUP7 PUSH2 0x10F4 JUMP JUMPDEST PUSH2 0x11BB PUSH1 0x20 DUP4 ADD DUP6 PUSH2 0x10F4 JUMP JUMPDEST PUSH2 0x11C8 PUSH1 0x40 DUP4 ADD DUP5 PUSH2 0x10F4 JUMP JUMPDEST SWAP5 SWAP4 POP POP POP POP JUMP JUMPDEST PUSH1 0x0 DUP3 DUP3 MSTORE PUSH1 0x20 DUP3 ADD SWAP1 POP SWAP3 SWAP2 POP POP JUMP JUMPDEST PUSH1 0x0 PUSH2 0x11EC DUP3 PUSH2 0x129D JUMP JUMPDEST SWAP2 POP PUSH2 0x11F7 DUP4 PUSH2 0x129D JUMP JUMPDEST SWAP3 POP DUP3 PUSH32 0xFFFFFFFFFFFFFFFFFFFFFFFFFFFFFFFFFFFFFFFFFFFFFFFFFFFFFFFFFFFFFFFF SUB DUP3 GT ISZERO PUSH2 0x122C JUMPI PUSH2 0x122B PUSH2 0x12A7 JUMP JUMPDEST JUMPDEST DUP3 DUP3 ADD SWAP1 POP SWAP3 SWAP2 POP POP JUMP JUMPDEST PUSH1 0x0 PUSH2 0x1242 DUP3 PUSH2 0x129D JUMP JUMPDEST SWAP2 POP PUSH2 0x124D DUP4 PUSH2 0x129D JUMP JUMPDEST SWAP3 POP DUP3 DUP3 LT ISZERO PUSH2 0x1260 JUMPI PUSH2 0x125F PUSH2 0x12A7 JUMP JUMPDEST JUMPDEST DUP3 DUP3 SUB SWAP1 POP SWAP3 SWAP2 POP POP JUMP JUMPDEST PUSH1 0x0 PUSH2 0x1276 DUP3 PUSH2 0x127D JUMP JUMPDEST SWAP1 POP SWAP2 SWAP1 POP JUMP JUMPDEST PUSH1 0x0 PUSH20 0xFFFFFFFFFFFFFFFFFFFFFFFFFFFFFFFFFFFFFFFF DUP3 AND SWAP1 POP SWAP2 SWAP1 POP JUMP JUMPDEST PUSH1 0x0 DUP2 SWAP1 POP SWAP2 SWAP1 POP JUMP JUMPDEST PUSH32 0x4E487B7100000000000000000000000000000000000000000000000000000000 PUSH1 0x0 MSTORE PUSH1 0x11 PUSH1 0x4 MSTORE PUSH1 0x24 PUSH1 0x0 REVERT JUMPDEST PUSH32 0x4F776E61626C653A206E6577206F776E657220697320746865207A65726F2061 PUSH1 0x0 DUP3 ADD MSTORE PUSH32 0x6464726573730000000000000000000000000000000000000000000000000000 PUSH1 0x20 DUP3 ADD MSTORE POP JUMP JUMPDEST PUSH32 0x4E6F7420656E6F75676820746F6B656E7320746F206275726E00000000000000 PUSH1 0x0 DUP3 ADD MSTORE POP JUMP JUMPDEST PUSH32 0x4F776E61626C653A2063616C6C6572206973206E6F7420746865206F776E6572 PUSH1 0x0 DUP3 ADD MSTORE POP JUMP JUMPDEST PUSH2 0x1380 DUP2 PUSH2 0x126B JUMP JUMPDEST DUP2 EQ PUSH2 0x138B JUMPI PUSH1 0x0 DUP1 REVERT JUMPDEST POP JUMP JUMPDEST PUSH2 0x1397 DUP2 PUSH2 0x129D JUMP JUMPDEST DUP2 EQ PUSH2 0x13A2 JUMPI PUSH1 0x0 DUP1 REVERT JUMPDEST POP JUMP INVALID LOG2 PUSH5 0x6970667358 0x22 SLT KECCAK256 GASLIMIT SWAP16 MSTORE 0xBC PUSH9 0x182A35E8E14B6EE0A3 PUSH10 0xB53E4D99CA3CD2739EE8 0xEB EXTCODECOPY 0xC9 0xD9 XOR PUSH25 0x8D64736F6C6343000804003300000000000000000000000000 "
				},
				"gasEstimates": {
					"creation": {
						"codeDepositCost": "1016600",
						"executionCost": "infinite",
						"totalCost": "infinite"
					},
					"external": {
						"addTokens(address,uint256,uint256)": "infinite",
						"burnTokens(address,uint256,uint256)": "infinite",
						"firstTBNode(address)": "1537",
						"lastTBNode(address)": "1537",
						"owner()": "1289",
						"removeExpiredTokens(address,uint256)": "infinite",
						"renounceOwnership()": "24443",
						"tbNodeByIndex(address,uint256)": "infinite",
						"totalBalances(address)": "1625",
						"totalBurned()": "1151",
						"totalExpired()": "1196",
						"totalSupply()": "1130",
						"transferOwnership(address)": "24835"
					},
					"internal": {
						"addNode(address,uint256,uint256)": "infinite"
					}
				},
				"methodIdentifiers": {
					"addTokens(address,uint256,uint256)": "ca056aed",
					"burnTokens(address,uint256,uint256)": "e0aeb7c1",
					"firstTBNode(address)": "6e76c3cf",
					"lastTBNode(address)": "baafd2d8",
					"owner()": "8da5cb5b",
					"removeExpiredTokens(address,uint256)": "a3a142d2",
					"renounceOwnership()": "715018a6",
					"tbNodeByIndex(address,uint256)": "efe54dd5",
					"totalBalances(address)": "aee9c872",
					"totalBurned()": "d89135cd",
					"totalExpired()": "ce5e9365",
					"totalSupply()": "18160ddd",
					"transferOwnership(address)": "f2fde38b"
				}
			},
			"storageLayout": {
				"storage": [
					{
						"astId": 7,
						"contract": "contracts/FlowerStorage.sol:FlowerStorage",
						"label": "_owner",
						"offset": 0,
						"slot": "0",
						"type": "t_address"
					},
					{
						"astId": 152,
						"contract": "contracts/FlowerStorage.sol:FlowerStorage",
						"label": "totalBalances",
						"offset": 0,
						"slot": "1",
						"type": "t_mapping(t_address,t_uint256)"
					},
					{
						"astId": 161,
						"contract": "contracts/FlowerStorage.sol:FlowerStorage",
						"label": "totalSupply",
						"offset": 0,
						"slot": "2",
						"type": "t_uint256"
					},
					{
						"astId": 163,
						"contract": "contracts/FlowerStorage.sol:FlowerStorage",
						"label": "totalExpired",
						"offset": 0,
						"slot": "3",
						"type": "t_uint256"
					},
					{
						"astId": 165,
						"contract": "contracts/FlowerStorage.sol:FlowerStorage",
						"label": "totalBurned",
						"offset": 0,
						"slot": "4",
						"type": "t_uint256"
					},
					{
						"astId": 169,
						"contract": "contracts/FlowerStorage.sol:FlowerStorage",
						"label": "firstTBNode",
						"offset": 0,
						"slot": "5",
						"type": "t_mapping(t_address,t_uint256)"
					},
					{
						"astId": 173,
						"contract": "contracts/FlowerStorage.sol:FlowerStorage",
						"label": "lastTBNode",
						"offset": 0,
						"slot": "6",
						"type": "t_mapping(t_address,t_uint256)"
					},
					{
						"astId": 180,
						"contract": "contracts/FlowerStorage.sol:FlowerStorage",
						"label": "tbNodeByIndex",
						"offset": 0,
						"slot": "7",
						"type": "t_mapping(t_address,t_mapping(t_uint256,t_struct(TBNode)159_storage))"
					}
				],
				"types": {
					"t_address": {
						"encoding": "inplace",
						"label": "address",
						"numberOfBytes": "20"
					},
					"t_mapping(t_address,t_mapping(t_uint256,t_struct(TBNode)159_storage))": {
						"encoding": "mapping",
						"key": "t_address",
						"label": "mapping(address => mapping(uint256 => struct FlowerStorage.TBNode))",
						"numberOfBytes": "32",
						"value": "t_mapping(t_uint256,t_struct(TBNode)159_storage)"
					},
					"t_mapping(t_address,t_uint256)": {
						"encoding": "mapping",
						"key": "t_address",
						"label": "mapping(address => uint256)",
						"numberOfBytes": "32",
						"value": "t_uint256"
					},
					"t_mapping(t_uint256,t_struct(TBNode)159_storage)": {
						"encoding": "mapping",
						"key": "t_uint256",
						"label": "mapping(uint256 => struct FlowerStorage.TBNode)",
						"numberOfBytes": "32",
						"value": "t_struct(TBNode)159_storage"
					},
					"t_struct(TBNode)159_storage": {
						"encoding": "inplace",
						"label": "struct FlowerStorage.TBNode",
						"members": [
							{
								"astId": 154,
								"contract": "contracts/FlowerStorage.sol:FlowerStorage",
								"label": "timestamp",
								"offset": 0,
								"slot": "0",
								"type": "t_uint256"
							},
							{
								"astId": 156,
								"contract": "contracts/FlowerStorage.sol:FlowerStorage",
								"label": "balance",
								"offset": 0,
								"slot": "1",
								"type": "t_uint256"
							},
							{
								"astId": 158,
								"contract": "contracts/FlowerStorage.sol:FlowerStorage",
								"label": "next",
								"offset": 0,
								"slot": "2",
								"type": "t_uint256"
							}
						],
						"numberOfBytes": "96"
					},
					"t_uint256": {
						"encoding": "inplace",
						"label": "uint256",
						"numberOfBytes": "32"
					}
				}
			},
			"userdoc": {
				"kind": "user",
				"methods": {},
				"version": 1
			}
		}
	}
}