{
	"contracts/FlowerStorage.sol": {
		"FlowerStorage": {
			"abi": [
				{
					"inputs": [],
					"stateMutability": "nonpayable",
					"type": "constructor"
				},
				{
					"anonymous": false,
					"inputs": [
						{
							"indexed": true,
							"internalType": "address",
							"name": "previousOwner",
							"type": "address"
						},
						{
							"indexed": true,
							"internalType": "address",
							"name": "newOwner",
							"type": "address"
						}
					],
					"name": "OwnershipTransferred",
					"type": "event"
				},
				{
					"anonymous": false,
					"inputs": [
						{
							"indexed": true,
							"internalType": "address",
							"name": "flowerConductorAddress",
							"type": "address"
						}
					],
					"name": "SetFlowerConductor",
					"type": "event"
				},
				{
					"inputs": [
						{
							"internalType": "address",
							"name": "_addr",
							"type": "address"
						},
						{
							"internalType": "uint256",
							"name": "_amount",
							"type": "uint256"
						}
					],
					"name": "addBalance",
					"outputs": [],
					"stateMutability": "nonpayable",
					"type": "function"
				},
				{
					"inputs": [
						{
							"internalType": "address",
							"name": "addr",
							"type": "address"
						},
						{
							"internalType": "uint256",
							"name": "timestamp",
							"type": "uint256"
						},
						{
							"internalType": "uint256",
							"name": "balance",
							"type": "uint256"
						}
					],
					"name": "addNode",
					"outputs": [],
					"stateMutability": "nonpayable",
					"type": "function"
				},
				{
					"inputs": [
						{
							"internalType": "uint256",
							"name": "_amount",
							"type": "uint256"
						}
					],
					"name": "addTotalBurned",
					"outputs": [],
					"stateMutability": "nonpayable",
					"type": "function"
				},
				{
					"inputs": [
						{
							"internalType": "uint256",
							"name": "_amount",
							"type": "uint256"
						}
					],
					"name": "addTotalExpired",
					"outputs": [],
					"stateMutability": "nonpayable",
					"type": "function"
				},
				{
					"inputs": [
						{
							"internalType": "uint256",
							"name": "_amount",
							"type": "uint256"
						}
					],
					"name": "addTotalSupply",
					"outputs": [],
					"stateMutability": "nonpayable",
					"type": "function"
				},
				{
					"inputs": [
						{
							"internalType": "address",
							"name": "",
							"type": "address"
						}
					],
					"name": "firstTBNode",
					"outputs": [
						{
							"internalType": "uint256",
							"name": "",
							"type": "uint256"
						}
					],
					"stateMutability": "view",
					"type": "function"
				},
				{
					"inputs": [
						{
							"internalType": "address",
							"name": "_addr",
							"type": "address"
						},
						{
							"internalType": "uint256",
							"name": "_index",
							"type": "uint256"
						}
					],
					"name": "getTBNodeByIndex",
					"outputs": [
						{
							"components": [
								{
									"internalType": "uint256",
									"name": "timestamp",
									"type": "uint256"
								},
								{
									"internalType": "uint256",
									"name": "balance",
									"type": "uint256"
								},
								{
									"internalType": "uint256",
									"name": "next",
									"type": "uint256"
								}
							],
							"internalType": "struct TBNode",
							"name": "",
							"type": "tuple"
						}
					],
					"stateMutability": "view",
					"type": "function"
				},
				{
					"inputs": [
						{
							"internalType": "address",
							"name": "",
							"type": "address"
						}
					],
					"name": "lastTBNode",
					"outputs": [
						{
							"internalType": "uint256",
							"name": "",
							"type": "uint256"
						}
					],
					"stateMutability": "view",
					"type": "function"
				},
				{
					"inputs": [],
					"name": "owner",
					"outputs": [
						{
							"internalType": "address",
							"name": "",
							"type": "address"
						}
					],
					"stateMutability": "view",
					"type": "function"
				},
				{
					"inputs": [
						{
							"internalType": "address",
							"name": "_addr",
							"type": "address"
						},
						{
							"internalType": "uint256",
							"name": "_index",
							"type": "uint256"
						}
					],
					"name": "removeTBNodeByIndex",
					"outputs": [],
					"stateMutability": "nonpayable",
					"type": "function"
				},
				{
					"inputs": [],
					"name": "renounceOwnership",
					"outputs": [],
					"stateMutability": "nonpayable",
					"type": "function"
				},
				{
					"inputs": [
						{
							"internalType": "address",
							"name": "_addr",
							"type": "address"
						},
						{
							"internalType": "uint256",
							"name": "_index",
							"type": "uint256"
						}
					],
					"name": "setFirstTBNode",
					"outputs": [],
					"stateMutability": "nonpayable",
					"type": "function"
				},
				{
					"inputs": [
						{
							"internalType": "address",
							"name": "_addr",
							"type": "address"
						}
					],
					"name": "setFlowerConductor",
					"outputs": [],
					"stateMutability": "nonpayable",
					"type": "function"
				},
				{
					"inputs": [
						{
							"internalType": "address",
							"name": "_addr",
							"type": "address"
						},
						{
							"internalType": "uint256",
							"name": "_index",
							"type": "uint256"
						}
					],
					"name": "setLastTBNode",
					"outputs": [],
					"stateMutability": "nonpayable",
					"type": "function"
				},
				{
					"inputs": [
						{
							"internalType": "address",
							"name": "_addr",
							"type": "address"
						},
						{
							"internalType": "uint256",
							"name": "_amount",
							"type": "uint256"
						}
					],
					"name": "subtractBalance",
					"outputs": [],
					"stateMutability": "nonpayable",
					"type": "function"
				},
				{
					"inputs": [
						{
							"internalType": "address",
							"name": "_addr",
							"type": "address"
						},
						{
							"internalType": "uint256",
							"name": "_index",
							"type": "uint256"
						},
						{
							"internalType": "uint256",
							"name": "_amount",
							"type": "uint256"
						}
					],
					"name": "subtractTBNodeByIndexBalance",
					"outputs": [],
					"stateMutability": "nonpayable",
					"type": "function"
				},
				{
					"inputs": [
						{
							"internalType": "uint256",
							"name": "_amount",
							"type": "uint256"
						}
					],
					"name": "subtractTotalBurned",
					"outputs": [],
					"stateMutability": "nonpayable",
					"type": "function"
				},
				{
					"inputs": [
						{
							"internalType": "uint256",
							"name": "_amount",
							"type": "uint256"
						}
					],
					"name": "subtractTotalExpired",
					"outputs": [],
					"stateMutability": "nonpayable",
					"type": "function"
				},
				{
					"inputs": [
						{
							"internalType": "uint256",
							"name": "_amount",
							"type": "uint256"
						}
					],
					"name": "subtractTotalSupply",
					"outputs": [],
					"stateMutability": "nonpayable",
					"type": "function"
				},
				{
					"inputs": [
						{
							"internalType": "address",
							"name": "",
							"type": "address"
						},
						{
							"internalType": "uint256",
							"name": "",
							"type": "uint256"
						}
					],
					"name": "tbNodeByIndex",
					"outputs": [
						{
							"internalType": "uint256",
							"name": "timestamp",
							"type": "uint256"
						},
						{
							"internalType": "uint256",
							"name": "balance",
							"type": "uint256"
						},
						{
							"internalType": "uint256",
							"name": "next",
							"type": "uint256"
						}
					],
					"stateMutability": "view",
					"type": "function"
				},
				{
					"inputs": [
						{
							"internalType": "address",
							"name": "",
							"type": "address"
						}
					],
					"name": "totalBalances",
					"outputs": [
						{
							"internalType": "uint256",
							"name": "",
							"type": "uint256"
						}
					],
					"stateMutability": "view",
					"type": "function"
				},
				{
					"inputs": [],
					"name": "totalBurned",
					"outputs": [
						{
							"internalType": "uint256",
							"name": "",
							"type": "uint256"
						}
					],
					"stateMutability": "view",
					"type": "function"
				},
				{
					"inputs": [],
					"name": "totalExpired",
					"outputs": [
						{
							"internalType": "uint256",
							"name": "",
							"type": "uint256"
						}
					],
					"stateMutability": "view",
					"type": "function"
				},
				{
					"inputs": [],
					"name": "totalSupply",
					"outputs": [
						{
							"internalType": "uint256",
							"name": "",
							"type": "uint256"
						}
					],
					"stateMutability": "view",
					"type": "function"
				},
				{
					"inputs": [
						{
							"internalType": "address",
							"name": "newOwner",
							"type": "address"
						}
					],
					"name": "transferOwnership",
					"outputs": [],
					"stateMutability": "nonpayable",
					"type": "function"
				}
			],
			"devdoc": {
				"kind": "dev",
				"methods": {
					"owner()": {
						"details": "Returns the address of the current owner."
					},
					"renounceOwnership()": {
						"details": "Leaves the contract without owner. It will not be possible to call `onlyOwner` functions anymore. Can only be called by the current owner. NOTE: Renouncing ownership will leave the contract without an owner, thereby removing any functionality that is only available to the owner."
					},
					"transferOwnership(address)": {
						"details": "Transfers ownership of the contract to a new account (`newOwner`). Can only be called by the current owner."
					}
				},
				"version": 1
			},
			"evm": {
				"assembly": "    /* \"contracts/FlowerStorage.sol\":229:4967  contract FlowerStorage is Ownable {... */\n  mstore(0x40, 0x80)\n    /* \"contracts/FlowerStorage.sol\":339:448  constructor() {... */\n  callvalue\n  dup1\n  iszero\n  tag_1\n  jumpi\n  0x00\n  dup1\n  revert\ntag_1:\n  pop\n    /* \"@openzeppelin/contracts/access/Ownable.sol\":936:968  _transferOwnership(_msgSender()) */\n  tag_5\n    /* \"@openzeppelin/contracts/access/Ownable.sol\":955:967  _msgSender() */\n  tag_6\n    /* \"@openzeppelin/contracts/access/Ownable.sol\":955:965  _msgSender */\n  shl(0x20, tag_7)\n    /* \"@openzeppelin/contracts/access/Ownable.sol\":955:967  _msgSender() */\n  0x20\n  shr\n  jump\t// in\ntag_6:\n    /* \"@openzeppelin/contracts/access/Ownable.sol\":936:954  _transferOwnership */\n  shl(0x20, tag_8)\n    /* \"@openzeppelin/contracts/access/Ownable.sol\":936:968  _transferOwnership(_msgSender()) */\n  0x20\n  shr\n  jump\t// in\ntag_5:\n    /* \"contracts/FlowerStorage.sol\":412:441  transferOwnership(msg.sender) */\n  tag_10\n    /* \"contracts/FlowerStorage.sol\":430:440  msg.sender */\n  caller\n    /* \"contracts/FlowerStorage.sol\":412:429  transferOwnership */\n  shl(0x20, tag_11)\n    /* \"contracts/FlowerStorage.sol\":412:441  transferOwnership(msg.sender) */\n  0x20\n  shr\n  jump\t// in\ntag_10:\n    /* \"contracts/FlowerStorage.sol\":229:4967  contract FlowerStorage is Ownable {... */\n  jump(tag_12)\n    /* \"@openzeppelin/contracts/utils/Context.sol\":640:736  function _msgSender() internal view virtual returns (address) {... */\ntag_7:\n    /* \"@openzeppelin/contracts/utils/Context.sol\":693:700  address */\n  0x00\n    /* \"@openzeppelin/contracts/utils/Context.sol\":719:729  msg.sender */\n  caller\n    /* \"@openzeppelin/contracts/utils/Context.sol\":712:729  return msg.sender */\n  swap1\n  pop\n    /* \"@openzeppelin/contracts/utils/Context.sol\":640:736  function _msgSender() internal view virtual returns (address) {... */\n  swap1\n  jump\t// out\n    /* \"@openzeppelin/contracts/access/Ownable.sol\":2433:2620  function _transferOwnership(address newOwner) internal virtual {... */\ntag_8:\n    /* \"@openzeppelin/contracts/access/Ownable.sol\":2506:2522  address oldOwner */\n  0x00\n    /* \"@openzeppelin/contracts/access/Ownable.sol\":2525:2531  _owner */\n  dup1\n  0x00\n  swap1\n  sload\n  swap1\n  0x0100\n  exp\n  swap1\n  div\n  0xffffffffffffffffffffffffffffffffffffffff\n  and\n    /* \"@openzeppelin/contracts/access/Ownable.sol\":2506:2531  address oldOwner = _owner */\n  swap1\n  pop\n    /* \"@openzeppelin/contracts/access/Ownable.sol\":2550:2558  newOwner */\n  dup2\n    /* \"@openzeppelin/contracts/access/Ownable.sol\":2541:2547  _owner */\n  0x00\n  dup1\n    /* \"@openzeppelin/contracts/access/Ownable.sol\":2541:2558  _owner = newOwner */\n  0x0100\n  exp\n  dup2\n  sload\n  dup2\n  0xffffffffffffffffffffffffffffffffffffffff\n  mul\n  not\n  and\n  swap1\n  dup4\n  0xffffffffffffffffffffffffffffffffffffffff\n  and\n  mul\n  or\n  swap1\n  sstore\n  pop\n    /* \"@openzeppelin/contracts/access/Ownable.sol\":2604:2612  newOwner */\n  dup2\n    /* \"@openzeppelin/contracts/access/Ownable.sol\":2573:2613  OwnershipTransferred(oldOwner, newOwner) */\n  0xffffffffffffffffffffffffffffffffffffffff\n  and\n    /* \"@openzeppelin/contracts/access/Ownable.sol\":2594:2602  oldOwner */\n  dup2\n    /* \"@openzeppelin/contracts/access/Ownable.sol\":2573:2613  OwnershipTransferred(oldOwner, newOwner) */\n  0xffffffffffffffffffffffffffffffffffffffff\n  and\n  0x8be0079c531659141344cd1fd0a4f28419497f9722a3daafe3b4186f6b6457e0\n  mload(0x40)\n  mload(0x40)\n  dup1\n  swap2\n  sub\n  swap1\n  log3\n    /* \"@openzeppelin/contracts/access/Ownable.sol\":2433:2620  function _transferOwnership(address newOwner) internal virtual {... */\n  pop\n  pop\n  jump\t// out\n    /* \"@openzeppelin/contracts/access/Ownable.sol\":2081:2279  function transferOwnership(address newOwner) public virtual onlyOwner {... */\ntag_11:\n    /* \"@openzeppelin/contracts/access/Ownable.sol\":1094:1107  _checkOwner() */\n  tag_16\n    /* \"@openzeppelin/contracts/access/Ownable.sol\":1094:1105  _checkOwner */\n  shl(0x20, tag_17)\n    /* \"@openzeppelin/contracts/access/Ownable.sol\":1094:1107  _checkOwner() */\n  0x20\n  shr\n  jump\t// in\ntag_16:\n    /* \"@openzeppelin/contracts/access/Ownable.sol\":2189:2190  0 */\n  0x00\n    /* \"@openzeppelin/contracts/access/Ownable.sol\":2169:2191  newOwner != address(0) */\n  0xffffffffffffffffffffffffffffffffffffffff\n  and\n    /* \"@openzeppelin/contracts/access/Ownable.sol\":2169:2177  newOwner */\n  dup2\n    /* \"@openzeppelin/contracts/access/Ownable.sol\":2169:2191  newOwner != address(0) */\n  0xffffffffffffffffffffffffffffffffffffffff\n  and\n  eq\n  iszero\n    /* \"@openzeppelin/contracts/access/Ownable.sol\":2161:2234  require(newOwner != address(0), \"Ownable: new owner is the zero address\") */\n  tag_19\n  jumpi\n  mload(0x40)\n  0x08c379a000000000000000000000000000000000000000000000000000000000\n  dup2\n  mstore\n  0x04\n  add\n  tag_20\n  swap1\n  tag_21\n  jump\t// in\ntag_20:\n  mload(0x40)\n  dup1\n  swap2\n  sub\n  swap1\n  revert\ntag_19:\n    /* \"@openzeppelin/contracts/access/Ownable.sol\":2244:2272  _transferOwnership(newOwner) */\n  tag_22\n    /* \"@openzeppelin/contracts/access/Ownable.sol\":2263:2271  newOwner */\n  dup2\n    /* \"@openzeppelin/contracts/access/Ownable.sol\":2244:2262  _transferOwnership */\n  shl(0x20, tag_8)\n    /* \"@openzeppelin/contracts/access/Ownable.sol\":2244:2272  _transferOwnership(newOwner) */\n  0x20\n  shr\n  jump\t// in\ntag_22:\n    /* \"@openzeppelin/contracts/access/Ownable.sol\":2081:2279  function transferOwnership(address newOwner) public virtual onlyOwner {... */\n  pop\n  jump\t// out\n    /* \"@openzeppelin/contracts/access/Ownable.sol\":1359:1489  function _checkOwner() internal view virtual {... */\ntag_17:\n    /* \"@openzeppelin/contracts/access/Ownable.sol\":1433:1445  _msgSender() */\n  tag_24\n    /* \"@openzeppelin/contracts/access/Ownable.sol\":1433:1443  _msgSender */\n  shl(0x20, tag_7)\n    /* \"@openzeppelin/contracts/access/Ownable.sol\":1433:1445  _msgSender() */\n  0x20\n  shr\n  jump\t// in\ntag_24:\n    /* \"@openzeppelin/contracts/access/Ownable.sol\":1422:1445  owner() == _msgSender() */\n  0xffffffffffffffffffffffffffffffffffffffff\n  and\n    /* \"@openzeppelin/contracts/access/Ownable.sol\":1422:1429  owner() */\n  tag_25\n    /* \"@openzeppelin/contracts/access/Ownable.sol\":1422:1427  owner */\n  shl(0x20, tag_26)\n    /* \"@openzeppelin/contracts/access/Ownable.sol\":1422:1429  owner() */\n  0x20\n  shr\n  jump\t// in\ntag_25:\n    /* \"@openzeppelin/contracts/access/Ownable.sol\":1422:1445  owner() == _msgSender() */\n  0xffffffffffffffffffffffffffffffffffffffff\n  and\n  eq\n    /* \"@openzeppelin/contracts/access/Ownable.sol\":1414:1482  require(owner() == _msgSender(), \"Ownable: caller is not the owner\") */\n  tag_27\n  jumpi\n  mload(0x40)\n  0x08c379a000000000000000000000000000000000000000000000000000000000\n  dup2\n  mstore\n  0x04\n  add\n  tag_28\n  swap1\n  tag_29\n  jump\t// in\ntag_28:\n  mload(0x40)\n  dup1\n  swap2\n  sub\n  swap1\n  revert\ntag_27:\n    /* \"@openzeppelin/contracts/access/Ownable.sol\":1359:1489  function _checkOwner() internal view virtual {... */\n  jump\t// out\n    /* \"@openzeppelin/contracts/access/Ownable.sol\":1201:1286  function owner() public view virtual returns (address) {... */\ntag_26:\n    /* \"@openzeppelin/contracts/access/Ownable.sol\":1247:1254  address */\n  0x00\n    /* \"@openzeppelin/contracts/access/Ownable.sol\":1273:1279  _owner */\n  dup1\n  0x00\n  swap1\n  sload\n  swap1\n  0x0100\n  exp\n  swap1\n  div\n  0xffffffffffffffffffffffffffffffffffffffff\n  and\n    /* \"@openzeppelin/contracts/access/Ownable.sol\":1266:1279  return _owner */\n  swap1\n  pop\n    /* \"@openzeppelin/contracts/access/Ownable.sol\":1201:1286  function owner() public view virtual returns (address) {... */\n  swap1\n  jump\t// out\n    /* \"#utility.yul\":7:373   */\ntag_32:\n    /* \"#utility.yul\":149:152   */\n  0x00\n    /* \"#utility.yul\":170:237   */\n  tag_34\n    /* \"#utility.yul\":234:236   */\n  0x26\n    /* \"#utility.yul\":229:232   */\n  dup4\n    /* \"#utility.yul\":170:237   */\n  tag_35\n  jump\t// in\ntag_34:\n    /* \"#utility.yul\":163:237   */\n  swap2\n  pop\n    /* \"#utility.yul\":246:339   */\n  tag_36\n    /* \"#utility.yul\":335:338   */\n  dup3\n    /* \"#utility.yul\":246:339   */\n  tag_37\n  jump\t// in\ntag_36:\n    /* \"#utility.yul\":364:366   */\n  0x40\n    /* \"#utility.yul\":359:362   */\n  dup3\n    /* \"#utility.yul\":355:367   */\n  add\n    /* \"#utility.yul\":348:367   */\n  swap1\n  pop\n    /* \"#utility.yul\":153:373   */\n  swap2\n  swap1\n  pop\n  jump\t// out\n    /* \"#utility.yul\":379:745   */\ntag_38:\n    /* \"#utility.yul\":521:524   */\n  0x00\n    /* \"#utility.yul\":542:609   */\n  tag_40\n    /* \"#utility.yul\":606:608   */\n  0x20\n    /* \"#utility.yul\":601:604   */\n  dup4\n    /* \"#utility.yul\":542:609   */\n  tag_35\n  jump\t// in\ntag_40:\n    /* \"#utility.yul\":535:609   */\n  swap2\n  pop\n    /* \"#utility.yul\":618:711   */\n  tag_41\n    /* \"#utility.yul\":707:710   */\n  dup3\n    /* \"#utility.yul\":618:711   */\n  tag_42\n  jump\t// in\ntag_41:\n    /* \"#utility.yul\":736:738   */\n  0x20\n    /* \"#utility.yul\":731:734   */\n  dup3\n    /* \"#utility.yul\":727:739   */\n  add\n    /* \"#utility.yul\":720:739   */\n  swap1\n  pop\n    /* \"#utility.yul\":525:745   */\n  swap2\n  swap1\n  pop\n  jump\t// out\n    /* \"#utility.yul\":751:1170   */\ntag_21:\n    /* \"#utility.yul\":917:921   */\n  0x00\n    /* \"#utility.yul\":955:957   */\n  0x20\n    /* \"#utility.yul\":944:953   */\n  dup3\n    /* \"#utility.yul\":940:958   */\n  add\n    /* \"#utility.yul\":932:958   */\n  swap1\n  pop\n    /* \"#utility.yul\":1004:1013   */\n  dup2\n    /* \"#utility.yul\":998:1002   */\n  dup2\n    /* \"#utility.yul\":994:1014   */\n  sub\n    /* \"#utility.yul\":990:991   */\n  0x00\n    /* \"#utility.yul\":979:988   */\n  dup4\n    /* \"#utility.yul\":975:992   */\n  add\n    /* \"#utility.yul\":968:1015   */\n  mstore\n    /* \"#utility.yul\":1032:1163   */\n  tag_44\n    /* \"#utility.yul\":1158:1162   */\n  dup2\n    /* \"#utility.yul\":1032:1163   */\n  tag_32\n  jump\t// in\ntag_44:\n    /* \"#utility.yul\":1024:1163   */\n  swap1\n  pop\n    /* \"#utility.yul\":922:1170   */\n  swap2\n  swap1\n  pop\n  jump\t// out\n    /* \"#utility.yul\":1176:1595   */\ntag_29:\n    /* \"#utility.yul\":1342:1346   */\n  0x00\n    /* \"#utility.yul\":1380:1382   */\n  0x20\n    /* \"#utility.yul\":1369:1378   */\n  dup3\n    /* \"#utility.yul\":1365:1383   */\n  add\n    /* \"#utility.yul\":1357:1383   */\n  swap1\n  pop\n    /* \"#utility.yul\":1429:1438   */\n  dup2\n    /* \"#utility.yul\":1423:1427   */\n  dup2\n    /* \"#utility.yul\":1419:1439   */\n  sub\n    /* \"#utility.yul\":1415:1416   */\n  0x00\n    /* \"#utility.yul\":1404:1413   */\n  dup4\n    /* \"#utility.yul\":1400:1417   */\n  add\n    /* \"#utility.yul\":1393:1440   */\n  mstore\n    /* \"#utility.yul\":1457:1588   */\n  tag_46\n    /* \"#utility.yul\":1583:1587   */\n  dup2\n    /* \"#utility.yul\":1457:1588   */\n  tag_38\n  jump\t// in\ntag_46:\n    /* \"#utility.yul\":1449:1588   */\n  swap1\n  pop\n    /* \"#utility.yul\":1347:1595   */\n  swap2\n  swap1\n  pop\n  jump\t// out\n    /* \"#utility.yul\":1601:1770   */\ntag_35:\n    /* \"#utility.yul\":1685:1696   */\n  0x00\n    /* \"#utility.yul\":1719:1725   */\n  dup3\n    /* \"#utility.yul\":1714:1717   */\n  dup3\n    /* \"#utility.yul\":1707:1726   */\n  mstore\n    /* \"#utility.yul\":1759:1763   */\n  0x20\n    /* \"#utility.yul\":1754:1757   */\n  dup3\n    /* \"#utility.yul\":1750:1764   */\n  add\n    /* \"#utility.yul\":1735:1764   */\n  swap1\n  pop\n    /* \"#utility.yul\":1697:1770   */\n  swap3\n  swap2\n  pop\n  pop\n  jump\t// out\n    /* \"#utility.yul\":1776:2001   */\ntag_37:\n    /* \"#utility.yul\":1916:1950   */\n  0x4f776e61626c653a206e6577206f776e657220697320746865207a65726f2061\n    /* \"#utility.yul\":1912:1913   */\n  0x00\n    /* \"#utility.yul\":1904:1910   */\n  dup3\n    /* \"#utility.yul\":1900:1914   */\n  add\n    /* \"#utility.yul\":1893:1951   */\n  mstore\n    /* \"#utility.yul\":1985:1993   */\n  0x6464726573730000000000000000000000000000000000000000000000000000\n    /* \"#utility.yul\":1980:1982   */\n  0x20\n    /* \"#utility.yul\":1972:1978   */\n  dup3\n    /* \"#utility.yul\":1968:1983   */\n  add\n    /* \"#utility.yul\":1961:1994   */\n  mstore\n    /* \"#utility.yul\":1882:2001   */\n  pop\n  jump\t// out\n    /* \"#utility.yul\":2007:2189   */\ntag_42:\n    /* \"#utility.yul\":2147:2181   */\n  0x4f776e61626c653a2063616c6c6572206973206e6f7420746865206f776e6572\n    /* \"#utility.yul\":2143:2144   */\n  0x00\n    /* \"#utility.yul\":2135:2141   */\n  dup3\n    /* \"#utility.yul\":2131:2145   */\n  add\n    /* \"#utility.yul\":2124:2182   */\n  mstore\n    /* \"#utility.yul\":2113:2189   */\n  pop\n  jump\t// out\n    /* \"contracts/FlowerStorage.sol\":229:4967  contract FlowerStorage is Ownable {... */\ntag_12:\n  dataSize(sub_0)\n  dup1\n  dataOffset(sub_0)\n  0x00\n  codecopy\n  0x00\n  return\nstop\n\nsub_0: assembly {\n        /* \"contracts/FlowerStorage.sol\":229:4967  contract FlowerStorage is Ownable {... */\n      mstore(0x40, 0x80)\n      callvalue\n      dup1\n      iszero\n      tag_1\n      jumpi\n      0x00\n      dup1\n      revert\n    tag_1:\n      pop\n      jumpi(tag_2, lt(calldatasize, 0x04))\n      shr(0xe0, calldataload(0x00))\n      dup1\n      0xb9ceb9ef\n      gt\n      tag_28\n      jumpi\n      dup1\n      0xd89135cd\n      gt\n      tag_29\n      jumpi\n      dup1\n      0xee650665\n      gt\n      tag_30\n      jumpi\n      dup1\n      0xee650665\n      eq\n      tag_24\n      jumpi\n      dup1\n      0xefe54dd5\n      eq\n      tag_25\n      jumpi\n      dup1\n      0xf2fde38b\n      eq\n      tag_26\n      jumpi\n      dup1\n      0xf9476278\n      eq\n      tag_27\n      jumpi\n      jump(tag_2)\n    tag_30:\n      dup1\n      0xd89135cd\n      eq\n      tag_21\n      jumpi\n      dup1\n      0xd89b5ed6\n      eq\n      tag_22\n      jumpi\n      dup1\n      0xe468688e\n      eq\n      tag_23\n      jumpi\n      jump(tag_2)\n    tag_29:\n      dup1\n      0xb9ceb9ef\n      eq\n      tag_15\n      jumpi\n      dup1\n      0xbaafd2d8\n      eq\n      tag_16\n      jumpi\n      dup1\n      0xc3913991\n      eq\n      tag_17\n      jumpi\n      dup1\n      0xce5e9365\n      eq\n      tag_18\n      jumpi\n      dup1\n      0xcfd4f18a\n      eq\n      tag_19\n      jumpi\n      dup1\n      0xd53045c8\n      eq\n      tag_20\n      jumpi\n      jump(tag_2)\n    tag_28:\n      dup1\n      0x7ab436f8\n      gt\n      tag_31\n      jumpi\n      dup1\n      0x7ab436f8\n      eq\n      tag_9\n      jumpi\n      dup1\n      0x85393a8e\n      eq\n      tag_10\n      jumpi\n      dup1\n      0x8da5cb5b\n      eq\n      tag_11\n      jumpi\n      dup1\n      0x93f0f55a\n      eq\n      tag_12\n      jumpi\n      dup1\n      0xaee9c872\n      eq\n      tag_13\n      jumpi\n      dup1\n      0xb1398144\n      eq\n      tag_14\n      jumpi\n      jump(tag_2)\n    tag_31:\n      dup1\n      0x18160ddd\n      eq\n      tag_3\n      jumpi\n      dup1\n      0x21e5383a\n      eq\n      tag_4\n      jumpi\n      dup1\n      0x4b9ecd54\n      eq\n      tag_5\n      jumpi\n      dup1\n      0x4eb84791\n      eq\n      tag_6\n      jumpi\n      dup1\n      0x6e76c3cf\n      eq\n      tag_7\n      jumpi\n      dup1\n      0x715018a6\n      eq\n      tag_8\n      jumpi\n    tag_2:\n      0x00\n      dup1\n      revert\n        /* \"contracts/FlowerStorage.sol\":891:917  uint256 public totalSupply */\n    tag_3:\n      tag_32\n      tag_33\n      jump\t// in\n    tag_32:\n      mload(0x40)\n      tag_34\n      swap2\n      swap1\n      tag_35\n      jump\t// in\n    tag_34:\n      mload(0x40)\n      dup1\n      swap2\n      sub\n      swap1\n      return\n        /* \"contracts/FlowerStorage.sol\":1926:2055  function addBalance(address _addr, uint256 _amount) external onlyFlowerConductor {... */\n    tag_4:\n      tag_36\n      0x04\n      dup1\n      calldatasize\n      sub\n      dup2\n      add\n      swap1\n      tag_37\n      swap2\n      swap1\n      tag_38\n      jump\t// in\n    tag_37:\n      tag_39\n      jump\t// in\n    tag_36:\n      stop\n        /* \"contracts/FlowerStorage.sol\":2340:2454  function subtractTotalSupply(uint256 _amount) external onlyFlowerConductor {... */\n    tag_5:\n      tag_40\n      0x04\n      dup1\n      calldatasize\n      sub\n      dup2\n      add\n      swap1\n      tag_41\n      swap2\n      swap1\n      tag_42\n      jump\t// in\n    tag_41:\n      tag_43\n      jump\t// in\n    tag_40:\n      stop\n        /* \"contracts/FlowerStorage.sol\":3951:4965  function addNode(address addr, uint256 timestamp, uint256 balance) public onlyFlowerConductor {... */\n    tag_6:\n      tag_44\n      0x04\n      dup1\n      calldatasize\n      sub\n      dup2\n      add\n      swap1\n      tag_45\n      swap2\n      swap1\n      tag_46\n      jump\t// in\n    tag_45:\n      tag_47\n      jump\t// in\n    tag_44:\n      stop\n        /* \"contracts/FlowerStorage.sol\":1258:1304  mapping(address => uint256) public firstTBNode */\n    tag_7:\n      tag_48\n      0x04\n      dup1\n      calldatasize\n      sub\n      dup2\n      add\n      swap1\n      tag_49\n      swap2\n      swap1\n      tag_50\n      jump\t// in\n    tag_49:\n      tag_51\n      jump\t// in\n    tag_48:\n      mload(0x40)\n      tag_52\n      swap2\n      swap1\n      tag_35\n      jump\t// in\n    tag_52:\n      mload(0x40)\n      dup1\n      swap2\n      sub\n      swap1\n      return\n        /* \"@openzeppelin/contracts/access/Ownable.sol\":1831:1932  function renounceOwnership() public virtual onlyOwner {... */\n    tag_8:\n      tag_53\n      tag_54\n      jump\t// in\n    tag_53:\n      stop\n        /* \"contracts/FlowerStorage.sol\":3004:3130  function setFirstTBNode(address _addr, uint256 _index) public onlyFlowerConductor {... */\n    tag_9:\n      tag_55\n      0x04\n      dup1\n      calldatasize\n      sub\n      dup2\n      add\n      swap1\n      tag_56\n      swap2\n      swap1\n      tag_38\n      jump\t// in\n    tag_56:\n      tag_57\n      jump\t// in\n    tag_55:\n      stop\n        /* \"contracts/FlowerStorage.sol\":3158:3282  function setLastTBNode(address _addr, uint256 _index) public onlyFlowerConductor {... */\n    tag_10:\n      tag_58\n      0x04\n      dup1\n      calldatasize\n      sub\n      dup2\n      add\n      swap1\n      tag_59\n      swap2\n      swap1\n      tag_38\n      jump\t// in\n    tag_59:\n      tag_60\n      jump\t// in\n    tag_58:\n      stop\n        /* \"@openzeppelin/contracts/access/Ownable.sol\":1201:1286  function owner() public view virtual returns (address) {... */\n    tag_11:\n      tag_61\n      tag_62\n      jump\t// in\n    tag_61:\n      mload(0x40)\n      tag_63\n      swap2\n      swap1\n      tag_64\n      jump\t// in\n    tag_63:\n      mload(0x40)\n      dup1\n      swap2\n      sub\n      swap1\n      return\n        /* \"contracts/FlowerStorage.sol\":2746:2855  function addTotalBurned(uint256 _amount) external onlyFlowerConductor {... */\n    tag_12:\n      tag_65\n      0x04\n      dup1\n      calldatasize\n      sub\n      dup2\n      add\n      swap1\n      tag_66\n      swap2\n      swap1\n      tag_42\n      jump\t// in\n    tag_66:\n      tag_67\n      jump\t// in\n    tag_65:\n      stop\n        /* \"contracts/FlowerStorage.sol\":790:841  mapping ( address => uint256 ) public totalBalances */\n    tag_13:\n      tag_68\n      0x04\n      dup1\n      calldatasize\n      sub\n      dup2\n      add\n      swap1\n      tag_69\n      swap2\n      swap1\n      tag_50\n      jump\t// in\n    tag_69:\n      tag_70\n      jump\t// in\n    tag_68:\n      mload(0x40)\n      tag_71\n      swap2\n      swap1\n      tag_35\n      jump\t// in\n    tag_71:\n      mload(0x40)\n      dup1\n      swap2\n      sub\n      swap1\n      return\n        /* \"contracts/FlowerStorage.sol\":3313:3458  function getTBNodeByIndex(address _addr, uint256 _index) public view returns (TBNode memory) {... */\n    tag_14:\n      tag_72\n      0x04\n      dup1\n      calldatasize\n      sub\n      dup2\n      add\n      swap1\n      tag_73\n      swap2\n      swap1\n      tag_38\n      jump\t// in\n    tag_73:\n      tag_74\n      jump\t// in\n    tag_72:\n      mload(0x40)\n      tag_75\n      swap2\n      swap1\n      tag_76\n      jump\t// in\n    tag_75:\n      mload(0x40)\n      dup1\n      swap2\n      sub\n      swap1\n      return\n        /* \"contracts/FlowerStorage.sol\":1644:1894  function setFlowerConductor(address _addr) public onlyOwner {... */\n    tag_15:\n      tag_77\n      0x04\n      dup1\n      calldatasize\n      sub\n      dup2\n      add\n      swap1\n      tag_78\n      swap2\n      swap1\n      tag_50\n      jump\t// in\n    tag_78:\n      tag_79\n      jump\t// in\n    tag_77:\n      stop\n        /* \"contracts/FlowerStorage.sol\":1378:1423  mapping(address => uint256) public lastTBNode */\n    tag_16:\n      tag_80\n      0x04\n      dup1\n      calldatasize\n      sub\n      dup2\n      add\n      swap1\n      tag_81\n      swap2\n      swap1\n      tag_50\n      jump\t// in\n    tag_81:\n      tag_82\n      jump\t// in\n    tag_80:\n      mload(0x40)\n      tag_83\n      swap2\n      swap1\n      tag_35\n      jump\t// in\n    tag_83:\n      mload(0x40)\n      dup1\n      swap2\n      sub\n      swap1\n      return\n        /* \"contracts/FlowerStorage.sol\":2861:2975  function subtractTotalBurned(uint256 _amount) external onlyFlowerConductor {... */\n    tag_17:\n      tag_84\n      0x04\n      dup1\n      calldatasize\n      sub\n      dup2\n      add\n      swap1\n      tag_85\n      swap2\n      swap1\n      tag_42\n      jump\t// in\n    tag_85:\n      tag_86\n      jump\t// in\n    tag_84:\n      stop\n        /* \"contracts/FlowerStorage.sol\":965:992  uint256 public totalExpired */\n    tag_18:\n      tag_87\n      tag_88\n      jump\t// in\n    tag_87:\n      mload(0x40)\n      tag_89\n      swap2\n      swap1\n      tag_35\n      jump\t// in\n    tag_89:\n      mload(0x40)\n      dup1\n      swap2\n      sub\n      swap1\n      return\n        /* \"contracts/FlowerStorage.sol\":2061:2195  function subtractBalance(address _addr, uint256 _amount) external onlyFlowerConductor {... */\n    tag_19:\n      tag_90\n      0x04\n      dup1\n      calldatasize\n      sub\n      dup2\n      add\n      swap1\n      tag_91\n      swap2\n      swap1\n      tag_38\n      jump\t// in\n    tag_91:\n      tag_92\n      jump\t// in\n    tag_90:\n      stop\n        /* \"contracts/FlowerStorage.sol\":2484:2595  function addTotalExpired(uint256 _amount) external onlyFlowerConductor {... */\n    tag_20:\n      tag_93\n      0x04\n      dup1\n      calldatasize\n      sub\n      dup2\n      add\n      swap1\n      tag_94\n      swap2\n      swap1\n      tag_42\n      jump\t// in\n    tag_94:\n      tag_95\n      jump\t// in\n    tag_93:\n      stop\n        /* \"contracts/FlowerStorage.sol\":1039:1065  uint256 public totalBurned */\n    tag_21:\n      tag_96\n      tag_97\n      jump\t// in\n    tag_96:\n      mload(0x40)\n      tag_98\n      swap2\n      swap1\n      tag_35\n      jump\t// in\n    tag_98:\n      mload(0x40)\n      dup1\n      swap2\n      sub\n      swap1\n      return\n        /* \"contracts/FlowerStorage.sol\":3674:3879  function removeTBNodeByIndex(address _addr, uint256 _index) external onlyFlowerConductor {... */\n    tag_22:\n      tag_99\n      0x04\n      dup1\n      calldatasize\n      sub\n      dup2\n      add\n      swap1\n      tag_100\n      swap2\n      swap1\n      tag_38\n      jump\t// in\n    tag_100:\n      tag_101\n      jump\t// in\n    tag_99:\n      stop\n        /* \"contracts/FlowerStorage.sol\":2225:2334  function addTotalSupply(uint256 _amount) external onlyFlowerConductor {... */\n    tag_23:\n      tag_102\n      0x04\n      dup1\n      calldatasize\n      sub\n      dup2\n      add\n      swap1\n      tag_103\n      swap2\n      swap1\n      tag_42\n      jump\t// in\n    tag_103:\n      tag_104\n      jump\t// in\n    tag_102:\n      stop\n        /* \"contracts/FlowerStorage.sol\":3489:3668  function subtractTBNodeByIndexBalance(address _addr, uint256 _index, uint256 _amount) external onlyFlowerConductor {... */\n    tag_24:\n      tag_105\n      0x04\n      dup1\n      calldatasize\n      sub\n      dup2\n      add\n      swap1\n      tag_106\n      swap2\n      swap1\n      tag_46\n      jump\t// in\n    tag_106:\n      tag_107\n      jump\t// in\n    tag_105:\n      stop\n        /* \"contracts/FlowerStorage.sol\":1471:1538  mapping(address => mapping(uint256 => TBNode)) public tbNodeByIndex */\n    tag_25:\n      tag_108\n      0x04\n      dup1\n      calldatasize\n      sub\n      dup2\n      add\n      swap1\n      tag_109\n      swap2\n      swap1\n      tag_38\n      jump\t// in\n    tag_109:\n      tag_110\n      jump\t// in\n    tag_108:\n      mload(0x40)\n      tag_111\n      swap4\n      swap3\n      swap2\n      swap1\n      tag_112\n      jump\t// in\n    tag_111:\n      mload(0x40)\n      dup1\n      swap2\n      sub\n      swap1\n      return\n        /* \"@openzeppelin/contracts/access/Ownable.sol\":2081:2279  function transferOwnership(address newOwner) public virtual onlyOwner {... */\n    tag_26:\n      tag_113\n      0x04\n      dup1\n      calldatasize\n      sub\n      dup2\n      add\n      swap1\n      tag_114\n      swap2\n      swap1\n      tag_50\n      jump\t// in\n    tag_114:\n      tag_115\n      jump\t// in\n    tag_113:\n      stop\n        /* \"contracts/FlowerStorage.sol\":2601:2717  function subtractTotalExpired(uint256 _amount) external onlyFlowerConductor {... */\n    tag_27:\n      tag_116\n      0x04\n      dup1\n      calldatasize\n      sub\n      dup2\n      add\n      swap1\n      tag_117\n      swap2\n      swap1\n      tag_42\n      jump\t// in\n    tag_117:\n      tag_118\n      jump\t// in\n    tag_116:\n      stop\n        /* \"contracts/FlowerStorage.sol\":891:917  uint256 public totalSupply */\n    tag_33:\n      sload(0x03)\n      dup2\n      jump\t// out\n        /* \"contracts/FlowerStorage.sol\":1926:2055  function addBalance(address _addr, uint256 _amount) external onlyFlowerConductor {... */\n    tag_39:\n        /* \"contracts/FlowerStorage.sol\":589:604  flowerConductor */\n      0x01\n      0x00\n      swap1\n      sload\n      swap1\n      0x0100\n      exp\n      swap1\n      div\n      0xffffffffffffffffffffffffffffffffffffffff\n      and\n        /* \"contracts/FlowerStorage.sol\":575:604  msg.sender == flowerConductor */\n      0xffffffffffffffffffffffffffffffffffffffff\n      and\n        /* \"contracts/FlowerStorage.sol\":575:585  msg.sender */\n      caller\n        /* \"contracts/FlowerStorage.sol\":575:604  msg.sender == flowerConductor */\n      0xffffffffffffffffffffffffffffffffffffffff\n      and\n      eq\n        /* \"contracts/FlowerStorage.sol\":567:649  require(msg.sender == flowerConductor, \"Only flower conductor can perform action\") */\n      tag_120\n      jumpi\n      mload(0x40)\n      0x08c379a000000000000000000000000000000000000000000000000000000000\n      dup2\n      mstore\n      0x04\n      add\n      tag_121\n      swap1\n      tag_122\n      jump\t// in\n    tag_121:\n      mload(0x40)\n      dup1\n      swap2\n      sub\n      swap1\n      revert\n    tag_120:\n        /* \"contracts/FlowerStorage.sol\":2041:2048  _amount */\n      dup1\n        /* \"contracts/FlowerStorage.sol\":2017:2030  totalBalances */\n      0x02\n        /* \"contracts/FlowerStorage.sol\":2017:2037  totalBalances[_addr] */\n      0x00\n        /* \"contracts/FlowerStorage.sol\":2031:2036  _addr */\n      dup5\n        /* \"contracts/FlowerStorage.sol\":2017:2037  totalBalances[_addr] */\n      0xffffffffffffffffffffffffffffffffffffffff\n      and\n      0xffffffffffffffffffffffffffffffffffffffff\n      and\n      dup2\n      mstore\n      0x20\n      add\n      swap1\n      dup2\n      mstore\n      0x20\n      add\n      0x00\n      keccak256\n      0x00\n        /* \"contracts/FlowerStorage.sol\":2017:2048  totalBalances[_addr] += _amount */\n      dup3\n      dup3\n      sload\n      tag_124\n      swap2\n      swap1\n      tag_125\n      jump\t// in\n    tag_124:\n      swap3\n      pop\n      pop\n      dup2\n      swap1\n      sstore\n      pop\n        /* \"contracts/FlowerStorage.sol\":1926:2055  function addBalance(address _addr, uint256 _amount) external onlyFlowerConductor {... */\n      pop\n      pop\n      jump\t// out\n        /* \"contracts/FlowerStorage.sol\":2340:2454  function subtractTotalSupply(uint256 _amount) external onlyFlowerConductor {... */\n    tag_43:\n        /* \"contracts/FlowerStorage.sol\":589:604  flowerConductor */\n      0x01\n      0x00\n      swap1\n      sload\n      swap1\n      0x0100\n      exp\n      swap1\n      div\n      0xffffffffffffffffffffffffffffffffffffffff\n      and\n        /* \"contracts/FlowerStorage.sol\":575:604  msg.sender == flowerConductor */\n      0xffffffffffffffffffffffffffffffffffffffff\n      and\n        /* \"contracts/FlowerStorage.sol\":575:585  msg.sender */\n      caller\n        /* \"contracts/FlowerStorage.sol\":575:604  msg.sender == flowerConductor */\n      0xffffffffffffffffffffffffffffffffffffffff\n      and\n      eq\n        /* \"contracts/FlowerStorage.sol\":567:649  require(msg.sender == flowerConductor, \"Only flower conductor can perform action\") */\n      tag_127\n      jumpi\n      mload(0x40)\n      0x08c379a000000000000000000000000000000000000000000000000000000000\n      dup2\n      mstore\n      0x04\n      add\n      tag_128\n      swap1\n      tag_122\n      jump\t// in\n    tag_128:\n      mload(0x40)\n      dup1\n      swap2\n      sub\n      swap1\n      revert\n    tag_127:\n        /* \"contracts/FlowerStorage.sol\":2440:2447  _amount */\n      dup1\n        /* \"contracts/FlowerStorage.sol\":2425:2436  totalSupply */\n      0x03\n      0x00\n        /* \"contracts/FlowerStorage.sol\":2425:2447  totalSupply -= _amount */\n      dup3\n      dup3\n      sload\n      tag_130\n      swap2\n      swap1\n      tag_131\n      jump\t// in\n    tag_130:\n      swap3\n      pop\n      pop\n      dup2\n      swap1\n      sstore\n      pop\n        /* \"contracts/FlowerStorage.sol\":2340:2454  function subtractTotalSupply(uint256 _amount) external onlyFlowerConductor {... */\n      pop\n      jump\t// out\n        /* \"contracts/FlowerStorage.sol\":3951:4965  function addNode(address addr, uint256 timestamp, uint256 balance) public onlyFlowerConductor {... */\n    tag_47:\n        /* \"contracts/FlowerStorage.sol\":589:604  flowerConductor */\n      0x01\n      0x00\n      swap1\n      sload\n      swap1\n      0x0100\n      exp\n      swap1\n      div\n      0xffffffffffffffffffffffffffffffffffffffff\n      and\n        /* \"contracts/FlowerStorage.sol\":575:604  msg.sender == flowerConductor */\n      0xffffffffffffffffffffffffffffffffffffffff\n      and\n        /* \"contracts/FlowerStorage.sol\":575:585  msg.sender */\n      caller\n        /* \"contracts/FlowerStorage.sol\":575:604  msg.sender == flowerConductor */\n      0xffffffffffffffffffffffffffffffffffffffff\n      and\n      eq\n        /* \"contracts/FlowerStorage.sol\":567:649  require(msg.sender == flowerConductor, \"Only flower conductor can perform action\") */\n      tag_133\n      jumpi\n      mload(0x40)\n      0x08c379a000000000000000000000000000000000000000000000000000000000\n      dup2\n      mstore\n      0x04\n      add\n      tag_134\n      swap1\n      tag_122\n      jump\t// in\n    tag_134:\n      mload(0x40)\n      dup1\n      swap2\n      sub\n      swap1\n      revert\n    tag_133:\n        /* \"contracts/FlowerStorage.sol\":4086:4107  TBNode memory newNode */\n      0x00\n        /* \"contracts/FlowerStorage.sol\":4110:4213  TBNode({... */\n      mload(0x40)\n      dup1\n      0x60\n      add\n      0x40\n      mstore\n      dup1\n        /* \"contracts/FlowerStorage.sol\":4142:4151  timestamp */\n      dup5\n        /* \"contracts/FlowerStorage.sol\":4110:4213  TBNode({... */\n      dup2\n      mstore\n      0x20\n      add\n        /* \"contracts/FlowerStorage.sol\":4174:4181  balance */\n      dup4\n        /* \"contracts/FlowerStorage.sol\":4110:4213  TBNode({... */\n      dup2\n      mstore\n      0x20\n      add\n        /* \"contracts/FlowerStorage.sol\":4201:4202  0 */\n      0x00\n        /* \"contracts/FlowerStorage.sol\":4110:4213  TBNode({... */\n      dup2\n      mstore\n      pop\n        /* \"contracts/FlowerStorage.sol\":4086:4213  TBNode memory newNode = TBNode({... */\n      swap1\n      pop\n        /* \"contracts/FlowerStorage.sol\":4285:4302  uint256 lastIndex */\n      0x00\n        /* \"contracts/FlowerStorage.sol\":4305:4315  lastTBNode */\n      0x07\n        /* \"contracts/FlowerStorage.sol\":4305:4321  lastTBNode[addr] */\n      0x00\n        /* \"contracts/FlowerStorage.sol\":4316:4320  addr */\n      dup7\n        /* \"contracts/FlowerStorage.sol\":4305:4321  lastTBNode[addr] */\n      0xffffffffffffffffffffffffffffffffffffffff\n      and\n      0xffffffffffffffffffffffffffffffffffffffff\n      and\n      dup2\n      mstore\n      0x20\n      add\n      swap1\n      dup2\n      mstore\n      0x20\n      add\n      0x00\n      keccak256\n      sload\n        /* \"contracts/FlowerStorage.sol\":4285:4321  uint256 lastIndex = lastTBNode[addr] */\n      swap1\n      pop\n        /* \"contracts/FlowerStorage.sol\":4408:4424  uint256 newIndex */\n      0x00\n        /* \"contracts/FlowerStorage.sol\":4439:4440  1 */\n      0x01\n        /* \"contracts/FlowerStorage.sol\":4427:4436  lastIndex */\n      dup3\n        /* \"contracts/FlowerStorage.sol\":4427:4440  lastIndex + 1 */\n      tag_136\n      swap2\n      swap1\n      tag_125\n      jump\t// in\n    tag_136:\n        /* \"contracts/FlowerStorage.sol\":4408:4440  uint256 newIndex = lastIndex + 1 */\n      swap1\n      pop\n        /* \"contracts/FlowerStorage.sol\":4482:4489  newNode */\n      dup3\n        /* \"contracts/FlowerStorage.sol\":4450:4463  tbNodeByIndex */\n      0x08\n        /* \"contracts/FlowerStorage.sol\":4450:4469  tbNodeByIndex[addr] */\n      0x00\n        /* \"contracts/FlowerStorage.sol\":4464:4468  addr */\n      dup9\n        /* \"contracts/FlowerStorage.sol\":4450:4469  tbNodeByIndex[addr] */\n      0xffffffffffffffffffffffffffffffffffffffff\n      and\n      0xffffffffffffffffffffffffffffffffffffffff\n      and\n      dup2\n      mstore\n      0x20\n      add\n      swap1\n      dup2\n      mstore\n      0x20\n      add\n      0x00\n      keccak256\n        /* \"contracts/FlowerStorage.sol\":4450:4479  tbNodeByIndex[addr][newIndex] */\n      0x00\n        /* \"contracts/FlowerStorage.sol\":4470:4478  newIndex */\n      dup4\n        /* \"contracts/FlowerStorage.sol\":4450:4479  tbNodeByIndex[addr][newIndex] */\n      dup2\n      mstore\n      0x20\n      add\n      swap1\n      dup2\n      mstore\n      0x20\n      add\n      0x00\n      keccak256\n        /* \"contracts/FlowerStorage.sol\":4450:4489  tbNodeByIndex[addr][newIndex] = newNode */\n      0x00\n      dup3\n      add\n      mload\n      dup2\n      0x00\n      add\n      sstore\n      0x20\n      dup3\n      add\n      mload\n      dup2\n      0x01\n      add\n      sstore\n      0x40\n      dup3\n      add\n      mload\n      dup2\n      0x02\n      add\n      sstore\n      swap1\n      pop\n      pop\n        /* \"contracts/FlowerStorage.sol\":4601:4602  0 */\n      0x00\n        /* \"contracts/FlowerStorage.sol\":4588:4597  lastIndex */\n      dup3\n        /* \"contracts/FlowerStorage.sol\":4588:4602  lastIndex != 0 */\n      eq\n        /* \"contracts/FlowerStorage.sol\":4584:4675  if (lastIndex != 0) {... */\n      tag_137\n      jumpi\n        /* \"contracts/FlowerStorage.sol\":4656:4664  newIndex */\n      dup1\n        /* \"contracts/FlowerStorage.sol\":4618:4631  tbNodeByIndex */\n      0x08\n        /* \"contracts/FlowerStorage.sol\":4618:4637  tbNodeByIndex[addr] */\n      0x00\n        /* \"contracts/FlowerStorage.sol\":4632:4636  addr */\n      dup9\n        /* \"contracts/FlowerStorage.sol\":4618:4637  tbNodeByIndex[addr] */\n      0xffffffffffffffffffffffffffffffffffffffff\n      and\n      0xffffffffffffffffffffffffffffffffffffffff\n      and\n      dup2\n      mstore\n      0x20\n      add\n      swap1\n      dup2\n      mstore\n      0x20\n      add\n      0x00\n      keccak256\n        /* \"contracts/FlowerStorage.sol\":4618:4648  tbNodeByIndex[addr][lastIndex] */\n      0x00\n        /* \"contracts/FlowerStorage.sol\":4638:4647  lastIndex */\n      dup5\n        /* \"contracts/FlowerStorage.sol\":4618:4648  tbNodeByIndex[addr][lastIndex] */\n      dup2\n      mstore\n      0x20\n      add\n      swap1\n      dup2\n      mstore\n      0x20\n      add\n      0x00\n      keccak256\n        /* \"contracts/FlowerStorage.sol\":4618:4653  tbNodeByIndex[addr][lastIndex].next */\n      0x02\n      add\n        /* \"contracts/FlowerStorage.sol\":4618:4664  tbNodeByIndex[addr][lastIndex].next = newIndex */\n      dup2\n      swap1\n      sstore\n      pop\n        /* \"contracts/FlowerStorage.sol\":4584:4675  if (lastIndex != 0) {... */\n    tag_137:\n        /* \"contracts/FlowerStorage.sol\":4770:4778  newIndex */\n      dup1\n        /* \"contracts/FlowerStorage.sol\":4751:4761  lastTBNode */\n      0x07\n        /* \"contracts/FlowerStorage.sol\":4751:4767  lastTBNode[addr] */\n      0x00\n        /* \"contracts/FlowerStorage.sol\":4762:4766  addr */\n      dup9\n        /* \"contracts/FlowerStorage.sol\":4751:4767  lastTBNode[addr] */\n      0xffffffffffffffffffffffffffffffffffffffff\n      and\n      0xffffffffffffffffffffffffffffffffffffffff\n      and\n      dup2\n      mstore\n      0x20\n      add\n      swap1\n      dup2\n      mstore\n      0x20\n      add\n      0x00\n      keccak256\n        /* \"contracts/FlowerStorage.sol\":4751:4778  lastTBNode[addr] = newIndex */\n      dup2\n      swap1\n      sstore\n      pop\n        /* \"contracts/FlowerStorage.sol\":4903:4904  0 */\n      0x00\n        /* \"contracts/FlowerStorage.sol\":4882:4893  firstTBNode */\n      0x06\n        /* \"contracts/FlowerStorage.sol\":4882:4899  firstTBNode[addr] */\n      0x00\n        /* \"contracts/FlowerStorage.sol\":4894:4898  addr */\n      dup9\n        /* \"contracts/FlowerStorage.sol\":4882:4899  firstTBNode[addr] */\n      0xffffffffffffffffffffffffffffffffffffffff\n      and\n      0xffffffffffffffffffffffffffffffffffffffff\n      and\n      dup2\n      mstore\n      0x20\n      add\n      swap1\n      dup2\n      mstore\n      0x20\n      add\n      0x00\n      keccak256\n      sload\n        /* \"contracts/FlowerStorage.sol\":4882:4904  firstTBNode[addr] == 0 */\n      eq\n        /* \"contracts/FlowerStorage.sol\":4878:4959  if (firstTBNode[addr] == 0) {... */\n      iszero\n      tag_138\n      jumpi\n        /* \"contracts/FlowerStorage.sol\":4940:4948  newIndex */\n      dup1\n        /* \"contracts/FlowerStorage.sol\":4920:4931  firstTBNode */\n      0x06\n        /* \"contracts/FlowerStorage.sol\":4920:4937  firstTBNode[addr] */\n      0x00\n        /* \"contracts/FlowerStorage.sol\":4932:4936  addr */\n      dup9\n        /* \"contracts/FlowerStorage.sol\":4920:4937  firstTBNode[addr] */\n      0xffffffffffffffffffffffffffffffffffffffff\n      and\n      0xffffffffffffffffffffffffffffffffffffffff\n      and\n      dup2\n      mstore\n      0x20\n      add\n      swap1\n      dup2\n      mstore\n      0x20\n      add\n      0x00\n      keccak256\n        /* \"contracts/FlowerStorage.sol\":4920:4948  firstTBNode[addr] = newIndex */\n      dup2\n      swap1\n      sstore\n      pop\n        /* \"contracts/FlowerStorage.sol\":4878:4959  if (firstTBNode[addr] == 0) {... */\n    tag_138:\n        /* \"contracts/FlowerStorage.sol\":659:660  _ */\n      pop\n      pop\n      pop\n        /* \"contracts/FlowerStorage.sol\":3951:4965  function addNode(address addr, uint256 timestamp, uint256 balance) public onlyFlowerConductor {... */\n      pop\n      pop\n      pop\n      jump\t// out\n        /* \"contracts/FlowerStorage.sol\":1258:1304  mapping(address => uint256) public firstTBNode */\n    tag_51:\n      mstore(0x20, 0x06)\n      dup1\n      0x00\n      mstore\n      keccak256(0x00, 0x40)\n      0x00\n      swap2\n      pop\n      swap1\n      pop\n      sload\n      dup2\n      jump\t// out\n        /* \"@openzeppelin/contracts/access/Ownable.sol\":1831:1932  function renounceOwnership() public virtual onlyOwner {... */\n    tag_54:\n        /* \"@openzeppelin/contracts/access/Ownable.sol\":1094:1107  _checkOwner() */\n      tag_140\n        /* \"@openzeppelin/contracts/access/Ownable.sol\":1094:1105  _checkOwner */\n      tag_141\n        /* \"@openzeppelin/contracts/access/Ownable.sol\":1094:1107  _checkOwner() */\n      jump\t// in\n    tag_140:\n        /* \"@openzeppelin/contracts/access/Ownable.sol\":1895:1925  _transferOwnership(address(0)) */\n      tag_143\n        /* \"@openzeppelin/contracts/access/Ownable.sol\":1922:1923  0 */\n      0x00\n        /* \"@openzeppelin/contracts/access/Ownable.sol\":1895:1913  _transferOwnership */\n      tag_144\n        /* \"@openzeppelin/contracts/access/Ownable.sol\":1895:1925  _transferOwnership(address(0)) */\n      jump\t// in\n    tag_143:\n        /* \"@openzeppelin/contracts/access/Ownable.sol\":1831:1932  function renounceOwnership() public virtual onlyOwner {... */\n      jump\t// out\n        /* \"contracts/FlowerStorage.sol\":3004:3130  function setFirstTBNode(address _addr, uint256 _index) public onlyFlowerConductor {... */\n    tag_57:\n        /* \"contracts/FlowerStorage.sol\":589:604  flowerConductor */\n      0x01\n      0x00\n      swap1\n      sload\n      swap1\n      0x0100\n      exp\n      swap1\n      div\n      0xffffffffffffffffffffffffffffffffffffffff\n      and\n        /* \"contracts/FlowerStorage.sol\":575:604  msg.sender == flowerConductor */\n      0xffffffffffffffffffffffffffffffffffffffff\n      and\n        /* \"contracts/FlowerStorage.sol\":575:585  msg.sender */\n      caller\n        /* \"contracts/FlowerStorage.sol\":575:604  msg.sender == flowerConductor */\n      0xffffffffffffffffffffffffffffffffffffffff\n      and\n      eq\n        /* \"contracts/FlowerStorage.sol\":567:649  require(msg.sender == flowerConductor, \"Only flower conductor can perform action\") */\n      tag_146\n      jumpi\n      mload(0x40)\n      0x08c379a000000000000000000000000000000000000000000000000000000000\n      dup2\n      mstore\n      0x04\n      add\n      tag_147\n      swap1\n      tag_122\n      jump\t// in\n    tag_147:\n      mload(0x40)\n      dup1\n      swap2\n      sub\n      swap1\n      revert\n    tag_146:\n        /* \"contracts/FlowerStorage.sol\":3117:3123  _index */\n      dup1\n        /* \"contracts/FlowerStorage.sol\":3096:3107  firstTBNode */\n      0x06\n        /* \"contracts/FlowerStorage.sol\":3096:3114  firstTBNode[_addr] */\n      0x00\n        /* \"contracts/FlowerStorage.sol\":3108:3113  _addr */\n      dup5\n        /* \"contracts/FlowerStorage.sol\":3096:3114  firstTBNode[_addr] */\n      0xffffffffffffffffffffffffffffffffffffffff\n      and\n      0xffffffffffffffffffffffffffffffffffffffff\n      and\n      dup2\n      mstore\n      0x20\n      add\n      swap1\n      dup2\n      mstore\n      0x20\n      add\n      0x00\n      keccak256\n        /* \"contracts/FlowerStorage.sol\":3096:3123  firstTBNode[_addr] = _index */\n      dup2\n      swap1\n      sstore\n      pop\n        /* \"contracts/FlowerStorage.sol\":3004:3130  function setFirstTBNode(address _addr, uint256 _index) public onlyFlowerConductor {... */\n      pop\n      pop\n      jump\t// out\n        /* \"contracts/FlowerStorage.sol\":3158:3282  function setLastTBNode(address _addr, uint256 _index) public onlyFlowerConductor {... */\n    tag_60:\n        /* \"contracts/FlowerStorage.sol\":589:604  flowerConductor */\n      0x01\n      0x00\n      swap1\n      sload\n      swap1\n      0x0100\n      exp\n      swap1\n      div\n      0xffffffffffffffffffffffffffffffffffffffff\n      and\n        /* \"contracts/FlowerStorage.sol\":575:604  msg.sender == flowerConductor */\n      0xffffffffffffffffffffffffffffffffffffffff\n      and\n        /* \"contracts/FlowerStorage.sol\":575:585  msg.sender */\n      caller\n        /* \"contracts/FlowerStorage.sol\":575:604  msg.sender == flowerConductor */\n      0xffffffffffffffffffffffffffffffffffffffff\n      and\n      eq\n        /* \"contracts/FlowerStorage.sol\":567:649  require(msg.sender == flowerConductor, \"Only flower conductor can perform action\") */\n      tag_150\n      jumpi\n      mload(0x40)\n      0x08c379a000000000000000000000000000000000000000000000000000000000\n      dup2\n      mstore\n      0x04\n      add\n      tag_151\n      swap1\n      tag_122\n      jump\t// in\n    tag_151:\n      mload(0x40)\n      dup1\n      swap2\n      sub\n      swap1\n      revert\n    tag_150:\n        /* \"contracts/FlowerStorage.sol\":3269:3275  _index */\n      dup1\n        /* \"contracts/FlowerStorage.sol\":3249:3259  lastTBNode */\n      0x07\n        /* \"contracts/FlowerStorage.sol\":3249:3266  lastTBNode[_addr] */\n      0x00\n        /* \"contracts/FlowerStorage.sol\":3260:3265  _addr */\n      dup5\n        /* \"contracts/FlowerStorage.sol\":3249:3266  lastTBNode[_addr] */\n      0xffffffffffffffffffffffffffffffffffffffff\n      and\n      0xffffffffffffffffffffffffffffffffffffffff\n      and\n      dup2\n      mstore\n      0x20\n      add\n      swap1\n      dup2\n      mstore\n      0x20\n      add\n      0x00\n      keccak256\n        /* \"contracts/FlowerStorage.sol\":3249:3275  lastTBNode[_addr] = _index */\n      dup2\n      swap1\n      sstore\n      pop\n        /* \"contracts/FlowerStorage.sol\":3158:3282  function setLastTBNode(address _addr, uint256 _index) public onlyFlowerConductor {... */\n      pop\n      pop\n      jump\t// out\n        /* \"@openzeppelin/contracts/access/Ownable.sol\":1201:1286  function owner() public view virtual returns (address) {... */\n    tag_62:\n        /* \"@openzeppelin/contracts/access/Ownable.sol\":1247:1254  address */\n      0x00\n        /* \"@openzeppelin/contracts/access/Ownable.sol\":1273:1279  _owner */\n      dup1\n      0x00\n      swap1\n      sload\n      swap1\n      0x0100\n      exp\n      swap1\n      div\n      0xffffffffffffffffffffffffffffffffffffffff\n      and\n        /* \"@openzeppelin/contracts/access/Ownable.sol\":1266:1279  return _owner */\n      swap1\n      pop\n        /* \"@openzeppelin/contracts/access/Ownable.sol\":1201:1286  function owner() public view virtual returns (address) {... */\n      swap1\n      jump\t// out\n        /* \"contracts/FlowerStorage.sol\":2746:2855  function addTotalBurned(uint256 _amount) external onlyFlowerConductor {... */\n    tag_67:\n        /* \"contracts/FlowerStorage.sol\":589:604  flowerConductor */\n      0x01\n      0x00\n      swap1\n      sload\n      swap1\n      0x0100\n      exp\n      swap1\n      div\n      0xffffffffffffffffffffffffffffffffffffffff\n      and\n        /* \"contracts/FlowerStorage.sol\":575:604  msg.sender == flowerConductor */\n      0xffffffffffffffffffffffffffffffffffffffff\n      and\n        /* \"contracts/FlowerStorage.sol\":575:585  msg.sender */\n      caller\n        /* \"contracts/FlowerStorage.sol\":575:604  msg.sender == flowerConductor */\n      0xffffffffffffffffffffffffffffffffffffffff\n      and\n      eq\n        /* \"contracts/FlowerStorage.sol\":567:649  require(msg.sender == flowerConductor, \"Only flower conductor can perform action\") */\n      tag_155\n      jumpi\n      mload(0x40)\n      0x08c379a000000000000000000000000000000000000000000000000000000000\n      dup2\n      mstore\n      0x04\n      add\n      tag_156\n      swap1\n      tag_122\n      jump\t// in\n    tag_156:\n      mload(0x40)\n      dup1\n      swap2\n      sub\n      swap1\n      revert\n    tag_155:\n        /* \"contracts/FlowerStorage.sol\":2841:2848  _amount */\n      dup1\n        /* \"contracts/FlowerStorage.sol\":2826:2837  totalBurned */\n      0x05\n      0x00\n        /* \"contracts/FlowerStorage.sol\":2826:2848  totalBurned += _amount */\n      dup3\n      dup3\n      sload\n      tag_158\n      swap2\n      swap1\n      tag_125\n      jump\t// in\n    tag_158:\n      swap3\n      pop\n      pop\n      dup2\n      swap1\n      sstore\n      pop\n        /* \"contracts/FlowerStorage.sol\":2746:2855  function addTotalBurned(uint256 _amount) external onlyFlowerConductor {... */\n      pop\n      jump\t// out\n        /* \"contracts/FlowerStorage.sol\":790:841  mapping ( address => uint256 ) public totalBalances */\n    tag_70:\n      mstore(0x20, 0x02)\n      dup1\n      0x00\n      mstore\n      keccak256(0x00, 0x40)\n      0x00\n      swap2\n      pop\n      swap1\n      pop\n      sload\n      dup2\n      jump\t// out\n        /* \"contracts/FlowerStorage.sol\":3313:3458  function getTBNodeByIndex(address _addr, uint256 _index) public view returns (TBNode memory) {... */\n    tag_74:\n        /* \"contracts/FlowerStorage.sol\":3391:3404  TBNode memory */\n      tag_159\n      tag_160\n      jump\t// in\n    tag_159:\n        /* \"contracts/FlowerStorage.sol\":3423:3436  tbNodeByIndex */\n      0x08\n        /* \"contracts/FlowerStorage.sol\":3423:3443  tbNodeByIndex[_addr] */\n      0x00\n        /* \"contracts/FlowerStorage.sol\":3437:3442  _addr */\n      dup5\n        /* \"contracts/FlowerStorage.sol\":3423:3443  tbNodeByIndex[_addr] */\n      0xffffffffffffffffffffffffffffffffffffffff\n      and\n      0xffffffffffffffffffffffffffffffffffffffff\n      and\n      dup2\n      mstore\n      0x20\n      add\n      swap1\n      dup2\n      mstore\n      0x20\n      add\n      0x00\n      keccak256\n        /* \"contracts/FlowerStorage.sol\":3423:3451  tbNodeByIndex[_addr][_index] */\n      0x00\n        /* \"contracts/FlowerStorage.sol\":3444:3450  _index */\n      dup4\n        /* \"contracts/FlowerStorage.sol\":3423:3451  tbNodeByIndex[_addr][_index] */\n      dup2\n      mstore\n      0x20\n      add\n      swap1\n      dup2\n      mstore\n      0x20\n      add\n      0x00\n      keccak256\n        /* \"contracts/FlowerStorage.sol\":3416:3451  return tbNodeByIndex[_addr][_index] */\n      mload(0x40)\n      dup1\n      0x60\n      add\n      0x40\n      mstore\n      swap1\n      dup2\n      0x00\n      dup3\n      add\n      sload\n      dup2\n      mstore\n      0x20\n      add\n      0x01\n      dup3\n      add\n      sload\n      dup2\n      mstore\n      0x20\n      add\n      0x02\n      dup3\n      add\n      sload\n      dup2\n      mstore\n      pop\n      pop\n      swap1\n      pop\n        /* \"contracts/FlowerStorage.sol\":3313:3458  function getTBNodeByIndex(address _addr, uint256 _index) public view returns (TBNode memory) {... */\n      swap3\n      swap2\n      pop\n      pop\n      jump\t// out\n        /* \"contracts/FlowerStorage.sol\":1644:1894  function setFlowerConductor(address _addr) public onlyOwner {... */\n    tag_79:\n        /* \"@openzeppelin/contracts/access/Ownable.sol\":1094:1107  _checkOwner() */\n      tag_163\n        /* \"@openzeppelin/contracts/access/Ownable.sol\":1094:1105  _checkOwner */\n      tag_141\n        /* \"@openzeppelin/contracts/access/Ownable.sol\":1094:1107  _checkOwner() */\n      jump\t// in\n    tag_163:\n        /* \"contracts/FlowerStorage.sol\":1722:1740  _addr.isContract() */\n      tag_165\n        /* \"contracts/FlowerStorage.sol\":1722:1727  _addr */\n      dup2\n        /* \"contracts/FlowerStorage.sol\":1722:1738  _addr.isContract */\n      0xffffffffffffffffffffffffffffffffffffffff\n      and\n      tag_166\n        /* \"contracts/FlowerStorage.sol\":1722:1740  _addr.isContract() */\n      jump\t// in\n    tag_165:\n        /* \"contracts/FlowerStorage.sol\":1714:1791  require(_addr.isContract(), \"must be instance of FlowerCoinStorage contract\") */\n      tag_167\n      jumpi\n      mload(0x40)\n      0x08c379a000000000000000000000000000000000000000000000000000000000\n      dup2\n      mstore\n      0x04\n      add\n      tag_168\n      swap1\n      tag_169\n      jump\t// in\n    tag_168:\n      mload(0x40)\n      dup1\n      swap2\n      sub\n      swap1\n      revert\n    tag_167:\n        /* \"contracts/FlowerStorage.sol\":1819:1824  _addr */\n      dup1\n        /* \"contracts/FlowerStorage.sol\":1801:1816  flowerConductor */\n      0x01\n      0x00\n        /* \"contracts/FlowerStorage.sol\":1801:1824  flowerConductor = _addr */\n      0x0100\n      exp\n      dup2\n      sload\n      dup2\n      0xffffffffffffffffffffffffffffffffffffffff\n      mul\n      not\n      and\n      swap1\n      dup4\n      0xffffffffffffffffffffffffffffffffffffffff\n      and\n      mul\n      or\n      swap1\n      sstore\n      pop\n        /* \"contracts/FlowerStorage.sol\":1881:1886  _addr */\n      dup1\n        /* \"contracts/FlowerStorage.sol\":1862:1887  SetFlowerConductor(_addr) */\n      0xffffffffffffffffffffffffffffffffffffffff\n      and\n      0x1df63ae92209f649860864c3a25a9524cc95f1617ffc90bab74d549d3bd3f5aa\n      mload(0x40)\n      mload(0x40)\n      dup1\n      swap2\n      sub\n      swap1\n      log2\n        /* \"contracts/FlowerStorage.sol\":1644:1894  function setFlowerConductor(address _addr) public onlyOwner {... */\n      pop\n      jump\t// out\n        /* \"contracts/FlowerStorage.sol\":1378:1423  mapping(address => uint256) public lastTBNode */\n    tag_82:\n      mstore(0x20, 0x07)\n      dup1\n      0x00\n      mstore\n      keccak256(0x00, 0x40)\n      0x00\n      swap2\n      pop\n      swap1\n      pop\n      sload\n      dup2\n      jump\t// out\n        /* \"contracts/FlowerStorage.sol\":2861:2975  function subtractTotalBurned(uint256 _amount) external onlyFlowerConductor {... */\n    tag_86:\n        /* \"contracts/FlowerStorage.sol\":589:604  flowerConductor */\n      0x01\n      0x00\n      swap1\n      sload\n      swap1\n      0x0100\n      exp\n      swap1\n      div\n      0xffffffffffffffffffffffffffffffffffffffff\n      and\n        /* \"contracts/FlowerStorage.sol\":575:604  msg.sender == flowerConductor */\n      0xffffffffffffffffffffffffffffffffffffffff\n      and\n        /* \"contracts/FlowerStorage.sol\":575:585  msg.sender */\n      caller\n        /* \"contracts/FlowerStorage.sol\":575:604  msg.sender == flowerConductor */\n      0xffffffffffffffffffffffffffffffffffffffff\n      and\n      eq\n        /* \"contracts/FlowerStorage.sol\":567:649  require(msg.sender == flowerConductor, \"Only flower conductor can perform action\") */\n      tag_171\n      jumpi\n      mload(0x40)\n      0x08c379a000000000000000000000000000000000000000000000000000000000\n      dup2\n      mstore\n      0x04\n      add\n      tag_172\n      swap1\n      tag_122\n      jump\t// in\n    tag_172:\n      mload(0x40)\n      dup1\n      swap2\n      sub\n      swap1\n      revert\n    tag_171:\n        /* \"contracts/FlowerStorage.sol\":2961:2968  _amount */\n      dup1\n        /* \"contracts/FlowerStorage.sol\":2946:2957  totalBurned */\n      0x05\n      0x00\n        /* \"contracts/FlowerStorage.sol\":2946:2968  totalBurned -= _amount */\n      dup3\n      dup3\n      sload\n      tag_174\n      swap2\n      swap1\n      tag_131\n      jump\t// in\n    tag_174:\n      swap3\n      pop\n      pop\n      dup2\n      swap1\n      sstore\n      pop\n        /* \"contracts/FlowerStorage.sol\":2861:2975  function subtractTotalBurned(uint256 _amount) external onlyFlowerConductor {... */\n      pop\n      jump\t// out\n        /* \"contracts/FlowerStorage.sol\":965:992  uint256 public totalExpired */\n    tag_88:\n      sload(0x04)\n      dup2\n      jump\t// out\n        /* \"contracts/FlowerStorage.sol\":2061:2195  function subtractBalance(address _addr, uint256 _amount) external onlyFlowerConductor {... */\n    tag_92:\n        /* \"contracts/FlowerStorage.sol\":589:604  flowerConductor */\n      0x01\n      0x00\n      swap1\n      sload\n      swap1\n      0x0100\n      exp\n      swap1\n      div\n      0xffffffffffffffffffffffffffffffffffffffff\n      and\n        /* \"contracts/FlowerStorage.sol\":575:604  msg.sender == flowerConductor */\n      0xffffffffffffffffffffffffffffffffffffffff\n      and\n        /* \"contracts/FlowerStorage.sol\":575:585  msg.sender */\n      caller\n        /* \"contracts/FlowerStorage.sol\":575:604  msg.sender == flowerConductor */\n      0xffffffffffffffffffffffffffffffffffffffff\n      and\n      eq\n        /* \"contracts/FlowerStorage.sol\":567:649  require(msg.sender == flowerConductor, \"Only flower conductor can perform action\") */\n      tag_176\n      jumpi\n      mload(0x40)\n      0x08c379a000000000000000000000000000000000000000000000000000000000\n      dup2\n      mstore\n      0x04\n      add\n      tag_177\n      swap1\n      tag_122\n      jump\t// in\n    tag_177:\n      mload(0x40)\n      dup1\n      swap2\n      sub\n      swap1\n      revert\n    tag_176:\n        /* \"contracts/FlowerStorage.sol\":2181:2188  _amount */\n      dup1\n        /* \"contracts/FlowerStorage.sol\":2157:2170  totalBalances */\n      0x02\n        /* \"contracts/FlowerStorage.sol\":2157:2177  totalBalances[_addr] */\n      0x00\n        /* \"contracts/FlowerStorage.sol\":2171:2176  _addr */\n      dup5\n        /* \"contracts/FlowerStorage.sol\":2157:2177  totalBalances[_addr] */\n      0xffffffffffffffffffffffffffffffffffffffff\n      and\n      0xffffffffffffffffffffffffffffffffffffffff\n      and\n      dup2\n      mstore\n      0x20\n      add\n      swap1\n      dup2\n      mstore\n      0x20\n      add\n      0x00\n      keccak256\n      0x00\n        /* \"contracts/FlowerStorage.sol\":2157:2188  totalBalances[_addr] -= _amount */\n      dup3\n      dup3\n      sload\n      tag_179\n      swap2\n      swap1\n      tag_131\n      jump\t// in\n    tag_179:\n      swap3\n      pop\n      pop\n      dup2\n      swap1\n      sstore\n      pop\n        /* \"contracts/FlowerStorage.sol\":2061:2195  function subtractBalance(address _addr, uint256 _amount) external onlyFlowerConductor {... */\n      pop\n      pop\n      jump\t// out\n        /* \"contracts/FlowerStorage.sol\":2484:2595  function addTotalExpired(uint256 _amount) external onlyFlowerConductor {... */\n    tag_95:\n        /* \"contracts/FlowerStorage.sol\":589:604  flowerConductor */\n      0x01\n      0x00\n      swap1\n      sload\n      swap1\n      0x0100\n      exp\n      swap1\n      div\n      0xffffffffffffffffffffffffffffffffffffffff\n      and\n        /* \"contracts/FlowerStorage.sol\":575:604  msg.sender == flowerConductor */\n      0xffffffffffffffffffffffffffffffffffffffff\n      and\n        /* \"contracts/FlowerStorage.sol\":575:585  msg.sender */\n      caller\n        /* \"contracts/FlowerStorage.sol\":575:604  msg.sender == flowerConductor */\n      0xffffffffffffffffffffffffffffffffffffffff\n      and\n      eq\n        /* \"contracts/FlowerStorage.sol\":567:649  require(msg.sender == flowerConductor, \"Only flower conductor can perform action\") */\n      tag_181\n      jumpi\n      mload(0x40)\n      0x08c379a000000000000000000000000000000000000000000000000000000000\n      dup2\n      mstore\n      0x04\n      add\n      tag_182\n      swap1\n      tag_122\n      jump\t// in\n    tag_182:\n      mload(0x40)\n      dup1\n      swap2\n      sub\n      swap1\n      revert\n    tag_181:\n        /* \"contracts/FlowerStorage.sol\":2581:2588  _amount */\n      dup1\n        /* \"contracts/FlowerStorage.sol\":2565:2577  totalExpired */\n      0x04\n      0x00\n        /* \"contracts/FlowerStorage.sol\":2565:2588  totalExpired += _amount */\n      dup3\n      dup3\n      sload\n      tag_184\n      swap2\n      swap1\n      tag_125\n      jump\t// in\n    tag_184:\n      swap3\n      pop\n      pop\n      dup2\n      swap1\n      sstore\n      pop\n        /* \"contracts/FlowerStorage.sol\":2484:2595  function addTotalExpired(uint256 _amount) external onlyFlowerConductor {... */\n      pop\n      jump\t// out\n        /* \"contracts/FlowerStorage.sol\":1039:1065  uint256 public totalBurned */\n    tag_97:\n      sload(0x05)\n      dup2\n      jump\t// out\n        /* \"contracts/FlowerStorage.sol\":3674:3879  function removeTBNodeByIndex(address _addr, uint256 _index) external onlyFlowerConductor {... */\n    tag_101:\n        /* \"contracts/FlowerStorage.sol\":589:604  flowerConductor */\n      0x01\n      0x00\n      swap1\n      sload\n      swap1\n      0x0100\n      exp\n      swap1\n      div\n      0xffffffffffffffffffffffffffffffffffffffff\n      and\n        /* \"contracts/FlowerStorage.sol\":575:604  msg.sender == flowerConductor */\n      0xffffffffffffffffffffffffffffffffffffffff\n      and\n        /* \"contracts/FlowerStorage.sol\":575:585  msg.sender */\n      caller\n        /* \"contracts/FlowerStorage.sol\":575:604  msg.sender == flowerConductor */\n      0xffffffffffffffffffffffffffffffffffffffff\n      and\n      eq\n        /* \"contracts/FlowerStorage.sol\":567:649  require(msg.sender == flowerConductor, \"Only flower conductor can perform action\") */\n      tag_186\n      jumpi\n      mload(0x40)\n      0x08c379a000000000000000000000000000000000000000000000000000000000\n      dup2\n      mstore\n      0x04\n      add\n      tag_187\n      swap1\n      tag_122\n      jump\t// in\n    tag_187:\n      mload(0x40)\n      dup1\n      swap2\n      sub\n      swap1\n      revert\n    tag_186:\n        /* \"contracts/FlowerStorage.sol\":3838:3851  tbNodeByIndex */\n      0x08\n        /* \"contracts/FlowerStorage.sol\":3838:3858  tbNodeByIndex[_addr] */\n      0x00\n        /* \"contracts/FlowerStorage.sol\":3852:3857  _addr */\n      dup4\n        /* \"contracts/FlowerStorage.sol\":3838:3858  tbNodeByIndex[_addr] */\n      0xffffffffffffffffffffffffffffffffffffffff\n      and\n      0xffffffffffffffffffffffffffffffffffffffff\n      and\n      dup2\n      mstore\n      0x20\n      add\n      swap1\n      dup2\n      mstore\n      0x20\n      add\n      0x00\n      keccak256\n        /* \"contracts/FlowerStorage.sol\":3838:3866  tbNodeByIndex[_addr][_index] */\n      0x00\n        /* \"contracts/FlowerStorage.sol\":3859:3865  _index */\n      dup3\n        /* \"contracts/FlowerStorage.sol\":3838:3866  tbNodeByIndex[_addr][_index] */\n      dup2\n      mstore\n      0x20\n      add\n      swap1\n      dup2\n      mstore\n      0x20\n      add\n      0x00\n      keccak256\n      0x00\n        /* \"contracts/FlowerStorage.sol\":3831:3866  delete tbNodeByIndex[_addr][_index] */\n      dup1\n      dup3\n      add\n      0x00\n      swap1\n      sstore\n      0x01\n      dup3\n      add\n      0x00\n      swap1\n      sstore\n      0x02\n      dup3\n      add\n      0x00\n      swap1\n      sstore\n      pop\n      pop\n        /* \"contracts/FlowerStorage.sol\":3674:3879  function removeTBNodeByIndex(address _addr, uint256 _index) external onlyFlowerConductor {... */\n      pop\n      pop\n      jump\t// out\n        /* \"contracts/FlowerStorage.sol\":2225:2334  function addTotalSupply(uint256 _amount) external onlyFlowerConductor {... */\n    tag_104:\n        /* \"contracts/FlowerStorage.sol\":589:604  flowerConductor */\n      0x01\n      0x00\n      swap1\n      sload\n      swap1\n      0x0100\n      exp\n      swap1\n      div\n      0xffffffffffffffffffffffffffffffffffffffff\n      and\n        /* \"contracts/FlowerStorage.sol\":575:604  msg.sender == flowerConductor */\n      0xffffffffffffffffffffffffffffffffffffffff\n      and\n        /* \"contracts/FlowerStorage.sol\":575:585  msg.sender */\n      caller\n        /* \"contracts/FlowerStorage.sol\":575:604  msg.sender == flowerConductor */\n      0xffffffffffffffffffffffffffffffffffffffff\n      and\n      eq\n        /* \"contracts/FlowerStorage.sol\":567:649  require(msg.sender == flowerConductor, \"Only flower conductor can perform action\") */\n      tag_190\n      jumpi\n      mload(0x40)\n      0x08c379a000000000000000000000000000000000000000000000000000000000\n      dup2\n      mstore\n      0x04\n      add\n      tag_191\n      swap1\n      tag_122\n      jump\t// in\n    tag_191:\n      mload(0x40)\n      dup1\n      swap2\n      sub\n      swap1\n      revert\n    tag_190:\n        /* \"contracts/FlowerStorage.sol\":2320:2327  _amount */\n      dup1\n        /* \"contracts/FlowerStorage.sol\":2305:2316  totalSupply */\n      0x03\n      0x00\n        /* \"contracts/FlowerStorage.sol\":2305:2327  totalSupply += _amount */\n      dup3\n      dup3\n      sload\n      tag_193\n      swap2\n      swap1\n      tag_125\n      jump\t// in\n    tag_193:\n      swap3\n      pop\n      pop\n      dup2\n      swap1\n      sstore\n      pop\n        /* \"contracts/FlowerStorage.sol\":2225:2334  function addTotalSupply(uint256 _amount) external onlyFlowerConductor {... */\n      pop\n      jump\t// out\n        /* \"contracts/FlowerStorage.sol\":3489:3668  function subtractTBNodeByIndexBalance(address _addr, uint256 _index, uint256 _amount) external onlyFlowerConductor {... */\n    tag_107:\n        /* \"contracts/FlowerStorage.sol\":589:604  flowerConductor */\n      0x01\n      0x00\n      swap1\n      sload\n      swap1\n      0x0100\n      exp\n      swap1\n      div\n      0xffffffffffffffffffffffffffffffffffffffff\n      and\n        /* \"contracts/FlowerStorage.sol\":575:604  msg.sender == flowerConductor */\n      0xffffffffffffffffffffffffffffffffffffffff\n      and\n        /* \"contracts/FlowerStorage.sol\":575:585  msg.sender */\n      caller\n        /* \"contracts/FlowerStorage.sol\":575:604  msg.sender == flowerConductor */\n      0xffffffffffffffffffffffffffffffffffffffff\n      and\n      eq\n        /* \"contracts/FlowerStorage.sol\":567:649  require(msg.sender == flowerConductor, \"Only flower conductor can perform action\") */\n      tag_195\n      jumpi\n      mload(0x40)\n      0x08c379a000000000000000000000000000000000000000000000000000000000\n      dup2\n      mstore\n      0x04\n      add\n      tag_196\n      swap1\n      tag_122\n      jump\t// in\n    tag_196:\n      mload(0x40)\n      dup1\n      swap2\n      sub\n      swap1\n      revert\n    tag_195:\n        /* \"contracts/FlowerStorage.sol\":3654:3661  _amount */\n      dup1\n        /* \"contracts/FlowerStorage.sol\":3614:3627  tbNodeByIndex */\n      0x08\n        /* \"contracts/FlowerStorage.sol\":3614:3634  tbNodeByIndex[_addr] */\n      0x00\n        /* \"contracts/FlowerStorage.sol\":3628:3633  _addr */\n      dup6\n        /* \"contracts/FlowerStorage.sol\":3614:3634  tbNodeByIndex[_addr] */\n      0xffffffffffffffffffffffffffffffffffffffff\n      and\n      0xffffffffffffffffffffffffffffffffffffffff\n      and\n      dup2\n      mstore\n      0x20\n      add\n      swap1\n      dup2\n      mstore\n      0x20\n      add\n      0x00\n      keccak256\n        /* \"contracts/FlowerStorage.sol\":3614:3642  tbNodeByIndex[_addr][_index] */\n      0x00\n        /* \"contracts/FlowerStorage.sol\":3635:3641  _index */\n      dup5\n        /* \"contracts/FlowerStorage.sol\":3614:3642  tbNodeByIndex[_addr][_index] */\n      dup2\n      mstore\n      0x20\n      add\n      swap1\n      dup2\n      mstore\n      0x20\n      add\n      0x00\n      keccak256\n        /* \"contracts/FlowerStorage.sol\":3614:3650  tbNodeByIndex[_addr][_index].balance */\n      0x01\n      add\n      0x00\n        /* \"contracts/FlowerStorage.sol\":3614:3661  tbNodeByIndex[_addr][_index].balance -= _amount */\n      dup3\n      dup3\n      sload\n      tag_198\n      swap2\n      swap1\n      tag_131\n      jump\t// in\n    tag_198:\n      swap3\n      pop\n      pop\n      dup2\n      swap1\n      sstore\n      pop\n        /* \"contracts/FlowerStorage.sol\":3489:3668  function subtractTBNodeByIndexBalance(address _addr, uint256 _index, uint256 _amount) external onlyFlowerConductor {... */\n      pop\n      pop\n      pop\n      jump\t// out\n        /* \"contracts/FlowerStorage.sol\":1471:1538  mapping(address => mapping(uint256 => TBNode)) public tbNodeByIndex */\n    tag_110:\n      mstore(0x20, 0x08)\n      dup2\n      0x00\n      mstore\n      mstore(0x20, keccak256(0x00, 0x40))\n      dup1\n      0x00\n      mstore\n      keccak256(0x00, 0x40)\n      0x00\n      swap2\n      pop\n      swap2\n      pop\n      pop\n      dup1\n      0x00\n      add\n      sload\n      swap1\n      dup1\n      0x01\n      add\n      sload\n      swap1\n      dup1\n      0x02\n      add\n      sload\n      swap1\n      pop\n      dup4\n      jump\t// out\n        /* \"@openzeppelin/contracts/access/Ownable.sol\":2081:2279  function transferOwnership(address newOwner) public virtual onlyOwner {... */\n    tag_115:\n        /* \"@openzeppelin/contracts/access/Ownable.sol\":1094:1107  _checkOwner() */\n      tag_200\n        /* \"@openzeppelin/contracts/access/Ownable.sol\":1094:1105  _checkOwner */\n      tag_141\n        /* \"@openzeppelin/contracts/access/Ownable.sol\":1094:1107  _checkOwner() */\n      jump\t// in\n    tag_200:\n        /* \"@openzeppelin/contracts/access/Ownable.sol\":2189:2190  0 */\n      0x00\n        /* \"@openzeppelin/contracts/access/Ownable.sol\":2169:2191  newOwner != address(0) */\n      0xffffffffffffffffffffffffffffffffffffffff\n      and\n        /* \"@openzeppelin/contracts/access/Ownable.sol\":2169:2177  newOwner */\n      dup2\n        /* \"@openzeppelin/contracts/access/Ownable.sol\":2169:2191  newOwner != address(0) */\n      0xffffffffffffffffffffffffffffffffffffffff\n      and\n      eq\n      iszero\n        /* \"@openzeppelin/contracts/access/Ownable.sol\":2161:2234  require(newOwner != address(0), \"Ownable: new owner is the zero address\") */\n      tag_202\n      jumpi\n      mload(0x40)\n      0x08c379a000000000000000000000000000000000000000000000000000000000\n      dup2\n      mstore\n      0x04\n      add\n      tag_203\n      swap1\n      tag_204\n      jump\t// in\n    tag_203:\n      mload(0x40)\n      dup1\n      swap2\n      sub\n      swap1\n      revert\n    tag_202:\n        /* \"@openzeppelin/contracts/access/Ownable.sol\":2244:2272  _transferOwnership(newOwner) */\n      tag_205\n        /* \"@openzeppelin/contracts/access/Ownable.sol\":2263:2271  newOwner */\n      dup2\n        /* \"@openzeppelin/contracts/access/Ownable.sol\":2244:2262  _transferOwnership */\n      tag_144\n        /* \"@openzeppelin/contracts/access/Ownable.sol\":2244:2272  _transferOwnership(newOwner) */\n      jump\t// in\n    tag_205:\n        /* \"@openzeppelin/contracts/access/Ownable.sol\":2081:2279  function transferOwnership(address newOwner) public virtual onlyOwner {... */\n      pop\n      jump\t// out\n        /* \"contracts/FlowerStorage.sol\":2601:2717  function subtractTotalExpired(uint256 _amount) external onlyFlowerConductor {... */\n    tag_118:\n        /* \"contracts/FlowerStorage.sol\":589:604  flowerConductor */\n      0x01\n      0x00\n      swap1\n      sload\n      swap1\n      0x0100\n      exp\n      swap1\n      div\n      0xffffffffffffffffffffffffffffffffffffffff\n      and\n        /* \"contracts/FlowerStorage.sol\":575:604  msg.sender == flowerConductor */\n      0xffffffffffffffffffffffffffffffffffffffff\n      and\n        /* \"contracts/FlowerStorage.sol\":575:585  msg.sender */\n      caller\n        /* \"contracts/FlowerStorage.sol\":575:604  msg.sender == flowerConductor */\n      0xffffffffffffffffffffffffffffffffffffffff\n      and\n      eq\n        /* \"contracts/FlowerStorage.sol\":567:649  require(msg.sender == flowerConductor, \"Only flower conductor can perform action\") */\n      tag_207\n      jumpi\n      mload(0x40)\n      0x08c379a000000000000000000000000000000000000000000000000000000000\n      dup2\n      mstore\n      0x04\n      add\n      tag_208\n      swap1\n      tag_122\n      jump\t// in\n    tag_208:\n      mload(0x40)\n      dup1\n      swap2\n      sub\n      swap1\n      revert\n    tag_207:\n        /* \"contracts/FlowerStorage.sol\":2703:2710  _amount */\n      dup1\n        /* \"contracts/FlowerStorage.sol\":2687:2699  totalExpired */\n      0x04\n      0x00\n        /* \"contracts/FlowerStorage.sol\":2687:2710  totalExpired -= _amount */\n      dup3\n      dup3\n      sload\n      tag_210\n      swap2\n      swap1\n      tag_131\n      jump\t// in\n    tag_210:\n      swap3\n      pop\n      pop\n      dup2\n      swap1\n      sstore\n      pop\n        /* \"contracts/FlowerStorage.sol\":2601:2717  function subtractTotalExpired(uint256 _amount) external onlyFlowerConductor {... */\n      pop\n      jump\t// out\n        /* \"@openzeppelin/contracts/access/Ownable.sol\":1359:1489  function _checkOwner() internal view virtual {... */\n    tag_141:\n        /* \"@openzeppelin/contracts/access/Ownable.sol\":1433:1445  _msgSender() */\n      tag_212\n        /* \"@openzeppelin/contracts/access/Ownable.sol\":1433:1443  _msgSender */\n      tag_213\n        /* \"@openzeppelin/contracts/access/Ownable.sol\":1433:1445  _msgSender() */\n      jump\t// in\n    tag_212:\n        /* \"@openzeppelin/contracts/access/Ownable.sol\":1422:1445  owner() == _msgSender() */\n      0xffffffffffffffffffffffffffffffffffffffff\n      and\n        /* \"@openzeppelin/contracts/access/Ownable.sol\":1422:1429  owner() */\n      tag_214\n        /* \"@openzeppelin/contracts/access/Ownable.sol\":1422:1427  owner */\n      tag_62\n        /* \"@openzeppelin/contracts/access/Ownable.sol\":1422:1429  owner() */\n      jump\t// in\n    tag_214:\n        /* \"@openzeppelin/contracts/access/Ownable.sol\":1422:1445  owner() == _msgSender() */\n      0xffffffffffffffffffffffffffffffffffffffff\n      and\n      eq\n        /* \"@openzeppelin/contracts/access/Ownable.sol\":1414:1482  require(owner() == _msgSender(), \"Ownable: caller is not the owner\") */\n      tag_215\n      jumpi\n      mload(0x40)\n      0x08c379a000000000000000000000000000000000000000000000000000000000\n      dup2\n      mstore\n      0x04\n      add\n      tag_216\n      swap1\n      tag_217\n      jump\t// in\n    tag_216:\n      mload(0x40)\n      dup1\n      swap2\n      sub\n      swap1\n      revert\n    tag_215:\n        /* \"@openzeppelin/contracts/access/Ownable.sol\":1359:1489  function _checkOwner() internal view virtual {... */\n      jump\t// out\n        /* \"@openzeppelin/contracts/access/Ownable.sol\":2433:2620  function _transferOwnership(address newOwner) internal virtual {... */\n    tag_144:\n        /* \"@openzeppelin/contracts/access/Ownable.sol\":2506:2522  address oldOwner */\n      0x00\n        /* \"@openzeppelin/contracts/access/Ownable.sol\":2525:2531  _owner */\n      dup1\n      0x00\n      swap1\n      sload\n      swap1\n      0x0100\n      exp\n      swap1\n      div\n      0xffffffffffffffffffffffffffffffffffffffff\n      and\n        /* \"@openzeppelin/contracts/access/Ownable.sol\":2506:2531  address oldOwner = _owner */\n      swap1\n      pop\n        /* \"@openzeppelin/contracts/access/Ownable.sol\":2550:2558  newOwner */\n      dup2\n        /* \"@openzeppelin/contracts/access/Ownable.sol\":2541:2547  _owner */\n      0x00\n      dup1\n        /* \"@openzeppelin/contracts/access/Ownable.sol\":2541:2558  _owner = newOwner */\n      0x0100\n      exp\n      dup2\n      sload\n      dup2\n      0xffffffffffffffffffffffffffffffffffffffff\n      mul\n      not\n      and\n      swap1\n      dup4\n      0xffffffffffffffffffffffffffffffffffffffff\n      and\n      mul\n      or\n      swap1\n      sstore\n      pop\n        /* \"@openzeppelin/contracts/access/Ownable.sol\":2604:2612  newOwner */\n      dup2\n        /* \"@openzeppelin/contracts/access/Ownable.sol\":2573:2613  OwnershipTransferred(oldOwner, newOwner) */\n      0xffffffffffffffffffffffffffffffffffffffff\n      and\n        /* \"@openzeppelin/contracts/access/Ownable.sol\":2594:2602  oldOwner */\n      dup2\n        /* \"@openzeppelin/contracts/access/Ownable.sol\":2573:2613  OwnershipTransferred(oldOwner, newOwner) */\n      0xffffffffffffffffffffffffffffffffffffffff\n      and\n      0x8be0079c531659141344cd1fd0a4f28419497f9722a3daafe3b4186f6b6457e0\n      mload(0x40)\n      mload(0x40)\n      dup1\n      swap2\n      sub\n      swap1\n      log3\n        /* \"@openzeppelin/contracts/access/Ownable.sol\":2433:2620  function _transferOwnership(address newOwner) internal virtual {... */\n      pop\n      pop\n      jump\t// out\n        /* \"@openzeppelin/contracts/utils/Address.sol\":1175:1495  function isContract(address account) internal view returns (bool) {... */\n    tag_166:\n        /* \"@openzeppelin/contracts/utils/Address.sol\":1235:1239  bool */\n      0x00\n        /* \"@openzeppelin/contracts/utils/Address.sol\":1487:1488  0 */\n      dup1\n        /* \"@openzeppelin/contracts/utils/Address.sol\":1465:1472  account */\n      dup3\n        /* \"@openzeppelin/contracts/utils/Address.sol\":1465:1484  account.code.length */\n      0xffffffffffffffffffffffffffffffffffffffff\n      and\n      extcodesize\n        /* \"@openzeppelin/contracts/utils/Address.sol\":1465:1488  account.code.length > 0 */\n      gt\n        /* \"@openzeppelin/contracts/utils/Address.sol\":1458:1488  return account.code.length > 0 */\n      swap1\n      pop\n        /* \"@openzeppelin/contracts/utils/Address.sol\":1175:1495  function isContract(address account) internal view returns (bool) {... */\n      swap2\n      swap1\n      pop\n      jump\t// out\n        /* \"@openzeppelin/contracts/utils/Context.sol\":640:736  function _msgSender() internal view virtual returns (address) {... */\n    tag_213:\n        /* \"@openzeppelin/contracts/utils/Context.sol\":693:700  address */\n      0x00\n        /* \"@openzeppelin/contracts/utils/Context.sol\":719:729  msg.sender */\n      caller\n        /* \"@openzeppelin/contracts/utils/Context.sol\":712:729  return msg.sender */\n      swap1\n      pop\n        /* \"@openzeppelin/contracts/utils/Context.sol\":640:736  function _msgSender() internal view virtual returns (address) {... */\n      swap1\n      jump\t// out\n    tag_160:\n      mload(0x40)\n      dup1\n      0x60\n      add\n      0x40\n      mstore\n      dup1\n      0x00\n      dup2\n      mstore\n      0x20\n      add\n      0x00\n      dup2\n      mstore\n      0x20\n      add\n      0x00\n      dup2\n      mstore\n      pop\n      swap1\n      jump\t// out\n        /* \"#utility.yul\":7:146   */\n    tag_222:\n        /* \"#utility.yul\":53:58   */\n      0x00\n        /* \"#utility.yul\":91:97   */\n      dup2\n        /* \"#utility.yul\":78:98   */\n      calldataload\n        /* \"#utility.yul\":69:98   */\n      swap1\n      pop\n        /* \"#utility.yul\":107:140   */\n      tag_224\n        /* \"#utility.yul\":134:139   */\n      dup2\n        /* \"#utility.yul\":107:140   */\n      tag_225\n      jump\t// in\n    tag_224:\n        /* \"#utility.yul\":59:146   */\n      swap3\n      swap2\n      pop\n      pop\n      jump\t// out\n        /* \"#utility.yul\":152:291   */\n    tag_226:\n        /* \"#utility.yul\":198:203   */\n      0x00\n        /* \"#utility.yul\":236:242   */\n      dup2\n        /* \"#utility.yul\":223:243   */\n      calldataload\n        /* \"#utility.yul\":214:243   */\n      swap1\n      pop\n        /* \"#utility.yul\":252:285   */\n      tag_228\n        /* \"#utility.yul\":279:284   */\n      dup2\n        /* \"#utility.yul\":252:285   */\n      tag_229\n      jump\t// in\n    tag_228:\n        /* \"#utility.yul\":204:291   */\n      swap3\n      swap2\n      pop\n      pop\n      jump\t// out\n        /* \"#utility.yul\":297:559   */\n    tag_50:\n        /* \"#utility.yul\":356:362   */\n      0x00\n        /* \"#utility.yul\":405:407   */\n      0x20\n        /* \"#utility.yul\":393:402   */\n      dup3\n        /* \"#utility.yul\":384:391   */\n      dup5\n        /* \"#utility.yul\":380:403   */\n      sub\n        /* \"#utility.yul\":376:408   */\n      slt\n        /* \"#utility.yul\":373:375   */\n      iszero\n      tag_231\n      jumpi\n        /* \"#utility.yul\":421:422   */\n      0x00\n        /* \"#utility.yul\":418:419   */\n      dup1\n        /* \"#utility.yul\":411:423   */\n      revert\n        /* \"#utility.yul\":373:375   */\n    tag_231:\n        /* \"#utility.yul\":464:465   */\n      0x00\n        /* \"#utility.yul\":489:542   */\n      tag_232\n        /* \"#utility.yul\":534:541   */\n      dup5\n        /* \"#utility.yul\":525:531   */\n      dup3\n        /* \"#utility.yul\":514:523   */\n      dup6\n        /* \"#utility.yul\":510:532   */\n      add\n        /* \"#utility.yul\":489:542   */\n      tag_222\n      jump\t// in\n    tag_232:\n        /* \"#utility.yul\":479:542   */\n      swap2\n      pop\n        /* \"#utility.yul\":435:552   */\n      pop\n        /* \"#utility.yul\":363:559   */\n      swap3\n      swap2\n      pop\n      pop\n      jump\t// out\n        /* \"#utility.yul\":565:972   */\n    tag_38:\n        /* \"#utility.yul\":633:639   */\n      0x00\n        /* \"#utility.yul\":641:647   */\n      dup1\n        /* \"#utility.yul\":690:692   */\n      0x40\n        /* \"#utility.yul\":678:687   */\n      dup4\n        /* \"#utility.yul\":669:676   */\n      dup6\n        /* \"#utility.yul\":665:688   */\n      sub\n        /* \"#utility.yul\":661:693   */\n      slt\n        /* \"#utility.yul\":658:660   */\n      iszero\n      tag_234\n      jumpi\n        /* \"#utility.yul\":706:707   */\n      0x00\n        /* \"#utility.yul\":703:704   */\n      dup1\n        /* \"#utility.yul\":696:708   */\n      revert\n        /* \"#utility.yul\":658:660   */\n    tag_234:\n        /* \"#utility.yul\":749:750   */\n      0x00\n        /* \"#utility.yul\":774:827   */\n      tag_235\n        /* \"#utility.yul\":819:826   */\n      dup6\n        /* \"#utility.yul\":810:816   */\n      dup3\n        /* \"#utility.yul\":799:808   */\n      dup7\n        /* \"#utility.yul\":795:817   */\n      add\n        /* \"#utility.yul\":774:827   */\n      tag_222\n      jump\t// in\n    tag_235:\n        /* \"#utility.yul\":764:827   */\n      swap3\n      pop\n        /* \"#utility.yul\":720:837   */\n      pop\n        /* \"#utility.yul\":876:878   */\n      0x20\n        /* \"#utility.yul\":902:955   */\n      tag_236\n        /* \"#utility.yul\":947:954   */\n      dup6\n        /* \"#utility.yul\":938:944   */\n      dup3\n        /* \"#utility.yul\":927:936   */\n      dup7\n        /* \"#utility.yul\":923:945   */\n      add\n        /* \"#utility.yul\":902:955   */\n      tag_226\n      jump\t// in\n    tag_236:\n        /* \"#utility.yul\":892:955   */\n      swap2\n      pop\n        /* \"#utility.yul\":847:965   */\n      pop\n        /* \"#utility.yul\":648:972   */\n      swap3\n      pop\n      swap3\n      swap1\n      pop\n      jump\t// out\n        /* \"#utility.yul\":978:1530   */\n    tag_46:\n        /* \"#utility.yul\":1055:1061   */\n      0x00\n        /* \"#utility.yul\":1063:1069   */\n      dup1\n        /* \"#utility.yul\":1071:1077   */\n      0x00\n        /* \"#utility.yul\":1120:1122   */\n      0x60\n        /* \"#utility.yul\":1108:1117   */\n      dup5\n        /* \"#utility.yul\":1099:1106   */\n      dup7\n        /* \"#utility.yul\":1095:1118   */\n      sub\n        /* \"#utility.yul\":1091:1123   */\n      slt\n        /* \"#utility.yul\":1088:1090   */\n      iszero\n      tag_238\n      jumpi\n        /* \"#utility.yul\":1136:1137   */\n      0x00\n        /* \"#utility.yul\":1133:1134   */\n      dup1\n        /* \"#utility.yul\":1126:1138   */\n      revert\n        /* \"#utility.yul\":1088:1090   */\n    tag_238:\n        /* \"#utility.yul\":1179:1180   */\n      0x00\n        /* \"#utility.yul\":1204:1257   */\n      tag_239\n        /* \"#utility.yul\":1249:1256   */\n      dup7\n        /* \"#utility.yul\":1240:1246   */\n      dup3\n        /* \"#utility.yul\":1229:1238   */\n      dup8\n        /* \"#utility.yul\":1225:1247   */\n      add\n        /* \"#utility.yul\":1204:1257   */\n      tag_222\n      jump\t// in\n    tag_239:\n        /* \"#utility.yul\":1194:1257   */\n      swap4\n      pop\n        /* \"#utility.yul\":1150:1267   */\n      pop\n        /* \"#utility.yul\":1306:1308   */\n      0x20\n        /* \"#utility.yul\":1332:1385   */\n      tag_240\n        /* \"#utility.yul\":1377:1384   */\n      dup7\n        /* \"#utility.yul\":1368:1374   */\n      dup3\n        /* \"#utility.yul\":1357:1366   */\n      dup8\n        /* \"#utility.yul\":1353:1375   */\n      add\n        /* \"#utility.yul\":1332:1385   */\n      tag_226\n      jump\t// in\n    tag_240:\n        /* \"#utility.yul\":1322:1385   */\n      swap3\n      pop\n        /* \"#utility.yul\":1277:1395   */\n      pop\n        /* \"#utility.yul\":1434:1436   */\n      0x40\n        /* \"#utility.yul\":1460:1513   */\n      tag_241\n        /* \"#utility.yul\":1505:1512   */\n      dup7\n        /* \"#utility.yul\":1496:1502   */\n      dup3\n        /* \"#utility.yul\":1485:1494   */\n      dup8\n        /* \"#utility.yul\":1481:1503   */\n      add\n        /* \"#utility.yul\":1460:1513   */\n      tag_226\n      jump\t// in\n    tag_241:\n        /* \"#utility.yul\":1450:1513   */\n      swap2\n      pop\n        /* \"#utility.yul\":1405:1523   */\n      pop\n        /* \"#utility.yul\":1078:1530   */\n      swap3\n      pop\n      swap3\n      pop\n      swap3\n      jump\t// out\n        /* \"#utility.yul\":1536:1798   */\n    tag_42:\n        /* \"#utility.yul\":1595:1601   */\n      0x00\n        /* \"#utility.yul\":1644:1646   */\n      0x20\n        /* \"#utility.yul\":1632:1641   */\n      dup3\n        /* \"#utility.yul\":1623:1630   */\n      dup5\n        /* \"#utility.yul\":1619:1642   */\n      sub\n        /* \"#utility.yul\":1615:1647   */\n      slt\n        /* \"#utility.yul\":1612:1614   */\n      iszero\n      tag_243\n      jumpi\n        /* \"#utility.yul\":1660:1661   */\n      0x00\n        /* \"#utility.yul\":1657:1658   */\n      dup1\n        /* \"#utility.yul\":1650:1662   */\n      revert\n        /* \"#utility.yul\":1612:1614   */\n    tag_243:\n        /* \"#utility.yul\":1703:1704   */\n      0x00\n        /* \"#utility.yul\":1728:1781   */\n      tag_244\n        /* \"#utility.yul\":1773:1780   */\n      dup5\n        /* \"#utility.yul\":1764:1770   */\n      dup3\n        /* \"#utility.yul\":1753:1762   */\n      dup6\n        /* \"#utility.yul\":1749:1771   */\n      add\n        /* \"#utility.yul\":1728:1781   */\n      tag_226\n      jump\t// in\n    tag_244:\n        /* \"#utility.yul\":1718:1781   */\n      swap2\n      pop\n        /* \"#utility.yul\":1674:1791   */\n      pop\n        /* \"#utility.yul\":1602:1798   */\n      swap3\n      swap2\n      pop\n      pop\n      jump\t// out\n        /* \"#utility.yul\":1804:1922   */\n    tag_245:\n        /* \"#utility.yul\":1891:1915   */\n      tag_247\n        /* \"#utility.yul\":1909:1914   */\n      dup2\n        /* \"#utility.yul\":1891:1915   */\n      tag_248\n      jump\t// in\n    tag_247:\n        /* \"#utility.yul\":1886:1889   */\n      dup3\n        /* \"#utility.yul\":1879:1916   */\n      mstore\n        /* \"#utility.yul\":1869:1922   */\n      pop\n      pop\n      jump\t// out\n        /* \"#utility.yul\":1928:2294   */\n    tag_249:\n        /* \"#utility.yul\":2070:2073   */\n      0x00\n        /* \"#utility.yul\":2091:2158   */\n      tag_251\n        /* \"#utility.yul\":2155:2157   */\n      0x26\n        /* \"#utility.yul\":2150:2153   */\n      dup4\n        /* \"#utility.yul\":2091:2158   */\n      tag_252\n      jump\t// in\n    tag_251:\n        /* \"#utility.yul\":2084:2158   */\n      swap2\n      pop\n        /* \"#utility.yul\":2167:2260   */\n      tag_253\n        /* \"#utility.yul\":2256:2259   */\n      dup3\n        /* \"#utility.yul\":2167:2260   */\n      tag_254\n      jump\t// in\n    tag_253:\n        /* \"#utility.yul\":2285:2287   */\n      0x40\n        /* \"#utility.yul\":2280:2283   */\n      dup3\n        /* \"#utility.yul\":2276:2288   */\n      add\n        /* \"#utility.yul\":2269:2288   */\n      swap1\n      pop\n        /* \"#utility.yul\":2074:2294   */\n      swap2\n      swap1\n      pop\n      jump\t// out\n        /* \"#utility.yul\":2300:2666   */\n    tag_255:\n        /* \"#utility.yul\":2442:2445   */\n      0x00\n        /* \"#utility.yul\":2463:2530   */\n      tag_257\n        /* \"#utility.yul\":2527:2529   */\n      0x28\n        /* \"#utility.yul\":2522:2525   */\n      dup4\n        /* \"#utility.yul\":2463:2530   */\n      tag_252\n      jump\t// in\n    tag_257:\n        /* \"#utility.yul\":2456:2530   */\n      swap2\n      pop\n        /* \"#utility.yul\":2539:2632   */\n      tag_258\n        /* \"#utility.yul\":2628:2631   */\n      dup3\n        /* \"#utility.yul\":2539:2632   */\n      tag_259\n      jump\t// in\n    tag_258:\n        /* \"#utility.yul\":2657:2659   */\n      0x40\n        /* \"#utility.yul\":2652:2655   */\n      dup3\n        /* \"#utility.yul\":2648:2660   */\n      add\n        /* \"#utility.yul\":2641:2660   */\n      swap1\n      pop\n        /* \"#utility.yul\":2446:2666   */\n      swap2\n      swap1\n      pop\n      jump\t// out\n        /* \"#utility.yul\":2672:3038   */\n    tag_260:\n        /* \"#utility.yul\":2814:2817   */\n      0x00\n        /* \"#utility.yul\":2835:2902   */\n      tag_262\n        /* \"#utility.yul\":2899:2901   */\n      0x2e\n        /* \"#utility.yul\":2894:2897   */\n      dup4\n        /* \"#utility.yul\":2835:2902   */\n      tag_252\n      jump\t// in\n    tag_262:\n        /* \"#utility.yul\":2828:2902   */\n      swap2\n      pop\n        /* \"#utility.yul\":2911:3004   */\n      tag_263\n        /* \"#utility.yul\":3000:3003   */\n      dup3\n        /* \"#utility.yul\":2911:3004   */\n      tag_264\n      jump\t// in\n    tag_263:\n        /* \"#utility.yul\":3029:3031   */\n      0x40\n        /* \"#utility.yul\":3024:3027   */\n      dup3\n        /* \"#utility.yul\":3020:3032   */\n      add\n        /* \"#utility.yul\":3013:3032   */\n      swap1\n      pop\n        /* \"#utility.yul\":2818:3038   */\n      swap2\n      swap1\n      pop\n      jump\t// out\n        /* \"#utility.yul\":3044:3410   */\n    tag_265:\n        /* \"#utility.yul\":3186:3189   */\n      0x00\n        /* \"#utility.yul\":3207:3274   */\n      tag_267\n        /* \"#utility.yul\":3271:3273   */\n      0x20\n        /* \"#utility.yul\":3266:3269   */\n      dup4\n        /* \"#utility.yul\":3207:3274   */\n      tag_252\n      jump\t// in\n    tag_267:\n        /* \"#utility.yul\":3200:3274   */\n      swap2\n      pop\n        /* \"#utility.yul\":3283:3376   */\n      tag_268\n        /* \"#utility.yul\":3372:3375   */\n      dup3\n        /* \"#utility.yul\":3283:3376   */\n      tag_269\n      jump\t// in\n    tag_268:\n        /* \"#utility.yul\":3401:3403   */\n      0x20\n        /* \"#utility.yul\":3396:3399   */\n      dup3\n        /* \"#utility.yul\":3392:3404   */\n      add\n        /* \"#utility.yul\":3385:3404   */\n      swap1\n      pop\n        /* \"#utility.yul\":3190:3410   */\n      swap2\n      swap1\n      pop\n      jump\t// out\n        /* \"#utility.yul\":3454:4139   */\n    tag_270:\n        /* \"#utility.yul\":3597:3601   */\n      0x60\n        /* \"#utility.yul\":3592:3595   */\n      dup3\n        /* \"#utility.yul\":3588:3602   */\n      add\n        /* \"#utility.yul\":3689:3693   */\n      0x00\n        /* \"#utility.yul\":3682:3687   */\n      dup3\n        /* \"#utility.yul\":3678:3694   */\n      add\n        /* \"#utility.yul\":3672:3695   */\n      mload\n        /* \"#utility.yul\":3708:3771   */\n      tag_272\n        /* \"#utility.yul\":3765:3769   */\n      0x00\n        /* \"#utility.yul\":3760:3763   */\n      dup6\n        /* \"#utility.yul\":3756:3770   */\n      add\n        /* \"#utility.yul\":3742:3754   */\n      dup3\n        /* \"#utility.yul\":3708:3771   */\n      tag_273\n      jump\t// in\n    tag_272:\n        /* \"#utility.yul\":3612:3781   */\n      pop\n        /* \"#utility.yul\":3866:3870   */\n      0x20\n        /* \"#utility.yul\":3859:3864   */\n      dup3\n        /* \"#utility.yul\":3855:3871   */\n      add\n        /* \"#utility.yul\":3849:3872   */\n      mload\n        /* \"#utility.yul\":3885:3948   */\n      tag_274\n        /* \"#utility.yul\":3942:3946   */\n      0x20\n        /* \"#utility.yul\":3937:3940   */\n      dup6\n        /* \"#utility.yul\":3933:3947   */\n      add\n        /* \"#utility.yul\":3919:3931   */\n      dup3\n        /* \"#utility.yul\":3885:3948   */\n      tag_273\n      jump\t// in\n    tag_274:\n        /* \"#utility.yul\":3791:3958   */\n      pop\n        /* \"#utility.yul\":4040:4044   */\n      0x40\n        /* \"#utility.yul\":4033:4038   */\n      dup3\n        /* \"#utility.yul\":4029:4045   */\n      add\n        /* \"#utility.yul\":4023:4046   */\n      mload\n        /* \"#utility.yul\":4059:4122   */\n      tag_275\n        /* \"#utility.yul\":4116:4120   */\n      0x40\n        /* \"#utility.yul\":4111:4114   */\n      dup6\n        /* \"#utility.yul\":4107:4121   */\n      add\n        /* \"#utility.yul\":4093:4105   */\n      dup3\n        /* \"#utility.yul\":4059:4122   */\n      tag_273\n      jump\t// in\n    tag_275:\n        /* \"#utility.yul\":3968:4132   */\n      pop\n        /* \"#utility.yul\":3566:4139   */\n      pop\n      pop\n      pop\n      jump\t// out\n        /* \"#utility.yul\":4145:4253   */\n    tag_273:\n        /* \"#utility.yul\":4222:4246   */\n      tag_277\n        /* \"#utility.yul\":4240:4245   */\n      dup2\n        /* \"#utility.yul\":4222:4246   */\n      tag_278\n      jump\t// in\n    tag_277:\n        /* \"#utility.yul\":4217:4220   */\n      dup3\n        /* \"#utility.yul\":4210:4247   */\n      mstore\n        /* \"#utility.yul\":4200:4253   */\n      pop\n      pop\n      jump\t// out\n        /* \"#utility.yul\":4259:4377   */\n    tag_279:\n        /* \"#utility.yul\":4346:4370   */\n      tag_281\n        /* \"#utility.yul\":4364:4369   */\n      dup2\n        /* \"#utility.yul\":4346:4370   */\n      tag_278\n      jump\t// in\n    tag_281:\n        /* \"#utility.yul\":4341:4344   */\n      dup3\n        /* \"#utility.yul\":4334:4371   */\n      mstore\n        /* \"#utility.yul\":4324:4377   */\n      pop\n      pop\n      jump\t// out\n        /* \"#utility.yul\":4383:4605   */\n    tag_64:\n        /* \"#utility.yul\":4476:4480   */\n      0x00\n        /* \"#utility.yul\":4514:4516   */\n      0x20\n        /* \"#utility.yul\":4503:4512   */\n      dup3\n        /* \"#utility.yul\":4499:4517   */\n      add\n        /* \"#utility.yul\":4491:4517   */\n      swap1\n      pop\n        /* \"#utility.yul\":4527:4598   */\n      tag_283\n        /* \"#utility.yul\":4595:4596   */\n      0x00\n        /* \"#utility.yul\":4584:4593   */\n      dup4\n        /* \"#utility.yul\":4580:4597   */\n      add\n        /* \"#utility.yul\":4571:4577   */\n      dup5\n        /* \"#utility.yul\":4527:4598   */\n      tag_245\n      jump\t// in\n    tag_283:\n        /* \"#utility.yul\":4481:4605   */\n      swap3\n      swap2\n      pop\n      pop\n      jump\t// out\n        /* \"#utility.yul\":4611:5030   */\n    tag_204:\n        /* \"#utility.yul\":4777:4781   */\n      0x00\n        /* \"#utility.yul\":4815:4817   */\n      0x20\n        /* \"#utility.yul\":4804:4813   */\n      dup3\n        /* \"#utility.yul\":4800:4818   */\n      add\n        /* \"#utility.yul\":4792:4818   */\n      swap1\n      pop\n        /* \"#utility.yul\":4864:4873   */\n      dup2\n        /* \"#utility.yul\":4858:4862   */\n      dup2\n        /* \"#utility.yul\":4854:4874   */\n      sub\n        /* \"#utility.yul\":4850:4851   */\n      0x00\n        /* \"#utility.yul\":4839:4848   */\n      dup4\n        /* \"#utility.yul\":4835:4852   */\n      add\n        /* \"#utility.yul\":4828:4875   */\n      mstore\n        /* \"#utility.yul\":4892:5023   */\n      tag_285\n        /* \"#utility.yul\":5018:5022   */\n      dup2\n        /* \"#utility.yul\":4892:5023   */\n      tag_249\n      jump\t// in\n    tag_285:\n        /* \"#utility.yul\":4884:5023   */\n      swap1\n      pop\n        /* \"#utility.yul\":4782:5030   */\n      swap2\n      swap1\n      pop\n      jump\t// out\n        /* \"#utility.yul\":5036:5455   */\n    tag_122:\n        /* \"#utility.yul\":5202:5206   */\n      0x00\n        /* \"#utility.yul\":5240:5242   */\n      0x20\n        /* \"#utility.yul\":5229:5238   */\n      dup3\n        /* \"#utility.yul\":5225:5243   */\n      add\n        /* \"#utility.yul\":5217:5243   */\n      swap1\n      pop\n        /* \"#utility.yul\":5289:5298   */\n      dup2\n        /* \"#utility.yul\":5283:5287   */\n      dup2\n        /* \"#utility.yul\":5279:5299   */\n      sub\n        /* \"#utility.yul\":5275:5276   */\n      0x00\n        /* \"#utility.yul\":5264:5273   */\n      dup4\n        /* \"#utility.yul\":5260:5277   */\n      add\n        /* \"#utility.yul\":5253:5300   */\n      mstore\n        /* \"#utility.yul\":5317:5448   */\n      tag_287\n        /* \"#utility.yul\":5443:5447   */\n      dup2\n        /* \"#utility.yul\":5317:5448   */\n      tag_255\n      jump\t// in\n    tag_287:\n        /* \"#utility.yul\":5309:5448   */\n      swap1\n      pop\n        /* \"#utility.yul\":5207:5455   */\n      swap2\n      swap1\n      pop\n      jump\t// out\n        /* \"#utility.yul\":5461:5880   */\n    tag_169:\n        /* \"#utility.yul\":5627:5631   */\n      0x00\n        /* \"#utility.yul\":5665:5667   */\n      0x20\n        /* \"#utility.yul\":5654:5663   */\n      dup3\n        /* \"#utility.yul\":5650:5668   */\n      add\n        /* \"#utility.yul\":5642:5668   */\n      swap1\n      pop\n        /* \"#utility.yul\":5714:5723   */\n      dup2\n        /* \"#utility.yul\":5708:5712   */\n      dup2\n        /* \"#utility.yul\":5704:5724   */\n      sub\n        /* \"#utility.yul\":5700:5701   */\n      0x00\n        /* \"#utility.yul\":5689:5698   */\n      dup4\n        /* \"#utility.yul\":5685:5702   */\n      add\n        /* \"#utility.yul\":5678:5725   */\n      mstore\n        /* \"#utility.yul\":5742:5873   */\n      tag_289\n        /* \"#utility.yul\":5868:5872   */\n      dup2\n        /* \"#utility.yul\":5742:5873   */\n      tag_260\n      jump\t// in\n    tag_289:\n        /* \"#utility.yul\":5734:5873   */\n      swap1\n      pop\n        /* \"#utility.yul\":5632:5880   */\n      swap2\n      swap1\n      pop\n      jump\t// out\n        /* \"#utility.yul\":5886:6305   */\n    tag_217:\n        /* \"#utility.yul\":6052:6056   */\n      0x00\n        /* \"#utility.yul\":6090:6092   */\n      0x20\n        /* \"#utility.yul\":6079:6088   */\n      dup3\n        /* \"#utility.yul\":6075:6093   */\n      add\n        /* \"#utility.yul\":6067:6093   */\n      swap1\n      pop\n        /* \"#utility.yul\":6139:6148   */\n      dup2\n        /* \"#utility.yul\":6133:6137   */\n      dup2\n        /* \"#utility.yul\":6129:6149   */\n      sub\n        /* \"#utility.yul\":6125:6126   */\n      0x00\n        /* \"#utility.yul\":6114:6123   */\n      dup4\n        /* \"#utility.yul\":6110:6127   */\n      add\n        /* \"#utility.yul\":6103:6150   */\n      mstore\n        /* \"#utility.yul\":6167:6298   */\n      tag_291\n        /* \"#utility.yul\":6293:6297   */\n      dup2\n        /* \"#utility.yul\":6167:6298   */\n      tag_265\n      jump\t// in\n    tag_291:\n        /* \"#utility.yul\":6159:6298   */\n      swap1\n      pop\n        /* \"#utility.yul\":6057:6305   */\n      swap2\n      swap1\n      pop\n      jump\t// out\n        /* \"#utility.yul\":6311:6625   */\n    tag_76:\n        /* \"#utility.yul\":6450:6454   */\n      0x00\n        /* \"#utility.yul\":6488:6490   */\n      0x60\n        /* \"#utility.yul\":6477:6486   */\n      dup3\n        /* \"#utility.yul\":6473:6491   */\n      add\n        /* \"#utility.yul\":6465:6491   */\n      swap1\n      pop\n        /* \"#utility.yul\":6501:6618   */\n      tag_293\n        /* \"#utility.yul\":6615:6616   */\n      0x00\n        /* \"#utility.yul\":6604:6613   */\n      dup4\n        /* \"#utility.yul\":6600:6617   */\n      add\n        /* \"#utility.yul\":6591:6597   */\n      dup5\n        /* \"#utility.yul\":6501:6618   */\n      tag_270\n      jump\t// in\n    tag_293:\n        /* \"#utility.yul\":6455:6625   */\n      swap3\n      swap2\n      pop\n      pop\n      jump\t// out\n        /* \"#utility.yul\":6631:6853   */\n    tag_35:\n        /* \"#utility.yul\":6724:6728   */\n      0x00\n        /* \"#utility.yul\":6762:6764   */\n      0x20\n        /* \"#utility.yul\":6751:6760   */\n      dup3\n        /* \"#utility.yul\":6747:6765   */\n      add\n        /* \"#utility.yul\":6739:6765   */\n      swap1\n      pop\n        /* \"#utility.yul\":6775:6846   */\n      tag_295\n        /* \"#utility.yul\":6843:6844   */\n      0x00\n        /* \"#utility.yul\":6832:6841   */\n      dup4\n        /* \"#utility.yul\":6828:6845   */\n      add\n        /* \"#utility.yul\":6819:6825   */\n      dup5\n        /* \"#utility.yul\":6775:6846   */\n      tag_279\n      jump\t// in\n    tag_295:\n        /* \"#utility.yul\":6729:6853   */\n      swap3\n      swap2\n      pop\n      pop\n      jump\t// out\n        /* \"#utility.yul\":6859:7301   */\n    tag_112:\n        /* \"#utility.yul\":7008:7012   */\n      0x00\n        /* \"#utility.yul\":7046:7048   */\n      0x60\n        /* \"#utility.yul\":7035:7044   */\n      dup3\n        /* \"#utility.yul\":7031:7049   */\n      add\n        /* \"#utility.yul\":7023:7049   */\n      swap1\n      pop\n        /* \"#utility.yul\":7059:7130   */\n      tag_297\n        /* \"#utility.yul\":7127:7128   */\n      0x00\n        /* \"#utility.yul\":7116:7125   */\n      dup4\n        /* \"#utility.yul\":7112:7129   */\n      add\n        /* \"#utility.yul\":7103:7109   */\n      dup7\n        /* \"#utility.yul\":7059:7130   */\n      tag_279\n      jump\t// in\n    tag_297:\n        /* \"#utility.yul\":7140:7212   */\n      tag_298\n        /* \"#utility.yul\":7208:7210   */\n      0x20\n        /* \"#utility.yul\":7197:7206   */\n      dup4\n        /* \"#utility.yul\":7193:7211   */\n      add\n        /* \"#utility.yul\":7184:7190   */\n      dup6\n        /* \"#utility.yul\":7140:7212   */\n      tag_279\n      jump\t// in\n    tag_298:\n        /* \"#utility.yul\":7222:7294   */\n      tag_299\n        /* \"#utility.yul\":7290:7292   */\n      0x40\n        /* \"#utility.yul\":7279:7288   */\n      dup4\n        /* \"#utility.yul\":7275:7293   */\n      add\n        /* \"#utility.yul\":7266:7272   */\n      dup5\n        /* \"#utility.yul\":7222:7294   */\n      tag_279\n      jump\t// in\n    tag_299:\n        /* \"#utility.yul\":7013:7301   */\n      swap5\n      swap4\n      pop\n      pop\n      pop\n      pop\n      jump\t// out\n        /* \"#utility.yul\":7307:7476   */\n    tag_252:\n        /* \"#utility.yul\":7391:7402   */\n      0x00\n        /* \"#utility.yul\":7425:7431   */\n      dup3\n        /* \"#utility.yul\":7420:7423   */\n      dup3\n        /* \"#utility.yul\":7413:7432   */\n      mstore\n        /* \"#utility.yul\":7465:7469   */\n      0x20\n        /* \"#utility.yul\":7460:7463   */\n      dup3\n        /* \"#utility.yul\":7456:7470   */\n      add\n        /* \"#utility.yul\":7441:7470   */\n      swap1\n      pop\n        /* \"#utility.yul\":7403:7476   */\n      swap3\n      swap2\n      pop\n      pop\n      jump\t// out\n        /* \"#utility.yul\":7482:7787   */\n    tag_125:\n        /* \"#utility.yul\":7522:7525   */\n      0x00\n        /* \"#utility.yul\":7541:7561   */\n      tag_302\n        /* \"#utility.yul\":7559:7560   */\n      dup3\n        /* \"#utility.yul\":7541:7561   */\n      tag_278\n      jump\t// in\n    tag_302:\n        /* \"#utility.yul\":7536:7561   */\n      swap2\n      pop\n        /* \"#utility.yul\":7575:7595   */\n      tag_303\n        /* \"#utility.yul\":7593:7594   */\n      dup4\n        /* \"#utility.yul\":7575:7595   */\n      tag_278\n      jump\t// in\n    tag_303:\n        /* \"#utility.yul\":7570:7595   */\n      swap3\n      pop\n        /* \"#utility.yul\":7729:7730   */\n      dup3\n        /* \"#utility.yul\":7661:7727   */\n      0xffffffffffffffffffffffffffffffffffffffffffffffffffffffffffffffff\n        /* \"#utility.yul\":7657:7731   */\n      sub\n        /* \"#utility.yul\":7654:7655   */\n      dup3\n        /* \"#utility.yul\":7651:7732   */\n      gt\n        /* \"#utility.yul\":7648:7650   */\n      iszero\n      tag_304\n      jumpi\n        /* \"#utility.yul\":7735:7753   */\n      tag_305\n      tag_306\n      jump\t// in\n    tag_305:\n        /* \"#utility.yul\":7648:7650   */\n    tag_304:\n        /* \"#utility.yul\":7779:7780   */\n      dup3\n        /* \"#utility.yul\":7776:7777   */\n      dup3\n        /* \"#utility.yul\":7772:7781   */\n      add\n        /* \"#utility.yul\":7765:7781   */\n      swap1\n      pop\n        /* \"#utility.yul\":7526:7787   */\n      swap3\n      swap2\n      pop\n      pop\n      jump\t// out\n        /* \"#utility.yul\":7793:7984   */\n    tag_131:\n        /* \"#utility.yul\":7833:7837   */\n      0x00\n        /* \"#utility.yul\":7853:7873   */\n      tag_308\n        /* \"#utility.yul\":7871:7872   */\n      dup3\n        /* \"#utility.yul\":7853:7873   */\n      tag_278\n      jump\t// in\n    tag_308:\n        /* \"#utility.yul\":7848:7873   */\n      swap2\n      pop\n        /* \"#utility.yul\":7887:7907   */\n      tag_309\n        /* \"#utility.yul\":7905:7906   */\n      dup4\n        /* \"#utility.yul\":7887:7907   */\n      tag_278\n      jump\t// in\n    tag_309:\n        /* \"#utility.yul\":7882:7907   */\n      swap3\n      pop\n        /* \"#utility.yul\":7926:7927   */\n      dup3\n        /* \"#utility.yul\":7923:7924   */\n      dup3\n        /* \"#utility.yul\":7920:7928   */\n      lt\n        /* \"#utility.yul\":7917:7919   */\n      iszero\n      tag_310\n      jumpi\n        /* \"#utility.yul\":7931:7949   */\n      tag_311\n      tag_306\n      jump\t// in\n    tag_311:\n        /* \"#utility.yul\":7917:7919   */\n    tag_310:\n        /* \"#utility.yul\":7976:7977   */\n      dup3\n        /* \"#utility.yul\":7973:7974   */\n      dup3\n        /* \"#utility.yul\":7969:7978   */\n      sub\n        /* \"#utility.yul\":7961:7978   */\n      swap1\n      pop\n        /* \"#utility.yul\":7838:7984   */\n      swap3\n      swap2\n      pop\n      pop\n      jump\t// out\n        /* \"#utility.yul\":7990:8086   */\n    tag_248:\n        /* \"#utility.yul\":8027:8034   */\n      0x00\n        /* \"#utility.yul\":8056:8080   */\n      tag_313\n        /* \"#utility.yul\":8074:8079   */\n      dup3\n        /* \"#utility.yul\":8056:8080   */\n      tag_314\n      jump\t// in\n    tag_313:\n        /* \"#utility.yul\":8045:8080   */\n      swap1\n      pop\n        /* \"#utility.yul\":8035:8086   */\n      swap2\n      swap1\n      pop\n      jump\t// out\n        /* \"#utility.yul\":8092:8218   */\n    tag_314:\n        /* \"#utility.yul\":8129:8136   */\n      0x00\n        /* \"#utility.yul\":8169:8211   */\n      0xffffffffffffffffffffffffffffffffffffffff\n        /* \"#utility.yul\":8162:8167   */\n      dup3\n        /* \"#utility.yul\":8158:8212   */\n      and\n        /* \"#utility.yul\":8147:8212   */\n      swap1\n      pop\n        /* \"#utility.yul\":8137:8218   */\n      swap2\n      swap1\n      pop\n      jump\t// out\n        /* \"#utility.yul\":8224:8301   */\n    tag_278:\n        /* \"#utility.yul\":8261:8268   */\n      0x00\n        /* \"#utility.yul\":8290:8295   */\n      dup2\n        /* \"#utility.yul\":8279:8295   */\n      swap1\n      pop\n        /* \"#utility.yul\":8269:8301   */\n      swap2\n      swap1\n      pop\n      jump\t// out\n        /* \"#utility.yul\":8307:8487   */\n    tag_306:\n        /* \"#utility.yul\":8355:8432   */\n      0x4e487b7100000000000000000000000000000000000000000000000000000000\n        /* \"#utility.yul\":8352:8353   */\n      0x00\n        /* \"#utility.yul\":8345:8433   */\n      mstore\n        /* \"#utility.yul\":8452:8456   */\n      0x11\n        /* \"#utility.yul\":8449:8450   */\n      0x04\n        /* \"#utility.yul\":8442:8457   */\n      mstore\n        /* \"#utility.yul\":8476:8480   */\n      0x24\n        /* \"#utility.yul\":8473:8474   */\n      0x00\n        /* \"#utility.yul\":8466:8481   */\n      revert\n        /* \"#utility.yul\":8493:8718   */\n    tag_254:\n        /* \"#utility.yul\":8633:8667   */\n      0x4f776e61626c653a206e6577206f776e657220697320746865207a65726f2061\n        /* \"#utility.yul\":8629:8630   */\n      0x00\n        /* \"#utility.yul\":8621:8627   */\n      dup3\n        /* \"#utility.yul\":8617:8631   */\n      add\n        /* \"#utility.yul\":8610:8668   */\n      mstore\n        /* \"#utility.yul\":8702:8710   */\n      0x6464726573730000000000000000000000000000000000000000000000000000\n        /* \"#utility.yul\":8697:8699   */\n      0x20\n        /* \"#utility.yul\":8689:8695   */\n      dup3\n        /* \"#utility.yul\":8685:8700   */\n      add\n        /* \"#utility.yul\":8678:8711   */\n      mstore\n        /* \"#utility.yul\":8599:8718   */\n      pop\n      jump\t// out\n        /* \"#utility.yul\":8724:8951   */\n    tag_259:\n        /* \"#utility.yul\":8864:8898   */\n      0x4f6e6c7920666c6f77657220636f6e647563746f722063616e20706572666f72\n        /* \"#utility.yul\":8860:8861   */\n      0x00\n        /* \"#utility.yul\":8852:8858   */\n      dup3\n        /* \"#utility.yul\":8848:8862   */\n      add\n        /* \"#utility.yul\":8841:8899   */\n      mstore\n        /* \"#utility.yul\":8933:8943   */\n      0x6d20616374696f6e000000000000000000000000000000000000000000000000\n        /* \"#utility.yul\":8928:8930   */\n      0x20\n        /* \"#utility.yul\":8920:8926   */\n      dup3\n        /* \"#utility.yul\":8916:8931   */\n      add\n        /* \"#utility.yul\":8909:8944   */\n      mstore\n        /* \"#utility.yul\":8830:8951   */\n      pop\n      jump\t// out\n        /* \"#utility.yul\":8957:9190   */\n    tag_264:\n        /* \"#utility.yul\":9097:9131   */\n      0x6d75737420626520696e7374616e6365206f6620466c6f776572436f696e5374\n        /* \"#utility.yul\":9093:9094   */\n      0x00\n        /* \"#utility.yul\":9085:9091   */\n      dup3\n        /* \"#utility.yul\":9081:9095   */\n      add\n        /* \"#utility.yul\":9074:9132   */\n      mstore\n        /* \"#utility.yul\":9166:9182   */\n      0x6f7261676520636f6e7472616374000000000000000000000000000000000000\n        /* \"#utility.yul\":9161:9163   */\n      0x20\n        /* \"#utility.yul\":9153:9159   */\n      dup3\n        /* \"#utility.yul\":9149:9164   */\n      add\n        /* \"#utility.yul\":9142:9183   */\n      mstore\n        /* \"#utility.yul\":9063:9190   */\n      pop\n      jump\t// out\n        /* \"#utility.yul\":9196:9378   */\n    tag_269:\n        /* \"#utility.yul\":9336:9370   */\n      0x4f776e61626c653a2063616c6c6572206973206e6f7420746865206f776e6572\n        /* \"#utility.yul\":9332:9333   */\n      0x00\n        /* \"#utility.yul\":9324:9330   */\n      dup3\n        /* \"#utility.yul\":9320:9334   */\n      add\n        /* \"#utility.yul\":9313:9371   */\n      mstore\n        /* \"#utility.yul\":9302:9378   */\n      pop\n      jump\t// out\n        /* \"#utility.yul\":9384:9506   */\n    tag_225:\n        /* \"#utility.yul\":9457:9481   */\n      tag_323\n        /* \"#utility.yul\":9475:9480   */\n      dup2\n        /* \"#utility.yul\":9457:9481   */\n      tag_248\n      jump\t// in\n    tag_323:\n        /* \"#utility.yul\":9450:9455   */\n      dup2\n        /* \"#utility.yul\":9447:9482   */\n      eq\n        /* \"#utility.yul\":9437:9439   */\n      tag_324\n      jumpi\n        /* \"#utility.yul\":9496:9497   */\n      0x00\n        /* \"#utility.yul\":9493:9494   */\n      dup1\n        /* \"#utility.yul\":9486:9498   */\n      revert\n        /* \"#utility.yul\":9437:9439   */\n    tag_324:\n        /* \"#utility.yul\":9427:9506   */\n      pop\n      jump\t// out\n        /* \"#utility.yul\":9512:9634   */\n    tag_229:\n        /* \"#utility.yul\":9585:9609   */\n      tag_326\n        /* \"#utility.yul\":9603:9608   */\n      dup2\n        /* \"#utility.yul\":9585:9609   */\n      tag_278\n      jump\t// in\n    tag_326:\n        /* \"#utility.yul\":9578:9583   */\n      dup2\n        /* \"#utility.yul\":9575:9610   */\n      eq\n        /* \"#utility.yul\":9565:9567   */\n      tag_327\n      jumpi\n        /* \"#utility.yul\":9624:9625   */\n      0x00\n        /* \"#utility.yul\":9621:9622   */\n      dup1\n        /* \"#utility.yul\":9614:9626   */\n      revert\n        /* \"#utility.yul\":9565:9567   */\n    tag_327:\n        /* \"#utility.yul\":9555:9634   */\n      pop\n      jump\t// out\n\n    auxdata: 0xa2646970667358221220fa90de96004c3dee45b933f2d0188cf2291ea9dadc0b8343dc3673062be9497664736f6c63430008040033\n}\n",
				"bytecode": {
					"linkReferences": {},
					"object": "60806040523480156200001157600080fd5b5062000032620000266200004960201b60201c565b6200005160201b60201c565b62000043336200011560201b60201c565b62000381565b600033905090565b60008060009054906101000a900473ffffffffffffffffffffffffffffffffffffffff169050816000806101000a81548173ffffffffffffffffffffffffffffffffffffffff021916908373ffffffffffffffffffffffffffffffffffffffff1602179055508173ffffffffffffffffffffffffffffffffffffffff168173ffffffffffffffffffffffffffffffffffffffff167f8be0079c531659141344cd1fd0a4f28419497f9722a3daafe3b4186f6b6457e060405160405180910390a35050565b62000125620001ac60201b60201c565b600073ffffffffffffffffffffffffffffffffffffffff168173ffffffffffffffffffffffffffffffffffffffff16141562000198576040517f08c379a00000000000000000000000000000000000000000000000000000000081526004016200018f90620002b4565b60405180910390fd5b620001a9816200005160201b60201c565b50565b620001bc6200004960201b60201c565b73ffffffffffffffffffffffffffffffffffffffff16620001e26200023d60201b60201c565b73ffffffffffffffffffffffffffffffffffffffff16146200023b576040517f08c379a00000000000000000000000000000000000000000000000000000000081526004016200023290620002d6565b60405180910390fd5b565b60008060009054906101000a900473ffffffffffffffffffffffffffffffffffffffff16905090565b600062000275602683620002f8565b9150620002828262000309565b604082019050919050565b60006200029c602083620002f8565b9150620002a98262000358565b602082019050919050565b60006020820190508181036000830152620002cf8162000266565b9050919050565b60006020820190508181036000830152620002f1816200028d565b9050919050565b600082825260208201905092915050565b7f4f776e61626c653a206e6577206f776e657220697320746865207a65726f206160008201527f6464726573730000000000000000000000000000000000000000000000000000602082015250565b7f4f776e61626c653a2063616c6c6572206973206e6f7420746865206f776e6572600082015250565b611aab80620003916000396000f3fe608060405234801561001057600080fd5b50600436106101735760003560e01c8063b9ceb9ef116100de578063d89135cd11610097578063ee65066511610071578063ee6506651461040a578063efe54dd514610426578063f2fde38b14610458578063f94762781461047457610173565b8063d89135cd146103b4578063d89b5ed6146103d2578063e468688e146103ee57610173565b8063b9ceb9ef146102f6578063baafd2d814610312578063c391399114610342578063ce5e93651461035e578063cfd4f18a1461037c578063d53045c81461039857610173565b80637ab436f8116101305780637ab436f81461022457806385393a8e146102405780638da5cb5b1461025c57806393f0f55a1461027a578063aee9c87214610296578063b1398144146102c657610173565b806318160ddd1461017857806321e5383a146101965780634b9ecd54146101b25780634eb84791146101ce5780636e76c3cf146101ea578063715018a61461021a575b600080fd5b610180610490565b60405161018d91906117d9565b60405180910390f35b6101b060048036038101906101ab9190611574565b610496565b005b6101cc60048036038101906101c791906115ff565b610580565b005b6101e860048036038101906101e391906115b0565b61062c565b005b61020460048036038101906101ff919061154b565b6108dd565b60405161021191906117d9565b60405180910390f35b6102226108f5565b005b61023e60048036038101906102399190611574565b610909565b005b61025a60048036038101906102559190611574565b6109e1565b005b610264610ab9565b6040516102719190611723565b60405180910390f35b610294600480360381019061028f91906115ff565b610ae2565b005b6102b060048036038101906102ab919061154b565b610b8e565b6040516102bd91906117d9565b60405180910390f35b6102e060048036038101906102db9190611574565b610ba6565b6040516102ed91906117be565b60405180910390f35b610310600480360381019061030b919061154b565b610c2f565b005b61032c6004803603810190610327919061154b565b610d1c565b60405161033991906117d9565b60405180910390f35b61035c600480360381019061035791906115ff565b610d34565b005b610366610de0565b60405161037391906117d9565b60405180910390f35b61039660048036038101906103919190611574565b610de6565b005b6103b260048036038101906103ad91906115ff565b610ed0565b005b6103bc610f7c565b6040516103c991906117d9565b60405180910390f35b6103ec60048036038101906103e79190611574565b610f82565b005b610408600480360381019061040391906115ff565b611081565b005b610424600480360381019061041f91906115b0565b61112d565b005b610440600480360381019061043b9190611574565b61122c565b60405161044f939291906117f4565b60405180910390f35b610472600480360381019061046d919061154b565b611263565b005b61048e600480360381019061048991906115ff565b6112e7565b005b60035481565b600160009054906101000a900473ffffffffffffffffffffffffffffffffffffffff1673ffffffffffffffffffffffffffffffffffffffff163373ffffffffffffffffffffffffffffffffffffffff1614610526576040517f08c379a000000000000000000000000000000000000000000000000000000000815260040161051d9061175e565b60405180910390fd5b80600260008473ffffffffffffffffffffffffffffffffffffffff1673ffffffffffffffffffffffffffffffffffffffff1681526020019081526020016000206000828254610575919061183c565b925050819055505050565b600160009054906101000a900473ffffffffffffffffffffffffffffffffffffffff1673ffffffffffffffffffffffffffffffffffffffff163373ffffffffffffffffffffffffffffffffffffffff1614610610576040517f08c379a00000000000000000000000000000000000000000000000000000000081526004016106079061175e565b60405180910390fd5b80600360008282546106229190611892565b9250508190555050565b600160009054906101000a900473ffffffffffffffffffffffffffffffffffffffff1673ffffffffffffffffffffffffffffffffffffffff163373ffffffffffffffffffffffffffffffffffffffff16146106bc576040517f08c379a00000000000000000000000000000000000000000000000000000000081526004016106b39061175e565b60405180910390fd5b60006040518060600160405280848152602001838152602001600081525090506000600760008673ffffffffffffffffffffffffffffffffffffffff1673ffffffffffffffffffffffffffffffffffffffff168152602001908152602001600020549050600060018261072f919061183c565b905082600860008873ffffffffffffffffffffffffffffffffffffffff1673ffffffffffffffffffffffffffffffffffffffff1681526020019081526020016000206000838152602001908152602001600020600082015181600001556020820151816001015560408201518160020155905050600082146108045780600860008873ffffffffffffffffffffffffffffffffffffffff1673ffffffffffffffffffffffffffffffffffffffff1681526020019081526020016000206000848152602001908152602001600020600201819055505b80600760008873ffffffffffffffffffffffffffffffffffffffff1673ffffffffffffffffffffffffffffffffffffffff168152602001908152602001600020819055506000600660008873ffffffffffffffffffffffffffffffffffffffff1673ffffffffffffffffffffffffffffffffffffffff1681526020019081526020016000205414156108d55780600660008873ffffffffffffffffffffffffffffffffffffffff1673ffffffffffffffffffffffffffffffffffffffff168152602001908152602001600020819055505b505050505050565b60066020528060005260406000206000915090505481565b6108fd611393565b6109076000611411565b565b600160009054906101000a900473ffffffffffffffffffffffffffffffffffffffff1673ffffffffffffffffffffffffffffffffffffffff163373ffffffffffffffffffffffffffffffffffffffff1614610999576040517f08c379a00000000000000000000000000000000000000000000000000000000081526004016109909061175e565b60405180910390fd5b80600660008473ffffffffffffffffffffffffffffffffffffffff1673ffffffffffffffffffffffffffffffffffffffff168152602001908152602001600020819055505050565b600160009054906101000a900473ffffffffffffffffffffffffffffffffffffffff1673ffffffffffffffffffffffffffffffffffffffff163373ffffffffffffffffffffffffffffffffffffffff1614610a71576040517f08c379a0000000000000000000000000000000000000000000000000000000008152600401610a689061175e565b60405180910390fd5b80600760008473ffffffffffffffffffffffffffffffffffffffff1673ffffffffffffffffffffffffffffffffffffffff168152602001908152602001600020819055505050565b60008060009054906101000a900473ffffffffffffffffffffffffffffffffffffffff16905090565b600160009054906101000a900473ffffffffffffffffffffffffffffffffffffffff1673ffffffffffffffffffffffffffffffffffffffff163373ffffffffffffffffffffffffffffffffffffffff1614610b72576040517f08c379a0000000000000000000000000000000000000000000000000000000008152600401610b699061175e565b60405180910390fd5b8060056000828254610b84919061183c565b9250508190555050565b60026020528060005260406000206000915090505481565b610bae611500565b600860008473ffffffffffffffffffffffffffffffffffffffff1673ffffffffffffffffffffffffffffffffffffffff16815260200190815260200160002060008381526020019081526020016000206040518060600160405290816000820154815260200160018201548152602001600282015481525050905092915050565b610c37611393565b610c568173ffffffffffffffffffffffffffffffffffffffff166114d5565b610c95576040517f08c379a0000000000000000000000000000000000000000000000000000000008152600401610c8c9061177e565b60405180910390fd5b80600160006101000a81548173ffffffffffffffffffffffffffffffffffffffff021916908373ffffffffffffffffffffffffffffffffffffffff1602179055508073ffffffffffffffffffffffffffffffffffffffff167f1df63ae92209f649860864c3a25a9524cc95f1617ffc90bab74d549d3bd3f5aa60405160405180910390a250565b60076020528060005260406000206000915090505481565b600160009054906101000a900473ffffffffffffffffffffffffffffffffffffffff1673ffffffffffffffffffffffffffffffffffffffff163373ffffffffffffffffffffffffffffffffffffffff1614610dc4576040517f08c379a0000000000000000000000000000000000000000000000000000000008152600401610dbb9061175e565b60405180910390fd5b8060056000828254610dd69190611892565b9250508190555050565b60045481565b600160009054906101000a900473ffffffffffffffffffffffffffffffffffffffff1673ffffffffffffffffffffffffffffffffffffffff163373ffffffffffffffffffffffffffffffffffffffff1614610e76576040517f08c379a0000000000000000000000000000000000000000000000000000000008152600401610e6d9061175e565b60405180910390fd5b80600260008473ffffffffffffffffffffffffffffffffffffffff1673ffffffffffffffffffffffffffffffffffffffff1681526020019081526020016000206000828254610ec59190611892565b925050819055505050565b600160009054906101000a900473ffffffffffffffffffffffffffffffffffffffff1673ffffffffffffffffffffffffffffffffffffffff163373ffffffffffffffffffffffffffffffffffffffff1614610f60576040517f08c379a0000000000000000000000000000000000000000000000000000000008152600401610f579061175e565b60405180910390fd5b8060046000828254610f72919061183c565b9250508190555050565b60055481565b600160009054906101000a900473ffffffffffffffffffffffffffffffffffffffff1673ffffffffffffffffffffffffffffffffffffffff163373ffffffffffffffffffffffffffffffffffffffff1614611012576040517f08c379a00000000000000000000000000000000000000000000000000000000081526004016110099061175e565b60405180910390fd5b600860008373ffffffffffffffffffffffffffffffffffffffff1673ffffffffffffffffffffffffffffffffffffffff16815260200190815260200160002060008281526020019081526020016000206000808201600090556001820160009055600282016000905550505050565b600160009054906101000a900473ffffffffffffffffffffffffffffffffffffffff1673ffffffffffffffffffffffffffffffffffffffff163373ffffffffffffffffffffffffffffffffffffffff1614611111576040517f08c379a00000000000000000000000000000000000000000000000000000000081526004016111089061175e565b60405180910390fd5b8060036000828254611123919061183c565b9250508190555050565b600160009054906101000a900473ffffffffffffffffffffffffffffffffffffffff1673ffffffffffffffffffffffffffffffffffffffff163373ffffffffffffffffffffffffffffffffffffffff16146111bd576040517f08c379a00000000000000000000000000000000000000000000000000000000081526004016111b49061175e565b60405180910390fd5b80600860008573ffffffffffffffffffffffffffffffffffffffff1673ffffffffffffffffffffffffffffffffffffffff168152602001908152602001600020600084815260200190815260200160002060010160008282546112209190611892565b92505081905550505050565b6008602052816000526040600020602052806000526040600020600091509150508060000154908060010154908060020154905083565b61126b611393565b600073ffffffffffffffffffffffffffffffffffffffff168173ffffffffffffffffffffffffffffffffffffffff1614156112db576040517f08c379a00000000000000000000000000000000000000000000000000000000081526004016112d29061173e565b60405180910390fd5b6112e481611411565b50565b600160009054906101000a900473ffffffffffffffffffffffffffffffffffffffff1673ffffffffffffffffffffffffffffffffffffffff163373ffffffffffffffffffffffffffffffffffffffff1614611377576040517f08c379a000000000000000000000000000000000000000000000000000000000815260040161136e9061175e565b60405180910390fd5b80600460008282546113899190611892565b9250508190555050565b61139b6114f8565b73ffffffffffffffffffffffffffffffffffffffff166113b9610ab9565b73ffffffffffffffffffffffffffffffffffffffff161461140f576040517f08c379a00000000000000000000000000000000000000000000000000000000081526004016114069061179e565b60405180910390fd5b565b60008060009054906101000a900473ffffffffffffffffffffffffffffffffffffffff169050816000806101000a81548173ffffffffffffffffffffffffffffffffffffffff021916908373ffffffffffffffffffffffffffffffffffffffff1602179055508173ffffffffffffffffffffffffffffffffffffffff168173ffffffffffffffffffffffffffffffffffffffff167f8be0079c531659141344cd1fd0a4f28419497f9722a3daafe3b4186f6b6457e060405160405180910390a35050565b6000808273ffffffffffffffffffffffffffffffffffffffff163b119050919050565b600033905090565b60405180606001604052806000815260200160008152602001600081525090565b60008135905061153081611a47565b92915050565b60008135905061154581611a5e565b92915050565b60006020828403121561155d57600080fd5b600061156b84828501611521565b91505092915050565b6000806040838503121561158757600080fd5b600061159585828601611521565b92505060206115a685828601611536565b9150509250929050565b6000806000606084860312156115c557600080fd5b60006115d386828701611521565b93505060206115e486828701611536565b92505060406115f586828701611536565b9150509250925092565b60006020828403121561161157600080fd5b600061161f84828501611536565b91505092915050565b611631816118c6565b82525050565b600061164460268361182b565b915061164f82611931565b604082019050919050565b600061166760288361182b565b915061167282611980565b604082019050919050565b600061168a602e8361182b565b9150611695826119cf565b604082019050919050565b60006116ad60208361182b565b91506116b882611a1e565b602082019050919050565b6060820160008201516116d96000850182611705565b5060208201516116ec6020850182611705565b5060408201516116ff6040850182611705565b50505050565b61170e816118f8565b82525050565b61171d816118f8565b82525050565b60006020820190506117386000830184611628565b92915050565b6000602082019050818103600083015261175781611637565b9050919050565b600060208201905081810360008301526117778161165a565b9050919050565b600060208201905081810360008301526117978161167d565b9050919050565b600060208201905081810360008301526117b7816116a0565b9050919050565b60006060820190506117d360008301846116c3565b92915050565b60006020820190506117ee6000830184611714565b92915050565b60006060820190506118096000830186611714565b6118166020830185611714565b6118236040830184611714565b949350505050565b600082825260208201905092915050565b6000611847826118f8565b9150611852836118f8565b9250827fffffffffffffffffffffffffffffffffffffffffffffffffffffffffffffffff0382111561188757611886611902565b5b828201905092915050565b600061189d826118f8565b91506118a8836118f8565b9250828210156118bb576118ba611902565b5b828203905092915050565b60006118d1826118d8565b9050919050565b600073ffffffffffffffffffffffffffffffffffffffff82169050919050565b6000819050919050565b7f4e487b7100000000000000000000000000000000000000000000000000000000600052601160045260246000fd5b7f4f776e61626c653a206e6577206f776e657220697320746865207a65726f206160008201527f6464726573730000000000000000000000000000000000000000000000000000602082015250565b7f4f6e6c7920666c6f77657220636f6e647563746f722063616e20706572666f7260008201527f6d20616374696f6e000000000000000000000000000000000000000000000000602082015250565b7f6d75737420626520696e7374616e6365206f6620466c6f776572436f696e537460008201527f6f7261676520636f6e7472616374000000000000000000000000000000000000602082015250565b7f4f776e61626c653a2063616c6c6572206973206e6f7420746865206f776e6572600082015250565b611a50816118c6565b8114611a5b57600080fd5b50565b611a67816118f8565b8114611a7257600080fd5b5056fea2646970667358221220fa90de96004c3dee45b933f2d0188cf2291ea9dadc0b8343dc3673062be9497664736f6c63430008040033",
					"opcodes": "PUSH1 0x80 PUSH1 0x40 MSTORE CALLVALUE DUP1 ISZERO PUSH3 0x11 JUMPI PUSH1 0x0 DUP1 REVERT JUMPDEST POP PUSH3 0x32 PUSH3 0x26 PUSH3 0x49 PUSH1 0x20 SHL PUSH1 0x20 SHR JUMP JUMPDEST PUSH3 0x51 PUSH1 0x20 SHL PUSH1 0x20 SHR JUMP JUMPDEST PUSH3 0x43 CALLER PUSH3 0x115 PUSH1 0x20 SHL PUSH1 0x20 SHR JUMP JUMPDEST PUSH3 0x381 JUMP JUMPDEST PUSH1 0x0 CALLER SWAP1 POP SWAP1 JUMP JUMPDEST PUSH1 0x0 DUP1 PUSH1 0x0 SWAP1 SLOAD SWAP1 PUSH2 0x100 EXP SWAP1 DIV PUSH20 0xFFFFFFFFFFFFFFFFFFFFFFFFFFFFFFFFFFFFFFFF AND SWAP1 POP DUP2 PUSH1 0x0 DUP1 PUSH2 0x100 EXP DUP2 SLOAD DUP2 PUSH20 0xFFFFFFFFFFFFFFFFFFFFFFFFFFFFFFFFFFFFFFFF MUL NOT AND SWAP1 DUP4 PUSH20 0xFFFFFFFFFFFFFFFFFFFFFFFFFFFFFFFFFFFFFFFF AND MUL OR SWAP1 SSTORE POP DUP2 PUSH20 0xFFFFFFFFFFFFFFFFFFFFFFFFFFFFFFFFFFFFFFFF AND DUP2 PUSH20 0xFFFFFFFFFFFFFFFFFFFFFFFFFFFFFFFFFFFFFFFF AND PUSH32 0x8BE0079C531659141344CD1FD0A4F28419497F9722A3DAAFE3B4186F6B6457E0 PUSH1 0x40 MLOAD PUSH1 0x40 MLOAD DUP1 SWAP2 SUB SWAP1 LOG3 POP POP JUMP JUMPDEST PUSH3 0x125 PUSH3 0x1AC PUSH1 0x20 SHL PUSH1 0x20 SHR JUMP JUMPDEST PUSH1 0x0 PUSH20 0xFFFFFFFFFFFFFFFFFFFFFFFFFFFFFFFFFFFFFFFF AND DUP2 PUSH20 0xFFFFFFFFFFFFFFFFFFFFFFFFFFFFFFFFFFFFFFFF AND EQ ISZERO PUSH3 0x198 JUMPI PUSH1 0x40 MLOAD PUSH32 0x8C379A000000000000000000000000000000000000000000000000000000000 DUP2 MSTORE PUSH1 0x4 ADD PUSH3 0x18F SWAP1 PUSH3 0x2B4 JUMP JUMPDEST PUSH1 0x40 MLOAD DUP1 SWAP2 SUB SWAP1 REVERT JUMPDEST PUSH3 0x1A9 DUP2 PUSH3 0x51 PUSH1 0x20 SHL PUSH1 0x20 SHR JUMP JUMPDEST POP JUMP JUMPDEST PUSH3 0x1BC PUSH3 0x49 PUSH1 0x20 SHL PUSH1 0x20 SHR JUMP JUMPDEST PUSH20 0xFFFFFFFFFFFFFFFFFFFFFFFFFFFFFFFFFFFFFFFF AND PUSH3 0x1E2 PUSH3 0x23D PUSH1 0x20 SHL PUSH1 0x20 SHR JUMP JUMPDEST PUSH20 0xFFFFFFFFFFFFFFFFFFFFFFFFFFFFFFFFFFFFFFFF AND EQ PUSH3 0x23B JUMPI PUSH1 0x40 MLOAD PUSH32 0x8C379A000000000000000000000000000000000000000000000000000000000 DUP2 MSTORE PUSH1 0x4 ADD PUSH3 0x232 SWAP1 PUSH3 0x2D6 JUMP JUMPDEST PUSH1 0x40 MLOAD DUP1 SWAP2 SUB SWAP1 REVERT JUMPDEST JUMP JUMPDEST PUSH1 0x0 DUP1 PUSH1 0x0 SWAP1 SLOAD SWAP1 PUSH2 0x100 EXP SWAP1 DIV PUSH20 0xFFFFFFFFFFFFFFFFFFFFFFFFFFFFFFFFFFFFFFFF AND SWAP1 POP SWAP1 JUMP JUMPDEST PUSH1 0x0 PUSH3 0x275 PUSH1 0x26 DUP4 PUSH3 0x2F8 JUMP JUMPDEST SWAP2 POP PUSH3 0x282 DUP3 PUSH3 0x309 JUMP JUMPDEST PUSH1 0x40 DUP3 ADD SWAP1 POP SWAP2 SWAP1 POP JUMP JUMPDEST PUSH1 0x0 PUSH3 0x29C PUSH1 0x20 DUP4 PUSH3 0x2F8 JUMP JUMPDEST SWAP2 POP PUSH3 0x2A9 DUP3 PUSH3 0x358 JUMP JUMPDEST PUSH1 0x20 DUP3 ADD SWAP1 POP SWAP2 SWAP1 POP JUMP JUMPDEST PUSH1 0x0 PUSH1 0x20 DUP3 ADD SWAP1 POP DUP2 DUP2 SUB PUSH1 0x0 DUP4 ADD MSTORE PUSH3 0x2CF DUP2 PUSH3 0x266 JUMP JUMPDEST SWAP1 POP SWAP2 SWAP1 POP JUMP JUMPDEST PUSH1 0x0 PUSH1 0x20 DUP3 ADD SWAP1 POP DUP2 DUP2 SUB PUSH1 0x0 DUP4 ADD MSTORE PUSH3 0x2F1 DUP2 PUSH3 0x28D JUMP JUMPDEST SWAP1 POP SWAP2 SWAP1 POP JUMP JUMPDEST PUSH1 0x0 DUP3 DUP3 MSTORE PUSH1 0x20 DUP3 ADD SWAP1 POP SWAP3 SWAP2 POP POP JUMP JUMPDEST PUSH32 0x4F776E61626C653A206E6577206F776E657220697320746865207A65726F2061 PUSH1 0x0 DUP3 ADD MSTORE PUSH32 0x6464726573730000000000000000000000000000000000000000000000000000 PUSH1 0x20 DUP3 ADD MSTORE POP JUMP JUMPDEST PUSH32 0x4F776E61626C653A2063616C6C6572206973206E6F7420746865206F776E6572 PUSH1 0x0 DUP3 ADD MSTORE POP JUMP JUMPDEST PUSH2 0x1AAB DUP1 PUSH3 0x391 PUSH1 0x0 CODECOPY PUSH1 0x0 RETURN INVALID PUSH1 0x80 PUSH1 0x40 MSTORE CALLVALUE DUP1 ISZERO PUSH2 0x10 JUMPI PUSH1 0x0 DUP1 REVERT JUMPDEST POP PUSH1 0x4 CALLDATASIZE LT PUSH2 0x173 JUMPI PUSH1 0x0 CALLDATALOAD PUSH1 0xE0 SHR DUP1 PUSH4 0xB9CEB9EF GT PUSH2 0xDE JUMPI DUP1 PUSH4 0xD89135CD GT PUSH2 0x97 JUMPI DUP1 PUSH4 0xEE650665 GT PUSH2 0x71 JUMPI DUP1 PUSH4 0xEE650665 EQ PUSH2 0x40A JUMPI DUP1 PUSH4 0xEFE54DD5 EQ PUSH2 0x426 JUMPI DUP1 PUSH4 0xF2FDE38B EQ PUSH2 0x458 JUMPI DUP1 PUSH4 0xF9476278 EQ PUSH2 0x474 JUMPI PUSH2 0x173 JUMP JUMPDEST DUP1 PUSH4 0xD89135CD EQ PUSH2 0x3B4 JUMPI DUP1 PUSH4 0xD89B5ED6 EQ PUSH2 0x3D2 JUMPI DUP1 PUSH4 0xE468688E EQ PUSH2 0x3EE JUMPI PUSH2 0x173 JUMP JUMPDEST DUP1 PUSH4 0xB9CEB9EF EQ PUSH2 0x2F6 JUMPI DUP1 PUSH4 0xBAAFD2D8 EQ PUSH2 0x312 JUMPI DUP1 PUSH4 0xC3913991 EQ PUSH2 0x342 JUMPI DUP1 PUSH4 0xCE5E9365 EQ PUSH2 0x35E JUMPI DUP1 PUSH4 0xCFD4F18A EQ PUSH2 0x37C JUMPI DUP1 PUSH4 0xD53045C8 EQ PUSH2 0x398 JUMPI PUSH2 0x173 JUMP JUMPDEST DUP1 PUSH4 0x7AB436F8 GT PUSH2 0x130 JUMPI DUP1 PUSH4 0x7AB436F8 EQ PUSH2 0x224 JUMPI DUP1 PUSH4 0x85393A8E EQ PUSH2 0x240 JUMPI DUP1 PUSH4 0x8DA5CB5B EQ PUSH2 0x25C JUMPI DUP1 PUSH4 0x93F0F55A EQ PUSH2 0x27A JUMPI DUP1 PUSH4 0xAEE9C872 EQ PUSH2 0x296 JUMPI DUP1 PUSH4 0xB1398144 EQ PUSH2 0x2C6 JUMPI PUSH2 0x173 JUMP JUMPDEST DUP1 PUSH4 0x18160DDD EQ PUSH2 0x178 JUMPI DUP1 PUSH4 0x21E5383A EQ PUSH2 0x196 JUMPI DUP1 PUSH4 0x4B9ECD54 EQ PUSH2 0x1B2 JUMPI DUP1 PUSH4 0x4EB84791 EQ PUSH2 0x1CE JUMPI DUP1 PUSH4 0x6E76C3CF EQ PUSH2 0x1EA JUMPI DUP1 PUSH4 0x715018A6 EQ PUSH2 0x21A JUMPI JUMPDEST PUSH1 0x0 DUP1 REVERT JUMPDEST PUSH2 0x180 PUSH2 0x490 JUMP JUMPDEST PUSH1 0x40 MLOAD PUSH2 0x18D SWAP2 SWAP1 PUSH2 0x17D9 JUMP JUMPDEST PUSH1 0x40 MLOAD DUP1 SWAP2 SUB SWAP1 RETURN JUMPDEST PUSH2 0x1B0 PUSH1 0x4 DUP1 CALLDATASIZE SUB DUP2 ADD SWAP1 PUSH2 0x1AB SWAP2 SWAP1 PUSH2 0x1574 JUMP JUMPDEST PUSH2 0x496 JUMP JUMPDEST STOP JUMPDEST PUSH2 0x1CC PUSH1 0x4 DUP1 CALLDATASIZE SUB DUP2 ADD SWAP1 PUSH2 0x1C7 SWAP2 SWAP1 PUSH2 0x15FF JUMP JUMPDEST PUSH2 0x580 JUMP JUMPDEST STOP JUMPDEST PUSH2 0x1E8 PUSH1 0x4 DUP1 CALLDATASIZE SUB DUP2 ADD SWAP1 PUSH2 0x1E3 SWAP2 SWAP1 PUSH2 0x15B0 JUMP JUMPDEST PUSH2 0x62C JUMP JUMPDEST STOP JUMPDEST PUSH2 0x204 PUSH1 0x4 DUP1 CALLDATASIZE SUB DUP2 ADD SWAP1 PUSH2 0x1FF SWAP2 SWAP1 PUSH2 0x154B JUMP JUMPDEST PUSH2 0x8DD JUMP JUMPDEST PUSH1 0x40 MLOAD PUSH2 0x211 SWAP2 SWAP1 PUSH2 0x17D9 JUMP JUMPDEST PUSH1 0x40 MLOAD DUP1 SWAP2 SUB SWAP1 RETURN JUMPDEST PUSH2 0x222 PUSH2 0x8F5 JUMP JUMPDEST STOP JUMPDEST PUSH2 0x23E PUSH1 0x4 DUP1 CALLDATASIZE SUB DUP2 ADD SWAP1 PUSH2 0x239 SWAP2 SWAP1 PUSH2 0x1574 JUMP JUMPDEST PUSH2 0x909 JUMP JUMPDEST STOP JUMPDEST PUSH2 0x25A PUSH1 0x4 DUP1 CALLDATASIZE SUB DUP2 ADD SWAP1 PUSH2 0x255 SWAP2 SWAP1 PUSH2 0x1574 JUMP JUMPDEST PUSH2 0x9E1 JUMP JUMPDEST STOP JUMPDEST PUSH2 0x264 PUSH2 0xAB9 JUMP JUMPDEST PUSH1 0x40 MLOAD PUSH2 0x271 SWAP2 SWAP1 PUSH2 0x1723 JUMP JUMPDEST PUSH1 0x40 MLOAD DUP1 SWAP2 SUB SWAP1 RETURN JUMPDEST PUSH2 0x294 PUSH1 0x4 DUP1 CALLDATASIZE SUB DUP2 ADD SWAP1 PUSH2 0x28F SWAP2 SWAP1 PUSH2 0x15FF JUMP JUMPDEST PUSH2 0xAE2 JUMP JUMPDEST STOP JUMPDEST PUSH2 0x2B0 PUSH1 0x4 DUP1 CALLDATASIZE SUB DUP2 ADD SWAP1 PUSH2 0x2AB SWAP2 SWAP1 PUSH2 0x154B JUMP JUMPDEST PUSH2 0xB8E JUMP JUMPDEST PUSH1 0x40 MLOAD PUSH2 0x2BD SWAP2 SWAP1 PUSH2 0x17D9 JUMP JUMPDEST PUSH1 0x40 MLOAD DUP1 SWAP2 SUB SWAP1 RETURN JUMPDEST PUSH2 0x2E0 PUSH1 0x4 DUP1 CALLDATASIZE SUB DUP2 ADD SWAP1 PUSH2 0x2DB SWAP2 SWAP1 PUSH2 0x1574 JUMP JUMPDEST PUSH2 0xBA6 JUMP JUMPDEST PUSH1 0x40 MLOAD PUSH2 0x2ED SWAP2 SWAP1 PUSH2 0x17BE JUMP JUMPDEST PUSH1 0x40 MLOAD DUP1 SWAP2 SUB SWAP1 RETURN JUMPDEST PUSH2 0x310 PUSH1 0x4 DUP1 CALLDATASIZE SUB DUP2 ADD SWAP1 PUSH2 0x30B SWAP2 SWAP1 PUSH2 0x154B JUMP JUMPDEST PUSH2 0xC2F JUMP JUMPDEST STOP JUMPDEST PUSH2 0x32C PUSH1 0x4 DUP1 CALLDATASIZE SUB DUP2 ADD SWAP1 PUSH2 0x327 SWAP2 SWAP1 PUSH2 0x154B JUMP JUMPDEST PUSH2 0xD1C JUMP JUMPDEST PUSH1 0x40 MLOAD PUSH2 0x339 SWAP2 SWAP1 PUSH2 0x17D9 JUMP JUMPDEST PUSH1 0x40 MLOAD DUP1 SWAP2 SUB SWAP1 RETURN JUMPDEST PUSH2 0x35C PUSH1 0x4 DUP1 CALLDATASIZE SUB DUP2 ADD SWAP1 PUSH2 0x357 SWAP2 SWAP1 PUSH2 0x15FF JUMP JUMPDEST PUSH2 0xD34 JUMP JUMPDEST STOP JUMPDEST PUSH2 0x366 PUSH2 0xDE0 JUMP JUMPDEST PUSH1 0x40 MLOAD PUSH2 0x373 SWAP2 SWAP1 PUSH2 0x17D9 JUMP JUMPDEST PUSH1 0x40 MLOAD DUP1 SWAP2 SUB SWAP1 RETURN JUMPDEST PUSH2 0x396 PUSH1 0x4 DUP1 CALLDATASIZE SUB DUP2 ADD SWAP1 PUSH2 0x391 SWAP2 SWAP1 PUSH2 0x1574 JUMP JUMPDEST PUSH2 0xDE6 JUMP JUMPDEST STOP JUMPDEST PUSH2 0x3B2 PUSH1 0x4 DUP1 CALLDATASIZE SUB DUP2 ADD SWAP1 PUSH2 0x3AD SWAP2 SWAP1 PUSH2 0x15FF JUMP JUMPDEST PUSH2 0xED0 JUMP JUMPDEST STOP JUMPDEST PUSH2 0x3BC PUSH2 0xF7C JUMP JUMPDEST PUSH1 0x40 MLOAD PUSH2 0x3C9 SWAP2 SWAP1 PUSH2 0x17D9 JUMP JUMPDEST PUSH1 0x40 MLOAD DUP1 SWAP2 SUB SWAP1 RETURN JUMPDEST PUSH2 0x3EC PUSH1 0x4 DUP1 CALLDATASIZE SUB DUP2 ADD SWAP1 PUSH2 0x3E7 SWAP2 SWAP1 PUSH2 0x1574 JUMP JUMPDEST PUSH2 0xF82 JUMP JUMPDEST STOP JUMPDEST PUSH2 0x408 PUSH1 0x4 DUP1 CALLDATASIZE SUB DUP2 ADD SWAP1 PUSH2 0x403 SWAP2 SWAP1 PUSH2 0x15FF JUMP JUMPDEST PUSH2 0x1081 JUMP JUMPDEST STOP JUMPDEST PUSH2 0x424 PUSH1 0x4 DUP1 CALLDATASIZE SUB DUP2 ADD SWAP1 PUSH2 0x41F SWAP2 SWAP1 PUSH2 0x15B0 JUMP JUMPDEST PUSH2 0x112D JUMP JUMPDEST STOP JUMPDEST PUSH2 0x440 PUSH1 0x4 DUP1 CALLDATASIZE SUB DUP2 ADD SWAP1 PUSH2 0x43B SWAP2 SWAP1 PUSH2 0x1574 JUMP JUMPDEST PUSH2 0x122C JUMP JUMPDEST PUSH1 0x40 MLOAD PUSH2 0x44F SWAP4 SWAP3 SWAP2 SWAP1 PUSH2 0x17F4 JUMP JUMPDEST PUSH1 0x40 MLOAD DUP1 SWAP2 SUB SWAP1 RETURN JUMPDEST PUSH2 0x472 PUSH1 0x4 DUP1 CALLDATASIZE SUB DUP2 ADD SWAP1 PUSH2 0x46D SWAP2 SWAP1 PUSH2 0x154B JUMP JUMPDEST PUSH2 0x1263 JUMP JUMPDEST STOP JUMPDEST PUSH2 0x48E PUSH1 0x4 DUP1 CALLDATASIZE SUB DUP2 ADD SWAP1 PUSH2 0x489 SWAP2 SWAP1 PUSH2 0x15FF JUMP JUMPDEST PUSH2 0x12E7 JUMP JUMPDEST STOP JUMPDEST PUSH1 0x3 SLOAD DUP2 JUMP JUMPDEST PUSH1 0x1 PUSH1 0x0 SWAP1 SLOAD SWAP1 PUSH2 0x100 EXP SWAP1 DIV PUSH20 0xFFFFFFFFFFFFFFFFFFFFFFFFFFFFFFFFFFFFFFFF AND PUSH20 0xFFFFFFFFFFFFFFFFFFFFFFFFFFFFFFFFFFFFFFFF AND CALLER PUSH20 0xFFFFFFFFFFFFFFFFFFFFFFFFFFFFFFFFFFFFFFFF AND EQ PUSH2 0x526 JUMPI PUSH1 0x40 MLOAD PUSH32 0x8C379A000000000000000000000000000000000000000000000000000000000 DUP2 MSTORE PUSH1 0x4 ADD PUSH2 0x51D SWAP1 PUSH2 0x175E JUMP JUMPDEST PUSH1 0x40 MLOAD DUP1 SWAP2 SUB SWAP1 REVERT JUMPDEST DUP1 PUSH1 0x2 PUSH1 0x0 DUP5 PUSH20 0xFFFFFFFFFFFFFFFFFFFFFFFFFFFFFFFFFFFFFFFF AND PUSH20 0xFFFFFFFFFFFFFFFFFFFFFFFFFFFFFFFFFFFFFFFF AND DUP2 MSTORE PUSH1 0x20 ADD SWAP1 DUP2 MSTORE PUSH1 0x20 ADD PUSH1 0x0 KECCAK256 PUSH1 0x0 DUP3 DUP3 SLOAD PUSH2 0x575 SWAP2 SWAP1 PUSH2 0x183C JUMP JUMPDEST SWAP3 POP POP DUP2 SWAP1 SSTORE POP POP POP JUMP JUMPDEST PUSH1 0x1 PUSH1 0x0 SWAP1 SLOAD SWAP1 PUSH2 0x100 EXP SWAP1 DIV PUSH20 0xFFFFFFFFFFFFFFFFFFFFFFFFFFFFFFFFFFFFFFFF AND PUSH20 0xFFFFFFFFFFFFFFFFFFFFFFFFFFFFFFFFFFFFFFFF AND CALLER PUSH20 0xFFFFFFFFFFFFFFFFFFFFFFFFFFFFFFFFFFFFFFFF AND EQ PUSH2 0x610 JUMPI PUSH1 0x40 MLOAD PUSH32 0x8C379A000000000000000000000000000000000000000000000000000000000 DUP2 MSTORE PUSH1 0x4 ADD PUSH2 0x607 SWAP1 PUSH2 0x175E JUMP JUMPDEST PUSH1 0x40 MLOAD DUP1 SWAP2 SUB SWAP1 REVERT JUMPDEST DUP1 PUSH1 0x3 PUSH1 0x0 DUP3 DUP3 SLOAD PUSH2 0x622 SWAP2 SWAP1 PUSH2 0x1892 JUMP JUMPDEST SWAP3 POP POP DUP2 SWAP1 SSTORE POP POP JUMP JUMPDEST PUSH1 0x1 PUSH1 0x0 SWAP1 SLOAD SWAP1 PUSH2 0x100 EXP SWAP1 DIV PUSH20 0xFFFFFFFFFFFFFFFFFFFFFFFFFFFFFFFFFFFFFFFF AND PUSH20 0xFFFFFFFFFFFFFFFFFFFFFFFFFFFFFFFFFFFFFFFF AND CALLER PUSH20 0xFFFFFFFFFFFFFFFFFFFFFFFFFFFFFFFFFFFFFFFF AND EQ PUSH2 0x6BC JUMPI PUSH1 0x40 MLOAD PUSH32 0x8C379A000000000000000000000000000000000000000000000000000000000 DUP2 MSTORE PUSH1 0x4 ADD PUSH2 0x6B3 SWAP1 PUSH2 0x175E JUMP JUMPDEST PUSH1 0x40 MLOAD DUP1 SWAP2 SUB SWAP1 REVERT JUMPDEST PUSH1 0x0 PUSH1 0x40 MLOAD DUP1 PUSH1 0x60 ADD PUSH1 0x40 MSTORE DUP1 DUP5 DUP2 MSTORE PUSH1 0x20 ADD DUP4 DUP2 MSTORE PUSH1 0x20 ADD PUSH1 0x0 DUP2 MSTORE POP SWAP1 POP PUSH1 0x0 PUSH1 0x7 PUSH1 0x0 DUP7 PUSH20 0xFFFFFFFFFFFFFFFFFFFFFFFFFFFFFFFFFFFFFFFF AND PUSH20 0xFFFFFFFFFFFFFFFFFFFFFFFFFFFFFFFFFFFFFFFF AND DUP2 MSTORE PUSH1 0x20 ADD SWAP1 DUP2 MSTORE PUSH1 0x20 ADD PUSH1 0x0 KECCAK256 SLOAD SWAP1 POP PUSH1 0x0 PUSH1 0x1 DUP3 PUSH2 0x72F SWAP2 SWAP1 PUSH2 0x183C JUMP JUMPDEST SWAP1 POP DUP3 PUSH1 0x8 PUSH1 0x0 DUP9 PUSH20 0xFFFFFFFFFFFFFFFFFFFFFFFFFFFFFFFFFFFFFFFF AND PUSH20 0xFFFFFFFFFFFFFFFFFFFFFFFFFFFFFFFFFFFFFFFF AND DUP2 MSTORE PUSH1 0x20 ADD SWAP1 DUP2 MSTORE PUSH1 0x20 ADD PUSH1 0x0 KECCAK256 PUSH1 0x0 DUP4 DUP2 MSTORE PUSH1 0x20 ADD SWAP1 DUP2 MSTORE PUSH1 0x20 ADD PUSH1 0x0 KECCAK256 PUSH1 0x0 DUP3 ADD MLOAD DUP2 PUSH1 0x0 ADD SSTORE PUSH1 0x20 DUP3 ADD MLOAD DUP2 PUSH1 0x1 ADD SSTORE PUSH1 0x40 DUP3 ADD MLOAD DUP2 PUSH1 0x2 ADD SSTORE SWAP1 POP POP PUSH1 0x0 DUP3 EQ PUSH2 0x804 JUMPI DUP1 PUSH1 0x8 PUSH1 0x0 DUP9 PUSH20 0xFFFFFFFFFFFFFFFFFFFFFFFFFFFFFFFFFFFFFFFF AND PUSH20 0xFFFFFFFFFFFFFFFFFFFFFFFFFFFFFFFFFFFFFFFF AND DUP2 MSTORE PUSH1 0x20 ADD SWAP1 DUP2 MSTORE PUSH1 0x20 ADD PUSH1 0x0 KECCAK256 PUSH1 0x0 DUP5 DUP2 MSTORE PUSH1 0x20 ADD SWAP1 DUP2 MSTORE PUSH1 0x20 ADD PUSH1 0x0 KECCAK256 PUSH1 0x2 ADD DUP2 SWAP1 SSTORE POP JUMPDEST DUP1 PUSH1 0x7 PUSH1 0x0 DUP9 PUSH20 0xFFFFFFFFFFFFFFFFFFFFFFFFFFFFFFFFFFFFFFFF AND PUSH20 0xFFFFFFFFFFFFFFFFFFFFFFFFFFFFFFFFFFFFFFFF AND DUP2 MSTORE PUSH1 0x20 ADD SWAP1 DUP2 MSTORE PUSH1 0x20 ADD PUSH1 0x0 KECCAK256 DUP2 SWAP1 SSTORE POP PUSH1 0x0 PUSH1 0x6 PUSH1 0x0 DUP9 PUSH20 0xFFFFFFFFFFFFFFFFFFFFFFFFFFFFFFFFFFFFFFFF AND PUSH20 0xFFFFFFFFFFFFFFFFFFFFFFFFFFFFFFFFFFFFFFFF AND DUP2 MSTORE PUSH1 0x20 ADD SWAP1 DUP2 MSTORE PUSH1 0x20 ADD PUSH1 0x0 KECCAK256 SLOAD EQ ISZERO PUSH2 0x8D5 JUMPI DUP1 PUSH1 0x6 PUSH1 0x0 DUP9 PUSH20 0xFFFFFFFFFFFFFFFFFFFFFFFFFFFFFFFFFFFFFFFF AND PUSH20 0xFFFFFFFFFFFFFFFFFFFFFFFFFFFFFFFFFFFFFFFF AND DUP2 MSTORE PUSH1 0x20 ADD SWAP1 DUP2 MSTORE PUSH1 0x20 ADD PUSH1 0x0 KECCAK256 DUP2 SWAP1 SSTORE POP JUMPDEST POP POP POP POP POP POP JUMP JUMPDEST PUSH1 0x6 PUSH1 0x20 MSTORE DUP1 PUSH1 0x0 MSTORE PUSH1 0x40 PUSH1 0x0 KECCAK256 PUSH1 0x0 SWAP2 POP SWAP1 POP SLOAD DUP2 JUMP JUMPDEST PUSH2 0x8FD PUSH2 0x1393 JUMP JUMPDEST PUSH2 0x907 PUSH1 0x0 PUSH2 0x1411 JUMP JUMPDEST JUMP JUMPDEST PUSH1 0x1 PUSH1 0x0 SWAP1 SLOAD SWAP1 PUSH2 0x100 EXP SWAP1 DIV PUSH20 0xFFFFFFFFFFFFFFFFFFFFFFFFFFFFFFFFFFFFFFFF AND PUSH20 0xFFFFFFFFFFFFFFFFFFFFFFFFFFFFFFFFFFFFFFFF AND CALLER PUSH20 0xFFFFFFFFFFFFFFFFFFFFFFFFFFFFFFFFFFFFFFFF AND EQ PUSH2 0x999 JUMPI PUSH1 0x40 MLOAD PUSH32 0x8C379A000000000000000000000000000000000000000000000000000000000 DUP2 MSTORE PUSH1 0x4 ADD PUSH2 0x990 SWAP1 PUSH2 0x175E JUMP JUMPDEST PUSH1 0x40 MLOAD DUP1 SWAP2 SUB SWAP1 REVERT JUMPDEST DUP1 PUSH1 0x6 PUSH1 0x0 DUP5 PUSH20 0xFFFFFFFFFFFFFFFFFFFFFFFFFFFFFFFFFFFFFFFF AND PUSH20 0xFFFFFFFFFFFFFFFFFFFFFFFFFFFFFFFFFFFFFFFF AND DUP2 MSTORE PUSH1 0x20 ADD SWAP1 DUP2 MSTORE PUSH1 0x20 ADD PUSH1 0x0 KECCAK256 DUP2 SWAP1 SSTORE POP POP POP JUMP JUMPDEST PUSH1 0x1 PUSH1 0x0 SWAP1 SLOAD SWAP1 PUSH2 0x100 EXP SWAP1 DIV PUSH20 0xFFFFFFFFFFFFFFFFFFFFFFFFFFFFFFFFFFFFFFFF AND PUSH20 0xFFFFFFFFFFFFFFFFFFFFFFFFFFFFFFFFFFFFFFFF AND CALLER PUSH20 0xFFFFFFFFFFFFFFFFFFFFFFFFFFFFFFFFFFFFFFFF AND EQ PUSH2 0xA71 JUMPI PUSH1 0x40 MLOAD PUSH32 0x8C379A000000000000000000000000000000000000000000000000000000000 DUP2 MSTORE PUSH1 0x4 ADD PUSH2 0xA68 SWAP1 PUSH2 0x175E JUMP JUMPDEST PUSH1 0x40 MLOAD DUP1 SWAP2 SUB SWAP1 REVERT JUMPDEST DUP1 PUSH1 0x7 PUSH1 0x0 DUP5 PUSH20 0xFFFFFFFFFFFFFFFFFFFFFFFFFFFFFFFFFFFFFFFF AND PUSH20 0xFFFFFFFFFFFFFFFFFFFFFFFFFFFFFFFFFFFFFFFF AND DUP2 MSTORE PUSH1 0x20 ADD SWAP1 DUP2 MSTORE PUSH1 0x20 ADD PUSH1 0x0 KECCAK256 DUP2 SWAP1 SSTORE POP POP POP JUMP JUMPDEST PUSH1 0x0 DUP1 PUSH1 0x0 SWAP1 SLOAD SWAP1 PUSH2 0x100 EXP SWAP1 DIV PUSH20 0xFFFFFFFFFFFFFFFFFFFFFFFFFFFFFFFFFFFFFFFF AND SWAP1 POP SWAP1 JUMP JUMPDEST PUSH1 0x1 PUSH1 0x0 SWAP1 SLOAD SWAP1 PUSH2 0x100 EXP SWAP1 DIV PUSH20 0xFFFFFFFFFFFFFFFFFFFFFFFFFFFFFFFFFFFFFFFF AND PUSH20 0xFFFFFFFFFFFFFFFFFFFFFFFFFFFFFFFFFFFFFFFF AND CALLER PUSH20 0xFFFFFFFFFFFFFFFFFFFFFFFFFFFFFFFFFFFFFFFF AND EQ PUSH2 0xB72 JUMPI PUSH1 0x40 MLOAD PUSH32 0x8C379A000000000000000000000000000000000000000000000000000000000 DUP2 MSTORE PUSH1 0x4 ADD PUSH2 0xB69 SWAP1 PUSH2 0x175E JUMP JUMPDEST PUSH1 0x40 MLOAD DUP1 SWAP2 SUB SWAP1 REVERT JUMPDEST DUP1 PUSH1 0x5 PUSH1 0x0 DUP3 DUP3 SLOAD PUSH2 0xB84 SWAP2 SWAP1 PUSH2 0x183C JUMP JUMPDEST SWAP3 POP POP DUP2 SWAP1 SSTORE POP POP JUMP JUMPDEST PUSH1 0x2 PUSH1 0x20 MSTORE DUP1 PUSH1 0x0 MSTORE PUSH1 0x40 PUSH1 0x0 KECCAK256 PUSH1 0x0 SWAP2 POP SWAP1 POP SLOAD DUP2 JUMP JUMPDEST PUSH2 0xBAE PUSH2 0x1500 JUMP JUMPDEST PUSH1 0x8 PUSH1 0x0 DUP5 PUSH20 0xFFFFFFFFFFFFFFFFFFFFFFFFFFFFFFFFFFFFFFFF AND PUSH20 0xFFFFFFFFFFFFFFFFFFFFFFFFFFFFFFFFFFFFFFFF AND DUP2 MSTORE PUSH1 0x20 ADD SWAP1 DUP2 MSTORE PUSH1 0x20 ADD PUSH1 0x0 KECCAK256 PUSH1 0x0 DUP4 DUP2 MSTORE PUSH1 0x20 ADD SWAP1 DUP2 MSTORE PUSH1 0x20 ADD PUSH1 0x0 KECCAK256 PUSH1 0x40 MLOAD DUP1 PUSH1 0x60 ADD PUSH1 0x40 MSTORE SWAP1 DUP2 PUSH1 0x0 DUP3 ADD SLOAD DUP2 MSTORE PUSH1 0x20 ADD PUSH1 0x1 DUP3 ADD SLOAD DUP2 MSTORE PUSH1 0x20 ADD PUSH1 0x2 DUP3 ADD SLOAD DUP2 MSTORE POP POP SWAP1 POP SWAP3 SWAP2 POP POP JUMP JUMPDEST PUSH2 0xC37 PUSH2 0x1393 JUMP JUMPDEST PUSH2 0xC56 DUP2 PUSH20 0xFFFFFFFFFFFFFFFFFFFFFFFFFFFFFFFFFFFFFFFF AND PUSH2 0x14D5 JUMP JUMPDEST PUSH2 0xC95 JUMPI PUSH1 0x40 MLOAD PUSH32 0x8C379A000000000000000000000000000000000000000000000000000000000 DUP2 MSTORE PUSH1 0x4 ADD PUSH2 0xC8C SWAP1 PUSH2 0x177E JUMP JUMPDEST PUSH1 0x40 MLOAD DUP1 SWAP2 SUB SWAP1 REVERT JUMPDEST DUP1 PUSH1 0x1 PUSH1 0x0 PUSH2 0x100 EXP DUP2 SLOAD DUP2 PUSH20 0xFFFFFFFFFFFFFFFFFFFFFFFFFFFFFFFFFFFFFFFF MUL NOT AND SWAP1 DUP4 PUSH20 0xFFFFFFFFFFFFFFFFFFFFFFFFFFFFFFFFFFFFFFFF AND MUL OR SWAP1 SSTORE POP DUP1 PUSH20 0xFFFFFFFFFFFFFFFFFFFFFFFFFFFFFFFFFFFFFFFF AND PUSH32 0x1DF63AE92209F649860864C3A25A9524CC95F1617FFC90BAB74D549D3BD3F5AA PUSH1 0x40 MLOAD PUSH1 0x40 MLOAD DUP1 SWAP2 SUB SWAP1 LOG2 POP JUMP JUMPDEST PUSH1 0x7 PUSH1 0x20 MSTORE DUP1 PUSH1 0x0 MSTORE PUSH1 0x40 PUSH1 0x0 KECCAK256 PUSH1 0x0 SWAP2 POP SWAP1 POP SLOAD DUP2 JUMP JUMPDEST PUSH1 0x1 PUSH1 0x0 SWAP1 SLOAD SWAP1 PUSH2 0x100 EXP SWAP1 DIV PUSH20 0xFFFFFFFFFFFFFFFFFFFFFFFFFFFFFFFFFFFFFFFF AND PUSH20 0xFFFFFFFFFFFFFFFFFFFFFFFFFFFFFFFFFFFFFFFF AND CALLER PUSH20 0xFFFFFFFFFFFFFFFFFFFFFFFFFFFFFFFFFFFFFFFF AND EQ PUSH2 0xDC4 JUMPI PUSH1 0x40 MLOAD PUSH32 0x8C379A000000000000000000000000000000000000000000000000000000000 DUP2 MSTORE PUSH1 0x4 ADD PUSH2 0xDBB SWAP1 PUSH2 0x175E JUMP JUMPDEST PUSH1 0x40 MLOAD DUP1 SWAP2 SUB SWAP1 REVERT JUMPDEST DUP1 PUSH1 0x5 PUSH1 0x0 DUP3 DUP3 SLOAD PUSH2 0xDD6 SWAP2 SWAP1 PUSH2 0x1892 JUMP JUMPDEST SWAP3 POP POP DUP2 SWAP1 SSTORE POP POP JUMP JUMPDEST PUSH1 0x4 SLOAD DUP2 JUMP JUMPDEST PUSH1 0x1 PUSH1 0x0 SWAP1 SLOAD SWAP1 PUSH2 0x100 EXP SWAP1 DIV PUSH20 0xFFFFFFFFFFFFFFFFFFFFFFFFFFFFFFFFFFFFFFFF AND PUSH20 0xFFFFFFFFFFFFFFFFFFFFFFFFFFFFFFFFFFFFFFFF AND CALLER PUSH20 0xFFFFFFFFFFFFFFFFFFFFFFFFFFFFFFFFFFFFFFFF AND EQ PUSH2 0xE76 JUMPI PUSH1 0x40 MLOAD PUSH32 0x8C379A000000000000000000000000000000000000000000000000000000000 DUP2 MSTORE PUSH1 0x4 ADD PUSH2 0xE6D SWAP1 PUSH2 0x175E JUMP JUMPDEST PUSH1 0x40 MLOAD DUP1 SWAP2 SUB SWAP1 REVERT JUMPDEST DUP1 PUSH1 0x2 PUSH1 0x0 DUP5 PUSH20 0xFFFFFFFFFFFFFFFFFFFFFFFFFFFFFFFFFFFFFFFF AND PUSH20 0xFFFFFFFFFFFFFFFFFFFFFFFFFFFFFFFFFFFFFFFF AND DUP2 MSTORE PUSH1 0x20 ADD SWAP1 DUP2 MSTORE PUSH1 0x20 ADD PUSH1 0x0 KECCAK256 PUSH1 0x0 DUP3 DUP3 SLOAD PUSH2 0xEC5 SWAP2 SWAP1 PUSH2 0x1892 JUMP JUMPDEST SWAP3 POP POP DUP2 SWAP1 SSTORE POP POP POP JUMP JUMPDEST PUSH1 0x1 PUSH1 0x0 SWAP1 SLOAD SWAP1 PUSH2 0x100 EXP SWAP1 DIV PUSH20 0xFFFFFFFFFFFFFFFFFFFFFFFFFFFFFFFFFFFFFFFF AND PUSH20 0xFFFFFFFFFFFFFFFFFFFFFFFFFFFFFFFFFFFFFFFF AND CALLER PUSH20 0xFFFFFFFFFFFFFFFFFFFFFFFFFFFFFFFFFFFFFFFF AND EQ PUSH2 0xF60 JUMPI PUSH1 0x40 MLOAD PUSH32 0x8C379A000000000000000000000000000000000000000000000000000000000 DUP2 MSTORE PUSH1 0x4 ADD PUSH2 0xF57 SWAP1 PUSH2 0x175E JUMP JUMPDEST PUSH1 0x40 MLOAD DUP1 SWAP2 SUB SWAP1 REVERT JUMPDEST DUP1 PUSH1 0x4 PUSH1 0x0 DUP3 DUP3 SLOAD PUSH2 0xF72 SWAP2 SWAP1 PUSH2 0x183C JUMP JUMPDEST SWAP3 POP POP DUP2 SWAP1 SSTORE POP POP JUMP JUMPDEST PUSH1 0x5 SLOAD DUP2 JUMP JUMPDEST PUSH1 0x1 PUSH1 0x0 SWAP1 SLOAD SWAP1 PUSH2 0x100 EXP SWAP1 DIV PUSH20 0xFFFFFFFFFFFFFFFFFFFFFFFFFFFFFFFFFFFFFFFF AND PUSH20 0xFFFFFFFFFFFFFFFFFFFFFFFFFFFFFFFFFFFFFFFF AND CALLER PUSH20 0xFFFFFFFFFFFFFFFFFFFFFFFFFFFFFFFFFFFFFFFF AND EQ PUSH2 0x1012 JUMPI PUSH1 0x40 MLOAD PUSH32 0x8C379A000000000000000000000000000000000000000000000000000000000 DUP2 MSTORE PUSH1 0x4 ADD PUSH2 0x1009 SWAP1 PUSH2 0x175E JUMP JUMPDEST PUSH1 0x40 MLOAD DUP1 SWAP2 SUB SWAP1 REVERT JUMPDEST PUSH1 0x8 PUSH1 0x0 DUP4 PUSH20 0xFFFFFFFFFFFFFFFFFFFFFFFFFFFFFFFFFFFFFFFF AND PUSH20 0xFFFFFFFFFFFFFFFFFFFFFFFFFFFFFFFFFFFFFFFF AND DUP2 MSTORE PUSH1 0x20 ADD SWAP1 DUP2 MSTORE PUSH1 0x20 ADD PUSH1 0x0 KECCAK256 PUSH1 0x0 DUP3 DUP2 MSTORE PUSH1 0x20 ADD SWAP1 DUP2 MSTORE PUSH1 0x20 ADD PUSH1 0x0 KECCAK256 PUSH1 0x0 DUP1 DUP3 ADD PUSH1 0x0 SWAP1 SSTORE PUSH1 0x1 DUP3 ADD PUSH1 0x0 SWAP1 SSTORE PUSH1 0x2 DUP3 ADD PUSH1 0x0 SWAP1 SSTORE POP POP POP POP JUMP JUMPDEST PUSH1 0x1 PUSH1 0x0 SWAP1 SLOAD SWAP1 PUSH2 0x100 EXP SWAP1 DIV PUSH20 0xFFFFFFFFFFFFFFFFFFFFFFFFFFFFFFFFFFFFFFFF AND PUSH20 0xFFFFFFFFFFFFFFFFFFFFFFFFFFFFFFFFFFFFFFFF AND CALLER PUSH20 0xFFFFFFFFFFFFFFFFFFFFFFFFFFFFFFFFFFFFFFFF AND EQ PUSH2 0x1111 JUMPI PUSH1 0x40 MLOAD PUSH32 0x8C379A000000000000000000000000000000000000000000000000000000000 DUP2 MSTORE PUSH1 0x4 ADD PUSH2 0x1108 SWAP1 PUSH2 0x175E JUMP JUMPDEST PUSH1 0x40 MLOAD DUP1 SWAP2 SUB SWAP1 REVERT JUMPDEST DUP1 PUSH1 0x3 PUSH1 0x0 DUP3 DUP3 SLOAD PUSH2 0x1123 SWAP2 SWAP1 PUSH2 0x183C JUMP JUMPDEST SWAP3 POP POP DUP2 SWAP1 SSTORE POP POP JUMP JUMPDEST PUSH1 0x1 PUSH1 0x0 SWAP1 SLOAD SWAP1 PUSH2 0x100 EXP SWAP1 DIV PUSH20 0xFFFFFFFFFFFFFFFFFFFFFFFFFFFFFFFFFFFFFFFF AND PUSH20 0xFFFFFFFFFFFFFFFFFFFFFFFFFFFFFFFFFFFFFFFF AND CALLER PUSH20 0xFFFFFFFFFFFFFFFFFFFFFFFFFFFFFFFFFFFFFFFF AND EQ PUSH2 0x11BD JUMPI PUSH1 0x40 MLOAD PUSH32 0x8C379A000000000000000000000000000000000000000000000000000000000 DUP2 MSTORE PUSH1 0x4 ADD PUSH2 0x11B4 SWAP1 PUSH2 0x175E JUMP JUMPDEST PUSH1 0x40 MLOAD DUP1 SWAP2 SUB SWAP1 REVERT JUMPDEST DUP1 PUSH1 0x8 PUSH1 0x0 DUP6 PUSH20 0xFFFFFFFFFFFFFFFFFFFFFFFFFFFFFFFFFFFFFFFF AND PUSH20 0xFFFFFFFFFFFFFFFFFFFFFFFFFFFFFFFFFFFFFFFF AND DUP2 MSTORE PUSH1 0x20 ADD SWAP1 DUP2 MSTORE PUSH1 0x20 ADD PUSH1 0x0 KECCAK256 PUSH1 0x0 DUP5 DUP2 MSTORE PUSH1 0x20 ADD SWAP1 DUP2 MSTORE PUSH1 0x20 ADD PUSH1 0x0 KECCAK256 PUSH1 0x1 ADD PUSH1 0x0 DUP3 DUP3 SLOAD PUSH2 0x1220 SWAP2 SWAP1 PUSH2 0x1892 JUMP JUMPDEST SWAP3 POP POP DUP2 SWAP1 SSTORE POP POP POP POP JUMP JUMPDEST PUSH1 0x8 PUSH1 0x20 MSTORE DUP2 PUSH1 0x0 MSTORE PUSH1 0x40 PUSH1 0x0 KECCAK256 PUSH1 0x20 MSTORE DUP1 PUSH1 0x0 MSTORE PUSH1 0x40 PUSH1 0x0 KECCAK256 PUSH1 0x0 SWAP2 POP SWAP2 POP POP DUP1 PUSH1 0x0 ADD SLOAD SWAP1 DUP1 PUSH1 0x1 ADD SLOAD SWAP1 DUP1 PUSH1 0x2 ADD SLOAD SWAP1 POP DUP4 JUMP JUMPDEST PUSH2 0x126B PUSH2 0x1393 JUMP JUMPDEST PUSH1 0x0 PUSH20 0xFFFFFFFFFFFFFFFFFFFFFFFFFFFFFFFFFFFFFFFF AND DUP2 PUSH20 0xFFFFFFFFFFFFFFFFFFFFFFFFFFFFFFFFFFFFFFFF AND EQ ISZERO PUSH2 0x12DB JUMPI PUSH1 0x40 MLOAD PUSH32 0x8C379A000000000000000000000000000000000000000000000000000000000 DUP2 MSTORE PUSH1 0x4 ADD PUSH2 0x12D2 SWAP1 PUSH2 0x173E JUMP JUMPDEST PUSH1 0x40 MLOAD DUP1 SWAP2 SUB SWAP1 REVERT JUMPDEST PUSH2 0x12E4 DUP2 PUSH2 0x1411 JUMP JUMPDEST POP JUMP JUMPDEST PUSH1 0x1 PUSH1 0x0 SWAP1 SLOAD SWAP1 PUSH2 0x100 EXP SWAP1 DIV PUSH20 0xFFFFFFFFFFFFFFFFFFFFFFFFFFFFFFFFFFFFFFFF AND PUSH20 0xFFFFFFFFFFFFFFFFFFFFFFFFFFFFFFFFFFFFFFFF AND CALLER PUSH20 0xFFFFFFFFFFFFFFFFFFFFFFFFFFFFFFFFFFFFFFFF AND EQ PUSH2 0x1377 JUMPI PUSH1 0x40 MLOAD PUSH32 0x8C379A000000000000000000000000000000000000000000000000000000000 DUP2 MSTORE PUSH1 0x4 ADD PUSH2 0x136E SWAP1 PUSH2 0x175E JUMP JUMPDEST PUSH1 0x40 MLOAD DUP1 SWAP2 SUB SWAP1 REVERT JUMPDEST DUP1 PUSH1 0x4 PUSH1 0x0 DUP3 DUP3 SLOAD PUSH2 0x1389 SWAP2 SWAP1 PUSH2 0x1892 JUMP JUMPDEST SWAP3 POP POP DUP2 SWAP1 SSTORE POP POP JUMP JUMPDEST PUSH2 0x139B PUSH2 0x14F8 JUMP JUMPDEST PUSH20 0xFFFFFFFFFFFFFFFFFFFFFFFFFFFFFFFFFFFFFFFF AND PUSH2 0x13B9 PUSH2 0xAB9 JUMP JUMPDEST PUSH20 0xFFFFFFFFFFFFFFFFFFFFFFFFFFFFFFFFFFFFFFFF AND EQ PUSH2 0x140F JUMPI PUSH1 0x40 MLOAD PUSH32 0x8C379A000000000000000000000000000000000000000000000000000000000 DUP2 MSTORE PUSH1 0x4 ADD PUSH2 0x1406 SWAP1 PUSH2 0x179E JUMP JUMPDEST PUSH1 0x40 MLOAD DUP1 SWAP2 SUB SWAP1 REVERT JUMPDEST JUMP JUMPDEST PUSH1 0x0 DUP1 PUSH1 0x0 SWAP1 SLOAD SWAP1 PUSH2 0x100 EXP SWAP1 DIV PUSH20 0xFFFFFFFFFFFFFFFFFFFFFFFFFFFFFFFFFFFFFFFF AND SWAP1 POP DUP2 PUSH1 0x0 DUP1 PUSH2 0x100 EXP DUP2 SLOAD DUP2 PUSH20 0xFFFFFFFFFFFFFFFFFFFFFFFFFFFFFFFFFFFFFFFF MUL NOT AND SWAP1 DUP4 PUSH20 0xFFFFFFFFFFFFFFFFFFFFFFFFFFFFFFFFFFFFFFFF AND MUL OR SWAP1 SSTORE POP DUP2 PUSH20 0xFFFFFFFFFFFFFFFFFFFFFFFFFFFFFFFFFFFFFFFF AND DUP2 PUSH20 0xFFFFFFFFFFFFFFFFFFFFFFFFFFFFFFFFFFFFFFFF AND PUSH32 0x8BE0079C531659141344CD1FD0A4F28419497F9722A3DAAFE3B4186F6B6457E0 PUSH1 0x40 MLOAD PUSH1 0x40 MLOAD DUP1 SWAP2 SUB SWAP1 LOG3 POP POP JUMP JUMPDEST PUSH1 0x0 DUP1 DUP3 PUSH20 0xFFFFFFFFFFFFFFFFFFFFFFFFFFFFFFFFFFFFFFFF AND EXTCODESIZE GT SWAP1 POP SWAP2 SWAP1 POP JUMP JUMPDEST PUSH1 0x0 CALLER SWAP1 POP SWAP1 JUMP JUMPDEST PUSH1 0x40 MLOAD DUP1 PUSH1 0x60 ADD PUSH1 0x40 MSTORE DUP1 PUSH1 0x0 DUP2 MSTORE PUSH1 0x20 ADD PUSH1 0x0 DUP2 MSTORE PUSH1 0x20 ADD PUSH1 0x0 DUP2 MSTORE POP SWAP1 JUMP JUMPDEST PUSH1 0x0 DUP2 CALLDATALOAD SWAP1 POP PUSH2 0x1530 DUP2 PUSH2 0x1A47 JUMP JUMPDEST SWAP3 SWAP2 POP POP JUMP JUMPDEST PUSH1 0x0 DUP2 CALLDATALOAD SWAP1 POP PUSH2 0x1545 DUP2 PUSH2 0x1A5E JUMP JUMPDEST SWAP3 SWAP2 POP POP JUMP JUMPDEST PUSH1 0x0 PUSH1 0x20 DUP3 DUP5 SUB SLT ISZERO PUSH2 0x155D JUMPI PUSH1 0x0 DUP1 REVERT JUMPDEST PUSH1 0x0 PUSH2 0x156B DUP5 DUP3 DUP6 ADD PUSH2 0x1521 JUMP JUMPDEST SWAP2 POP POP SWAP3 SWAP2 POP POP JUMP JUMPDEST PUSH1 0x0 DUP1 PUSH1 0x40 DUP4 DUP6 SUB SLT ISZERO PUSH2 0x1587 JUMPI PUSH1 0x0 DUP1 REVERT JUMPDEST PUSH1 0x0 PUSH2 0x1595 DUP6 DUP3 DUP7 ADD PUSH2 0x1521 JUMP JUMPDEST SWAP3 POP POP PUSH1 0x20 PUSH2 0x15A6 DUP6 DUP3 DUP7 ADD PUSH2 0x1536 JUMP JUMPDEST SWAP2 POP POP SWAP3 POP SWAP3 SWAP1 POP JUMP JUMPDEST PUSH1 0x0 DUP1 PUSH1 0x0 PUSH1 0x60 DUP5 DUP7 SUB SLT ISZERO PUSH2 0x15C5 JUMPI PUSH1 0x0 DUP1 REVERT JUMPDEST PUSH1 0x0 PUSH2 0x15D3 DUP7 DUP3 DUP8 ADD PUSH2 0x1521 JUMP JUMPDEST SWAP4 POP POP PUSH1 0x20 PUSH2 0x15E4 DUP7 DUP3 DUP8 ADD PUSH2 0x1536 JUMP JUMPDEST SWAP3 POP POP PUSH1 0x40 PUSH2 0x15F5 DUP7 DUP3 DUP8 ADD PUSH2 0x1536 JUMP JUMPDEST SWAP2 POP POP SWAP3 POP SWAP3 POP SWAP3 JUMP JUMPDEST PUSH1 0x0 PUSH1 0x20 DUP3 DUP5 SUB SLT ISZERO PUSH2 0x1611 JUMPI PUSH1 0x0 DUP1 REVERT JUMPDEST PUSH1 0x0 PUSH2 0x161F DUP5 DUP3 DUP6 ADD PUSH2 0x1536 JUMP JUMPDEST SWAP2 POP POP SWAP3 SWAP2 POP POP JUMP JUMPDEST PUSH2 0x1631 DUP2 PUSH2 0x18C6 JUMP JUMPDEST DUP3 MSTORE POP POP JUMP JUMPDEST PUSH1 0x0 PUSH2 0x1644 PUSH1 0x26 DUP4 PUSH2 0x182B JUMP JUMPDEST SWAP2 POP PUSH2 0x164F DUP3 PUSH2 0x1931 JUMP JUMPDEST PUSH1 0x40 DUP3 ADD SWAP1 POP SWAP2 SWAP1 POP JUMP JUMPDEST PUSH1 0x0 PUSH2 0x1667 PUSH1 0x28 DUP4 PUSH2 0x182B JUMP JUMPDEST SWAP2 POP PUSH2 0x1672 DUP3 PUSH2 0x1980 JUMP JUMPDEST PUSH1 0x40 DUP3 ADD SWAP1 POP SWAP2 SWAP1 POP JUMP JUMPDEST PUSH1 0x0 PUSH2 0x168A PUSH1 0x2E DUP4 PUSH2 0x182B JUMP JUMPDEST SWAP2 POP PUSH2 0x1695 DUP3 PUSH2 0x19CF JUMP JUMPDEST PUSH1 0x40 DUP3 ADD SWAP1 POP SWAP2 SWAP1 POP JUMP JUMPDEST PUSH1 0x0 PUSH2 0x16AD PUSH1 0x20 DUP4 PUSH2 0x182B JUMP JUMPDEST SWAP2 POP PUSH2 0x16B8 DUP3 PUSH2 0x1A1E JUMP JUMPDEST PUSH1 0x20 DUP3 ADD SWAP1 POP SWAP2 SWAP1 POP JUMP JUMPDEST PUSH1 0x60 DUP3 ADD PUSH1 0x0 DUP3 ADD MLOAD PUSH2 0x16D9 PUSH1 0x0 DUP6 ADD DUP3 PUSH2 0x1705 JUMP JUMPDEST POP PUSH1 0x20 DUP3 ADD MLOAD PUSH2 0x16EC PUSH1 0x20 DUP6 ADD DUP3 PUSH2 0x1705 JUMP JUMPDEST POP PUSH1 0x40 DUP3 ADD MLOAD PUSH2 0x16FF PUSH1 0x40 DUP6 ADD DUP3 PUSH2 0x1705 JUMP JUMPDEST POP POP POP POP JUMP JUMPDEST PUSH2 0x170E DUP2 PUSH2 0x18F8 JUMP JUMPDEST DUP3 MSTORE POP POP JUMP JUMPDEST PUSH2 0x171D DUP2 PUSH2 0x18F8 JUMP JUMPDEST DUP3 MSTORE POP POP JUMP JUMPDEST PUSH1 0x0 PUSH1 0x20 DUP3 ADD SWAP1 POP PUSH2 0x1738 PUSH1 0x0 DUP4 ADD DUP5 PUSH2 0x1628 JUMP JUMPDEST SWAP3 SWAP2 POP POP JUMP JUMPDEST PUSH1 0x0 PUSH1 0x20 DUP3 ADD SWAP1 POP DUP2 DUP2 SUB PUSH1 0x0 DUP4 ADD MSTORE PUSH2 0x1757 DUP2 PUSH2 0x1637 JUMP JUMPDEST SWAP1 POP SWAP2 SWAP1 POP JUMP JUMPDEST PUSH1 0x0 PUSH1 0x20 DUP3 ADD SWAP1 POP DUP2 DUP2 SUB PUSH1 0x0 DUP4 ADD MSTORE PUSH2 0x1777 DUP2 PUSH2 0x165A JUMP JUMPDEST SWAP1 POP SWAP2 SWAP1 POP JUMP JUMPDEST PUSH1 0x0 PUSH1 0x20 DUP3 ADD SWAP1 POP DUP2 DUP2 SUB PUSH1 0x0 DUP4 ADD MSTORE PUSH2 0x1797 DUP2 PUSH2 0x167D JUMP JUMPDEST SWAP1 POP SWAP2 SWAP1 POP JUMP JUMPDEST PUSH1 0x0 PUSH1 0x20 DUP3 ADD SWAP1 POP DUP2 DUP2 SUB PUSH1 0x0 DUP4 ADD MSTORE PUSH2 0x17B7 DUP2 PUSH2 0x16A0 JUMP JUMPDEST SWAP1 POP SWAP2 SWAP1 POP JUMP JUMPDEST PUSH1 0x0 PUSH1 0x60 DUP3 ADD SWAP1 POP PUSH2 0x17D3 PUSH1 0x0 DUP4 ADD DUP5 PUSH2 0x16C3 JUMP JUMPDEST SWAP3 SWAP2 POP POP JUMP JUMPDEST PUSH1 0x0 PUSH1 0x20 DUP3 ADD SWAP1 POP PUSH2 0x17EE PUSH1 0x0 DUP4 ADD DUP5 PUSH2 0x1714 JUMP JUMPDEST SWAP3 SWAP2 POP POP JUMP JUMPDEST PUSH1 0x0 PUSH1 0x60 DUP3 ADD SWAP1 POP PUSH2 0x1809 PUSH1 0x0 DUP4 ADD DUP7 PUSH2 0x1714 JUMP JUMPDEST PUSH2 0x1816 PUSH1 0x20 DUP4 ADD DUP6 PUSH2 0x1714 JUMP JUMPDEST PUSH2 0x1823 PUSH1 0x40 DUP4 ADD DUP5 PUSH2 0x1714 JUMP JUMPDEST SWAP5 SWAP4 POP POP POP POP JUMP JUMPDEST PUSH1 0x0 DUP3 DUP3 MSTORE PUSH1 0x20 DUP3 ADD SWAP1 POP SWAP3 SWAP2 POP POP JUMP JUMPDEST PUSH1 0x0 PUSH2 0x1847 DUP3 PUSH2 0x18F8 JUMP JUMPDEST SWAP2 POP PUSH2 0x1852 DUP4 PUSH2 0x18F8 JUMP JUMPDEST SWAP3 POP DUP3 PUSH32 0xFFFFFFFFFFFFFFFFFFFFFFFFFFFFFFFFFFFFFFFFFFFFFFFFFFFFFFFFFFFFFFFF SUB DUP3 GT ISZERO PUSH2 0x1887 JUMPI PUSH2 0x1886 PUSH2 0x1902 JUMP JUMPDEST JUMPDEST DUP3 DUP3 ADD SWAP1 POP SWAP3 SWAP2 POP POP JUMP JUMPDEST PUSH1 0x0 PUSH2 0x189D DUP3 PUSH2 0x18F8 JUMP JUMPDEST SWAP2 POP PUSH2 0x18A8 DUP4 PUSH2 0x18F8 JUMP JUMPDEST SWAP3 POP DUP3 DUP3 LT ISZERO PUSH2 0x18BB JUMPI PUSH2 0x18BA PUSH2 0x1902 JUMP JUMPDEST JUMPDEST DUP3 DUP3 SUB SWAP1 POP SWAP3 SWAP2 POP POP JUMP JUMPDEST PUSH1 0x0 PUSH2 0x18D1 DUP3 PUSH2 0x18D8 JUMP JUMPDEST SWAP1 POP SWAP2 SWAP1 POP JUMP JUMPDEST PUSH1 0x0 PUSH20 0xFFFFFFFFFFFFFFFFFFFFFFFFFFFFFFFFFFFFFFFF DUP3 AND SWAP1 POP SWAP2 SWAP1 POP JUMP JUMPDEST PUSH1 0x0 DUP2 SWAP1 POP SWAP2 SWAP1 POP JUMP JUMPDEST PUSH32 0x4E487B7100000000000000000000000000000000000000000000000000000000 PUSH1 0x0 MSTORE PUSH1 0x11 PUSH1 0x4 MSTORE PUSH1 0x24 PUSH1 0x0 REVERT JUMPDEST PUSH32 0x4F776E61626C653A206E6577206F776E657220697320746865207A65726F2061 PUSH1 0x0 DUP3 ADD MSTORE PUSH32 0x6464726573730000000000000000000000000000000000000000000000000000 PUSH1 0x20 DUP3 ADD MSTORE POP JUMP JUMPDEST PUSH32 0x4F6E6C7920666C6F77657220636F6E647563746F722063616E20706572666F72 PUSH1 0x0 DUP3 ADD MSTORE PUSH32 0x6D20616374696F6E000000000000000000000000000000000000000000000000 PUSH1 0x20 DUP3 ADD MSTORE POP JUMP JUMPDEST PUSH32 0x6D75737420626520696E7374616E6365206F6620466C6F776572436F696E5374 PUSH1 0x0 DUP3 ADD MSTORE PUSH32 0x6F7261676520636F6E7472616374000000000000000000000000000000000000 PUSH1 0x20 DUP3 ADD MSTORE POP JUMP JUMPDEST PUSH32 0x4F776E61626C653A2063616C6C6572206973206E6F7420746865206F776E6572 PUSH1 0x0 DUP3 ADD MSTORE POP JUMP JUMPDEST PUSH2 0x1A50 DUP2 PUSH2 0x18C6 JUMP JUMPDEST DUP2 EQ PUSH2 0x1A5B JUMPI PUSH1 0x0 DUP1 REVERT JUMPDEST POP JUMP JUMPDEST PUSH2 0x1A67 DUP2 PUSH2 0x18F8 JUMP JUMPDEST DUP2 EQ PUSH2 0x1A72 JUMPI PUSH1 0x0 DUP1 REVERT JUMPDEST POP JUMP INVALID LOG2 PUSH5 0x6970667358 0x22 SLT KECCAK256 STATICCALL SWAP1 0xDE SWAP7 STOP 0x4C RETURNDATASIZE 0xEE GASLIMIT 0xB9 CALLER CALLCODE 0xD0 XOR DUP13 CALLCODE 0x29 0x1E 0xA9 0xDA 0xDC SIGNEXTEND DUP4 NUMBER 0xDC CALLDATASIZE PUSH20 0x62BE9497664736F6C6343000804003300000000 "
				},
				"gasEstimates": {
					"creation": {
						"codeDepositCost": "1365400",
						"executionCost": "infinite",
						"totalCost": "infinite"
					},
					"external": {
						"addBalance(address,uint256)": "infinite",
						"addNode(address,uint256,uint256)": "infinite",
						"addTotalBurned(uint256)": "infinite",
						"addTotalExpired(uint256)": "infinite",
						"addTotalSupply(uint256)": "infinite",
						"firstTBNode(address)": "1626",
						"getTBNodeByIndex(address,uint256)": "infinite",
						"lastTBNode(address)": "1559",
						"owner()": "1289",
						"removeTBNodeByIndex(address,uint256)": "16788",
						"renounceOwnership()": "24532",
						"setFirstTBNode(address,uint256)": "21625",
						"setFlowerConductor(address)": "24248",
						"setLastTBNode(address,uint256)": "21647",
						"subtractBalance(address,uint256)": "infinite",
						"subtractTBNodeByIndexBalance(address,uint256,uint256)": "infinite",
						"subtractTotalBurned(uint256)": "infinite",
						"subtractTotalExpired(uint256)": "infinite",
						"subtractTotalSupply(uint256)": "infinite",
						"tbNodeByIndex(address,uint256)": "infinite",
						"totalBalances(address)": "1625",
						"totalBurned()": "1174",
						"totalExpired()": "1218",
						"totalSupply()": "1153",
						"transferOwnership(address)": "24835"
					}
				},
				"methodIdentifiers": {
					"addBalance(address,uint256)": "21e5383a",
					"addNode(address,uint256,uint256)": "4eb84791",
					"addTotalBurned(uint256)": "93f0f55a",
					"addTotalExpired(uint256)": "d53045c8",
					"addTotalSupply(uint256)": "e468688e",
					"firstTBNode(address)": "6e76c3cf",
					"getTBNodeByIndex(address,uint256)": "b1398144",
					"lastTBNode(address)": "baafd2d8",
					"owner()": "8da5cb5b",
					"removeTBNodeByIndex(address,uint256)": "d89b5ed6",
					"renounceOwnership()": "715018a6",
					"setFirstTBNode(address,uint256)": "7ab436f8",
					"setFlowerConductor(address)": "b9ceb9ef",
					"setLastTBNode(address,uint256)": "85393a8e",
					"subtractBalance(address,uint256)": "cfd4f18a",
					"subtractTBNodeByIndexBalance(address,uint256,uint256)": "ee650665",
					"subtractTotalBurned(uint256)": "c3913991",
					"subtractTotalExpired(uint256)": "f9476278",
					"subtractTotalSupply(uint256)": "4b9ecd54",
					"tbNodeByIndex(address,uint256)": "efe54dd5",
					"totalBalances(address)": "aee9c872",
					"totalBurned()": "d89135cd",
					"totalExpired()": "ce5e9365",
					"totalSupply()": "18160ddd",
					"transferOwnership(address)": "f2fde38b"
				}
			},
			"storageLayout": {
				"storage": [
					{
						"astId": 7,
						"contract": "contracts/FlowerStorage.sol:FlowerStorage",
						"label": "_owner",
						"offset": 0,
						"slot": "0",
						"type": "t_address"
					},
					{
						"astId": 476,
						"contract": "contracts/FlowerStorage.sol:FlowerStorage",
						"label": "flowerConductor",
						"offset": 0,
						"slot": "1",
						"type": "t_address"
					},
					{
						"astId": 501,
						"contract": "contracts/FlowerStorage.sol:FlowerStorage",
						"label": "totalBalances",
						"offset": 0,
						"slot": "2",
						"type": "t_mapping(t_address,t_uint256)"
					},
					{
						"astId": 503,
						"contract": "contracts/FlowerStorage.sol:FlowerStorage",
						"label": "totalSupply",
						"offset": 0,
						"slot": "3",
						"type": "t_uint256"
					},
					{
						"astId": 505,
						"contract": "contracts/FlowerStorage.sol:FlowerStorage",
						"label": "totalExpired",
						"offset": 0,
						"slot": "4",
						"type": "t_uint256"
					},
					{
						"astId": 507,
						"contract": "contracts/FlowerStorage.sol:FlowerStorage",
						"label": "totalBurned",
						"offset": 0,
						"slot": "5",
						"type": "t_uint256"
					},
					{
						"astId": 511,
						"contract": "contracts/FlowerStorage.sol:FlowerStorage",
						"label": "firstTBNode",
						"offset": 0,
						"slot": "6",
						"type": "t_mapping(t_address,t_uint256)"
					},
					{
						"astId": 515,
						"contract": "contracts/FlowerStorage.sol:FlowerStorage",
						"label": "lastTBNode",
						"offset": 0,
						"slot": "7",
						"type": "t_mapping(t_address,t_uint256)"
					},
					{
						"astId": 522,
						"contract": "contracts/FlowerStorage.sol:FlowerStorage",
						"label": "tbNodeByIndex",
						"offset": 0,
						"slot": "8",
						"type": "t_mapping(t_address,t_mapping(t_uint256,t_struct(TBNode)824_storage))"
					}
				],
				"types": {
					"t_address": {
						"encoding": "inplace",
						"label": "address",
						"numberOfBytes": "20"
					},
					"t_mapping(t_address,t_mapping(t_uint256,t_struct(TBNode)824_storage))": {
						"encoding": "mapping",
						"key": "t_address",
						"label": "mapping(address => mapping(uint256 => struct TBNode))",
						"numberOfBytes": "32",
						"value": "t_mapping(t_uint256,t_struct(TBNode)824_storage)"
					},
					"t_mapping(t_address,t_uint256)": {
						"encoding": "mapping",
						"key": "t_address",
						"label": "mapping(address => uint256)",
						"numberOfBytes": "32",
						"value": "t_uint256"
					},
					"t_mapping(t_uint256,t_struct(TBNode)824_storage)": {
						"encoding": "mapping",
						"key": "t_uint256",
						"label": "mapping(uint256 => struct TBNode)",
						"numberOfBytes": "32",
						"value": "t_struct(TBNode)824_storage"
					},
					"t_struct(TBNode)824_storage": {
						"encoding": "inplace",
						"label": "struct TBNode",
						"members": [
							{
								"astId": 819,
								"contract": "contracts/FlowerStorage.sol:FlowerStorage",
								"label": "timestamp",
								"offset": 0,
								"slot": "0",
								"type": "t_uint256"
							},
							{
								"astId": 821,
								"contract": "contracts/FlowerStorage.sol:FlowerStorage",
								"label": "balance",
								"offset": 0,
								"slot": "1",
								"type": "t_uint256"
							},
							{
								"astId": 823,
								"contract": "contracts/FlowerStorage.sol:FlowerStorage",
								"label": "next",
								"offset": 0,
								"slot": "2",
								"type": "t_uint256"
							}
						],
						"numberOfBytes": "96"
					},
					"t_uint256": {
						"encoding": "inplace",
						"label": "uint256",
						"numberOfBytes": "32"
					}
				}
			},
			"userdoc": {
				"kind": "user",
				"methods": {},
				"version": 1
			}
		}
	}
}