{
	"contracts/FlowerStorage.sol": {
		"FlowerStorage": {
			"abi": [
				{
					"inputs": [],
					"stateMutability": "nonpayable",
					"type": "constructor"
				},
				{
					"anonymous": false,
					"inputs": [
						{
							"indexed": true,
							"internalType": "address",
							"name": "previousOwner",
							"type": "address"
						},
						{
							"indexed": true,
							"internalType": "address",
							"name": "newOwner",
							"type": "address"
						}
					],
					"name": "OwnershipTransferred",
					"type": "event"
				},
				{
					"inputs": [
						{
							"internalType": "address",
							"name": "addr",
							"type": "address"
						},
						{
							"internalType": "uint256",
							"name": "amount",
							"type": "uint256"
						},
						{
							"internalType": "uint256",
							"name": "timeToExpire",
							"type": "uint256"
						}
					],
					"name": "addTokens",
					"outputs": [],
					"stateMutability": "nonpayable",
					"type": "function"
				},
				{
					"inputs": [
						{
							"internalType": "address",
							"name": "",
							"type": "address"
						}
					],
					"name": "firstTBNode",
					"outputs": [
						{
							"internalType": "uint256",
							"name": "",
							"type": "uint256"
						}
					],
					"stateMutability": "view",
					"type": "function"
				},
				{
					"inputs": [
						{
							"internalType": "address",
							"name": "",
							"type": "address"
						}
					],
					"name": "lastTBNode",
					"outputs": [
						{
							"internalType": "uint256",
							"name": "",
							"type": "uint256"
						}
					],
					"stateMutability": "view",
					"type": "function"
				},
				{
					"inputs": [],
					"name": "owner",
					"outputs": [
						{
							"internalType": "address",
							"name": "",
							"type": "address"
						}
					],
					"stateMutability": "view",
					"type": "function"
				},
				{
					"inputs": [
						{
							"internalType": "address",
							"name": "addr",
							"type": "address"
						},
						{
							"internalType": "uint256",
							"name": "timeToExpire",
							"type": "uint256"
						}
					],
					"name": "removeExpiredTokens",
					"outputs": [],
					"stateMutability": "nonpayable",
					"type": "function"
				},
				{
					"inputs": [],
					"name": "renounceOwnership",
					"outputs": [],
					"stateMutability": "nonpayable",
					"type": "function"
				},
				{
					"inputs": [
						{
							"internalType": "address",
							"name": "",
							"type": "address"
						},
						{
							"internalType": "uint256",
							"name": "",
							"type": "uint256"
						}
					],
					"name": "tbNodeByIndex",
					"outputs": [
						{
							"internalType": "uint256",
							"name": "timestamp",
							"type": "uint256"
						},
						{
							"internalType": "uint256",
							"name": "balance",
							"type": "uint256"
						},
						{
							"internalType": "uint256",
							"name": "next",
							"type": "uint256"
						}
					],
					"stateMutability": "view",
					"type": "function"
				},
				{
					"inputs": [
						{
							"internalType": "address",
							"name": "",
							"type": "address"
						}
					],
					"name": "totalBalances",
					"outputs": [
						{
							"internalType": "uint256",
							"name": "",
							"type": "uint256"
						}
					],
					"stateMutability": "view",
					"type": "function"
				},
				{
					"inputs": [],
					"name": "totalExpired",
					"outputs": [
						{
							"internalType": "uint256",
							"name": "",
							"type": "uint256"
						}
					],
					"stateMutability": "view",
					"type": "function"
				},
				{
					"inputs": [],
					"name": "totalSupply",
					"outputs": [
						{
							"internalType": "uint256",
							"name": "",
							"type": "uint256"
						}
					],
					"stateMutability": "view",
					"type": "function"
				},
				{
					"inputs": [
						{
							"internalType": "address",
							"name": "newOwner",
							"type": "address"
						}
					],
					"name": "transferOwnership",
					"outputs": [],
					"stateMutability": "nonpayable",
					"type": "function"
				}
			],
			"devdoc": {
				"kind": "dev",
				"methods": {
					"owner()": {
						"details": "Returns the address of the current owner."
					},
					"renounceOwnership()": {
						"details": "Leaves the contract without owner. It will not be possible to call `onlyOwner` functions anymore. Can only be called by the current owner. NOTE: Renouncing ownership will leave the contract without an owner, thereby removing any functionality that is only available to the owner."
					},
					"transferOwnership(address)": {
						"details": "Transfers ownership of the contract to a new account (`newOwner`). Can only be called by the current owner."
					}
				},
				"version": 1
			},
			"evm": {
				"assembly": "    /* \"contracts/FlowerStorage.sol\":155:4452  contract FlowerStorage is Ownable {... */\n  mstore(0x40, 0x80)\n    /* \"contracts/FlowerStorage.sol\":195:304  constructor() {... */\n  callvalue\n  dup1\n  iszero\n  tag_1\n  jumpi\n  0x00\n  dup1\n  revert\ntag_1:\n  pop\n    /* \"@openzeppelin/contracts/access/Ownable.sol\":936:968  _transferOwnership(_msgSender()) */\n  tag_5\n    /* \"@openzeppelin/contracts/access/Ownable.sol\":955:967  _msgSender() */\n  tag_6\n    /* \"@openzeppelin/contracts/access/Ownable.sol\":955:965  _msgSender */\n  shl(0x20, tag_7)\n    /* \"@openzeppelin/contracts/access/Ownable.sol\":955:967  _msgSender() */\n  0x20\n  shr\n  jump\t// in\ntag_6:\n    /* \"@openzeppelin/contracts/access/Ownable.sol\":936:954  _transferOwnership */\n  shl(0x20, tag_8)\n    /* \"@openzeppelin/contracts/access/Ownable.sol\":936:968  _transferOwnership(_msgSender()) */\n  0x20\n  shr\n  jump\t// in\ntag_5:\n    /* \"contracts/FlowerStorage.sol\":268:297  transferOwnership(msg.sender) */\n  tag_10\n    /* \"contracts/FlowerStorage.sol\":286:296  msg.sender */\n  caller\n    /* \"contracts/FlowerStorage.sol\":268:285  transferOwnership */\n  shl(0x20, tag_11)\n    /* \"contracts/FlowerStorage.sol\":268:297  transferOwnership(msg.sender) */\n  0x20\n  shr\n  jump\t// in\ntag_10:\n    /* \"contracts/FlowerStorage.sol\":155:4452  contract FlowerStorage is Ownable {... */\n  jump(tag_12)\n    /* \"@openzeppelin/contracts/utils/Context.sol\":640:736  function _msgSender() internal view virtual returns (address) {... */\ntag_7:\n    /* \"@openzeppelin/contracts/utils/Context.sol\":693:700  address */\n  0x00\n    /* \"@openzeppelin/contracts/utils/Context.sol\":719:729  msg.sender */\n  caller\n    /* \"@openzeppelin/contracts/utils/Context.sol\":712:729  return msg.sender */\n  swap1\n  pop\n    /* \"@openzeppelin/contracts/utils/Context.sol\":640:736  function _msgSender() internal view virtual returns (address) {... */\n  swap1\n  jump\t// out\n    /* \"@openzeppelin/contracts/access/Ownable.sol\":2433:2620  function _transferOwnership(address newOwner) internal virtual {... */\ntag_8:\n    /* \"@openzeppelin/contracts/access/Ownable.sol\":2506:2522  address oldOwner */\n  0x00\n    /* \"@openzeppelin/contracts/access/Ownable.sol\":2525:2531  _owner */\n  dup1\n  0x00\n  swap1\n  sload\n  swap1\n  0x0100\n  exp\n  swap1\n  div\n  0xffffffffffffffffffffffffffffffffffffffff\n  and\n    /* \"@openzeppelin/contracts/access/Ownable.sol\":2506:2531  address oldOwner = _owner */\n  swap1\n  pop\n    /* \"@openzeppelin/contracts/access/Ownable.sol\":2550:2558  newOwner */\n  dup2\n    /* \"@openzeppelin/contracts/access/Ownable.sol\":2541:2547  _owner */\n  0x00\n  dup1\n    /* \"@openzeppelin/contracts/access/Ownable.sol\":2541:2558  _owner = newOwner */\n  0x0100\n  exp\n  dup2\n  sload\n  dup2\n  0xffffffffffffffffffffffffffffffffffffffff\n  mul\n  not\n  and\n  swap1\n  dup4\n  0xffffffffffffffffffffffffffffffffffffffff\n  and\n  mul\n  or\n  swap1\n  sstore\n  pop\n    /* \"@openzeppelin/contracts/access/Ownable.sol\":2604:2612  newOwner */\n  dup2\n    /* \"@openzeppelin/contracts/access/Ownable.sol\":2573:2613  OwnershipTransferred(oldOwner, newOwner) */\n  0xffffffffffffffffffffffffffffffffffffffff\n  and\n    /* \"@openzeppelin/contracts/access/Ownable.sol\":2594:2602  oldOwner */\n  dup2\n    /* \"@openzeppelin/contracts/access/Ownable.sol\":2573:2613  OwnershipTransferred(oldOwner, newOwner) */\n  0xffffffffffffffffffffffffffffffffffffffff\n  and\n  0x8be0079c531659141344cd1fd0a4f28419497f9722a3daafe3b4186f6b6457e0\n  mload(0x40)\n  mload(0x40)\n  dup1\n  swap2\n  sub\n  swap1\n  log3\n    /* \"@openzeppelin/contracts/access/Ownable.sol\":2433:2620  function _transferOwnership(address newOwner) internal virtual {... */\n  pop\n  pop\n  jump\t// out\n    /* \"@openzeppelin/contracts/access/Ownable.sol\":2081:2279  function transferOwnership(address newOwner) public virtual onlyOwner {... */\ntag_11:\n    /* \"@openzeppelin/contracts/access/Ownable.sol\":1094:1107  _checkOwner() */\n  tag_16\n    /* \"@openzeppelin/contracts/access/Ownable.sol\":1094:1105  _checkOwner */\n  shl(0x20, tag_17)\n    /* \"@openzeppelin/contracts/access/Ownable.sol\":1094:1107  _checkOwner() */\n  0x20\n  shr\n  jump\t// in\ntag_16:\n    /* \"@openzeppelin/contracts/access/Ownable.sol\":2189:2190  0 */\n  0x00\n    /* \"@openzeppelin/contracts/access/Ownable.sol\":2169:2191  newOwner != address(0) */\n  0xffffffffffffffffffffffffffffffffffffffff\n  and\n    /* \"@openzeppelin/contracts/access/Ownable.sol\":2169:2177  newOwner */\n  dup2\n    /* \"@openzeppelin/contracts/access/Ownable.sol\":2169:2191  newOwner != address(0) */\n  0xffffffffffffffffffffffffffffffffffffffff\n  and\n  eq\n  iszero\n    /* \"@openzeppelin/contracts/access/Ownable.sol\":2161:2234  require(newOwner != address(0), \"Ownable: new owner is the zero address\") */\n  tag_19\n  jumpi\n  mload(0x40)\n  0x08c379a000000000000000000000000000000000000000000000000000000000\n  dup2\n  mstore\n  0x04\n  add\n  tag_20\n  swap1\n  tag_21\n  jump\t// in\ntag_20:\n  mload(0x40)\n  dup1\n  swap2\n  sub\n  swap1\n  revert\ntag_19:\n    /* \"@openzeppelin/contracts/access/Ownable.sol\":2244:2272  _transferOwnership(newOwner) */\n  tag_22\n    /* \"@openzeppelin/contracts/access/Ownable.sol\":2263:2271  newOwner */\n  dup2\n    /* \"@openzeppelin/contracts/access/Ownable.sol\":2244:2262  _transferOwnership */\n  shl(0x20, tag_8)\n    /* \"@openzeppelin/contracts/access/Ownable.sol\":2244:2272  _transferOwnership(newOwner) */\n  0x20\n  shr\n  jump\t// in\ntag_22:\n    /* \"@openzeppelin/contracts/access/Ownable.sol\":2081:2279  function transferOwnership(address newOwner) public virtual onlyOwner {... */\n  pop\n  jump\t// out\n    /* \"@openzeppelin/contracts/access/Ownable.sol\":1359:1489  function _checkOwner() internal view virtual {... */\ntag_17:\n    /* \"@openzeppelin/contracts/access/Ownable.sol\":1433:1445  _msgSender() */\n  tag_24\n    /* \"@openzeppelin/contracts/access/Ownable.sol\":1433:1443  _msgSender */\n  shl(0x20, tag_7)\n    /* \"@openzeppelin/contracts/access/Ownable.sol\":1433:1445  _msgSender() */\n  0x20\n  shr\n  jump\t// in\ntag_24:\n    /* \"@openzeppelin/contracts/access/Ownable.sol\":1422:1445  owner() == _msgSender() */\n  0xffffffffffffffffffffffffffffffffffffffff\n  and\n    /* \"@openzeppelin/contracts/access/Ownable.sol\":1422:1429  owner() */\n  tag_25\n    /* \"@openzeppelin/contracts/access/Ownable.sol\":1422:1427  owner */\n  shl(0x20, tag_26)\n    /* \"@openzeppelin/contracts/access/Ownable.sol\":1422:1429  owner() */\n  0x20\n  shr\n  jump\t// in\ntag_25:\n    /* \"@openzeppelin/contracts/access/Ownable.sol\":1422:1445  owner() == _msgSender() */\n  0xffffffffffffffffffffffffffffffffffffffff\n  and\n  eq\n    /* \"@openzeppelin/contracts/access/Ownable.sol\":1414:1482  require(owner() == _msgSender(), \"Ownable: caller is not the owner\") */\n  tag_27\n  jumpi\n  mload(0x40)\n  0x08c379a000000000000000000000000000000000000000000000000000000000\n  dup2\n  mstore\n  0x04\n  add\n  tag_28\n  swap1\n  tag_29\n  jump\t// in\ntag_28:\n  mload(0x40)\n  dup1\n  swap2\n  sub\n  swap1\n  revert\ntag_27:\n    /* \"@openzeppelin/contracts/access/Ownable.sol\":1359:1489  function _checkOwner() internal view virtual {... */\n  jump\t// out\n    /* \"@openzeppelin/contracts/access/Ownable.sol\":1201:1286  function owner() public view virtual returns (address) {... */\ntag_26:\n    /* \"@openzeppelin/contracts/access/Ownable.sol\":1247:1254  address */\n  0x00\n    /* \"@openzeppelin/contracts/access/Ownable.sol\":1273:1279  _owner */\n  dup1\n  0x00\n  swap1\n  sload\n  swap1\n  0x0100\n  exp\n  swap1\n  div\n  0xffffffffffffffffffffffffffffffffffffffff\n  and\n    /* \"@openzeppelin/contracts/access/Ownable.sol\":1266:1279  return _owner */\n  swap1\n  pop\n    /* \"@openzeppelin/contracts/access/Ownable.sol\":1201:1286  function owner() public view virtual returns (address) {... */\n  swap1\n  jump\t// out\n    /* \"#utility.yul\":7:373   */\ntag_32:\n    /* \"#utility.yul\":149:152   */\n  0x00\n    /* \"#utility.yul\":170:237   */\n  tag_34\n    /* \"#utility.yul\":234:236   */\n  0x26\n    /* \"#utility.yul\":229:232   */\n  dup4\n    /* \"#utility.yul\":170:237   */\n  tag_35\n  jump\t// in\ntag_34:\n    /* \"#utility.yul\":163:237   */\n  swap2\n  pop\n    /* \"#utility.yul\":246:339   */\n  tag_36\n    /* \"#utility.yul\":335:338   */\n  dup3\n    /* \"#utility.yul\":246:339   */\n  tag_37\n  jump\t// in\ntag_36:\n    /* \"#utility.yul\":364:366   */\n  0x40\n    /* \"#utility.yul\":359:362   */\n  dup3\n    /* \"#utility.yul\":355:367   */\n  add\n    /* \"#utility.yul\":348:367   */\n  swap1\n  pop\n    /* \"#utility.yul\":153:373   */\n  swap2\n  swap1\n  pop\n  jump\t// out\n    /* \"#utility.yul\":379:745   */\ntag_38:\n    /* \"#utility.yul\":521:524   */\n  0x00\n    /* \"#utility.yul\":542:609   */\n  tag_40\n    /* \"#utility.yul\":606:608   */\n  0x20\n    /* \"#utility.yul\":601:604   */\n  dup4\n    /* \"#utility.yul\":542:609   */\n  tag_35\n  jump\t// in\ntag_40:\n    /* \"#utility.yul\":535:609   */\n  swap2\n  pop\n    /* \"#utility.yul\":618:711   */\n  tag_41\n    /* \"#utility.yul\":707:710   */\n  dup3\n    /* \"#utility.yul\":618:711   */\n  tag_42\n  jump\t// in\ntag_41:\n    /* \"#utility.yul\":736:738   */\n  0x20\n    /* \"#utility.yul\":731:734   */\n  dup3\n    /* \"#utility.yul\":727:739   */\n  add\n    /* \"#utility.yul\":720:739   */\n  swap1\n  pop\n    /* \"#utility.yul\":525:745   */\n  swap2\n  swap1\n  pop\n  jump\t// out\n    /* \"#utility.yul\":751:1170   */\ntag_21:\n    /* \"#utility.yul\":917:921   */\n  0x00\n    /* \"#utility.yul\":955:957   */\n  0x20\n    /* \"#utility.yul\":944:953   */\n  dup3\n    /* \"#utility.yul\":940:958   */\n  add\n    /* \"#utility.yul\":932:958   */\n  swap1\n  pop\n    /* \"#utility.yul\":1004:1013   */\n  dup2\n    /* \"#utility.yul\":998:1002   */\n  dup2\n    /* \"#utility.yul\":994:1014   */\n  sub\n    /* \"#utility.yul\":990:991   */\n  0x00\n    /* \"#utility.yul\":979:988   */\n  dup4\n    /* \"#utility.yul\":975:992   */\n  add\n    /* \"#utility.yul\":968:1015   */\n  mstore\n    /* \"#utility.yul\":1032:1163   */\n  tag_44\n    /* \"#utility.yul\":1158:1162   */\n  dup2\n    /* \"#utility.yul\":1032:1163   */\n  tag_32\n  jump\t// in\ntag_44:\n    /* \"#utility.yul\":1024:1163   */\n  swap1\n  pop\n    /* \"#utility.yul\":922:1170   */\n  swap2\n  swap1\n  pop\n  jump\t// out\n    /* \"#utility.yul\":1176:1595   */\ntag_29:\n    /* \"#utility.yul\":1342:1346   */\n  0x00\n    /* \"#utility.yul\":1380:1382   */\n  0x20\n    /* \"#utility.yul\":1369:1378   */\n  dup3\n    /* \"#utility.yul\":1365:1383   */\n  add\n    /* \"#utility.yul\":1357:1383   */\n  swap1\n  pop\n    /* \"#utility.yul\":1429:1438   */\n  dup2\n    /* \"#utility.yul\":1423:1427   */\n  dup2\n    /* \"#utility.yul\":1419:1439   */\n  sub\n    /* \"#utility.yul\":1415:1416   */\n  0x00\n    /* \"#utility.yul\":1404:1413   */\n  dup4\n    /* \"#utility.yul\":1400:1417   */\n  add\n    /* \"#utility.yul\":1393:1440   */\n  mstore\n    /* \"#utility.yul\":1457:1588   */\n  tag_46\n    /* \"#utility.yul\":1583:1587   */\n  dup2\n    /* \"#utility.yul\":1457:1588   */\n  tag_38\n  jump\t// in\ntag_46:\n    /* \"#utility.yul\":1449:1588   */\n  swap1\n  pop\n    /* \"#utility.yul\":1347:1595   */\n  swap2\n  swap1\n  pop\n  jump\t// out\n    /* \"#utility.yul\":1601:1770   */\ntag_35:\n    /* \"#utility.yul\":1685:1696   */\n  0x00\n    /* \"#utility.yul\":1719:1725   */\n  dup3\n    /* \"#utility.yul\":1714:1717   */\n  dup3\n    /* \"#utility.yul\":1707:1726   */\n  mstore\n    /* \"#utility.yul\":1759:1763   */\n  0x20\n    /* \"#utility.yul\":1754:1757   */\n  dup3\n    /* \"#utility.yul\":1750:1764   */\n  add\n    /* \"#utility.yul\":1735:1764   */\n  swap1\n  pop\n    /* \"#utility.yul\":1697:1770   */\n  swap3\n  swap2\n  pop\n  pop\n  jump\t// out\n    /* \"#utility.yul\":1776:2001   */\ntag_37:\n    /* \"#utility.yul\":1916:1950   */\n  0x4f776e61626c653a206e6577206f776e657220697320746865207a65726f2061\n    /* \"#utility.yul\":1912:1913   */\n  0x00\n    /* \"#utility.yul\":1904:1910   */\n  dup3\n    /* \"#utility.yul\":1900:1914   */\n  add\n    /* \"#utility.yul\":1893:1951   */\n  mstore\n    /* \"#utility.yul\":1985:1993   */\n  0x6464726573730000000000000000000000000000000000000000000000000000\n    /* \"#utility.yul\":1980:1982   */\n  0x20\n    /* \"#utility.yul\":1972:1978   */\n  dup3\n    /* \"#utility.yul\":1968:1983   */\n  add\n    /* \"#utility.yul\":1961:1994   */\n  mstore\n    /* \"#utility.yul\":1882:2001   */\n  pop\n  jump\t// out\n    /* \"#utility.yul\":2007:2189   */\ntag_42:\n    /* \"#utility.yul\":2147:2181   */\n  0x4f776e61626c653a2063616c6c6572206973206e6f7420746865206f776e6572\n    /* \"#utility.yul\":2143:2144   */\n  0x00\n    /* \"#utility.yul\":2135:2141   */\n  dup3\n    /* \"#utility.yul\":2131:2145   */\n  add\n    /* \"#utility.yul\":2124:2182   */\n  mstore\n    /* \"#utility.yul\":2113:2189   */\n  pop\n  jump\t// out\n    /* \"contracts/FlowerStorage.sol\":155:4452  contract FlowerStorage is Ownable {... */\ntag_12:\n  dataSize(sub_0)\n  dup1\n  dataOffset(sub_0)\n  0x00\n  codecopy\n  0x00\n  return\nstop\n\nsub_0: assembly {\n        /* \"contracts/FlowerStorage.sol\":155:4452  contract FlowerStorage is Ownable {... */\n      mstore(0x40, 0x80)\n      callvalue\n      dup1\n      iszero\n      tag_1\n      jumpi\n      0x00\n      dup1\n      revert\n    tag_1:\n      pop\n      jumpi(tag_2, lt(calldatasize, 0x04))\n      shr(0xe0, calldataload(0x00))\n      dup1\n      0xaee9c872\n      gt\n      tag_14\n      jumpi\n      dup1\n      0xaee9c872\n      eq\n      tag_8\n      jumpi\n      dup1\n      0xbaafd2d8\n      eq\n      tag_9\n      jumpi\n      dup1\n      0xca056aed\n      eq\n      tag_10\n      jumpi\n      dup1\n      0xce5e9365\n      eq\n      tag_11\n      jumpi\n      dup1\n      0xefe54dd5\n      eq\n      tag_12\n      jumpi\n      dup1\n      0xf2fde38b\n      eq\n      tag_13\n      jumpi\n      jump(tag_2)\n    tag_14:\n      dup1\n      0x18160ddd\n      eq\n      tag_3\n      jumpi\n      dup1\n      0x6e76c3cf\n      eq\n      tag_4\n      jumpi\n      dup1\n      0x715018a6\n      eq\n      tag_5\n      jumpi\n      dup1\n      0x8da5cb5b\n      eq\n      tag_6\n      jumpi\n      dup1\n      0xa3a142d2\n      eq\n      tag_7\n      jumpi\n    tag_2:\n      0x00\n      dup1\n      revert\n        /* \"contracts/FlowerStorage.sol\":648:674  uint256 public totalSupply */\n    tag_3:\n      tag_15\n      tag_16\n      jump\t// in\n    tag_15:\n      mload(0x40)\n      tag_17\n      swap2\n      swap1\n      tag_18\n      jump\t// in\n    tag_17:\n      mload(0x40)\n      dup1\n      swap2\n      sub\n      swap1\n      return\n        /* \"contracts/FlowerStorage.sol\":942:988  mapping(address => uint256) public firstTBNode */\n    tag_4:\n      tag_19\n      0x04\n      dup1\n      calldatasize\n      sub\n      dup2\n      add\n      swap1\n      tag_20\n      swap2\n      swap1\n      tag_21\n      jump\t// in\n    tag_20:\n      tag_22\n      jump\t// in\n    tag_19:\n      mload(0x40)\n      tag_23\n      swap2\n      swap1\n      tag_18\n      jump\t// in\n    tag_23:\n      mload(0x40)\n      dup1\n      swap2\n      sub\n      swap1\n      return\n        /* \"@openzeppelin/contracts/access/Ownable.sol\":1831:1932  function renounceOwnership() public virtual onlyOwner {... */\n    tag_5:\n      tag_24\n      tag_25\n      jump\t// in\n    tag_24:\n      stop\n        /* \"@openzeppelin/contracts/access/Ownable.sol\":1201:1286  function owner() public view virtual returns (address) {... */\n    tag_6:\n      tag_26\n      tag_27\n      jump\t// in\n    tag_26:\n      mload(0x40)\n      tag_28\n      swap2\n      swap1\n      tag_29\n      jump\t// in\n    tag_28:\n      mload(0x40)\n      dup1\n      swap2\n      sub\n      swap1\n      return\n        /* \"contracts/FlowerStorage.sol\":2350:3900  function removeExpiredTokens(address addr, uint256 timeToExpire) public {... */\n    tag_7:\n      tag_30\n      0x04\n      dup1\n      calldatasize\n      sub\n      dup2\n      add\n      swap1\n      tag_31\n      swap2\n      swap1\n      tag_32\n      jump\t// in\n    tag_31:\n      tag_33\n      jump\t// in\n    tag_30:\n      stop\n        /* \"contracts/FlowerStorage.sol\":367:418  mapping ( address => uint256 ) public totalBalances */\n    tag_8:\n      tag_34\n      0x04\n      dup1\n      calldatasize\n      sub\n      dup2\n      add\n      swap1\n      tag_35\n      swap2\n      swap1\n      tag_21\n      jump\t// in\n    tag_35:\n      tag_36\n      jump\t// in\n    tag_34:\n      mload(0x40)\n      tag_37\n      swap2\n      swap1\n      tag_18\n      jump\t// in\n    tag_37:\n      mload(0x40)\n      dup1\n      swap2\n      sub\n      swap1\n      return\n        /* \"contracts/FlowerStorage.sol\":1062:1107  mapping(address => uint256) public lastTBNode */\n    tag_9:\n      tag_38\n      0x04\n      dup1\n      calldatasize\n      sub\n      dup2\n      add\n      swap1\n      tag_39\n      swap2\n      swap1\n      tag_21\n      jump\t// in\n    tag_39:\n      tag_40\n      jump\t// in\n    tag_38:\n      mload(0x40)\n      tag_41\n      swap2\n      swap1\n      tag_18\n      jump\t// in\n    tag_41:\n      mload(0x40)\n      dup1\n      swap2\n      sub\n      swap1\n      return\n        /* \"contracts/FlowerStorage.sol\":3942:4450  function addTokens(address addr, uint256 amount, uint256 timeToExpire) public {... */\n    tag_10:\n      tag_42\n      0x04\n      dup1\n      calldatasize\n      sub\n      dup2\n      add\n      swap1\n      tag_43\n      swap2\n      swap1\n      tag_44\n      jump\t// in\n    tag_43:\n      tag_45\n      jump\t// in\n    tag_42:\n      stop\n        /* \"contracts/FlowerStorage.sol\":722:749  uint256 public totalExpired */\n    tag_11:\n      tag_46\n      tag_47\n      jump\t// in\n    tag_46:\n      mload(0x40)\n      tag_48\n      swap2\n      swap1\n      tag_18\n      jump\t// in\n    tag_48:\n      mload(0x40)\n      dup1\n      swap2\n      sub\n      swap1\n      return\n        /* \"contracts/FlowerStorage.sol\":1155:1222  mapping(address => mapping(uint256 => TBNode)) public tbNodeByIndex */\n    tag_12:\n      tag_49\n      0x04\n      dup1\n      calldatasize\n      sub\n      dup2\n      add\n      swap1\n      tag_50\n      swap2\n      swap1\n      tag_32\n      jump\t// in\n    tag_50:\n      tag_51\n      jump\t// in\n    tag_49:\n      mload(0x40)\n      tag_52\n      swap4\n      swap3\n      swap2\n      swap1\n      tag_53\n      jump\t// in\n    tag_52:\n      mload(0x40)\n      dup1\n      swap2\n      sub\n      swap1\n      return\n        /* \"@openzeppelin/contracts/access/Ownable.sol\":2081:2279  function transferOwnership(address newOwner) public virtual onlyOwner {... */\n    tag_13:\n      tag_54\n      0x04\n      dup1\n      calldatasize\n      sub\n      dup2\n      add\n      swap1\n      tag_55\n      swap2\n      swap1\n      tag_21\n      jump\t// in\n    tag_55:\n      tag_56\n      jump\t// in\n    tag_54:\n      stop\n        /* \"contracts/FlowerStorage.sol\":648:674  uint256 public totalSupply */\n    tag_16:\n      sload(0x02)\n      dup2\n      jump\t// out\n        /* \"contracts/FlowerStorage.sol\":942:988  mapping(address => uint256) public firstTBNode */\n    tag_22:\n      mstore(0x20, 0x04)\n      dup1\n      0x00\n      mstore\n      keccak256(0x00, 0x40)\n      0x00\n      swap2\n      pop\n      swap1\n      pop\n      sload\n      dup2\n      jump\t// out\n        /* \"@openzeppelin/contracts/access/Ownable.sol\":1831:1932  function renounceOwnership() public virtual onlyOwner {... */\n    tag_25:\n        /* \"@openzeppelin/contracts/access/Ownable.sol\":1094:1107  _checkOwner() */\n      tag_58\n        /* \"@openzeppelin/contracts/access/Ownable.sol\":1094:1105  _checkOwner */\n      tag_59\n        /* \"@openzeppelin/contracts/access/Ownable.sol\":1094:1107  _checkOwner() */\n      jump\t// in\n    tag_58:\n        /* \"@openzeppelin/contracts/access/Ownable.sol\":1895:1925  _transferOwnership(address(0)) */\n      tag_61\n        /* \"@openzeppelin/contracts/access/Ownable.sol\":1922:1923  0 */\n      0x00\n        /* \"@openzeppelin/contracts/access/Ownable.sol\":1895:1913  _transferOwnership */\n      tag_62\n        /* \"@openzeppelin/contracts/access/Ownable.sol\":1895:1925  _transferOwnership(address(0)) */\n      jump\t// in\n    tag_61:\n        /* \"@openzeppelin/contracts/access/Ownable.sol\":1831:1932  function renounceOwnership() public virtual onlyOwner {... */\n      jump\t// out\n        /* \"@openzeppelin/contracts/access/Ownable.sol\":1201:1286  function owner() public view virtual returns (address) {... */\n    tag_27:\n        /* \"@openzeppelin/contracts/access/Ownable.sol\":1247:1254  address */\n      0x00\n        /* \"@openzeppelin/contracts/access/Ownable.sol\":1273:1279  _owner */\n      dup1\n      0x00\n      swap1\n      sload\n      swap1\n      0x0100\n      exp\n      swap1\n      div\n      0xffffffffffffffffffffffffffffffffffffffff\n      and\n        /* \"@openzeppelin/contracts/access/Ownable.sol\":1266:1279  return _owner */\n      swap1\n      pop\n        /* \"@openzeppelin/contracts/access/Ownable.sol\":1201:1286  function owner() public view virtual returns (address) {... */\n      swap1\n      jump\t// out\n        /* \"contracts/FlowerStorage.sol\":2350:3900  function removeExpiredTokens(address addr, uint256 timeToExpire) public {... */\n    tag_33:\n        /* \"contracts/FlowerStorage.sol\":2432:2452  uint256 currentIndex */\n      0x00\n        /* \"contracts/FlowerStorage.sol\":2456:2467  firstTBNode */\n      0x04\n        /* \"contracts/FlowerStorage.sol\":2456:2473  firstTBNode[addr] */\n      0x00\n        /* \"contracts/FlowerStorage.sol\":2468:2472  addr */\n      dup5\n        /* \"contracts/FlowerStorage.sol\":2456:2473  firstTBNode[addr] */\n      0xffffffffffffffffffffffffffffffffffffffff\n      and\n      0xffffffffffffffffffffffffffffffffffffffff\n      and\n      dup2\n      mstore\n      0x20\n      add\n      swap1\n      dup2\n      mstore\n      0x20\n      add\n      0x00\n      keccak256\n      sload\n        /* \"contracts/FlowerStorage.sol\":2432:2473  uint256 currentIndex =  firstTBNode[addr] */\n      swap1\n      pop\n        /* \"contracts/FlowerStorage.sol\":2483:2508  TBNode memory currentNode */\n      0x00\n        /* \"contracts/FlowerStorage.sol\":2511:2524  tbNodeByIndex */\n      0x06\n        /* \"contracts/FlowerStorage.sol\":2511:2530  tbNodeByIndex[addr] */\n      0x00\n        /* \"contracts/FlowerStorage.sol\":2525:2529  addr */\n      dup6\n        /* \"contracts/FlowerStorage.sol\":2511:2530  tbNodeByIndex[addr] */\n      0xffffffffffffffffffffffffffffffffffffffff\n      and\n      0xffffffffffffffffffffffffffffffffffffffff\n      and\n      dup2\n      mstore\n      0x20\n      add\n      swap1\n      dup2\n      mstore\n      0x20\n      add\n      0x00\n      keccak256\n        /* \"contracts/FlowerStorage.sol\":2511:2544  tbNodeByIndex[addr][currentIndex] */\n      0x00\n        /* \"contracts/FlowerStorage.sol\":2531:2543  currentIndex */\n      dup4\n        /* \"contracts/FlowerStorage.sol\":2511:2544  tbNodeByIndex[addr][currentIndex] */\n      dup2\n      mstore\n      0x20\n      add\n      swap1\n      dup2\n      mstore\n      0x20\n      add\n      0x00\n      keccak256\n        /* \"contracts/FlowerStorage.sol\":2483:2544  TBNode memory currentNode = tbNodeByIndex[addr][currentIndex] */\n      mload(0x40)\n      dup1\n      0x60\n      add\n      0x40\n      mstore\n      swap1\n      dup2\n      0x00\n      dup3\n      add\n      sload\n      dup2\n      mstore\n      0x20\n      add\n      0x01\n      dup3\n      add\n      sload\n      dup2\n      mstore\n      0x20\n      add\n      0x02\n      dup3\n      add\n      sload\n      dup2\n      mstore\n      pop\n      pop\n      swap1\n      pop\n        /* \"contracts/FlowerStorage.sol\":2650:2676  uint256 totalTokensExpired */\n      0x00\n        /* \"contracts/FlowerStorage.sol\":2768:3605  while (currentIndex != 0 && currentNode.timestamp + timeToExpire <= block.timestamp)... */\n    tag_65:\n        /* \"contracts/FlowerStorage.sol\":2791:2792  0 */\n      0x00\n        /* \"contracts/FlowerStorage.sol\":2775:2787  currentIndex */\n      dup4\n        /* \"contracts/FlowerStorage.sol\":2775:2792  currentIndex != 0 */\n      eq\n      iszero\n        /* \"contracts/FlowerStorage.sol\":2775:2851  currentIndex != 0 && currentNode.timestamp + timeToExpire <= block.timestamp */\n      dup1\n      iszero\n      tag_67\n      jumpi\n      pop\n        /* \"contracts/FlowerStorage.sol\":2836:2851  block.timestamp */\n      timestamp\n        /* \"contracts/FlowerStorage.sol\":2820:2832  timeToExpire */\n      dup5\n        /* \"contracts/FlowerStorage.sol\":2796:2807  currentNode */\n      dup4\n        /* \"contracts/FlowerStorage.sol\":2796:2817  currentNode.timestamp */\n      0x00\n      add\n      mload\n        /* \"contracts/FlowerStorage.sol\":2796:2832  currentNode.timestamp + timeToExpire */\n      tag_68\n      swap2\n      swap1\n      tag_69\n      jump\t// in\n    tag_68:\n        /* \"contracts/FlowerStorage.sol\":2796:2851  currentNode.timestamp + timeToExpire <= block.timestamp */\n      gt\n      iszero\n        /* \"contracts/FlowerStorage.sol\":2775:2851  currentIndex != 0 && currentNode.timestamp + timeToExpire <= block.timestamp */\n    tag_67:\n        /* \"contracts/FlowerStorage.sol\":2768:3605  while (currentIndex != 0 && currentNode.timestamp + timeToExpire <= block.timestamp)... */\n      iszero\n      tag_66\n      jumpi\n        /* \"contracts/FlowerStorage.sol\":2939:2950  currentNode */\n      dup2\n        /* \"contracts/FlowerStorage.sol\":2939:2955  currentNode.next */\n      0x40\n      add\n      mload\n        /* \"contracts/FlowerStorage.sol\":2919:2930  firstTBNode */\n      0x04\n        /* \"contracts/FlowerStorage.sol\":2919:2936  firstTBNode[addr] */\n      0x00\n        /* \"contracts/FlowerStorage.sol\":2931:2935  addr */\n      dup8\n        /* \"contracts/FlowerStorage.sol\":2919:2936  firstTBNode[addr] */\n      0xffffffffffffffffffffffffffffffffffffffff\n      and\n      0xffffffffffffffffffffffffffffffffffffffff\n      and\n      dup2\n      mstore\n      0x20\n      add\n      swap1\n      dup2\n      mstore\n      0x20\n      add\n      0x00\n      keccak256\n        /* \"contracts/FlowerStorage.sol\":2919:2955  firstTBNode[addr] = currentNode.next */\n      dup2\n      swap1\n      sstore\n      pop\n        /* \"contracts/FlowerStorage.sol\":3083:3095  currentIndex */\n      dup3\n        /* \"contracts/FlowerStorage.sol\":3063:3073  lastTBNode */\n      0x05\n        /* \"contracts/FlowerStorage.sol\":3063:3079  lastTBNode[addr] */\n      0x00\n        /* \"contracts/FlowerStorage.sol\":3074:3078  addr */\n      dup8\n        /* \"contracts/FlowerStorage.sol\":3063:3079  lastTBNode[addr] */\n      0xffffffffffffffffffffffffffffffffffffffff\n      and\n      0xffffffffffffffffffffffffffffffffffffffff\n      and\n      dup2\n      mstore\n      0x20\n      add\n      swap1\n      dup2\n      mstore\n      0x20\n      add\n      0x00\n      keccak256\n      sload\n        /* \"contracts/FlowerStorage.sol\":3063:3095  lastTBNode[addr] == currentIndex */\n      eq\n        /* \"contracts/FlowerStorage.sol\":3059:3177  if (lastTBNode[addr] == currentIndex)... */\n      iszero\n      tag_70\n      jumpi\n        /* \"contracts/FlowerStorage.sol\":3146:3157  currentNode */\n      dup2\n        /* \"contracts/FlowerStorage.sol\":3146:3162  currentNode.next */\n      0x40\n      add\n      mload\n        /* \"contracts/FlowerStorage.sol\":3127:3137  lastTBNode */\n      0x05\n        /* \"contracts/FlowerStorage.sol\":3127:3143  lastTBNode[addr] */\n      0x00\n        /* \"contracts/FlowerStorage.sol\":3138:3142  addr */\n      dup8\n        /* \"contracts/FlowerStorage.sol\":3127:3143  lastTBNode[addr] */\n      0xffffffffffffffffffffffffffffffffffffffff\n      and\n      0xffffffffffffffffffffffffffffffffffffffff\n      and\n      dup2\n      mstore\n      0x20\n      add\n      swap1\n      dup2\n      mstore\n      0x20\n      add\n      0x00\n      keccak256\n        /* \"contracts/FlowerStorage.sol\":3127:3162  lastTBNode[addr] = currentNode.next */\n      dup2\n      swap1\n      sstore\n      pop\n        /* \"contracts/FlowerStorage.sol\":3059:3177  if (lastTBNode[addr] == currentIndex)... */\n    tag_70:\n        /* \"contracts/FlowerStorage.sol\":3283:3294  currentNode */\n      dup2\n        /* \"contracts/FlowerStorage.sol\":3283:3302  currentNode.balance */\n      0x20\n      add\n      mload\n        /* \"contracts/FlowerStorage.sol\":3261:3302  totalTokensExpired += currentNode.balance */\n      dup2\n      tag_71\n      swap2\n      swap1\n      tag_69\n      jump\t// in\n    tag_71:\n      swap1\n      pop\n        /* \"contracts/FlowerStorage.sol\":3398:3411  tbNodeByIndex */\n      0x06\n        /* \"contracts/FlowerStorage.sol\":3398:3417  tbNodeByIndex[addr] */\n      0x00\n        /* \"contracts/FlowerStorage.sol\":3412:3416  addr */\n      dup7\n        /* \"contracts/FlowerStorage.sol\":3398:3417  tbNodeByIndex[addr] */\n      0xffffffffffffffffffffffffffffffffffffffff\n      and\n      0xffffffffffffffffffffffffffffffffffffffff\n      and\n      dup2\n      mstore\n      0x20\n      add\n      swap1\n      dup2\n      mstore\n      0x20\n      add\n      0x00\n      keccak256\n        /* \"contracts/FlowerStorage.sol\":3398:3431  tbNodeByIndex[addr][currentIndex] */\n      0x00\n        /* \"contracts/FlowerStorage.sol\":3418:3430  currentIndex */\n      dup5\n        /* \"contracts/FlowerStorage.sol\":3398:3431  tbNodeByIndex[addr][currentIndex] */\n      dup2\n      mstore\n      0x20\n      add\n      swap1\n      dup2\n      mstore\n      0x20\n      add\n      0x00\n      keccak256\n      0x00\n        /* \"contracts/FlowerStorage.sol\":3391:3431  delete tbNodeByIndex[addr][currentIndex] */\n      dup1\n      dup3\n      add\n      0x00\n      swap1\n      sstore\n      0x01\n      dup3\n      add\n      0x00\n      swap1\n      sstore\n      0x02\n      dup3\n      add\n      0x00\n      swap1\n      sstore\n      pop\n      pop\n        /* \"contracts/FlowerStorage.sol\":3507:3518  currentNode */\n      dup2\n        /* \"contracts/FlowerStorage.sol\":3507:3523  currentNode.next */\n      0x40\n      add\n      mload\n        /* \"contracts/FlowerStorage.sol\":3492:3523  currentIndex = currentNode.next */\n      swap3\n      pop\n        /* \"contracts/FlowerStorage.sol\":3551:3564  tbNodeByIndex */\n      0x06\n        /* \"contracts/FlowerStorage.sol\":3551:3570  tbNodeByIndex[addr] */\n      0x00\n        /* \"contracts/FlowerStorage.sol\":3565:3569  addr */\n      dup7\n        /* \"contracts/FlowerStorage.sol\":3551:3570  tbNodeByIndex[addr] */\n      0xffffffffffffffffffffffffffffffffffffffff\n      and\n      0xffffffffffffffffffffffffffffffffffffffff\n      and\n      dup2\n      mstore\n      0x20\n      add\n      swap1\n      dup2\n      mstore\n      0x20\n      add\n      0x00\n      keccak256\n        /* \"contracts/FlowerStorage.sol\":3551:3584  tbNodeByIndex[addr][currentIndex] */\n      0x00\n        /* \"contracts/FlowerStorage.sol\":3571:3583  currentIndex */\n      dup5\n        /* \"contracts/FlowerStorage.sol\":3551:3584  tbNodeByIndex[addr][currentIndex] */\n      dup2\n      mstore\n      0x20\n      add\n      swap1\n      dup2\n      mstore\n      0x20\n      add\n      0x00\n      keccak256\n        /* \"contracts/FlowerStorage.sol\":3537:3584  currentNode = tbNodeByIndex[addr][currentIndex] */\n      mload(0x40)\n      dup1\n      0x60\n      add\n      0x40\n      mstore\n      swap1\n      dup2\n      0x00\n      dup3\n      add\n      sload\n      dup2\n      mstore\n      0x20\n      add\n      0x01\n      dup3\n      add\n      sload\n      dup2\n      mstore\n      0x20\n      add\n      0x02\n      dup3\n      add\n      sload\n      dup2\n      mstore\n      pop\n      pop\n      swap2\n      pop\n        /* \"contracts/FlowerStorage.sol\":2768:3605  while (currentIndex != 0 && currentNode.timestamp + timeToExpire <= block.timestamp)... */\n      jump(tag_65)\n    tag_66:\n        /* \"contracts/FlowerStorage.sol\":3708:3726  totalTokensExpired */\n      dup1\n        /* \"contracts/FlowerStorage.sol\":3685:3698  totalBalances */\n      0x01\n        /* \"contracts/FlowerStorage.sol\":3685:3704  totalBalances[addr] */\n      0x00\n        /* \"contracts/FlowerStorage.sol\":3699:3703  addr */\n      dup8\n        /* \"contracts/FlowerStorage.sol\":3685:3704  totalBalances[addr] */\n      0xffffffffffffffffffffffffffffffffffffffff\n      and\n      0xffffffffffffffffffffffffffffffffffffffff\n      and\n      dup2\n      mstore\n      0x20\n      add\n      swap1\n      dup2\n      mstore\n      0x20\n      add\n      0x00\n      keccak256\n      0x00\n        /* \"contracts/FlowerStorage.sol\":3685:3726  totalBalances[addr] -= totalTokensExpired */\n      dup3\n      dup3\n      sload\n      tag_72\n      swap2\n      swap1\n      tag_73\n      jump\t// in\n    tag_72:\n      swap3\n      pop\n      pop\n      dup2\n      swap1\n      sstore\n      pop\n        /* \"contracts/FlowerStorage.sol\":3792:3810  totalTokensExpired */\n      dup1\n        /* \"contracts/FlowerStorage.sol\":3777:3788  totalSupply */\n      0x02\n      0x00\n        /* \"contracts/FlowerStorage.sol\":3777:3810  totalSupply -= totalTokensExpired */\n      dup3\n      dup3\n      sload\n      tag_74\n      swap2\n      swap1\n      tag_73\n      jump\t// in\n    tag_74:\n      swap3\n      pop\n      pop\n      dup2\n      swap1\n      sstore\n      pop\n        /* \"contracts/FlowerStorage.sol\":3875:3893  totalTokensExpired */\n      dup1\n        /* \"contracts/FlowerStorage.sol\":3859:3871  totalExpired */\n      0x03\n      0x00\n        /* \"contracts/FlowerStorage.sol\":3859:3893  totalExpired += totalTokensExpired */\n      dup3\n      dup3\n      sload\n      tag_75\n      swap2\n      swap1\n      tag_69\n      jump\t// in\n    tag_75:\n      swap3\n      pop\n      pop\n      dup2\n      swap1\n      sstore\n      pop\n        /* \"contracts/FlowerStorage.sol\":2350:3900  function removeExpiredTokens(address addr, uint256 timeToExpire) public {... */\n      pop\n      pop\n      pop\n      pop\n      pop\n      jump\t// out\n        /* \"contracts/FlowerStorage.sol\":367:418  mapping ( address => uint256 ) public totalBalances */\n    tag_36:\n      mstore(0x20, 0x01)\n      dup1\n      0x00\n      mstore\n      keccak256(0x00, 0x40)\n      0x00\n      swap2\n      pop\n      swap1\n      pop\n      sload\n      dup2\n      jump\t// out\n        /* \"contracts/FlowerStorage.sol\":1062:1107  mapping(address => uint256) public lastTBNode */\n    tag_40:\n      mstore(0x20, 0x05)\n      dup1\n      0x00\n      mstore\n      keccak256(0x00, 0x40)\n      0x00\n      swap2\n      pop\n      swap1\n      pop\n      sload\n      dup2\n      jump\t// out\n        /* \"contracts/FlowerStorage.sol\":3942:4450  function addTokens(address addr, uint256 amount, uint256 timeToExpire) public {... */\n    tag_45:\n        /* \"contracts/FlowerStorage.sol\":4086:4125  removeExpiredTokens(addr, timeToExpire) */\n      tag_77\n        /* \"contracts/FlowerStorage.sol\":4106:4110  addr */\n      dup4\n        /* \"contracts/FlowerStorage.sol\":4112:4124  timeToExpire */\n      dup3\n        /* \"contracts/FlowerStorage.sol\":4086:4105  removeExpiredTokens */\n      tag_33\n        /* \"contracts/FlowerStorage.sol\":4086:4125  removeExpiredTokens(addr, timeToExpire) */\n      jump\t// in\n    tag_77:\n        /* \"contracts/FlowerStorage.sol\":4161:4178  uint256 timeAdded */\n      0x00\n        /* \"contracts/FlowerStorage.sol\":4181:4196  block.timestamp */\n      timestamp\n        /* \"contracts/FlowerStorage.sol\":4161:4196  uint256 timeAdded = block.timestamp */\n      swap1\n      pop\n        /* \"contracts/FlowerStorage.sol\":4257:4289  addNode(addr, timeAdded, amount) */\n      tag_78\n        /* \"contracts/FlowerStorage.sol\":4265:4269  addr */\n      dup5\n        /* \"contracts/FlowerStorage.sol\":4271:4280  timeAdded */\n      dup3\n        /* \"contracts/FlowerStorage.sol\":4282:4288  amount */\n      dup6\n        /* \"contracts/FlowerStorage.sol\":4257:4264  addNode */\n      tag_79\n        /* \"contracts/FlowerStorage.sol\":4257:4289  addNode(addr, timeAdded, amount) */\n      jump\t// in\n    tag_78:\n        /* \"contracts/FlowerStorage.sol\":4365:4371  amount */\n      dup3\n        /* \"contracts/FlowerStorage.sol\":4342:4355  totalBalances */\n      0x01\n        /* \"contracts/FlowerStorage.sol\":4342:4361  totalBalances[addr] */\n      0x00\n        /* \"contracts/FlowerStorage.sol\":4356:4360  addr */\n      dup7\n        /* \"contracts/FlowerStorage.sol\":4342:4361  totalBalances[addr] */\n      0xffffffffffffffffffffffffffffffffffffffff\n      and\n      0xffffffffffffffffffffffffffffffffffffffff\n      and\n      dup2\n      mstore\n      0x20\n      add\n      swap1\n      dup2\n      mstore\n      0x20\n      add\n      0x00\n      keccak256\n      0x00\n        /* \"contracts/FlowerStorage.sol\":4342:4371  totalBalances[addr] += amount */\n      dup3\n      dup3\n      sload\n      tag_80\n      swap2\n      swap1\n      tag_69\n      jump\t// in\n    tag_80:\n      swap3\n      pop\n      pop\n      dup2\n      swap1\n      sstore\n      pop\n        /* \"contracts/FlowerStorage.sol\":4437:4443  amount */\n      dup3\n        /* \"contracts/FlowerStorage.sol\":4422:4433  totalSupply */\n      0x02\n      0x00\n        /* \"contracts/FlowerStorage.sol\":4422:4443  totalSupply += amount */\n      dup3\n      dup3\n      sload\n      tag_81\n      swap2\n      swap1\n      tag_69\n      jump\t// in\n    tag_81:\n      swap3\n      pop\n      pop\n      dup2\n      swap1\n      sstore\n      pop\n        /* \"contracts/FlowerStorage.sol\":3942:4450  function addTokens(address addr, uint256 amount, uint256 timeToExpire) public {... */\n      pop\n      pop\n      pop\n      pop\n      jump\t// out\n        /* \"contracts/FlowerStorage.sol\":722:749  uint256 public totalExpired */\n    tag_47:\n      sload(0x03)\n      dup2\n      jump\t// out\n        /* \"contracts/FlowerStorage.sol\":1155:1222  mapping(address => mapping(uint256 => TBNode)) public tbNodeByIndex */\n    tag_51:\n      mstore(0x20, 0x06)\n      dup2\n      0x00\n      mstore\n      mstore(0x20, keccak256(0x00, 0x40))\n      dup1\n      0x00\n      mstore\n      keccak256(0x00, 0x40)\n      0x00\n      swap2\n      pop\n      swap2\n      pop\n      pop\n      dup1\n      0x00\n      add\n      sload\n      swap1\n      dup1\n      0x01\n      add\n      sload\n      swap1\n      dup1\n      0x02\n      add\n      sload\n      swap1\n      pop\n      dup4\n      jump\t// out\n        /* \"@openzeppelin/contracts/access/Ownable.sol\":2081:2279  function transferOwnership(address newOwner) public virtual onlyOwner {... */\n    tag_56:\n        /* \"@openzeppelin/contracts/access/Ownable.sol\":1094:1107  _checkOwner() */\n      tag_83\n        /* \"@openzeppelin/contracts/access/Ownable.sol\":1094:1105  _checkOwner */\n      tag_59\n        /* \"@openzeppelin/contracts/access/Ownable.sol\":1094:1107  _checkOwner() */\n      jump\t// in\n    tag_83:\n        /* \"@openzeppelin/contracts/access/Ownable.sol\":2189:2190  0 */\n      0x00\n        /* \"@openzeppelin/contracts/access/Ownable.sol\":2169:2191  newOwner != address(0) */\n      0xffffffffffffffffffffffffffffffffffffffff\n      and\n        /* \"@openzeppelin/contracts/access/Ownable.sol\":2169:2177  newOwner */\n      dup2\n        /* \"@openzeppelin/contracts/access/Ownable.sol\":2169:2191  newOwner != address(0) */\n      0xffffffffffffffffffffffffffffffffffffffff\n      and\n      eq\n      iszero\n        /* \"@openzeppelin/contracts/access/Ownable.sol\":2161:2234  require(newOwner != address(0), \"Ownable: new owner is the zero address\") */\n      tag_85\n      jumpi\n      mload(0x40)\n      0x08c379a000000000000000000000000000000000000000000000000000000000\n      dup2\n      mstore\n      0x04\n      add\n      tag_86\n      swap1\n      tag_87\n      jump\t// in\n    tag_86:\n      mload(0x40)\n      dup1\n      swap2\n      sub\n      swap1\n      revert\n    tag_85:\n        /* \"@openzeppelin/contracts/access/Ownable.sol\":2244:2272  _transferOwnership(newOwner) */\n      tag_88\n        /* \"@openzeppelin/contracts/access/Ownable.sol\":2263:2271  newOwner */\n      dup2\n        /* \"@openzeppelin/contracts/access/Ownable.sol\":2244:2262  _transferOwnership */\n      tag_62\n        /* \"@openzeppelin/contracts/access/Ownable.sol\":2244:2272  _transferOwnership(newOwner) */\n      jump\t// in\n    tag_88:\n        /* \"@openzeppelin/contracts/access/Ownable.sol\":2081:2279  function transferOwnership(address newOwner) public virtual onlyOwner {... */\n      pop\n      jump\t// out\n        /* \"@openzeppelin/contracts/access/Ownable.sol\":1359:1489  function _checkOwner() internal view virtual {... */\n    tag_59:\n        /* \"@openzeppelin/contracts/access/Ownable.sol\":1433:1445  _msgSender() */\n      tag_90\n        /* \"@openzeppelin/contracts/access/Ownable.sol\":1433:1443  _msgSender */\n      tag_91\n        /* \"@openzeppelin/contracts/access/Ownable.sol\":1433:1445  _msgSender() */\n      jump\t// in\n    tag_90:\n        /* \"@openzeppelin/contracts/access/Ownable.sol\":1422:1445  owner() == _msgSender() */\n      0xffffffffffffffffffffffffffffffffffffffff\n      and\n        /* \"@openzeppelin/contracts/access/Ownable.sol\":1422:1429  owner() */\n      tag_92\n        /* \"@openzeppelin/contracts/access/Ownable.sol\":1422:1427  owner */\n      tag_27\n        /* \"@openzeppelin/contracts/access/Ownable.sol\":1422:1429  owner() */\n      jump\t// in\n    tag_92:\n        /* \"@openzeppelin/contracts/access/Ownable.sol\":1422:1445  owner() == _msgSender() */\n      0xffffffffffffffffffffffffffffffffffffffff\n      and\n      eq\n        /* \"@openzeppelin/contracts/access/Ownable.sol\":1414:1482  require(owner() == _msgSender(), \"Ownable: caller is not the owner\") */\n      tag_93\n      jumpi\n      mload(0x40)\n      0x08c379a000000000000000000000000000000000000000000000000000000000\n      dup2\n      mstore\n      0x04\n      add\n      tag_94\n      swap1\n      tag_95\n      jump\t// in\n    tag_94:\n      mload(0x40)\n      dup1\n      swap2\n      sub\n      swap1\n      revert\n    tag_93:\n        /* \"@openzeppelin/contracts/access/Ownable.sol\":1359:1489  function _checkOwner() internal view virtual {... */\n      jump\t// out\n        /* \"@openzeppelin/contracts/access/Ownable.sol\":2433:2620  function _transferOwnership(address newOwner) internal virtual {... */\n    tag_62:\n        /* \"@openzeppelin/contracts/access/Ownable.sol\":2506:2522  address oldOwner */\n      0x00\n        /* \"@openzeppelin/contracts/access/Ownable.sol\":2525:2531  _owner */\n      dup1\n      0x00\n      swap1\n      sload\n      swap1\n      0x0100\n      exp\n      swap1\n      div\n      0xffffffffffffffffffffffffffffffffffffffff\n      and\n        /* \"@openzeppelin/contracts/access/Ownable.sol\":2506:2531  address oldOwner = _owner */\n      swap1\n      pop\n        /* \"@openzeppelin/contracts/access/Ownable.sol\":2550:2558  newOwner */\n      dup2\n        /* \"@openzeppelin/contracts/access/Ownable.sol\":2541:2547  _owner */\n      0x00\n      dup1\n        /* \"@openzeppelin/contracts/access/Ownable.sol\":2541:2558  _owner = newOwner */\n      0x0100\n      exp\n      dup2\n      sload\n      dup2\n      0xffffffffffffffffffffffffffffffffffffffff\n      mul\n      not\n      and\n      swap1\n      dup4\n      0xffffffffffffffffffffffffffffffffffffffff\n      and\n      mul\n      or\n      swap1\n      sstore\n      pop\n        /* \"@openzeppelin/contracts/access/Ownable.sol\":2604:2612  newOwner */\n      dup2\n        /* \"@openzeppelin/contracts/access/Ownable.sol\":2573:2613  OwnershipTransferred(oldOwner, newOwner) */\n      0xffffffffffffffffffffffffffffffffffffffff\n      and\n        /* \"@openzeppelin/contracts/access/Ownable.sol\":2594:2602  oldOwner */\n      dup2\n        /* \"@openzeppelin/contracts/access/Ownable.sol\":2573:2613  OwnershipTransferred(oldOwner, newOwner) */\n      0xffffffffffffffffffffffffffffffffffffffff\n      and\n      0x8be0079c531659141344cd1fd0a4f28419497f9722a3daafe3b4186f6b6457e0\n      mload(0x40)\n      mload(0x40)\n      dup1\n      swap2\n      sub\n      swap1\n      log3\n        /* \"@openzeppelin/contracts/access/Ownable.sol\":2433:2620  function _transferOwnership(address newOwner) internal virtual {... */\n      pop\n      pop\n      jump\t// out\n        /* \"contracts/FlowerStorage.sol\":1295:2290  function addNode(address addr, uint256 timestamp, uint256 balance) private {... */\n    tag_79:\n        /* \"contracts/FlowerStorage.sol\":1411:1432  TBNode memory newNode */\n      0x00\n        /* \"contracts/FlowerStorage.sol\":1435:1538  TBNode({... */\n      mload(0x40)\n      dup1\n      0x60\n      add\n      0x40\n      mstore\n      dup1\n        /* \"contracts/FlowerStorage.sol\":1467:1476  timestamp */\n      dup5\n        /* \"contracts/FlowerStorage.sol\":1435:1538  TBNode({... */\n      dup2\n      mstore\n      0x20\n      add\n        /* \"contracts/FlowerStorage.sol\":1499:1506  balance */\n      dup4\n        /* \"contracts/FlowerStorage.sol\":1435:1538  TBNode({... */\n      dup2\n      mstore\n      0x20\n      add\n        /* \"contracts/FlowerStorage.sol\":1526:1527  0 */\n      0x00\n        /* \"contracts/FlowerStorage.sol\":1435:1538  TBNode({... */\n      dup2\n      mstore\n      pop\n        /* \"contracts/FlowerStorage.sol\":1411:1538  TBNode memory newNode = TBNode({... */\n      swap1\n      pop\n        /* \"contracts/FlowerStorage.sol\":1610:1627  uint256 lastIndex */\n      0x00\n        /* \"contracts/FlowerStorage.sol\":1630:1640  lastTBNode */\n      0x05\n        /* \"contracts/FlowerStorage.sol\":1630:1646  lastTBNode[addr] */\n      0x00\n        /* \"contracts/FlowerStorage.sol\":1641:1645  addr */\n      dup7\n        /* \"contracts/FlowerStorage.sol\":1630:1646  lastTBNode[addr] */\n      0xffffffffffffffffffffffffffffffffffffffff\n      and\n      0xffffffffffffffffffffffffffffffffffffffff\n      and\n      dup2\n      mstore\n      0x20\n      add\n      swap1\n      dup2\n      mstore\n      0x20\n      add\n      0x00\n      keccak256\n      sload\n        /* \"contracts/FlowerStorage.sol\":1610:1646  uint256 lastIndex = lastTBNode[addr] */\n      swap1\n      pop\n        /* \"contracts/FlowerStorage.sol\":1733:1749  uint256 newIndex */\n      0x00\n        /* \"contracts/FlowerStorage.sol\":1764:1765  1 */\n      0x01\n        /* \"contracts/FlowerStorage.sol\":1752:1761  lastIndex */\n      dup3\n        /* \"contracts/FlowerStorage.sol\":1752:1765  lastIndex + 1 */\n      tag_98\n      swap2\n      swap1\n      tag_69\n      jump\t// in\n    tag_98:\n        /* \"contracts/FlowerStorage.sol\":1733:1765  uint256 newIndex = lastIndex + 1 */\n      swap1\n      pop\n        /* \"contracts/FlowerStorage.sol\":1807:1814  newNode */\n      dup3\n        /* \"contracts/FlowerStorage.sol\":1775:1788  tbNodeByIndex */\n      0x06\n        /* \"contracts/FlowerStorage.sol\":1775:1794  tbNodeByIndex[addr] */\n      0x00\n        /* \"contracts/FlowerStorage.sol\":1789:1793  addr */\n      dup9\n        /* \"contracts/FlowerStorage.sol\":1775:1794  tbNodeByIndex[addr] */\n      0xffffffffffffffffffffffffffffffffffffffff\n      and\n      0xffffffffffffffffffffffffffffffffffffffff\n      and\n      dup2\n      mstore\n      0x20\n      add\n      swap1\n      dup2\n      mstore\n      0x20\n      add\n      0x00\n      keccak256\n        /* \"contracts/FlowerStorage.sol\":1775:1804  tbNodeByIndex[addr][newIndex] */\n      0x00\n        /* \"contracts/FlowerStorage.sol\":1795:1803  newIndex */\n      dup4\n        /* \"contracts/FlowerStorage.sol\":1775:1804  tbNodeByIndex[addr][newIndex] */\n      dup2\n      mstore\n      0x20\n      add\n      swap1\n      dup2\n      mstore\n      0x20\n      add\n      0x00\n      keccak256\n        /* \"contracts/FlowerStorage.sol\":1775:1814  tbNodeByIndex[addr][newIndex] = newNode */\n      0x00\n      dup3\n      add\n      mload\n      dup2\n      0x00\n      add\n      sstore\n      0x20\n      dup3\n      add\n      mload\n      dup2\n      0x01\n      add\n      sstore\n      0x40\n      dup3\n      add\n      mload\n      dup2\n      0x02\n      add\n      sstore\n      swap1\n      pop\n      pop\n        /* \"contracts/FlowerStorage.sol\":1926:1927  0 */\n      0x00\n        /* \"contracts/FlowerStorage.sol\":1913:1922  lastIndex */\n      dup3\n        /* \"contracts/FlowerStorage.sol\":1913:1927  lastIndex != 0 */\n      eq\n        /* \"contracts/FlowerStorage.sol\":1909:2000  if (lastIndex != 0) {... */\n      tag_99\n      jumpi\n        /* \"contracts/FlowerStorage.sol\":1981:1989  newIndex */\n      dup1\n        /* \"contracts/FlowerStorage.sol\":1943:1956  tbNodeByIndex */\n      0x06\n        /* \"contracts/FlowerStorage.sol\":1943:1962  tbNodeByIndex[addr] */\n      0x00\n        /* \"contracts/FlowerStorage.sol\":1957:1961  addr */\n      dup9\n        /* \"contracts/FlowerStorage.sol\":1943:1962  tbNodeByIndex[addr] */\n      0xffffffffffffffffffffffffffffffffffffffff\n      and\n      0xffffffffffffffffffffffffffffffffffffffff\n      and\n      dup2\n      mstore\n      0x20\n      add\n      swap1\n      dup2\n      mstore\n      0x20\n      add\n      0x00\n      keccak256\n        /* \"contracts/FlowerStorage.sol\":1943:1973  tbNodeByIndex[addr][lastIndex] */\n      0x00\n        /* \"contracts/FlowerStorage.sol\":1963:1972  lastIndex */\n      dup5\n        /* \"contracts/FlowerStorage.sol\":1943:1973  tbNodeByIndex[addr][lastIndex] */\n      dup2\n      mstore\n      0x20\n      add\n      swap1\n      dup2\n      mstore\n      0x20\n      add\n      0x00\n      keccak256\n        /* \"contracts/FlowerStorage.sol\":1943:1978  tbNodeByIndex[addr][lastIndex].next */\n      0x02\n      add\n        /* \"contracts/FlowerStorage.sol\":1943:1989  tbNodeByIndex[addr][lastIndex].next = newIndex */\n      dup2\n      swap1\n      sstore\n      pop\n        /* \"contracts/FlowerStorage.sol\":1909:2000  if (lastIndex != 0) {... */\n    tag_99:\n        /* \"contracts/FlowerStorage.sol\":2095:2103  newIndex */\n      dup1\n        /* \"contracts/FlowerStorage.sol\":2076:2086  lastTBNode */\n      0x05\n        /* \"contracts/FlowerStorage.sol\":2076:2092  lastTBNode[addr] */\n      0x00\n        /* \"contracts/FlowerStorage.sol\":2087:2091  addr */\n      dup9\n        /* \"contracts/FlowerStorage.sol\":2076:2092  lastTBNode[addr] */\n      0xffffffffffffffffffffffffffffffffffffffff\n      and\n      0xffffffffffffffffffffffffffffffffffffffff\n      and\n      dup2\n      mstore\n      0x20\n      add\n      swap1\n      dup2\n      mstore\n      0x20\n      add\n      0x00\n      keccak256\n        /* \"contracts/FlowerStorage.sol\":2076:2103  lastTBNode[addr] = newIndex */\n      dup2\n      swap1\n      sstore\n      pop\n        /* \"contracts/FlowerStorage.sol\":2228:2229  0 */\n      0x00\n        /* \"contracts/FlowerStorage.sol\":2207:2218  firstTBNode */\n      0x04\n        /* \"contracts/FlowerStorage.sol\":2207:2224  firstTBNode[addr] */\n      0x00\n        /* \"contracts/FlowerStorage.sol\":2219:2223  addr */\n      dup9\n        /* \"contracts/FlowerStorage.sol\":2207:2224  firstTBNode[addr] */\n      0xffffffffffffffffffffffffffffffffffffffff\n      and\n      0xffffffffffffffffffffffffffffffffffffffff\n      and\n      dup2\n      mstore\n      0x20\n      add\n      swap1\n      dup2\n      mstore\n      0x20\n      add\n      0x00\n      keccak256\n      sload\n        /* \"contracts/FlowerStorage.sol\":2207:2229  firstTBNode[addr] == 0 */\n      eq\n        /* \"contracts/FlowerStorage.sol\":2203:2284  if (firstTBNode[addr] == 0) {... */\n      iszero\n      tag_100\n      jumpi\n        /* \"contracts/FlowerStorage.sol\":2265:2273  newIndex */\n      dup1\n        /* \"contracts/FlowerStorage.sol\":2245:2256  firstTBNode */\n      0x04\n        /* \"contracts/FlowerStorage.sol\":2245:2262  firstTBNode[addr] */\n      0x00\n        /* \"contracts/FlowerStorage.sol\":2257:2261  addr */\n      dup9\n        /* \"contracts/FlowerStorage.sol\":2245:2262  firstTBNode[addr] */\n      0xffffffffffffffffffffffffffffffffffffffff\n      and\n      0xffffffffffffffffffffffffffffffffffffffff\n      and\n      dup2\n      mstore\n      0x20\n      add\n      swap1\n      dup2\n      mstore\n      0x20\n      add\n      0x00\n      keccak256\n        /* \"contracts/FlowerStorage.sol\":2245:2273  firstTBNode[addr] = newIndex */\n      dup2\n      swap1\n      sstore\n      pop\n        /* \"contracts/FlowerStorage.sol\":2203:2284  if (firstTBNode[addr] == 0) {... */\n    tag_100:\n        /* \"contracts/FlowerStorage.sol\":1295:2290  function addNode(address addr, uint256 timestamp, uint256 balance) private {... */\n      pop\n      pop\n      pop\n      pop\n      pop\n      pop\n      jump\t// out\n        /* \"@openzeppelin/contracts/utils/Context.sol\":640:736  function _msgSender() internal view virtual returns (address) {... */\n    tag_91:\n        /* \"@openzeppelin/contracts/utils/Context.sol\":693:700  address */\n      0x00\n        /* \"@openzeppelin/contracts/utils/Context.sol\":719:729  msg.sender */\n      caller\n        /* \"@openzeppelin/contracts/utils/Context.sol\":712:729  return msg.sender */\n      swap1\n      pop\n        /* \"@openzeppelin/contracts/utils/Context.sol\":640:736  function _msgSender() internal view virtual returns (address) {... */\n      swap1\n      jump\t// out\n        /* \"#utility.yul\":7:146   */\n    tag_103:\n        /* \"#utility.yul\":53:58   */\n      0x00\n        /* \"#utility.yul\":91:97   */\n      dup2\n        /* \"#utility.yul\":78:98   */\n      calldataload\n        /* \"#utility.yul\":69:98   */\n      swap1\n      pop\n        /* \"#utility.yul\":107:140   */\n      tag_105\n        /* \"#utility.yul\":134:139   */\n      dup2\n        /* \"#utility.yul\":107:140   */\n      tag_106\n      jump\t// in\n    tag_105:\n        /* \"#utility.yul\":59:146   */\n      swap3\n      swap2\n      pop\n      pop\n      jump\t// out\n        /* \"#utility.yul\":152:291   */\n    tag_107:\n        /* \"#utility.yul\":198:203   */\n      0x00\n        /* \"#utility.yul\":236:242   */\n      dup2\n        /* \"#utility.yul\":223:243   */\n      calldataload\n        /* \"#utility.yul\":214:243   */\n      swap1\n      pop\n        /* \"#utility.yul\":252:285   */\n      tag_109\n        /* \"#utility.yul\":279:284   */\n      dup2\n        /* \"#utility.yul\":252:285   */\n      tag_110\n      jump\t// in\n    tag_109:\n        /* \"#utility.yul\":204:291   */\n      swap3\n      swap2\n      pop\n      pop\n      jump\t// out\n        /* \"#utility.yul\":297:559   */\n    tag_21:\n        /* \"#utility.yul\":356:362   */\n      0x00\n        /* \"#utility.yul\":405:407   */\n      0x20\n        /* \"#utility.yul\":393:402   */\n      dup3\n        /* \"#utility.yul\":384:391   */\n      dup5\n        /* \"#utility.yul\":380:403   */\n      sub\n        /* \"#utility.yul\":376:408   */\n      slt\n        /* \"#utility.yul\":373:375   */\n      iszero\n      tag_112\n      jumpi\n        /* \"#utility.yul\":421:422   */\n      0x00\n        /* \"#utility.yul\":418:419   */\n      dup1\n        /* \"#utility.yul\":411:423   */\n      revert\n        /* \"#utility.yul\":373:375   */\n    tag_112:\n        /* \"#utility.yul\":464:465   */\n      0x00\n        /* \"#utility.yul\":489:542   */\n      tag_113\n        /* \"#utility.yul\":534:541   */\n      dup5\n        /* \"#utility.yul\":525:531   */\n      dup3\n        /* \"#utility.yul\":514:523   */\n      dup6\n        /* \"#utility.yul\":510:532   */\n      add\n        /* \"#utility.yul\":489:542   */\n      tag_103\n      jump\t// in\n    tag_113:\n        /* \"#utility.yul\":479:542   */\n      swap2\n      pop\n        /* \"#utility.yul\":435:552   */\n      pop\n        /* \"#utility.yul\":363:559   */\n      swap3\n      swap2\n      pop\n      pop\n      jump\t// out\n        /* \"#utility.yul\":565:972   */\n    tag_32:\n        /* \"#utility.yul\":633:639   */\n      0x00\n        /* \"#utility.yul\":641:647   */\n      dup1\n        /* \"#utility.yul\":690:692   */\n      0x40\n        /* \"#utility.yul\":678:687   */\n      dup4\n        /* \"#utility.yul\":669:676   */\n      dup6\n        /* \"#utility.yul\":665:688   */\n      sub\n        /* \"#utility.yul\":661:693   */\n      slt\n        /* \"#utility.yul\":658:660   */\n      iszero\n      tag_115\n      jumpi\n        /* \"#utility.yul\":706:707   */\n      0x00\n        /* \"#utility.yul\":703:704   */\n      dup1\n        /* \"#utility.yul\":696:708   */\n      revert\n        /* \"#utility.yul\":658:660   */\n    tag_115:\n        /* \"#utility.yul\":749:750   */\n      0x00\n        /* \"#utility.yul\":774:827   */\n      tag_116\n        /* \"#utility.yul\":819:826   */\n      dup6\n        /* \"#utility.yul\":810:816   */\n      dup3\n        /* \"#utility.yul\":799:808   */\n      dup7\n        /* \"#utility.yul\":795:817   */\n      add\n        /* \"#utility.yul\":774:827   */\n      tag_103\n      jump\t// in\n    tag_116:\n        /* \"#utility.yul\":764:827   */\n      swap3\n      pop\n        /* \"#utility.yul\":720:837   */\n      pop\n        /* \"#utility.yul\":876:878   */\n      0x20\n        /* \"#utility.yul\":902:955   */\n      tag_117\n        /* \"#utility.yul\":947:954   */\n      dup6\n        /* \"#utility.yul\":938:944   */\n      dup3\n        /* \"#utility.yul\":927:936   */\n      dup7\n        /* \"#utility.yul\":923:945   */\n      add\n        /* \"#utility.yul\":902:955   */\n      tag_107\n      jump\t// in\n    tag_117:\n        /* \"#utility.yul\":892:955   */\n      swap2\n      pop\n        /* \"#utility.yul\":847:965   */\n      pop\n        /* \"#utility.yul\":648:972   */\n      swap3\n      pop\n      swap3\n      swap1\n      pop\n      jump\t// out\n        /* \"#utility.yul\":978:1530   */\n    tag_44:\n        /* \"#utility.yul\":1055:1061   */\n      0x00\n        /* \"#utility.yul\":1063:1069   */\n      dup1\n        /* \"#utility.yul\":1071:1077   */\n      0x00\n        /* \"#utility.yul\":1120:1122   */\n      0x60\n        /* \"#utility.yul\":1108:1117   */\n      dup5\n        /* \"#utility.yul\":1099:1106   */\n      dup7\n        /* \"#utility.yul\":1095:1118   */\n      sub\n        /* \"#utility.yul\":1091:1123   */\n      slt\n        /* \"#utility.yul\":1088:1090   */\n      iszero\n      tag_119\n      jumpi\n        /* \"#utility.yul\":1136:1137   */\n      0x00\n        /* \"#utility.yul\":1133:1134   */\n      dup1\n        /* \"#utility.yul\":1126:1138   */\n      revert\n        /* \"#utility.yul\":1088:1090   */\n    tag_119:\n        /* \"#utility.yul\":1179:1180   */\n      0x00\n        /* \"#utility.yul\":1204:1257   */\n      tag_120\n        /* \"#utility.yul\":1249:1256   */\n      dup7\n        /* \"#utility.yul\":1240:1246   */\n      dup3\n        /* \"#utility.yul\":1229:1238   */\n      dup8\n        /* \"#utility.yul\":1225:1247   */\n      add\n        /* \"#utility.yul\":1204:1257   */\n      tag_103\n      jump\t// in\n    tag_120:\n        /* \"#utility.yul\":1194:1257   */\n      swap4\n      pop\n        /* \"#utility.yul\":1150:1267   */\n      pop\n        /* \"#utility.yul\":1306:1308   */\n      0x20\n        /* \"#utility.yul\":1332:1385   */\n      tag_121\n        /* \"#utility.yul\":1377:1384   */\n      dup7\n        /* \"#utility.yul\":1368:1374   */\n      dup3\n        /* \"#utility.yul\":1357:1366   */\n      dup8\n        /* \"#utility.yul\":1353:1375   */\n      add\n        /* \"#utility.yul\":1332:1385   */\n      tag_107\n      jump\t// in\n    tag_121:\n        /* \"#utility.yul\":1322:1385   */\n      swap3\n      pop\n        /* \"#utility.yul\":1277:1395   */\n      pop\n        /* \"#utility.yul\":1434:1436   */\n      0x40\n        /* \"#utility.yul\":1460:1513   */\n      tag_122\n        /* \"#utility.yul\":1505:1512   */\n      dup7\n        /* \"#utility.yul\":1496:1502   */\n      dup3\n        /* \"#utility.yul\":1485:1494   */\n      dup8\n        /* \"#utility.yul\":1481:1503   */\n      add\n        /* \"#utility.yul\":1460:1513   */\n      tag_107\n      jump\t// in\n    tag_122:\n        /* \"#utility.yul\":1450:1513   */\n      swap2\n      pop\n        /* \"#utility.yul\":1405:1523   */\n      pop\n        /* \"#utility.yul\":1078:1530   */\n      swap3\n      pop\n      swap3\n      pop\n      swap3\n      jump\t// out\n        /* \"#utility.yul\":1536:1654   */\n    tag_123:\n        /* \"#utility.yul\":1623:1647   */\n      tag_125\n        /* \"#utility.yul\":1641:1646   */\n      dup2\n        /* \"#utility.yul\":1623:1647   */\n      tag_126\n      jump\t// in\n    tag_125:\n        /* \"#utility.yul\":1618:1621   */\n      dup3\n        /* \"#utility.yul\":1611:1648   */\n      mstore\n        /* \"#utility.yul\":1601:1654   */\n      pop\n      pop\n      jump\t// out\n        /* \"#utility.yul\":1660:2026   */\n    tag_127:\n        /* \"#utility.yul\":1802:1805   */\n      0x00\n        /* \"#utility.yul\":1823:1890   */\n      tag_129\n        /* \"#utility.yul\":1887:1889   */\n      0x26\n        /* \"#utility.yul\":1882:1885   */\n      dup4\n        /* \"#utility.yul\":1823:1890   */\n      tag_130\n      jump\t// in\n    tag_129:\n        /* \"#utility.yul\":1816:1890   */\n      swap2\n      pop\n        /* \"#utility.yul\":1899:1992   */\n      tag_131\n        /* \"#utility.yul\":1988:1991   */\n      dup3\n        /* \"#utility.yul\":1899:1992   */\n      tag_132\n      jump\t// in\n    tag_131:\n        /* \"#utility.yul\":2017:2019   */\n      0x40\n        /* \"#utility.yul\":2012:2015   */\n      dup3\n        /* \"#utility.yul\":2008:2020   */\n      add\n        /* \"#utility.yul\":2001:2020   */\n      swap1\n      pop\n        /* \"#utility.yul\":1806:2026   */\n      swap2\n      swap1\n      pop\n      jump\t// out\n        /* \"#utility.yul\":2032:2398   */\n    tag_133:\n        /* \"#utility.yul\":2174:2177   */\n      0x00\n        /* \"#utility.yul\":2195:2262   */\n      tag_135\n        /* \"#utility.yul\":2259:2261   */\n      0x20\n        /* \"#utility.yul\":2254:2257   */\n      dup4\n        /* \"#utility.yul\":2195:2262   */\n      tag_130\n      jump\t// in\n    tag_135:\n        /* \"#utility.yul\":2188:2262   */\n      swap2\n      pop\n        /* \"#utility.yul\":2271:2364   */\n      tag_136\n        /* \"#utility.yul\":2360:2363   */\n      dup3\n        /* \"#utility.yul\":2271:2364   */\n      tag_137\n      jump\t// in\n    tag_136:\n        /* \"#utility.yul\":2389:2391   */\n      0x20\n        /* \"#utility.yul\":2384:2387   */\n      dup3\n        /* \"#utility.yul\":2380:2392   */\n      add\n        /* \"#utility.yul\":2373:2392   */\n      swap1\n      pop\n        /* \"#utility.yul\":2178:2398   */\n      swap2\n      swap1\n      pop\n      jump\t// out\n        /* \"#utility.yul\":2404:2522   */\n    tag_138:\n        /* \"#utility.yul\":2491:2515   */\n      tag_140\n        /* \"#utility.yul\":2509:2514   */\n      dup2\n        /* \"#utility.yul\":2491:2515   */\n      tag_141\n      jump\t// in\n    tag_140:\n        /* \"#utility.yul\":2486:2489   */\n      dup3\n        /* \"#utility.yul\":2479:2516   */\n      mstore\n        /* \"#utility.yul\":2469:2522   */\n      pop\n      pop\n      jump\t// out\n        /* \"#utility.yul\":2528:2750   */\n    tag_29:\n        /* \"#utility.yul\":2621:2625   */\n      0x00\n        /* \"#utility.yul\":2659:2661   */\n      0x20\n        /* \"#utility.yul\":2648:2657   */\n      dup3\n        /* \"#utility.yul\":2644:2662   */\n      add\n        /* \"#utility.yul\":2636:2662   */\n      swap1\n      pop\n        /* \"#utility.yul\":2672:2743   */\n      tag_143\n        /* \"#utility.yul\":2740:2741   */\n      0x00\n        /* \"#utility.yul\":2729:2738   */\n      dup4\n        /* \"#utility.yul\":2725:2742   */\n      add\n        /* \"#utility.yul\":2716:2722   */\n      dup5\n        /* \"#utility.yul\":2672:2743   */\n      tag_123\n      jump\t// in\n    tag_143:\n        /* \"#utility.yul\":2626:2750   */\n      swap3\n      swap2\n      pop\n      pop\n      jump\t// out\n        /* \"#utility.yul\":2756:3175   */\n    tag_87:\n        /* \"#utility.yul\":2922:2926   */\n      0x00\n        /* \"#utility.yul\":2960:2962   */\n      0x20\n        /* \"#utility.yul\":2949:2958   */\n      dup3\n        /* \"#utility.yul\":2945:2963   */\n      add\n        /* \"#utility.yul\":2937:2963   */\n      swap1\n      pop\n        /* \"#utility.yul\":3009:3018   */\n      dup2\n        /* \"#utility.yul\":3003:3007   */\n      dup2\n        /* \"#utility.yul\":2999:3019   */\n      sub\n        /* \"#utility.yul\":2995:2996   */\n      0x00\n        /* \"#utility.yul\":2984:2993   */\n      dup4\n        /* \"#utility.yul\":2980:2997   */\n      add\n        /* \"#utility.yul\":2973:3020   */\n      mstore\n        /* \"#utility.yul\":3037:3168   */\n      tag_145\n        /* \"#utility.yul\":3163:3167   */\n      dup2\n        /* \"#utility.yul\":3037:3168   */\n      tag_127\n      jump\t// in\n    tag_145:\n        /* \"#utility.yul\":3029:3168   */\n      swap1\n      pop\n        /* \"#utility.yul\":2927:3175   */\n      swap2\n      swap1\n      pop\n      jump\t// out\n        /* \"#utility.yul\":3181:3600   */\n    tag_95:\n        /* \"#utility.yul\":3347:3351   */\n      0x00\n        /* \"#utility.yul\":3385:3387   */\n      0x20\n        /* \"#utility.yul\":3374:3383   */\n      dup3\n        /* \"#utility.yul\":3370:3388   */\n      add\n        /* \"#utility.yul\":3362:3388   */\n      swap1\n      pop\n        /* \"#utility.yul\":3434:3443   */\n      dup2\n        /* \"#utility.yul\":3428:3432   */\n      dup2\n        /* \"#utility.yul\":3424:3444   */\n      sub\n        /* \"#utility.yul\":3420:3421   */\n      0x00\n        /* \"#utility.yul\":3409:3418   */\n      dup4\n        /* \"#utility.yul\":3405:3422   */\n      add\n        /* \"#utility.yul\":3398:3445   */\n      mstore\n        /* \"#utility.yul\":3462:3593   */\n      tag_147\n        /* \"#utility.yul\":3588:3592   */\n      dup2\n        /* \"#utility.yul\":3462:3593   */\n      tag_133\n      jump\t// in\n    tag_147:\n        /* \"#utility.yul\":3454:3593   */\n      swap1\n      pop\n        /* \"#utility.yul\":3352:3600   */\n      swap2\n      swap1\n      pop\n      jump\t// out\n        /* \"#utility.yul\":3606:3828   */\n    tag_18:\n        /* \"#utility.yul\":3699:3703   */\n      0x00\n        /* \"#utility.yul\":3737:3739   */\n      0x20\n        /* \"#utility.yul\":3726:3735   */\n      dup3\n        /* \"#utility.yul\":3722:3740   */\n      add\n        /* \"#utility.yul\":3714:3740   */\n      swap1\n      pop\n        /* \"#utility.yul\":3750:3821   */\n      tag_149\n        /* \"#utility.yul\":3818:3819   */\n      0x00\n        /* \"#utility.yul\":3807:3816   */\n      dup4\n        /* \"#utility.yul\":3803:3820   */\n      add\n        /* \"#utility.yul\":3794:3800   */\n      dup5\n        /* \"#utility.yul\":3750:3821   */\n      tag_138\n      jump\t// in\n    tag_149:\n        /* \"#utility.yul\":3704:3828   */\n      swap3\n      swap2\n      pop\n      pop\n      jump\t// out\n        /* \"#utility.yul\":3834:4276   */\n    tag_53:\n        /* \"#utility.yul\":3983:3987   */\n      0x00\n        /* \"#utility.yul\":4021:4023   */\n      0x60\n        /* \"#utility.yul\":4010:4019   */\n      dup3\n        /* \"#utility.yul\":4006:4024   */\n      add\n        /* \"#utility.yul\":3998:4024   */\n      swap1\n      pop\n        /* \"#utility.yul\":4034:4105   */\n      tag_151\n        /* \"#utility.yul\":4102:4103   */\n      0x00\n        /* \"#utility.yul\":4091:4100   */\n      dup4\n        /* \"#utility.yul\":4087:4104   */\n      add\n        /* \"#utility.yul\":4078:4084   */\n      dup7\n        /* \"#utility.yul\":4034:4105   */\n      tag_138\n      jump\t// in\n    tag_151:\n        /* \"#utility.yul\":4115:4187   */\n      tag_152\n        /* \"#utility.yul\":4183:4185   */\n      0x20\n        /* \"#utility.yul\":4172:4181   */\n      dup4\n        /* \"#utility.yul\":4168:4186   */\n      add\n        /* \"#utility.yul\":4159:4165   */\n      dup6\n        /* \"#utility.yul\":4115:4187   */\n      tag_138\n      jump\t// in\n    tag_152:\n        /* \"#utility.yul\":4197:4269   */\n      tag_153\n        /* \"#utility.yul\":4265:4267   */\n      0x40\n        /* \"#utility.yul\":4254:4263   */\n      dup4\n        /* \"#utility.yul\":4250:4268   */\n      add\n        /* \"#utility.yul\":4241:4247   */\n      dup5\n        /* \"#utility.yul\":4197:4269   */\n      tag_138\n      jump\t// in\n    tag_153:\n        /* \"#utility.yul\":3988:4276   */\n      swap5\n      swap4\n      pop\n      pop\n      pop\n      pop\n      jump\t// out\n        /* \"#utility.yul\":4282:4451   */\n    tag_130:\n        /* \"#utility.yul\":4366:4377   */\n      0x00\n        /* \"#utility.yul\":4400:4406   */\n      dup3\n        /* \"#utility.yul\":4395:4398   */\n      dup3\n        /* \"#utility.yul\":4388:4407   */\n      mstore\n        /* \"#utility.yul\":4440:4444   */\n      0x20\n        /* \"#utility.yul\":4435:4438   */\n      dup3\n        /* \"#utility.yul\":4431:4445   */\n      add\n        /* \"#utility.yul\":4416:4445   */\n      swap1\n      pop\n        /* \"#utility.yul\":4378:4451   */\n      swap3\n      swap2\n      pop\n      pop\n      jump\t// out\n        /* \"#utility.yul\":4457:4762   */\n    tag_69:\n        /* \"#utility.yul\":4497:4500   */\n      0x00\n        /* \"#utility.yul\":4516:4536   */\n      tag_156\n        /* \"#utility.yul\":4534:4535   */\n      dup3\n        /* \"#utility.yul\":4516:4536   */\n      tag_141\n      jump\t// in\n    tag_156:\n        /* \"#utility.yul\":4511:4536   */\n      swap2\n      pop\n        /* \"#utility.yul\":4550:4570   */\n      tag_157\n        /* \"#utility.yul\":4568:4569   */\n      dup4\n        /* \"#utility.yul\":4550:4570   */\n      tag_141\n      jump\t// in\n    tag_157:\n        /* \"#utility.yul\":4545:4570   */\n      swap3\n      pop\n        /* \"#utility.yul\":4704:4705   */\n      dup3\n        /* \"#utility.yul\":4636:4702   */\n      0xffffffffffffffffffffffffffffffffffffffffffffffffffffffffffffffff\n        /* \"#utility.yul\":4632:4706   */\n      sub\n        /* \"#utility.yul\":4629:4630   */\n      dup3\n        /* \"#utility.yul\":4626:4707   */\n      gt\n        /* \"#utility.yul\":4623:4625   */\n      iszero\n      tag_158\n      jumpi\n        /* \"#utility.yul\":4710:4728   */\n      tag_159\n      tag_160\n      jump\t// in\n    tag_159:\n        /* \"#utility.yul\":4623:4625   */\n    tag_158:\n        /* \"#utility.yul\":4754:4755   */\n      dup3\n        /* \"#utility.yul\":4751:4752   */\n      dup3\n        /* \"#utility.yul\":4747:4756   */\n      add\n        /* \"#utility.yul\":4740:4756   */\n      swap1\n      pop\n        /* \"#utility.yul\":4501:4762   */\n      swap3\n      swap2\n      pop\n      pop\n      jump\t// out\n        /* \"#utility.yul\":4768:4959   */\n    tag_73:\n        /* \"#utility.yul\":4808:4812   */\n      0x00\n        /* \"#utility.yul\":4828:4848   */\n      tag_162\n        /* \"#utility.yul\":4846:4847   */\n      dup3\n        /* \"#utility.yul\":4828:4848   */\n      tag_141\n      jump\t// in\n    tag_162:\n        /* \"#utility.yul\":4823:4848   */\n      swap2\n      pop\n        /* \"#utility.yul\":4862:4882   */\n      tag_163\n        /* \"#utility.yul\":4880:4881   */\n      dup4\n        /* \"#utility.yul\":4862:4882   */\n      tag_141\n      jump\t// in\n    tag_163:\n        /* \"#utility.yul\":4857:4882   */\n      swap3\n      pop\n        /* \"#utility.yul\":4901:4902   */\n      dup3\n        /* \"#utility.yul\":4898:4899   */\n      dup3\n        /* \"#utility.yul\":4895:4903   */\n      lt\n        /* \"#utility.yul\":4892:4894   */\n      iszero\n      tag_164\n      jumpi\n        /* \"#utility.yul\":4906:4924   */\n      tag_165\n      tag_160\n      jump\t// in\n    tag_165:\n        /* \"#utility.yul\":4892:4894   */\n    tag_164:\n        /* \"#utility.yul\":4951:4952   */\n      dup3\n        /* \"#utility.yul\":4948:4949   */\n      dup3\n        /* \"#utility.yul\":4944:4953   */\n      sub\n        /* \"#utility.yul\":4936:4953   */\n      swap1\n      pop\n        /* \"#utility.yul\":4813:4959   */\n      swap3\n      swap2\n      pop\n      pop\n      jump\t// out\n        /* \"#utility.yul\":4965:5061   */\n    tag_126:\n        /* \"#utility.yul\":5002:5009   */\n      0x00\n        /* \"#utility.yul\":5031:5055   */\n      tag_167\n        /* \"#utility.yul\":5049:5054   */\n      dup3\n        /* \"#utility.yul\":5031:5055   */\n      tag_168\n      jump\t// in\n    tag_167:\n        /* \"#utility.yul\":5020:5055   */\n      swap1\n      pop\n        /* \"#utility.yul\":5010:5061   */\n      swap2\n      swap1\n      pop\n      jump\t// out\n        /* \"#utility.yul\":5067:5193   */\n    tag_168:\n        /* \"#utility.yul\":5104:5111   */\n      0x00\n        /* \"#utility.yul\":5144:5186   */\n      0xffffffffffffffffffffffffffffffffffffffff\n        /* \"#utility.yul\":5137:5142   */\n      dup3\n        /* \"#utility.yul\":5133:5187   */\n      and\n        /* \"#utility.yul\":5122:5187   */\n      swap1\n      pop\n        /* \"#utility.yul\":5112:5193   */\n      swap2\n      swap1\n      pop\n      jump\t// out\n        /* \"#utility.yul\":5199:5276   */\n    tag_141:\n        /* \"#utility.yul\":5236:5243   */\n      0x00\n        /* \"#utility.yul\":5265:5270   */\n      dup2\n        /* \"#utility.yul\":5254:5270   */\n      swap1\n      pop\n        /* \"#utility.yul\":5244:5276   */\n      swap2\n      swap1\n      pop\n      jump\t// out\n        /* \"#utility.yul\":5282:5462   */\n    tag_160:\n        /* \"#utility.yul\":5330:5407   */\n      0x4e487b7100000000000000000000000000000000000000000000000000000000\n        /* \"#utility.yul\":5327:5328   */\n      0x00\n        /* \"#utility.yul\":5320:5408   */\n      mstore\n        /* \"#utility.yul\":5427:5431   */\n      0x11\n        /* \"#utility.yul\":5424:5425   */\n      0x04\n        /* \"#utility.yul\":5417:5432   */\n      mstore\n        /* \"#utility.yul\":5451:5455   */\n      0x24\n        /* \"#utility.yul\":5448:5449   */\n      0x00\n        /* \"#utility.yul\":5441:5456   */\n      revert\n        /* \"#utility.yul\":5468:5693   */\n    tag_132:\n        /* \"#utility.yul\":5608:5642   */\n      0x4f776e61626c653a206e6577206f776e657220697320746865207a65726f2061\n        /* \"#utility.yul\":5604:5605   */\n      0x00\n        /* \"#utility.yul\":5596:5602   */\n      dup3\n        /* \"#utility.yul\":5592:5606   */\n      add\n        /* \"#utility.yul\":5585:5643   */\n      mstore\n        /* \"#utility.yul\":5677:5685   */\n      0x6464726573730000000000000000000000000000000000000000000000000000\n        /* \"#utility.yul\":5672:5674   */\n      0x20\n        /* \"#utility.yul\":5664:5670   */\n      dup3\n        /* \"#utility.yul\":5660:5675   */\n      add\n        /* \"#utility.yul\":5653:5686   */\n      mstore\n        /* \"#utility.yul\":5574:5693   */\n      pop\n      jump\t// out\n        /* \"#utility.yul\":5699:5881   */\n    tag_137:\n        /* \"#utility.yul\":5839:5873   */\n      0x4f776e61626c653a2063616c6c6572206973206e6f7420746865206f776e6572\n        /* \"#utility.yul\":5835:5836   */\n      0x00\n        /* \"#utility.yul\":5827:5833   */\n      dup3\n        /* \"#utility.yul\":5823:5837   */\n      add\n        /* \"#utility.yul\":5816:5874   */\n      mstore\n        /* \"#utility.yul\":5805:5881   */\n      pop\n      jump\t// out\n        /* \"#utility.yul\":5887:6009   */\n    tag_106:\n        /* \"#utility.yul\":5960:5984   */\n      tag_175\n        /* \"#utility.yul\":5978:5983   */\n      dup2\n        /* \"#utility.yul\":5960:5984   */\n      tag_126\n      jump\t// in\n    tag_175:\n        /* \"#utility.yul\":5953:5958   */\n      dup2\n        /* \"#utility.yul\":5950:5985   */\n      eq\n        /* \"#utility.yul\":5940:5942   */\n      tag_176\n      jumpi\n        /* \"#utility.yul\":5999:6000   */\n      0x00\n        /* \"#utility.yul\":5996:5997   */\n      dup1\n        /* \"#utility.yul\":5989:6001   */\n      revert\n        /* \"#utility.yul\":5940:5942   */\n    tag_176:\n        /* \"#utility.yul\":5930:6009   */\n      pop\n      jump\t// out\n        /* \"#utility.yul\":6015:6137   */\n    tag_110:\n        /* \"#utility.yul\":6088:6112   */\n      tag_178\n        /* \"#utility.yul\":6106:6111   */\n      dup2\n        /* \"#utility.yul\":6088:6112   */\n      tag_141\n      jump\t// in\n    tag_178:\n        /* \"#utility.yul\":6081:6086   */\n      dup2\n        /* \"#utility.yul\":6078:6113   */\n      eq\n        /* \"#utility.yul\":6068:6070   */\n      tag_179\n      jumpi\n        /* \"#utility.yul\":6127:6128   */\n      0x00\n        /* \"#utility.yul\":6124:6125   */\n      dup1\n        /* \"#utility.yul\":6117:6129   */\n      revert\n        /* \"#utility.yul\":6068:6070   */\n    tag_179:\n        /* \"#utility.yul\":6058:6137   */\n      pop\n      jump\t// out\n\n    auxdata: 0xa26469706673582212205c1c7cc2544ed46e2c0b75d2af1ef31221856bce71b8434669eb6ad0d010caae64736f6c63430008040033\n}\n",
				"bytecode": {
					"linkReferences": {},
					"object": "60806040523480156200001157600080fd5b5062000032620000266200004960201b60201c565b6200005160201b60201c565b62000043336200011560201b60201c565b62000381565b600033905090565b60008060009054906101000a900473ffffffffffffffffffffffffffffffffffffffff169050816000806101000a81548173ffffffffffffffffffffffffffffffffffffffff021916908373ffffffffffffffffffffffffffffffffffffffff1602179055508173ffffffffffffffffffffffffffffffffffffffff168173ffffffffffffffffffffffffffffffffffffffff167f8be0079c531659141344cd1fd0a4f28419497f9722a3daafe3b4186f6b6457e060405160405180910390a35050565b62000125620001ac60201b60201c565b600073ffffffffffffffffffffffffffffffffffffffff168173ffffffffffffffffffffffffffffffffffffffff16141562000198576040517f08c379a00000000000000000000000000000000000000000000000000000000081526004016200018f90620002b4565b60405180910390fd5b620001a9816200005160201b60201c565b50565b620001bc6200004960201b60201c565b73ffffffffffffffffffffffffffffffffffffffff16620001e26200023d60201b60201c565b73ffffffffffffffffffffffffffffffffffffffff16146200023b576040517f08c379a00000000000000000000000000000000000000000000000000000000081526004016200023290620002d6565b60405180910390fd5b565b60008060009054906101000a900473ffffffffffffffffffffffffffffffffffffffff16905090565b600062000275602683620002f8565b9150620002828262000309565b604082019050919050565b60006200029c602083620002f8565b9150620002a98262000358565b602082019050919050565b60006020820190508181036000830152620002cf8162000266565b9050919050565b60006020820190508181036000830152620002f1816200028d565b9050919050565b600082825260208201905092915050565b7f4f776e61626c653a206e6577206f776e657220697320746865207a65726f206160008201527f6464726573730000000000000000000000000000000000000000000000000000602082015250565b7f4f776e61626c653a2063616c6c6572206973206e6f7420746865206f776e6572600082015250565b610e9380620003916000396000f3fe608060405234801561001057600080fd5b50600436106100a95760003560e01c8063aee9c87211610071578063aee9c87214610140578063baafd2d814610170578063ca056aed146101a0578063ce5e9365146101bc578063efe54dd5146101da578063f2fde38b1461020c576100a9565b806318160ddd146100ae5780636e76c3cf146100cc578063715018a6146100fc5780638da5cb5b14610106578063a3a142d214610124575b600080fd5b6100b6610228565b6040516100c39190610c5f565b60405180910390f35b6100e660048036038101906100e19190610aec565b61022e565b6040516100f39190610c5f565b60405180910390f35b610104610246565b005b61010e61025a565b60405161011b9190610c04565b60405180910390f35b61013e60048036038101906101399190610b15565b610283565b005b61015a60048036038101906101559190610aec565b6105d7565b6040516101679190610c5f565b60405180910390f35b61018a60048036038101906101859190610aec565b6105ef565b6040516101979190610c5f565b60405180910390f35b6101ba60048036038101906101b59190610b51565b610607565b005b6101c4610696565b6040516101d19190610c5f565b60405180910390f35b6101f460048036038101906101ef9190610b15565b61069c565b60405161020393929190610c7a565b60405180910390f35b61022660048036038101906102219190610aec565b6106d3565b005b60025481565b60046020528060005260406000206000915090505481565b61024e610757565b61025860006107d5565b565b60008060009054906101000a900473ffffffffffffffffffffffffffffffffffffffff16905090565b6000600460008473ffffffffffffffffffffffffffffffffffffffff1673ffffffffffffffffffffffffffffffffffffffff1681526020019081526020016000205490506000600660008573ffffffffffffffffffffffffffffffffffffffff1673ffffffffffffffffffffffffffffffffffffffff16815260200190815260200160002060008381526020019081526020016000206040518060600160405290816000820154815260200160018201548152602001600282015481525050905060005b600083141580156103675750428483600001516103649190610cc2565b11155b15610548578160400151600460008773ffffffffffffffffffffffffffffffffffffffff1673ffffffffffffffffffffffffffffffffffffffff1681526020019081526020016000208190555082600560008773ffffffffffffffffffffffffffffffffffffffff1673ffffffffffffffffffffffffffffffffffffffff168152602001908152602001600020541415610444578160400151600560008773ffffffffffffffffffffffffffffffffffffffff1673ffffffffffffffffffffffffffffffffffffffff168152602001908152602001600020819055505b8160200151816104549190610cc2565b9050600660008673ffffffffffffffffffffffffffffffffffffffff1673ffffffffffffffffffffffffffffffffffffffff168152602001908152602001600020600084815260200190815260200160002060008082016000905560018201600090556002820160009055505081604001519250600660008673ffffffffffffffffffffffffffffffffffffffff1673ffffffffffffffffffffffffffffffffffffffff168152602001908152602001600020600084815260200190815260200160002060405180606001604052908160008201548152602001600182015481526020016002820154815250509150610347565b80600160008773ffffffffffffffffffffffffffffffffffffffff1673ffffffffffffffffffffffffffffffffffffffff16815260200190815260200160002060008282546105979190610d18565b9250508190555080600260008282546105b09190610d18565b9250508190555080600360008282546105c99190610cc2565b925050819055505050505050565b60016020528060005260406000206000915090505481565b60056020528060005260406000206000915090505481565b6106118382610283565b6000429050610621848285610899565b82600160008673ffffffffffffffffffffffffffffffffffffffff1673ffffffffffffffffffffffffffffffffffffffff16815260200190815260200160002060008282546106709190610cc2565b9250508190555082600260008282546106899190610cc2565b9250508190555050505050565b60035481565b6006602052816000526040600020602052806000526040600020600091509150508060000154908060010154908060020154905083565b6106db610757565b600073ffffffffffffffffffffffffffffffffffffffff168173ffffffffffffffffffffffffffffffffffffffff16141561074b576040517f08c379a000000000000000000000000000000000000000000000000000000000815260040161074290610c1f565b60405180910390fd5b610754816107d5565b50565b61075f610aba565b73ffffffffffffffffffffffffffffffffffffffff1661077d61025a565b73ffffffffffffffffffffffffffffffffffffffff16146107d3576040517f08c379a00000000000000000000000000000000000000000000000000000000081526004016107ca90610c3f565b60405180910390fd5b565b60008060009054906101000a900473ffffffffffffffffffffffffffffffffffffffff169050816000806101000a81548173ffffffffffffffffffffffffffffffffffffffff021916908373ffffffffffffffffffffffffffffffffffffffff1602179055508173ffffffffffffffffffffffffffffffffffffffff168173ffffffffffffffffffffffffffffffffffffffff167f8be0079c531659141344cd1fd0a4f28419497f9722a3daafe3b4186f6b6457e060405160405180910390a35050565b60006040518060600160405280848152602001838152602001600081525090506000600560008673ffffffffffffffffffffffffffffffffffffffff1673ffffffffffffffffffffffffffffffffffffffff168152602001908152602001600020549050600060018261090c9190610cc2565b905082600660008873ffffffffffffffffffffffffffffffffffffffff1673ffffffffffffffffffffffffffffffffffffffff1681526020019081526020016000206000838152602001908152602001600020600082015181600001556020820151816001015560408201518160020155905050600082146109e15780600660008873ffffffffffffffffffffffffffffffffffffffff1673ffffffffffffffffffffffffffffffffffffffff1681526020019081526020016000206000848152602001908152602001600020600201819055505b80600560008873ffffffffffffffffffffffffffffffffffffffff1673ffffffffffffffffffffffffffffffffffffffff168152602001908152602001600020819055506000600460008873ffffffffffffffffffffffffffffffffffffffff1673ffffffffffffffffffffffffffffffffffffffff168152602001908152602001600020541415610ab25780600460008873ffffffffffffffffffffffffffffffffffffffff1673ffffffffffffffffffffffffffffffffffffffff168152602001908152602001600020819055505b505050505050565b600033905090565b600081359050610ad181610e2f565b92915050565b600081359050610ae681610e46565b92915050565b600060208284031215610afe57600080fd5b6000610b0c84828501610ac2565b91505092915050565b60008060408385031215610b2857600080fd5b6000610b3685828601610ac2565b9250506020610b4785828601610ad7565b9150509250929050565b600080600060608486031215610b6657600080fd5b6000610b7486828701610ac2565b9350506020610b8586828701610ad7565b9250506040610b9686828701610ad7565b9150509250925092565b610ba981610d4c565b82525050565b6000610bbc602683610cb1565b9150610bc782610db7565b604082019050919050565b6000610bdf602083610cb1565b9150610bea82610e06565b602082019050919050565b610bfe81610d7e565b82525050565b6000602082019050610c196000830184610ba0565b92915050565b60006020820190508181036000830152610c3881610baf565b9050919050565b60006020820190508181036000830152610c5881610bd2565b9050919050565b6000602082019050610c746000830184610bf5565b92915050565b6000606082019050610c8f6000830186610bf5565b610c9c6020830185610bf5565b610ca96040830184610bf5565b949350505050565b600082825260208201905092915050565b6000610ccd82610d7e565b9150610cd883610d7e565b9250827fffffffffffffffffffffffffffffffffffffffffffffffffffffffffffffffff03821115610d0d57610d0c610d88565b5b828201905092915050565b6000610d2382610d7e565b9150610d2e83610d7e565b925082821015610d4157610d40610d88565b5b828203905092915050565b6000610d5782610d5e565b9050919050565b600073ffffffffffffffffffffffffffffffffffffffff82169050919050565b6000819050919050565b7f4e487b7100000000000000000000000000000000000000000000000000000000600052601160045260246000fd5b7f4f776e61626c653a206e6577206f776e657220697320746865207a65726f206160008201527f6464726573730000000000000000000000000000000000000000000000000000602082015250565b7f4f776e61626c653a2063616c6c6572206973206e6f7420746865206f776e6572600082015250565b610e3881610d4c565b8114610e4357600080fd5b50565b610e4f81610d7e565b8114610e5a57600080fd5b5056fea26469706673582212205c1c7cc2544ed46e2c0b75d2af1ef31221856bce71b8434669eb6ad0d010caae64736f6c63430008040033",
					"opcodes": "PUSH1 0x80 PUSH1 0x40 MSTORE CALLVALUE DUP1 ISZERO PUSH3 0x11 JUMPI PUSH1 0x0 DUP1 REVERT JUMPDEST POP PUSH3 0x32 PUSH3 0x26 PUSH3 0x49 PUSH1 0x20 SHL PUSH1 0x20 SHR JUMP JUMPDEST PUSH3 0x51 PUSH1 0x20 SHL PUSH1 0x20 SHR JUMP JUMPDEST PUSH3 0x43 CALLER PUSH3 0x115 PUSH1 0x20 SHL PUSH1 0x20 SHR JUMP JUMPDEST PUSH3 0x381 JUMP JUMPDEST PUSH1 0x0 CALLER SWAP1 POP SWAP1 JUMP JUMPDEST PUSH1 0x0 DUP1 PUSH1 0x0 SWAP1 SLOAD SWAP1 PUSH2 0x100 EXP SWAP1 DIV PUSH20 0xFFFFFFFFFFFFFFFFFFFFFFFFFFFFFFFFFFFFFFFF AND SWAP1 POP DUP2 PUSH1 0x0 DUP1 PUSH2 0x100 EXP DUP2 SLOAD DUP2 PUSH20 0xFFFFFFFFFFFFFFFFFFFFFFFFFFFFFFFFFFFFFFFF MUL NOT AND SWAP1 DUP4 PUSH20 0xFFFFFFFFFFFFFFFFFFFFFFFFFFFFFFFFFFFFFFFF AND MUL OR SWAP1 SSTORE POP DUP2 PUSH20 0xFFFFFFFFFFFFFFFFFFFFFFFFFFFFFFFFFFFFFFFF AND DUP2 PUSH20 0xFFFFFFFFFFFFFFFFFFFFFFFFFFFFFFFFFFFFFFFF AND PUSH32 0x8BE0079C531659141344CD1FD0A4F28419497F9722A3DAAFE3B4186F6B6457E0 PUSH1 0x40 MLOAD PUSH1 0x40 MLOAD DUP1 SWAP2 SUB SWAP1 LOG3 POP POP JUMP JUMPDEST PUSH3 0x125 PUSH3 0x1AC PUSH1 0x20 SHL PUSH1 0x20 SHR JUMP JUMPDEST PUSH1 0x0 PUSH20 0xFFFFFFFFFFFFFFFFFFFFFFFFFFFFFFFFFFFFFFFF AND DUP2 PUSH20 0xFFFFFFFFFFFFFFFFFFFFFFFFFFFFFFFFFFFFFFFF AND EQ ISZERO PUSH3 0x198 JUMPI PUSH1 0x40 MLOAD PUSH32 0x8C379A000000000000000000000000000000000000000000000000000000000 DUP2 MSTORE PUSH1 0x4 ADD PUSH3 0x18F SWAP1 PUSH3 0x2B4 JUMP JUMPDEST PUSH1 0x40 MLOAD DUP1 SWAP2 SUB SWAP1 REVERT JUMPDEST PUSH3 0x1A9 DUP2 PUSH3 0x51 PUSH1 0x20 SHL PUSH1 0x20 SHR JUMP JUMPDEST POP JUMP JUMPDEST PUSH3 0x1BC PUSH3 0x49 PUSH1 0x20 SHL PUSH1 0x20 SHR JUMP JUMPDEST PUSH20 0xFFFFFFFFFFFFFFFFFFFFFFFFFFFFFFFFFFFFFFFF AND PUSH3 0x1E2 PUSH3 0x23D PUSH1 0x20 SHL PUSH1 0x20 SHR JUMP JUMPDEST PUSH20 0xFFFFFFFFFFFFFFFFFFFFFFFFFFFFFFFFFFFFFFFF AND EQ PUSH3 0x23B JUMPI PUSH1 0x40 MLOAD PUSH32 0x8C379A000000000000000000000000000000000000000000000000000000000 DUP2 MSTORE PUSH1 0x4 ADD PUSH3 0x232 SWAP1 PUSH3 0x2D6 JUMP JUMPDEST PUSH1 0x40 MLOAD DUP1 SWAP2 SUB SWAP1 REVERT JUMPDEST JUMP JUMPDEST PUSH1 0x0 DUP1 PUSH1 0x0 SWAP1 SLOAD SWAP1 PUSH2 0x100 EXP SWAP1 DIV PUSH20 0xFFFFFFFFFFFFFFFFFFFFFFFFFFFFFFFFFFFFFFFF AND SWAP1 POP SWAP1 JUMP JUMPDEST PUSH1 0x0 PUSH3 0x275 PUSH1 0x26 DUP4 PUSH3 0x2F8 JUMP JUMPDEST SWAP2 POP PUSH3 0x282 DUP3 PUSH3 0x309 JUMP JUMPDEST PUSH1 0x40 DUP3 ADD SWAP1 POP SWAP2 SWAP1 POP JUMP JUMPDEST PUSH1 0x0 PUSH3 0x29C PUSH1 0x20 DUP4 PUSH3 0x2F8 JUMP JUMPDEST SWAP2 POP PUSH3 0x2A9 DUP3 PUSH3 0x358 JUMP JUMPDEST PUSH1 0x20 DUP3 ADD SWAP1 POP SWAP2 SWAP1 POP JUMP JUMPDEST PUSH1 0x0 PUSH1 0x20 DUP3 ADD SWAP1 POP DUP2 DUP2 SUB PUSH1 0x0 DUP4 ADD MSTORE PUSH3 0x2CF DUP2 PUSH3 0x266 JUMP JUMPDEST SWAP1 POP SWAP2 SWAP1 POP JUMP JUMPDEST PUSH1 0x0 PUSH1 0x20 DUP3 ADD SWAP1 POP DUP2 DUP2 SUB PUSH1 0x0 DUP4 ADD MSTORE PUSH3 0x2F1 DUP2 PUSH3 0x28D JUMP JUMPDEST SWAP1 POP SWAP2 SWAP1 POP JUMP JUMPDEST PUSH1 0x0 DUP3 DUP3 MSTORE PUSH1 0x20 DUP3 ADD SWAP1 POP SWAP3 SWAP2 POP POP JUMP JUMPDEST PUSH32 0x4F776E61626C653A206E6577206F776E657220697320746865207A65726F2061 PUSH1 0x0 DUP3 ADD MSTORE PUSH32 0x6464726573730000000000000000000000000000000000000000000000000000 PUSH1 0x20 DUP3 ADD MSTORE POP JUMP JUMPDEST PUSH32 0x4F776E61626C653A2063616C6C6572206973206E6F7420746865206F776E6572 PUSH1 0x0 DUP3 ADD MSTORE POP JUMP JUMPDEST PUSH2 0xE93 DUP1 PUSH3 0x391 PUSH1 0x0 CODECOPY PUSH1 0x0 RETURN INVALID PUSH1 0x80 PUSH1 0x40 MSTORE CALLVALUE DUP1 ISZERO PUSH2 0x10 JUMPI PUSH1 0x0 DUP1 REVERT JUMPDEST POP PUSH1 0x4 CALLDATASIZE LT PUSH2 0xA9 JUMPI PUSH1 0x0 CALLDATALOAD PUSH1 0xE0 SHR DUP1 PUSH4 0xAEE9C872 GT PUSH2 0x71 JUMPI DUP1 PUSH4 0xAEE9C872 EQ PUSH2 0x140 JUMPI DUP1 PUSH4 0xBAAFD2D8 EQ PUSH2 0x170 JUMPI DUP1 PUSH4 0xCA056AED EQ PUSH2 0x1A0 JUMPI DUP1 PUSH4 0xCE5E9365 EQ PUSH2 0x1BC JUMPI DUP1 PUSH4 0xEFE54DD5 EQ PUSH2 0x1DA JUMPI DUP1 PUSH4 0xF2FDE38B EQ PUSH2 0x20C JUMPI PUSH2 0xA9 JUMP JUMPDEST DUP1 PUSH4 0x18160DDD EQ PUSH2 0xAE JUMPI DUP1 PUSH4 0x6E76C3CF EQ PUSH2 0xCC JUMPI DUP1 PUSH4 0x715018A6 EQ PUSH2 0xFC JUMPI DUP1 PUSH4 0x8DA5CB5B EQ PUSH2 0x106 JUMPI DUP1 PUSH4 0xA3A142D2 EQ PUSH2 0x124 JUMPI JUMPDEST PUSH1 0x0 DUP1 REVERT JUMPDEST PUSH2 0xB6 PUSH2 0x228 JUMP JUMPDEST PUSH1 0x40 MLOAD PUSH2 0xC3 SWAP2 SWAP1 PUSH2 0xC5F JUMP JUMPDEST PUSH1 0x40 MLOAD DUP1 SWAP2 SUB SWAP1 RETURN JUMPDEST PUSH2 0xE6 PUSH1 0x4 DUP1 CALLDATASIZE SUB DUP2 ADD SWAP1 PUSH2 0xE1 SWAP2 SWAP1 PUSH2 0xAEC JUMP JUMPDEST PUSH2 0x22E JUMP JUMPDEST PUSH1 0x40 MLOAD PUSH2 0xF3 SWAP2 SWAP1 PUSH2 0xC5F JUMP JUMPDEST PUSH1 0x40 MLOAD DUP1 SWAP2 SUB SWAP1 RETURN JUMPDEST PUSH2 0x104 PUSH2 0x246 JUMP JUMPDEST STOP JUMPDEST PUSH2 0x10E PUSH2 0x25A JUMP JUMPDEST PUSH1 0x40 MLOAD PUSH2 0x11B SWAP2 SWAP1 PUSH2 0xC04 JUMP JUMPDEST PUSH1 0x40 MLOAD DUP1 SWAP2 SUB SWAP1 RETURN JUMPDEST PUSH2 0x13E PUSH1 0x4 DUP1 CALLDATASIZE SUB DUP2 ADD SWAP1 PUSH2 0x139 SWAP2 SWAP1 PUSH2 0xB15 JUMP JUMPDEST PUSH2 0x283 JUMP JUMPDEST STOP JUMPDEST PUSH2 0x15A PUSH1 0x4 DUP1 CALLDATASIZE SUB DUP2 ADD SWAP1 PUSH2 0x155 SWAP2 SWAP1 PUSH2 0xAEC JUMP JUMPDEST PUSH2 0x5D7 JUMP JUMPDEST PUSH1 0x40 MLOAD PUSH2 0x167 SWAP2 SWAP1 PUSH2 0xC5F JUMP JUMPDEST PUSH1 0x40 MLOAD DUP1 SWAP2 SUB SWAP1 RETURN JUMPDEST PUSH2 0x18A PUSH1 0x4 DUP1 CALLDATASIZE SUB DUP2 ADD SWAP1 PUSH2 0x185 SWAP2 SWAP1 PUSH2 0xAEC JUMP JUMPDEST PUSH2 0x5EF JUMP JUMPDEST PUSH1 0x40 MLOAD PUSH2 0x197 SWAP2 SWAP1 PUSH2 0xC5F JUMP JUMPDEST PUSH1 0x40 MLOAD DUP1 SWAP2 SUB SWAP1 RETURN JUMPDEST PUSH2 0x1BA PUSH1 0x4 DUP1 CALLDATASIZE SUB DUP2 ADD SWAP1 PUSH2 0x1B5 SWAP2 SWAP1 PUSH2 0xB51 JUMP JUMPDEST PUSH2 0x607 JUMP JUMPDEST STOP JUMPDEST PUSH2 0x1C4 PUSH2 0x696 JUMP JUMPDEST PUSH1 0x40 MLOAD PUSH2 0x1D1 SWAP2 SWAP1 PUSH2 0xC5F JUMP JUMPDEST PUSH1 0x40 MLOAD DUP1 SWAP2 SUB SWAP1 RETURN JUMPDEST PUSH2 0x1F4 PUSH1 0x4 DUP1 CALLDATASIZE SUB DUP2 ADD SWAP1 PUSH2 0x1EF SWAP2 SWAP1 PUSH2 0xB15 JUMP JUMPDEST PUSH2 0x69C JUMP JUMPDEST PUSH1 0x40 MLOAD PUSH2 0x203 SWAP4 SWAP3 SWAP2 SWAP1 PUSH2 0xC7A JUMP JUMPDEST PUSH1 0x40 MLOAD DUP1 SWAP2 SUB SWAP1 RETURN JUMPDEST PUSH2 0x226 PUSH1 0x4 DUP1 CALLDATASIZE SUB DUP2 ADD SWAP1 PUSH2 0x221 SWAP2 SWAP1 PUSH2 0xAEC JUMP JUMPDEST PUSH2 0x6D3 JUMP JUMPDEST STOP JUMPDEST PUSH1 0x2 SLOAD DUP2 JUMP JUMPDEST PUSH1 0x4 PUSH1 0x20 MSTORE DUP1 PUSH1 0x0 MSTORE PUSH1 0x40 PUSH1 0x0 KECCAK256 PUSH1 0x0 SWAP2 POP SWAP1 POP SLOAD DUP2 JUMP JUMPDEST PUSH2 0x24E PUSH2 0x757 JUMP JUMPDEST PUSH2 0x258 PUSH1 0x0 PUSH2 0x7D5 JUMP JUMPDEST JUMP JUMPDEST PUSH1 0x0 DUP1 PUSH1 0x0 SWAP1 SLOAD SWAP1 PUSH2 0x100 EXP SWAP1 DIV PUSH20 0xFFFFFFFFFFFFFFFFFFFFFFFFFFFFFFFFFFFFFFFF AND SWAP1 POP SWAP1 JUMP JUMPDEST PUSH1 0x0 PUSH1 0x4 PUSH1 0x0 DUP5 PUSH20 0xFFFFFFFFFFFFFFFFFFFFFFFFFFFFFFFFFFFFFFFF AND PUSH20 0xFFFFFFFFFFFFFFFFFFFFFFFFFFFFFFFFFFFFFFFF AND DUP2 MSTORE PUSH1 0x20 ADD SWAP1 DUP2 MSTORE PUSH1 0x20 ADD PUSH1 0x0 KECCAK256 SLOAD SWAP1 POP PUSH1 0x0 PUSH1 0x6 PUSH1 0x0 DUP6 PUSH20 0xFFFFFFFFFFFFFFFFFFFFFFFFFFFFFFFFFFFFFFFF AND PUSH20 0xFFFFFFFFFFFFFFFFFFFFFFFFFFFFFFFFFFFFFFFF AND DUP2 MSTORE PUSH1 0x20 ADD SWAP1 DUP2 MSTORE PUSH1 0x20 ADD PUSH1 0x0 KECCAK256 PUSH1 0x0 DUP4 DUP2 MSTORE PUSH1 0x20 ADD SWAP1 DUP2 MSTORE PUSH1 0x20 ADD PUSH1 0x0 KECCAK256 PUSH1 0x40 MLOAD DUP1 PUSH1 0x60 ADD PUSH1 0x40 MSTORE SWAP1 DUP2 PUSH1 0x0 DUP3 ADD SLOAD DUP2 MSTORE PUSH1 0x20 ADD PUSH1 0x1 DUP3 ADD SLOAD DUP2 MSTORE PUSH1 0x20 ADD PUSH1 0x2 DUP3 ADD SLOAD DUP2 MSTORE POP POP SWAP1 POP PUSH1 0x0 JUMPDEST PUSH1 0x0 DUP4 EQ ISZERO DUP1 ISZERO PUSH2 0x367 JUMPI POP TIMESTAMP DUP5 DUP4 PUSH1 0x0 ADD MLOAD PUSH2 0x364 SWAP2 SWAP1 PUSH2 0xCC2 JUMP JUMPDEST GT ISZERO JUMPDEST ISZERO PUSH2 0x548 JUMPI DUP2 PUSH1 0x40 ADD MLOAD PUSH1 0x4 PUSH1 0x0 DUP8 PUSH20 0xFFFFFFFFFFFFFFFFFFFFFFFFFFFFFFFFFFFFFFFF AND PUSH20 0xFFFFFFFFFFFFFFFFFFFFFFFFFFFFFFFFFFFFFFFF AND DUP2 MSTORE PUSH1 0x20 ADD SWAP1 DUP2 MSTORE PUSH1 0x20 ADD PUSH1 0x0 KECCAK256 DUP2 SWAP1 SSTORE POP DUP3 PUSH1 0x5 PUSH1 0x0 DUP8 PUSH20 0xFFFFFFFFFFFFFFFFFFFFFFFFFFFFFFFFFFFFFFFF AND PUSH20 0xFFFFFFFFFFFFFFFFFFFFFFFFFFFFFFFFFFFFFFFF AND DUP2 MSTORE PUSH1 0x20 ADD SWAP1 DUP2 MSTORE PUSH1 0x20 ADD PUSH1 0x0 KECCAK256 SLOAD EQ ISZERO PUSH2 0x444 JUMPI DUP2 PUSH1 0x40 ADD MLOAD PUSH1 0x5 PUSH1 0x0 DUP8 PUSH20 0xFFFFFFFFFFFFFFFFFFFFFFFFFFFFFFFFFFFFFFFF AND PUSH20 0xFFFFFFFFFFFFFFFFFFFFFFFFFFFFFFFFFFFFFFFF AND DUP2 MSTORE PUSH1 0x20 ADD SWAP1 DUP2 MSTORE PUSH1 0x20 ADD PUSH1 0x0 KECCAK256 DUP2 SWAP1 SSTORE POP JUMPDEST DUP2 PUSH1 0x20 ADD MLOAD DUP2 PUSH2 0x454 SWAP2 SWAP1 PUSH2 0xCC2 JUMP JUMPDEST SWAP1 POP PUSH1 0x6 PUSH1 0x0 DUP7 PUSH20 0xFFFFFFFFFFFFFFFFFFFFFFFFFFFFFFFFFFFFFFFF AND PUSH20 0xFFFFFFFFFFFFFFFFFFFFFFFFFFFFFFFFFFFFFFFF AND DUP2 MSTORE PUSH1 0x20 ADD SWAP1 DUP2 MSTORE PUSH1 0x20 ADD PUSH1 0x0 KECCAK256 PUSH1 0x0 DUP5 DUP2 MSTORE PUSH1 0x20 ADD SWAP1 DUP2 MSTORE PUSH1 0x20 ADD PUSH1 0x0 KECCAK256 PUSH1 0x0 DUP1 DUP3 ADD PUSH1 0x0 SWAP1 SSTORE PUSH1 0x1 DUP3 ADD PUSH1 0x0 SWAP1 SSTORE PUSH1 0x2 DUP3 ADD PUSH1 0x0 SWAP1 SSTORE POP POP DUP2 PUSH1 0x40 ADD MLOAD SWAP3 POP PUSH1 0x6 PUSH1 0x0 DUP7 PUSH20 0xFFFFFFFFFFFFFFFFFFFFFFFFFFFFFFFFFFFFFFFF AND PUSH20 0xFFFFFFFFFFFFFFFFFFFFFFFFFFFFFFFFFFFFFFFF AND DUP2 MSTORE PUSH1 0x20 ADD SWAP1 DUP2 MSTORE PUSH1 0x20 ADD PUSH1 0x0 KECCAK256 PUSH1 0x0 DUP5 DUP2 MSTORE PUSH1 0x20 ADD SWAP1 DUP2 MSTORE PUSH1 0x20 ADD PUSH1 0x0 KECCAK256 PUSH1 0x40 MLOAD DUP1 PUSH1 0x60 ADD PUSH1 0x40 MSTORE SWAP1 DUP2 PUSH1 0x0 DUP3 ADD SLOAD DUP2 MSTORE PUSH1 0x20 ADD PUSH1 0x1 DUP3 ADD SLOAD DUP2 MSTORE PUSH1 0x20 ADD PUSH1 0x2 DUP3 ADD SLOAD DUP2 MSTORE POP POP SWAP2 POP PUSH2 0x347 JUMP JUMPDEST DUP1 PUSH1 0x1 PUSH1 0x0 DUP8 PUSH20 0xFFFFFFFFFFFFFFFFFFFFFFFFFFFFFFFFFFFFFFFF AND PUSH20 0xFFFFFFFFFFFFFFFFFFFFFFFFFFFFFFFFFFFFFFFF AND DUP2 MSTORE PUSH1 0x20 ADD SWAP1 DUP2 MSTORE PUSH1 0x20 ADD PUSH1 0x0 KECCAK256 PUSH1 0x0 DUP3 DUP3 SLOAD PUSH2 0x597 SWAP2 SWAP1 PUSH2 0xD18 JUMP JUMPDEST SWAP3 POP POP DUP2 SWAP1 SSTORE POP DUP1 PUSH1 0x2 PUSH1 0x0 DUP3 DUP3 SLOAD PUSH2 0x5B0 SWAP2 SWAP1 PUSH2 0xD18 JUMP JUMPDEST SWAP3 POP POP DUP2 SWAP1 SSTORE POP DUP1 PUSH1 0x3 PUSH1 0x0 DUP3 DUP3 SLOAD PUSH2 0x5C9 SWAP2 SWAP1 PUSH2 0xCC2 JUMP JUMPDEST SWAP3 POP POP DUP2 SWAP1 SSTORE POP POP POP POP POP POP JUMP JUMPDEST PUSH1 0x1 PUSH1 0x20 MSTORE DUP1 PUSH1 0x0 MSTORE PUSH1 0x40 PUSH1 0x0 KECCAK256 PUSH1 0x0 SWAP2 POP SWAP1 POP SLOAD DUP2 JUMP JUMPDEST PUSH1 0x5 PUSH1 0x20 MSTORE DUP1 PUSH1 0x0 MSTORE PUSH1 0x40 PUSH1 0x0 KECCAK256 PUSH1 0x0 SWAP2 POP SWAP1 POP SLOAD DUP2 JUMP JUMPDEST PUSH2 0x611 DUP4 DUP3 PUSH2 0x283 JUMP JUMPDEST PUSH1 0x0 TIMESTAMP SWAP1 POP PUSH2 0x621 DUP5 DUP3 DUP6 PUSH2 0x899 JUMP JUMPDEST DUP3 PUSH1 0x1 PUSH1 0x0 DUP7 PUSH20 0xFFFFFFFFFFFFFFFFFFFFFFFFFFFFFFFFFFFFFFFF AND PUSH20 0xFFFFFFFFFFFFFFFFFFFFFFFFFFFFFFFFFFFFFFFF AND DUP2 MSTORE PUSH1 0x20 ADD SWAP1 DUP2 MSTORE PUSH1 0x20 ADD PUSH1 0x0 KECCAK256 PUSH1 0x0 DUP3 DUP3 SLOAD PUSH2 0x670 SWAP2 SWAP1 PUSH2 0xCC2 JUMP JUMPDEST SWAP3 POP POP DUP2 SWAP1 SSTORE POP DUP3 PUSH1 0x2 PUSH1 0x0 DUP3 DUP3 SLOAD PUSH2 0x689 SWAP2 SWAP1 PUSH2 0xCC2 JUMP JUMPDEST SWAP3 POP POP DUP2 SWAP1 SSTORE POP POP POP POP POP JUMP JUMPDEST PUSH1 0x3 SLOAD DUP2 JUMP JUMPDEST PUSH1 0x6 PUSH1 0x20 MSTORE DUP2 PUSH1 0x0 MSTORE PUSH1 0x40 PUSH1 0x0 KECCAK256 PUSH1 0x20 MSTORE DUP1 PUSH1 0x0 MSTORE PUSH1 0x40 PUSH1 0x0 KECCAK256 PUSH1 0x0 SWAP2 POP SWAP2 POP POP DUP1 PUSH1 0x0 ADD SLOAD SWAP1 DUP1 PUSH1 0x1 ADD SLOAD SWAP1 DUP1 PUSH1 0x2 ADD SLOAD SWAP1 POP DUP4 JUMP JUMPDEST PUSH2 0x6DB PUSH2 0x757 JUMP JUMPDEST PUSH1 0x0 PUSH20 0xFFFFFFFFFFFFFFFFFFFFFFFFFFFFFFFFFFFFFFFF AND DUP2 PUSH20 0xFFFFFFFFFFFFFFFFFFFFFFFFFFFFFFFFFFFFFFFF AND EQ ISZERO PUSH2 0x74B JUMPI PUSH1 0x40 MLOAD PUSH32 0x8C379A000000000000000000000000000000000000000000000000000000000 DUP2 MSTORE PUSH1 0x4 ADD PUSH2 0x742 SWAP1 PUSH2 0xC1F JUMP JUMPDEST PUSH1 0x40 MLOAD DUP1 SWAP2 SUB SWAP1 REVERT JUMPDEST PUSH2 0x754 DUP2 PUSH2 0x7D5 JUMP JUMPDEST POP JUMP JUMPDEST PUSH2 0x75F PUSH2 0xABA JUMP JUMPDEST PUSH20 0xFFFFFFFFFFFFFFFFFFFFFFFFFFFFFFFFFFFFFFFF AND PUSH2 0x77D PUSH2 0x25A JUMP JUMPDEST PUSH20 0xFFFFFFFFFFFFFFFFFFFFFFFFFFFFFFFFFFFFFFFF AND EQ PUSH2 0x7D3 JUMPI PUSH1 0x40 MLOAD PUSH32 0x8C379A000000000000000000000000000000000000000000000000000000000 DUP2 MSTORE PUSH1 0x4 ADD PUSH2 0x7CA SWAP1 PUSH2 0xC3F JUMP JUMPDEST PUSH1 0x40 MLOAD DUP1 SWAP2 SUB SWAP1 REVERT JUMPDEST JUMP JUMPDEST PUSH1 0x0 DUP1 PUSH1 0x0 SWAP1 SLOAD SWAP1 PUSH2 0x100 EXP SWAP1 DIV PUSH20 0xFFFFFFFFFFFFFFFFFFFFFFFFFFFFFFFFFFFFFFFF AND SWAP1 POP DUP2 PUSH1 0x0 DUP1 PUSH2 0x100 EXP DUP2 SLOAD DUP2 PUSH20 0xFFFFFFFFFFFFFFFFFFFFFFFFFFFFFFFFFFFFFFFF MUL NOT AND SWAP1 DUP4 PUSH20 0xFFFFFFFFFFFFFFFFFFFFFFFFFFFFFFFFFFFFFFFF AND MUL OR SWAP1 SSTORE POP DUP2 PUSH20 0xFFFFFFFFFFFFFFFFFFFFFFFFFFFFFFFFFFFFFFFF AND DUP2 PUSH20 0xFFFFFFFFFFFFFFFFFFFFFFFFFFFFFFFFFFFFFFFF AND PUSH32 0x8BE0079C531659141344CD1FD0A4F28419497F9722A3DAAFE3B4186F6B6457E0 PUSH1 0x40 MLOAD PUSH1 0x40 MLOAD DUP1 SWAP2 SUB SWAP1 LOG3 POP POP JUMP JUMPDEST PUSH1 0x0 PUSH1 0x40 MLOAD DUP1 PUSH1 0x60 ADD PUSH1 0x40 MSTORE DUP1 DUP5 DUP2 MSTORE PUSH1 0x20 ADD DUP4 DUP2 MSTORE PUSH1 0x20 ADD PUSH1 0x0 DUP2 MSTORE POP SWAP1 POP PUSH1 0x0 PUSH1 0x5 PUSH1 0x0 DUP7 PUSH20 0xFFFFFFFFFFFFFFFFFFFFFFFFFFFFFFFFFFFFFFFF AND PUSH20 0xFFFFFFFFFFFFFFFFFFFFFFFFFFFFFFFFFFFFFFFF AND DUP2 MSTORE PUSH1 0x20 ADD SWAP1 DUP2 MSTORE PUSH1 0x20 ADD PUSH1 0x0 KECCAK256 SLOAD SWAP1 POP PUSH1 0x0 PUSH1 0x1 DUP3 PUSH2 0x90C SWAP2 SWAP1 PUSH2 0xCC2 JUMP JUMPDEST SWAP1 POP DUP3 PUSH1 0x6 PUSH1 0x0 DUP9 PUSH20 0xFFFFFFFFFFFFFFFFFFFFFFFFFFFFFFFFFFFFFFFF AND PUSH20 0xFFFFFFFFFFFFFFFFFFFFFFFFFFFFFFFFFFFFFFFF AND DUP2 MSTORE PUSH1 0x20 ADD SWAP1 DUP2 MSTORE PUSH1 0x20 ADD PUSH1 0x0 KECCAK256 PUSH1 0x0 DUP4 DUP2 MSTORE PUSH1 0x20 ADD SWAP1 DUP2 MSTORE PUSH1 0x20 ADD PUSH1 0x0 KECCAK256 PUSH1 0x0 DUP3 ADD MLOAD DUP2 PUSH1 0x0 ADD SSTORE PUSH1 0x20 DUP3 ADD MLOAD DUP2 PUSH1 0x1 ADD SSTORE PUSH1 0x40 DUP3 ADD MLOAD DUP2 PUSH1 0x2 ADD SSTORE SWAP1 POP POP PUSH1 0x0 DUP3 EQ PUSH2 0x9E1 JUMPI DUP1 PUSH1 0x6 PUSH1 0x0 DUP9 PUSH20 0xFFFFFFFFFFFFFFFFFFFFFFFFFFFFFFFFFFFFFFFF AND PUSH20 0xFFFFFFFFFFFFFFFFFFFFFFFFFFFFFFFFFFFFFFFF AND DUP2 MSTORE PUSH1 0x20 ADD SWAP1 DUP2 MSTORE PUSH1 0x20 ADD PUSH1 0x0 KECCAK256 PUSH1 0x0 DUP5 DUP2 MSTORE PUSH1 0x20 ADD SWAP1 DUP2 MSTORE PUSH1 0x20 ADD PUSH1 0x0 KECCAK256 PUSH1 0x2 ADD DUP2 SWAP1 SSTORE POP JUMPDEST DUP1 PUSH1 0x5 PUSH1 0x0 DUP9 PUSH20 0xFFFFFFFFFFFFFFFFFFFFFFFFFFFFFFFFFFFFFFFF AND PUSH20 0xFFFFFFFFFFFFFFFFFFFFFFFFFFFFFFFFFFFFFFFF AND DUP2 MSTORE PUSH1 0x20 ADD SWAP1 DUP2 MSTORE PUSH1 0x20 ADD PUSH1 0x0 KECCAK256 DUP2 SWAP1 SSTORE POP PUSH1 0x0 PUSH1 0x4 PUSH1 0x0 DUP9 PUSH20 0xFFFFFFFFFFFFFFFFFFFFFFFFFFFFFFFFFFFFFFFF AND PUSH20 0xFFFFFFFFFFFFFFFFFFFFFFFFFFFFFFFFFFFFFFFF AND DUP2 MSTORE PUSH1 0x20 ADD SWAP1 DUP2 MSTORE PUSH1 0x20 ADD PUSH1 0x0 KECCAK256 SLOAD EQ ISZERO PUSH2 0xAB2 JUMPI DUP1 PUSH1 0x4 PUSH1 0x0 DUP9 PUSH20 0xFFFFFFFFFFFFFFFFFFFFFFFFFFFFFFFFFFFFFFFF AND PUSH20 0xFFFFFFFFFFFFFFFFFFFFFFFFFFFFFFFFFFFFFFFF AND DUP2 MSTORE PUSH1 0x20 ADD SWAP1 DUP2 MSTORE PUSH1 0x20 ADD PUSH1 0x0 KECCAK256 DUP2 SWAP1 SSTORE POP JUMPDEST POP POP POP POP POP POP JUMP JUMPDEST PUSH1 0x0 CALLER SWAP1 POP SWAP1 JUMP JUMPDEST PUSH1 0x0 DUP2 CALLDATALOAD SWAP1 POP PUSH2 0xAD1 DUP2 PUSH2 0xE2F JUMP JUMPDEST SWAP3 SWAP2 POP POP JUMP JUMPDEST PUSH1 0x0 DUP2 CALLDATALOAD SWAP1 POP PUSH2 0xAE6 DUP2 PUSH2 0xE46 JUMP JUMPDEST SWAP3 SWAP2 POP POP JUMP JUMPDEST PUSH1 0x0 PUSH1 0x20 DUP3 DUP5 SUB SLT ISZERO PUSH2 0xAFE JUMPI PUSH1 0x0 DUP1 REVERT JUMPDEST PUSH1 0x0 PUSH2 0xB0C DUP5 DUP3 DUP6 ADD PUSH2 0xAC2 JUMP JUMPDEST SWAP2 POP POP SWAP3 SWAP2 POP POP JUMP JUMPDEST PUSH1 0x0 DUP1 PUSH1 0x40 DUP4 DUP6 SUB SLT ISZERO PUSH2 0xB28 JUMPI PUSH1 0x0 DUP1 REVERT JUMPDEST PUSH1 0x0 PUSH2 0xB36 DUP6 DUP3 DUP7 ADD PUSH2 0xAC2 JUMP JUMPDEST SWAP3 POP POP PUSH1 0x20 PUSH2 0xB47 DUP6 DUP3 DUP7 ADD PUSH2 0xAD7 JUMP JUMPDEST SWAP2 POP POP SWAP3 POP SWAP3 SWAP1 POP JUMP JUMPDEST PUSH1 0x0 DUP1 PUSH1 0x0 PUSH1 0x60 DUP5 DUP7 SUB SLT ISZERO PUSH2 0xB66 JUMPI PUSH1 0x0 DUP1 REVERT JUMPDEST PUSH1 0x0 PUSH2 0xB74 DUP7 DUP3 DUP8 ADD PUSH2 0xAC2 JUMP JUMPDEST SWAP4 POP POP PUSH1 0x20 PUSH2 0xB85 DUP7 DUP3 DUP8 ADD PUSH2 0xAD7 JUMP JUMPDEST SWAP3 POP POP PUSH1 0x40 PUSH2 0xB96 DUP7 DUP3 DUP8 ADD PUSH2 0xAD7 JUMP JUMPDEST SWAP2 POP POP SWAP3 POP SWAP3 POP SWAP3 JUMP JUMPDEST PUSH2 0xBA9 DUP2 PUSH2 0xD4C JUMP JUMPDEST DUP3 MSTORE POP POP JUMP JUMPDEST PUSH1 0x0 PUSH2 0xBBC PUSH1 0x26 DUP4 PUSH2 0xCB1 JUMP JUMPDEST SWAP2 POP PUSH2 0xBC7 DUP3 PUSH2 0xDB7 JUMP JUMPDEST PUSH1 0x40 DUP3 ADD SWAP1 POP SWAP2 SWAP1 POP JUMP JUMPDEST PUSH1 0x0 PUSH2 0xBDF PUSH1 0x20 DUP4 PUSH2 0xCB1 JUMP JUMPDEST SWAP2 POP PUSH2 0xBEA DUP3 PUSH2 0xE06 JUMP JUMPDEST PUSH1 0x20 DUP3 ADD SWAP1 POP SWAP2 SWAP1 POP JUMP JUMPDEST PUSH2 0xBFE DUP2 PUSH2 0xD7E JUMP JUMPDEST DUP3 MSTORE POP POP JUMP JUMPDEST PUSH1 0x0 PUSH1 0x20 DUP3 ADD SWAP1 POP PUSH2 0xC19 PUSH1 0x0 DUP4 ADD DUP5 PUSH2 0xBA0 JUMP JUMPDEST SWAP3 SWAP2 POP POP JUMP JUMPDEST PUSH1 0x0 PUSH1 0x20 DUP3 ADD SWAP1 POP DUP2 DUP2 SUB PUSH1 0x0 DUP4 ADD MSTORE PUSH2 0xC38 DUP2 PUSH2 0xBAF JUMP JUMPDEST SWAP1 POP SWAP2 SWAP1 POP JUMP JUMPDEST PUSH1 0x0 PUSH1 0x20 DUP3 ADD SWAP1 POP DUP2 DUP2 SUB PUSH1 0x0 DUP4 ADD MSTORE PUSH2 0xC58 DUP2 PUSH2 0xBD2 JUMP JUMPDEST SWAP1 POP SWAP2 SWAP1 POP JUMP JUMPDEST PUSH1 0x0 PUSH1 0x20 DUP3 ADD SWAP1 POP PUSH2 0xC74 PUSH1 0x0 DUP4 ADD DUP5 PUSH2 0xBF5 JUMP JUMPDEST SWAP3 SWAP2 POP POP JUMP JUMPDEST PUSH1 0x0 PUSH1 0x60 DUP3 ADD SWAP1 POP PUSH2 0xC8F PUSH1 0x0 DUP4 ADD DUP7 PUSH2 0xBF5 JUMP JUMPDEST PUSH2 0xC9C PUSH1 0x20 DUP4 ADD DUP6 PUSH2 0xBF5 JUMP JUMPDEST PUSH2 0xCA9 PUSH1 0x40 DUP4 ADD DUP5 PUSH2 0xBF5 JUMP JUMPDEST SWAP5 SWAP4 POP POP POP POP JUMP JUMPDEST PUSH1 0x0 DUP3 DUP3 MSTORE PUSH1 0x20 DUP3 ADD SWAP1 POP SWAP3 SWAP2 POP POP JUMP JUMPDEST PUSH1 0x0 PUSH2 0xCCD DUP3 PUSH2 0xD7E JUMP JUMPDEST SWAP2 POP PUSH2 0xCD8 DUP4 PUSH2 0xD7E JUMP JUMPDEST SWAP3 POP DUP3 PUSH32 0xFFFFFFFFFFFFFFFFFFFFFFFFFFFFFFFFFFFFFFFFFFFFFFFFFFFFFFFFFFFFFFFF SUB DUP3 GT ISZERO PUSH2 0xD0D JUMPI PUSH2 0xD0C PUSH2 0xD88 JUMP JUMPDEST JUMPDEST DUP3 DUP3 ADD SWAP1 POP SWAP3 SWAP2 POP POP JUMP JUMPDEST PUSH1 0x0 PUSH2 0xD23 DUP3 PUSH2 0xD7E JUMP JUMPDEST SWAP2 POP PUSH2 0xD2E DUP4 PUSH2 0xD7E JUMP JUMPDEST SWAP3 POP DUP3 DUP3 LT ISZERO PUSH2 0xD41 JUMPI PUSH2 0xD40 PUSH2 0xD88 JUMP JUMPDEST JUMPDEST DUP3 DUP3 SUB SWAP1 POP SWAP3 SWAP2 POP POP JUMP JUMPDEST PUSH1 0x0 PUSH2 0xD57 DUP3 PUSH2 0xD5E JUMP JUMPDEST SWAP1 POP SWAP2 SWAP1 POP JUMP JUMPDEST PUSH1 0x0 PUSH20 0xFFFFFFFFFFFFFFFFFFFFFFFFFFFFFFFFFFFFFFFF DUP3 AND SWAP1 POP SWAP2 SWAP1 POP JUMP JUMPDEST PUSH1 0x0 DUP2 SWAP1 POP SWAP2 SWAP1 POP JUMP JUMPDEST PUSH32 0x4E487B7100000000000000000000000000000000000000000000000000000000 PUSH1 0x0 MSTORE PUSH1 0x11 PUSH1 0x4 MSTORE PUSH1 0x24 PUSH1 0x0 REVERT JUMPDEST PUSH32 0x4F776E61626C653A206E6577206F776E657220697320746865207A65726F2061 PUSH1 0x0 DUP3 ADD MSTORE PUSH32 0x6464726573730000000000000000000000000000000000000000000000000000 PUSH1 0x20 DUP3 ADD MSTORE POP JUMP JUMPDEST PUSH32 0x4F776E61626C653A2063616C6C6572206973206E6F7420746865206F776E6572 PUSH1 0x0 DUP3 ADD MSTORE POP JUMP JUMPDEST PUSH2 0xE38 DUP2 PUSH2 0xD4C JUMP JUMPDEST DUP2 EQ PUSH2 0xE43 JUMPI PUSH1 0x0 DUP1 REVERT JUMPDEST POP JUMP JUMPDEST PUSH2 0xE4F DUP2 PUSH2 0xD7E JUMP JUMPDEST DUP2 EQ PUSH2 0xE5A JUMPI PUSH1 0x0 DUP1 REVERT JUMPDEST POP JUMP INVALID LOG2 PUSH5 0x6970667358 0x22 SLT KECCAK256 0x5C SHR PUSH29 0xC2544ED46E2C0B75D2AF1EF31221856BCE71B8434669EB6AD0D010CAAE PUSH5 0x736F6C6343 STOP ADDMOD DIV STOP CALLER "
				},
				"gasEstimates": {
					"creation": {
						"codeDepositCost": "746200",
						"executionCost": "infinite",
						"totalCost": "infinite"
					},
					"external": {
						"addTokens(address,uint256,uint256)": "infinite",
						"firstTBNode(address)": "1537",
						"lastTBNode(address)": "1536",
						"owner()": "1289",
						"removeExpiredTokens(address,uint256)": "infinite",
						"renounceOwnership()": "24443",
						"tbNodeByIndex(address,uint256)": "infinite",
						"totalBalances(address)": "1514",
						"totalExpired()": "1195",
						"totalSupply()": "1130",
						"transferOwnership(address)": "24857"
					},
					"internal": {
						"addNode(address,uint256,uint256)": "infinite"
					}
				},
				"methodIdentifiers": {
					"addTokens(address,uint256,uint256)": "ca056aed",
					"firstTBNode(address)": "6e76c3cf",
					"lastTBNode(address)": "baafd2d8",
					"owner()": "8da5cb5b",
					"removeExpiredTokens(address,uint256)": "a3a142d2",
					"renounceOwnership()": "715018a6",
					"tbNodeByIndex(address,uint256)": "efe54dd5",
					"totalBalances(address)": "aee9c872",
					"totalExpired()": "ce5e9365",
					"totalSupply()": "18160ddd",
					"transferOwnership(address)": "f2fde38b"
				}
			},
			"storageLayout": {
				"storage": [
					{
						"astId": 7,
						"contract": "contracts/FlowerStorage.sol:FlowerStorage",
						"label": "_owner",
						"offset": 0,
						"slot": "0",
						"type": "t_address"
					},
					{
						"astId": 152,
						"contract": "contracts/FlowerStorage.sol:FlowerStorage",
						"label": "totalBalances",
						"offset": 0,
						"slot": "1",
						"type": "t_mapping(t_address,t_uint256)"
					},
					{
						"astId": 161,
						"contract": "contracts/FlowerStorage.sol:FlowerStorage",
						"label": "totalSupply",
						"offset": 0,
						"slot": "2",
						"type": "t_uint256"
					},
					{
						"astId": 163,
						"contract": "contracts/FlowerStorage.sol:FlowerStorage",
						"label": "totalExpired",
						"offset": 0,
						"slot": "3",
						"type": "t_uint256"
					},
					{
						"astId": 167,
						"contract": "contracts/FlowerStorage.sol:FlowerStorage",
						"label": "firstTBNode",
						"offset": 0,
						"slot": "4",
						"type": "t_mapping(t_address,t_uint256)"
					},
					{
						"astId": 171,
						"contract": "contracts/FlowerStorage.sol:FlowerStorage",
						"label": "lastTBNode",
						"offset": 0,
						"slot": "5",
						"type": "t_mapping(t_address,t_uint256)"
					},
					{
						"astId": 178,
						"contract": "contracts/FlowerStorage.sol:FlowerStorage",
						"label": "tbNodeByIndex",
						"offset": 0,
						"slot": "6",
						"type": "t_mapping(t_address,t_mapping(t_uint256,t_struct(TBNode)159_storage))"
					}
				],
				"types": {
					"t_address": {
						"encoding": "inplace",
						"label": "address",
						"numberOfBytes": "20"
					},
					"t_mapping(t_address,t_mapping(t_uint256,t_struct(TBNode)159_storage))": {
						"encoding": "mapping",
						"key": "t_address",
						"label": "mapping(address => mapping(uint256 => struct FlowerStorage.TBNode))",
						"numberOfBytes": "32",
						"value": "t_mapping(t_uint256,t_struct(TBNode)159_storage)"
					},
					"t_mapping(t_address,t_uint256)": {
						"encoding": "mapping",
						"key": "t_address",
						"label": "mapping(address => uint256)",
						"numberOfBytes": "32",
						"value": "t_uint256"
					},
					"t_mapping(t_uint256,t_struct(TBNode)159_storage)": {
						"encoding": "mapping",
						"key": "t_uint256",
						"label": "mapping(uint256 => struct FlowerStorage.TBNode)",
						"numberOfBytes": "32",
						"value": "t_struct(TBNode)159_storage"
					},
					"t_struct(TBNode)159_storage": {
						"encoding": "inplace",
						"label": "struct FlowerStorage.TBNode",
						"members": [
							{
								"astId": 154,
								"contract": "contracts/FlowerStorage.sol:FlowerStorage",
								"label": "timestamp",
								"offset": 0,
								"slot": "0",
								"type": "t_uint256"
							},
							{
								"astId": 156,
								"contract": "contracts/FlowerStorage.sol:FlowerStorage",
								"label": "balance",
								"offset": 0,
								"slot": "1",
								"type": "t_uint256"
							},
							{
								"astId": 158,
								"contract": "contracts/FlowerStorage.sol:FlowerStorage",
								"label": "next",
								"offset": 0,
								"slot": "2",
								"type": "t_uint256"
							}
						],
						"numberOfBytes": "96"
					},
					"t_uint256": {
						"encoding": "inplace",
						"label": "uint256",
						"numberOfBytes": "32"
					}
				}
			},
			"userdoc": {
				"kind": "user",
				"methods": {},
				"version": 1
			}
		}
	}
}