{
	"contracts/Registry.sol": {
		"Registry": {
			"abi": [
				{
					"inputs": [],
					"stateMutability": "nonpayable",
					"type": "constructor"
				},
				{
					"inputs": [],
					"name": "flowerCoinStorage",
					"outputs": [
						{
							"internalType": "contract FlowerCoinStorage",
							"name": "",
							"type": "address"
						}
					],
					"stateMutability": "view",
					"type": "function"
				},
				{
					"inputs": [],
					"name": "flowerStorage",
					"outputs": [
						{
							"internalType": "contract FlowerStorage",
							"name": "",
							"type": "address"
						}
					],
					"stateMutability": "view",
					"type": "function"
				}
			],
			"devdoc": {
				"kind": "dev",
				"methods": {},
				"version": 1
			},
			"evm": {
				"assembly": "    /* \"contracts/Registry.sol\":176:451  contract Registry {... */\n  mstore(0x40, 0x80)\n    /* \"contracts/Registry.sol\":330:449  constructor() {... */\n  callvalue\n  dup1\n  iszero\n  tag_1\n  jumpi\n  0x00\n  dup1\n  revert\ntag_1:\n  pop\n    /* \"contracts/Registry.sol\":370:389  new FlowerStorage() */\n  mload(0x40)\n  tag_4\n  swap1\n  tag_5\n  jump\t// in\ntag_4:\n  mload(0x40)\n  dup1\n  swap2\n  sub\n  swap1\n  0x00\n  create\n  dup1\n  iszero\n  dup1\n  iszero\n  tag_6\n  jumpi\n  returndatasize\n  0x00\n  dup1\n  returndatacopy\n  revert(0x00, returndatasize)\ntag_6:\n  pop\n    /* \"contracts/Registry.sol\":354:367  flowerStorage */\n  0x00\n  dup1\n    /* \"contracts/Registry.sol\":354:389  flowerStorage = new FlowerStorage() */\n  0x0100\n  exp\n  dup2\n  sload\n  dup2\n  0xffffffffffffffffffffffffffffffffffffffff\n  mul\n  not\n  and\n  swap1\n  dup4\n  0xffffffffffffffffffffffffffffffffffffffff\n  and\n  mul\n  or\n  swap1\n  sstore\n  pop\n    /* \"contracts/Registry.sol\":419:442  new FlowerCoinStorage() */\n  mload(0x40)\n  tag_7\n  swap1\n  tag_8\n  jump\t// in\ntag_7:\n  mload(0x40)\n  dup1\n  swap2\n  sub\n  swap1\n  0x00\n  create\n  dup1\n  iszero\n  dup1\n  iszero\n  tag_9\n  jumpi\n  returndatasize\n  0x00\n  dup1\n  returndatacopy\n  revert(0x00, returndatasize)\ntag_9:\n  pop\n    /* \"contracts/Registry.sol\":399:416  flowerCoinStorage */\n  0x01\n  0x00\n    /* \"contracts/Registry.sol\":399:442  flowerCoinStorage = new FlowerCoinStorage() */\n  0x0100\n  exp\n  dup2\n  sload\n  dup2\n  0xffffffffffffffffffffffffffffffffffffffff\n  mul\n  not\n  and\n  swap1\n  dup4\n  0xffffffffffffffffffffffffffffffffffffffff\n  and\n  mul\n  or\n  swap1\n  sstore\n  pop\n    /* \"contracts/Registry.sol\":176:451  contract Registry {... */\n  jump(tag_10)\ntag_5:\n  dataSize(sub_1)\n  dup1\n  dataOffset(sub_1)\n  dup4\n  codecopy\n  add\n  swap1\n  jump\t// out\ntag_8:\n  dataSize(sub_2)\n  dup1\n  dataOffset(sub_2)\n  dup4\n  codecopy\n  add\n  swap1\n  jump\t// out\ntag_10:\n  dataSize(sub_0)\n  dup1\n  dataOffset(sub_0)\n  0x00\n  codecopy\n  0x00\n  return\nstop\n\nsub_0: assembly {\n        /* \"contracts/Registry.sol\":176:451  contract Registry {... */\n      mstore(0x40, 0x80)\n      callvalue\n      dup1\n      iszero\n      tag_1\n      jumpi\n      0x00\n      dup1\n      revert\n    tag_1:\n      pop\n      jumpi(tag_2, lt(calldatasize, 0x04))\n      shr(0xe0, calldataload(0x00))\n      dup1\n      0x1f054bbe\n      eq\n      tag_3\n      jumpi\n      dup1\n      0xb7f6d906\n      eq\n      tag_4\n      jumpi\n    tag_2:\n      0x00\n      dup1\n      revert\n        /* \"contracts/Registry.sol\":200:234  FlowerStorage public flowerStorage */\n    tag_3:\n      tag_5\n      tag_6\n      jump\t// in\n    tag_5:\n      mload(0x40)\n      tag_7\n      swap2\n      swap1\n      tag_8\n      jump\t// in\n    tag_7:\n      mload(0x40)\n      dup1\n      swap2\n      sub\n      swap1\n      return\n        /* \"contracts/Registry.sol\":240:282  FlowerCoinStorage public flowerCoinStorage */\n    tag_4:\n      tag_9\n      tag_10\n      jump\t// in\n    tag_9:\n      mload(0x40)\n      tag_11\n      swap2\n      swap1\n      tag_12\n      jump\t// in\n    tag_11:\n      mload(0x40)\n      dup1\n      swap2\n      sub\n      swap1\n      return\n        /* \"contracts/Registry.sol\":200:234  FlowerStorage public flowerStorage */\n    tag_6:\n      0x00\n      dup1\n      sload\n      swap1\n      0x0100\n      exp\n      swap1\n      div\n      0xffffffffffffffffffffffffffffffffffffffff\n      and\n      dup2\n      jump\t// out\n        /* \"contracts/Registry.sol\":240:282  FlowerCoinStorage public flowerCoinStorage */\n    tag_10:\n      0x01\n      0x00\n      swap1\n      sload\n      swap1\n      0x0100\n      exp\n      swap1\n      div\n      0xffffffffffffffffffffffffffffffffffffffff\n      and\n      dup2\n      jump\t// out\n        /* \"#utility.yul\":7:188   */\n    tag_14:\n        /* \"#utility.yul\":119:181   */\n      tag_16\n        /* \"#utility.yul\":175:180   */\n      dup2\n        /* \"#utility.yul\":119:181   */\n      tag_17\n      jump\t// in\n    tag_16:\n        /* \"#utility.yul\":114:117   */\n      dup3\n        /* \"#utility.yul\":107:182   */\n      mstore\n        /* \"#utility.yul\":97:188   */\n      pop\n      pop\n      jump\t// out\n        /* \"#utility.yul\":194:367   */\n    tag_18:\n        /* \"#utility.yul\":302:360   */\n      tag_20\n        /* \"#utility.yul\":354:359   */\n      dup2\n        /* \"#utility.yul\":302:360   */\n      tag_21\n      jump\t// in\n    tag_20:\n        /* \"#utility.yul\":297:300   */\n      dup3\n        /* \"#utility.yul\":290:361   */\n      mstore\n        /* \"#utility.yul\":280:367   */\n      pop\n      pop\n      jump\t// out\n        /* \"#utility.yul\":373:645   */\n    tag_12:\n        /* \"#utility.yul\":491:495   */\n      0x00\n        /* \"#utility.yul\":529:531   */\n      0x20\n        /* \"#utility.yul\":518:527   */\n      dup3\n        /* \"#utility.yul\":514:532   */\n      add\n        /* \"#utility.yul\":506:532   */\n      swap1\n      pop\n        /* \"#utility.yul\":542:638   */\n      tag_23\n        /* \"#utility.yul\":635:636   */\n      0x00\n        /* \"#utility.yul\":624:633   */\n      dup4\n        /* \"#utility.yul\":620:637   */\n      add\n        /* \"#utility.yul\":611:617   */\n      dup5\n        /* \"#utility.yul\":542:638   */\n      tag_14\n      jump\t// in\n    tag_23:\n        /* \"#utility.yul\":496:645   */\n      swap3\n      swap2\n      pop\n      pop\n      jump\t// out\n        /* \"#utility.yul\":651:915   */\n    tag_8:\n        /* \"#utility.yul\":765:769   */\n      0x00\n        /* \"#utility.yul\":803:805   */\n      0x20\n        /* \"#utility.yul\":792:801   */\n      dup3\n        /* \"#utility.yul\":788:806   */\n      add\n        /* \"#utility.yul\":780:806   */\n      swap1\n      pop\n        /* \"#utility.yul\":816:908   */\n      tag_25\n        /* \"#utility.yul\":905:906   */\n      0x00\n        /* \"#utility.yul\":894:903   */\n      dup4\n        /* \"#utility.yul\":890:907   */\n      add\n        /* \"#utility.yul\":881:887   */\n      dup5\n        /* \"#utility.yul\":816:908   */\n      tag_18\n      jump\t// in\n    tag_25:\n        /* \"#utility.yul\":770:915   */\n      swap3\n      swap2\n      pop\n      pop\n      jump\t// out\n        /* \"#utility.yul\":921:1047   */\n    tag_26:\n        /* \"#utility.yul\":958:965   */\n      0x00\n        /* \"#utility.yul\":998:1040   */\n      0xffffffffffffffffffffffffffffffffffffffff\n        /* \"#utility.yul\":991:996   */\n      dup3\n        /* \"#utility.yul\":987:1041   */\n      and\n        /* \"#utility.yul\":976:1041   */\n      swap1\n      pop\n        /* \"#utility.yul\":966:1047   */\n      swap2\n      swap1\n      pop\n      jump\t// out\n        /* \"#utility.yul\":1053:1229   */\n    tag_17:\n        /* \"#utility.yul\":1128:1137   */\n      0x00\n        /* \"#utility.yul\":1161:1223   */\n      tag_29\n        /* \"#utility.yul\":1217:1222   */\n      dup3\n        /* \"#utility.yul\":1161:1223   */\n      tag_30\n      jump\t// in\n    tag_29:\n        /* \"#utility.yul\":1148:1223   */\n      swap1\n      pop\n        /* \"#utility.yul\":1138:1229   */\n      swap2\n      swap1\n      pop\n      jump\t// out\n        /* \"#utility.yul\":1235:1373   */\n    tag_30:\n        /* \"#utility.yul\":1310:1319   */\n      0x00\n        /* \"#utility.yul\":1343:1367   */\n      tag_32\n        /* \"#utility.yul\":1361:1366   */\n      dup3\n        /* \"#utility.yul\":1343:1367   */\n      tag_26\n      jump\t// in\n    tag_32:\n        /* \"#utility.yul\":1330:1367   */\n      swap1\n      pop\n        /* \"#utility.yul\":1320:1373   */\n      swap2\n      swap1\n      pop\n      jump\t// out\n        /* \"#utility.yul\":1379:1547   */\n    tag_21:\n        /* \"#utility.yul\":1450:1459   */\n      0x00\n        /* \"#utility.yul\":1483:1541   */\n      tag_34\n        /* \"#utility.yul\":1535:1540   */\n      dup3\n        /* \"#utility.yul\":1483:1541   */\n      tag_35\n      jump\t// in\n    tag_34:\n        /* \"#utility.yul\":1470:1541   */\n      swap1\n      pop\n        /* \"#utility.yul\":1460:1547   */\n      swap2\n      swap1\n      pop\n      jump\t// out\n        /* \"#utility.yul\":1553:1687   */\n    tag_35:\n        /* \"#utility.yul\":1624:1633   */\n      0x00\n        /* \"#utility.yul\":1657:1681   */\n      tag_37\n        /* \"#utility.yul\":1675:1680   */\n      dup3\n        /* \"#utility.yul\":1657:1681   */\n      tag_26\n      jump\t// in\n    tag_37:\n        /* \"#utility.yul\":1644:1681   */\n      swap1\n      pop\n        /* \"#utility.yul\":1634:1687   */\n      swap2\n      swap1\n      pop\n      jump\t// out\n\n    auxdata: 0xa2646970667358221220eebe12fad151bff7c7fc0ef5f4755fb4f04f6b1c902f5e468ce14bac5fe4d86664736f6c63430008040033\n}\n\nsub_1: assembly {\n        /* \"contracts/FlowerStorage.sol\":177:4141  contract FlowerStorage is Ownable {... */\n      mstore(0x40, 0x80)\n        /* \"contracts/FlowerStorage.sol\":217:326  constructor() {... */\n      callvalue\n      dup1\n      iszero\n      tag_1\n      jumpi\n      0x00\n      dup1\n      revert\n    tag_1:\n      pop\n        /* \"@openzeppelin/contracts/access/Ownable.sol\":936:968  _transferOwnership(_msgSender()) */\n      tag_5\n        /* \"@openzeppelin/contracts/access/Ownable.sol\":955:967  _msgSender() */\n      tag_6\n        /* \"@openzeppelin/contracts/access/Ownable.sol\":955:965  _msgSender */\n      shl(0x20, tag_7)\n        /* \"@openzeppelin/contracts/access/Ownable.sol\":955:967  _msgSender() */\n      0x20\n      shr\n      jump\t// in\n    tag_6:\n        /* \"@openzeppelin/contracts/access/Ownable.sol\":936:954  _transferOwnership */\n      shl(0x20, tag_8)\n        /* \"@openzeppelin/contracts/access/Ownable.sol\":936:968  _transferOwnership(_msgSender()) */\n      0x20\n      shr\n      jump\t// in\n    tag_5:\n        /* \"contracts/FlowerStorage.sol\":290:319  transferOwnership(msg.sender) */\n      tag_10\n        /* \"contracts/FlowerStorage.sol\":308:318  msg.sender */\n      caller\n        /* \"contracts/FlowerStorage.sol\":290:307  transferOwnership */\n      shl(0x20, tag_11)\n        /* \"contracts/FlowerStorage.sol\":290:319  transferOwnership(msg.sender) */\n      0x20\n      shr\n      jump\t// in\n    tag_10:\n        /* \"contracts/FlowerStorage.sol\":177:4141  contract FlowerStorage is Ownable {... */\n      jump(tag_12)\n        /* \"@openzeppelin/contracts/utils/Context.sol\":640:736  function _msgSender() internal view virtual returns (address) {... */\n    tag_7:\n        /* \"@openzeppelin/contracts/utils/Context.sol\":693:700  address */\n      0x00\n        /* \"@openzeppelin/contracts/utils/Context.sol\":719:729  msg.sender */\n      caller\n        /* \"@openzeppelin/contracts/utils/Context.sol\":712:729  return msg.sender */\n      swap1\n      pop\n        /* \"@openzeppelin/contracts/utils/Context.sol\":640:736  function _msgSender() internal view virtual returns (address) {... */\n      swap1\n      jump\t// out\n        /* \"@openzeppelin/contracts/access/Ownable.sol\":2433:2620  function _transferOwnership(address newOwner) internal virtual {... */\n    tag_8:\n        /* \"@openzeppelin/contracts/access/Ownable.sol\":2506:2522  address oldOwner */\n      0x00\n        /* \"@openzeppelin/contracts/access/Ownable.sol\":2525:2531  _owner */\n      dup1\n      0x00\n      swap1\n      sload\n      swap1\n      0x0100\n      exp\n      swap1\n      div\n      0xffffffffffffffffffffffffffffffffffffffff\n      and\n        /* \"@openzeppelin/contracts/access/Ownable.sol\":2506:2531  address oldOwner = _owner */\n      swap1\n      pop\n        /* \"@openzeppelin/contracts/access/Ownable.sol\":2550:2558  newOwner */\n      dup2\n        /* \"@openzeppelin/contracts/access/Ownable.sol\":2541:2547  _owner */\n      0x00\n      dup1\n        /* \"@openzeppelin/contracts/access/Ownable.sol\":2541:2558  _owner = newOwner */\n      0x0100\n      exp\n      dup2\n      sload\n      dup2\n      0xffffffffffffffffffffffffffffffffffffffff\n      mul\n      not\n      and\n      swap1\n      dup4\n      0xffffffffffffffffffffffffffffffffffffffff\n      and\n      mul\n      or\n      swap1\n      sstore\n      pop\n        /* \"@openzeppelin/contracts/access/Ownable.sol\":2604:2612  newOwner */\n      dup2\n        /* \"@openzeppelin/contracts/access/Ownable.sol\":2573:2613  OwnershipTransferred(oldOwner, newOwner) */\n      0xffffffffffffffffffffffffffffffffffffffff\n      and\n        /* \"@openzeppelin/contracts/access/Ownable.sol\":2594:2602  oldOwner */\n      dup2\n        /* \"@openzeppelin/contracts/access/Ownable.sol\":2573:2613  OwnershipTransferred(oldOwner, newOwner) */\n      0xffffffffffffffffffffffffffffffffffffffff\n      and\n      0x8be0079c531659141344cd1fd0a4f28419497f9722a3daafe3b4186f6b6457e0\n      mload(0x40)\n      mload(0x40)\n      dup1\n      swap2\n      sub\n      swap1\n      log3\n        /* \"@openzeppelin/contracts/access/Ownable.sol\":2433:2620  function _transferOwnership(address newOwner) internal virtual {... */\n      pop\n      pop\n      jump\t// out\n        /* \"@openzeppelin/contracts/access/Ownable.sol\":2081:2279  function transferOwnership(address newOwner) public virtual onlyOwner {... */\n    tag_11:\n        /* \"@openzeppelin/contracts/access/Ownable.sol\":1094:1107  _checkOwner() */\n      tag_16\n        /* \"@openzeppelin/contracts/access/Ownable.sol\":1094:1105  _checkOwner */\n      shl(0x20, tag_17)\n        /* \"@openzeppelin/contracts/access/Ownable.sol\":1094:1107  _checkOwner() */\n      0x20\n      shr\n      jump\t// in\n    tag_16:\n        /* \"@openzeppelin/contracts/access/Ownable.sol\":2189:2190  0 */\n      0x00\n        /* \"@openzeppelin/contracts/access/Ownable.sol\":2169:2191  newOwner != address(0) */\n      0xffffffffffffffffffffffffffffffffffffffff\n      and\n        /* \"@openzeppelin/contracts/access/Ownable.sol\":2169:2177  newOwner */\n      dup2\n        /* \"@openzeppelin/contracts/access/Ownable.sol\":2169:2191  newOwner != address(0) */\n      0xffffffffffffffffffffffffffffffffffffffff\n      and\n      eq\n      iszero\n        /* \"@openzeppelin/contracts/access/Ownable.sol\":2161:2234  require(newOwner != address(0), \"Ownable: new owner is the zero address\") */\n      tag_19\n      jumpi\n      mload(0x40)\n      0x08c379a000000000000000000000000000000000000000000000000000000000\n      dup2\n      mstore\n      0x04\n      add\n      tag_20\n      swap1\n      tag_21\n      jump\t// in\n    tag_20:\n      mload(0x40)\n      dup1\n      swap2\n      sub\n      swap1\n      revert\n    tag_19:\n        /* \"@openzeppelin/contracts/access/Ownable.sol\":2244:2272  _transferOwnership(newOwner) */\n      tag_22\n        /* \"@openzeppelin/contracts/access/Ownable.sol\":2263:2271  newOwner */\n      dup2\n        /* \"@openzeppelin/contracts/access/Ownable.sol\":2244:2262  _transferOwnership */\n      shl(0x20, tag_8)\n        /* \"@openzeppelin/contracts/access/Ownable.sol\":2244:2272  _transferOwnership(newOwner) */\n      0x20\n      shr\n      jump\t// in\n    tag_22:\n        /* \"@openzeppelin/contracts/access/Ownable.sol\":2081:2279  function transferOwnership(address newOwner) public virtual onlyOwner {... */\n      pop\n      jump\t// out\n        /* \"@openzeppelin/contracts/access/Ownable.sol\":1359:1489  function _checkOwner() internal view virtual {... */\n    tag_17:\n        /* \"@openzeppelin/contracts/access/Ownable.sol\":1433:1445  _msgSender() */\n      tag_24\n        /* \"@openzeppelin/contracts/access/Ownable.sol\":1433:1443  _msgSender */\n      shl(0x20, tag_7)\n        /* \"@openzeppelin/contracts/access/Ownable.sol\":1433:1445  _msgSender() */\n      0x20\n      shr\n      jump\t// in\n    tag_24:\n        /* \"@openzeppelin/contracts/access/Ownable.sol\":1422:1445  owner() == _msgSender() */\n      0xffffffffffffffffffffffffffffffffffffffff\n      and\n        /* \"@openzeppelin/contracts/access/Ownable.sol\":1422:1429  owner() */\n      tag_25\n        /* \"@openzeppelin/contracts/access/Ownable.sol\":1422:1427  owner */\n      shl(0x20, tag_26)\n        /* \"@openzeppelin/contracts/access/Ownable.sol\":1422:1429  owner() */\n      0x20\n      shr\n      jump\t// in\n    tag_25:\n        /* \"@openzeppelin/contracts/access/Ownable.sol\":1422:1445  owner() == _msgSender() */\n      0xffffffffffffffffffffffffffffffffffffffff\n      and\n      eq\n        /* \"@openzeppelin/contracts/access/Ownable.sol\":1414:1482  require(owner() == _msgSender(), \"Ownable: caller is not the owner\") */\n      tag_27\n      jumpi\n      mload(0x40)\n      0x08c379a000000000000000000000000000000000000000000000000000000000\n      dup2\n      mstore\n      0x04\n      add\n      tag_28\n      swap1\n      tag_29\n      jump\t// in\n    tag_28:\n      mload(0x40)\n      dup1\n      swap2\n      sub\n      swap1\n      revert\n    tag_27:\n        /* \"@openzeppelin/contracts/access/Ownable.sol\":1359:1489  function _checkOwner() internal view virtual {... */\n      jump\t// out\n        /* \"@openzeppelin/contracts/access/Ownable.sol\":1201:1286  function owner() public view virtual returns (address) {... */\n    tag_26:\n        /* \"@openzeppelin/contracts/access/Ownable.sol\":1247:1254  address */\n      0x00\n        /* \"@openzeppelin/contracts/access/Ownable.sol\":1273:1279  _owner */\n      dup1\n      0x00\n      swap1\n      sload\n      swap1\n      0x0100\n      exp\n      swap1\n      div\n      0xffffffffffffffffffffffffffffffffffffffff\n      and\n        /* \"@openzeppelin/contracts/access/Ownable.sol\":1266:1279  return _owner */\n      swap1\n      pop\n        /* \"@openzeppelin/contracts/access/Ownable.sol\":1201:1286  function owner() public view virtual returns (address) {... */\n      swap1\n      jump\t// out\n        /* \"#utility.yul\":7:373   */\n    tag_32:\n        /* \"#utility.yul\":149:152   */\n      0x00\n        /* \"#utility.yul\":170:237   */\n      tag_34\n        /* \"#utility.yul\":234:236   */\n      0x26\n        /* \"#utility.yul\":229:232   */\n      dup4\n        /* \"#utility.yul\":170:237   */\n      tag_35\n      jump\t// in\n    tag_34:\n        /* \"#utility.yul\":163:237   */\n      swap2\n      pop\n        /* \"#utility.yul\":246:339   */\n      tag_36\n        /* \"#utility.yul\":335:338   */\n      dup3\n        /* \"#utility.yul\":246:339   */\n      tag_37\n      jump\t// in\n    tag_36:\n        /* \"#utility.yul\":364:366   */\n      0x40\n        /* \"#utility.yul\":359:362   */\n      dup3\n        /* \"#utility.yul\":355:367   */\n      add\n        /* \"#utility.yul\":348:367   */\n      swap1\n      pop\n        /* \"#utility.yul\":153:373   */\n      swap2\n      swap1\n      pop\n      jump\t// out\n        /* \"#utility.yul\":379:745   */\n    tag_38:\n        /* \"#utility.yul\":521:524   */\n      0x00\n        /* \"#utility.yul\":542:609   */\n      tag_40\n        /* \"#utility.yul\":606:608   */\n      0x20\n        /* \"#utility.yul\":601:604   */\n      dup4\n        /* \"#utility.yul\":542:609   */\n      tag_35\n      jump\t// in\n    tag_40:\n        /* \"#utility.yul\":535:609   */\n      swap2\n      pop\n        /* \"#utility.yul\":618:711   */\n      tag_41\n        /* \"#utility.yul\":707:710   */\n      dup3\n        /* \"#utility.yul\":618:711   */\n      tag_42\n      jump\t// in\n    tag_41:\n        /* \"#utility.yul\":736:738   */\n      0x20\n        /* \"#utility.yul\":731:734   */\n      dup3\n        /* \"#utility.yul\":727:739   */\n      add\n        /* \"#utility.yul\":720:739   */\n      swap1\n      pop\n        /* \"#utility.yul\":525:745   */\n      swap2\n      swap1\n      pop\n      jump\t// out\n        /* \"#utility.yul\":751:1170   */\n    tag_21:\n        /* \"#utility.yul\":917:921   */\n      0x00\n        /* \"#utility.yul\":955:957   */\n      0x20\n        /* \"#utility.yul\":944:953   */\n      dup3\n        /* \"#utility.yul\":940:958   */\n      add\n        /* \"#utility.yul\":932:958   */\n      swap1\n      pop\n        /* \"#utility.yul\":1004:1013   */\n      dup2\n        /* \"#utility.yul\":998:1002   */\n      dup2\n        /* \"#utility.yul\":994:1014   */\n      sub\n        /* \"#utility.yul\":990:991   */\n      0x00\n        /* \"#utility.yul\":979:988   */\n      dup4\n        /* \"#utility.yul\":975:992   */\n      add\n        /* \"#utility.yul\":968:1015   */\n      mstore\n        /* \"#utility.yul\":1032:1163   */\n      tag_44\n        /* \"#utility.yul\":1158:1162   */\n      dup2\n        /* \"#utility.yul\":1032:1163   */\n      tag_32\n      jump\t// in\n    tag_44:\n        /* \"#utility.yul\":1024:1163   */\n      swap1\n      pop\n        /* \"#utility.yul\":922:1170   */\n      swap2\n      swap1\n      pop\n      jump\t// out\n        /* \"#utility.yul\":1176:1595   */\n    tag_29:\n        /* \"#utility.yul\":1342:1346   */\n      0x00\n        /* \"#utility.yul\":1380:1382   */\n      0x20\n        /* \"#utility.yul\":1369:1378   */\n      dup3\n        /* \"#utility.yul\":1365:1383   */\n      add\n        /* \"#utility.yul\":1357:1383   */\n      swap1\n      pop\n        /* \"#utility.yul\":1429:1438   */\n      dup2\n        /* \"#utility.yul\":1423:1427   */\n      dup2\n        /* \"#utility.yul\":1419:1439   */\n      sub\n        /* \"#utility.yul\":1415:1416   */\n      0x00\n        /* \"#utility.yul\":1404:1413   */\n      dup4\n        /* \"#utility.yul\":1400:1417   */\n      add\n        /* \"#utility.yul\":1393:1440   */\n      mstore\n        /* \"#utility.yul\":1457:1588   */\n      tag_46\n        /* \"#utility.yul\":1583:1587   */\n      dup2\n        /* \"#utility.yul\":1457:1588   */\n      tag_38\n      jump\t// in\n    tag_46:\n        /* \"#utility.yul\":1449:1588   */\n      swap1\n      pop\n        /* \"#utility.yul\":1347:1595   */\n      swap2\n      swap1\n      pop\n      jump\t// out\n        /* \"#utility.yul\":1601:1770   */\n    tag_35:\n        /* \"#utility.yul\":1685:1696   */\n      0x00\n        /* \"#utility.yul\":1719:1725   */\n      dup3\n        /* \"#utility.yul\":1714:1717   */\n      dup3\n        /* \"#utility.yul\":1707:1726   */\n      mstore\n        /* \"#utility.yul\":1759:1763   */\n      0x20\n        /* \"#utility.yul\":1754:1757   */\n      dup3\n        /* \"#utility.yul\":1750:1764   */\n      add\n        /* \"#utility.yul\":1735:1764   */\n      swap1\n      pop\n        /* \"#utility.yul\":1697:1770   */\n      swap3\n      swap2\n      pop\n      pop\n      jump\t// out\n        /* \"#utility.yul\":1776:2001   */\n    tag_37:\n        /* \"#utility.yul\":1916:1950   */\n      0x4f776e61626c653a206e6577206f776e657220697320746865207a65726f2061\n        /* \"#utility.yul\":1912:1913   */\n      0x00\n        /* \"#utility.yul\":1904:1910   */\n      dup3\n        /* \"#utility.yul\":1900:1914   */\n      add\n        /* \"#utility.yul\":1893:1951   */\n      mstore\n        /* \"#utility.yul\":1985:1993   */\n      0x6464726573730000000000000000000000000000000000000000000000000000\n        /* \"#utility.yul\":1980:1982   */\n      0x20\n        /* \"#utility.yul\":1972:1978   */\n      dup3\n        /* \"#utility.yul\":1968:1983   */\n      add\n        /* \"#utility.yul\":1961:1994   */\n      mstore\n        /* \"#utility.yul\":1882:2001   */\n      pop\n      jump\t// out\n        /* \"#utility.yul\":2007:2189   */\n    tag_42:\n        /* \"#utility.yul\":2147:2181   */\n      0x4f776e61626c653a2063616c6c6572206973206e6f7420746865206f776e6572\n        /* \"#utility.yul\":2143:2144   */\n      0x00\n        /* \"#utility.yul\":2135:2141   */\n      dup3\n        /* \"#utility.yul\":2131:2145   */\n      add\n        /* \"#utility.yul\":2124:2182   */\n      mstore\n        /* \"#utility.yul\":2113:2189   */\n      pop\n      jump\t// out\n        /* \"contracts/FlowerStorage.sol\":177:4141  contract FlowerStorage is Ownable {... */\n    tag_12:\n      dataSize(sub_0)\n      dup1\n      dataOffset(sub_0)\n      0x00\n      codecopy\n      0x00\n      return\n    stop\n\n    sub_0: assembly {\n            /* \"contracts/FlowerStorage.sol\":177:4141  contract FlowerStorage is Ownable {... */\n          mstore(0x40, 0x80)\n          callvalue\n          dup1\n          iszero\n          tag_1\n          jumpi\n          0x00\n          dup1\n          revert\n        tag_1:\n          pop\n          jumpi(tag_2, lt(calldatasize, 0x04))\n          shr(0xe0, calldataload(0x00))\n          dup1\n          0xbaafd2d8\n          gt\n          tag_27\n          jumpi\n          dup1\n          0xd89b5ed6\n          gt\n          tag_28\n          jumpi\n          dup1\n          0xd89b5ed6\n          eq\n          tag_21\n          jumpi\n          dup1\n          0xe468688e\n          eq\n          tag_22\n          jumpi\n          dup1\n          0xee650665\n          eq\n          tag_23\n          jumpi\n          dup1\n          0xefe54dd5\n          eq\n          tag_24\n          jumpi\n          dup1\n          0xf2fde38b\n          eq\n          tag_25\n          jumpi\n          dup1\n          0xf9476278\n          eq\n          tag_26\n          jumpi\n          jump(tag_2)\n        tag_28:\n          dup1\n          0xbaafd2d8\n          eq\n          tag_15\n          jumpi\n          dup1\n          0xc3913991\n          eq\n          tag_16\n          jumpi\n          dup1\n          0xce5e9365\n          eq\n          tag_17\n          jumpi\n          dup1\n          0xcfd4f18a\n          eq\n          tag_18\n          jumpi\n          dup1\n          0xd53045c8\n          eq\n          tag_19\n          jumpi\n          dup1\n          0xd89135cd\n          eq\n          tag_20\n          jumpi\n          jump(tag_2)\n        tag_27:\n          dup1\n          0x7ab436f8\n          gt\n          tag_29\n          jumpi\n          dup1\n          0x7ab436f8\n          eq\n          tag_9\n          jumpi\n          dup1\n          0x85393a8e\n          eq\n          tag_10\n          jumpi\n          dup1\n          0x8da5cb5b\n          eq\n          tag_11\n          jumpi\n          dup1\n          0x93f0f55a\n          eq\n          tag_12\n          jumpi\n          dup1\n          0xaee9c872\n          eq\n          tag_13\n          jumpi\n          dup1\n          0xb1398144\n          eq\n          tag_14\n          jumpi\n          jump(tag_2)\n        tag_29:\n          dup1\n          0x18160ddd\n          eq\n          tag_3\n          jumpi\n          dup1\n          0x21e5383a\n          eq\n          tag_4\n          jumpi\n          dup1\n          0x4b9ecd54\n          eq\n          tag_5\n          jumpi\n          dup1\n          0x4eb84791\n          eq\n          tag_6\n          jumpi\n          dup1\n          0x6e76c3cf\n          eq\n          tag_7\n          jumpi\n          dup1\n          0x715018a6\n          eq\n          tag_8\n          jumpi\n        tag_2:\n          0x00\n          dup1\n          revert\n            /* \"contracts/FlowerStorage.sol\":550:576  uint256 public totalSupply */\n        tag_3:\n          tag_30\n          tag_31\n          jump\t// in\n        tag_30:\n          mload(0x40)\n          tag_32\n          swap2\n          swap1\n          tag_33\n          jump\t// in\n        tag_32:\n          mload(0x40)\n          dup1\n          swap2\n          sub\n          swap1\n          return\n            /* \"contracts/FlowerStorage.sol\":1230:1349  function addBalance(address _addr, uint256 _amount) external onlyOwner {... */\n        tag_4:\n          tag_34\n          0x04\n          dup1\n          calldatasize\n          sub\n          dup2\n          add\n          swap1\n          tag_35\n          swap2\n          swap1\n          tag_36\n          jump\t// in\n        tag_35:\n          tag_37\n          jump\t// in\n        tag_34:\n          stop\n            /* \"contracts/FlowerStorage.sol\":1614:1718  function subtractTotalSupply(uint256 _amount) external onlyOwner {... */\n        tag_5:\n          tag_38\n          0x04\n          dup1\n          calldatasize\n          sub\n          dup2\n          add\n          swap1\n          tag_39\n          swap2\n          swap1\n          tag_40\n          jump\t// in\n        tag_39:\n          tag_41\n          jump\t// in\n        tag_38:\n          stop\n            /* \"contracts/FlowerStorage.sol\":3135:4139  function addNode(address addr, uint256 timestamp, uint256 balance) public onlyOwner {... */\n        tag_6:\n          tag_42\n          0x04\n          dup1\n          calldatasize\n          sub\n          dup2\n          add\n          swap1\n          tag_43\n          swap2\n          swap1\n          tag_44\n          jump\t// in\n        tag_43:\n          tag_45\n          jump\t// in\n        tag_42:\n          stop\n            /* \"contracts/FlowerStorage.sol\":917:963  mapping(address => uint256) public firstTBNode */\n        tag_7:\n          tag_46\n          0x04\n          dup1\n          calldatasize\n          sub\n          dup2\n          add\n          swap1\n          tag_47\n          swap2\n          swap1\n          tag_48\n          jump\t// in\n        tag_47:\n          tag_49\n          jump\t// in\n        tag_46:\n          mload(0x40)\n          tag_50\n          swap2\n          swap1\n          tag_33\n          jump\t// in\n        tag_50:\n          mload(0x40)\n          dup1\n          swap2\n          sub\n          swap1\n          return\n            /* \"@openzeppelin/contracts/access/Ownable.sol\":1831:1932  function renounceOwnership() public virtual onlyOwner {... */\n        tag_8:\n          tag_51\n          tag_52\n          jump\t// in\n        tag_51:\n          stop\n            /* \"contracts/FlowerStorage.sol\":2228:2344  function setFirstTBNode(address _addr, uint256 _index) public onlyOwner {... */\n        tag_9:\n          tag_53\n          0x04\n          dup1\n          calldatasize\n          sub\n          dup2\n          add\n          swap1\n          tag_54\n          swap2\n          swap1\n          tag_36\n          jump\t// in\n        tag_54:\n          tag_55\n          jump\t// in\n        tag_53:\n          stop\n            /* \"contracts/FlowerStorage.sol\":2372:2486  function setLastTBNode(address _addr, uint256 _index) public onlyOwner {... */\n        tag_10:\n          tag_56\n          0x04\n          dup1\n          calldatasize\n          sub\n          dup2\n          add\n          swap1\n          tag_57\n          swap2\n          swap1\n          tag_36\n          jump\t// in\n        tag_57:\n          tag_58\n          jump\t// in\n        tag_56:\n          stop\n            /* \"@openzeppelin/contracts/access/Ownable.sol\":1201:1286  function owner() public view virtual returns (address) {... */\n        tag_11:\n          tag_59\n          tag_60\n          jump\t// in\n        tag_59:\n          mload(0x40)\n          tag_61\n          swap2\n          swap1\n          tag_62\n          jump\t// in\n        tag_61:\n          mload(0x40)\n          dup1\n          swap2\n          sub\n          swap1\n          return\n            /* \"contracts/FlowerStorage.sol\":1990:2089  function addTotalBurned(uint256 _amount) external onlyOwner {... */\n        tag_12:\n          tag_63\n          0x04\n          dup1\n          calldatasize\n          sub\n          dup2\n          add\n          swap1\n          tag_64\n          swap2\n          swap1\n          tag_40\n          jump\t// in\n        tag_64:\n          tag_65\n          jump\t// in\n        tag_63:\n          stop\n            /* \"contracts/FlowerStorage.sol\":449:500  mapping ( address => uint256 ) public totalBalances */\n        tag_13:\n          tag_66\n          0x04\n          dup1\n          calldatasize\n          sub\n          dup2\n          add\n          swap1\n          tag_67\n          swap2\n          swap1\n          tag_48\n          jump\t// in\n        tag_67:\n          tag_68\n          jump\t// in\n        tag_66:\n          mload(0x40)\n          tag_69\n          swap2\n          swap1\n          tag_33\n          jump\t// in\n        tag_69:\n          mload(0x40)\n          dup1\n          swap2\n          sub\n          swap1\n          return\n            /* \"contracts/FlowerStorage.sol\":2517:2662  function getTBNodeByIndex(address _addr, uint256 _index) public view returns (TBNode memory) {... */\n        tag_14:\n          tag_70\n          0x04\n          dup1\n          calldatasize\n          sub\n          dup2\n          add\n          swap1\n          tag_71\n          swap2\n          swap1\n          tag_36\n          jump\t// in\n        tag_71:\n          tag_72\n          jump\t// in\n        tag_70:\n          mload(0x40)\n          tag_73\n          swap2\n          swap1\n          tag_74\n          jump\t// in\n        tag_73:\n          mload(0x40)\n          dup1\n          swap2\n          sub\n          swap1\n          return\n            /* \"contracts/FlowerStorage.sol\":1037:1082  mapping(address => uint256) public lastTBNode */\n        tag_15:\n          tag_75\n          0x04\n          dup1\n          calldatasize\n          sub\n          dup2\n          add\n          swap1\n          tag_76\n          swap2\n          swap1\n          tag_48\n          jump\t// in\n        tag_76:\n          tag_77\n          jump\t// in\n        tag_75:\n          mload(0x40)\n          tag_78\n          swap2\n          swap1\n          tag_33\n          jump\t// in\n        tag_78:\n          mload(0x40)\n          dup1\n          swap2\n          sub\n          swap1\n          return\n            /* \"contracts/FlowerStorage.sol\":2095:2199  function subtractTotalBurned(uint256 _amount) external onlyOwner {... */\n        tag_16:\n          tag_79\n          0x04\n          dup1\n          calldatasize\n          sub\n          dup2\n          add\n          swap1\n          tag_80\n          swap2\n          swap1\n          tag_40\n          jump\t// in\n        tag_80:\n          tag_81\n          jump\t// in\n        tag_79:\n          stop\n            /* \"contracts/FlowerStorage.sol\":624:651  uint256 public totalExpired */\n        tag_17:\n          tag_82\n          tag_83\n          jump\t// in\n        tag_82:\n          mload(0x40)\n          tag_84\n          swap2\n          swap1\n          tag_33\n          jump\t// in\n        tag_84:\n          mload(0x40)\n          dup1\n          swap2\n          sub\n          swap1\n          return\n            /* \"contracts/FlowerStorage.sol\":1355:1479  function subtractBalance(address _addr, uint256 _amount) external onlyOwner {... */\n        tag_18:\n          tag_85\n          0x04\n          dup1\n          calldatasize\n          sub\n          dup2\n          add\n          swap1\n          tag_86\n          swap2\n          swap1\n          tag_36\n          jump\t// in\n        tag_86:\n          tag_87\n          jump\t// in\n        tag_85:\n          stop\n            /* \"contracts/FlowerStorage.sol\":1748:1849  function addTotalExpired(uint256 _amount) external onlyOwner {... */\n        tag_19:\n          tag_88\n          0x04\n          dup1\n          calldatasize\n          sub\n          dup2\n          add\n          swap1\n          tag_89\n          swap2\n          swap1\n          tag_40\n          jump\t// in\n        tag_89:\n          tag_90\n          jump\t// in\n        tag_88:\n          stop\n            /* \"contracts/FlowerStorage.sol\":698:724  uint256 public totalBurned */\n        tag_20:\n          tag_91\n          tag_92\n          jump\t// in\n        tag_91:\n          mload(0x40)\n          tag_93\n          swap2\n          swap1\n          tag_33\n          jump\t// in\n        tag_93:\n          mload(0x40)\n          dup1\n          swap2\n          sub\n          swap1\n          return\n            /* \"contracts/FlowerStorage.sol\":2868:3063  function removeTBNodeByIndex(address _addr, uint256 _index) external onlyOwner {... */\n        tag_21:\n          tag_94\n          0x04\n          dup1\n          calldatasize\n          sub\n          dup2\n          add\n          swap1\n          tag_95\n          swap2\n          swap1\n          tag_36\n          jump\t// in\n        tag_95:\n          tag_96\n          jump\t// in\n        tag_94:\n          stop\n            /* \"contracts/FlowerStorage.sol\":1509:1608  function addTotalSupply(uint256 _amount) external onlyOwner {... */\n        tag_22:\n          tag_97\n          0x04\n          dup1\n          calldatasize\n          sub\n          dup2\n          add\n          swap1\n          tag_98\n          swap2\n          swap1\n          tag_40\n          jump\t// in\n        tag_98:\n          tag_99\n          jump\t// in\n        tag_97:\n          stop\n            /* \"contracts/FlowerStorage.sol\":2693:2862  function subtractTBNodeByIndexBalance(address _addr, uint256 _index, uint256 _amount) external onlyOwner {... */\n        tag_23:\n          tag_100\n          0x04\n          dup1\n          calldatasize\n          sub\n          dup2\n          add\n          swap1\n          tag_101\n          swap2\n          swap1\n          tag_44\n          jump\t// in\n        tag_101:\n          tag_102\n          jump\t// in\n        tag_100:\n          stop\n            /* \"contracts/FlowerStorage.sol\":1130:1197  mapping(address => mapping(uint256 => TBNode)) public tbNodeByIndex */\n        tag_24:\n          tag_103\n          0x04\n          dup1\n          calldatasize\n          sub\n          dup2\n          add\n          swap1\n          tag_104\n          swap2\n          swap1\n          tag_36\n          jump\t// in\n        tag_104:\n          tag_105\n          jump\t// in\n        tag_103:\n          mload(0x40)\n          tag_106\n          swap4\n          swap3\n          swap2\n          swap1\n          tag_107\n          jump\t// in\n        tag_106:\n          mload(0x40)\n          dup1\n          swap2\n          sub\n          swap1\n          return\n            /* \"@openzeppelin/contracts/access/Ownable.sol\":2081:2279  function transferOwnership(address newOwner) public virtual onlyOwner {... */\n        tag_25:\n          tag_108\n          0x04\n          dup1\n          calldatasize\n          sub\n          dup2\n          add\n          swap1\n          tag_109\n          swap2\n          swap1\n          tag_48\n          jump\t// in\n        tag_109:\n          tag_110\n          jump\t// in\n        tag_108:\n          stop\n            /* \"contracts/FlowerStorage.sol\":1855:1961  function subtractTotalExpired(uint256 _amount) external onlyOwner {... */\n        tag_26:\n          tag_111\n          0x04\n          dup1\n          calldatasize\n          sub\n          dup2\n          add\n          swap1\n          tag_112\n          swap2\n          swap1\n          tag_40\n          jump\t// in\n        tag_112:\n          tag_113\n          jump\t// in\n        tag_111:\n          stop\n            /* \"contracts/FlowerStorage.sol\":550:576  uint256 public totalSupply */\n        tag_31:\n          sload(0x02)\n          dup2\n          jump\t// out\n            /* \"contracts/FlowerStorage.sol\":1230:1349  function addBalance(address _addr, uint256 _amount) external onlyOwner {... */\n        tag_37:\n            /* \"@openzeppelin/contracts/access/Ownable.sol\":1094:1107  _checkOwner() */\n          tag_115\n            /* \"@openzeppelin/contracts/access/Ownable.sol\":1094:1105  _checkOwner */\n          tag_116\n            /* \"@openzeppelin/contracts/access/Ownable.sol\":1094:1107  _checkOwner() */\n          jump\t// in\n        tag_115:\n            /* \"contracts/FlowerStorage.sol\":1335:1342  _amount */\n          dup1\n            /* \"contracts/FlowerStorage.sol\":1311:1324  totalBalances */\n          0x01\n            /* \"contracts/FlowerStorage.sol\":1311:1331  totalBalances[_addr] */\n          0x00\n            /* \"contracts/FlowerStorage.sol\":1325:1330  _addr */\n          dup5\n            /* \"contracts/FlowerStorage.sol\":1311:1331  totalBalances[_addr] */\n          0xffffffffffffffffffffffffffffffffffffffff\n          and\n          0xffffffffffffffffffffffffffffffffffffffff\n          and\n          dup2\n          mstore\n          0x20\n          add\n          swap1\n          dup2\n          mstore\n          0x20\n          add\n          0x00\n          keccak256\n          0x00\n            /* \"contracts/FlowerStorage.sol\":1311:1342  totalBalances[_addr] += _amount */\n          dup3\n          dup3\n          sload\n          tag_118\n          swap2\n          swap1\n          tag_119\n          jump\t// in\n        tag_118:\n          swap3\n          pop\n          pop\n          dup2\n          swap1\n          sstore\n          pop\n            /* \"contracts/FlowerStorage.sol\":1230:1349  function addBalance(address _addr, uint256 _amount) external onlyOwner {... */\n          pop\n          pop\n          jump\t// out\n            /* \"contracts/FlowerStorage.sol\":1614:1718  function subtractTotalSupply(uint256 _amount) external onlyOwner {... */\n        tag_41:\n            /* \"@openzeppelin/contracts/access/Ownable.sol\":1094:1107  _checkOwner() */\n          tag_121\n            /* \"@openzeppelin/contracts/access/Ownable.sol\":1094:1105  _checkOwner */\n          tag_116\n            /* \"@openzeppelin/contracts/access/Ownable.sol\":1094:1107  _checkOwner() */\n          jump\t// in\n        tag_121:\n            /* \"contracts/FlowerStorage.sol\":1704:1711  _amount */\n          dup1\n            /* \"contracts/FlowerStorage.sol\":1689:1700  totalSupply */\n          0x02\n          0x00\n            /* \"contracts/FlowerStorage.sol\":1689:1711  totalSupply -= _amount */\n          dup3\n          dup3\n          sload\n          tag_123\n          swap2\n          swap1\n          tag_124\n          jump\t// in\n        tag_123:\n          swap3\n          pop\n          pop\n          dup2\n          swap1\n          sstore\n          pop\n            /* \"contracts/FlowerStorage.sol\":1614:1718  function subtractTotalSupply(uint256 _amount) external onlyOwner {... */\n          pop\n          jump\t// out\n            /* \"contracts/FlowerStorage.sol\":3135:4139  function addNode(address addr, uint256 timestamp, uint256 balance) public onlyOwner {... */\n        tag_45:\n            /* \"@openzeppelin/contracts/access/Ownable.sol\":1094:1107  _checkOwner() */\n          tag_126\n            /* \"@openzeppelin/contracts/access/Ownable.sol\":1094:1105  _checkOwner */\n          tag_116\n            /* \"@openzeppelin/contracts/access/Ownable.sol\":1094:1107  _checkOwner() */\n          jump\t// in\n        tag_126:\n            /* \"contracts/FlowerStorage.sol\":3260:3281  TBNode memory newNode */\n          0x00\n            /* \"contracts/FlowerStorage.sol\":3284:3387  TBNode({... */\n          mload(0x40)\n          dup1\n          0x60\n          add\n          0x40\n          mstore\n          dup1\n            /* \"contracts/FlowerStorage.sol\":3316:3325  timestamp */\n          dup5\n            /* \"contracts/FlowerStorage.sol\":3284:3387  TBNode({... */\n          dup2\n          mstore\n          0x20\n          add\n            /* \"contracts/FlowerStorage.sol\":3348:3355  balance */\n          dup4\n            /* \"contracts/FlowerStorage.sol\":3284:3387  TBNode({... */\n          dup2\n          mstore\n          0x20\n          add\n            /* \"contracts/FlowerStorage.sol\":3375:3376  0 */\n          0x00\n            /* \"contracts/FlowerStorage.sol\":3284:3387  TBNode({... */\n          dup2\n          mstore\n          pop\n            /* \"contracts/FlowerStorage.sol\":3260:3387  TBNode memory newNode = TBNode({... */\n          swap1\n          pop\n            /* \"contracts/FlowerStorage.sol\":3459:3476  uint256 lastIndex */\n          0x00\n            /* \"contracts/FlowerStorage.sol\":3479:3489  lastTBNode */\n          0x06\n            /* \"contracts/FlowerStorage.sol\":3479:3495  lastTBNode[addr] */\n          0x00\n            /* \"contracts/FlowerStorage.sol\":3490:3494  addr */\n          dup7\n            /* \"contracts/FlowerStorage.sol\":3479:3495  lastTBNode[addr] */\n          0xffffffffffffffffffffffffffffffffffffffff\n          and\n          0xffffffffffffffffffffffffffffffffffffffff\n          and\n          dup2\n          mstore\n          0x20\n          add\n          swap1\n          dup2\n          mstore\n          0x20\n          add\n          0x00\n          keccak256\n          sload\n            /* \"contracts/FlowerStorage.sol\":3459:3495  uint256 lastIndex = lastTBNode[addr] */\n          swap1\n          pop\n            /* \"contracts/FlowerStorage.sol\":3582:3598  uint256 newIndex */\n          0x00\n            /* \"contracts/FlowerStorage.sol\":3613:3614  1 */\n          0x01\n            /* \"contracts/FlowerStorage.sol\":3601:3610  lastIndex */\n          dup3\n            /* \"contracts/FlowerStorage.sol\":3601:3614  lastIndex + 1 */\n          tag_128\n          swap2\n          swap1\n          tag_119\n          jump\t// in\n        tag_128:\n            /* \"contracts/FlowerStorage.sol\":3582:3614  uint256 newIndex = lastIndex + 1 */\n          swap1\n          pop\n            /* \"contracts/FlowerStorage.sol\":3656:3663  newNode */\n          dup3\n            /* \"contracts/FlowerStorage.sol\":3624:3637  tbNodeByIndex */\n          0x07\n            /* \"contracts/FlowerStorage.sol\":3624:3643  tbNodeByIndex[addr] */\n          0x00\n            /* \"contracts/FlowerStorage.sol\":3638:3642  addr */\n          dup9\n            /* \"contracts/FlowerStorage.sol\":3624:3643  tbNodeByIndex[addr] */\n          0xffffffffffffffffffffffffffffffffffffffff\n          and\n          0xffffffffffffffffffffffffffffffffffffffff\n          and\n          dup2\n          mstore\n          0x20\n          add\n          swap1\n          dup2\n          mstore\n          0x20\n          add\n          0x00\n          keccak256\n            /* \"contracts/FlowerStorage.sol\":3624:3653  tbNodeByIndex[addr][newIndex] */\n          0x00\n            /* \"contracts/FlowerStorage.sol\":3644:3652  newIndex */\n          dup4\n            /* \"contracts/FlowerStorage.sol\":3624:3653  tbNodeByIndex[addr][newIndex] */\n          dup2\n          mstore\n          0x20\n          add\n          swap1\n          dup2\n          mstore\n          0x20\n          add\n          0x00\n          keccak256\n            /* \"contracts/FlowerStorage.sol\":3624:3663  tbNodeByIndex[addr][newIndex] = newNode */\n          0x00\n          dup3\n          add\n          mload\n          dup2\n          0x00\n          add\n          sstore\n          0x20\n          dup3\n          add\n          mload\n          dup2\n          0x01\n          add\n          sstore\n          0x40\n          dup3\n          add\n          mload\n          dup2\n          0x02\n          add\n          sstore\n          swap1\n          pop\n          pop\n            /* \"contracts/FlowerStorage.sol\":3775:3776  0 */\n          0x00\n            /* \"contracts/FlowerStorage.sol\":3762:3771  lastIndex */\n          dup3\n            /* \"contracts/FlowerStorage.sol\":3762:3776  lastIndex != 0 */\n          eq\n            /* \"contracts/FlowerStorage.sol\":3758:3849  if (lastIndex != 0) {... */\n          tag_129\n          jumpi\n            /* \"contracts/FlowerStorage.sol\":3830:3838  newIndex */\n          dup1\n            /* \"contracts/FlowerStorage.sol\":3792:3805  tbNodeByIndex */\n          0x07\n            /* \"contracts/FlowerStorage.sol\":3792:3811  tbNodeByIndex[addr] */\n          0x00\n            /* \"contracts/FlowerStorage.sol\":3806:3810  addr */\n          dup9\n            /* \"contracts/FlowerStorage.sol\":3792:3811  tbNodeByIndex[addr] */\n          0xffffffffffffffffffffffffffffffffffffffff\n          and\n          0xffffffffffffffffffffffffffffffffffffffff\n          and\n          dup2\n          mstore\n          0x20\n          add\n          swap1\n          dup2\n          mstore\n          0x20\n          add\n          0x00\n          keccak256\n            /* \"contracts/FlowerStorage.sol\":3792:3822  tbNodeByIndex[addr][lastIndex] */\n          0x00\n            /* \"contracts/FlowerStorage.sol\":3812:3821  lastIndex */\n          dup5\n            /* \"contracts/FlowerStorage.sol\":3792:3822  tbNodeByIndex[addr][lastIndex] */\n          dup2\n          mstore\n          0x20\n          add\n          swap1\n          dup2\n          mstore\n          0x20\n          add\n          0x00\n          keccak256\n            /* \"contracts/FlowerStorage.sol\":3792:3827  tbNodeByIndex[addr][lastIndex].next */\n          0x02\n          add\n            /* \"contracts/FlowerStorage.sol\":3792:3838  tbNodeByIndex[addr][lastIndex].next = newIndex */\n          dup2\n          swap1\n          sstore\n          pop\n            /* \"contracts/FlowerStorage.sol\":3758:3849  if (lastIndex != 0) {... */\n        tag_129:\n            /* \"contracts/FlowerStorage.sol\":3944:3952  newIndex */\n          dup1\n            /* \"contracts/FlowerStorage.sol\":3925:3935  lastTBNode */\n          0x06\n            /* \"contracts/FlowerStorage.sol\":3925:3941  lastTBNode[addr] */\n          0x00\n            /* \"contracts/FlowerStorage.sol\":3936:3940  addr */\n          dup9\n            /* \"contracts/FlowerStorage.sol\":3925:3941  lastTBNode[addr] */\n          0xffffffffffffffffffffffffffffffffffffffff\n          and\n          0xffffffffffffffffffffffffffffffffffffffff\n          and\n          dup2\n          mstore\n          0x20\n          add\n          swap1\n          dup2\n          mstore\n          0x20\n          add\n          0x00\n          keccak256\n            /* \"contracts/FlowerStorage.sol\":3925:3952  lastTBNode[addr] = newIndex */\n          dup2\n          swap1\n          sstore\n          pop\n            /* \"contracts/FlowerStorage.sol\":4077:4078  0 */\n          0x00\n            /* \"contracts/FlowerStorage.sol\":4056:4067  firstTBNode */\n          0x05\n            /* \"contracts/FlowerStorage.sol\":4056:4073  firstTBNode[addr] */\n          0x00\n            /* \"contracts/FlowerStorage.sol\":4068:4072  addr */\n          dup9\n            /* \"contracts/FlowerStorage.sol\":4056:4073  firstTBNode[addr] */\n          0xffffffffffffffffffffffffffffffffffffffff\n          and\n          0xffffffffffffffffffffffffffffffffffffffff\n          and\n          dup2\n          mstore\n          0x20\n          add\n          swap1\n          dup2\n          mstore\n          0x20\n          add\n          0x00\n          keccak256\n          sload\n            /* \"contracts/FlowerStorage.sol\":4056:4078  firstTBNode[addr] == 0 */\n          eq\n            /* \"contracts/FlowerStorage.sol\":4052:4133  if (firstTBNode[addr] == 0) {... */\n          iszero\n          tag_130\n          jumpi\n            /* \"contracts/FlowerStorage.sol\":4114:4122  newIndex */\n          dup1\n            /* \"contracts/FlowerStorage.sol\":4094:4105  firstTBNode */\n          0x05\n            /* \"contracts/FlowerStorage.sol\":4094:4111  firstTBNode[addr] */\n          0x00\n            /* \"contracts/FlowerStorage.sol\":4106:4110  addr */\n          dup9\n            /* \"contracts/FlowerStorage.sol\":4094:4111  firstTBNode[addr] */\n          0xffffffffffffffffffffffffffffffffffffffff\n          and\n          0xffffffffffffffffffffffffffffffffffffffff\n          and\n          dup2\n          mstore\n          0x20\n          add\n          swap1\n          dup2\n          mstore\n          0x20\n          add\n          0x00\n          keccak256\n            /* \"contracts/FlowerStorage.sol\":4094:4122  firstTBNode[addr] = newIndex */\n          dup2\n          swap1\n          sstore\n          pop\n            /* \"contracts/FlowerStorage.sol\":4052:4133  if (firstTBNode[addr] == 0) {... */\n        tag_130:\n            /* \"@openzeppelin/contracts/access/Ownable.sol\":1117:1118  _ */\n          pop\n          pop\n          pop\n            /* \"contracts/FlowerStorage.sol\":3135:4139  function addNode(address addr, uint256 timestamp, uint256 balance) public onlyOwner {... */\n          pop\n          pop\n          pop\n          jump\t// out\n            /* \"contracts/FlowerStorage.sol\":917:963  mapping(address => uint256) public firstTBNode */\n        tag_49:\n          mstore(0x20, 0x05)\n          dup1\n          0x00\n          mstore\n          keccak256(0x00, 0x40)\n          0x00\n          swap2\n          pop\n          swap1\n          pop\n          sload\n          dup2\n          jump\t// out\n            /* \"@openzeppelin/contracts/access/Ownable.sol\":1831:1932  function renounceOwnership() public virtual onlyOwner {... */\n        tag_52:\n            /* \"@openzeppelin/contracts/access/Ownable.sol\":1094:1107  _checkOwner() */\n          tag_132\n            /* \"@openzeppelin/contracts/access/Ownable.sol\":1094:1105  _checkOwner */\n          tag_116\n            /* \"@openzeppelin/contracts/access/Ownable.sol\":1094:1107  _checkOwner() */\n          jump\t// in\n        tag_132:\n            /* \"@openzeppelin/contracts/access/Ownable.sol\":1895:1925  _transferOwnership(address(0)) */\n          tag_134\n            /* \"@openzeppelin/contracts/access/Ownable.sol\":1922:1923  0 */\n          0x00\n            /* \"@openzeppelin/contracts/access/Ownable.sol\":1895:1913  _transferOwnership */\n          tag_135\n            /* \"@openzeppelin/contracts/access/Ownable.sol\":1895:1925  _transferOwnership(address(0)) */\n          jump\t// in\n        tag_134:\n            /* \"@openzeppelin/contracts/access/Ownable.sol\":1831:1932  function renounceOwnership() public virtual onlyOwner {... */\n          jump\t// out\n            /* \"contracts/FlowerStorage.sol\":2228:2344  function setFirstTBNode(address _addr, uint256 _index) public onlyOwner {... */\n        tag_55:\n            /* \"@openzeppelin/contracts/access/Ownable.sol\":1094:1107  _checkOwner() */\n          tag_137\n            /* \"@openzeppelin/contracts/access/Ownable.sol\":1094:1105  _checkOwner */\n          tag_116\n            /* \"@openzeppelin/contracts/access/Ownable.sol\":1094:1107  _checkOwner() */\n          jump\t// in\n        tag_137:\n            /* \"contracts/FlowerStorage.sol\":2331:2337  _index */\n          dup1\n            /* \"contracts/FlowerStorage.sol\":2310:2321  firstTBNode */\n          0x05\n            /* \"contracts/FlowerStorage.sol\":2310:2328  firstTBNode[_addr] */\n          0x00\n            /* \"contracts/FlowerStorage.sol\":2322:2327  _addr */\n          dup5\n            /* \"contracts/FlowerStorage.sol\":2310:2328  firstTBNode[_addr] */\n          0xffffffffffffffffffffffffffffffffffffffff\n          and\n          0xffffffffffffffffffffffffffffffffffffffff\n          and\n          dup2\n          mstore\n          0x20\n          add\n          swap1\n          dup2\n          mstore\n          0x20\n          add\n          0x00\n          keccak256\n            /* \"contracts/FlowerStorage.sol\":2310:2337  firstTBNode[_addr] = _index */\n          dup2\n          swap1\n          sstore\n          pop\n            /* \"contracts/FlowerStorage.sol\":2228:2344  function setFirstTBNode(address _addr, uint256 _index) public onlyOwner {... */\n          pop\n          pop\n          jump\t// out\n            /* \"contracts/FlowerStorage.sol\":2372:2486  function setLastTBNode(address _addr, uint256 _index) public onlyOwner {... */\n        tag_58:\n            /* \"@openzeppelin/contracts/access/Ownable.sol\":1094:1107  _checkOwner() */\n          tag_140\n            /* \"@openzeppelin/contracts/access/Ownable.sol\":1094:1105  _checkOwner */\n          tag_116\n            /* \"@openzeppelin/contracts/access/Ownable.sol\":1094:1107  _checkOwner() */\n          jump\t// in\n        tag_140:\n            /* \"contracts/FlowerStorage.sol\":2473:2479  _index */\n          dup1\n            /* \"contracts/FlowerStorage.sol\":2453:2463  lastTBNode */\n          0x06\n            /* \"contracts/FlowerStorage.sol\":2453:2470  lastTBNode[_addr] */\n          0x00\n            /* \"contracts/FlowerStorage.sol\":2464:2469  _addr */\n          dup5\n            /* \"contracts/FlowerStorage.sol\":2453:2470  lastTBNode[_addr] */\n          0xffffffffffffffffffffffffffffffffffffffff\n          and\n          0xffffffffffffffffffffffffffffffffffffffff\n          and\n          dup2\n          mstore\n          0x20\n          add\n          swap1\n          dup2\n          mstore\n          0x20\n          add\n          0x00\n          keccak256\n            /* \"contracts/FlowerStorage.sol\":2453:2479  lastTBNode[_addr] = _index */\n          dup2\n          swap1\n          sstore\n          pop\n            /* \"contracts/FlowerStorage.sol\":2372:2486  function setLastTBNode(address _addr, uint256 _index) public onlyOwner {... */\n          pop\n          pop\n          jump\t// out\n            /* \"@openzeppelin/contracts/access/Ownable.sol\":1201:1286  function owner() public view virtual returns (address) {... */\n        tag_60:\n            /* \"@openzeppelin/contracts/access/Ownable.sol\":1247:1254  address */\n          0x00\n            /* \"@openzeppelin/contracts/access/Ownable.sol\":1273:1279  _owner */\n          dup1\n          0x00\n          swap1\n          sload\n          swap1\n          0x0100\n          exp\n          swap1\n          div\n          0xffffffffffffffffffffffffffffffffffffffff\n          and\n            /* \"@openzeppelin/contracts/access/Ownable.sol\":1266:1279  return _owner */\n          swap1\n          pop\n            /* \"@openzeppelin/contracts/access/Ownable.sol\":1201:1286  function owner() public view virtual returns (address) {... */\n          swap1\n          jump\t// out\n            /* \"contracts/FlowerStorage.sol\":1990:2089  function addTotalBurned(uint256 _amount) external onlyOwner {... */\n        tag_65:\n            /* \"@openzeppelin/contracts/access/Ownable.sol\":1094:1107  _checkOwner() */\n          tag_144\n            /* \"@openzeppelin/contracts/access/Ownable.sol\":1094:1105  _checkOwner */\n          tag_116\n            /* \"@openzeppelin/contracts/access/Ownable.sol\":1094:1107  _checkOwner() */\n          jump\t// in\n        tag_144:\n            /* \"contracts/FlowerStorage.sol\":2075:2082  _amount */\n          dup1\n            /* \"contracts/FlowerStorage.sol\":2060:2071  totalBurned */\n          0x04\n          0x00\n            /* \"contracts/FlowerStorage.sol\":2060:2082  totalBurned += _amount */\n          dup3\n          dup3\n          sload\n          tag_146\n          swap2\n          swap1\n          tag_119\n          jump\t// in\n        tag_146:\n          swap3\n          pop\n          pop\n          dup2\n          swap1\n          sstore\n          pop\n            /* \"contracts/FlowerStorage.sol\":1990:2089  function addTotalBurned(uint256 _amount) external onlyOwner {... */\n          pop\n          jump\t// out\n            /* \"contracts/FlowerStorage.sol\":449:500  mapping ( address => uint256 ) public totalBalances */\n        tag_68:\n          mstore(0x20, 0x01)\n          dup1\n          0x00\n          mstore\n          keccak256(0x00, 0x40)\n          0x00\n          swap2\n          pop\n          swap1\n          pop\n          sload\n          dup2\n          jump\t// out\n            /* \"contracts/FlowerStorage.sol\":2517:2662  function getTBNodeByIndex(address _addr, uint256 _index) public view returns (TBNode memory) {... */\n        tag_72:\n            /* \"contracts/FlowerStorage.sol\":2595:2608  TBNode memory */\n          tag_147\n          tag_148\n          jump\t// in\n        tag_147:\n            /* \"contracts/FlowerStorage.sol\":2627:2640  tbNodeByIndex */\n          0x07\n            /* \"contracts/FlowerStorage.sol\":2627:2647  tbNodeByIndex[_addr] */\n          0x00\n            /* \"contracts/FlowerStorage.sol\":2641:2646  _addr */\n          dup5\n            /* \"contracts/FlowerStorage.sol\":2627:2647  tbNodeByIndex[_addr] */\n          0xffffffffffffffffffffffffffffffffffffffff\n          and\n          0xffffffffffffffffffffffffffffffffffffffff\n          and\n          dup2\n          mstore\n          0x20\n          add\n          swap1\n          dup2\n          mstore\n          0x20\n          add\n          0x00\n          keccak256\n            /* \"contracts/FlowerStorage.sol\":2627:2655  tbNodeByIndex[_addr][_index] */\n          0x00\n            /* \"contracts/FlowerStorage.sol\":2648:2654  _index */\n          dup4\n            /* \"contracts/FlowerStorage.sol\":2627:2655  tbNodeByIndex[_addr][_index] */\n          dup2\n          mstore\n          0x20\n          add\n          swap1\n          dup2\n          mstore\n          0x20\n          add\n          0x00\n          keccak256\n            /* \"contracts/FlowerStorage.sol\":2620:2655  return tbNodeByIndex[_addr][_index] */\n          mload(0x40)\n          dup1\n          0x60\n          add\n          0x40\n          mstore\n          swap1\n          dup2\n          0x00\n          dup3\n          add\n          sload\n          dup2\n          mstore\n          0x20\n          add\n          0x01\n          dup3\n          add\n          sload\n          dup2\n          mstore\n          0x20\n          add\n          0x02\n          dup3\n          add\n          sload\n          dup2\n          mstore\n          pop\n          pop\n          swap1\n          pop\n            /* \"contracts/FlowerStorage.sol\":2517:2662  function getTBNodeByIndex(address _addr, uint256 _index) public view returns (TBNode memory) {... */\n          swap3\n          swap2\n          pop\n          pop\n          jump\t// out\n            /* \"contracts/FlowerStorage.sol\":1037:1082  mapping(address => uint256) public lastTBNode */\n        tag_77:\n          mstore(0x20, 0x06)\n          dup1\n          0x00\n          mstore\n          keccak256(0x00, 0x40)\n          0x00\n          swap2\n          pop\n          swap1\n          pop\n          sload\n          dup2\n          jump\t// out\n            /* \"contracts/FlowerStorage.sol\":2095:2199  function subtractTotalBurned(uint256 _amount) external onlyOwner {... */\n        tag_81:\n            /* \"@openzeppelin/contracts/access/Ownable.sol\":1094:1107  _checkOwner() */\n          tag_151\n            /* \"@openzeppelin/contracts/access/Ownable.sol\":1094:1105  _checkOwner */\n          tag_116\n            /* \"@openzeppelin/contracts/access/Ownable.sol\":1094:1107  _checkOwner() */\n          jump\t// in\n        tag_151:\n            /* \"contracts/FlowerStorage.sol\":2185:2192  _amount */\n          dup1\n            /* \"contracts/FlowerStorage.sol\":2170:2181  totalBurned */\n          0x04\n          0x00\n            /* \"contracts/FlowerStorage.sol\":2170:2192  totalBurned -= _amount */\n          dup3\n          dup3\n          sload\n          tag_153\n          swap2\n          swap1\n          tag_124\n          jump\t// in\n        tag_153:\n          swap3\n          pop\n          pop\n          dup2\n          swap1\n          sstore\n          pop\n            /* \"contracts/FlowerStorage.sol\":2095:2199  function subtractTotalBurned(uint256 _amount) external onlyOwner {... */\n          pop\n          jump\t// out\n            /* \"contracts/FlowerStorage.sol\":624:651  uint256 public totalExpired */\n        tag_83:\n          sload(0x03)\n          dup2\n          jump\t// out\n            /* \"contracts/FlowerStorage.sol\":1355:1479  function subtractBalance(address _addr, uint256 _amount) external onlyOwner {... */\n        tag_87:\n            /* \"@openzeppelin/contracts/access/Ownable.sol\":1094:1107  _checkOwner() */\n          tag_155\n            /* \"@openzeppelin/contracts/access/Ownable.sol\":1094:1105  _checkOwner */\n          tag_116\n            /* \"@openzeppelin/contracts/access/Ownable.sol\":1094:1107  _checkOwner() */\n          jump\t// in\n        tag_155:\n            /* \"contracts/FlowerStorage.sol\":1465:1472  _amount */\n          dup1\n            /* \"contracts/FlowerStorage.sol\":1441:1454  totalBalances */\n          0x01\n            /* \"contracts/FlowerStorage.sol\":1441:1461  totalBalances[_addr] */\n          0x00\n            /* \"contracts/FlowerStorage.sol\":1455:1460  _addr */\n          dup5\n            /* \"contracts/FlowerStorage.sol\":1441:1461  totalBalances[_addr] */\n          0xffffffffffffffffffffffffffffffffffffffff\n          and\n          0xffffffffffffffffffffffffffffffffffffffff\n          and\n          dup2\n          mstore\n          0x20\n          add\n          swap1\n          dup2\n          mstore\n          0x20\n          add\n          0x00\n          keccak256\n          0x00\n            /* \"contracts/FlowerStorage.sol\":1441:1472  totalBalances[_addr] -= _amount */\n          dup3\n          dup3\n          sload\n          tag_157\n          swap2\n          swap1\n          tag_124\n          jump\t// in\n        tag_157:\n          swap3\n          pop\n          pop\n          dup2\n          swap1\n          sstore\n          pop\n            /* \"contracts/FlowerStorage.sol\":1355:1479  function subtractBalance(address _addr, uint256 _amount) external onlyOwner {... */\n          pop\n          pop\n          jump\t// out\n            /* \"contracts/FlowerStorage.sol\":1748:1849  function addTotalExpired(uint256 _amount) external onlyOwner {... */\n        tag_90:\n            /* \"@openzeppelin/contracts/access/Ownable.sol\":1094:1107  _checkOwner() */\n          tag_159\n            /* \"@openzeppelin/contracts/access/Ownable.sol\":1094:1105  _checkOwner */\n          tag_116\n            /* \"@openzeppelin/contracts/access/Ownable.sol\":1094:1107  _checkOwner() */\n          jump\t// in\n        tag_159:\n            /* \"contracts/FlowerStorage.sol\":1835:1842  _amount */\n          dup1\n            /* \"contracts/FlowerStorage.sol\":1819:1831  totalExpired */\n          0x03\n          0x00\n            /* \"contracts/FlowerStorage.sol\":1819:1842  totalExpired += _amount */\n          dup3\n          dup3\n          sload\n          tag_161\n          swap2\n          swap1\n          tag_119\n          jump\t// in\n        tag_161:\n          swap3\n          pop\n          pop\n          dup2\n          swap1\n          sstore\n          pop\n            /* \"contracts/FlowerStorage.sol\":1748:1849  function addTotalExpired(uint256 _amount) external onlyOwner {... */\n          pop\n          jump\t// out\n            /* \"contracts/FlowerStorage.sol\":698:724  uint256 public totalBurned */\n        tag_92:\n          sload(0x04)\n          dup2\n          jump\t// out\n            /* \"contracts/FlowerStorage.sol\":2868:3063  function removeTBNodeByIndex(address _addr, uint256 _index) external onlyOwner {... */\n        tag_96:\n            /* \"@openzeppelin/contracts/access/Ownable.sol\":1094:1107  _checkOwner() */\n          tag_163\n            /* \"@openzeppelin/contracts/access/Ownable.sol\":1094:1105  _checkOwner */\n          tag_116\n            /* \"@openzeppelin/contracts/access/Ownable.sol\":1094:1107  _checkOwner() */\n          jump\t// in\n        tag_163:\n            /* \"contracts/FlowerStorage.sol\":3022:3035  tbNodeByIndex */\n          0x07\n            /* \"contracts/FlowerStorage.sol\":3022:3042  tbNodeByIndex[_addr] */\n          0x00\n            /* \"contracts/FlowerStorage.sol\":3036:3041  _addr */\n          dup4\n            /* \"contracts/FlowerStorage.sol\":3022:3042  tbNodeByIndex[_addr] */\n          0xffffffffffffffffffffffffffffffffffffffff\n          and\n          0xffffffffffffffffffffffffffffffffffffffff\n          and\n          dup2\n          mstore\n          0x20\n          add\n          swap1\n          dup2\n          mstore\n          0x20\n          add\n          0x00\n          keccak256\n            /* \"contracts/FlowerStorage.sol\":3022:3050  tbNodeByIndex[_addr][_index] */\n          0x00\n            /* \"contracts/FlowerStorage.sol\":3043:3049  _index */\n          dup3\n            /* \"contracts/FlowerStorage.sol\":3022:3050  tbNodeByIndex[_addr][_index] */\n          dup2\n          mstore\n          0x20\n          add\n          swap1\n          dup2\n          mstore\n          0x20\n          add\n          0x00\n          keccak256\n          0x00\n            /* \"contracts/FlowerStorage.sol\":3015:3050  delete tbNodeByIndex[_addr][_index] */\n          dup1\n          dup3\n          add\n          0x00\n          swap1\n          sstore\n          0x01\n          dup3\n          add\n          0x00\n          swap1\n          sstore\n          0x02\n          dup3\n          add\n          0x00\n          swap1\n          sstore\n          pop\n          pop\n            /* \"contracts/FlowerStorage.sol\":2868:3063  function removeTBNodeByIndex(address _addr, uint256 _index) external onlyOwner {... */\n          pop\n          pop\n          jump\t// out\n            /* \"contracts/FlowerStorage.sol\":1509:1608  function addTotalSupply(uint256 _amount) external onlyOwner {... */\n        tag_99:\n            /* \"@openzeppelin/contracts/access/Ownable.sol\":1094:1107  _checkOwner() */\n          tag_166\n            /* \"@openzeppelin/contracts/access/Ownable.sol\":1094:1105  _checkOwner */\n          tag_116\n            /* \"@openzeppelin/contracts/access/Ownable.sol\":1094:1107  _checkOwner() */\n          jump\t// in\n        tag_166:\n            /* \"contracts/FlowerStorage.sol\":1594:1601  _amount */\n          dup1\n            /* \"contracts/FlowerStorage.sol\":1579:1590  totalSupply */\n          0x02\n          0x00\n            /* \"contracts/FlowerStorage.sol\":1579:1601  totalSupply += _amount */\n          dup3\n          dup3\n          sload\n          tag_168\n          swap2\n          swap1\n          tag_119\n          jump\t// in\n        tag_168:\n          swap3\n          pop\n          pop\n          dup2\n          swap1\n          sstore\n          pop\n            /* \"contracts/FlowerStorage.sol\":1509:1608  function addTotalSupply(uint256 _amount) external onlyOwner {... */\n          pop\n          jump\t// out\n            /* \"contracts/FlowerStorage.sol\":2693:2862  function subtractTBNodeByIndexBalance(address _addr, uint256 _index, uint256 _amount) external onlyOwner {... */\n        tag_102:\n            /* \"@openzeppelin/contracts/access/Ownable.sol\":1094:1107  _checkOwner() */\n          tag_170\n            /* \"@openzeppelin/contracts/access/Ownable.sol\":1094:1105  _checkOwner */\n          tag_116\n            /* \"@openzeppelin/contracts/access/Ownable.sol\":1094:1107  _checkOwner() */\n          jump\t// in\n        tag_170:\n            /* \"contracts/FlowerStorage.sol\":2848:2855  _amount */\n          dup1\n            /* \"contracts/FlowerStorage.sol\":2808:2821  tbNodeByIndex */\n          0x07\n            /* \"contracts/FlowerStorage.sol\":2808:2828  tbNodeByIndex[_addr] */\n          0x00\n            /* \"contracts/FlowerStorage.sol\":2822:2827  _addr */\n          dup6\n            /* \"contracts/FlowerStorage.sol\":2808:2828  tbNodeByIndex[_addr] */\n          0xffffffffffffffffffffffffffffffffffffffff\n          and\n          0xffffffffffffffffffffffffffffffffffffffff\n          and\n          dup2\n          mstore\n          0x20\n          add\n          swap1\n          dup2\n          mstore\n          0x20\n          add\n          0x00\n          keccak256\n            /* \"contracts/FlowerStorage.sol\":2808:2836  tbNodeByIndex[_addr][_index] */\n          0x00\n            /* \"contracts/FlowerStorage.sol\":2829:2835  _index */\n          dup5\n            /* \"contracts/FlowerStorage.sol\":2808:2836  tbNodeByIndex[_addr][_index] */\n          dup2\n          mstore\n          0x20\n          add\n          swap1\n          dup2\n          mstore\n          0x20\n          add\n          0x00\n          keccak256\n            /* \"contracts/FlowerStorage.sol\":2808:2844  tbNodeByIndex[_addr][_index].balance */\n          0x01\n          add\n          0x00\n            /* \"contracts/FlowerStorage.sol\":2808:2855  tbNodeByIndex[_addr][_index].balance -= _amount */\n          dup3\n          dup3\n          sload\n          tag_172\n          swap2\n          swap1\n          tag_124\n          jump\t// in\n        tag_172:\n          swap3\n          pop\n          pop\n          dup2\n          swap1\n          sstore\n          pop\n            /* \"contracts/FlowerStorage.sol\":2693:2862  function subtractTBNodeByIndexBalance(address _addr, uint256 _index, uint256 _amount) external onlyOwner {... */\n          pop\n          pop\n          pop\n          jump\t// out\n            /* \"contracts/FlowerStorage.sol\":1130:1197  mapping(address => mapping(uint256 => TBNode)) public tbNodeByIndex */\n        tag_105:\n          mstore(0x20, 0x07)\n          dup2\n          0x00\n          mstore\n          mstore(0x20, keccak256(0x00, 0x40))\n          dup1\n          0x00\n          mstore\n          keccak256(0x00, 0x40)\n          0x00\n          swap2\n          pop\n          swap2\n          pop\n          pop\n          dup1\n          0x00\n          add\n          sload\n          swap1\n          dup1\n          0x01\n          add\n          sload\n          swap1\n          dup1\n          0x02\n          add\n          sload\n          swap1\n          pop\n          dup4\n          jump\t// out\n            /* \"@openzeppelin/contracts/access/Ownable.sol\":2081:2279  function transferOwnership(address newOwner) public virtual onlyOwner {... */\n        tag_110:\n            /* \"@openzeppelin/contracts/access/Ownable.sol\":1094:1107  _checkOwner() */\n          tag_174\n            /* \"@openzeppelin/contracts/access/Ownable.sol\":1094:1105  _checkOwner */\n          tag_116\n            /* \"@openzeppelin/contracts/access/Ownable.sol\":1094:1107  _checkOwner() */\n          jump\t// in\n        tag_174:\n            /* \"@openzeppelin/contracts/access/Ownable.sol\":2189:2190  0 */\n          0x00\n            /* \"@openzeppelin/contracts/access/Ownable.sol\":2169:2191  newOwner != address(0) */\n          0xffffffffffffffffffffffffffffffffffffffff\n          and\n            /* \"@openzeppelin/contracts/access/Ownable.sol\":2169:2177  newOwner */\n          dup2\n            /* \"@openzeppelin/contracts/access/Ownable.sol\":2169:2191  newOwner != address(0) */\n          0xffffffffffffffffffffffffffffffffffffffff\n          and\n          eq\n          iszero\n            /* \"@openzeppelin/contracts/access/Ownable.sol\":2161:2234  require(newOwner != address(0), \"Ownable: new owner is the zero address\") */\n          tag_176\n          jumpi\n          mload(0x40)\n          0x08c379a000000000000000000000000000000000000000000000000000000000\n          dup2\n          mstore\n          0x04\n          add\n          tag_177\n          swap1\n          tag_178\n          jump\t// in\n        tag_177:\n          mload(0x40)\n          dup1\n          swap2\n          sub\n          swap1\n          revert\n        tag_176:\n            /* \"@openzeppelin/contracts/access/Ownable.sol\":2244:2272  _transferOwnership(newOwner) */\n          tag_179\n            /* \"@openzeppelin/contracts/access/Ownable.sol\":2263:2271  newOwner */\n          dup2\n            /* \"@openzeppelin/contracts/access/Ownable.sol\":2244:2262  _transferOwnership */\n          tag_135\n            /* \"@openzeppelin/contracts/access/Ownable.sol\":2244:2272  _transferOwnership(newOwner) */\n          jump\t// in\n        tag_179:\n            /* \"@openzeppelin/contracts/access/Ownable.sol\":2081:2279  function transferOwnership(address newOwner) public virtual onlyOwner {... */\n          pop\n          jump\t// out\n            /* \"contracts/FlowerStorage.sol\":1855:1961  function subtractTotalExpired(uint256 _amount) external onlyOwner {... */\n        tag_113:\n            /* \"@openzeppelin/contracts/access/Ownable.sol\":1094:1107  _checkOwner() */\n          tag_181\n            /* \"@openzeppelin/contracts/access/Ownable.sol\":1094:1105  _checkOwner */\n          tag_116\n            /* \"@openzeppelin/contracts/access/Ownable.sol\":1094:1107  _checkOwner() */\n          jump\t// in\n        tag_181:\n            /* \"contracts/FlowerStorage.sol\":1947:1954  _amount */\n          dup1\n            /* \"contracts/FlowerStorage.sol\":1931:1943  totalExpired */\n          0x03\n          0x00\n            /* \"contracts/FlowerStorage.sol\":1931:1954  totalExpired -= _amount */\n          dup3\n          dup3\n          sload\n          tag_183\n          swap2\n          swap1\n          tag_124\n          jump\t// in\n        tag_183:\n          swap3\n          pop\n          pop\n          dup2\n          swap1\n          sstore\n          pop\n            /* \"contracts/FlowerStorage.sol\":1855:1961  function subtractTotalExpired(uint256 _amount) external onlyOwner {... */\n          pop\n          jump\t// out\n            /* \"@openzeppelin/contracts/access/Ownable.sol\":1359:1489  function _checkOwner() internal view virtual {... */\n        tag_116:\n            /* \"@openzeppelin/contracts/access/Ownable.sol\":1433:1445  _msgSender() */\n          tag_185\n            /* \"@openzeppelin/contracts/access/Ownable.sol\":1433:1443  _msgSender */\n          tag_186\n            /* \"@openzeppelin/contracts/access/Ownable.sol\":1433:1445  _msgSender() */\n          jump\t// in\n        tag_185:\n            /* \"@openzeppelin/contracts/access/Ownable.sol\":1422:1445  owner() == _msgSender() */\n          0xffffffffffffffffffffffffffffffffffffffff\n          and\n            /* \"@openzeppelin/contracts/access/Ownable.sol\":1422:1429  owner() */\n          tag_187\n            /* \"@openzeppelin/contracts/access/Ownable.sol\":1422:1427  owner */\n          tag_60\n            /* \"@openzeppelin/contracts/access/Ownable.sol\":1422:1429  owner() */\n          jump\t// in\n        tag_187:\n            /* \"@openzeppelin/contracts/access/Ownable.sol\":1422:1445  owner() == _msgSender() */\n          0xffffffffffffffffffffffffffffffffffffffff\n          and\n          eq\n            /* \"@openzeppelin/contracts/access/Ownable.sol\":1414:1482  require(owner() == _msgSender(), \"Ownable: caller is not the owner\") */\n          tag_188\n          jumpi\n          mload(0x40)\n          0x08c379a000000000000000000000000000000000000000000000000000000000\n          dup2\n          mstore\n          0x04\n          add\n          tag_189\n          swap1\n          tag_190\n          jump\t// in\n        tag_189:\n          mload(0x40)\n          dup1\n          swap2\n          sub\n          swap1\n          revert\n        tag_188:\n            /* \"@openzeppelin/contracts/access/Ownable.sol\":1359:1489  function _checkOwner() internal view virtual {... */\n          jump\t// out\n            /* \"@openzeppelin/contracts/access/Ownable.sol\":2433:2620  function _transferOwnership(address newOwner) internal virtual {... */\n        tag_135:\n            /* \"@openzeppelin/contracts/access/Ownable.sol\":2506:2522  address oldOwner */\n          0x00\n            /* \"@openzeppelin/contracts/access/Ownable.sol\":2525:2531  _owner */\n          dup1\n          0x00\n          swap1\n          sload\n          swap1\n          0x0100\n          exp\n          swap1\n          div\n          0xffffffffffffffffffffffffffffffffffffffff\n          and\n            /* \"@openzeppelin/contracts/access/Ownable.sol\":2506:2531  address oldOwner = _owner */\n          swap1\n          pop\n            /* \"@openzeppelin/contracts/access/Ownable.sol\":2550:2558  newOwner */\n          dup2\n            /* \"@openzeppelin/contracts/access/Ownable.sol\":2541:2547  _owner */\n          0x00\n          dup1\n            /* \"@openzeppelin/contracts/access/Ownable.sol\":2541:2558  _owner = newOwner */\n          0x0100\n          exp\n          dup2\n          sload\n          dup2\n          0xffffffffffffffffffffffffffffffffffffffff\n          mul\n          not\n          and\n          swap1\n          dup4\n          0xffffffffffffffffffffffffffffffffffffffff\n          and\n          mul\n          or\n          swap1\n          sstore\n          pop\n            /* \"@openzeppelin/contracts/access/Ownable.sol\":2604:2612  newOwner */\n          dup2\n            /* \"@openzeppelin/contracts/access/Ownable.sol\":2573:2613  OwnershipTransferred(oldOwner, newOwner) */\n          0xffffffffffffffffffffffffffffffffffffffff\n          and\n            /* \"@openzeppelin/contracts/access/Ownable.sol\":2594:2602  oldOwner */\n          dup2\n            /* \"@openzeppelin/contracts/access/Ownable.sol\":2573:2613  OwnershipTransferred(oldOwner, newOwner) */\n          0xffffffffffffffffffffffffffffffffffffffff\n          and\n          0x8be0079c531659141344cd1fd0a4f28419497f9722a3daafe3b4186f6b6457e0\n          mload(0x40)\n          mload(0x40)\n          dup1\n          swap2\n          sub\n          swap1\n          log3\n            /* \"@openzeppelin/contracts/access/Ownable.sol\":2433:2620  function _transferOwnership(address newOwner) internal virtual {... */\n          pop\n          pop\n          jump\t// out\n            /* \"@openzeppelin/contracts/utils/Context.sol\":640:736  function _msgSender() internal view virtual returns (address) {... */\n        tag_186:\n            /* \"@openzeppelin/contracts/utils/Context.sol\":693:700  address */\n          0x00\n            /* \"@openzeppelin/contracts/utils/Context.sol\":719:729  msg.sender */\n          caller\n            /* \"@openzeppelin/contracts/utils/Context.sol\":712:729  return msg.sender */\n          swap1\n          pop\n            /* \"@openzeppelin/contracts/utils/Context.sol\":640:736  function _msgSender() internal view virtual returns (address) {... */\n          swap1\n          jump\t// out\n        tag_148:\n          mload(0x40)\n          dup1\n          0x60\n          add\n          0x40\n          mstore\n          dup1\n          0x00\n          dup2\n          mstore\n          0x20\n          add\n          0x00\n          dup2\n          mstore\n          0x20\n          add\n          0x00\n          dup2\n          mstore\n          pop\n          swap1\n          jump\t// out\n            /* \"#utility.yul\":7:146   */\n        tag_194:\n            /* \"#utility.yul\":53:58   */\n          0x00\n            /* \"#utility.yul\":91:97   */\n          dup2\n            /* \"#utility.yul\":78:98   */\n          calldataload\n            /* \"#utility.yul\":69:98   */\n          swap1\n          pop\n            /* \"#utility.yul\":107:140   */\n          tag_196\n            /* \"#utility.yul\":134:139   */\n          dup2\n            /* \"#utility.yul\":107:140   */\n          tag_197\n          jump\t// in\n        tag_196:\n            /* \"#utility.yul\":59:146   */\n          swap3\n          swap2\n          pop\n          pop\n          jump\t// out\n            /* \"#utility.yul\":152:291   */\n        tag_198:\n            /* \"#utility.yul\":198:203   */\n          0x00\n            /* \"#utility.yul\":236:242   */\n          dup2\n            /* \"#utility.yul\":223:243   */\n          calldataload\n            /* \"#utility.yul\":214:243   */\n          swap1\n          pop\n            /* \"#utility.yul\":252:285   */\n          tag_200\n            /* \"#utility.yul\":279:284   */\n          dup2\n            /* \"#utility.yul\":252:285   */\n          tag_201\n          jump\t// in\n        tag_200:\n            /* \"#utility.yul\":204:291   */\n          swap3\n          swap2\n          pop\n          pop\n          jump\t// out\n            /* \"#utility.yul\":297:559   */\n        tag_48:\n            /* \"#utility.yul\":356:362   */\n          0x00\n            /* \"#utility.yul\":405:407   */\n          0x20\n            /* \"#utility.yul\":393:402   */\n          dup3\n            /* \"#utility.yul\":384:391   */\n          dup5\n            /* \"#utility.yul\":380:403   */\n          sub\n            /* \"#utility.yul\":376:408   */\n          slt\n            /* \"#utility.yul\":373:375   */\n          iszero\n          tag_203\n          jumpi\n            /* \"#utility.yul\":421:422   */\n          0x00\n            /* \"#utility.yul\":418:419   */\n          dup1\n            /* \"#utility.yul\":411:423   */\n          revert\n            /* \"#utility.yul\":373:375   */\n        tag_203:\n            /* \"#utility.yul\":464:465   */\n          0x00\n            /* \"#utility.yul\":489:542   */\n          tag_204\n            /* \"#utility.yul\":534:541   */\n          dup5\n            /* \"#utility.yul\":525:531   */\n          dup3\n            /* \"#utility.yul\":514:523   */\n          dup6\n            /* \"#utility.yul\":510:532   */\n          add\n            /* \"#utility.yul\":489:542   */\n          tag_194\n          jump\t// in\n        tag_204:\n            /* \"#utility.yul\":479:542   */\n          swap2\n          pop\n            /* \"#utility.yul\":435:552   */\n          pop\n            /* \"#utility.yul\":363:559   */\n          swap3\n          swap2\n          pop\n          pop\n          jump\t// out\n            /* \"#utility.yul\":565:972   */\n        tag_36:\n            /* \"#utility.yul\":633:639   */\n          0x00\n            /* \"#utility.yul\":641:647   */\n          dup1\n            /* \"#utility.yul\":690:692   */\n          0x40\n            /* \"#utility.yul\":678:687   */\n          dup4\n            /* \"#utility.yul\":669:676   */\n          dup6\n            /* \"#utility.yul\":665:688   */\n          sub\n            /* \"#utility.yul\":661:693   */\n          slt\n            /* \"#utility.yul\":658:660   */\n          iszero\n          tag_206\n          jumpi\n            /* \"#utility.yul\":706:707   */\n          0x00\n            /* \"#utility.yul\":703:704   */\n          dup1\n            /* \"#utility.yul\":696:708   */\n          revert\n            /* \"#utility.yul\":658:660   */\n        tag_206:\n            /* \"#utility.yul\":749:750   */\n          0x00\n            /* \"#utility.yul\":774:827   */\n          tag_207\n            /* \"#utility.yul\":819:826   */\n          dup6\n            /* \"#utility.yul\":810:816   */\n          dup3\n            /* \"#utility.yul\":799:808   */\n          dup7\n            /* \"#utility.yul\":795:817   */\n          add\n            /* \"#utility.yul\":774:827   */\n          tag_194\n          jump\t// in\n        tag_207:\n            /* \"#utility.yul\":764:827   */\n          swap3\n          pop\n            /* \"#utility.yul\":720:837   */\n          pop\n            /* \"#utility.yul\":876:878   */\n          0x20\n            /* \"#utility.yul\":902:955   */\n          tag_208\n            /* \"#utility.yul\":947:954   */\n          dup6\n            /* \"#utility.yul\":938:944   */\n          dup3\n            /* \"#utility.yul\":927:936   */\n          dup7\n            /* \"#utility.yul\":923:945   */\n          add\n            /* \"#utility.yul\":902:955   */\n          tag_198\n          jump\t// in\n        tag_208:\n            /* \"#utility.yul\":892:955   */\n          swap2\n          pop\n            /* \"#utility.yul\":847:965   */\n          pop\n            /* \"#utility.yul\":648:972   */\n          swap3\n          pop\n          swap3\n          swap1\n          pop\n          jump\t// out\n            /* \"#utility.yul\":978:1530   */\n        tag_44:\n            /* \"#utility.yul\":1055:1061   */\n          0x00\n            /* \"#utility.yul\":1063:1069   */\n          dup1\n            /* \"#utility.yul\":1071:1077   */\n          0x00\n            /* \"#utility.yul\":1120:1122   */\n          0x60\n            /* \"#utility.yul\":1108:1117   */\n          dup5\n            /* \"#utility.yul\":1099:1106   */\n          dup7\n            /* \"#utility.yul\":1095:1118   */\n          sub\n            /* \"#utility.yul\":1091:1123   */\n          slt\n            /* \"#utility.yul\":1088:1090   */\n          iszero\n          tag_210\n          jumpi\n            /* \"#utility.yul\":1136:1137   */\n          0x00\n            /* \"#utility.yul\":1133:1134   */\n          dup1\n            /* \"#utility.yul\":1126:1138   */\n          revert\n            /* \"#utility.yul\":1088:1090   */\n        tag_210:\n            /* \"#utility.yul\":1179:1180   */\n          0x00\n            /* \"#utility.yul\":1204:1257   */\n          tag_211\n            /* \"#utility.yul\":1249:1256   */\n          dup7\n            /* \"#utility.yul\":1240:1246   */\n          dup3\n            /* \"#utility.yul\":1229:1238   */\n          dup8\n            /* \"#utility.yul\":1225:1247   */\n          add\n            /* \"#utility.yul\":1204:1257   */\n          tag_194\n          jump\t// in\n        tag_211:\n            /* \"#utility.yul\":1194:1257   */\n          swap4\n          pop\n            /* \"#utility.yul\":1150:1267   */\n          pop\n            /* \"#utility.yul\":1306:1308   */\n          0x20\n            /* \"#utility.yul\":1332:1385   */\n          tag_212\n            /* \"#utility.yul\":1377:1384   */\n          dup7\n            /* \"#utility.yul\":1368:1374   */\n          dup3\n            /* \"#utility.yul\":1357:1366   */\n          dup8\n            /* \"#utility.yul\":1353:1375   */\n          add\n            /* \"#utility.yul\":1332:1385   */\n          tag_198\n          jump\t// in\n        tag_212:\n            /* \"#utility.yul\":1322:1385   */\n          swap3\n          pop\n            /* \"#utility.yul\":1277:1395   */\n          pop\n            /* \"#utility.yul\":1434:1436   */\n          0x40\n            /* \"#utility.yul\":1460:1513   */\n          tag_213\n            /* \"#utility.yul\":1505:1512   */\n          dup7\n            /* \"#utility.yul\":1496:1502   */\n          dup3\n            /* \"#utility.yul\":1485:1494   */\n          dup8\n            /* \"#utility.yul\":1481:1503   */\n          add\n            /* \"#utility.yul\":1460:1513   */\n          tag_198\n          jump\t// in\n        tag_213:\n            /* \"#utility.yul\":1450:1513   */\n          swap2\n          pop\n            /* \"#utility.yul\":1405:1523   */\n          pop\n            /* \"#utility.yul\":1078:1530   */\n          swap3\n          pop\n          swap3\n          pop\n          swap3\n          jump\t// out\n            /* \"#utility.yul\":1536:1798   */\n        tag_40:\n            /* \"#utility.yul\":1595:1601   */\n          0x00\n            /* \"#utility.yul\":1644:1646   */\n          0x20\n            /* \"#utility.yul\":1632:1641   */\n          dup3\n            /* \"#utility.yul\":1623:1630   */\n          dup5\n            /* \"#utility.yul\":1619:1642   */\n          sub\n            /* \"#utility.yul\":1615:1647   */\n          slt\n            /* \"#utility.yul\":1612:1614   */\n          iszero\n          tag_215\n          jumpi\n            /* \"#utility.yul\":1660:1661   */\n          0x00\n            /* \"#utility.yul\":1657:1658   */\n          dup1\n            /* \"#utility.yul\":1650:1662   */\n          revert\n            /* \"#utility.yul\":1612:1614   */\n        tag_215:\n            /* \"#utility.yul\":1703:1704   */\n          0x00\n            /* \"#utility.yul\":1728:1781   */\n          tag_216\n            /* \"#utility.yul\":1773:1780   */\n          dup5\n            /* \"#utility.yul\":1764:1770   */\n          dup3\n            /* \"#utility.yul\":1753:1762   */\n          dup6\n            /* \"#utility.yul\":1749:1771   */\n          add\n            /* \"#utility.yul\":1728:1781   */\n          tag_198\n          jump\t// in\n        tag_216:\n            /* \"#utility.yul\":1718:1781   */\n          swap2\n          pop\n            /* \"#utility.yul\":1674:1791   */\n          pop\n            /* \"#utility.yul\":1602:1798   */\n          swap3\n          swap2\n          pop\n          pop\n          jump\t// out\n            /* \"#utility.yul\":1804:1922   */\n        tag_217:\n            /* \"#utility.yul\":1891:1915   */\n          tag_219\n            /* \"#utility.yul\":1909:1914   */\n          dup2\n            /* \"#utility.yul\":1891:1915   */\n          tag_220\n          jump\t// in\n        tag_219:\n            /* \"#utility.yul\":1886:1889   */\n          dup3\n            /* \"#utility.yul\":1879:1916   */\n          mstore\n            /* \"#utility.yul\":1869:1922   */\n          pop\n          pop\n          jump\t// out\n            /* \"#utility.yul\":1928:2294   */\n        tag_221:\n            /* \"#utility.yul\":2070:2073   */\n          0x00\n            /* \"#utility.yul\":2091:2158   */\n          tag_223\n            /* \"#utility.yul\":2155:2157   */\n          0x26\n            /* \"#utility.yul\":2150:2153   */\n          dup4\n            /* \"#utility.yul\":2091:2158   */\n          tag_224\n          jump\t// in\n        tag_223:\n            /* \"#utility.yul\":2084:2158   */\n          swap2\n          pop\n            /* \"#utility.yul\":2167:2260   */\n          tag_225\n            /* \"#utility.yul\":2256:2259   */\n          dup3\n            /* \"#utility.yul\":2167:2260   */\n          tag_226\n          jump\t// in\n        tag_225:\n            /* \"#utility.yul\":2285:2287   */\n          0x40\n            /* \"#utility.yul\":2280:2283   */\n          dup3\n            /* \"#utility.yul\":2276:2288   */\n          add\n            /* \"#utility.yul\":2269:2288   */\n          swap1\n          pop\n            /* \"#utility.yul\":2074:2294   */\n          swap2\n          swap1\n          pop\n          jump\t// out\n            /* \"#utility.yul\":2300:2666   */\n        tag_227:\n            /* \"#utility.yul\":2442:2445   */\n          0x00\n            /* \"#utility.yul\":2463:2530   */\n          tag_229\n            /* \"#utility.yul\":2527:2529   */\n          0x20\n            /* \"#utility.yul\":2522:2525   */\n          dup4\n            /* \"#utility.yul\":2463:2530   */\n          tag_224\n          jump\t// in\n        tag_229:\n            /* \"#utility.yul\":2456:2530   */\n          swap2\n          pop\n            /* \"#utility.yul\":2539:2632   */\n          tag_230\n            /* \"#utility.yul\":2628:2631   */\n          dup3\n            /* \"#utility.yul\":2539:2632   */\n          tag_231\n          jump\t// in\n        tag_230:\n            /* \"#utility.yul\":2657:2659   */\n          0x20\n            /* \"#utility.yul\":2652:2655   */\n          dup3\n            /* \"#utility.yul\":2648:2660   */\n          add\n            /* \"#utility.yul\":2641:2660   */\n          swap1\n          pop\n            /* \"#utility.yul\":2446:2666   */\n          swap2\n          swap1\n          pop\n          jump\t// out\n            /* \"#utility.yul\":2710:3395   */\n        tag_232:\n            /* \"#utility.yul\":2853:2857   */\n          0x60\n            /* \"#utility.yul\":2848:2851   */\n          dup3\n            /* \"#utility.yul\":2844:2858   */\n          add\n            /* \"#utility.yul\":2945:2949   */\n          0x00\n            /* \"#utility.yul\":2938:2943   */\n          dup3\n            /* \"#utility.yul\":2934:2950   */\n          add\n            /* \"#utility.yul\":2928:2951   */\n          mload\n            /* \"#utility.yul\":2964:3027   */\n          tag_234\n            /* \"#utility.yul\":3021:3025   */\n          0x00\n            /* \"#utility.yul\":3016:3019   */\n          dup6\n            /* \"#utility.yul\":3012:3026   */\n          add\n            /* \"#utility.yul\":2998:3010   */\n          dup3\n            /* \"#utility.yul\":2964:3027   */\n          tag_235\n          jump\t// in\n        tag_234:\n            /* \"#utility.yul\":2868:3037   */\n          pop\n            /* \"#utility.yul\":3122:3126   */\n          0x20\n            /* \"#utility.yul\":3115:3120   */\n          dup3\n            /* \"#utility.yul\":3111:3127   */\n          add\n            /* \"#utility.yul\":3105:3128   */\n          mload\n            /* \"#utility.yul\":3141:3204   */\n          tag_236\n            /* \"#utility.yul\":3198:3202   */\n          0x20\n            /* \"#utility.yul\":3193:3196   */\n          dup6\n            /* \"#utility.yul\":3189:3203   */\n          add\n            /* \"#utility.yul\":3175:3187   */\n          dup3\n            /* \"#utility.yul\":3141:3204   */\n          tag_235\n          jump\t// in\n        tag_236:\n            /* \"#utility.yul\":3047:3214   */\n          pop\n            /* \"#utility.yul\":3296:3300   */\n          0x40\n            /* \"#utility.yul\":3289:3294   */\n          dup3\n            /* \"#utility.yul\":3285:3301   */\n          add\n            /* \"#utility.yul\":3279:3302   */\n          mload\n            /* \"#utility.yul\":3315:3378   */\n          tag_237\n            /* \"#utility.yul\":3372:3376   */\n          0x40\n            /* \"#utility.yul\":3367:3370   */\n          dup6\n            /* \"#utility.yul\":3363:3377   */\n          add\n            /* \"#utility.yul\":3349:3361   */\n          dup3\n            /* \"#utility.yul\":3315:3378   */\n          tag_235\n          jump\t// in\n        tag_237:\n            /* \"#utility.yul\":3224:3388   */\n          pop\n            /* \"#utility.yul\":2822:3395   */\n          pop\n          pop\n          pop\n          jump\t// out\n            /* \"#utility.yul\":3401:3509   */\n        tag_235:\n            /* \"#utility.yul\":3478:3502   */\n          tag_239\n            /* \"#utility.yul\":3496:3501   */\n          dup2\n            /* \"#utility.yul\":3478:3502   */\n          tag_240\n          jump\t// in\n        tag_239:\n            /* \"#utility.yul\":3473:3476   */\n          dup3\n            /* \"#utility.yul\":3466:3503   */\n          mstore\n            /* \"#utility.yul\":3456:3509   */\n          pop\n          pop\n          jump\t// out\n            /* \"#utility.yul\":3515:3633   */\n        tag_241:\n            /* \"#utility.yul\":3602:3626   */\n          tag_243\n            /* \"#utility.yul\":3620:3625   */\n          dup2\n            /* \"#utility.yul\":3602:3626   */\n          tag_240\n          jump\t// in\n        tag_243:\n            /* \"#utility.yul\":3597:3600   */\n          dup3\n            /* \"#utility.yul\":3590:3627   */\n          mstore\n            /* \"#utility.yul\":3580:3633   */\n          pop\n          pop\n          jump\t// out\n            /* \"#utility.yul\":3639:3861   */\n        tag_62:\n            /* \"#utility.yul\":3732:3736   */\n          0x00\n            /* \"#utility.yul\":3770:3772   */\n          0x20\n            /* \"#utility.yul\":3759:3768   */\n          dup3\n            /* \"#utility.yul\":3755:3773   */\n          add\n            /* \"#utility.yul\":3747:3773   */\n          swap1\n          pop\n            /* \"#utility.yul\":3783:3854   */\n          tag_245\n            /* \"#utility.yul\":3851:3852   */\n          0x00\n            /* \"#utility.yul\":3840:3849   */\n          dup4\n            /* \"#utility.yul\":3836:3853   */\n          add\n            /* \"#utility.yul\":3827:3833   */\n          dup5\n            /* \"#utility.yul\":3783:3854   */\n          tag_217\n          jump\t// in\n        tag_245:\n            /* \"#utility.yul\":3737:3861   */\n          swap3\n          swap2\n          pop\n          pop\n          jump\t// out\n            /* \"#utility.yul\":3867:4286   */\n        tag_178:\n            /* \"#utility.yul\":4033:4037   */\n          0x00\n            /* \"#utility.yul\":4071:4073   */\n          0x20\n            /* \"#utility.yul\":4060:4069   */\n          dup3\n            /* \"#utility.yul\":4056:4074   */\n          add\n            /* \"#utility.yul\":4048:4074   */\n          swap1\n          pop\n            /* \"#utility.yul\":4120:4129   */\n          dup2\n            /* \"#utility.yul\":4114:4118   */\n          dup2\n            /* \"#utility.yul\":4110:4130   */\n          sub\n            /* \"#utility.yul\":4106:4107   */\n          0x00\n            /* \"#utility.yul\":4095:4104   */\n          dup4\n            /* \"#utility.yul\":4091:4108   */\n          add\n            /* \"#utility.yul\":4084:4131   */\n          mstore\n            /* \"#utility.yul\":4148:4279   */\n          tag_247\n            /* \"#utility.yul\":4274:4278   */\n          dup2\n            /* \"#utility.yul\":4148:4279   */\n          tag_221\n          jump\t// in\n        tag_247:\n            /* \"#utility.yul\":4140:4279   */\n          swap1\n          pop\n            /* \"#utility.yul\":4038:4286   */\n          swap2\n          swap1\n          pop\n          jump\t// out\n            /* \"#utility.yul\":4292:4711   */\n        tag_190:\n            /* \"#utility.yul\":4458:4462   */\n          0x00\n            /* \"#utility.yul\":4496:4498   */\n          0x20\n            /* \"#utility.yul\":4485:4494   */\n          dup3\n            /* \"#utility.yul\":4481:4499   */\n          add\n            /* \"#utility.yul\":4473:4499   */\n          swap1\n          pop\n            /* \"#utility.yul\":4545:4554   */\n          dup2\n            /* \"#utility.yul\":4539:4543   */\n          dup2\n            /* \"#utility.yul\":4535:4555   */\n          sub\n            /* \"#utility.yul\":4531:4532   */\n          0x00\n            /* \"#utility.yul\":4520:4529   */\n          dup4\n            /* \"#utility.yul\":4516:4533   */\n          add\n            /* \"#utility.yul\":4509:4556   */\n          mstore\n            /* \"#utility.yul\":4573:4704   */\n          tag_249\n            /* \"#utility.yul\":4699:4703   */\n          dup2\n            /* \"#utility.yul\":4573:4704   */\n          tag_227\n          jump\t// in\n        tag_249:\n            /* \"#utility.yul\":4565:4704   */\n          swap1\n          pop\n            /* \"#utility.yul\":4463:4711   */\n          swap2\n          swap1\n          pop\n          jump\t// out\n            /* \"#utility.yul\":4717:5031   */\n        tag_74:\n            /* \"#utility.yul\":4856:4860   */\n          0x00\n            /* \"#utility.yul\":4894:4896   */\n          0x60\n            /* \"#utility.yul\":4883:4892   */\n          dup3\n            /* \"#utility.yul\":4879:4897   */\n          add\n            /* \"#utility.yul\":4871:4897   */\n          swap1\n          pop\n            /* \"#utility.yul\":4907:5024   */\n          tag_251\n            /* \"#utility.yul\":5021:5022   */\n          0x00\n            /* \"#utility.yul\":5010:5019   */\n          dup4\n            /* \"#utility.yul\":5006:5023   */\n          add\n            /* \"#utility.yul\":4997:5003   */\n          dup5\n            /* \"#utility.yul\":4907:5024   */\n          tag_232\n          jump\t// in\n        tag_251:\n            /* \"#utility.yul\":4861:5031   */\n          swap3\n          swap2\n          pop\n          pop\n          jump\t// out\n            /* \"#utility.yul\":5037:5259   */\n        tag_33:\n            /* \"#utility.yul\":5130:5134   */\n          0x00\n            /* \"#utility.yul\":5168:5170   */\n          0x20\n            /* \"#utility.yul\":5157:5166   */\n          dup3\n            /* \"#utility.yul\":5153:5171   */\n          add\n            /* \"#utility.yul\":5145:5171   */\n          swap1\n          pop\n            /* \"#utility.yul\":5181:5252   */\n          tag_253\n            /* \"#utility.yul\":5249:5250   */\n          0x00\n            /* \"#utility.yul\":5238:5247   */\n          dup4\n            /* \"#utility.yul\":5234:5251   */\n          add\n            /* \"#utility.yul\":5225:5231   */\n          dup5\n            /* \"#utility.yul\":5181:5252   */\n          tag_241\n          jump\t// in\n        tag_253:\n            /* \"#utility.yul\":5135:5259   */\n          swap3\n          swap2\n          pop\n          pop\n          jump\t// out\n            /* \"#utility.yul\":5265:5707   */\n        tag_107:\n            /* \"#utility.yul\":5414:5418   */\n          0x00\n            /* \"#utility.yul\":5452:5454   */\n          0x60\n            /* \"#utility.yul\":5441:5450   */\n          dup3\n            /* \"#utility.yul\":5437:5455   */\n          add\n            /* \"#utility.yul\":5429:5455   */\n          swap1\n          pop\n            /* \"#utility.yul\":5465:5536   */\n          tag_255\n            /* \"#utility.yul\":5533:5534   */\n          0x00\n            /* \"#utility.yul\":5522:5531   */\n          dup4\n            /* \"#utility.yul\":5518:5535   */\n          add\n            /* \"#utility.yul\":5509:5515   */\n          dup7\n            /* \"#utility.yul\":5465:5536   */\n          tag_241\n          jump\t// in\n        tag_255:\n            /* \"#utility.yul\":5546:5618   */\n          tag_256\n            /* \"#utility.yul\":5614:5616   */\n          0x20\n            /* \"#utility.yul\":5603:5612   */\n          dup4\n            /* \"#utility.yul\":5599:5617   */\n          add\n            /* \"#utility.yul\":5590:5596   */\n          dup6\n            /* \"#utility.yul\":5546:5618   */\n          tag_241\n          jump\t// in\n        tag_256:\n            /* \"#utility.yul\":5628:5700   */\n          tag_257\n            /* \"#utility.yul\":5696:5698   */\n          0x40\n            /* \"#utility.yul\":5685:5694   */\n          dup4\n            /* \"#utility.yul\":5681:5699   */\n          add\n            /* \"#utility.yul\":5672:5678   */\n          dup5\n            /* \"#utility.yul\":5628:5700   */\n          tag_241\n          jump\t// in\n        tag_257:\n            /* \"#utility.yul\":5419:5707   */\n          swap5\n          swap4\n          pop\n          pop\n          pop\n          pop\n          jump\t// out\n            /* \"#utility.yul\":5713:5882   */\n        tag_224:\n            /* \"#utility.yul\":5797:5808   */\n          0x00\n            /* \"#utility.yul\":5831:5837   */\n          dup3\n            /* \"#utility.yul\":5826:5829   */\n          dup3\n            /* \"#utility.yul\":5819:5838   */\n          mstore\n            /* \"#utility.yul\":5871:5875   */\n          0x20\n            /* \"#utility.yul\":5866:5869   */\n          dup3\n            /* \"#utility.yul\":5862:5876   */\n          add\n            /* \"#utility.yul\":5847:5876   */\n          swap1\n          pop\n            /* \"#utility.yul\":5809:5882   */\n          swap3\n          swap2\n          pop\n          pop\n          jump\t// out\n            /* \"#utility.yul\":5888:6193   */\n        tag_119:\n            /* \"#utility.yul\":5928:5931   */\n          0x00\n            /* \"#utility.yul\":5947:5967   */\n          tag_260\n            /* \"#utility.yul\":5965:5966   */\n          dup3\n            /* \"#utility.yul\":5947:5967   */\n          tag_240\n          jump\t// in\n        tag_260:\n            /* \"#utility.yul\":5942:5967   */\n          swap2\n          pop\n            /* \"#utility.yul\":5981:6001   */\n          tag_261\n            /* \"#utility.yul\":5999:6000   */\n          dup4\n            /* \"#utility.yul\":5981:6001   */\n          tag_240\n          jump\t// in\n        tag_261:\n            /* \"#utility.yul\":5976:6001   */\n          swap3\n          pop\n            /* \"#utility.yul\":6135:6136   */\n          dup3\n            /* \"#utility.yul\":6067:6133   */\n          0xffffffffffffffffffffffffffffffffffffffffffffffffffffffffffffffff\n            /* \"#utility.yul\":6063:6137   */\n          sub\n            /* \"#utility.yul\":6060:6061   */\n          dup3\n            /* \"#utility.yul\":6057:6138   */\n          gt\n            /* \"#utility.yul\":6054:6056   */\n          iszero\n          tag_262\n          jumpi\n            /* \"#utility.yul\":6141:6159   */\n          tag_263\n          tag_264\n          jump\t// in\n        tag_263:\n            /* \"#utility.yul\":6054:6056   */\n        tag_262:\n            /* \"#utility.yul\":6185:6186   */\n          dup3\n            /* \"#utility.yul\":6182:6183   */\n          dup3\n            /* \"#utility.yul\":6178:6187   */\n          add\n            /* \"#utility.yul\":6171:6187   */\n          swap1\n          pop\n            /* \"#utility.yul\":5932:6193   */\n          swap3\n          swap2\n          pop\n          pop\n          jump\t// out\n            /* \"#utility.yul\":6199:6390   */\n        tag_124:\n            /* \"#utility.yul\":6239:6243   */\n          0x00\n            /* \"#utility.yul\":6259:6279   */\n          tag_266\n            /* \"#utility.yul\":6277:6278   */\n          dup3\n            /* \"#utility.yul\":6259:6279   */\n          tag_240\n          jump\t// in\n        tag_266:\n            /* \"#utility.yul\":6254:6279   */\n          swap2\n          pop\n            /* \"#utility.yul\":6293:6313   */\n          tag_267\n            /* \"#utility.yul\":6311:6312   */\n          dup4\n            /* \"#utility.yul\":6293:6313   */\n          tag_240\n          jump\t// in\n        tag_267:\n            /* \"#utility.yul\":6288:6313   */\n          swap3\n          pop\n            /* \"#utility.yul\":6332:6333   */\n          dup3\n            /* \"#utility.yul\":6329:6330   */\n          dup3\n            /* \"#utility.yul\":6326:6334   */\n          lt\n            /* \"#utility.yul\":6323:6325   */\n          iszero\n          tag_268\n          jumpi\n            /* \"#utility.yul\":6337:6355   */\n          tag_269\n          tag_264\n          jump\t// in\n        tag_269:\n            /* \"#utility.yul\":6323:6325   */\n        tag_268:\n            /* \"#utility.yul\":6382:6383   */\n          dup3\n            /* \"#utility.yul\":6379:6380   */\n          dup3\n            /* \"#utility.yul\":6375:6384   */\n          sub\n            /* \"#utility.yul\":6367:6384   */\n          swap1\n          pop\n            /* \"#utility.yul\":6244:6390   */\n          swap3\n          swap2\n          pop\n          pop\n          jump\t// out\n            /* \"#utility.yul\":6396:6492   */\n        tag_220:\n            /* \"#utility.yul\":6433:6440   */\n          0x00\n            /* \"#utility.yul\":6462:6486   */\n          tag_271\n            /* \"#utility.yul\":6480:6485   */\n          dup3\n            /* \"#utility.yul\":6462:6486   */\n          tag_272\n          jump\t// in\n        tag_271:\n            /* \"#utility.yul\":6451:6486   */\n          swap1\n          pop\n            /* \"#utility.yul\":6441:6492   */\n          swap2\n          swap1\n          pop\n          jump\t// out\n            /* \"#utility.yul\":6498:6624   */\n        tag_272:\n            /* \"#utility.yul\":6535:6542   */\n          0x00\n            /* \"#utility.yul\":6575:6617   */\n          0xffffffffffffffffffffffffffffffffffffffff\n            /* \"#utility.yul\":6568:6573   */\n          dup3\n            /* \"#utility.yul\":6564:6618   */\n          and\n            /* \"#utility.yul\":6553:6618   */\n          swap1\n          pop\n            /* \"#utility.yul\":6543:6624   */\n          swap2\n          swap1\n          pop\n          jump\t// out\n            /* \"#utility.yul\":6630:6707   */\n        tag_240:\n            /* \"#utility.yul\":6667:6674   */\n          0x00\n            /* \"#utility.yul\":6696:6701   */\n          dup2\n            /* \"#utility.yul\":6685:6701   */\n          swap1\n          pop\n            /* \"#utility.yul\":6675:6707   */\n          swap2\n          swap1\n          pop\n          jump\t// out\n            /* \"#utility.yul\":6713:6893   */\n        tag_264:\n            /* \"#utility.yul\":6761:6838   */\n          0x4e487b7100000000000000000000000000000000000000000000000000000000\n            /* \"#utility.yul\":6758:6759   */\n          0x00\n            /* \"#utility.yul\":6751:6839   */\n          mstore\n            /* \"#utility.yul\":6858:6862   */\n          0x11\n            /* \"#utility.yul\":6855:6856   */\n          0x04\n            /* \"#utility.yul\":6848:6863   */\n          mstore\n            /* \"#utility.yul\":6882:6886   */\n          0x24\n            /* \"#utility.yul\":6879:6880   */\n          0x00\n            /* \"#utility.yul\":6872:6887   */\n          revert\n            /* \"#utility.yul\":6899:7124   */\n        tag_226:\n            /* \"#utility.yul\":7039:7073   */\n          0x4f776e61626c653a206e6577206f776e657220697320746865207a65726f2061\n            /* \"#utility.yul\":7035:7036   */\n          0x00\n            /* \"#utility.yul\":7027:7033   */\n          dup3\n            /* \"#utility.yul\":7023:7037   */\n          add\n            /* \"#utility.yul\":7016:7074   */\n          mstore\n            /* \"#utility.yul\":7108:7116   */\n          0x6464726573730000000000000000000000000000000000000000000000000000\n            /* \"#utility.yul\":7103:7105   */\n          0x20\n            /* \"#utility.yul\":7095:7101   */\n          dup3\n            /* \"#utility.yul\":7091:7106   */\n          add\n            /* \"#utility.yul\":7084:7117   */\n          mstore\n            /* \"#utility.yul\":7005:7124   */\n          pop\n          jump\t// out\n            /* \"#utility.yul\":7130:7312   */\n        tag_231:\n            /* \"#utility.yul\":7270:7304   */\n          0x4f776e61626c653a2063616c6c6572206973206e6f7420746865206f776e6572\n            /* \"#utility.yul\":7266:7267   */\n          0x00\n            /* \"#utility.yul\":7258:7264   */\n          dup3\n            /* \"#utility.yul\":7254:7268   */\n          add\n            /* \"#utility.yul\":7247:7305   */\n          mstore\n            /* \"#utility.yul\":7236:7312   */\n          pop\n          jump\t// out\n            /* \"#utility.yul\":7318:7440   */\n        tag_197:\n            /* \"#utility.yul\":7391:7415   */\n          tag_279\n            /* \"#utility.yul\":7409:7414   */\n          dup2\n            /* \"#utility.yul\":7391:7415   */\n          tag_220\n          jump\t// in\n        tag_279:\n            /* \"#utility.yul\":7384:7389   */\n          dup2\n            /* \"#utility.yul\":7381:7416   */\n          eq\n            /* \"#utility.yul\":7371:7373   */\n          tag_280\n          jumpi\n            /* \"#utility.yul\":7430:7431   */\n          0x00\n            /* \"#utility.yul\":7427:7428   */\n          dup1\n            /* \"#utility.yul\":7420:7432   */\n          revert\n            /* \"#utility.yul\":7371:7373   */\n        tag_280:\n            /* \"#utility.yul\":7361:7440   */\n          pop\n          jump\t// out\n            /* \"#utility.yul\":7446:7568   */\n        tag_201:\n            /* \"#utility.yul\":7519:7543   */\n          tag_282\n            /* \"#utility.yul\":7537:7542   */\n          dup2\n            /* \"#utility.yul\":7519:7543   */\n          tag_240\n          jump\t// in\n        tag_282:\n            /* \"#utility.yul\":7512:7517   */\n          dup2\n            /* \"#utility.yul\":7509:7544   */\n          eq\n            /* \"#utility.yul\":7499:7501   */\n          tag_283\n          jumpi\n            /* \"#utility.yul\":7558:7559   */\n          0x00\n            /* \"#utility.yul\":7555:7556   */\n          dup1\n            /* \"#utility.yul\":7548:7560   */\n          revert\n            /* \"#utility.yul\":7499:7501   */\n        tag_283:\n            /* \"#utility.yul\":7489:7568   */\n          pop\n          jump\t// out\n\n        auxdata: 0xa26469706673582212200cc1e498e48a35f0deda2d2458cc22aeecaabd8ad1aa0540f1a0a7be05fba95464736f6c63430008040033\n    }\n}\n\nsub_2: assembly {\n        /* \"contracts/FlowerCoinStorage.sol\":135:1639  contract FlowerCoinStorage is Ownable {... */\n      mstore(0x40, 0x80)\n        /* \"contracts/FlowerCoinStorage.sol\":179:288  constructor() {... */\n      callvalue\n      dup1\n      iszero\n      tag_1\n      jumpi\n      0x00\n      dup1\n      revert\n    tag_1:\n      pop\n        /* \"@openzeppelin/contracts/access/Ownable.sol\":936:968  _transferOwnership(_msgSender()) */\n      tag_5\n        /* \"@openzeppelin/contracts/access/Ownable.sol\":955:967  _msgSender() */\n      tag_6\n        /* \"@openzeppelin/contracts/access/Ownable.sol\":955:965  _msgSender */\n      shl(0x20, tag_7)\n        /* \"@openzeppelin/contracts/access/Ownable.sol\":955:967  _msgSender() */\n      0x20\n      shr\n      jump\t// in\n    tag_6:\n        /* \"@openzeppelin/contracts/access/Ownable.sol\":936:954  _transferOwnership */\n      shl(0x20, tag_8)\n        /* \"@openzeppelin/contracts/access/Ownable.sol\":936:968  _transferOwnership(_msgSender()) */\n      0x20\n      shr\n      jump\t// in\n    tag_5:\n        /* \"contracts/FlowerCoinStorage.sol\":252:281  transferOwnership(msg.sender) */\n      tag_10\n        /* \"contracts/FlowerCoinStorage.sol\":270:280  msg.sender */\n      caller\n        /* \"contracts/FlowerCoinStorage.sol\":252:269  transferOwnership */\n      shl(0x20, tag_11)\n        /* \"contracts/FlowerCoinStorage.sol\":252:281  transferOwnership(msg.sender) */\n      0x20\n      shr\n      jump\t// in\n    tag_10:\n        /* \"contracts/FlowerCoinStorage.sol\":135:1639  contract FlowerCoinStorage is Ownable {... */\n      jump(tag_12)\n        /* \"@openzeppelin/contracts/utils/Context.sol\":640:736  function _msgSender() internal view virtual returns (address) {... */\n    tag_7:\n        /* \"@openzeppelin/contracts/utils/Context.sol\":693:700  address */\n      0x00\n        /* \"@openzeppelin/contracts/utils/Context.sol\":719:729  msg.sender */\n      caller\n        /* \"@openzeppelin/contracts/utils/Context.sol\":712:729  return msg.sender */\n      swap1\n      pop\n        /* \"@openzeppelin/contracts/utils/Context.sol\":640:736  function _msgSender() internal view virtual returns (address) {... */\n      swap1\n      jump\t// out\n        /* \"@openzeppelin/contracts/access/Ownable.sol\":2433:2620  function _transferOwnership(address newOwner) internal virtual {... */\n    tag_8:\n        /* \"@openzeppelin/contracts/access/Ownable.sol\":2506:2522  address oldOwner */\n      0x00\n        /* \"@openzeppelin/contracts/access/Ownable.sol\":2525:2531  _owner */\n      dup1\n      0x00\n      swap1\n      sload\n      swap1\n      0x0100\n      exp\n      swap1\n      div\n      0xffffffffffffffffffffffffffffffffffffffff\n      and\n        /* \"@openzeppelin/contracts/access/Ownable.sol\":2506:2531  address oldOwner = _owner */\n      swap1\n      pop\n        /* \"@openzeppelin/contracts/access/Ownable.sol\":2550:2558  newOwner */\n      dup2\n        /* \"@openzeppelin/contracts/access/Ownable.sol\":2541:2547  _owner */\n      0x00\n      dup1\n        /* \"@openzeppelin/contracts/access/Ownable.sol\":2541:2558  _owner = newOwner */\n      0x0100\n      exp\n      dup2\n      sload\n      dup2\n      0xffffffffffffffffffffffffffffffffffffffff\n      mul\n      not\n      and\n      swap1\n      dup4\n      0xffffffffffffffffffffffffffffffffffffffff\n      and\n      mul\n      or\n      swap1\n      sstore\n      pop\n        /* \"@openzeppelin/contracts/access/Ownable.sol\":2604:2612  newOwner */\n      dup2\n        /* \"@openzeppelin/contracts/access/Ownable.sol\":2573:2613  OwnershipTransferred(oldOwner, newOwner) */\n      0xffffffffffffffffffffffffffffffffffffffff\n      and\n        /* \"@openzeppelin/contracts/access/Ownable.sol\":2594:2602  oldOwner */\n      dup2\n        /* \"@openzeppelin/contracts/access/Ownable.sol\":2573:2613  OwnershipTransferred(oldOwner, newOwner) */\n      0xffffffffffffffffffffffffffffffffffffffff\n      and\n      0x8be0079c531659141344cd1fd0a4f28419497f9722a3daafe3b4186f6b6457e0\n      mload(0x40)\n      mload(0x40)\n      dup1\n      swap2\n      sub\n      swap1\n      log3\n        /* \"@openzeppelin/contracts/access/Ownable.sol\":2433:2620  function _transferOwnership(address newOwner) internal virtual {... */\n      pop\n      pop\n      jump\t// out\n        /* \"@openzeppelin/contracts/access/Ownable.sol\":2081:2279  function transferOwnership(address newOwner) public virtual onlyOwner {... */\n    tag_11:\n        /* \"@openzeppelin/contracts/access/Ownable.sol\":1094:1107  _checkOwner() */\n      tag_16\n        /* \"@openzeppelin/contracts/access/Ownable.sol\":1094:1105  _checkOwner */\n      shl(0x20, tag_17)\n        /* \"@openzeppelin/contracts/access/Ownable.sol\":1094:1107  _checkOwner() */\n      0x20\n      shr\n      jump\t// in\n    tag_16:\n        /* \"@openzeppelin/contracts/access/Ownable.sol\":2189:2190  0 */\n      0x00\n        /* \"@openzeppelin/contracts/access/Ownable.sol\":2169:2191  newOwner != address(0) */\n      0xffffffffffffffffffffffffffffffffffffffff\n      and\n        /* \"@openzeppelin/contracts/access/Ownable.sol\":2169:2177  newOwner */\n      dup2\n        /* \"@openzeppelin/contracts/access/Ownable.sol\":2169:2191  newOwner != address(0) */\n      0xffffffffffffffffffffffffffffffffffffffff\n      and\n      eq\n      iszero\n        /* \"@openzeppelin/contracts/access/Ownable.sol\":2161:2234  require(newOwner != address(0), \"Ownable: new owner is the zero address\") */\n      tag_19\n      jumpi\n      mload(0x40)\n      0x08c379a000000000000000000000000000000000000000000000000000000000\n      dup2\n      mstore\n      0x04\n      add\n      tag_20\n      swap1\n      tag_21\n      jump\t// in\n    tag_20:\n      mload(0x40)\n      dup1\n      swap2\n      sub\n      swap1\n      revert\n    tag_19:\n        /* \"@openzeppelin/contracts/access/Ownable.sol\":2244:2272  _transferOwnership(newOwner) */\n      tag_22\n        /* \"@openzeppelin/contracts/access/Ownable.sol\":2263:2271  newOwner */\n      dup2\n        /* \"@openzeppelin/contracts/access/Ownable.sol\":2244:2262  _transferOwnership */\n      shl(0x20, tag_8)\n        /* \"@openzeppelin/contracts/access/Ownable.sol\":2244:2272  _transferOwnership(newOwner) */\n      0x20\n      shr\n      jump\t// in\n    tag_22:\n        /* \"@openzeppelin/contracts/access/Ownable.sol\":2081:2279  function transferOwnership(address newOwner) public virtual onlyOwner {... */\n      pop\n      jump\t// out\n        /* \"@openzeppelin/contracts/access/Ownable.sol\":1359:1489  function _checkOwner() internal view virtual {... */\n    tag_17:\n        /* \"@openzeppelin/contracts/access/Ownable.sol\":1433:1445  _msgSender() */\n      tag_24\n        /* \"@openzeppelin/contracts/access/Ownable.sol\":1433:1443  _msgSender */\n      shl(0x20, tag_7)\n        /* \"@openzeppelin/contracts/access/Ownable.sol\":1433:1445  _msgSender() */\n      0x20\n      shr\n      jump\t// in\n    tag_24:\n        /* \"@openzeppelin/contracts/access/Ownable.sol\":1422:1445  owner() == _msgSender() */\n      0xffffffffffffffffffffffffffffffffffffffff\n      and\n        /* \"@openzeppelin/contracts/access/Ownable.sol\":1422:1429  owner() */\n      tag_25\n        /* \"@openzeppelin/contracts/access/Ownable.sol\":1422:1427  owner */\n      shl(0x20, tag_26)\n        /* \"@openzeppelin/contracts/access/Ownable.sol\":1422:1429  owner() */\n      0x20\n      shr\n      jump\t// in\n    tag_25:\n        /* \"@openzeppelin/contracts/access/Ownable.sol\":1422:1445  owner() == _msgSender() */\n      0xffffffffffffffffffffffffffffffffffffffff\n      and\n      eq\n        /* \"@openzeppelin/contracts/access/Ownable.sol\":1414:1482  require(owner() == _msgSender(), \"Ownable: caller is not the owner\") */\n      tag_27\n      jumpi\n      mload(0x40)\n      0x08c379a000000000000000000000000000000000000000000000000000000000\n      dup2\n      mstore\n      0x04\n      add\n      tag_28\n      swap1\n      tag_29\n      jump\t// in\n    tag_28:\n      mload(0x40)\n      dup1\n      swap2\n      sub\n      swap1\n      revert\n    tag_27:\n        /* \"@openzeppelin/contracts/access/Ownable.sol\":1359:1489  function _checkOwner() internal view virtual {... */\n      jump\t// out\n        /* \"@openzeppelin/contracts/access/Ownable.sol\":1201:1286  function owner() public view virtual returns (address) {... */\n    tag_26:\n        /* \"@openzeppelin/contracts/access/Ownable.sol\":1247:1254  address */\n      0x00\n        /* \"@openzeppelin/contracts/access/Ownable.sol\":1273:1279  _owner */\n      dup1\n      0x00\n      swap1\n      sload\n      swap1\n      0x0100\n      exp\n      swap1\n      div\n      0xffffffffffffffffffffffffffffffffffffffff\n      and\n        /* \"@openzeppelin/contracts/access/Ownable.sol\":1266:1279  return _owner */\n      swap1\n      pop\n        /* \"@openzeppelin/contracts/access/Ownable.sol\":1201:1286  function owner() public view virtual returns (address) {... */\n      swap1\n      jump\t// out\n        /* \"#utility.yul\":7:373   */\n    tag_32:\n        /* \"#utility.yul\":149:152   */\n      0x00\n        /* \"#utility.yul\":170:237   */\n      tag_34\n        /* \"#utility.yul\":234:236   */\n      0x26\n        /* \"#utility.yul\":229:232   */\n      dup4\n        /* \"#utility.yul\":170:237   */\n      tag_35\n      jump\t// in\n    tag_34:\n        /* \"#utility.yul\":163:237   */\n      swap2\n      pop\n        /* \"#utility.yul\":246:339   */\n      tag_36\n        /* \"#utility.yul\":335:338   */\n      dup3\n        /* \"#utility.yul\":246:339   */\n      tag_37\n      jump\t// in\n    tag_36:\n        /* \"#utility.yul\":364:366   */\n      0x40\n        /* \"#utility.yul\":359:362   */\n      dup3\n        /* \"#utility.yul\":355:367   */\n      add\n        /* \"#utility.yul\":348:367   */\n      swap1\n      pop\n        /* \"#utility.yul\":153:373   */\n      swap2\n      swap1\n      pop\n      jump\t// out\n        /* \"#utility.yul\":379:745   */\n    tag_38:\n        /* \"#utility.yul\":521:524   */\n      0x00\n        /* \"#utility.yul\":542:609   */\n      tag_40\n        /* \"#utility.yul\":606:608   */\n      0x20\n        /* \"#utility.yul\":601:604   */\n      dup4\n        /* \"#utility.yul\":542:609   */\n      tag_35\n      jump\t// in\n    tag_40:\n        /* \"#utility.yul\":535:609   */\n      swap2\n      pop\n        /* \"#utility.yul\":618:711   */\n      tag_41\n        /* \"#utility.yul\":707:710   */\n      dup3\n        /* \"#utility.yul\":618:711   */\n      tag_42\n      jump\t// in\n    tag_41:\n        /* \"#utility.yul\":736:738   */\n      0x20\n        /* \"#utility.yul\":731:734   */\n      dup3\n        /* \"#utility.yul\":727:739   */\n      add\n        /* \"#utility.yul\":720:739   */\n      swap1\n      pop\n        /* \"#utility.yul\":525:745   */\n      swap2\n      swap1\n      pop\n      jump\t// out\n        /* \"#utility.yul\":751:1170   */\n    tag_21:\n        /* \"#utility.yul\":917:921   */\n      0x00\n        /* \"#utility.yul\":955:957   */\n      0x20\n        /* \"#utility.yul\":944:953   */\n      dup3\n        /* \"#utility.yul\":940:958   */\n      add\n        /* \"#utility.yul\":932:958   */\n      swap1\n      pop\n        /* \"#utility.yul\":1004:1013   */\n      dup2\n        /* \"#utility.yul\":998:1002   */\n      dup2\n        /* \"#utility.yul\":994:1014   */\n      sub\n        /* \"#utility.yul\":990:991   */\n      0x00\n        /* \"#utility.yul\":979:988   */\n      dup4\n        /* \"#utility.yul\":975:992   */\n      add\n        /* \"#utility.yul\":968:1015   */\n      mstore\n        /* \"#utility.yul\":1032:1163   */\n      tag_44\n        /* \"#utility.yul\":1158:1162   */\n      dup2\n        /* \"#utility.yul\":1032:1163   */\n      tag_32\n      jump\t// in\n    tag_44:\n        /* \"#utility.yul\":1024:1163   */\n      swap1\n      pop\n        /* \"#utility.yul\":922:1170   */\n      swap2\n      swap1\n      pop\n      jump\t// out\n        /* \"#utility.yul\":1176:1595   */\n    tag_29:\n        /* \"#utility.yul\":1342:1346   */\n      0x00\n        /* \"#utility.yul\":1380:1382   */\n      0x20\n        /* \"#utility.yul\":1369:1378   */\n      dup3\n        /* \"#utility.yul\":1365:1383   */\n      add\n        /* \"#utility.yul\":1357:1383   */\n      swap1\n      pop\n        /* \"#utility.yul\":1429:1438   */\n      dup2\n        /* \"#utility.yul\":1423:1427   */\n      dup2\n        /* \"#utility.yul\":1419:1439   */\n      sub\n        /* \"#utility.yul\":1415:1416   */\n      0x00\n        /* \"#utility.yul\":1404:1413   */\n      dup4\n        /* \"#utility.yul\":1400:1417   */\n      add\n        /* \"#utility.yul\":1393:1440   */\n      mstore\n        /* \"#utility.yul\":1457:1588   */\n      tag_46\n        /* \"#utility.yul\":1583:1587   */\n      dup2\n        /* \"#utility.yul\":1457:1588   */\n      tag_38\n      jump\t// in\n    tag_46:\n        /* \"#utility.yul\":1449:1588   */\n      swap1\n      pop\n        /* \"#utility.yul\":1347:1595   */\n      swap2\n      swap1\n      pop\n      jump\t// out\n        /* \"#utility.yul\":1601:1770   */\n    tag_35:\n        /* \"#utility.yul\":1685:1696   */\n      0x00\n        /* \"#utility.yul\":1719:1725   */\n      dup3\n        /* \"#utility.yul\":1714:1717   */\n      dup3\n        /* \"#utility.yul\":1707:1726   */\n      mstore\n        /* \"#utility.yul\":1759:1763   */\n      0x20\n        /* \"#utility.yul\":1754:1757   */\n      dup3\n        /* \"#utility.yul\":1750:1764   */\n      add\n        /* \"#utility.yul\":1735:1764   */\n      swap1\n      pop\n        /* \"#utility.yul\":1697:1770   */\n      swap3\n      swap2\n      pop\n      pop\n      jump\t// out\n        /* \"#utility.yul\":1776:2001   */\n    tag_37:\n        /* \"#utility.yul\":1916:1950   */\n      0x4f776e61626c653a206e6577206f776e657220697320746865207a65726f2061\n        /* \"#utility.yul\":1912:1913   */\n      0x00\n        /* \"#utility.yul\":1904:1910   */\n      dup3\n        /* \"#utility.yul\":1900:1914   */\n      add\n        /* \"#utility.yul\":1893:1951   */\n      mstore\n        /* \"#utility.yul\":1985:1993   */\n      0x6464726573730000000000000000000000000000000000000000000000000000\n        /* \"#utility.yul\":1980:1982   */\n      0x20\n        /* \"#utility.yul\":1972:1978   */\n      dup3\n        /* \"#utility.yul\":1968:1983   */\n      add\n        /* \"#utility.yul\":1961:1994   */\n      mstore\n        /* \"#utility.yul\":1882:2001   */\n      pop\n      jump\t// out\n        /* \"#utility.yul\":2007:2189   */\n    tag_42:\n        /* \"#utility.yul\":2147:2181   */\n      0x4f776e61626c653a2063616c6c6572206973206e6f7420746865206f776e6572\n        /* \"#utility.yul\":2143:2144   */\n      0x00\n        /* \"#utility.yul\":2135:2141   */\n      dup3\n        /* \"#utility.yul\":2131:2145   */\n      add\n        /* \"#utility.yul\":2124:2182   */\n      mstore\n        /* \"#utility.yul\":2113:2189   */\n      pop\n      jump\t// out\n        /* \"contracts/FlowerCoinStorage.sol\":135:1639  contract FlowerCoinStorage is Ownable {... */\n    tag_12:\n      dataSize(sub_0)\n      dup1\n      dataOffset(sub_0)\n      0x00\n      codecopy\n      0x00\n      return\n    stop\n\n    sub_0: assembly {\n            /* \"contracts/FlowerCoinStorage.sol\":135:1639  contract FlowerCoinStorage is Ownable {... */\n          mstore(0x40, 0x80)\n          callvalue\n          dup1\n          iszero\n          tag_1\n          jumpi\n          0x00\n          dup1\n          revert\n        tag_1:\n          pop\n          jumpi(tag_2, lt(calldatasize, 0x04))\n          shr(0xe0, calldataload(0x00))\n          dup1\n          0x9dc29fac\n          gt\n          tag_12\n          jumpi\n          dup1\n          0x9dc29fac\n          eq\n          tag_7\n          jumpi\n          dup1\n          0xaee9c872\n          eq\n          tag_8\n          jumpi\n          dup1\n          0xbeabacc8\n          eq\n          tag_9\n          jumpi\n          dup1\n          0xd89135cd\n          eq\n          tag_10\n          jumpi\n          dup1\n          0xf2fde38b\n          eq\n          tag_11\n          jumpi\n          jump(tag_2)\n        tag_12:\n          dup1\n          0x18160ddd\n          eq\n          tag_3\n          jumpi\n          dup1\n          0x40c10f19\n          eq\n          tag_4\n          jumpi\n          dup1\n          0x715018a6\n          eq\n          tag_5\n          jumpi\n          dup1\n          0x8da5cb5b\n          eq\n          tag_6\n          jumpi\n        tag_2:\n          0x00\n          dup1\n          revert\n            /* \"contracts/FlowerCoinStorage.sol\":450:476  uint256 public totalSupply */\n        tag_3:\n          tag_13\n          tag_14\n          jump\t// in\n        tag_13:\n          mload(0x40)\n          tag_15\n          swap2\n          swap1\n          tag_16\n          jump\t// in\n        tag_15:\n          mload(0x40)\n          dup1\n          swap2\n          sub\n          swap1\n          return\n            /* \"contracts/FlowerCoinStorage.sol\":591:813  function mint(address addr, uint256 amount) public onlyOwner {... */\n        tag_4:\n          tag_17\n          0x04\n          dup1\n          calldatasize\n          sub\n          dup2\n          add\n          swap1\n          tag_18\n          swap2\n          swap1\n          tag_19\n          jump\t// in\n        tag_18:\n          tag_20\n          jump\t// in\n        tag_17:\n          stop\n            /* \"@openzeppelin/contracts/access/Ownable.sol\":1831:1932  function renounceOwnership() public virtual onlyOwner {... */\n        tag_5:\n          tag_21\n          tag_22\n          jump\t// in\n        tag_21:\n          stop\n            /* \"@openzeppelin/contracts/access/Ownable.sol\":1201:1286  function owner() public view virtual returns (address) {... */\n        tag_6:\n          tag_23\n          tag_24\n          jump\t// in\n        tag_23:\n          mload(0x40)\n          tag_25\n          swap2\n          swap1\n          tag_26\n          jump\t// in\n        tag_25:\n          mload(0x40)\n          dup1\n          swap2\n          sub\n          swap1\n          return\n            /* \"contracts/FlowerCoinStorage.sol\":1243:1636  function burn(address addr, uint256 amount) public onlyOwner {... */\n        tag_7:\n          tag_27\n          0x04\n          dup1\n          calldatasize\n          sub\n          dup2\n          add\n          swap1\n          tag_28\n          swap2\n          swap1\n          tag_19\n          jump\t// in\n        tag_28:\n          tag_29\n          jump\t// in\n        tag_27:\n          stop\n            /* \"contracts/FlowerCoinStorage.sol\":350:401  mapping ( address => uint256 ) public totalBalances */\n        tag_8:\n          tag_30\n          0x04\n          dup1\n          calldatasize\n          sub\n          dup2\n          add\n          swap1\n          tag_31\n          swap2\n          swap1\n          tag_32\n          jump\t// in\n        tag_31:\n          tag_33\n          jump\t// in\n        tag_30:\n          mload(0x40)\n          tag_34\n          swap2\n          swap1\n          tag_16\n          jump\t// in\n        tag_34:\n          mload(0x40)\n          dup1\n          swap2\n          sub\n          swap1\n          return\n            /* \"contracts/FlowerCoinStorage.sol\":862:1212  function transfer(address from, address to, uint256 amount) public onlyOwner {... */\n        tag_9:\n          tag_35\n          0x04\n          dup1\n          calldatasize\n          sub\n          dup2\n          add\n          swap1\n          tag_36\n          swap2\n          swap1\n          tag_37\n          jump\t// in\n        tag_36:\n          tag_38\n          jump\t// in\n        tag_35:\n          stop\n            /* \"contracts/FlowerCoinStorage.sol\":522:548  uint256 public totalBurned */\n        tag_10:\n          tag_39\n          tag_40\n          jump\t// in\n        tag_39:\n          mload(0x40)\n          tag_41\n          swap2\n          swap1\n          tag_16\n          jump\t// in\n        tag_41:\n          mload(0x40)\n          dup1\n          swap2\n          sub\n          swap1\n          return\n            /* \"@openzeppelin/contracts/access/Ownable.sol\":2081:2279  function transferOwnership(address newOwner) public virtual onlyOwner {... */\n        tag_11:\n          tag_42\n          0x04\n          dup1\n          calldatasize\n          sub\n          dup2\n          add\n          swap1\n          tag_43\n          swap2\n          swap1\n          tag_32\n          jump\t// in\n        tag_43:\n          tag_44\n          jump\t// in\n        tag_42:\n          stop\n            /* \"contracts/FlowerCoinStorage.sol\":450:476  uint256 public totalSupply */\n        tag_14:\n          sload(0x02)\n          dup2\n          jump\t// out\n            /* \"contracts/FlowerCoinStorage.sol\":591:813  function mint(address addr, uint256 amount) public onlyOwner {... */\n        tag_20:\n            /* \"@openzeppelin/contracts/access/Ownable.sol\":1094:1107  _checkOwner() */\n          tag_46\n            /* \"@openzeppelin/contracts/access/Ownable.sol\":1094:1105  _checkOwner */\n          tag_47\n            /* \"@openzeppelin/contracts/access/Ownable.sol\":1094:1107  _checkOwner() */\n          jump\t// in\n        tag_46:\n            /* \"contracts/FlowerCoinStorage.sol\":728:734  amount */\n          dup1\n            /* \"contracts/FlowerCoinStorage.sol\":705:718  totalBalances */\n          0x01\n            /* \"contracts/FlowerCoinStorage.sol\":705:724  totalBalances[addr] */\n          0x00\n            /* \"contracts/FlowerCoinStorage.sol\":719:723  addr */\n          dup5\n            /* \"contracts/FlowerCoinStorage.sol\":705:724  totalBalances[addr] */\n          0xffffffffffffffffffffffffffffffffffffffff\n          and\n          0xffffffffffffffffffffffffffffffffffffffff\n          and\n          dup2\n          mstore\n          0x20\n          add\n          swap1\n          dup2\n          mstore\n          0x20\n          add\n          0x00\n          keccak256\n          0x00\n            /* \"contracts/FlowerCoinStorage.sol\":705:734  totalBalances[addr] += amount */\n          dup3\n          dup3\n          sload\n          tag_49\n          swap2\n          swap1\n          tag_50\n          jump\t// in\n        tag_49:\n          swap3\n          pop\n          pop\n          dup2\n          swap1\n          sstore\n          pop\n            /* \"contracts/FlowerCoinStorage.sol\":800:806  amount */\n          dup1\n            /* \"contracts/FlowerCoinStorage.sol\":785:796  totalSupply */\n          0x02\n          0x00\n            /* \"contracts/FlowerCoinStorage.sol\":785:806  totalSupply += amount */\n          dup3\n          dup3\n          sload\n          tag_51\n          swap2\n          swap1\n          tag_50\n          jump\t// in\n        tag_51:\n          swap3\n          pop\n          pop\n          dup2\n          swap1\n          sstore\n          pop\n            /* \"contracts/FlowerCoinStorage.sol\":591:813  function mint(address addr, uint256 amount) public onlyOwner {... */\n          pop\n          pop\n          jump\t// out\n            /* \"@openzeppelin/contracts/access/Ownable.sol\":1831:1932  function renounceOwnership() public virtual onlyOwner {... */\n        tag_22:\n            /* \"@openzeppelin/contracts/access/Ownable.sol\":1094:1107  _checkOwner() */\n          tag_53\n            /* \"@openzeppelin/contracts/access/Ownable.sol\":1094:1105  _checkOwner */\n          tag_47\n            /* \"@openzeppelin/contracts/access/Ownable.sol\":1094:1107  _checkOwner() */\n          jump\t// in\n        tag_53:\n            /* \"@openzeppelin/contracts/access/Ownable.sol\":1895:1925  _transferOwnership(address(0)) */\n          tag_55\n            /* \"@openzeppelin/contracts/access/Ownable.sol\":1922:1923  0 */\n          0x00\n            /* \"@openzeppelin/contracts/access/Ownable.sol\":1895:1913  _transferOwnership */\n          tag_56\n            /* \"@openzeppelin/contracts/access/Ownable.sol\":1895:1925  _transferOwnership(address(0)) */\n          jump\t// in\n        tag_55:\n            /* \"@openzeppelin/contracts/access/Ownable.sol\":1831:1932  function renounceOwnership() public virtual onlyOwner {... */\n          jump\t// out\n            /* \"@openzeppelin/contracts/access/Ownable.sol\":1201:1286  function owner() public view virtual returns (address) {... */\n        tag_24:\n            /* \"@openzeppelin/contracts/access/Ownable.sol\":1247:1254  address */\n          0x00\n            /* \"@openzeppelin/contracts/access/Ownable.sol\":1273:1279  _owner */\n          dup1\n          0x00\n          swap1\n          sload\n          swap1\n          0x0100\n          exp\n          swap1\n          div\n          0xffffffffffffffffffffffffffffffffffffffff\n          and\n            /* \"@openzeppelin/contracts/access/Ownable.sol\":1266:1279  return _owner */\n          swap1\n          pop\n            /* \"@openzeppelin/contracts/access/Ownable.sol\":1201:1286  function owner() public view virtual returns (address) {... */\n          swap1\n          jump\t// out\n            /* \"contracts/FlowerCoinStorage.sol\":1243:1636  function burn(address addr, uint256 amount) public onlyOwner {... */\n        tag_29:\n            /* \"@openzeppelin/contracts/access/Ownable.sol\":1094:1107  _checkOwner() */\n          tag_59\n            /* \"@openzeppelin/contracts/access/Ownable.sol\":1094:1105  _checkOwner */\n          tag_47\n            /* \"@openzeppelin/contracts/access/Ownable.sol\":1094:1107  _checkOwner() */\n          jump\t// in\n        tag_59:\n            /* \"contracts/FlowerCoinStorage.sol\":1345:1351  amount */\n          dup1\n            /* \"contracts/FlowerCoinStorage.sol\":1322:1335  totalBalances */\n          0x01\n            /* \"contracts/FlowerCoinStorage.sol\":1322:1341  totalBalances[addr] */\n          0x00\n            /* \"contracts/FlowerCoinStorage.sol\":1336:1340  addr */\n          dup5\n            /* \"contracts/FlowerCoinStorage.sol\":1322:1341  totalBalances[addr] */\n          0xffffffffffffffffffffffffffffffffffffffff\n          and\n          0xffffffffffffffffffffffffffffffffffffffff\n          and\n          dup2\n          mstore\n          0x20\n          add\n          swap1\n          dup2\n          mstore\n          0x20\n          add\n          0x00\n          keccak256\n          sload\n            /* \"contracts/FlowerCoinStorage.sol\":1322:1351  totalBalances[addr] >= amount */\n          lt\n          iszero\n            /* \"contracts/FlowerCoinStorage.sol\":1314:1404  require(totalBalances[addr] >= amount, \"Address does not have enough FlowerCoins to burn\") */\n          tag_61\n          jumpi\n          mload(0x40)\n          0x08c379a000000000000000000000000000000000000000000000000000000000\n          dup2\n          mstore\n          0x04\n          add\n          tag_62\n          swap1\n          tag_63\n          jump\t// in\n        tag_62:\n          mload(0x40)\n          dup1\n          swap2\n          sub\n          swap1\n          revert\n        tag_61:\n            /* \"contracts/FlowerCoinStorage.sol\":1478:1484  amount */\n          dup1\n            /* \"contracts/FlowerCoinStorage.sol\":1455:1468  totalBalances */\n          0x01\n            /* \"contracts/FlowerCoinStorage.sol\":1455:1474  totalBalances[addr] */\n          0x00\n            /* \"contracts/FlowerCoinStorage.sol\":1469:1473  addr */\n          dup5\n            /* \"contracts/FlowerCoinStorage.sol\":1455:1474  totalBalances[addr] */\n          0xffffffffffffffffffffffffffffffffffffffff\n          and\n          0xffffffffffffffffffffffffffffffffffffffff\n          and\n          dup2\n          mstore\n          0x20\n          add\n          swap1\n          dup2\n          mstore\n          0x20\n          add\n          0x00\n          keccak256\n          0x00\n            /* \"contracts/FlowerCoinStorage.sol\":1455:1484  totalBalances[addr] -= amount */\n          dup3\n          dup3\n          sload\n          tag_64\n          swap2\n          swap1\n          tag_65\n          jump\t// in\n        tag_64:\n          swap3\n          pop\n          pop\n          dup2\n          swap1\n          sstore\n          pop\n            /* \"contracts/FlowerCoinStorage.sol\":1554:1560  amount */\n          dup1\n            /* \"contracts/FlowerCoinStorage.sol\":1539:1550  totalSupply */\n          0x02\n          0x00\n            /* \"contracts/FlowerCoinStorage.sol\":1539:1560  totalSupply -= amount */\n          dup3\n          dup3\n          sload\n          tag_66\n          swap2\n          swap1\n          tag_65\n          jump\t// in\n        tag_66:\n          swap3\n          pop\n          pop\n          dup2\n          swap1\n          sstore\n          pop\n            /* \"contracts/FlowerCoinStorage.sol\":1623:1629  amount */\n          dup1\n            /* \"contracts/FlowerCoinStorage.sol\":1608:1619  totalBurned */\n          0x03\n          0x00\n            /* \"contracts/FlowerCoinStorage.sol\":1608:1629  totalBurned += amount */\n          dup3\n          dup3\n          sload\n          tag_67\n          swap2\n          swap1\n          tag_50\n          jump\t// in\n        tag_67:\n          swap3\n          pop\n          pop\n          dup2\n          swap1\n          sstore\n          pop\n            /* \"contracts/FlowerCoinStorage.sol\":1243:1636  function burn(address addr, uint256 amount) public onlyOwner {... */\n          pop\n          pop\n          jump\t// out\n            /* \"contracts/FlowerCoinStorage.sol\":350:401  mapping ( address => uint256 ) public totalBalances */\n        tag_33:\n          mstore(0x20, 0x01)\n          dup1\n          0x00\n          mstore\n          keccak256(0x00, 0x40)\n          0x00\n          swap2\n          pop\n          swap1\n          pop\n          sload\n          dup2\n          jump\t// out\n            /* \"contracts/FlowerCoinStorage.sol\":862:1212  function transfer(address from, address to, uint256 amount) public onlyOwner {... */\n        tag_38:\n            /* \"@openzeppelin/contracts/access/Ownable.sol\":1094:1107  _checkOwner() */\n          tag_69\n            /* \"@openzeppelin/contracts/access/Ownable.sol\":1094:1105  _checkOwner */\n          tag_47\n            /* \"@openzeppelin/contracts/access/Ownable.sol\":1094:1107  _checkOwner() */\n          jump\t// in\n        tag_69:\n            /* \"contracts/FlowerCoinStorage.sol\":980:986  amount */\n          dup1\n            /* \"contracts/FlowerCoinStorage.sol\":957:970  totalBalances */\n          0x01\n            /* \"contracts/FlowerCoinStorage.sol\":957:976  totalBalances[from] */\n          0x00\n            /* \"contracts/FlowerCoinStorage.sol\":971:975  from */\n          dup6\n            /* \"contracts/FlowerCoinStorage.sol\":957:976  totalBalances[from] */\n          0xffffffffffffffffffffffffffffffffffffffff\n          and\n          0xffffffffffffffffffffffffffffffffffffffff\n          and\n          dup2\n          mstore\n          0x20\n          add\n          swap1\n          dup2\n          mstore\n          0x20\n          add\n          0x00\n          keccak256\n          sload\n            /* \"contracts/FlowerCoinStorage.sol\":957:986  totalBalances[from] >= amount */\n          lt\n          iszero\n            /* \"contracts/FlowerCoinStorage.sol\":949:1048  require(totalBalances[from] >= amount, \"From address does not have enough FlowerCoins to transfer\") */\n          tag_71\n          jumpi\n          mload(0x40)\n          0x08c379a000000000000000000000000000000000000000000000000000000000\n          dup2\n          mstore\n          0x04\n          add\n          tag_72\n          swap1\n          tag_73\n          jump\t// in\n        tag_72:\n          mload(0x40)\n          dup1\n          swap2\n          sub\n          swap1\n          revert\n        tag_71:\n            /* \"contracts/FlowerCoinStorage.sol\":1126:1132  amount */\n          dup1\n            /* \"contracts/FlowerCoinStorage.sol\":1103:1116  totalBalances */\n          0x01\n            /* \"contracts/FlowerCoinStorage.sol\":1103:1122  totalBalances[from] */\n          0x00\n            /* \"contracts/FlowerCoinStorage.sol\":1117:1121  from */\n          dup6\n            /* \"contracts/FlowerCoinStorage.sol\":1103:1122  totalBalances[from] */\n          0xffffffffffffffffffffffffffffffffffffffff\n          and\n          0xffffffffffffffffffffffffffffffffffffffff\n          and\n          dup2\n          mstore\n          0x20\n          add\n          swap1\n          dup2\n          mstore\n          0x20\n          add\n          0x00\n          keccak256\n          0x00\n            /* \"contracts/FlowerCoinStorage.sol\":1103:1132  totalBalances[from] -= amount */\n          dup3\n          dup3\n          sload\n          tag_74\n          swap2\n          swap1\n          tag_65\n          jump\t// in\n        tag_74:\n          swap3\n          pop\n          pop\n          dup2\n          swap1\n          sstore\n          pop\n            /* \"contracts/FlowerCoinStorage.sol\":1199:1205  amount */\n          dup1\n            /* \"contracts/FlowerCoinStorage.sol\":1178:1191  totalBalances */\n          0x01\n            /* \"contracts/FlowerCoinStorage.sol\":1178:1195  totalBalances[to] */\n          0x00\n            /* \"contracts/FlowerCoinStorage.sol\":1192:1194  to */\n          dup5\n            /* \"contracts/FlowerCoinStorage.sol\":1178:1195  totalBalances[to] */\n          0xffffffffffffffffffffffffffffffffffffffff\n          and\n          0xffffffffffffffffffffffffffffffffffffffff\n          and\n          dup2\n          mstore\n          0x20\n          add\n          swap1\n          dup2\n          mstore\n          0x20\n          add\n          0x00\n          keccak256\n          0x00\n            /* \"contracts/FlowerCoinStorage.sol\":1178:1205  totalBalances[to] += amount */\n          dup3\n          dup3\n          sload\n          tag_75\n          swap2\n          swap1\n          tag_50\n          jump\t// in\n        tag_75:\n          swap3\n          pop\n          pop\n          dup2\n          swap1\n          sstore\n          pop\n            /* \"contracts/FlowerCoinStorage.sol\":862:1212  function transfer(address from, address to, uint256 amount) public onlyOwner {... */\n          pop\n          pop\n          pop\n          jump\t// out\n            /* \"contracts/FlowerCoinStorage.sol\":522:548  uint256 public totalBurned */\n        tag_40:\n          sload(0x03)\n          dup2\n          jump\t// out\n            /* \"@openzeppelin/contracts/access/Ownable.sol\":2081:2279  function transferOwnership(address newOwner) public virtual onlyOwner {... */\n        tag_44:\n            /* \"@openzeppelin/contracts/access/Ownable.sol\":1094:1107  _checkOwner() */\n          tag_77\n            /* \"@openzeppelin/contracts/access/Ownable.sol\":1094:1105  _checkOwner */\n          tag_47\n            /* \"@openzeppelin/contracts/access/Ownable.sol\":1094:1107  _checkOwner() */\n          jump\t// in\n        tag_77:\n            /* \"@openzeppelin/contracts/access/Ownable.sol\":2189:2190  0 */\n          0x00\n            /* \"@openzeppelin/contracts/access/Ownable.sol\":2169:2191  newOwner != address(0) */\n          0xffffffffffffffffffffffffffffffffffffffff\n          and\n            /* \"@openzeppelin/contracts/access/Ownable.sol\":2169:2177  newOwner */\n          dup2\n            /* \"@openzeppelin/contracts/access/Ownable.sol\":2169:2191  newOwner != address(0) */\n          0xffffffffffffffffffffffffffffffffffffffff\n          and\n          eq\n          iszero\n            /* \"@openzeppelin/contracts/access/Ownable.sol\":2161:2234  require(newOwner != address(0), \"Ownable: new owner is the zero address\") */\n          tag_79\n          jumpi\n          mload(0x40)\n          0x08c379a000000000000000000000000000000000000000000000000000000000\n          dup2\n          mstore\n          0x04\n          add\n          tag_80\n          swap1\n          tag_81\n          jump\t// in\n        tag_80:\n          mload(0x40)\n          dup1\n          swap2\n          sub\n          swap1\n          revert\n        tag_79:\n            /* \"@openzeppelin/contracts/access/Ownable.sol\":2244:2272  _transferOwnership(newOwner) */\n          tag_82\n            /* \"@openzeppelin/contracts/access/Ownable.sol\":2263:2271  newOwner */\n          dup2\n            /* \"@openzeppelin/contracts/access/Ownable.sol\":2244:2262  _transferOwnership */\n          tag_56\n            /* \"@openzeppelin/contracts/access/Ownable.sol\":2244:2272  _transferOwnership(newOwner) */\n          jump\t// in\n        tag_82:\n            /* \"@openzeppelin/contracts/access/Ownable.sol\":2081:2279  function transferOwnership(address newOwner) public virtual onlyOwner {... */\n          pop\n          jump\t// out\n            /* \"@openzeppelin/contracts/access/Ownable.sol\":1359:1489  function _checkOwner() internal view virtual {... */\n        tag_47:\n            /* \"@openzeppelin/contracts/access/Ownable.sol\":1433:1445  _msgSender() */\n          tag_84\n            /* \"@openzeppelin/contracts/access/Ownable.sol\":1433:1443  _msgSender */\n          tag_85\n            /* \"@openzeppelin/contracts/access/Ownable.sol\":1433:1445  _msgSender() */\n          jump\t// in\n        tag_84:\n            /* \"@openzeppelin/contracts/access/Ownable.sol\":1422:1445  owner() == _msgSender() */\n          0xffffffffffffffffffffffffffffffffffffffff\n          and\n            /* \"@openzeppelin/contracts/access/Ownable.sol\":1422:1429  owner() */\n          tag_86\n            /* \"@openzeppelin/contracts/access/Ownable.sol\":1422:1427  owner */\n          tag_24\n            /* \"@openzeppelin/contracts/access/Ownable.sol\":1422:1429  owner() */\n          jump\t// in\n        tag_86:\n            /* \"@openzeppelin/contracts/access/Ownable.sol\":1422:1445  owner() == _msgSender() */\n          0xffffffffffffffffffffffffffffffffffffffff\n          and\n          eq\n            /* \"@openzeppelin/contracts/access/Ownable.sol\":1414:1482  require(owner() == _msgSender(), \"Ownable: caller is not the owner\") */\n          tag_87\n          jumpi\n          mload(0x40)\n          0x08c379a000000000000000000000000000000000000000000000000000000000\n          dup2\n          mstore\n          0x04\n          add\n          tag_88\n          swap1\n          tag_89\n          jump\t// in\n        tag_88:\n          mload(0x40)\n          dup1\n          swap2\n          sub\n          swap1\n          revert\n        tag_87:\n            /* \"@openzeppelin/contracts/access/Ownable.sol\":1359:1489  function _checkOwner() internal view virtual {... */\n          jump\t// out\n            /* \"@openzeppelin/contracts/access/Ownable.sol\":2433:2620  function _transferOwnership(address newOwner) internal virtual {... */\n        tag_56:\n            /* \"@openzeppelin/contracts/access/Ownable.sol\":2506:2522  address oldOwner */\n          0x00\n            /* \"@openzeppelin/contracts/access/Ownable.sol\":2525:2531  _owner */\n          dup1\n          0x00\n          swap1\n          sload\n          swap1\n          0x0100\n          exp\n          swap1\n          div\n          0xffffffffffffffffffffffffffffffffffffffff\n          and\n            /* \"@openzeppelin/contracts/access/Ownable.sol\":2506:2531  address oldOwner = _owner */\n          swap1\n          pop\n            /* \"@openzeppelin/contracts/access/Ownable.sol\":2550:2558  newOwner */\n          dup2\n            /* \"@openzeppelin/contracts/access/Ownable.sol\":2541:2547  _owner */\n          0x00\n          dup1\n            /* \"@openzeppelin/contracts/access/Ownable.sol\":2541:2558  _owner = newOwner */\n          0x0100\n          exp\n          dup2\n          sload\n          dup2\n          0xffffffffffffffffffffffffffffffffffffffff\n          mul\n          not\n          and\n          swap1\n          dup4\n          0xffffffffffffffffffffffffffffffffffffffff\n          and\n          mul\n          or\n          swap1\n          sstore\n          pop\n            /* \"@openzeppelin/contracts/access/Ownable.sol\":2604:2612  newOwner */\n          dup2\n            /* \"@openzeppelin/contracts/access/Ownable.sol\":2573:2613  OwnershipTransferred(oldOwner, newOwner) */\n          0xffffffffffffffffffffffffffffffffffffffff\n          and\n            /* \"@openzeppelin/contracts/access/Ownable.sol\":2594:2602  oldOwner */\n          dup2\n            /* \"@openzeppelin/contracts/access/Ownable.sol\":2573:2613  OwnershipTransferred(oldOwner, newOwner) */\n          0xffffffffffffffffffffffffffffffffffffffff\n          and\n          0x8be0079c531659141344cd1fd0a4f28419497f9722a3daafe3b4186f6b6457e0\n          mload(0x40)\n          mload(0x40)\n          dup1\n          swap2\n          sub\n          swap1\n          log3\n            /* \"@openzeppelin/contracts/access/Ownable.sol\":2433:2620  function _transferOwnership(address newOwner) internal virtual {... */\n          pop\n          pop\n          jump\t// out\n            /* \"@openzeppelin/contracts/utils/Context.sol\":640:736  function _msgSender() internal view virtual returns (address) {... */\n        tag_85:\n            /* \"@openzeppelin/contracts/utils/Context.sol\":693:700  address */\n          0x00\n            /* \"@openzeppelin/contracts/utils/Context.sol\":719:729  msg.sender */\n          caller\n            /* \"@openzeppelin/contracts/utils/Context.sol\":712:729  return msg.sender */\n          swap1\n          pop\n            /* \"@openzeppelin/contracts/utils/Context.sol\":640:736  function _msgSender() internal view virtual returns (address) {... */\n          swap1\n          jump\t// out\n            /* \"#utility.yul\":7:146   */\n        tag_93:\n            /* \"#utility.yul\":53:58   */\n          0x00\n            /* \"#utility.yul\":91:97   */\n          dup2\n            /* \"#utility.yul\":78:98   */\n          calldataload\n            /* \"#utility.yul\":69:98   */\n          swap1\n          pop\n            /* \"#utility.yul\":107:140   */\n          tag_95\n            /* \"#utility.yul\":134:139   */\n          dup2\n            /* \"#utility.yul\":107:140   */\n          tag_96\n          jump\t// in\n        tag_95:\n            /* \"#utility.yul\":59:146   */\n          swap3\n          swap2\n          pop\n          pop\n          jump\t// out\n            /* \"#utility.yul\":152:291   */\n        tag_97:\n            /* \"#utility.yul\":198:203   */\n          0x00\n            /* \"#utility.yul\":236:242   */\n          dup2\n            /* \"#utility.yul\":223:243   */\n          calldataload\n            /* \"#utility.yul\":214:243   */\n          swap1\n          pop\n            /* \"#utility.yul\":252:285   */\n          tag_99\n            /* \"#utility.yul\":279:284   */\n          dup2\n            /* \"#utility.yul\":252:285   */\n          tag_100\n          jump\t// in\n        tag_99:\n            /* \"#utility.yul\":204:291   */\n          swap3\n          swap2\n          pop\n          pop\n          jump\t// out\n            /* \"#utility.yul\":297:559   */\n        tag_32:\n            /* \"#utility.yul\":356:362   */\n          0x00\n            /* \"#utility.yul\":405:407   */\n          0x20\n            /* \"#utility.yul\":393:402   */\n          dup3\n            /* \"#utility.yul\":384:391   */\n          dup5\n            /* \"#utility.yul\":380:403   */\n          sub\n            /* \"#utility.yul\":376:408   */\n          slt\n            /* \"#utility.yul\":373:375   */\n          iszero\n          tag_102\n          jumpi\n            /* \"#utility.yul\":421:422   */\n          0x00\n            /* \"#utility.yul\":418:419   */\n          dup1\n            /* \"#utility.yul\":411:423   */\n          revert\n            /* \"#utility.yul\":373:375   */\n        tag_102:\n            /* \"#utility.yul\":464:465   */\n          0x00\n            /* \"#utility.yul\":489:542   */\n          tag_103\n            /* \"#utility.yul\":534:541   */\n          dup5\n            /* \"#utility.yul\":525:531   */\n          dup3\n            /* \"#utility.yul\":514:523   */\n          dup6\n            /* \"#utility.yul\":510:532   */\n          add\n            /* \"#utility.yul\":489:542   */\n          tag_93\n          jump\t// in\n        tag_103:\n            /* \"#utility.yul\":479:542   */\n          swap2\n          pop\n            /* \"#utility.yul\":435:552   */\n          pop\n            /* \"#utility.yul\":363:559   */\n          swap3\n          swap2\n          pop\n          pop\n          jump\t// out\n            /* \"#utility.yul\":565:1117   */\n        tag_37:\n            /* \"#utility.yul\":642:648   */\n          0x00\n            /* \"#utility.yul\":650:656   */\n          dup1\n            /* \"#utility.yul\":658:664   */\n          0x00\n            /* \"#utility.yul\":707:709   */\n          0x60\n            /* \"#utility.yul\":695:704   */\n          dup5\n            /* \"#utility.yul\":686:693   */\n          dup7\n            /* \"#utility.yul\":682:705   */\n          sub\n            /* \"#utility.yul\":678:710   */\n          slt\n            /* \"#utility.yul\":675:677   */\n          iszero\n          tag_105\n          jumpi\n            /* \"#utility.yul\":723:724   */\n          0x00\n            /* \"#utility.yul\":720:721   */\n          dup1\n            /* \"#utility.yul\":713:725   */\n          revert\n            /* \"#utility.yul\":675:677   */\n        tag_105:\n            /* \"#utility.yul\":766:767   */\n          0x00\n            /* \"#utility.yul\":791:844   */\n          tag_106\n            /* \"#utility.yul\":836:843   */\n          dup7\n            /* \"#utility.yul\":827:833   */\n          dup3\n            /* \"#utility.yul\":816:825   */\n          dup8\n            /* \"#utility.yul\":812:834   */\n          add\n            /* \"#utility.yul\":791:844   */\n          tag_93\n          jump\t// in\n        tag_106:\n            /* \"#utility.yul\":781:844   */\n          swap4\n          pop\n            /* \"#utility.yul\":737:854   */\n          pop\n            /* \"#utility.yul\":893:895   */\n          0x20\n            /* \"#utility.yul\":919:972   */\n          tag_107\n            /* \"#utility.yul\":964:971   */\n          dup7\n            /* \"#utility.yul\":955:961   */\n          dup3\n            /* \"#utility.yul\":944:953   */\n          dup8\n            /* \"#utility.yul\":940:962   */\n          add\n            /* \"#utility.yul\":919:972   */\n          tag_93\n          jump\t// in\n        tag_107:\n            /* \"#utility.yul\":909:972   */\n          swap3\n          pop\n            /* \"#utility.yul\":864:982   */\n          pop\n            /* \"#utility.yul\":1021:1023   */\n          0x40\n            /* \"#utility.yul\":1047:1100   */\n          tag_108\n            /* \"#utility.yul\":1092:1099   */\n          dup7\n            /* \"#utility.yul\":1083:1089   */\n          dup3\n            /* \"#utility.yul\":1072:1081   */\n          dup8\n            /* \"#utility.yul\":1068:1090   */\n          add\n            /* \"#utility.yul\":1047:1100   */\n          tag_97\n          jump\t// in\n        tag_108:\n            /* \"#utility.yul\":1037:1100   */\n          swap2\n          pop\n            /* \"#utility.yul\":992:1110   */\n          pop\n            /* \"#utility.yul\":665:1117   */\n          swap3\n          pop\n          swap3\n          pop\n          swap3\n          jump\t// out\n            /* \"#utility.yul\":1123:1530   */\n        tag_19:\n            /* \"#utility.yul\":1191:1197   */\n          0x00\n            /* \"#utility.yul\":1199:1205   */\n          dup1\n            /* \"#utility.yul\":1248:1250   */\n          0x40\n            /* \"#utility.yul\":1236:1245   */\n          dup4\n            /* \"#utility.yul\":1227:1234   */\n          dup6\n            /* \"#utility.yul\":1223:1246   */\n          sub\n            /* \"#utility.yul\":1219:1251   */\n          slt\n            /* \"#utility.yul\":1216:1218   */\n          iszero\n          tag_110\n          jumpi\n            /* \"#utility.yul\":1264:1265   */\n          0x00\n            /* \"#utility.yul\":1261:1262   */\n          dup1\n            /* \"#utility.yul\":1254:1266   */\n          revert\n            /* \"#utility.yul\":1216:1218   */\n        tag_110:\n            /* \"#utility.yul\":1307:1308   */\n          0x00\n            /* \"#utility.yul\":1332:1385   */\n          tag_111\n            /* \"#utility.yul\":1377:1384   */\n          dup6\n            /* \"#utility.yul\":1368:1374   */\n          dup3\n            /* \"#utility.yul\":1357:1366   */\n          dup7\n            /* \"#utility.yul\":1353:1375   */\n          add\n            /* \"#utility.yul\":1332:1385   */\n          tag_93\n          jump\t// in\n        tag_111:\n            /* \"#utility.yul\":1322:1385   */\n          swap3\n          pop\n            /* \"#utility.yul\":1278:1395   */\n          pop\n            /* \"#utility.yul\":1434:1436   */\n          0x20\n            /* \"#utility.yul\":1460:1513   */\n          tag_112\n            /* \"#utility.yul\":1505:1512   */\n          dup6\n            /* \"#utility.yul\":1496:1502   */\n          dup3\n            /* \"#utility.yul\":1485:1494   */\n          dup7\n            /* \"#utility.yul\":1481:1503   */\n          add\n            /* \"#utility.yul\":1460:1513   */\n          tag_97\n          jump\t// in\n        tag_112:\n            /* \"#utility.yul\":1450:1513   */\n          swap2\n          pop\n            /* \"#utility.yul\":1405:1523   */\n          pop\n            /* \"#utility.yul\":1206:1530   */\n          swap3\n          pop\n          swap3\n          swap1\n          pop\n          jump\t// out\n            /* \"#utility.yul\":1536:1654   */\n        tag_113:\n            /* \"#utility.yul\":1623:1647   */\n          tag_115\n            /* \"#utility.yul\":1641:1646   */\n          dup2\n            /* \"#utility.yul\":1623:1647   */\n          tag_116\n          jump\t// in\n        tag_115:\n            /* \"#utility.yul\":1618:1621   */\n          dup3\n            /* \"#utility.yul\":1611:1648   */\n          mstore\n            /* \"#utility.yul\":1601:1654   */\n          pop\n          pop\n          jump\t// out\n            /* \"#utility.yul\":1660:2026   */\n        tag_117:\n            /* \"#utility.yul\":1802:1805   */\n          0x00\n            /* \"#utility.yul\":1823:1890   */\n          tag_119\n            /* \"#utility.yul\":1887:1889   */\n          0x39\n            /* \"#utility.yul\":1882:1885   */\n          dup4\n            /* \"#utility.yul\":1823:1890   */\n          tag_120\n          jump\t// in\n        tag_119:\n            /* \"#utility.yul\":1816:1890   */\n          swap2\n          pop\n            /* \"#utility.yul\":1899:1992   */\n          tag_121\n            /* \"#utility.yul\":1988:1991   */\n          dup3\n            /* \"#utility.yul\":1899:1992   */\n          tag_122\n          jump\t// in\n        tag_121:\n            /* \"#utility.yul\":2017:2019   */\n          0x40\n            /* \"#utility.yul\":2012:2015   */\n          dup3\n            /* \"#utility.yul\":2008:2020   */\n          add\n            /* \"#utility.yul\":2001:2020   */\n          swap1\n          pop\n            /* \"#utility.yul\":1806:2026   */\n          swap2\n          swap1\n          pop\n          jump\t// out\n            /* \"#utility.yul\":2032:2398   */\n        tag_123:\n            /* \"#utility.yul\":2174:2177   */\n          0x00\n            /* \"#utility.yul\":2195:2262   */\n          tag_125\n            /* \"#utility.yul\":2259:2261   */\n          0x26\n            /* \"#utility.yul\":2254:2257   */\n          dup4\n            /* \"#utility.yul\":2195:2262   */\n          tag_120\n          jump\t// in\n        tag_125:\n            /* \"#utility.yul\":2188:2262   */\n          swap2\n          pop\n            /* \"#utility.yul\":2271:2364   */\n          tag_126\n            /* \"#utility.yul\":2360:2363   */\n          dup3\n            /* \"#utility.yul\":2271:2364   */\n          tag_127\n          jump\t// in\n        tag_126:\n            /* \"#utility.yul\":2389:2391   */\n          0x40\n            /* \"#utility.yul\":2384:2387   */\n          dup3\n            /* \"#utility.yul\":2380:2392   */\n          add\n            /* \"#utility.yul\":2373:2392   */\n          swap1\n          pop\n            /* \"#utility.yul\":2178:2398   */\n          swap2\n          swap1\n          pop\n          jump\t// out\n            /* \"#utility.yul\":2404:2770   */\n        tag_128:\n            /* \"#utility.yul\":2546:2549   */\n          0x00\n            /* \"#utility.yul\":2567:2634   */\n          tag_130\n            /* \"#utility.yul\":2631:2633   */\n          0x30\n            /* \"#utility.yul\":2626:2629   */\n          dup4\n            /* \"#utility.yul\":2567:2634   */\n          tag_120\n          jump\t// in\n        tag_130:\n            /* \"#utility.yul\":2560:2634   */\n          swap2\n          pop\n            /* \"#utility.yul\":2643:2736   */\n          tag_131\n            /* \"#utility.yul\":2732:2735   */\n          dup3\n            /* \"#utility.yul\":2643:2736   */\n          tag_132\n          jump\t// in\n        tag_131:\n            /* \"#utility.yul\":2761:2763   */\n          0x40\n            /* \"#utility.yul\":2756:2759   */\n          dup3\n            /* \"#utility.yul\":2752:2764   */\n          add\n            /* \"#utility.yul\":2745:2764   */\n          swap1\n          pop\n            /* \"#utility.yul\":2550:2770   */\n          swap2\n          swap1\n          pop\n          jump\t// out\n            /* \"#utility.yul\":2776:3142   */\n        tag_133:\n            /* \"#utility.yul\":2918:2921   */\n          0x00\n            /* \"#utility.yul\":2939:3006   */\n          tag_135\n            /* \"#utility.yul\":3003:3005   */\n          0x20\n            /* \"#utility.yul\":2998:3001   */\n          dup4\n            /* \"#utility.yul\":2939:3006   */\n          tag_120\n          jump\t// in\n        tag_135:\n            /* \"#utility.yul\":2932:3006   */\n          swap2\n          pop\n            /* \"#utility.yul\":3015:3108   */\n          tag_136\n            /* \"#utility.yul\":3104:3107   */\n          dup3\n            /* \"#utility.yul\":3015:3108   */\n          tag_137\n          jump\t// in\n        tag_136:\n            /* \"#utility.yul\":3133:3135   */\n          0x20\n            /* \"#utility.yul\":3128:3131   */\n          dup3\n            /* \"#utility.yul\":3124:3136   */\n          add\n            /* \"#utility.yul\":3117:3136   */\n          swap1\n          pop\n            /* \"#utility.yul\":2922:3142   */\n          swap2\n          swap1\n          pop\n          jump\t// out\n            /* \"#utility.yul\":3148:3266   */\n        tag_138:\n            /* \"#utility.yul\":3235:3259   */\n          tag_140\n            /* \"#utility.yul\":3253:3258   */\n          dup2\n            /* \"#utility.yul\":3235:3259   */\n          tag_141\n          jump\t// in\n        tag_140:\n            /* \"#utility.yul\":3230:3233   */\n          dup3\n            /* \"#utility.yul\":3223:3260   */\n          mstore\n            /* \"#utility.yul\":3213:3266   */\n          pop\n          pop\n          jump\t// out\n            /* \"#utility.yul\":3272:3494   */\n        tag_26:\n            /* \"#utility.yul\":3365:3369   */\n          0x00\n            /* \"#utility.yul\":3403:3405   */\n          0x20\n            /* \"#utility.yul\":3392:3401   */\n          dup3\n            /* \"#utility.yul\":3388:3406   */\n          add\n            /* \"#utility.yul\":3380:3406   */\n          swap1\n          pop\n            /* \"#utility.yul\":3416:3487   */\n          tag_143\n            /* \"#utility.yul\":3484:3485   */\n          0x00\n            /* \"#utility.yul\":3473:3482   */\n          dup4\n            /* \"#utility.yul\":3469:3486   */\n          add\n            /* \"#utility.yul\":3460:3466   */\n          dup5\n            /* \"#utility.yul\":3416:3487   */\n          tag_113\n          jump\t// in\n        tag_143:\n            /* \"#utility.yul\":3370:3494   */\n          swap3\n          swap2\n          pop\n          pop\n          jump\t// out\n            /* \"#utility.yul\":3500:3919   */\n        tag_73:\n            /* \"#utility.yul\":3666:3670   */\n          0x00\n            /* \"#utility.yul\":3704:3706   */\n          0x20\n            /* \"#utility.yul\":3693:3702   */\n          dup3\n            /* \"#utility.yul\":3689:3707   */\n          add\n            /* \"#utility.yul\":3681:3707   */\n          swap1\n          pop\n            /* \"#utility.yul\":3753:3762   */\n          dup2\n            /* \"#utility.yul\":3747:3751   */\n          dup2\n            /* \"#utility.yul\":3743:3763   */\n          sub\n            /* \"#utility.yul\":3739:3740   */\n          0x00\n            /* \"#utility.yul\":3728:3737   */\n          dup4\n            /* \"#utility.yul\":3724:3741   */\n          add\n            /* \"#utility.yul\":3717:3764   */\n          mstore\n            /* \"#utility.yul\":3781:3912   */\n          tag_145\n            /* \"#utility.yul\":3907:3911   */\n          dup2\n            /* \"#utility.yul\":3781:3912   */\n          tag_117\n          jump\t// in\n        tag_145:\n            /* \"#utility.yul\":3773:3912   */\n          swap1\n          pop\n            /* \"#utility.yul\":3671:3919   */\n          swap2\n          swap1\n          pop\n          jump\t// out\n            /* \"#utility.yul\":3925:4344   */\n        tag_81:\n            /* \"#utility.yul\":4091:4095   */\n          0x00\n            /* \"#utility.yul\":4129:4131   */\n          0x20\n            /* \"#utility.yul\":4118:4127   */\n          dup3\n            /* \"#utility.yul\":4114:4132   */\n          add\n            /* \"#utility.yul\":4106:4132   */\n          swap1\n          pop\n            /* \"#utility.yul\":4178:4187   */\n          dup2\n            /* \"#utility.yul\":4172:4176   */\n          dup2\n            /* \"#utility.yul\":4168:4188   */\n          sub\n            /* \"#utility.yul\":4164:4165   */\n          0x00\n            /* \"#utility.yul\":4153:4162   */\n          dup4\n            /* \"#utility.yul\":4149:4166   */\n          add\n            /* \"#utility.yul\":4142:4189   */\n          mstore\n            /* \"#utility.yul\":4206:4337   */\n          tag_147\n            /* \"#utility.yul\":4332:4336   */\n          dup2\n            /* \"#utility.yul\":4206:4337   */\n          tag_123\n          jump\t// in\n        tag_147:\n            /* \"#utility.yul\":4198:4337   */\n          swap1\n          pop\n            /* \"#utility.yul\":4096:4344   */\n          swap2\n          swap1\n          pop\n          jump\t// out\n            /* \"#utility.yul\":4350:4769   */\n        tag_63:\n            /* \"#utility.yul\":4516:4520   */\n          0x00\n            /* \"#utility.yul\":4554:4556   */\n          0x20\n            /* \"#utility.yul\":4543:4552   */\n          dup3\n            /* \"#utility.yul\":4539:4557   */\n          add\n            /* \"#utility.yul\":4531:4557   */\n          swap1\n          pop\n            /* \"#utility.yul\":4603:4612   */\n          dup2\n            /* \"#utility.yul\":4597:4601   */\n          dup2\n            /* \"#utility.yul\":4593:4613   */\n          sub\n            /* \"#utility.yul\":4589:4590   */\n          0x00\n            /* \"#utility.yul\":4578:4587   */\n          dup4\n            /* \"#utility.yul\":4574:4591   */\n          add\n            /* \"#utility.yul\":4567:4614   */\n          mstore\n            /* \"#utility.yul\":4631:4762   */\n          tag_149\n            /* \"#utility.yul\":4757:4761   */\n          dup2\n            /* \"#utility.yul\":4631:4762   */\n          tag_128\n          jump\t// in\n        tag_149:\n            /* \"#utility.yul\":4623:4762   */\n          swap1\n          pop\n            /* \"#utility.yul\":4521:4769   */\n          swap2\n          swap1\n          pop\n          jump\t// out\n            /* \"#utility.yul\":4775:5194   */\n        tag_89:\n            /* \"#utility.yul\":4941:4945   */\n          0x00\n            /* \"#utility.yul\":4979:4981   */\n          0x20\n            /* \"#utility.yul\":4968:4977   */\n          dup3\n            /* \"#utility.yul\":4964:4982   */\n          add\n            /* \"#utility.yul\":4956:4982   */\n          swap1\n          pop\n            /* \"#utility.yul\":5028:5037   */\n          dup2\n            /* \"#utility.yul\":5022:5026   */\n          dup2\n            /* \"#utility.yul\":5018:5038   */\n          sub\n            /* \"#utility.yul\":5014:5015   */\n          0x00\n            /* \"#utility.yul\":5003:5012   */\n          dup4\n            /* \"#utility.yul\":4999:5016   */\n          add\n            /* \"#utility.yul\":4992:5039   */\n          mstore\n            /* \"#utility.yul\":5056:5187   */\n          tag_151\n            /* \"#utility.yul\":5182:5186   */\n          dup2\n            /* \"#utility.yul\":5056:5187   */\n          tag_133\n          jump\t// in\n        tag_151:\n            /* \"#utility.yul\":5048:5187   */\n          swap1\n          pop\n            /* \"#utility.yul\":4946:5194   */\n          swap2\n          swap1\n          pop\n          jump\t// out\n            /* \"#utility.yul\":5200:5422   */\n        tag_16:\n            /* \"#utility.yul\":5293:5297   */\n          0x00\n            /* \"#utility.yul\":5331:5333   */\n          0x20\n            /* \"#utility.yul\":5320:5329   */\n          dup3\n            /* \"#utility.yul\":5316:5334   */\n          add\n            /* \"#utility.yul\":5308:5334   */\n          swap1\n          pop\n            /* \"#utility.yul\":5344:5415   */\n          tag_153\n            /* \"#utility.yul\":5412:5413   */\n          0x00\n            /* \"#utility.yul\":5401:5410   */\n          dup4\n            /* \"#utility.yul\":5397:5414   */\n          add\n            /* \"#utility.yul\":5388:5394   */\n          dup5\n            /* \"#utility.yul\":5344:5415   */\n          tag_138\n          jump\t// in\n        tag_153:\n            /* \"#utility.yul\":5298:5422   */\n          swap3\n          swap2\n          pop\n          pop\n          jump\t// out\n            /* \"#utility.yul\":5428:5597   */\n        tag_120:\n            /* \"#utility.yul\":5512:5523   */\n          0x00\n            /* \"#utility.yul\":5546:5552   */\n          dup3\n            /* \"#utility.yul\":5541:5544   */\n          dup3\n            /* \"#utility.yul\":5534:5553   */\n          mstore\n            /* \"#utility.yul\":5586:5590   */\n          0x20\n            /* \"#utility.yul\":5581:5584   */\n          dup3\n            /* \"#utility.yul\":5577:5591   */\n          add\n            /* \"#utility.yul\":5562:5591   */\n          swap1\n          pop\n            /* \"#utility.yul\":5524:5597   */\n          swap3\n          swap2\n          pop\n          pop\n          jump\t// out\n            /* \"#utility.yul\":5603:5908   */\n        tag_50:\n            /* \"#utility.yul\":5643:5646   */\n          0x00\n            /* \"#utility.yul\":5662:5682   */\n          tag_156\n            /* \"#utility.yul\":5680:5681   */\n          dup3\n            /* \"#utility.yul\":5662:5682   */\n          tag_141\n          jump\t// in\n        tag_156:\n            /* \"#utility.yul\":5657:5682   */\n          swap2\n          pop\n            /* \"#utility.yul\":5696:5716   */\n          tag_157\n            /* \"#utility.yul\":5714:5715   */\n          dup4\n            /* \"#utility.yul\":5696:5716   */\n          tag_141\n          jump\t// in\n        tag_157:\n            /* \"#utility.yul\":5691:5716   */\n          swap3\n          pop\n            /* \"#utility.yul\":5850:5851   */\n          dup3\n            /* \"#utility.yul\":5782:5848   */\n          0xffffffffffffffffffffffffffffffffffffffffffffffffffffffffffffffff\n            /* \"#utility.yul\":5778:5852   */\n          sub\n            /* \"#utility.yul\":5775:5776   */\n          dup3\n            /* \"#utility.yul\":5772:5853   */\n          gt\n            /* \"#utility.yul\":5769:5771   */\n          iszero\n          tag_158\n          jumpi\n            /* \"#utility.yul\":5856:5874   */\n          tag_159\n          tag_160\n          jump\t// in\n        tag_159:\n            /* \"#utility.yul\":5769:5771   */\n        tag_158:\n            /* \"#utility.yul\":5900:5901   */\n          dup3\n            /* \"#utility.yul\":5897:5898   */\n          dup3\n            /* \"#utility.yul\":5893:5902   */\n          add\n            /* \"#utility.yul\":5886:5902   */\n          swap1\n          pop\n            /* \"#utility.yul\":5647:5908   */\n          swap3\n          swap2\n          pop\n          pop\n          jump\t// out\n            /* \"#utility.yul\":5914:6105   */\n        tag_65:\n            /* \"#utility.yul\":5954:5958   */\n          0x00\n            /* \"#utility.yul\":5974:5994   */\n          tag_162\n            /* \"#utility.yul\":5992:5993   */\n          dup3\n            /* \"#utility.yul\":5974:5994   */\n          tag_141\n          jump\t// in\n        tag_162:\n            /* \"#utility.yul\":5969:5994   */\n          swap2\n          pop\n            /* \"#utility.yul\":6008:6028   */\n          tag_163\n            /* \"#utility.yul\":6026:6027   */\n          dup4\n            /* \"#utility.yul\":6008:6028   */\n          tag_141\n          jump\t// in\n        tag_163:\n            /* \"#utility.yul\":6003:6028   */\n          swap3\n          pop\n            /* \"#utility.yul\":6047:6048   */\n          dup3\n            /* \"#utility.yul\":6044:6045   */\n          dup3\n            /* \"#utility.yul\":6041:6049   */\n          lt\n            /* \"#utility.yul\":6038:6040   */\n          iszero\n          tag_164\n          jumpi\n            /* \"#utility.yul\":6052:6070   */\n          tag_165\n          tag_160\n          jump\t// in\n        tag_165:\n            /* \"#utility.yul\":6038:6040   */\n        tag_164:\n            /* \"#utility.yul\":6097:6098   */\n          dup3\n            /* \"#utility.yul\":6094:6095   */\n          dup3\n            /* \"#utility.yul\":6090:6099   */\n          sub\n            /* \"#utility.yul\":6082:6099   */\n          swap1\n          pop\n            /* \"#utility.yul\":5959:6105   */\n          swap3\n          swap2\n          pop\n          pop\n          jump\t// out\n            /* \"#utility.yul\":6111:6207   */\n        tag_116:\n            /* \"#utility.yul\":6148:6155   */\n          0x00\n            /* \"#utility.yul\":6177:6201   */\n          tag_167\n            /* \"#utility.yul\":6195:6200   */\n          dup3\n            /* \"#utility.yul\":6177:6201   */\n          tag_168\n          jump\t// in\n        tag_167:\n            /* \"#utility.yul\":6166:6201   */\n          swap1\n          pop\n            /* \"#utility.yul\":6156:6207   */\n          swap2\n          swap1\n          pop\n          jump\t// out\n            /* \"#utility.yul\":6213:6339   */\n        tag_168:\n            /* \"#utility.yul\":6250:6257   */\n          0x00\n            /* \"#utility.yul\":6290:6332   */\n          0xffffffffffffffffffffffffffffffffffffffff\n            /* \"#utility.yul\":6283:6288   */\n          dup3\n            /* \"#utility.yul\":6279:6333   */\n          and\n            /* \"#utility.yul\":6268:6333   */\n          swap1\n          pop\n            /* \"#utility.yul\":6258:6339   */\n          swap2\n          swap1\n          pop\n          jump\t// out\n            /* \"#utility.yul\":6345:6422   */\n        tag_141:\n            /* \"#utility.yul\":6382:6389   */\n          0x00\n            /* \"#utility.yul\":6411:6416   */\n          dup2\n            /* \"#utility.yul\":6400:6416   */\n          swap1\n          pop\n            /* \"#utility.yul\":6390:6422   */\n          swap2\n          swap1\n          pop\n          jump\t// out\n            /* \"#utility.yul\":6428:6608   */\n        tag_160:\n            /* \"#utility.yul\":6476:6553   */\n          0x4e487b7100000000000000000000000000000000000000000000000000000000\n            /* \"#utility.yul\":6473:6474   */\n          0x00\n            /* \"#utility.yul\":6466:6554   */\n          mstore\n            /* \"#utility.yul\":6573:6577   */\n          0x11\n            /* \"#utility.yul\":6570:6571   */\n          0x04\n            /* \"#utility.yul\":6563:6578   */\n          mstore\n            /* \"#utility.yul\":6597:6601   */\n          0x24\n            /* \"#utility.yul\":6594:6595   */\n          0x00\n            /* \"#utility.yul\":6587:6602   */\n          revert\n            /* \"#utility.yul\":6614:6858   */\n        tag_122:\n            /* \"#utility.yul\":6754:6788   */\n          0x46726f6d206164647265737320646f6573206e6f74206861766520656e6f7567\n            /* \"#utility.yul\":6750:6751   */\n          0x00\n            /* \"#utility.yul\":6742:6748   */\n          dup3\n            /* \"#utility.yul\":6738:6752   */\n          add\n            /* \"#utility.yul\":6731:6789   */\n          mstore\n            /* \"#utility.yul\":6823:6850   */\n          0x6820466c6f776572436f696e7320746f207472616e7366657200000000000000\n            /* \"#utility.yul\":6818:6820   */\n          0x20\n            /* \"#utility.yul\":6810:6816   */\n          dup3\n            /* \"#utility.yul\":6806:6821   */\n          add\n            /* \"#utility.yul\":6799:6851   */\n          mstore\n            /* \"#utility.yul\":6720:6858   */\n          pop\n          jump\t// out\n            /* \"#utility.yul\":6864:7089   */\n        tag_127:\n            /* \"#utility.yul\":7004:7038   */\n          0x4f776e61626c653a206e6577206f776e657220697320746865207a65726f2061\n            /* \"#utility.yul\":7000:7001   */\n          0x00\n            /* \"#utility.yul\":6992:6998   */\n          dup3\n            /* \"#utility.yul\":6988:7002   */\n          add\n            /* \"#utility.yul\":6981:7039   */\n          mstore\n            /* \"#utility.yul\":7073:7081   */\n          0x6464726573730000000000000000000000000000000000000000000000000000\n            /* \"#utility.yul\":7068:7070   */\n          0x20\n            /* \"#utility.yul\":7060:7066   */\n          dup3\n            /* \"#utility.yul\":7056:7071   */\n          add\n            /* \"#utility.yul\":7049:7082   */\n          mstore\n            /* \"#utility.yul\":6970:7089   */\n          pop\n          jump\t// out\n            /* \"#utility.yul\":7095:7330   */\n        tag_132:\n            /* \"#utility.yul\":7235:7269   */\n          0x4164647265737320646f6573206e6f74206861766520656e6f75676820466c6f\n            /* \"#utility.yul\":7231:7232   */\n          0x00\n            /* \"#utility.yul\":7223:7229   */\n          dup3\n            /* \"#utility.yul\":7219:7233   */\n          add\n            /* \"#utility.yul\":7212:7270   */\n          mstore\n            /* \"#utility.yul\":7304:7322   */\n          0x776572436f696e7320746f206275726e00000000000000000000000000000000\n            /* \"#utility.yul\":7299:7301   */\n          0x20\n            /* \"#utility.yul\":7291:7297   */\n          dup3\n            /* \"#utility.yul\":7287:7302   */\n          add\n            /* \"#utility.yul\":7280:7323   */\n          mstore\n            /* \"#utility.yul\":7201:7330   */\n          pop\n          jump\t// out\n            /* \"#utility.yul\":7336:7518   */\n        tag_137:\n            /* \"#utility.yul\":7476:7510   */\n          0x4f776e61626c653a2063616c6c6572206973206e6f7420746865206f776e6572\n            /* \"#utility.yul\":7472:7473   */\n          0x00\n            /* \"#utility.yul\":7464:7470   */\n          dup3\n            /* \"#utility.yul\":7460:7474   */\n          add\n            /* \"#utility.yul\":7453:7511   */\n          mstore\n            /* \"#utility.yul\":7442:7518   */\n          pop\n          jump\t// out\n            /* \"#utility.yul\":7524:7646   */\n        tag_96:\n            /* \"#utility.yul\":7597:7621   */\n          tag_177\n            /* \"#utility.yul\":7615:7620   */\n          dup2\n            /* \"#utility.yul\":7597:7621   */\n          tag_116\n          jump\t// in\n        tag_177:\n            /* \"#utility.yul\":7590:7595   */\n          dup2\n            /* \"#utility.yul\":7587:7622   */\n          eq\n            /* \"#utility.yul\":7577:7579   */\n          tag_178\n          jumpi\n            /* \"#utility.yul\":7636:7637   */\n          0x00\n            /* \"#utility.yul\":7633:7634   */\n          dup1\n            /* \"#utility.yul\":7626:7638   */\n          revert\n            /* \"#utility.yul\":7577:7579   */\n        tag_178:\n            /* \"#utility.yul\":7567:7646   */\n          pop\n          jump\t// out\n            /* \"#utility.yul\":7652:7774   */\n        tag_100:\n            /* \"#utility.yul\":7725:7749   */\n          tag_180\n            /* \"#utility.yul\":7743:7748   */\n          dup2\n            /* \"#utility.yul\":7725:7749   */\n          tag_141\n          jump\t// in\n        tag_180:\n            /* \"#utility.yul\":7718:7723   */\n          dup2\n            /* \"#utility.yul\":7715:7750   */\n          eq\n            /* \"#utility.yul\":7705:7707   */\n          tag_181\n          jumpi\n            /* \"#utility.yul\":7764:7765   */\n          0x00\n            /* \"#utility.yul\":7761:7762   */\n          dup1\n            /* \"#utility.yul\":7754:7766   */\n          revert\n            /* \"#utility.yul\":7705:7707   */\n        tag_181:\n            /* \"#utility.yul\":7695:7774   */\n          pop\n          jump\t// out\n\n        auxdata: 0xa2646970667358221220db4759f687203e3ac1b048fe1c9cd5f3393feb8453e8adde2ad05ab72636284a64736f6c63430008040033\n    }\n}\n",
				"bytecode": {
					"linkReferences": {},
					"object": "608060405234801561001057600080fd5b5060405161001d906100e7565b604051809103906000f080158015610039573d6000803e3d6000fd5b506000806101000a81548173ffffffffffffffffffffffffffffffffffffffff021916908373ffffffffffffffffffffffffffffffffffffffff160217905550604051610085906100f4565b604051809103906000f0801580156100a1573d6000803e3d6000fd5b50600160006101000a81548173ffffffffffffffffffffffffffffffffffffffff021916908373ffffffffffffffffffffffffffffffffffffffff160217905550610101565b6114e9806102c383390190565b610ee6806117ac83390190565b6101b3806101106000396000f3fe608060405234801561001057600080fd5b50600436106100365760003560e01c80631f054bbe1461003b578063b7f6d90614610059575b600080fd5b610043610077565b60405161005091906100fa565b60405180910390f35b61006161009b565b60405161006e91906100df565b60405180910390f35b60008054906101000a900473ffffffffffffffffffffffffffffffffffffffff1681565b600160009054906101000a900473ffffffffffffffffffffffffffffffffffffffff1681565b6100ca81610135565b82525050565b6100d981610159565b82525050565b60006020820190506100f460008301846100c1565b92915050565b600060208201905061010f60008301846100d0565b92915050565b600073ffffffffffffffffffffffffffffffffffffffff82169050919050565b600061014082610147565b9050919050565b600061015282610115565b9050919050565b60006101648261016b565b9050919050565b600061017682610115565b905091905056fea2646970667358221220eebe12fad151bff7c7fc0ef5f4755fb4f04f6b1c902f5e468ce14bac5fe4d86664736f6c6343000804003360806040523480156200001157600080fd5b5062000032620000266200004960201b60201c565b6200005160201b60201c565b62000043336200011560201b60201c565b62000381565b600033905090565b60008060009054906101000a900473ffffffffffffffffffffffffffffffffffffffff169050816000806101000a81548173ffffffffffffffffffffffffffffffffffffffff021916908373ffffffffffffffffffffffffffffffffffffffff1602179055508173ffffffffffffffffffffffffffffffffffffffff168173ffffffffffffffffffffffffffffffffffffffff167f8be0079c531659141344cd1fd0a4f28419497f9722a3daafe3b4186f6b6457e060405160405180910390a35050565b62000125620001ac60201b60201c565b600073ffffffffffffffffffffffffffffffffffffffff168173ffffffffffffffffffffffffffffffffffffffff16141562000198576040517f08c379a00000000000000000000000000000000000000000000000000000000081526004016200018f90620002b4565b60405180910390fd5b620001a9816200005160201b60201c565b50565b620001bc6200004960201b60201c565b73ffffffffffffffffffffffffffffffffffffffff16620001e26200023d60201b60201c565b73ffffffffffffffffffffffffffffffffffffffff16146200023b576040517f08c379a00000000000000000000000000000000000000000000000000000000081526004016200023290620002d6565b60405180910390fd5b565b60008060009054906101000a900473ffffffffffffffffffffffffffffffffffffffff16905090565b600062000275602683620002f8565b9150620002828262000309565b604082019050919050565b60006200029c602083620002f8565b9150620002a98262000358565b602082019050919050565b60006020820190508181036000830152620002cf8162000266565b9050919050565b60006020820190508181036000830152620002f1816200028d565b9050919050565b600082825260208201905092915050565b7f4f776e61626c653a206e6577206f776e657220697320746865207a65726f206160008201527f6464726573730000000000000000000000000000000000000000000000000000602082015250565b7f4f776e61626c653a2063616c6c6572206973206e6f7420746865206f776e6572600082015250565b61115880620003916000396000f3fe608060405234801561001057600080fd5b50600436106101585760003560e01c8063baafd2d8116100c3578063d89b5ed61161007c578063d89b5ed61461039b578063e468688e146103b7578063ee650665146103d3578063efe54dd5146103ef578063f2fde38b14610421578063f94762781461043d57610158565b8063baafd2d8146102db578063c39139911461030b578063ce5e936514610327578063cfd4f18a14610345578063d53045c814610361578063d89135cd1461037d57610158565b80637ab436f8116101155780637ab436f81461020957806385393a8e146102255780638da5cb5b1461024157806393f0f55a1461025f578063aee9c8721461027b578063b1398144146102ab57610158565b806318160ddd1461015d57806321e5383a1461017b5780634b9ecd54146101975780634eb84791146101b35780636e76c3cf146101cf578063715018a6146101ff575b600080fd5b610165610459565b6040516101729190610f24565b60405180910390f35b61019560048036038101906101909190610d45565b61045f565b005b6101b160048036038101906101ac9190610dd0565b6104c1565b005b6101cd60048036038101906101c89190610d81565b6104e5565b005b6101e960048036038101906101e49190610d1c565b61070e565b6040516101f69190610f24565b60405180910390f35b610207610726565b005b610223600480360381019061021e9190610d45565b61073a565b005b61023f600480360381019061023a9190610d45565b61078a565b005b6102496107da565b6040516102569190610eae565b60405180910390f35b61027960048036038101906102749190610dd0565b610803565b005b61029560048036038101906102909190610d1c565b610827565b6040516102a29190610f24565b60405180910390f35b6102c560048036038101906102c09190610d45565b61083f565b6040516102d29190610f09565b60405180910390f35b6102f560048036038101906102f09190610d1c565b6108c8565b6040516103029190610f24565b60405180910390f35b61032560048036038101906103209190610dd0565b6108e0565b005b61032f610904565b60405161033c9190610f24565b60405180910390f35b61035f600480360381019061035a9190610d45565b61090a565b005b61037b60048036038101906103769190610dd0565b61096c565b005b610385610990565b6040516103929190610f24565b60405180910390f35b6103b560048036038101906103b09190610d45565b610996565b005b6103d160048036038101906103cc9190610dd0565b610a0d565b005b6103ed60048036038101906103e89190610d81565b610a31565b005b61040960048036038101906104049190610d45565b610aa8565b60405161041893929190610f3f565b60405180910390f35b61043b60048036038101906104369190610d1c565b610adf565b005b61045760048036038101906104529190610dd0565b610b63565b005b60025481565b610467610b87565b80600160008473ffffffffffffffffffffffffffffffffffffffff1673ffffffffffffffffffffffffffffffffffffffff16815260200190815260200160002060008282546104b69190610f87565b925050819055505050565b6104c9610b87565b80600260008282546104db9190610fdd565b9250508190555050565b6104ed610b87565b60006040518060600160405280848152602001838152602001600081525090506000600660008673ffffffffffffffffffffffffffffffffffffffff1673ffffffffffffffffffffffffffffffffffffffff16815260200190815260200160002054905060006001826105609190610f87565b905082600760008873ffffffffffffffffffffffffffffffffffffffff1673ffffffffffffffffffffffffffffffffffffffff1681526020019081526020016000206000838152602001908152602001600020600082015181600001556020820151816001015560408201518160020155905050600082146106355780600760008873ffffffffffffffffffffffffffffffffffffffff1673ffffffffffffffffffffffffffffffffffffffff1681526020019081526020016000206000848152602001908152602001600020600201819055505b80600660008873ffffffffffffffffffffffffffffffffffffffff1673ffffffffffffffffffffffffffffffffffffffff168152602001908152602001600020819055506000600560008873ffffffffffffffffffffffffffffffffffffffff1673ffffffffffffffffffffffffffffffffffffffff1681526020019081526020016000205414156107065780600560008873ffffffffffffffffffffffffffffffffffffffff1673ffffffffffffffffffffffffffffffffffffffff168152602001908152602001600020819055505b505050505050565b60056020528060005260406000206000915090505481565b61072e610b87565b6107386000610c05565b565b610742610b87565b80600560008473ffffffffffffffffffffffffffffffffffffffff1673ffffffffffffffffffffffffffffffffffffffff168152602001908152602001600020819055505050565b610792610b87565b80600660008473ffffffffffffffffffffffffffffffffffffffff1673ffffffffffffffffffffffffffffffffffffffff168152602001908152602001600020819055505050565b60008060009054906101000a900473ffffffffffffffffffffffffffffffffffffffff16905090565b61080b610b87565b806004600082825461081d9190610f87565b9250508190555050565b60016020528060005260406000206000915090505481565b610847610cd1565b600760008473ffffffffffffffffffffffffffffffffffffffff1673ffffffffffffffffffffffffffffffffffffffff16815260200190815260200160002060008381526020019081526020016000206040518060600160405290816000820154815260200160018201548152602001600282015481525050905092915050565b60066020528060005260406000206000915090505481565b6108e8610b87565b80600460008282546108fa9190610fdd565b9250508190555050565b60035481565b610912610b87565b80600160008473ffffffffffffffffffffffffffffffffffffffff1673ffffffffffffffffffffffffffffffffffffffff16815260200190815260200160002060008282546109619190610fdd565b925050819055505050565b610974610b87565b80600360008282546109869190610f87565b9250508190555050565b60045481565b61099e610b87565b600760008373ffffffffffffffffffffffffffffffffffffffff1673ffffffffffffffffffffffffffffffffffffffff16815260200190815260200160002060008281526020019081526020016000206000808201600090556001820160009055600282016000905550505050565b610a15610b87565b8060026000828254610a279190610f87565b9250508190555050565b610a39610b87565b80600760008573ffffffffffffffffffffffffffffffffffffffff1673ffffffffffffffffffffffffffffffffffffffff16815260200190815260200160002060008481526020019081526020016000206001016000828254610a9c9190610fdd565b92505081905550505050565b6007602052816000526040600020602052806000526040600020600091509150508060000154908060010154908060020154905083565b610ae7610b87565b600073ffffffffffffffffffffffffffffffffffffffff168173ffffffffffffffffffffffffffffffffffffffff161415610b57576040517f08c379a0000000000000000000000000000000000000000000000000000000008152600401610b4e90610ec9565b60405180910390fd5b610b6081610c05565b50565b610b6b610b87565b8060036000828254610b7d9190610fdd565b9250508190555050565b610b8f610cc9565b73ffffffffffffffffffffffffffffffffffffffff16610bad6107da565b73ffffffffffffffffffffffffffffffffffffffff1614610c03576040517f08c379a0000000000000000000000000000000000000000000000000000000008152600401610bfa90610ee9565b60405180910390fd5b565b60008060009054906101000a900473ffffffffffffffffffffffffffffffffffffffff169050816000806101000a81548173ffffffffffffffffffffffffffffffffffffffff021916908373ffffffffffffffffffffffffffffffffffffffff1602179055508173ffffffffffffffffffffffffffffffffffffffff168173ffffffffffffffffffffffffffffffffffffffff167f8be0079c531659141344cd1fd0a4f28419497f9722a3daafe3b4186f6b6457e060405160405180910390a35050565b600033905090565b60405180606001604052806000815260200160008152602001600081525090565b600081359050610d01816110f4565b92915050565b600081359050610d168161110b565b92915050565b600060208284031215610d2e57600080fd5b6000610d3c84828501610cf2565b91505092915050565b60008060408385031215610d5857600080fd5b6000610d6685828601610cf2565b9250506020610d7785828601610d07565b9150509250929050565b600080600060608486031215610d9657600080fd5b6000610da486828701610cf2565b9350506020610db586828701610d07565b9250506040610dc686828701610d07565b9150509250925092565b600060208284031215610de257600080fd5b6000610df084828501610d07565b91505092915050565b610e0281611011565b82525050565b6000610e15602683610f76565b9150610e208261107c565b604082019050919050565b6000610e38602083610f76565b9150610e43826110cb565b602082019050919050565b606082016000820151610e646000850182610e90565b506020820151610e776020850182610e90565b506040820151610e8a6040850182610e90565b50505050565b610e9981611043565b82525050565b610ea881611043565b82525050565b6000602082019050610ec36000830184610df9565b92915050565b60006020820190508181036000830152610ee281610e08565b9050919050565b60006020820190508181036000830152610f0281610e2b565b9050919050565b6000606082019050610f1e6000830184610e4e565b92915050565b6000602082019050610f396000830184610e9f565b92915050565b6000606082019050610f546000830186610e9f565b610f616020830185610e9f565b610f6e6040830184610e9f565b949350505050565b600082825260208201905092915050565b6000610f9282611043565b9150610f9d83611043565b9250827fffffffffffffffffffffffffffffffffffffffffffffffffffffffffffffffff03821115610fd257610fd161104d565b5b828201905092915050565b6000610fe882611043565b9150610ff383611043565b9250828210156110065761100561104d565b5b828203905092915050565b600061101c82611023565b9050919050565b600073ffffffffffffffffffffffffffffffffffffffff82169050919050565b6000819050919050565b7f4e487b7100000000000000000000000000000000000000000000000000000000600052601160045260246000fd5b7f4f776e61626c653a206e6577206f776e657220697320746865207a65726f206160008201527f6464726573730000000000000000000000000000000000000000000000000000602082015250565b7f4f776e61626c653a2063616c6c6572206973206e6f7420746865206f776e6572600082015250565b6110fd81611011565b811461110857600080fd5b50565b61111481611043565b811461111f57600080fd5b5056fea26469706673582212200cc1e498e48a35f0deda2d2458cc22aeecaabd8ad1aa0540f1a0a7be05fba95464736f6c6343000804003360806040523480156200001157600080fd5b5062000032620000266200004960201b60201c565b6200005160201b60201c565b62000043336200011560201b60201c565b62000381565b600033905090565b60008060009054906101000a900473ffffffffffffffffffffffffffffffffffffffff169050816000806101000a81548173ffffffffffffffffffffffffffffffffffffffff021916908373ffffffffffffffffffffffffffffffffffffffff1602179055508173ffffffffffffffffffffffffffffffffffffffff168173ffffffffffffffffffffffffffffffffffffffff167f8be0079c531659141344cd1fd0a4f28419497f9722a3daafe3b4186f6b6457e060405160405180910390a35050565b62000125620001ac60201b60201c565b600073ffffffffffffffffffffffffffffffffffffffff168173ffffffffffffffffffffffffffffffffffffffff16141562000198576040517f08c379a00000000000000000000000000000000000000000000000000000000081526004016200018f90620002b4565b60405180910390fd5b620001a9816200005160201b60201c565b50565b620001bc6200004960201b60201c565b73ffffffffffffffffffffffffffffffffffffffff16620001e26200023d60201b60201c565b73ffffffffffffffffffffffffffffffffffffffff16146200023b576040517f08c379a00000000000000000000000000000000000000000000000000000000081526004016200023290620002d6565b60405180910390fd5b565b60008060009054906101000a900473ffffffffffffffffffffffffffffffffffffffff16905090565b600062000275602683620002f8565b9150620002828262000309565b604082019050919050565b60006200029c602083620002f8565b9150620002a98262000358565b602082019050919050565b60006020820190508181036000830152620002cf8162000266565b9050919050565b60006020820190508181036000830152620002f1816200028d565b9050919050565b600082825260208201905092915050565b7f4f776e61626c653a206e6577206f776e657220697320746865207a65726f206160008201527f6464726573730000000000000000000000000000000000000000000000000000602082015250565b7f4f776e61626c653a2063616c6c6572206973206e6f7420746865206f776e6572600082015250565b610b5580620003916000396000f3fe608060405234801561001057600080fd5b50600436106100935760003560e01c80639dc29fac116100665780639dc29fac146100fa578063aee9c87214610116578063beabacc814610146578063d89135cd14610162578063f2fde38b1461018057610093565b806318160ddd1461009857806340c10f19146100b6578063715018a6146100d25780638da5cb5b146100dc575b600080fd5b6100a061019c565b6040516100ad91906108ba565b60405180910390f35b6100d060048036038101906100cb9190610739565b6101a2565b005b6100da61021d565b005b6100e4610231565b6040516100f1919061081f565b60405180910390f35b610114600480360381019061010f9190610739565b61025a565b005b610130600480360381019061012b91906106c1565b610370565b60405161013d91906108ba565b60405180910390f35b610160600480360381019061015b91906106ea565b610388565b005b61016a6104c3565b60405161017791906108ba565b60405180910390f35b61019a600480360381019061019591906106c1565b6104c9565b005b60025481565b6101aa61054d565b80600160008473ffffffffffffffffffffffffffffffffffffffff1673ffffffffffffffffffffffffffffffffffffffff16815260200190815260200160002060008282546101f991906108e6565b92505081905550806002600082825461021291906108e6565b925050819055505050565b61022561054d565b61022f60006105cb565b565b60008060009054906101000a900473ffffffffffffffffffffffffffffffffffffffff16905090565b61026261054d565b80600160008473ffffffffffffffffffffffffffffffffffffffff1673ffffffffffffffffffffffffffffffffffffffff1681526020019081526020016000205410156102e4576040517f08c379a00000000000000000000000000000000000000000000000000000000081526004016102db9061087a565b60405180910390fd5b80600160008473ffffffffffffffffffffffffffffffffffffffff1673ffffffffffffffffffffffffffffffffffffffff1681526020019081526020016000206000828254610333919061093c565b92505081905550806002600082825461034c919061093c565b92505081905550806003600082825461036591906108e6565b925050819055505050565b60016020528060005260406000206000915090505481565b61039061054d565b80600160008573ffffffffffffffffffffffffffffffffffffffff1673ffffffffffffffffffffffffffffffffffffffff168152602001908152602001600020541015610412576040517f08c379a00000000000000000000000000000000000000000000000000000000081526004016104099061083a565b60405180910390fd5b80600160008573ffffffffffffffffffffffffffffffffffffffff1673ffffffffffffffffffffffffffffffffffffffff1681526020019081526020016000206000828254610461919061093c565b9250508190555080600160008473ffffffffffffffffffffffffffffffffffffffff1673ffffffffffffffffffffffffffffffffffffffff16815260200190815260200160002060008282546104b791906108e6565b92505081905550505050565b60035481565b6104d161054d565b600073ffffffffffffffffffffffffffffffffffffffff168173ffffffffffffffffffffffffffffffffffffffff161415610541576040517f08c379a00000000000000000000000000000000000000000000000000000000081526004016105389061085a565b60405180910390fd5b61054a816105cb565b50565b61055561068f565b73ffffffffffffffffffffffffffffffffffffffff16610573610231565b73ffffffffffffffffffffffffffffffffffffffff16146105c9576040517f08c379a00000000000000000000000000000000000000000000000000000000081526004016105c09061089a565b60405180910390fd5b565b60008060009054906101000a900473ffffffffffffffffffffffffffffffffffffffff169050816000806101000a81548173ffffffffffffffffffffffffffffffffffffffff021916908373ffffffffffffffffffffffffffffffffffffffff1602179055508173ffffffffffffffffffffffffffffffffffffffff168173ffffffffffffffffffffffffffffffffffffffff167f8be0079c531659141344cd1fd0a4f28419497f9722a3daafe3b4186f6b6457e060405160405180910390a35050565b600033905090565b6000813590506106a681610af1565b92915050565b6000813590506106bb81610b08565b92915050565b6000602082840312156106d357600080fd5b60006106e184828501610697565b91505092915050565b6000806000606084860312156106ff57600080fd5b600061070d86828701610697565b935050602061071e86828701610697565b925050604061072f868287016106ac565b9150509250925092565b6000806040838503121561074c57600080fd5b600061075a85828601610697565b925050602061076b858286016106ac565b9150509250929050565b61077e81610970565b82525050565b60006107916039836108d5565b915061079c826109db565b604082019050919050565b60006107b46026836108d5565b91506107bf82610a2a565b604082019050919050565b60006107d76030836108d5565b91506107e282610a79565b604082019050919050565b60006107fa6020836108d5565b915061080582610ac8565b602082019050919050565b610819816109a2565b82525050565b60006020820190506108346000830184610775565b92915050565b6000602082019050818103600083015261085381610784565b9050919050565b60006020820190508181036000830152610873816107a7565b9050919050565b60006020820190508181036000830152610893816107ca565b9050919050565b600060208201905081810360008301526108b3816107ed565b9050919050565b60006020820190506108cf6000830184610810565b92915050565b600082825260208201905092915050565b60006108f1826109a2565b91506108fc836109a2565b9250827fffffffffffffffffffffffffffffffffffffffffffffffffffffffffffffffff03821115610931576109306109ac565b5b828201905092915050565b6000610947826109a2565b9150610952836109a2565b925082821015610965576109646109ac565b5b828203905092915050565b600061097b82610982565b9050919050565b600073ffffffffffffffffffffffffffffffffffffffff82169050919050565b6000819050919050565b7f4e487b7100000000000000000000000000000000000000000000000000000000600052601160045260246000fd5b7f46726f6d206164647265737320646f6573206e6f74206861766520656e6f756760008201527f6820466c6f776572436f696e7320746f207472616e7366657200000000000000602082015250565b7f4f776e61626c653a206e6577206f776e657220697320746865207a65726f206160008201527f6464726573730000000000000000000000000000000000000000000000000000602082015250565b7f4164647265737320646f6573206e6f74206861766520656e6f75676820466c6f60008201527f776572436f696e7320746f206275726e00000000000000000000000000000000602082015250565b7f4f776e61626c653a2063616c6c6572206973206e6f7420746865206f776e6572600082015250565b610afa81610970565b8114610b0557600080fd5b50565b610b11816109a2565b8114610b1c57600080fd5b5056fea2646970667358221220db4759f687203e3ac1b048fe1c9cd5f3393feb8453e8adde2ad05ab72636284a64736f6c63430008040033",
					"opcodes": "PUSH1 0x80 PUSH1 0x40 MSTORE CALLVALUE DUP1 ISZERO PUSH2 0x10 JUMPI PUSH1 0x0 DUP1 REVERT JUMPDEST POP PUSH1 0x40 MLOAD PUSH2 0x1D SWAP1 PUSH2 0xE7 JUMP JUMPDEST PUSH1 0x40 MLOAD DUP1 SWAP2 SUB SWAP1 PUSH1 0x0 CREATE DUP1 ISZERO DUP1 ISZERO PUSH2 0x39 JUMPI RETURNDATASIZE PUSH1 0x0 DUP1 RETURNDATACOPY RETURNDATASIZE PUSH1 0x0 REVERT JUMPDEST POP PUSH1 0x0 DUP1 PUSH2 0x100 EXP DUP2 SLOAD DUP2 PUSH20 0xFFFFFFFFFFFFFFFFFFFFFFFFFFFFFFFFFFFFFFFF MUL NOT AND SWAP1 DUP4 PUSH20 0xFFFFFFFFFFFFFFFFFFFFFFFFFFFFFFFFFFFFFFFF AND MUL OR SWAP1 SSTORE POP PUSH1 0x40 MLOAD PUSH2 0x85 SWAP1 PUSH2 0xF4 JUMP JUMPDEST PUSH1 0x40 MLOAD DUP1 SWAP2 SUB SWAP1 PUSH1 0x0 CREATE DUP1 ISZERO DUP1 ISZERO PUSH2 0xA1 JUMPI RETURNDATASIZE PUSH1 0x0 DUP1 RETURNDATACOPY RETURNDATASIZE PUSH1 0x0 REVERT JUMPDEST POP PUSH1 0x1 PUSH1 0x0 PUSH2 0x100 EXP DUP2 SLOAD DUP2 PUSH20 0xFFFFFFFFFFFFFFFFFFFFFFFFFFFFFFFFFFFFFFFF MUL NOT AND SWAP1 DUP4 PUSH20 0xFFFFFFFFFFFFFFFFFFFFFFFFFFFFFFFFFFFFFFFF AND MUL OR SWAP1 SSTORE POP PUSH2 0x101 JUMP JUMPDEST PUSH2 0x14E9 DUP1 PUSH2 0x2C3 DUP4 CODECOPY ADD SWAP1 JUMP JUMPDEST PUSH2 0xEE6 DUP1 PUSH2 0x17AC DUP4 CODECOPY ADD SWAP1 JUMP JUMPDEST PUSH2 0x1B3 DUP1 PUSH2 0x110 PUSH1 0x0 CODECOPY PUSH1 0x0 RETURN INVALID PUSH1 0x80 PUSH1 0x40 MSTORE CALLVALUE DUP1 ISZERO PUSH2 0x10 JUMPI PUSH1 0x0 DUP1 REVERT JUMPDEST POP PUSH1 0x4 CALLDATASIZE LT PUSH2 0x36 JUMPI PUSH1 0x0 CALLDATALOAD PUSH1 0xE0 SHR DUP1 PUSH4 0x1F054BBE EQ PUSH2 0x3B JUMPI DUP1 PUSH4 0xB7F6D906 EQ PUSH2 0x59 JUMPI JUMPDEST PUSH1 0x0 DUP1 REVERT JUMPDEST PUSH2 0x43 PUSH2 0x77 JUMP JUMPDEST PUSH1 0x40 MLOAD PUSH2 0x50 SWAP2 SWAP1 PUSH2 0xFA JUMP JUMPDEST PUSH1 0x40 MLOAD DUP1 SWAP2 SUB SWAP1 RETURN JUMPDEST PUSH2 0x61 PUSH2 0x9B JUMP JUMPDEST PUSH1 0x40 MLOAD PUSH2 0x6E SWAP2 SWAP1 PUSH2 0xDF JUMP JUMPDEST PUSH1 0x40 MLOAD DUP1 SWAP2 SUB SWAP1 RETURN JUMPDEST PUSH1 0x0 DUP1 SLOAD SWAP1 PUSH2 0x100 EXP SWAP1 DIV PUSH20 0xFFFFFFFFFFFFFFFFFFFFFFFFFFFFFFFFFFFFFFFF AND DUP2 JUMP JUMPDEST PUSH1 0x1 PUSH1 0x0 SWAP1 SLOAD SWAP1 PUSH2 0x100 EXP SWAP1 DIV PUSH20 0xFFFFFFFFFFFFFFFFFFFFFFFFFFFFFFFFFFFFFFFF AND DUP2 JUMP JUMPDEST PUSH2 0xCA DUP2 PUSH2 0x135 JUMP JUMPDEST DUP3 MSTORE POP POP JUMP JUMPDEST PUSH2 0xD9 DUP2 PUSH2 0x159 JUMP JUMPDEST DUP3 MSTORE POP POP JUMP JUMPDEST PUSH1 0x0 PUSH1 0x20 DUP3 ADD SWAP1 POP PUSH2 0xF4 PUSH1 0x0 DUP4 ADD DUP5 PUSH2 0xC1 JUMP JUMPDEST SWAP3 SWAP2 POP POP JUMP JUMPDEST PUSH1 0x0 PUSH1 0x20 DUP3 ADD SWAP1 POP PUSH2 0x10F PUSH1 0x0 DUP4 ADD DUP5 PUSH2 0xD0 JUMP JUMPDEST SWAP3 SWAP2 POP POP JUMP JUMPDEST PUSH1 0x0 PUSH20 0xFFFFFFFFFFFFFFFFFFFFFFFFFFFFFFFFFFFFFFFF DUP3 AND SWAP1 POP SWAP2 SWAP1 POP JUMP JUMPDEST PUSH1 0x0 PUSH2 0x140 DUP3 PUSH2 0x147 JUMP JUMPDEST SWAP1 POP SWAP2 SWAP1 POP JUMP JUMPDEST PUSH1 0x0 PUSH2 0x152 DUP3 PUSH2 0x115 JUMP JUMPDEST SWAP1 POP SWAP2 SWAP1 POP JUMP JUMPDEST PUSH1 0x0 PUSH2 0x164 DUP3 PUSH2 0x16B JUMP JUMPDEST SWAP1 POP SWAP2 SWAP1 POP JUMP JUMPDEST PUSH1 0x0 PUSH2 0x176 DUP3 PUSH2 0x115 JUMP JUMPDEST SWAP1 POP SWAP2 SWAP1 POP JUMP INVALID LOG2 PUSH5 0x6970667358 0x22 SLT KECCAK256 0xEE 0xBE SLT STATICCALL 0xD1 MLOAD 0xBF 0xF7 0xC7 0xFC 0xE CREATE2 DELEGATECALL PUSH22 0x5FB4F04F6B1C902F5E468CE14BAC5FE4D86664736F6C PUSH4 0x43000804 STOP CALLER PUSH1 0x80 PUSH1 0x40 MSTORE CALLVALUE DUP1 ISZERO PUSH3 0x11 JUMPI PUSH1 0x0 DUP1 REVERT JUMPDEST POP PUSH3 0x32 PUSH3 0x26 PUSH3 0x49 PUSH1 0x20 SHL PUSH1 0x20 SHR JUMP JUMPDEST PUSH3 0x51 PUSH1 0x20 SHL PUSH1 0x20 SHR JUMP JUMPDEST PUSH3 0x43 CALLER PUSH3 0x115 PUSH1 0x20 SHL PUSH1 0x20 SHR JUMP JUMPDEST PUSH3 0x381 JUMP JUMPDEST PUSH1 0x0 CALLER SWAP1 POP SWAP1 JUMP JUMPDEST PUSH1 0x0 DUP1 PUSH1 0x0 SWAP1 SLOAD SWAP1 PUSH2 0x100 EXP SWAP1 DIV PUSH20 0xFFFFFFFFFFFFFFFFFFFFFFFFFFFFFFFFFFFFFFFF AND SWAP1 POP DUP2 PUSH1 0x0 DUP1 PUSH2 0x100 EXP DUP2 SLOAD DUP2 PUSH20 0xFFFFFFFFFFFFFFFFFFFFFFFFFFFFFFFFFFFFFFFF MUL NOT AND SWAP1 DUP4 PUSH20 0xFFFFFFFFFFFFFFFFFFFFFFFFFFFFFFFFFFFFFFFF AND MUL OR SWAP1 SSTORE POP DUP2 PUSH20 0xFFFFFFFFFFFFFFFFFFFFFFFFFFFFFFFFFFFFFFFF AND DUP2 PUSH20 0xFFFFFFFFFFFFFFFFFFFFFFFFFFFFFFFFFFFFFFFF AND PUSH32 0x8BE0079C531659141344CD1FD0A4F28419497F9722A3DAAFE3B4186F6B6457E0 PUSH1 0x40 MLOAD PUSH1 0x40 MLOAD DUP1 SWAP2 SUB SWAP1 LOG3 POP POP JUMP JUMPDEST PUSH3 0x125 PUSH3 0x1AC PUSH1 0x20 SHL PUSH1 0x20 SHR JUMP JUMPDEST PUSH1 0x0 PUSH20 0xFFFFFFFFFFFFFFFFFFFFFFFFFFFFFFFFFFFFFFFF AND DUP2 PUSH20 0xFFFFFFFFFFFFFFFFFFFFFFFFFFFFFFFFFFFFFFFF AND EQ ISZERO PUSH3 0x198 JUMPI PUSH1 0x40 MLOAD PUSH32 0x8C379A000000000000000000000000000000000000000000000000000000000 DUP2 MSTORE PUSH1 0x4 ADD PUSH3 0x18F SWAP1 PUSH3 0x2B4 JUMP JUMPDEST PUSH1 0x40 MLOAD DUP1 SWAP2 SUB SWAP1 REVERT JUMPDEST PUSH3 0x1A9 DUP2 PUSH3 0x51 PUSH1 0x20 SHL PUSH1 0x20 SHR JUMP JUMPDEST POP JUMP JUMPDEST PUSH3 0x1BC PUSH3 0x49 PUSH1 0x20 SHL PUSH1 0x20 SHR JUMP JUMPDEST PUSH20 0xFFFFFFFFFFFFFFFFFFFFFFFFFFFFFFFFFFFFFFFF AND PUSH3 0x1E2 PUSH3 0x23D PUSH1 0x20 SHL PUSH1 0x20 SHR JUMP JUMPDEST PUSH20 0xFFFFFFFFFFFFFFFFFFFFFFFFFFFFFFFFFFFFFFFF AND EQ PUSH3 0x23B JUMPI PUSH1 0x40 MLOAD PUSH32 0x8C379A000000000000000000000000000000000000000000000000000000000 DUP2 MSTORE PUSH1 0x4 ADD PUSH3 0x232 SWAP1 PUSH3 0x2D6 JUMP JUMPDEST PUSH1 0x40 MLOAD DUP1 SWAP2 SUB SWAP1 REVERT JUMPDEST JUMP JUMPDEST PUSH1 0x0 DUP1 PUSH1 0x0 SWAP1 SLOAD SWAP1 PUSH2 0x100 EXP SWAP1 DIV PUSH20 0xFFFFFFFFFFFFFFFFFFFFFFFFFFFFFFFFFFFFFFFF AND SWAP1 POP SWAP1 JUMP JUMPDEST PUSH1 0x0 PUSH3 0x275 PUSH1 0x26 DUP4 PUSH3 0x2F8 JUMP JUMPDEST SWAP2 POP PUSH3 0x282 DUP3 PUSH3 0x309 JUMP JUMPDEST PUSH1 0x40 DUP3 ADD SWAP1 POP SWAP2 SWAP1 POP JUMP JUMPDEST PUSH1 0x0 PUSH3 0x29C PUSH1 0x20 DUP4 PUSH3 0x2F8 JUMP JUMPDEST SWAP2 POP PUSH3 0x2A9 DUP3 PUSH3 0x358 JUMP JUMPDEST PUSH1 0x20 DUP3 ADD SWAP1 POP SWAP2 SWAP1 POP JUMP JUMPDEST PUSH1 0x0 PUSH1 0x20 DUP3 ADD SWAP1 POP DUP2 DUP2 SUB PUSH1 0x0 DUP4 ADD MSTORE PUSH3 0x2CF DUP2 PUSH3 0x266 JUMP JUMPDEST SWAP1 POP SWAP2 SWAP1 POP JUMP JUMPDEST PUSH1 0x0 PUSH1 0x20 DUP3 ADD SWAP1 POP DUP2 DUP2 SUB PUSH1 0x0 DUP4 ADD MSTORE PUSH3 0x2F1 DUP2 PUSH3 0x28D JUMP JUMPDEST SWAP1 POP SWAP2 SWAP1 POP JUMP JUMPDEST PUSH1 0x0 DUP3 DUP3 MSTORE PUSH1 0x20 DUP3 ADD SWAP1 POP SWAP3 SWAP2 POP POP JUMP JUMPDEST PUSH32 0x4F776E61626C653A206E6577206F776E657220697320746865207A65726F2061 PUSH1 0x0 DUP3 ADD MSTORE PUSH32 0x6464726573730000000000000000000000000000000000000000000000000000 PUSH1 0x20 DUP3 ADD MSTORE POP JUMP JUMPDEST PUSH32 0x4F776E61626C653A2063616C6C6572206973206E6F7420746865206F776E6572 PUSH1 0x0 DUP3 ADD MSTORE POP JUMP JUMPDEST PUSH2 0x1158 DUP1 PUSH3 0x391 PUSH1 0x0 CODECOPY PUSH1 0x0 RETURN INVALID PUSH1 0x80 PUSH1 0x40 MSTORE CALLVALUE DUP1 ISZERO PUSH2 0x10 JUMPI PUSH1 0x0 DUP1 REVERT JUMPDEST POP PUSH1 0x4 CALLDATASIZE LT PUSH2 0x158 JUMPI PUSH1 0x0 CALLDATALOAD PUSH1 0xE0 SHR DUP1 PUSH4 0xBAAFD2D8 GT PUSH2 0xC3 JUMPI DUP1 PUSH4 0xD89B5ED6 GT PUSH2 0x7C JUMPI DUP1 PUSH4 0xD89B5ED6 EQ PUSH2 0x39B JUMPI DUP1 PUSH4 0xE468688E EQ PUSH2 0x3B7 JUMPI DUP1 PUSH4 0xEE650665 EQ PUSH2 0x3D3 JUMPI DUP1 PUSH4 0xEFE54DD5 EQ PUSH2 0x3EF JUMPI DUP1 PUSH4 0xF2FDE38B EQ PUSH2 0x421 JUMPI DUP1 PUSH4 0xF9476278 EQ PUSH2 0x43D JUMPI PUSH2 0x158 JUMP JUMPDEST DUP1 PUSH4 0xBAAFD2D8 EQ PUSH2 0x2DB JUMPI DUP1 PUSH4 0xC3913991 EQ PUSH2 0x30B JUMPI DUP1 PUSH4 0xCE5E9365 EQ PUSH2 0x327 JUMPI DUP1 PUSH4 0xCFD4F18A EQ PUSH2 0x345 JUMPI DUP1 PUSH4 0xD53045C8 EQ PUSH2 0x361 JUMPI DUP1 PUSH4 0xD89135CD EQ PUSH2 0x37D JUMPI PUSH2 0x158 JUMP JUMPDEST DUP1 PUSH4 0x7AB436F8 GT PUSH2 0x115 JUMPI DUP1 PUSH4 0x7AB436F8 EQ PUSH2 0x209 JUMPI DUP1 PUSH4 0x85393A8E EQ PUSH2 0x225 JUMPI DUP1 PUSH4 0x8DA5CB5B EQ PUSH2 0x241 JUMPI DUP1 PUSH4 0x93F0F55A EQ PUSH2 0x25F JUMPI DUP1 PUSH4 0xAEE9C872 EQ PUSH2 0x27B JUMPI DUP1 PUSH4 0xB1398144 EQ PUSH2 0x2AB JUMPI PUSH2 0x158 JUMP JUMPDEST DUP1 PUSH4 0x18160DDD EQ PUSH2 0x15D JUMPI DUP1 PUSH4 0x21E5383A EQ PUSH2 0x17B JUMPI DUP1 PUSH4 0x4B9ECD54 EQ PUSH2 0x197 JUMPI DUP1 PUSH4 0x4EB84791 EQ PUSH2 0x1B3 JUMPI DUP1 PUSH4 0x6E76C3CF EQ PUSH2 0x1CF JUMPI DUP1 PUSH4 0x715018A6 EQ PUSH2 0x1FF JUMPI JUMPDEST PUSH1 0x0 DUP1 REVERT JUMPDEST PUSH2 0x165 PUSH2 0x459 JUMP JUMPDEST PUSH1 0x40 MLOAD PUSH2 0x172 SWAP2 SWAP1 PUSH2 0xF24 JUMP JUMPDEST PUSH1 0x40 MLOAD DUP1 SWAP2 SUB SWAP1 RETURN JUMPDEST PUSH2 0x195 PUSH1 0x4 DUP1 CALLDATASIZE SUB DUP2 ADD SWAP1 PUSH2 0x190 SWAP2 SWAP1 PUSH2 0xD45 JUMP JUMPDEST PUSH2 0x45F JUMP JUMPDEST STOP JUMPDEST PUSH2 0x1B1 PUSH1 0x4 DUP1 CALLDATASIZE SUB DUP2 ADD SWAP1 PUSH2 0x1AC SWAP2 SWAP1 PUSH2 0xDD0 JUMP JUMPDEST PUSH2 0x4C1 JUMP JUMPDEST STOP JUMPDEST PUSH2 0x1CD PUSH1 0x4 DUP1 CALLDATASIZE SUB DUP2 ADD SWAP1 PUSH2 0x1C8 SWAP2 SWAP1 PUSH2 0xD81 JUMP JUMPDEST PUSH2 0x4E5 JUMP JUMPDEST STOP JUMPDEST PUSH2 0x1E9 PUSH1 0x4 DUP1 CALLDATASIZE SUB DUP2 ADD SWAP1 PUSH2 0x1E4 SWAP2 SWAP1 PUSH2 0xD1C JUMP JUMPDEST PUSH2 0x70E JUMP JUMPDEST PUSH1 0x40 MLOAD PUSH2 0x1F6 SWAP2 SWAP1 PUSH2 0xF24 JUMP JUMPDEST PUSH1 0x40 MLOAD DUP1 SWAP2 SUB SWAP1 RETURN JUMPDEST PUSH2 0x207 PUSH2 0x726 JUMP JUMPDEST STOP JUMPDEST PUSH2 0x223 PUSH1 0x4 DUP1 CALLDATASIZE SUB DUP2 ADD SWAP1 PUSH2 0x21E SWAP2 SWAP1 PUSH2 0xD45 JUMP JUMPDEST PUSH2 0x73A JUMP JUMPDEST STOP JUMPDEST PUSH2 0x23F PUSH1 0x4 DUP1 CALLDATASIZE SUB DUP2 ADD SWAP1 PUSH2 0x23A SWAP2 SWAP1 PUSH2 0xD45 JUMP JUMPDEST PUSH2 0x78A JUMP JUMPDEST STOP JUMPDEST PUSH2 0x249 PUSH2 0x7DA JUMP JUMPDEST PUSH1 0x40 MLOAD PUSH2 0x256 SWAP2 SWAP1 PUSH2 0xEAE JUMP JUMPDEST PUSH1 0x40 MLOAD DUP1 SWAP2 SUB SWAP1 RETURN JUMPDEST PUSH2 0x279 PUSH1 0x4 DUP1 CALLDATASIZE SUB DUP2 ADD SWAP1 PUSH2 0x274 SWAP2 SWAP1 PUSH2 0xDD0 JUMP JUMPDEST PUSH2 0x803 JUMP JUMPDEST STOP JUMPDEST PUSH2 0x295 PUSH1 0x4 DUP1 CALLDATASIZE SUB DUP2 ADD SWAP1 PUSH2 0x290 SWAP2 SWAP1 PUSH2 0xD1C JUMP JUMPDEST PUSH2 0x827 JUMP JUMPDEST PUSH1 0x40 MLOAD PUSH2 0x2A2 SWAP2 SWAP1 PUSH2 0xF24 JUMP JUMPDEST PUSH1 0x40 MLOAD DUP1 SWAP2 SUB SWAP1 RETURN JUMPDEST PUSH2 0x2C5 PUSH1 0x4 DUP1 CALLDATASIZE SUB DUP2 ADD SWAP1 PUSH2 0x2C0 SWAP2 SWAP1 PUSH2 0xD45 JUMP JUMPDEST PUSH2 0x83F JUMP JUMPDEST PUSH1 0x40 MLOAD PUSH2 0x2D2 SWAP2 SWAP1 PUSH2 0xF09 JUMP JUMPDEST PUSH1 0x40 MLOAD DUP1 SWAP2 SUB SWAP1 RETURN JUMPDEST PUSH2 0x2F5 PUSH1 0x4 DUP1 CALLDATASIZE SUB DUP2 ADD SWAP1 PUSH2 0x2F0 SWAP2 SWAP1 PUSH2 0xD1C JUMP JUMPDEST PUSH2 0x8C8 JUMP JUMPDEST PUSH1 0x40 MLOAD PUSH2 0x302 SWAP2 SWAP1 PUSH2 0xF24 JUMP JUMPDEST PUSH1 0x40 MLOAD DUP1 SWAP2 SUB SWAP1 RETURN JUMPDEST PUSH2 0x325 PUSH1 0x4 DUP1 CALLDATASIZE SUB DUP2 ADD SWAP1 PUSH2 0x320 SWAP2 SWAP1 PUSH2 0xDD0 JUMP JUMPDEST PUSH2 0x8E0 JUMP JUMPDEST STOP JUMPDEST PUSH2 0x32F PUSH2 0x904 JUMP JUMPDEST PUSH1 0x40 MLOAD PUSH2 0x33C SWAP2 SWAP1 PUSH2 0xF24 JUMP JUMPDEST PUSH1 0x40 MLOAD DUP1 SWAP2 SUB SWAP1 RETURN JUMPDEST PUSH2 0x35F PUSH1 0x4 DUP1 CALLDATASIZE SUB DUP2 ADD SWAP1 PUSH2 0x35A SWAP2 SWAP1 PUSH2 0xD45 JUMP JUMPDEST PUSH2 0x90A JUMP JUMPDEST STOP JUMPDEST PUSH2 0x37B PUSH1 0x4 DUP1 CALLDATASIZE SUB DUP2 ADD SWAP1 PUSH2 0x376 SWAP2 SWAP1 PUSH2 0xDD0 JUMP JUMPDEST PUSH2 0x96C JUMP JUMPDEST STOP JUMPDEST PUSH2 0x385 PUSH2 0x990 JUMP JUMPDEST PUSH1 0x40 MLOAD PUSH2 0x392 SWAP2 SWAP1 PUSH2 0xF24 JUMP JUMPDEST PUSH1 0x40 MLOAD DUP1 SWAP2 SUB SWAP1 RETURN JUMPDEST PUSH2 0x3B5 PUSH1 0x4 DUP1 CALLDATASIZE SUB DUP2 ADD SWAP1 PUSH2 0x3B0 SWAP2 SWAP1 PUSH2 0xD45 JUMP JUMPDEST PUSH2 0x996 JUMP JUMPDEST STOP JUMPDEST PUSH2 0x3D1 PUSH1 0x4 DUP1 CALLDATASIZE SUB DUP2 ADD SWAP1 PUSH2 0x3CC SWAP2 SWAP1 PUSH2 0xDD0 JUMP JUMPDEST PUSH2 0xA0D JUMP JUMPDEST STOP JUMPDEST PUSH2 0x3ED PUSH1 0x4 DUP1 CALLDATASIZE SUB DUP2 ADD SWAP1 PUSH2 0x3E8 SWAP2 SWAP1 PUSH2 0xD81 JUMP JUMPDEST PUSH2 0xA31 JUMP JUMPDEST STOP JUMPDEST PUSH2 0x409 PUSH1 0x4 DUP1 CALLDATASIZE SUB DUP2 ADD SWAP1 PUSH2 0x404 SWAP2 SWAP1 PUSH2 0xD45 JUMP JUMPDEST PUSH2 0xAA8 JUMP JUMPDEST PUSH1 0x40 MLOAD PUSH2 0x418 SWAP4 SWAP3 SWAP2 SWAP1 PUSH2 0xF3F JUMP JUMPDEST PUSH1 0x40 MLOAD DUP1 SWAP2 SUB SWAP1 RETURN JUMPDEST PUSH2 0x43B PUSH1 0x4 DUP1 CALLDATASIZE SUB DUP2 ADD SWAP1 PUSH2 0x436 SWAP2 SWAP1 PUSH2 0xD1C JUMP JUMPDEST PUSH2 0xADF JUMP JUMPDEST STOP JUMPDEST PUSH2 0x457 PUSH1 0x4 DUP1 CALLDATASIZE SUB DUP2 ADD SWAP1 PUSH2 0x452 SWAP2 SWAP1 PUSH2 0xDD0 JUMP JUMPDEST PUSH2 0xB63 JUMP JUMPDEST STOP JUMPDEST PUSH1 0x2 SLOAD DUP2 JUMP JUMPDEST PUSH2 0x467 PUSH2 0xB87 JUMP JUMPDEST DUP1 PUSH1 0x1 PUSH1 0x0 DUP5 PUSH20 0xFFFFFFFFFFFFFFFFFFFFFFFFFFFFFFFFFFFFFFFF AND PUSH20 0xFFFFFFFFFFFFFFFFFFFFFFFFFFFFFFFFFFFFFFFF AND DUP2 MSTORE PUSH1 0x20 ADD SWAP1 DUP2 MSTORE PUSH1 0x20 ADD PUSH1 0x0 KECCAK256 PUSH1 0x0 DUP3 DUP3 SLOAD PUSH2 0x4B6 SWAP2 SWAP1 PUSH2 0xF87 JUMP JUMPDEST SWAP3 POP POP DUP2 SWAP1 SSTORE POP POP POP JUMP JUMPDEST PUSH2 0x4C9 PUSH2 0xB87 JUMP JUMPDEST DUP1 PUSH1 0x2 PUSH1 0x0 DUP3 DUP3 SLOAD PUSH2 0x4DB SWAP2 SWAP1 PUSH2 0xFDD JUMP JUMPDEST SWAP3 POP POP DUP2 SWAP1 SSTORE POP POP JUMP JUMPDEST PUSH2 0x4ED PUSH2 0xB87 JUMP JUMPDEST PUSH1 0x0 PUSH1 0x40 MLOAD DUP1 PUSH1 0x60 ADD PUSH1 0x40 MSTORE DUP1 DUP5 DUP2 MSTORE PUSH1 0x20 ADD DUP4 DUP2 MSTORE PUSH1 0x20 ADD PUSH1 0x0 DUP2 MSTORE POP SWAP1 POP PUSH1 0x0 PUSH1 0x6 PUSH1 0x0 DUP7 PUSH20 0xFFFFFFFFFFFFFFFFFFFFFFFFFFFFFFFFFFFFFFFF AND PUSH20 0xFFFFFFFFFFFFFFFFFFFFFFFFFFFFFFFFFFFFFFFF AND DUP2 MSTORE PUSH1 0x20 ADD SWAP1 DUP2 MSTORE PUSH1 0x20 ADD PUSH1 0x0 KECCAK256 SLOAD SWAP1 POP PUSH1 0x0 PUSH1 0x1 DUP3 PUSH2 0x560 SWAP2 SWAP1 PUSH2 0xF87 JUMP JUMPDEST SWAP1 POP DUP3 PUSH1 0x7 PUSH1 0x0 DUP9 PUSH20 0xFFFFFFFFFFFFFFFFFFFFFFFFFFFFFFFFFFFFFFFF AND PUSH20 0xFFFFFFFFFFFFFFFFFFFFFFFFFFFFFFFFFFFFFFFF AND DUP2 MSTORE PUSH1 0x20 ADD SWAP1 DUP2 MSTORE PUSH1 0x20 ADD PUSH1 0x0 KECCAK256 PUSH1 0x0 DUP4 DUP2 MSTORE PUSH1 0x20 ADD SWAP1 DUP2 MSTORE PUSH1 0x20 ADD PUSH1 0x0 KECCAK256 PUSH1 0x0 DUP3 ADD MLOAD DUP2 PUSH1 0x0 ADD SSTORE PUSH1 0x20 DUP3 ADD MLOAD DUP2 PUSH1 0x1 ADD SSTORE PUSH1 0x40 DUP3 ADD MLOAD DUP2 PUSH1 0x2 ADD SSTORE SWAP1 POP POP PUSH1 0x0 DUP3 EQ PUSH2 0x635 JUMPI DUP1 PUSH1 0x7 PUSH1 0x0 DUP9 PUSH20 0xFFFFFFFFFFFFFFFFFFFFFFFFFFFFFFFFFFFFFFFF AND PUSH20 0xFFFFFFFFFFFFFFFFFFFFFFFFFFFFFFFFFFFFFFFF AND DUP2 MSTORE PUSH1 0x20 ADD SWAP1 DUP2 MSTORE PUSH1 0x20 ADD PUSH1 0x0 KECCAK256 PUSH1 0x0 DUP5 DUP2 MSTORE PUSH1 0x20 ADD SWAP1 DUP2 MSTORE PUSH1 0x20 ADD PUSH1 0x0 KECCAK256 PUSH1 0x2 ADD DUP2 SWAP1 SSTORE POP JUMPDEST DUP1 PUSH1 0x6 PUSH1 0x0 DUP9 PUSH20 0xFFFFFFFFFFFFFFFFFFFFFFFFFFFFFFFFFFFFFFFF AND PUSH20 0xFFFFFFFFFFFFFFFFFFFFFFFFFFFFFFFFFFFFFFFF AND DUP2 MSTORE PUSH1 0x20 ADD SWAP1 DUP2 MSTORE PUSH1 0x20 ADD PUSH1 0x0 KECCAK256 DUP2 SWAP1 SSTORE POP PUSH1 0x0 PUSH1 0x5 PUSH1 0x0 DUP9 PUSH20 0xFFFFFFFFFFFFFFFFFFFFFFFFFFFFFFFFFFFFFFFF AND PUSH20 0xFFFFFFFFFFFFFFFFFFFFFFFFFFFFFFFFFFFFFFFF AND DUP2 MSTORE PUSH1 0x20 ADD SWAP1 DUP2 MSTORE PUSH1 0x20 ADD PUSH1 0x0 KECCAK256 SLOAD EQ ISZERO PUSH2 0x706 JUMPI DUP1 PUSH1 0x5 PUSH1 0x0 DUP9 PUSH20 0xFFFFFFFFFFFFFFFFFFFFFFFFFFFFFFFFFFFFFFFF AND PUSH20 0xFFFFFFFFFFFFFFFFFFFFFFFFFFFFFFFFFFFFFFFF AND DUP2 MSTORE PUSH1 0x20 ADD SWAP1 DUP2 MSTORE PUSH1 0x20 ADD PUSH1 0x0 KECCAK256 DUP2 SWAP1 SSTORE POP JUMPDEST POP POP POP POP POP POP JUMP JUMPDEST PUSH1 0x5 PUSH1 0x20 MSTORE DUP1 PUSH1 0x0 MSTORE PUSH1 0x40 PUSH1 0x0 KECCAK256 PUSH1 0x0 SWAP2 POP SWAP1 POP SLOAD DUP2 JUMP JUMPDEST PUSH2 0x72E PUSH2 0xB87 JUMP JUMPDEST PUSH2 0x738 PUSH1 0x0 PUSH2 0xC05 JUMP JUMPDEST JUMP JUMPDEST PUSH2 0x742 PUSH2 0xB87 JUMP JUMPDEST DUP1 PUSH1 0x5 PUSH1 0x0 DUP5 PUSH20 0xFFFFFFFFFFFFFFFFFFFFFFFFFFFFFFFFFFFFFFFF AND PUSH20 0xFFFFFFFFFFFFFFFFFFFFFFFFFFFFFFFFFFFFFFFF AND DUP2 MSTORE PUSH1 0x20 ADD SWAP1 DUP2 MSTORE PUSH1 0x20 ADD PUSH1 0x0 KECCAK256 DUP2 SWAP1 SSTORE POP POP POP JUMP JUMPDEST PUSH2 0x792 PUSH2 0xB87 JUMP JUMPDEST DUP1 PUSH1 0x6 PUSH1 0x0 DUP5 PUSH20 0xFFFFFFFFFFFFFFFFFFFFFFFFFFFFFFFFFFFFFFFF AND PUSH20 0xFFFFFFFFFFFFFFFFFFFFFFFFFFFFFFFFFFFFFFFF AND DUP2 MSTORE PUSH1 0x20 ADD SWAP1 DUP2 MSTORE PUSH1 0x20 ADD PUSH1 0x0 KECCAK256 DUP2 SWAP1 SSTORE POP POP POP JUMP JUMPDEST PUSH1 0x0 DUP1 PUSH1 0x0 SWAP1 SLOAD SWAP1 PUSH2 0x100 EXP SWAP1 DIV PUSH20 0xFFFFFFFFFFFFFFFFFFFFFFFFFFFFFFFFFFFFFFFF AND SWAP1 POP SWAP1 JUMP JUMPDEST PUSH2 0x80B PUSH2 0xB87 JUMP JUMPDEST DUP1 PUSH1 0x4 PUSH1 0x0 DUP3 DUP3 SLOAD PUSH2 0x81D SWAP2 SWAP1 PUSH2 0xF87 JUMP JUMPDEST SWAP3 POP POP DUP2 SWAP1 SSTORE POP POP JUMP JUMPDEST PUSH1 0x1 PUSH1 0x20 MSTORE DUP1 PUSH1 0x0 MSTORE PUSH1 0x40 PUSH1 0x0 KECCAK256 PUSH1 0x0 SWAP2 POP SWAP1 POP SLOAD DUP2 JUMP JUMPDEST PUSH2 0x847 PUSH2 0xCD1 JUMP JUMPDEST PUSH1 0x7 PUSH1 0x0 DUP5 PUSH20 0xFFFFFFFFFFFFFFFFFFFFFFFFFFFFFFFFFFFFFFFF AND PUSH20 0xFFFFFFFFFFFFFFFFFFFFFFFFFFFFFFFFFFFFFFFF AND DUP2 MSTORE PUSH1 0x20 ADD SWAP1 DUP2 MSTORE PUSH1 0x20 ADD PUSH1 0x0 KECCAK256 PUSH1 0x0 DUP4 DUP2 MSTORE PUSH1 0x20 ADD SWAP1 DUP2 MSTORE PUSH1 0x20 ADD PUSH1 0x0 KECCAK256 PUSH1 0x40 MLOAD DUP1 PUSH1 0x60 ADD PUSH1 0x40 MSTORE SWAP1 DUP2 PUSH1 0x0 DUP3 ADD SLOAD DUP2 MSTORE PUSH1 0x20 ADD PUSH1 0x1 DUP3 ADD SLOAD DUP2 MSTORE PUSH1 0x20 ADD PUSH1 0x2 DUP3 ADD SLOAD DUP2 MSTORE POP POP SWAP1 POP SWAP3 SWAP2 POP POP JUMP JUMPDEST PUSH1 0x6 PUSH1 0x20 MSTORE DUP1 PUSH1 0x0 MSTORE PUSH1 0x40 PUSH1 0x0 KECCAK256 PUSH1 0x0 SWAP2 POP SWAP1 POP SLOAD DUP2 JUMP JUMPDEST PUSH2 0x8E8 PUSH2 0xB87 JUMP JUMPDEST DUP1 PUSH1 0x4 PUSH1 0x0 DUP3 DUP3 SLOAD PUSH2 0x8FA SWAP2 SWAP1 PUSH2 0xFDD JUMP JUMPDEST SWAP3 POP POP DUP2 SWAP1 SSTORE POP POP JUMP JUMPDEST PUSH1 0x3 SLOAD DUP2 JUMP JUMPDEST PUSH2 0x912 PUSH2 0xB87 JUMP JUMPDEST DUP1 PUSH1 0x1 PUSH1 0x0 DUP5 PUSH20 0xFFFFFFFFFFFFFFFFFFFFFFFFFFFFFFFFFFFFFFFF AND PUSH20 0xFFFFFFFFFFFFFFFFFFFFFFFFFFFFFFFFFFFFFFFF AND DUP2 MSTORE PUSH1 0x20 ADD SWAP1 DUP2 MSTORE PUSH1 0x20 ADD PUSH1 0x0 KECCAK256 PUSH1 0x0 DUP3 DUP3 SLOAD PUSH2 0x961 SWAP2 SWAP1 PUSH2 0xFDD JUMP JUMPDEST SWAP3 POP POP DUP2 SWAP1 SSTORE POP POP POP JUMP JUMPDEST PUSH2 0x974 PUSH2 0xB87 JUMP JUMPDEST DUP1 PUSH1 0x3 PUSH1 0x0 DUP3 DUP3 SLOAD PUSH2 0x986 SWAP2 SWAP1 PUSH2 0xF87 JUMP JUMPDEST SWAP3 POP POP DUP2 SWAP1 SSTORE POP POP JUMP JUMPDEST PUSH1 0x4 SLOAD DUP2 JUMP JUMPDEST PUSH2 0x99E PUSH2 0xB87 JUMP JUMPDEST PUSH1 0x7 PUSH1 0x0 DUP4 PUSH20 0xFFFFFFFFFFFFFFFFFFFFFFFFFFFFFFFFFFFFFFFF AND PUSH20 0xFFFFFFFFFFFFFFFFFFFFFFFFFFFFFFFFFFFFFFFF AND DUP2 MSTORE PUSH1 0x20 ADD SWAP1 DUP2 MSTORE PUSH1 0x20 ADD PUSH1 0x0 KECCAK256 PUSH1 0x0 DUP3 DUP2 MSTORE PUSH1 0x20 ADD SWAP1 DUP2 MSTORE PUSH1 0x20 ADD PUSH1 0x0 KECCAK256 PUSH1 0x0 DUP1 DUP3 ADD PUSH1 0x0 SWAP1 SSTORE PUSH1 0x1 DUP3 ADD PUSH1 0x0 SWAP1 SSTORE PUSH1 0x2 DUP3 ADD PUSH1 0x0 SWAP1 SSTORE POP POP POP POP JUMP JUMPDEST PUSH2 0xA15 PUSH2 0xB87 JUMP JUMPDEST DUP1 PUSH1 0x2 PUSH1 0x0 DUP3 DUP3 SLOAD PUSH2 0xA27 SWAP2 SWAP1 PUSH2 0xF87 JUMP JUMPDEST SWAP3 POP POP DUP2 SWAP1 SSTORE POP POP JUMP JUMPDEST PUSH2 0xA39 PUSH2 0xB87 JUMP JUMPDEST DUP1 PUSH1 0x7 PUSH1 0x0 DUP6 PUSH20 0xFFFFFFFFFFFFFFFFFFFFFFFFFFFFFFFFFFFFFFFF AND PUSH20 0xFFFFFFFFFFFFFFFFFFFFFFFFFFFFFFFFFFFFFFFF AND DUP2 MSTORE PUSH1 0x20 ADD SWAP1 DUP2 MSTORE PUSH1 0x20 ADD PUSH1 0x0 KECCAK256 PUSH1 0x0 DUP5 DUP2 MSTORE PUSH1 0x20 ADD SWAP1 DUP2 MSTORE PUSH1 0x20 ADD PUSH1 0x0 KECCAK256 PUSH1 0x1 ADD PUSH1 0x0 DUP3 DUP3 SLOAD PUSH2 0xA9C SWAP2 SWAP1 PUSH2 0xFDD JUMP JUMPDEST SWAP3 POP POP DUP2 SWAP1 SSTORE POP POP POP POP JUMP JUMPDEST PUSH1 0x7 PUSH1 0x20 MSTORE DUP2 PUSH1 0x0 MSTORE PUSH1 0x40 PUSH1 0x0 KECCAK256 PUSH1 0x20 MSTORE DUP1 PUSH1 0x0 MSTORE PUSH1 0x40 PUSH1 0x0 KECCAK256 PUSH1 0x0 SWAP2 POP SWAP2 POP POP DUP1 PUSH1 0x0 ADD SLOAD SWAP1 DUP1 PUSH1 0x1 ADD SLOAD SWAP1 DUP1 PUSH1 0x2 ADD SLOAD SWAP1 POP DUP4 JUMP JUMPDEST PUSH2 0xAE7 PUSH2 0xB87 JUMP JUMPDEST PUSH1 0x0 PUSH20 0xFFFFFFFFFFFFFFFFFFFFFFFFFFFFFFFFFFFFFFFF AND DUP2 PUSH20 0xFFFFFFFFFFFFFFFFFFFFFFFFFFFFFFFFFFFFFFFF AND EQ ISZERO PUSH2 0xB57 JUMPI PUSH1 0x40 MLOAD PUSH32 0x8C379A000000000000000000000000000000000000000000000000000000000 DUP2 MSTORE PUSH1 0x4 ADD PUSH2 0xB4E SWAP1 PUSH2 0xEC9 JUMP JUMPDEST PUSH1 0x40 MLOAD DUP1 SWAP2 SUB SWAP1 REVERT JUMPDEST PUSH2 0xB60 DUP2 PUSH2 0xC05 JUMP JUMPDEST POP JUMP JUMPDEST PUSH2 0xB6B PUSH2 0xB87 JUMP JUMPDEST DUP1 PUSH1 0x3 PUSH1 0x0 DUP3 DUP3 SLOAD PUSH2 0xB7D SWAP2 SWAP1 PUSH2 0xFDD JUMP JUMPDEST SWAP3 POP POP DUP2 SWAP1 SSTORE POP POP JUMP JUMPDEST PUSH2 0xB8F PUSH2 0xCC9 JUMP JUMPDEST PUSH20 0xFFFFFFFFFFFFFFFFFFFFFFFFFFFFFFFFFFFFFFFF AND PUSH2 0xBAD PUSH2 0x7DA JUMP JUMPDEST PUSH20 0xFFFFFFFFFFFFFFFFFFFFFFFFFFFFFFFFFFFFFFFF AND EQ PUSH2 0xC03 JUMPI PUSH1 0x40 MLOAD PUSH32 0x8C379A000000000000000000000000000000000000000000000000000000000 DUP2 MSTORE PUSH1 0x4 ADD PUSH2 0xBFA SWAP1 PUSH2 0xEE9 JUMP JUMPDEST PUSH1 0x40 MLOAD DUP1 SWAP2 SUB SWAP1 REVERT JUMPDEST JUMP JUMPDEST PUSH1 0x0 DUP1 PUSH1 0x0 SWAP1 SLOAD SWAP1 PUSH2 0x100 EXP SWAP1 DIV PUSH20 0xFFFFFFFFFFFFFFFFFFFFFFFFFFFFFFFFFFFFFFFF AND SWAP1 POP DUP2 PUSH1 0x0 DUP1 PUSH2 0x100 EXP DUP2 SLOAD DUP2 PUSH20 0xFFFFFFFFFFFFFFFFFFFFFFFFFFFFFFFFFFFFFFFF MUL NOT AND SWAP1 DUP4 PUSH20 0xFFFFFFFFFFFFFFFFFFFFFFFFFFFFFFFFFFFFFFFF AND MUL OR SWAP1 SSTORE POP DUP2 PUSH20 0xFFFFFFFFFFFFFFFFFFFFFFFFFFFFFFFFFFFFFFFF AND DUP2 PUSH20 0xFFFFFFFFFFFFFFFFFFFFFFFFFFFFFFFFFFFFFFFF AND PUSH32 0x8BE0079C531659141344CD1FD0A4F28419497F9722A3DAAFE3B4186F6B6457E0 PUSH1 0x40 MLOAD PUSH1 0x40 MLOAD DUP1 SWAP2 SUB SWAP1 LOG3 POP POP JUMP JUMPDEST PUSH1 0x0 CALLER SWAP1 POP SWAP1 JUMP JUMPDEST PUSH1 0x40 MLOAD DUP1 PUSH1 0x60 ADD PUSH1 0x40 MSTORE DUP1 PUSH1 0x0 DUP2 MSTORE PUSH1 0x20 ADD PUSH1 0x0 DUP2 MSTORE PUSH1 0x20 ADD PUSH1 0x0 DUP2 MSTORE POP SWAP1 JUMP JUMPDEST PUSH1 0x0 DUP2 CALLDATALOAD SWAP1 POP PUSH2 0xD01 DUP2 PUSH2 0x10F4 JUMP JUMPDEST SWAP3 SWAP2 POP POP JUMP JUMPDEST PUSH1 0x0 DUP2 CALLDATALOAD SWAP1 POP PUSH2 0xD16 DUP2 PUSH2 0x110B JUMP JUMPDEST SWAP3 SWAP2 POP POP JUMP JUMPDEST PUSH1 0x0 PUSH1 0x20 DUP3 DUP5 SUB SLT ISZERO PUSH2 0xD2E JUMPI PUSH1 0x0 DUP1 REVERT JUMPDEST PUSH1 0x0 PUSH2 0xD3C DUP5 DUP3 DUP6 ADD PUSH2 0xCF2 JUMP JUMPDEST SWAP2 POP POP SWAP3 SWAP2 POP POP JUMP JUMPDEST PUSH1 0x0 DUP1 PUSH1 0x40 DUP4 DUP6 SUB SLT ISZERO PUSH2 0xD58 JUMPI PUSH1 0x0 DUP1 REVERT JUMPDEST PUSH1 0x0 PUSH2 0xD66 DUP6 DUP3 DUP7 ADD PUSH2 0xCF2 JUMP JUMPDEST SWAP3 POP POP PUSH1 0x20 PUSH2 0xD77 DUP6 DUP3 DUP7 ADD PUSH2 0xD07 JUMP JUMPDEST SWAP2 POP POP SWAP3 POP SWAP3 SWAP1 POP JUMP JUMPDEST PUSH1 0x0 DUP1 PUSH1 0x0 PUSH1 0x60 DUP5 DUP7 SUB SLT ISZERO PUSH2 0xD96 JUMPI PUSH1 0x0 DUP1 REVERT JUMPDEST PUSH1 0x0 PUSH2 0xDA4 DUP7 DUP3 DUP8 ADD PUSH2 0xCF2 JUMP JUMPDEST SWAP4 POP POP PUSH1 0x20 PUSH2 0xDB5 DUP7 DUP3 DUP8 ADD PUSH2 0xD07 JUMP JUMPDEST SWAP3 POP POP PUSH1 0x40 PUSH2 0xDC6 DUP7 DUP3 DUP8 ADD PUSH2 0xD07 JUMP JUMPDEST SWAP2 POP POP SWAP3 POP SWAP3 POP SWAP3 JUMP JUMPDEST PUSH1 0x0 PUSH1 0x20 DUP3 DUP5 SUB SLT ISZERO PUSH2 0xDE2 JUMPI PUSH1 0x0 DUP1 REVERT JUMPDEST PUSH1 0x0 PUSH2 0xDF0 DUP5 DUP3 DUP6 ADD PUSH2 0xD07 JUMP JUMPDEST SWAP2 POP POP SWAP3 SWAP2 POP POP JUMP JUMPDEST PUSH2 0xE02 DUP2 PUSH2 0x1011 JUMP JUMPDEST DUP3 MSTORE POP POP JUMP JUMPDEST PUSH1 0x0 PUSH2 0xE15 PUSH1 0x26 DUP4 PUSH2 0xF76 JUMP JUMPDEST SWAP2 POP PUSH2 0xE20 DUP3 PUSH2 0x107C JUMP JUMPDEST PUSH1 0x40 DUP3 ADD SWAP1 POP SWAP2 SWAP1 POP JUMP JUMPDEST PUSH1 0x0 PUSH2 0xE38 PUSH1 0x20 DUP4 PUSH2 0xF76 JUMP JUMPDEST SWAP2 POP PUSH2 0xE43 DUP3 PUSH2 0x10CB JUMP JUMPDEST PUSH1 0x20 DUP3 ADD SWAP1 POP SWAP2 SWAP1 POP JUMP JUMPDEST PUSH1 0x60 DUP3 ADD PUSH1 0x0 DUP3 ADD MLOAD PUSH2 0xE64 PUSH1 0x0 DUP6 ADD DUP3 PUSH2 0xE90 JUMP JUMPDEST POP PUSH1 0x20 DUP3 ADD MLOAD PUSH2 0xE77 PUSH1 0x20 DUP6 ADD DUP3 PUSH2 0xE90 JUMP JUMPDEST POP PUSH1 0x40 DUP3 ADD MLOAD PUSH2 0xE8A PUSH1 0x40 DUP6 ADD DUP3 PUSH2 0xE90 JUMP JUMPDEST POP POP POP POP JUMP JUMPDEST PUSH2 0xE99 DUP2 PUSH2 0x1043 JUMP JUMPDEST DUP3 MSTORE POP POP JUMP JUMPDEST PUSH2 0xEA8 DUP2 PUSH2 0x1043 JUMP JUMPDEST DUP3 MSTORE POP POP JUMP JUMPDEST PUSH1 0x0 PUSH1 0x20 DUP3 ADD SWAP1 POP PUSH2 0xEC3 PUSH1 0x0 DUP4 ADD DUP5 PUSH2 0xDF9 JUMP JUMPDEST SWAP3 SWAP2 POP POP JUMP JUMPDEST PUSH1 0x0 PUSH1 0x20 DUP3 ADD SWAP1 POP DUP2 DUP2 SUB PUSH1 0x0 DUP4 ADD MSTORE PUSH2 0xEE2 DUP2 PUSH2 0xE08 JUMP JUMPDEST SWAP1 POP SWAP2 SWAP1 POP JUMP JUMPDEST PUSH1 0x0 PUSH1 0x20 DUP3 ADD SWAP1 POP DUP2 DUP2 SUB PUSH1 0x0 DUP4 ADD MSTORE PUSH2 0xF02 DUP2 PUSH2 0xE2B JUMP JUMPDEST SWAP1 POP SWAP2 SWAP1 POP JUMP JUMPDEST PUSH1 0x0 PUSH1 0x60 DUP3 ADD SWAP1 POP PUSH2 0xF1E PUSH1 0x0 DUP4 ADD DUP5 PUSH2 0xE4E JUMP JUMPDEST SWAP3 SWAP2 POP POP JUMP JUMPDEST PUSH1 0x0 PUSH1 0x20 DUP3 ADD SWAP1 POP PUSH2 0xF39 PUSH1 0x0 DUP4 ADD DUP5 PUSH2 0xE9F JUMP JUMPDEST SWAP3 SWAP2 POP POP JUMP JUMPDEST PUSH1 0x0 PUSH1 0x60 DUP3 ADD SWAP1 POP PUSH2 0xF54 PUSH1 0x0 DUP4 ADD DUP7 PUSH2 0xE9F JUMP JUMPDEST PUSH2 0xF61 PUSH1 0x20 DUP4 ADD DUP6 PUSH2 0xE9F JUMP JUMPDEST PUSH2 0xF6E PUSH1 0x40 DUP4 ADD DUP5 PUSH2 0xE9F JUMP JUMPDEST SWAP5 SWAP4 POP POP POP POP JUMP JUMPDEST PUSH1 0x0 DUP3 DUP3 MSTORE PUSH1 0x20 DUP3 ADD SWAP1 POP SWAP3 SWAP2 POP POP JUMP JUMPDEST PUSH1 0x0 PUSH2 0xF92 DUP3 PUSH2 0x1043 JUMP JUMPDEST SWAP2 POP PUSH2 0xF9D DUP4 PUSH2 0x1043 JUMP JUMPDEST SWAP3 POP DUP3 PUSH32 0xFFFFFFFFFFFFFFFFFFFFFFFFFFFFFFFFFFFFFFFFFFFFFFFFFFFFFFFFFFFFFFFF SUB DUP3 GT ISZERO PUSH2 0xFD2 JUMPI PUSH2 0xFD1 PUSH2 0x104D JUMP JUMPDEST JUMPDEST DUP3 DUP3 ADD SWAP1 POP SWAP3 SWAP2 POP POP JUMP JUMPDEST PUSH1 0x0 PUSH2 0xFE8 DUP3 PUSH2 0x1043 JUMP JUMPDEST SWAP2 POP PUSH2 0xFF3 DUP4 PUSH2 0x1043 JUMP JUMPDEST SWAP3 POP DUP3 DUP3 LT ISZERO PUSH2 0x1006 JUMPI PUSH2 0x1005 PUSH2 0x104D JUMP JUMPDEST JUMPDEST DUP3 DUP3 SUB SWAP1 POP SWAP3 SWAP2 POP POP JUMP JUMPDEST PUSH1 0x0 PUSH2 0x101C DUP3 PUSH2 0x1023 JUMP JUMPDEST SWAP1 POP SWAP2 SWAP1 POP JUMP JUMPDEST PUSH1 0x0 PUSH20 0xFFFFFFFFFFFFFFFFFFFFFFFFFFFFFFFFFFFFFFFF DUP3 AND SWAP1 POP SWAP2 SWAP1 POP JUMP JUMPDEST PUSH1 0x0 DUP2 SWAP1 POP SWAP2 SWAP1 POP JUMP JUMPDEST PUSH32 0x4E487B7100000000000000000000000000000000000000000000000000000000 PUSH1 0x0 MSTORE PUSH1 0x11 PUSH1 0x4 MSTORE PUSH1 0x24 PUSH1 0x0 REVERT JUMPDEST PUSH32 0x4F776E61626C653A206E6577206F776E657220697320746865207A65726F2061 PUSH1 0x0 DUP3 ADD MSTORE PUSH32 0x6464726573730000000000000000000000000000000000000000000000000000 PUSH1 0x20 DUP3 ADD MSTORE POP JUMP JUMPDEST PUSH32 0x4F776E61626C653A2063616C6C6572206973206E6F7420746865206F776E6572 PUSH1 0x0 DUP3 ADD MSTORE POP JUMP JUMPDEST PUSH2 0x10FD DUP2 PUSH2 0x1011 JUMP JUMPDEST DUP2 EQ PUSH2 0x1108 JUMPI PUSH1 0x0 DUP1 REVERT JUMPDEST POP JUMP JUMPDEST PUSH2 0x1114 DUP2 PUSH2 0x1043 JUMP JUMPDEST DUP2 EQ PUSH2 0x111F JUMPI PUSH1 0x0 DUP1 REVERT JUMPDEST POP JUMP INVALID LOG2 PUSH5 0x6970667358 0x22 SLT KECCAK256 0xC 0xC1 0xE4 SWAP9 0xE4 DUP11 CALLDATALOAD CREATE 0xDE 0xDA 0x2D 0x24 PC 0xCC 0x22 0xAE 0xEC 0xAA 0xBD DUP11 0xD1 0xAA SDIV BLOCKHASH CALL LOG0 0xA7 0xBE SDIV 0xFB 0xA9 SLOAD PUSH5 0x736F6C6343 STOP ADDMOD DIV STOP CALLER PUSH1 0x80 PUSH1 0x40 MSTORE CALLVALUE DUP1 ISZERO PUSH3 0x11 JUMPI PUSH1 0x0 DUP1 REVERT JUMPDEST POP PUSH3 0x32 PUSH3 0x26 PUSH3 0x49 PUSH1 0x20 SHL PUSH1 0x20 SHR JUMP JUMPDEST PUSH3 0x51 PUSH1 0x20 SHL PUSH1 0x20 SHR JUMP JUMPDEST PUSH3 0x43 CALLER PUSH3 0x115 PUSH1 0x20 SHL PUSH1 0x20 SHR JUMP JUMPDEST PUSH3 0x381 JUMP JUMPDEST PUSH1 0x0 CALLER SWAP1 POP SWAP1 JUMP JUMPDEST PUSH1 0x0 DUP1 PUSH1 0x0 SWAP1 SLOAD SWAP1 PUSH2 0x100 EXP SWAP1 DIV PUSH20 0xFFFFFFFFFFFFFFFFFFFFFFFFFFFFFFFFFFFFFFFF AND SWAP1 POP DUP2 PUSH1 0x0 DUP1 PUSH2 0x100 EXP DUP2 SLOAD DUP2 PUSH20 0xFFFFFFFFFFFFFFFFFFFFFFFFFFFFFFFFFFFFFFFF MUL NOT AND SWAP1 DUP4 PUSH20 0xFFFFFFFFFFFFFFFFFFFFFFFFFFFFFFFFFFFFFFFF AND MUL OR SWAP1 SSTORE POP DUP2 PUSH20 0xFFFFFFFFFFFFFFFFFFFFFFFFFFFFFFFFFFFFFFFF AND DUP2 PUSH20 0xFFFFFFFFFFFFFFFFFFFFFFFFFFFFFFFFFFFFFFFF AND PUSH32 0x8BE0079C531659141344CD1FD0A4F28419497F9722A3DAAFE3B4186F6B6457E0 PUSH1 0x40 MLOAD PUSH1 0x40 MLOAD DUP1 SWAP2 SUB SWAP1 LOG3 POP POP JUMP JUMPDEST PUSH3 0x125 PUSH3 0x1AC PUSH1 0x20 SHL PUSH1 0x20 SHR JUMP JUMPDEST PUSH1 0x0 PUSH20 0xFFFFFFFFFFFFFFFFFFFFFFFFFFFFFFFFFFFFFFFF AND DUP2 PUSH20 0xFFFFFFFFFFFFFFFFFFFFFFFFFFFFFFFFFFFFFFFF AND EQ ISZERO PUSH3 0x198 JUMPI PUSH1 0x40 MLOAD PUSH32 0x8C379A000000000000000000000000000000000000000000000000000000000 DUP2 MSTORE PUSH1 0x4 ADD PUSH3 0x18F SWAP1 PUSH3 0x2B4 JUMP JUMPDEST PUSH1 0x40 MLOAD DUP1 SWAP2 SUB SWAP1 REVERT JUMPDEST PUSH3 0x1A9 DUP2 PUSH3 0x51 PUSH1 0x20 SHL PUSH1 0x20 SHR JUMP JUMPDEST POP JUMP JUMPDEST PUSH3 0x1BC PUSH3 0x49 PUSH1 0x20 SHL PUSH1 0x20 SHR JUMP JUMPDEST PUSH20 0xFFFFFFFFFFFFFFFFFFFFFFFFFFFFFFFFFFFFFFFF AND PUSH3 0x1E2 PUSH3 0x23D PUSH1 0x20 SHL PUSH1 0x20 SHR JUMP JUMPDEST PUSH20 0xFFFFFFFFFFFFFFFFFFFFFFFFFFFFFFFFFFFFFFFF AND EQ PUSH3 0x23B JUMPI PUSH1 0x40 MLOAD PUSH32 0x8C379A000000000000000000000000000000000000000000000000000000000 DUP2 MSTORE PUSH1 0x4 ADD PUSH3 0x232 SWAP1 PUSH3 0x2D6 JUMP JUMPDEST PUSH1 0x40 MLOAD DUP1 SWAP2 SUB SWAP1 REVERT JUMPDEST JUMP JUMPDEST PUSH1 0x0 DUP1 PUSH1 0x0 SWAP1 SLOAD SWAP1 PUSH2 0x100 EXP SWAP1 DIV PUSH20 0xFFFFFFFFFFFFFFFFFFFFFFFFFFFFFFFFFFFFFFFF AND SWAP1 POP SWAP1 JUMP JUMPDEST PUSH1 0x0 PUSH3 0x275 PUSH1 0x26 DUP4 PUSH3 0x2F8 JUMP JUMPDEST SWAP2 POP PUSH3 0x282 DUP3 PUSH3 0x309 JUMP JUMPDEST PUSH1 0x40 DUP3 ADD SWAP1 POP SWAP2 SWAP1 POP JUMP JUMPDEST PUSH1 0x0 PUSH3 0x29C PUSH1 0x20 DUP4 PUSH3 0x2F8 JUMP JUMPDEST SWAP2 POP PUSH3 0x2A9 DUP3 PUSH3 0x358 JUMP JUMPDEST PUSH1 0x20 DUP3 ADD SWAP1 POP SWAP2 SWAP1 POP JUMP JUMPDEST PUSH1 0x0 PUSH1 0x20 DUP3 ADD SWAP1 POP DUP2 DUP2 SUB PUSH1 0x0 DUP4 ADD MSTORE PUSH3 0x2CF DUP2 PUSH3 0x266 JUMP JUMPDEST SWAP1 POP SWAP2 SWAP1 POP JUMP JUMPDEST PUSH1 0x0 PUSH1 0x20 DUP3 ADD SWAP1 POP DUP2 DUP2 SUB PUSH1 0x0 DUP4 ADD MSTORE PUSH3 0x2F1 DUP2 PUSH3 0x28D JUMP JUMPDEST SWAP1 POP SWAP2 SWAP1 POP JUMP JUMPDEST PUSH1 0x0 DUP3 DUP3 MSTORE PUSH1 0x20 DUP3 ADD SWAP1 POP SWAP3 SWAP2 POP POP JUMP JUMPDEST PUSH32 0x4F776E61626C653A206E6577206F776E657220697320746865207A65726F2061 PUSH1 0x0 DUP3 ADD MSTORE PUSH32 0x6464726573730000000000000000000000000000000000000000000000000000 PUSH1 0x20 DUP3 ADD MSTORE POP JUMP JUMPDEST PUSH32 0x4F776E61626C653A2063616C6C6572206973206E6F7420746865206F776E6572 PUSH1 0x0 DUP3 ADD MSTORE POP JUMP JUMPDEST PUSH2 0xB55 DUP1 PUSH3 0x391 PUSH1 0x0 CODECOPY PUSH1 0x0 RETURN INVALID PUSH1 0x80 PUSH1 0x40 MSTORE CALLVALUE DUP1 ISZERO PUSH2 0x10 JUMPI PUSH1 0x0 DUP1 REVERT JUMPDEST POP PUSH1 0x4 CALLDATASIZE LT PUSH2 0x93 JUMPI PUSH1 0x0 CALLDATALOAD PUSH1 0xE0 SHR DUP1 PUSH4 0x9DC29FAC GT PUSH2 0x66 JUMPI DUP1 PUSH4 0x9DC29FAC EQ PUSH2 0xFA JUMPI DUP1 PUSH4 0xAEE9C872 EQ PUSH2 0x116 JUMPI DUP1 PUSH4 0xBEABACC8 EQ PUSH2 0x146 JUMPI DUP1 PUSH4 0xD89135CD EQ PUSH2 0x162 JUMPI DUP1 PUSH4 0xF2FDE38B EQ PUSH2 0x180 JUMPI PUSH2 0x93 JUMP JUMPDEST DUP1 PUSH4 0x18160DDD EQ PUSH2 0x98 JUMPI DUP1 PUSH4 0x40C10F19 EQ PUSH2 0xB6 JUMPI DUP1 PUSH4 0x715018A6 EQ PUSH2 0xD2 JUMPI DUP1 PUSH4 0x8DA5CB5B EQ PUSH2 0xDC JUMPI JUMPDEST PUSH1 0x0 DUP1 REVERT JUMPDEST PUSH2 0xA0 PUSH2 0x19C JUMP JUMPDEST PUSH1 0x40 MLOAD PUSH2 0xAD SWAP2 SWAP1 PUSH2 0x8BA JUMP JUMPDEST PUSH1 0x40 MLOAD DUP1 SWAP2 SUB SWAP1 RETURN JUMPDEST PUSH2 0xD0 PUSH1 0x4 DUP1 CALLDATASIZE SUB DUP2 ADD SWAP1 PUSH2 0xCB SWAP2 SWAP1 PUSH2 0x739 JUMP JUMPDEST PUSH2 0x1A2 JUMP JUMPDEST STOP JUMPDEST PUSH2 0xDA PUSH2 0x21D JUMP JUMPDEST STOP JUMPDEST PUSH2 0xE4 PUSH2 0x231 JUMP JUMPDEST PUSH1 0x40 MLOAD PUSH2 0xF1 SWAP2 SWAP1 PUSH2 0x81F JUMP JUMPDEST PUSH1 0x40 MLOAD DUP1 SWAP2 SUB SWAP1 RETURN JUMPDEST PUSH2 0x114 PUSH1 0x4 DUP1 CALLDATASIZE SUB DUP2 ADD SWAP1 PUSH2 0x10F SWAP2 SWAP1 PUSH2 0x739 JUMP JUMPDEST PUSH2 0x25A JUMP JUMPDEST STOP JUMPDEST PUSH2 0x130 PUSH1 0x4 DUP1 CALLDATASIZE SUB DUP2 ADD SWAP1 PUSH2 0x12B SWAP2 SWAP1 PUSH2 0x6C1 JUMP JUMPDEST PUSH2 0x370 JUMP JUMPDEST PUSH1 0x40 MLOAD PUSH2 0x13D SWAP2 SWAP1 PUSH2 0x8BA JUMP JUMPDEST PUSH1 0x40 MLOAD DUP1 SWAP2 SUB SWAP1 RETURN JUMPDEST PUSH2 0x160 PUSH1 0x4 DUP1 CALLDATASIZE SUB DUP2 ADD SWAP1 PUSH2 0x15B SWAP2 SWAP1 PUSH2 0x6EA JUMP JUMPDEST PUSH2 0x388 JUMP JUMPDEST STOP JUMPDEST PUSH2 0x16A PUSH2 0x4C3 JUMP JUMPDEST PUSH1 0x40 MLOAD PUSH2 0x177 SWAP2 SWAP1 PUSH2 0x8BA JUMP JUMPDEST PUSH1 0x40 MLOAD DUP1 SWAP2 SUB SWAP1 RETURN JUMPDEST PUSH2 0x19A PUSH1 0x4 DUP1 CALLDATASIZE SUB DUP2 ADD SWAP1 PUSH2 0x195 SWAP2 SWAP1 PUSH2 0x6C1 JUMP JUMPDEST PUSH2 0x4C9 JUMP JUMPDEST STOP JUMPDEST PUSH1 0x2 SLOAD DUP2 JUMP JUMPDEST PUSH2 0x1AA PUSH2 0x54D JUMP JUMPDEST DUP1 PUSH1 0x1 PUSH1 0x0 DUP5 PUSH20 0xFFFFFFFFFFFFFFFFFFFFFFFFFFFFFFFFFFFFFFFF AND PUSH20 0xFFFFFFFFFFFFFFFFFFFFFFFFFFFFFFFFFFFFFFFF AND DUP2 MSTORE PUSH1 0x20 ADD SWAP1 DUP2 MSTORE PUSH1 0x20 ADD PUSH1 0x0 KECCAK256 PUSH1 0x0 DUP3 DUP3 SLOAD PUSH2 0x1F9 SWAP2 SWAP1 PUSH2 0x8E6 JUMP JUMPDEST SWAP3 POP POP DUP2 SWAP1 SSTORE POP DUP1 PUSH1 0x2 PUSH1 0x0 DUP3 DUP3 SLOAD PUSH2 0x212 SWAP2 SWAP1 PUSH2 0x8E6 JUMP JUMPDEST SWAP3 POP POP DUP2 SWAP1 SSTORE POP POP POP JUMP JUMPDEST PUSH2 0x225 PUSH2 0x54D JUMP JUMPDEST PUSH2 0x22F PUSH1 0x0 PUSH2 0x5CB JUMP JUMPDEST JUMP JUMPDEST PUSH1 0x0 DUP1 PUSH1 0x0 SWAP1 SLOAD SWAP1 PUSH2 0x100 EXP SWAP1 DIV PUSH20 0xFFFFFFFFFFFFFFFFFFFFFFFFFFFFFFFFFFFFFFFF AND SWAP1 POP SWAP1 JUMP JUMPDEST PUSH2 0x262 PUSH2 0x54D JUMP JUMPDEST DUP1 PUSH1 0x1 PUSH1 0x0 DUP5 PUSH20 0xFFFFFFFFFFFFFFFFFFFFFFFFFFFFFFFFFFFFFFFF AND PUSH20 0xFFFFFFFFFFFFFFFFFFFFFFFFFFFFFFFFFFFFFFFF AND DUP2 MSTORE PUSH1 0x20 ADD SWAP1 DUP2 MSTORE PUSH1 0x20 ADD PUSH1 0x0 KECCAK256 SLOAD LT ISZERO PUSH2 0x2E4 JUMPI PUSH1 0x40 MLOAD PUSH32 0x8C379A000000000000000000000000000000000000000000000000000000000 DUP2 MSTORE PUSH1 0x4 ADD PUSH2 0x2DB SWAP1 PUSH2 0x87A JUMP JUMPDEST PUSH1 0x40 MLOAD DUP1 SWAP2 SUB SWAP1 REVERT JUMPDEST DUP1 PUSH1 0x1 PUSH1 0x0 DUP5 PUSH20 0xFFFFFFFFFFFFFFFFFFFFFFFFFFFFFFFFFFFFFFFF AND PUSH20 0xFFFFFFFFFFFFFFFFFFFFFFFFFFFFFFFFFFFFFFFF AND DUP2 MSTORE PUSH1 0x20 ADD SWAP1 DUP2 MSTORE PUSH1 0x20 ADD PUSH1 0x0 KECCAK256 PUSH1 0x0 DUP3 DUP3 SLOAD PUSH2 0x333 SWAP2 SWAP1 PUSH2 0x93C JUMP JUMPDEST SWAP3 POP POP DUP2 SWAP1 SSTORE POP DUP1 PUSH1 0x2 PUSH1 0x0 DUP3 DUP3 SLOAD PUSH2 0x34C SWAP2 SWAP1 PUSH2 0x93C JUMP JUMPDEST SWAP3 POP POP DUP2 SWAP1 SSTORE POP DUP1 PUSH1 0x3 PUSH1 0x0 DUP3 DUP3 SLOAD PUSH2 0x365 SWAP2 SWAP1 PUSH2 0x8E6 JUMP JUMPDEST SWAP3 POP POP DUP2 SWAP1 SSTORE POP POP POP JUMP JUMPDEST PUSH1 0x1 PUSH1 0x20 MSTORE DUP1 PUSH1 0x0 MSTORE PUSH1 0x40 PUSH1 0x0 KECCAK256 PUSH1 0x0 SWAP2 POP SWAP1 POP SLOAD DUP2 JUMP JUMPDEST PUSH2 0x390 PUSH2 0x54D JUMP JUMPDEST DUP1 PUSH1 0x1 PUSH1 0x0 DUP6 PUSH20 0xFFFFFFFFFFFFFFFFFFFFFFFFFFFFFFFFFFFFFFFF AND PUSH20 0xFFFFFFFFFFFFFFFFFFFFFFFFFFFFFFFFFFFFFFFF AND DUP2 MSTORE PUSH1 0x20 ADD SWAP1 DUP2 MSTORE PUSH1 0x20 ADD PUSH1 0x0 KECCAK256 SLOAD LT ISZERO PUSH2 0x412 JUMPI PUSH1 0x40 MLOAD PUSH32 0x8C379A000000000000000000000000000000000000000000000000000000000 DUP2 MSTORE PUSH1 0x4 ADD PUSH2 0x409 SWAP1 PUSH2 0x83A JUMP JUMPDEST PUSH1 0x40 MLOAD DUP1 SWAP2 SUB SWAP1 REVERT JUMPDEST DUP1 PUSH1 0x1 PUSH1 0x0 DUP6 PUSH20 0xFFFFFFFFFFFFFFFFFFFFFFFFFFFFFFFFFFFFFFFF AND PUSH20 0xFFFFFFFFFFFFFFFFFFFFFFFFFFFFFFFFFFFFFFFF AND DUP2 MSTORE PUSH1 0x20 ADD SWAP1 DUP2 MSTORE PUSH1 0x20 ADD PUSH1 0x0 KECCAK256 PUSH1 0x0 DUP3 DUP3 SLOAD PUSH2 0x461 SWAP2 SWAP1 PUSH2 0x93C JUMP JUMPDEST SWAP3 POP POP DUP2 SWAP1 SSTORE POP DUP1 PUSH1 0x1 PUSH1 0x0 DUP5 PUSH20 0xFFFFFFFFFFFFFFFFFFFFFFFFFFFFFFFFFFFFFFFF AND PUSH20 0xFFFFFFFFFFFFFFFFFFFFFFFFFFFFFFFFFFFFFFFF AND DUP2 MSTORE PUSH1 0x20 ADD SWAP1 DUP2 MSTORE PUSH1 0x20 ADD PUSH1 0x0 KECCAK256 PUSH1 0x0 DUP3 DUP3 SLOAD PUSH2 0x4B7 SWAP2 SWAP1 PUSH2 0x8E6 JUMP JUMPDEST SWAP3 POP POP DUP2 SWAP1 SSTORE POP POP POP POP JUMP JUMPDEST PUSH1 0x3 SLOAD DUP2 JUMP JUMPDEST PUSH2 0x4D1 PUSH2 0x54D JUMP JUMPDEST PUSH1 0x0 PUSH20 0xFFFFFFFFFFFFFFFFFFFFFFFFFFFFFFFFFFFFFFFF AND DUP2 PUSH20 0xFFFFFFFFFFFFFFFFFFFFFFFFFFFFFFFFFFFFFFFF AND EQ ISZERO PUSH2 0x541 JUMPI PUSH1 0x40 MLOAD PUSH32 0x8C379A000000000000000000000000000000000000000000000000000000000 DUP2 MSTORE PUSH1 0x4 ADD PUSH2 0x538 SWAP1 PUSH2 0x85A JUMP JUMPDEST PUSH1 0x40 MLOAD DUP1 SWAP2 SUB SWAP1 REVERT JUMPDEST PUSH2 0x54A DUP2 PUSH2 0x5CB JUMP JUMPDEST POP JUMP JUMPDEST PUSH2 0x555 PUSH2 0x68F JUMP JUMPDEST PUSH20 0xFFFFFFFFFFFFFFFFFFFFFFFFFFFFFFFFFFFFFFFF AND PUSH2 0x573 PUSH2 0x231 JUMP JUMPDEST PUSH20 0xFFFFFFFFFFFFFFFFFFFFFFFFFFFFFFFFFFFFFFFF AND EQ PUSH2 0x5C9 JUMPI PUSH1 0x40 MLOAD PUSH32 0x8C379A000000000000000000000000000000000000000000000000000000000 DUP2 MSTORE PUSH1 0x4 ADD PUSH2 0x5C0 SWAP1 PUSH2 0x89A JUMP JUMPDEST PUSH1 0x40 MLOAD DUP1 SWAP2 SUB SWAP1 REVERT JUMPDEST JUMP JUMPDEST PUSH1 0x0 DUP1 PUSH1 0x0 SWAP1 SLOAD SWAP1 PUSH2 0x100 EXP SWAP1 DIV PUSH20 0xFFFFFFFFFFFFFFFFFFFFFFFFFFFFFFFFFFFFFFFF AND SWAP1 POP DUP2 PUSH1 0x0 DUP1 PUSH2 0x100 EXP DUP2 SLOAD DUP2 PUSH20 0xFFFFFFFFFFFFFFFFFFFFFFFFFFFFFFFFFFFFFFFF MUL NOT AND SWAP1 DUP4 PUSH20 0xFFFFFFFFFFFFFFFFFFFFFFFFFFFFFFFFFFFFFFFF AND MUL OR SWAP1 SSTORE POP DUP2 PUSH20 0xFFFFFFFFFFFFFFFFFFFFFFFFFFFFFFFFFFFFFFFF AND DUP2 PUSH20 0xFFFFFFFFFFFFFFFFFFFFFFFFFFFFFFFFFFFFFFFF AND PUSH32 0x8BE0079C531659141344CD1FD0A4F28419497F9722A3DAAFE3B4186F6B6457E0 PUSH1 0x40 MLOAD PUSH1 0x40 MLOAD DUP1 SWAP2 SUB SWAP1 LOG3 POP POP JUMP JUMPDEST PUSH1 0x0 CALLER SWAP1 POP SWAP1 JUMP JUMPDEST PUSH1 0x0 DUP2 CALLDATALOAD SWAP1 POP PUSH2 0x6A6 DUP2 PUSH2 0xAF1 JUMP JUMPDEST SWAP3 SWAP2 POP POP JUMP JUMPDEST PUSH1 0x0 DUP2 CALLDATALOAD SWAP1 POP PUSH2 0x6BB DUP2 PUSH2 0xB08 JUMP JUMPDEST SWAP3 SWAP2 POP POP JUMP JUMPDEST PUSH1 0x0 PUSH1 0x20 DUP3 DUP5 SUB SLT ISZERO PUSH2 0x6D3 JUMPI PUSH1 0x0 DUP1 REVERT JUMPDEST PUSH1 0x0 PUSH2 0x6E1 DUP5 DUP3 DUP6 ADD PUSH2 0x697 JUMP JUMPDEST SWAP2 POP POP SWAP3 SWAP2 POP POP JUMP JUMPDEST PUSH1 0x0 DUP1 PUSH1 0x0 PUSH1 0x60 DUP5 DUP7 SUB SLT ISZERO PUSH2 0x6FF JUMPI PUSH1 0x0 DUP1 REVERT JUMPDEST PUSH1 0x0 PUSH2 0x70D DUP7 DUP3 DUP8 ADD PUSH2 0x697 JUMP JUMPDEST SWAP4 POP POP PUSH1 0x20 PUSH2 0x71E DUP7 DUP3 DUP8 ADD PUSH2 0x697 JUMP JUMPDEST SWAP3 POP POP PUSH1 0x40 PUSH2 0x72F DUP7 DUP3 DUP8 ADD PUSH2 0x6AC JUMP JUMPDEST SWAP2 POP POP SWAP3 POP SWAP3 POP SWAP3 JUMP JUMPDEST PUSH1 0x0 DUP1 PUSH1 0x40 DUP4 DUP6 SUB SLT ISZERO PUSH2 0x74C JUMPI PUSH1 0x0 DUP1 REVERT JUMPDEST PUSH1 0x0 PUSH2 0x75A DUP6 DUP3 DUP7 ADD PUSH2 0x697 JUMP JUMPDEST SWAP3 POP POP PUSH1 0x20 PUSH2 0x76B DUP6 DUP3 DUP7 ADD PUSH2 0x6AC JUMP JUMPDEST SWAP2 POP POP SWAP3 POP SWAP3 SWAP1 POP JUMP JUMPDEST PUSH2 0x77E DUP2 PUSH2 0x970 JUMP JUMPDEST DUP3 MSTORE POP POP JUMP JUMPDEST PUSH1 0x0 PUSH2 0x791 PUSH1 0x39 DUP4 PUSH2 0x8D5 JUMP JUMPDEST SWAP2 POP PUSH2 0x79C DUP3 PUSH2 0x9DB JUMP JUMPDEST PUSH1 0x40 DUP3 ADD SWAP1 POP SWAP2 SWAP1 POP JUMP JUMPDEST PUSH1 0x0 PUSH2 0x7B4 PUSH1 0x26 DUP4 PUSH2 0x8D5 JUMP JUMPDEST SWAP2 POP PUSH2 0x7BF DUP3 PUSH2 0xA2A JUMP JUMPDEST PUSH1 0x40 DUP3 ADD SWAP1 POP SWAP2 SWAP1 POP JUMP JUMPDEST PUSH1 0x0 PUSH2 0x7D7 PUSH1 0x30 DUP4 PUSH2 0x8D5 JUMP JUMPDEST SWAP2 POP PUSH2 0x7E2 DUP3 PUSH2 0xA79 JUMP JUMPDEST PUSH1 0x40 DUP3 ADD SWAP1 POP SWAP2 SWAP1 POP JUMP JUMPDEST PUSH1 0x0 PUSH2 0x7FA PUSH1 0x20 DUP4 PUSH2 0x8D5 JUMP JUMPDEST SWAP2 POP PUSH2 0x805 DUP3 PUSH2 0xAC8 JUMP JUMPDEST PUSH1 0x20 DUP3 ADD SWAP1 POP SWAP2 SWAP1 POP JUMP JUMPDEST PUSH2 0x819 DUP2 PUSH2 0x9A2 JUMP JUMPDEST DUP3 MSTORE POP POP JUMP JUMPDEST PUSH1 0x0 PUSH1 0x20 DUP3 ADD SWAP1 POP PUSH2 0x834 PUSH1 0x0 DUP4 ADD DUP5 PUSH2 0x775 JUMP JUMPDEST SWAP3 SWAP2 POP POP JUMP JUMPDEST PUSH1 0x0 PUSH1 0x20 DUP3 ADD SWAP1 POP DUP2 DUP2 SUB PUSH1 0x0 DUP4 ADD MSTORE PUSH2 0x853 DUP2 PUSH2 0x784 JUMP JUMPDEST SWAP1 POP SWAP2 SWAP1 POP JUMP JUMPDEST PUSH1 0x0 PUSH1 0x20 DUP3 ADD SWAP1 POP DUP2 DUP2 SUB PUSH1 0x0 DUP4 ADD MSTORE PUSH2 0x873 DUP2 PUSH2 0x7A7 JUMP JUMPDEST SWAP1 POP SWAP2 SWAP1 POP JUMP JUMPDEST PUSH1 0x0 PUSH1 0x20 DUP3 ADD SWAP1 POP DUP2 DUP2 SUB PUSH1 0x0 DUP4 ADD MSTORE PUSH2 0x893 DUP2 PUSH2 0x7CA JUMP JUMPDEST SWAP1 POP SWAP2 SWAP1 POP JUMP JUMPDEST PUSH1 0x0 PUSH1 0x20 DUP3 ADD SWAP1 POP DUP2 DUP2 SUB PUSH1 0x0 DUP4 ADD MSTORE PUSH2 0x8B3 DUP2 PUSH2 0x7ED JUMP JUMPDEST SWAP1 POP SWAP2 SWAP1 POP JUMP JUMPDEST PUSH1 0x0 PUSH1 0x20 DUP3 ADD SWAP1 POP PUSH2 0x8CF PUSH1 0x0 DUP4 ADD DUP5 PUSH2 0x810 JUMP JUMPDEST SWAP3 SWAP2 POP POP JUMP JUMPDEST PUSH1 0x0 DUP3 DUP3 MSTORE PUSH1 0x20 DUP3 ADD SWAP1 POP SWAP3 SWAP2 POP POP JUMP JUMPDEST PUSH1 0x0 PUSH2 0x8F1 DUP3 PUSH2 0x9A2 JUMP JUMPDEST SWAP2 POP PUSH2 0x8FC DUP4 PUSH2 0x9A2 JUMP JUMPDEST SWAP3 POP DUP3 PUSH32 0xFFFFFFFFFFFFFFFFFFFFFFFFFFFFFFFFFFFFFFFFFFFFFFFFFFFFFFFFFFFFFFFF SUB DUP3 GT ISZERO PUSH2 0x931 JUMPI PUSH2 0x930 PUSH2 0x9AC JUMP JUMPDEST JUMPDEST DUP3 DUP3 ADD SWAP1 POP SWAP3 SWAP2 POP POP JUMP JUMPDEST PUSH1 0x0 PUSH2 0x947 DUP3 PUSH2 0x9A2 JUMP JUMPDEST SWAP2 POP PUSH2 0x952 DUP4 PUSH2 0x9A2 JUMP JUMPDEST SWAP3 POP DUP3 DUP3 LT ISZERO PUSH2 0x965 JUMPI PUSH2 0x964 PUSH2 0x9AC JUMP JUMPDEST JUMPDEST DUP3 DUP3 SUB SWAP1 POP SWAP3 SWAP2 POP POP JUMP JUMPDEST PUSH1 0x0 PUSH2 0x97B DUP3 PUSH2 0x982 JUMP JUMPDEST SWAP1 POP SWAP2 SWAP1 POP JUMP JUMPDEST PUSH1 0x0 PUSH20 0xFFFFFFFFFFFFFFFFFFFFFFFFFFFFFFFFFFFFFFFF DUP3 AND SWAP1 POP SWAP2 SWAP1 POP JUMP JUMPDEST PUSH1 0x0 DUP2 SWAP1 POP SWAP2 SWAP1 POP JUMP JUMPDEST PUSH32 0x4E487B7100000000000000000000000000000000000000000000000000000000 PUSH1 0x0 MSTORE PUSH1 0x11 PUSH1 0x4 MSTORE PUSH1 0x24 PUSH1 0x0 REVERT JUMPDEST PUSH32 0x46726F6D206164647265737320646F6573206E6F74206861766520656E6F7567 PUSH1 0x0 DUP3 ADD MSTORE PUSH32 0x6820466C6F776572436F696E7320746F207472616E7366657200000000000000 PUSH1 0x20 DUP3 ADD MSTORE POP JUMP JUMPDEST PUSH32 0x4F776E61626C653A206E6577206F776E657220697320746865207A65726F2061 PUSH1 0x0 DUP3 ADD MSTORE PUSH32 0x6464726573730000000000000000000000000000000000000000000000000000 PUSH1 0x20 DUP3 ADD MSTORE POP JUMP JUMPDEST PUSH32 0x4164647265737320646F6573206E6F74206861766520656E6F75676820466C6F PUSH1 0x0 DUP3 ADD MSTORE PUSH32 0x776572436F696E7320746F206275726E00000000000000000000000000000000 PUSH1 0x20 DUP3 ADD MSTORE POP JUMP JUMPDEST PUSH32 0x4F776E61626C653A2063616C6C6572206973206E6F7420746865206F776E6572 PUSH1 0x0 DUP3 ADD MSTORE POP JUMP JUMPDEST PUSH2 0xAFA DUP2 PUSH2 0x970 JUMP JUMPDEST DUP2 EQ PUSH2 0xB05 JUMPI PUSH1 0x0 DUP1 REVERT JUMPDEST POP JUMP JUMPDEST PUSH2 0xB11 DUP2 PUSH2 0x9A2 JUMP JUMPDEST DUP2 EQ PUSH2 0xB1C JUMPI PUSH1 0x0 DUP1 REVERT JUMPDEST POP JUMP INVALID LOG2 PUSH5 0x6970667358 0x22 SLT KECCAK256 0xDB SELFBALANCE MSIZE 0xF6 DUP8 KECCAK256 RETURNDATACOPY GASPRICE 0xC1 0xB0 0x48 INVALID SHR SWAP13 0xD5 RETURN CODECOPY EXTCODEHASH 0xEB DUP5 MSTORE8 0xE8 0xAD 0xDE 0x2A 0xD0 GAS 0xB7 0x26 CALLDATASIZE 0x28 0x4A PUSH5 0x736F6C6343 STOP ADDMOD DIV STOP CALLER "
				},
				"gasEstimates": {
					"creation": {
						"codeDepositCost": "87000",
						"executionCost": "infinite",
						"totalCost": "infinite"
					},
					"external": {
						"flowerCoinStorage()": "1257",
						"flowerStorage()": "1232"
					}
				},
				"methodIdentifiers": {
					"flowerCoinStorage()": "b7f6d906",
					"flowerStorage()": "1f054bbe"
				}
			},
			"storageLayout": {
				"storage": [
					{
						"astId": 556,
						"contract": "contracts/Registry.sol:Registry",
						"label": "flowerStorage",
						"offset": 0,
						"slot": "0",
						"type": "t_contract(FlowerStorage)549"
					},
					{
						"astId": 559,
						"contract": "contracts/Registry.sol:Registry",
						"label": "flowerCoinStorage",
						"offset": 0,
						"slot": "1",
						"type": "t_contract(FlowerCoinStorage)243"
					}
				],
				"types": {
					"t_contract(FlowerCoinStorage)243": {
						"encoding": "inplace",
						"label": "contract FlowerCoinStorage",
						"numberOfBytes": "20"
					},
					"t_contract(FlowerStorage)549": {
						"encoding": "inplace",
						"label": "contract FlowerStorage",
						"numberOfBytes": "20"
					}
				}
			},
			"userdoc": {
				"kind": "user",
				"methods": {},
				"version": 1
			}
		}
	}
}