{
	"contracts/ERC20/FlowerCoin.sol": {
		"FlowerCoin": {
			"abi": [
				{
					"inputs": [],
					"stateMutability": "nonpayable",
					"type": "constructor"
				},
				{
					"anonymous": false,
					"inputs": [
						{
							"indexed": true,
							"internalType": "address",
							"name": "owner",
							"type": "address"
						},
						{
							"indexed": true,
							"internalType": "address",
							"name": "spender",
							"type": "address"
						},
						{
							"indexed": false,
							"internalType": "uint256",
							"name": "value",
							"type": "uint256"
						}
					],
					"name": "Approval",
					"type": "event"
				},
				{
					"anonymous": false,
					"inputs": [
						{
							"indexed": true,
							"internalType": "address",
							"name": "previousOwner",
							"type": "address"
						},
						{
							"indexed": true,
							"internalType": "address",
							"name": "newOwner",
							"type": "address"
						}
					],
					"name": "OwnershipTransferred",
					"type": "event"
				},
				{
					"anonymous": false,
					"inputs": [
						{
							"indexed": true,
							"internalType": "address",
							"name": "from",
							"type": "address"
						},
						{
							"indexed": true,
							"internalType": "address",
							"name": "to",
							"type": "address"
						},
						{
							"indexed": false,
							"internalType": "uint256",
							"name": "value",
							"type": "uint256"
						}
					],
					"name": "Transfer",
					"type": "event"
				},
				{
					"inputs": [
						{
							"internalType": "address",
							"name": "_addr",
							"type": "address"
						}
					],
					"name": "addMinter",
					"outputs": [],
					"stateMutability": "nonpayable",
					"type": "function"
				},
				{
					"inputs": [
						{
							"internalType": "address",
							"name": "owner",
							"type": "address"
						},
						{
							"internalType": "address",
							"name": "spender",
							"type": "address"
						}
					],
					"name": "allowance",
					"outputs": [
						{
							"internalType": "uint256",
							"name": "",
							"type": "uint256"
						}
					],
					"stateMutability": "view",
					"type": "function"
				},
				{
					"inputs": [
						{
							"internalType": "address",
							"name": "spender",
							"type": "address"
						},
						{
							"internalType": "uint256",
							"name": "amount",
							"type": "uint256"
						}
					],
					"name": "approve",
					"outputs": [
						{
							"internalType": "bool",
							"name": "",
							"type": "bool"
						}
					],
					"stateMutability": "nonpayable",
					"type": "function"
				},
				{
					"inputs": [
						{
							"internalType": "address",
							"name": "account",
							"type": "address"
						}
					],
					"name": "balanceOf",
					"outputs": [
						{
							"internalType": "uint256",
							"name": "",
							"type": "uint256"
						}
					],
					"stateMutability": "view",
					"type": "function"
				},
				{
					"inputs": [],
					"name": "decimals",
					"outputs": [
						{
							"internalType": "uint8",
							"name": "",
							"type": "uint8"
						}
					],
					"stateMutability": "view",
					"type": "function"
				},
				{
					"inputs": [
						{
							"internalType": "address",
							"name": "spender",
							"type": "address"
						},
						{
							"internalType": "uint256",
							"name": "subtractedValue",
							"type": "uint256"
						}
					],
					"name": "decreaseAllowance",
					"outputs": [
						{
							"internalType": "bool",
							"name": "",
							"type": "bool"
						}
					],
					"stateMutability": "nonpayable",
					"type": "function"
				},
				{
					"inputs": [
						{
							"internalType": "address",
							"name": "spender",
							"type": "address"
						},
						{
							"internalType": "uint256",
							"name": "addedValue",
							"type": "uint256"
						}
					],
					"name": "increaseAllowance",
					"outputs": [
						{
							"internalType": "bool",
							"name": "",
							"type": "bool"
						}
					],
					"stateMutability": "nonpayable",
					"type": "function"
				},
				{
					"inputs": [
						{
							"internalType": "address",
							"name": "_to",
							"type": "address"
						},
						{
							"internalType": "uint256",
							"name": "_amount",
							"type": "uint256"
						}
					],
					"name": "mint",
					"outputs": [],
					"stateMutability": "nonpayable",
					"type": "function"
				},
				{
					"inputs": [
						{
							"internalType": "address",
							"name": "",
							"type": "address"
						}
					],
					"name": "minters",
					"outputs": [
						{
							"internalType": "bool",
							"name": "",
							"type": "bool"
						}
					],
					"stateMutability": "view",
					"type": "function"
				},
				{
					"inputs": [],
					"name": "name",
					"outputs": [
						{
							"internalType": "string",
							"name": "",
							"type": "string"
						}
					],
					"stateMutability": "view",
					"type": "function"
				},
				{
					"inputs": [],
					"name": "owner",
					"outputs": [
						{
							"internalType": "address",
							"name": "",
							"type": "address"
						}
					],
					"stateMutability": "view",
					"type": "function"
				},
				{
					"inputs": [
						{
							"internalType": "address",
							"name": "_addr",
							"type": "address"
						}
					],
					"name": "removeMinter",
					"outputs": [],
					"stateMutability": "nonpayable",
					"type": "function"
				},
				{
					"inputs": [],
					"name": "renounceOwnership",
					"outputs": [],
					"stateMutability": "nonpayable",
					"type": "function"
				},
				{
					"inputs": [],
					"name": "symbol",
					"outputs": [
						{
							"internalType": "string",
							"name": "",
							"type": "string"
						}
					],
					"stateMutability": "view",
					"type": "function"
				},
				{
					"inputs": [],
					"name": "totalSupply",
					"outputs": [
						{
							"internalType": "uint256",
							"name": "",
							"type": "uint256"
						}
					],
					"stateMutability": "view",
					"type": "function"
				},
				{
					"inputs": [
						{
							"internalType": "address",
							"name": "to",
							"type": "address"
						},
						{
							"internalType": "uint256",
							"name": "amount",
							"type": "uint256"
						}
					],
					"name": "transfer",
					"outputs": [
						{
							"internalType": "bool",
							"name": "",
							"type": "bool"
						}
					],
					"stateMutability": "nonpayable",
					"type": "function"
				},
				{
					"inputs": [
						{
							"internalType": "address",
							"name": "from",
							"type": "address"
						},
						{
							"internalType": "address",
							"name": "to",
							"type": "address"
						},
						{
							"internalType": "uint256",
							"name": "amount",
							"type": "uint256"
						}
					],
					"name": "transferFrom",
					"outputs": [
						{
							"internalType": "bool",
							"name": "",
							"type": "bool"
						}
					],
					"stateMutability": "nonpayable",
					"type": "function"
				},
				{
					"inputs": [
						{
							"internalType": "address",
							"name": "newOwner",
							"type": "address"
						}
					],
					"name": "transferOwnership",
					"outputs": [],
					"stateMutability": "nonpayable",
					"type": "function"
				}
			],
			"devdoc": {
				"kind": "dev",
				"methods": {
					"allowance(address,address)": {
						"details": "See {IERC20-allowance}."
					},
					"approve(address,uint256)": {
						"details": "See {IERC20-approve}. NOTE: If `amount` is the maximum `uint256`, the allowance is not updated on `transferFrom`. This is semantically equivalent to an infinite approval. Requirements: - `spender` cannot be the zero address."
					},
					"balanceOf(address)": {
						"details": "See {IERC20-balanceOf}."
					},
					"decimals()": {
						"details": "Returns the number of decimals used to get its user representation. For example, if `decimals` equals `2`, a balance of `505` tokens should be displayed to a user as `5.05` (`505 / 10 ** 2`). Tokens usually opt for a value of 18, imitating the relationship between Ether and Wei. This is the value {ERC20} uses, unless this function is overridden; NOTE: This information is only used for _display_ purposes: it in no way affects any of the arithmetic of the contract, including {IERC20-balanceOf} and {IERC20-transfer}."
					},
					"decreaseAllowance(address,uint256)": {
						"details": "Atomically decreases the allowance granted to `spender` by the caller. This is an alternative to {approve} that can be used as a mitigation for problems described in {IERC20-approve}. Emits an {Approval} event indicating the updated allowance. Requirements: - `spender` cannot be the zero address. - `spender` must have allowance for the caller of at least `subtractedValue`."
					},
					"increaseAllowance(address,uint256)": {
						"details": "Atomically increases the allowance granted to `spender` by the caller. This is an alternative to {approve} that can be used as a mitigation for problems described in {IERC20-approve}. Emits an {Approval} event indicating the updated allowance. Requirements: - `spender` cannot be the zero address."
					},
					"name()": {
						"details": "Returns the name of the token."
					},
					"owner()": {
						"details": "Returns the address of the current owner."
					},
					"renounceOwnership()": {
						"details": "Leaves the contract without owner. It will not be possible to call `onlyOwner` functions anymore. Can only be called by the current owner. NOTE: Renouncing ownership will leave the contract without an owner, thereby removing any functionality that is only available to the owner."
					},
					"symbol()": {
						"details": "Returns the symbol of the token, usually a shorter version of the name."
					},
					"totalSupply()": {
						"details": "See {IERC20-totalSupply}."
					},
					"transfer(address,uint256)": {
						"details": "See {IERC20-transfer}. Requirements: - `to` cannot be the zero address. - the caller must have a balance of at least `amount`."
					},
					"transferFrom(address,address,uint256)": {
						"details": "See {IERC20-transferFrom}. Emits an {Approval} event indicating the updated allowance. This is not required by the EIP. See the note at the beginning of {ERC20}. NOTE: Does not update the allowance if the current allowance is the maximum `uint256`. Requirements: - `from` and `to` cannot be the zero address. - `from` must have a balance of at least `amount`. - the caller must have allowance for ``from``'s tokens of at least `amount`."
					},
					"transferOwnership(address)": {
						"details": "Transfers ownership of the contract to a new account (`newOwner`). Can only be called by the current owner."
					}
				},
				"version": 1
			},
			"evm": {
				"assembly": "    /* \"contracts/ERC20/FlowerCoin.sol\":168:937  contract FlowerCoin is ERC20, Ownable {... */\n  mstore(0x40, 0x80)\n    /* \"contracts/ERC20/FlowerCoin.sol\":306:448  constructor() ERC20(\"FlowerCoin\", \"FLOWERCOIN\") {... */\n  callvalue\n  dup1\n  iszero\n  tag_1\n  jumpi\n  0x00\n  dup1\n  revert\ntag_1:\n  pop\n    /* \"@openzeppelin/contracts/token/ERC20/ERC20.sol\":1976:2089  constructor(string memory name_, string memory symbol_) {... */\n  mload(0x40)\n  dup1\n  0x40\n  add\n  0x40\n  mstore\n  dup1\n  0x0a\n  dup2\n  mstore\n  0x20\n  add\n  0x466c6f776572436f696e00000000000000000000000000000000000000000000\n  dup2\n  mstore\n  pop\n  mload(0x40)\n  dup1\n  0x40\n  add\n  0x40\n  mstore\n  dup1\n  0x0a\n  dup2\n  mstore\n  0x20\n  add\n  0x464c4f574552434f494e00000000000000000000000000000000000000000000\n  dup2\n  mstore\n  pop\n    /* \"@openzeppelin/contracts/token/ERC20/ERC20.sol\":2050:2055  name_ */\n  dup2\n    /* \"@openzeppelin/contracts/token/ERC20/ERC20.sol\":2042:2047  _name */\n  0x03\n    /* \"@openzeppelin/contracts/token/ERC20/ERC20.sol\":2042:2055  _name = name_ */\n  swap1\n  dup1\n  mload\n  swap1\n  0x20\n  add\n  swap1\n  tag_6\n  swap3\n  swap2\n  swap1\n  tag_7\n  jump\t// in\ntag_6:\n  pop\n    /* \"@openzeppelin/contracts/token/ERC20/ERC20.sol\":2075:2082  symbol_ */\n  dup1\n    /* \"@openzeppelin/contracts/token/ERC20/ERC20.sol\":2065:2072  _symbol */\n  0x04\n    /* \"@openzeppelin/contracts/token/ERC20/ERC20.sol\":2065:2082  _symbol = symbol_ */\n  swap1\n  dup1\n  mload\n  swap1\n  0x20\n  add\n  swap1\n  tag_8\n  swap3\n  swap2\n  swap1\n  tag_7\n  jump\t// in\ntag_8:\n  pop\n    /* \"@openzeppelin/contracts/token/ERC20/ERC20.sol\":1976:2089  constructor(string memory name_, string memory symbol_) {... */\n  pop\n  pop\n    /* \"@openzeppelin/contracts/access/Ownable.sol\":936:968  _transferOwnership(_msgSender()) */\n  tag_10\n    /* \"@openzeppelin/contracts/access/Ownable.sol\":955:967  _msgSender() */\n  tag_11\n    /* \"@openzeppelin/contracts/access/Ownable.sol\":955:965  _msgSender */\n  shl(0x20, tag_12)\n    /* \"@openzeppelin/contracts/access/Ownable.sol\":955:967  _msgSender() */\n  0x20\n  shr\n  jump\t// in\ntag_11:\n    /* \"@openzeppelin/contracts/access/Ownable.sol\":936:954  _transferOwnership */\n  shl(0x20, tag_13)\n    /* \"@openzeppelin/contracts/access/Ownable.sol\":936:968  _transferOwnership(_msgSender()) */\n  0x20\n  shr\n  jump\t// in\ntag_10:\n    /* \"contracts/ERC20/FlowerCoin.sol\":412:441  transferOwnership(msg.sender) */\n  tag_15\n    /* \"contracts/ERC20/FlowerCoin.sol\":430:440  msg.sender */\n  caller\n    /* \"contracts/ERC20/FlowerCoin.sol\":412:429  transferOwnership */\n  shl(0x20, tag_16)\n    /* \"contracts/ERC20/FlowerCoin.sol\":412:441  transferOwnership(msg.sender) */\n  0x20\n  shr\n  jump\t// in\ntag_15:\n    /* \"contracts/ERC20/FlowerCoin.sol\":168:937  contract FlowerCoin is ERC20, Ownable {... */\n  jump(tag_17)\n    /* \"@openzeppelin/contracts/utils/Context.sol\":640:736  function _msgSender() internal view virtual returns (address) {... */\ntag_12:\n    /* \"@openzeppelin/contracts/utils/Context.sol\":693:700  address */\n  0x00\n    /* \"@openzeppelin/contracts/utils/Context.sol\":719:729  msg.sender */\n  caller\n    /* \"@openzeppelin/contracts/utils/Context.sol\":712:729  return msg.sender */\n  swap1\n  pop\n    /* \"@openzeppelin/contracts/utils/Context.sol\":640:736  function _msgSender() internal view virtual returns (address) {... */\n  swap1\n  jump\t// out\n    /* \"@openzeppelin/contracts/access/Ownable.sol\":2433:2620  function _transferOwnership(address newOwner) internal virtual {... */\ntag_13:\n    /* \"@openzeppelin/contracts/access/Ownable.sol\":2506:2522  address oldOwner */\n  0x00\n    /* \"@openzeppelin/contracts/access/Ownable.sol\":2525:2531  _owner */\n  0x05\n  0x00\n  swap1\n  sload\n  swap1\n  0x0100\n  exp\n  swap1\n  div\n  0xffffffffffffffffffffffffffffffffffffffff\n  and\n    /* \"@openzeppelin/contracts/access/Ownable.sol\":2506:2531  address oldOwner = _owner */\n  swap1\n  pop\n    /* \"@openzeppelin/contracts/access/Ownable.sol\":2550:2558  newOwner */\n  dup2\n    /* \"@openzeppelin/contracts/access/Ownable.sol\":2541:2547  _owner */\n  0x05\n  0x00\n    /* \"@openzeppelin/contracts/access/Ownable.sol\":2541:2558  _owner = newOwner */\n  0x0100\n  exp\n  dup2\n  sload\n  dup2\n  0xffffffffffffffffffffffffffffffffffffffff\n  mul\n  not\n  and\n  swap1\n  dup4\n  0xffffffffffffffffffffffffffffffffffffffff\n  and\n  mul\n  or\n  swap1\n  sstore\n  pop\n    /* \"@openzeppelin/contracts/access/Ownable.sol\":2604:2612  newOwner */\n  dup2\n    /* \"@openzeppelin/contracts/access/Ownable.sol\":2573:2613  OwnershipTransferred(oldOwner, newOwner) */\n  0xffffffffffffffffffffffffffffffffffffffff\n  and\n    /* \"@openzeppelin/contracts/access/Ownable.sol\":2594:2602  oldOwner */\n  dup2\n    /* \"@openzeppelin/contracts/access/Ownable.sol\":2573:2613  OwnershipTransferred(oldOwner, newOwner) */\n  0xffffffffffffffffffffffffffffffffffffffff\n  and\n  0x8be0079c531659141344cd1fd0a4f28419497f9722a3daafe3b4186f6b6457e0\n  mload(0x40)\n  mload(0x40)\n  dup1\n  swap2\n  sub\n  swap1\n  log3\n    /* \"@openzeppelin/contracts/access/Ownable.sol\":2433:2620  function _transferOwnership(address newOwner) internal virtual {... */\n  pop\n  pop\n  jump\t// out\n    /* \"@openzeppelin/contracts/access/Ownable.sol\":2081:2279  function transferOwnership(address newOwner) public virtual onlyOwner {... */\ntag_16:\n    /* \"@openzeppelin/contracts/access/Ownable.sol\":1094:1107  _checkOwner() */\n  tag_21\n    /* \"@openzeppelin/contracts/access/Ownable.sol\":1094:1105  _checkOwner */\n  shl(0x20, tag_22)\n    /* \"@openzeppelin/contracts/access/Ownable.sol\":1094:1107  _checkOwner() */\n  0x20\n  shr\n  jump\t// in\ntag_21:\n    /* \"@openzeppelin/contracts/access/Ownable.sol\":2189:2190  0 */\n  0x00\n    /* \"@openzeppelin/contracts/access/Ownable.sol\":2169:2191  newOwner != address(0) */\n  0xffffffffffffffffffffffffffffffffffffffff\n  and\n    /* \"@openzeppelin/contracts/access/Ownable.sol\":2169:2177  newOwner */\n  dup2\n    /* \"@openzeppelin/contracts/access/Ownable.sol\":2169:2191  newOwner != address(0) */\n  0xffffffffffffffffffffffffffffffffffffffff\n  and\n  eq\n  iszero\n    /* \"@openzeppelin/contracts/access/Ownable.sol\":2161:2234  require(newOwner != address(0), \"Ownable: new owner is the zero address\") */\n  tag_24\n  jumpi\n  mload(0x40)\n  0x08c379a000000000000000000000000000000000000000000000000000000000\n  dup2\n  mstore\n  0x04\n  add\n  tag_25\n  swap1\n  tag_26\n  jump\t// in\ntag_25:\n  mload(0x40)\n  dup1\n  swap2\n  sub\n  swap1\n  revert\ntag_24:\n    /* \"@openzeppelin/contracts/access/Ownable.sol\":2244:2272  _transferOwnership(newOwner) */\n  tag_27\n    /* \"@openzeppelin/contracts/access/Ownable.sol\":2263:2271  newOwner */\n  dup2\n    /* \"@openzeppelin/contracts/access/Ownable.sol\":2244:2262  _transferOwnership */\n  shl(0x20, tag_13)\n    /* \"@openzeppelin/contracts/access/Ownable.sol\":2244:2272  _transferOwnership(newOwner) */\n  0x20\n  shr\n  jump\t// in\ntag_27:\n    /* \"@openzeppelin/contracts/access/Ownable.sol\":2081:2279  function transferOwnership(address newOwner) public virtual onlyOwner {... */\n  pop\n  jump\t// out\n    /* \"@openzeppelin/contracts/access/Ownable.sol\":1359:1489  function _checkOwner() internal view virtual {... */\ntag_22:\n    /* \"@openzeppelin/contracts/access/Ownable.sol\":1433:1445  _msgSender() */\n  tag_29\n    /* \"@openzeppelin/contracts/access/Ownable.sol\":1433:1443  _msgSender */\n  shl(0x20, tag_12)\n    /* \"@openzeppelin/contracts/access/Ownable.sol\":1433:1445  _msgSender() */\n  0x20\n  shr\n  jump\t// in\ntag_29:\n    /* \"@openzeppelin/contracts/access/Ownable.sol\":1422:1445  owner() == _msgSender() */\n  0xffffffffffffffffffffffffffffffffffffffff\n  and\n    /* \"@openzeppelin/contracts/access/Ownable.sol\":1422:1429  owner() */\n  tag_30\n    /* \"@openzeppelin/contracts/access/Ownable.sol\":1422:1427  owner */\n  shl(0x20, tag_31)\n    /* \"@openzeppelin/contracts/access/Ownable.sol\":1422:1429  owner() */\n  0x20\n  shr\n  jump\t// in\ntag_30:\n    /* \"@openzeppelin/contracts/access/Ownable.sol\":1422:1445  owner() == _msgSender() */\n  0xffffffffffffffffffffffffffffffffffffffff\n  and\n  eq\n    /* \"@openzeppelin/contracts/access/Ownable.sol\":1414:1482  require(owner() == _msgSender(), \"Ownable: caller is not the owner\") */\n  tag_32\n  jumpi\n  mload(0x40)\n  0x08c379a000000000000000000000000000000000000000000000000000000000\n  dup2\n  mstore\n  0x04\n  add\n  tag_33\n  swap1\n  tag_34\n  jump\t// in\ntag_33:\n  mload(0x40)\n  dup1\n  swap2\n  sub\n  swap1\n  revert\ntag_32:\n    /* \"@openzeppelin/contracts/access/Ownable.sol\":1359:1489  function _checkOwner() internal view virtual {... */\n  jump\t// out\n    /* \"@openzeppelin/contracts/access/Ownable.sol\":1201:1286  function owner() public view virtual returns (address) {... */\ntag_31:\n    /* \"@openzeppelin/contracts/access/Ownable.sol\":1247:1254  address */\n  0x00\n    /* \"@openzeppelin/contracts/access/Ownable.sol\":1273:1279  _owner */\n  0x05\n  0x00\n  swap1\n  sload\n  swap1\n  0x0100\n  exp\n  swap1\n  div\n  0xffffffffffffffffffffffffffffffffffffffff\n  and\n    /* \"@openzeppelin/contracts/access/Ownable.sol\":1266:1279  return _owner */\n  swap1\n  pop\n    /* \"@openzeppelin/contracts/access/Ownable.sol\":1201:1286  function owner() public view virtual returns (address) {... */\n  swap1\n  jump\t// out\n    /* \"contracts/ERC20/FlowerCoin.sol\":168:937  contract FlowerCoin is ERC20, Ownable {... */\ntag_7:\n  dup3\n  dup1\n  sload\n  tag_36\n  swap1\n  tag_37\n  jump\t// in\ntag_36:\n  swap1\n  0x00\n  mstore\n  keccak256(0x00, 0x20)\n  swap1\n  0x1f\n  add\n  0x20\n  swap1\n  div\n  dup2\n  add\n  swap3\n  dup3\n  tag_39\n  jumpi\n  0x00\n  dup6\n  sstore\n  jump(tag_38)\ntag_39:\n  dup3\n  0x1f\n  lt\n  tag_40\n  jumpi\n  dup1\n  mload\n  not(0xff)\n  and\n  dup4\n  dup1\n  add\n  or\n  dup6\n  sstore\n  jump(tag_38)\ntag_40:\n  dup3\n  dup1\n  add\n  0x01\n  add\n  dup6\n  sstore\n  dup3\n  iszero\n  tag_38\n  jumpi\n  swap2\n  dup3\n  add\ntag_41:\n  dup3\n  dup2\n  gt\n  iszero\n  tag_42\n  jumpi\n  dup3\n  mload\n  dup3\n  sstore\n  swap2\n  0x20\n  add\n  swap2\n  swap1\n  0x01\n  add\n  swap1\n  jump(tag_41)\ntag_42:\ntag_38:\n  pop\n  swap1\n  pop\n  tag_43\n  swap2\n  swap1\n  tag_44\n  jump\t// in\ntag_43:\n  pop\n  swap1\n  jump\t// out\ntag_44:\ntag_45:\n  dup1\n  dup3\n  gt\n  iszero\n  tag_46\n  jumpi\n  0x00\n  dup2\n  0x00\n  swap1\n  sstore\n  pop\n  0x01\n  add\n  jump(tag_45)\ntag_46:\n  pop\n  swap1\n  jump\t// out\n    /* \"#utility.yul\":7:373   */\ntag_48:\n    /* \"#utility.yul\":149:152   */\n  0x00\n    /* \"#utility.yul\":170:237   */\n  tag_50\n    /* \"#utility.yul\":234:236   */\n  0x26\n    /* \"#utility.yul\":229:232   */\n  dup4\n    /* \"#utility.yul\":170:237   */\n  tag_51\n  jump\t// in\ntag_50:\n    /* \"#utility.yul\":163:237   */\n  swap2\n  pop\n    /* \"#utility.yul\":246:339   */\n  tag_52\n    /* \"#utility.yul\":335:338   */\n  dup3\n    /* \"#utility.yul\":246:339   */\n  tag_53\n  jump\t// in\ntag_52:\n    /* \"#utility.yul\":364:366   */\n  0x40\n    /* \"#utility.yul\":359:362   */\n  dup3\n    /* \"#utility.yul\":355:367   */\n  add\n    /* \"#utility.yul\":348:367   */\n  swap1\n  pop\n    /* \"#utility.yul\":153:373   */\n  swap2\n  swap1\n  pop\n  jump\t// out\n    /* \"#utility.yul\":379:745   */\ntag_54:\n    /* \"#utility.yul\":521:524   */\n  0x00\n    /* \"#utility.yul\":542:609   */\n  tag_56\n    /* \"#utility.yul\":606:608   */\n  0x20\n    /* \"#utility.yul\":601:604   */\n  dup4\n    /* \"#utility.yul\":542:609   */\n  tag_51\n  jump\t// in\ntag_56:\n    /* \"#utility.yul\":535:609   */\n  swap2\n  pop\n    /* \"#utility.yul\":618:711   */\n  tag_57\n    /* \"#utility.yul\":707:710   */\n  dup3\n    /* \"#utility.yul\":618:711   */\n  tag_58\n  jump\t// in\ntag_57:\n    /* \"#utility.yul\":736:738   */\n  0x20\n    /* \"#utility.yul\":731:734   */\n  dup3\n    /* \"#utility.yul\":727:739   */\n  add\n    /* \"#utility.yul\":720:739   */\n  swap1\n  pop\n    /* \"#utility.yul\":525:745   */\n  swap2\n  swap1\n  pop\n  jump\t// out\n    /* \"#utility.yul\":751:1170   */\ntag_26:\n    /* \"#utility.yul\":917:921   */\n  0x00\n    /* \"#utility.yul\":955:957   */\n  0x20\n    /* \"#utility.yul\":944:953   */\n  dup3\n    /* \"#utility.yul\":940:958   */\n  add\n    /* \"#utility.yul\":932:958   */\n  swap1\n  pop\n    /* \"#utility.yul\":1004:1013   */\n  dup2\n    /* \"#utility.yul\":998:1002   */\n  dup2\n    /* \"#utility.yul\":994:1014   */\n  sub\n    /* \"#utility.yul\":990:991   */\n  0x00\n    /* \"#utility.yul\":979:988   */\n  dup4\n    /* \"#utility.yul\":975:992   */\n  add\n    /* \"#utility.yul\":968:1015   */\n  mstore\n    /* \"#utility.yul\":1032:1163   */\n  tag_60\n    /* \"#utility.yul\":1158:1162   */\n  dup2\n    /* \"#utility.yul\":1032:1163   */\n  tag_48\n  jump\t// in\ntag_60:\n    /* \"#utility.yul\":1024:1163   */\n  swap1\n  pop\n    /* \"#utility.yul\":922:1170   */\n  swap2\n  swap1\n  pop\n  jump\t// out\n    /* \"#utility.yul\":1176:1595   */\ntag_34:\n    /* \"#utility.yul\":1342:1346   */\n  0x00\n    /* \"#utility.yul\":1380:1382   */\n  0x20\n    /* \"#utility.yul\":1369:1378   */\n  dup3\n    /* \"#utility.yul\":1365:1383   */\n  add\n    /* \"#utility.yul\":1357:1383   */\n  swap1\n  pop\n    /* \"#utility.yul\":1429:1438   */\n  dup2\n    /* \"#utility.yul\":1423:1427   */\n  dup2\n    /* \"#utility.yul\":1419:1439   */\n  sub\n    /* \"#utility.yul\":1415:1416   */\n  0x00\n    /* \"#utility.yul\":1404:1413   */\n  dup4\n    /* \"#utility.yul\":1400:1417   */\n  add\n    /* \"#utility.yul\":1393:1440   */\n  mstore\n    /* \"#utility.yul\":1457:1588   */\n  tag_62\n    /* \"#utility.yul\":1583:1587   */\n  dup2\n    /* \"#utility.yul\":1457:1588   */\n  tag_54\n  jump\t// in\ntag_62:\n    /* \"#utility.yul\":1449:1588   */\n  swap1\n  pop\n    /* \"#utility.yul\":1347:1595   */\n  swap2\n  swap1\n  pop\n  jump\t// out\n    /* \"#utility.yul\":1601:1770   */\ntag_51:\n    /* \"#utility.yul\":1685:1696   */\n  0x00\n    /* \"#utility.yul\":1719:1725   */\n  dup3\n    /* \"#utility.yul\":1714:1717   */\n  dup3\n    /* \"#utility.yul\":1707:1726   */\n  mstore\n    /* \"#utility.yul\":1759:1763   */\n  0x20\n    /* \"#utility.yul\":1754:1757   */\n  dup3\n    /* \"#utility.yul\":1750:1764   */\n  add\n    /* \"#utility.yul\":1735:1764   */\n  swap1\n  pop\n    /* \"#utility.yul\":1697:1770   */\n  swap3\n  swap2\n  pop\n  pop\n  jump\t// out\n    /* \"#utility.yul\":1776:2096   */\ntag_37:\n    /* \"#utility.yul\":1820:1826   */\n  0x00\n    /* \"#utility.yul\":1857:1858   */\n  0x02\n    /* \"#utility.yul\":1851:1855   */\n  dup3\n    /* \"#utility.yul\":1847:1859   */\n  div\n    /* \"#utility.yul\":1837:1859   */\n  swap1\n  pop\n    /* \"#utility.yul\":1904:1905   */\n  0x01\n    /* \"#utility.yul\":1898:1902   */\n  dup3\n    /* \"#utility.yul\":1894:1906   */\n  and\n    /* \"#utility.yul\":1925:1943   */\n  dup1\n    /* \"#utility.yul\":1915:1917   */\n  tag_65\n  jumpi\n    /* \"#utility.yul\":1981:1985   */\n  0x7f\n    /* \"#utility.yul\":1973:1979   */\n  dup3\n    /* \"#utility.yul\":1969:1986   */\n  and\n    /* \"#utility.yul\":1959:1986   */\n  swap2\n  pop\n    /* \"#utility.yul\":1915:1917   */\ntag_65:\n    /* \"#utility.yul\":2043:2045   */\n  0x20\n    /* \"#utility.yul\":2035:2041   */\n  dup3\n    /* \"#utility.yul\":2032:2046   */\n  lt\n    /* \"#utility.yul\":2012:2030   */\n  dup2\n    /* \"#utility.yul\":2009:2047   */\n  eq\n    /* \"#utility.yul\":2006:2008   */\n  iszero\n  tag_66\n  jumpi\n    /* \"#utility.yul\":2062:2080   */\n  tag_67\n  tag_68\n  jump\t// in\ntag_67:\n    /* \"#utility.yul\":2006:2008   */\ntag_66:\n    /* \"#utility.yul\":1827:2096   */\n  pop\n  swap2\n  swap1\n  pop\n  jump\t// out\n    /* \"#utility.yul\":2102:2282   */\ntag_68:\n    /* \"#utility.yul\":2150:2227   */\n  0x4e487b7100000000000000000000000000000000000000000000000000000000\n    /* \"#utility.yul\":2147:2148   */\n  0x00\n    /* \"#utility.yul\":2140:2228   */\n  mstore\n    /* \"#utility.yul\":2247:2251   */\n  0x22\n    /* \"#utility.yul\":2244:2245   */\n  0x04\n    /* \"#utility.yul\":2237:2252   */\n  mstore\n    /* \"#utility.yul\":2271:2275   */\n  0x24\n    /* \"#utility.yul\":2268:2269   */\n  0x00\n    /* \"#utility.yul\":2261:2276   */\n  revert\n    /* \"#utility.yul\":2288:2513   */\ntag_53:\n    /* \"#utility.yul\":2428:2462   */\n  0x4f776e61626c653a206e6577206f776e657220697320746865207a65726f2061\n    /* \"#utility.yul\":2424:2425   */\n  0x00\n    /* \"#utility.yul\":2416:2422   */\n  dup3\n    /* \"#utility.yul\":2412:2426   */\n  add\n    /* \"#utility.yul\":2405:2463   */\n  mstore\n    /* \"#utility.yul\":2497:2505   */\n  0x6464726573730000000000000000000000000000000000000000000000000000\n    /* \"#utility.yul\":2492:2494   */\n  0x20\n    /* \"#utility.yul\":2484:2490   */\n  dup3\n    /* \"#utility.yul\":2480:2495   */\n  add\n    /* \"#utility.yul\":2473:2506   */\n  mstore\n    /* \"#utility.yul\":2394:2513   */\n  pop\n  jump\t// out\n    /* \"#utility.yul\":2519:2701   */\ntag_58:\n    /* \"#utility.yul\":2659:2693   */\n  0x4f776e61626c653a2063616c6c6572206973206e6f7420746865206f776e6572\n    /* \"#utility.yul\":2655:2656   */\n  0x00\n    /* \"#utility.yul\":2647:2653   */\n  dup3\n    /* \"#utility.yul\":2643:2657   */\n  add\n    /* \"#utility.yul\":2636:2694   */\n  mstore\n    /* \"#utility.yul\":2625:2701   */\n  pop\n  jump\t// out\n    /* \"contracts/ERC20/FlowerCoin.sol\":168:937  contract FlowerCoin is ERC20, Ownable {... */\ntag_17:\n  dataSize(sub_0)\n  dup1\n  dataOffset(sub_0)\n  0x00\n  codecopy\n  0x00\n  return\nstop\n\nsub_0: assembly {\n        /* \"contracts/ERC20/FlowerCoin.sol\":168:937  contract FlowerCoin is ERC20, Ownable {... */\n      mstore(0x40, 0x80)\n      callvalue\n      dup1\n      iszero\n      tag_1\n      jumpi\n      0x00\n      dup1\n      revert\n    tag_1:\n      pop\n      jumpi(tag_2, lt(calldatasize, 0x04))\n      shr(0xe0, calldataload(0x00))\n      dup1\n      0x715018a6\n      gt\n      tag_21\n      jumpi\n      dup1\n      0xa457c2d7\n      gt\n      tag_22\n      jumpi\n      dup1\n      0xa457c2d7\n      eq\n      tag_16\n      jumpi\n      dup1\n      0xa9059cbb\n      eq\n      tag_17\n      jumpi\n      dup1\n      0xdd62ed3e\n      eq\n      tag_18\n      jumpi\n      dup1\n      0xf2fde38b\n      eq\n      tag_19\n      jumpi\n      dup1\n      0xf46eccc4\n      eq\n      tag_20\n      jumpi\n      jump(tag_2)\n    tag_22:\n      dup1\n      0x715018a6\n      eq\n      tag_12\n      jumpi\n      dup1\n      0x8da5cb5b\n      eq\n      tag_13\n      jumpi\n      dup1\n      0x95d89b41\n      eq\n      tag_14\n      jumpi\n      dup1\n      0x983b2d56\n      eq\n      tag_15\n      jumpi\n      jump(tag_2)\n    tag_21:\n      dup1\n      0x3092afd5\n      gt\n      tag_23\n      jumpi\n      dup1\n      0x3092afd5\n      eq\n      tag_7\n      jumpi\n      dup1\n      0x313ce567\n      eq\n      tag_8\n      jumpi\n      dup1\n      0x39509351\n      eq\n      tag_9\n      jumpi\n      dup1\n      0x40c10f19\n      eq\n      tag_10\n      jumpi\n      dup1\n      0x70a08231\n      eq\n      tag_11\n      jumpi\n      jump(tag_2)\n    tag_23:\n      dup1\n      0x06fdde03\n      eq\n      tag_3\n      jumpi\n      dup1\n      0x095ea7b3\n      eq\n      tag_4\n      jumpi\n      dup1\n      0x18160ddd\n      eq\n      tag_5\n      jumpi\n      dup1\n      0x23b872dd\n      eq\n      tag_6\n      jumpi\n    tag_2:\n      0x00\n      dup1\n      revert\n        /* \"@openzeppelin/contracts/token/ERC20/ERC20.sol\":2154:2252  function name() public view virtual override returns (string memory) {... */\n    tag_3:\n      tag_24\n      tag_25\n      jump\t// in\n    tag_24:\n      mload(0x40)\n      tag_26\n      swap2\n      swap1\n      tag_27\n      jump\t// in\n    tag_26:\n      mload(0x40)\n      dup1\n      swap2\n      sub\n      swap1\n      return\n        /* \"@openzeppelin/contracts/token/ERC20/ERC20.sol\":4431:4628  function approve(address spender, uint256 amount) public virtual override returns (bool) {... */\n    tag_4:\n      tag_28\n      0x04\n      dup1\n      calldatasize\n      sub\n      dup2\n      add\n      swap1\n      tag_29\n      swap2\n      swap1\n      tag_30\n      jump\t// in\n    tag_29:\n      tag_31\n      jump\t// in\n    tag_28:\n      mload(0x40)\n      tag_32\n      swap2\n      swap1\n      tag_33\n      jump\t// in\n    tag_32:\n      mload(0x40)\n      dup1\n      swap2\n      sub\n      swap1\n      return\n        /* \"@openzeppelin/contracts/token/ERC20/ERC20.sol\":3242:3348  function totalSupply() public view virtual override returns (uint256) {... */\n    tag_5:\n      tag_34\n      tag_35\n      jump\t// in\n    tag_34:\n      mload(0x40)\n      tag_36\n      swap2\n      swap1\n      tag_37\n      jump\t// in\n    tag_36:\n      mload(0x40)\n      dup1\n      swap2\n      sub\n      swap1\n      return\n        /* \"@openzeppelin/contracts/token/ERC20/ERC20.sol\":5190:5476  function transferFrom(... */\n    tag_6:\n      tag_38\n      0x04\n      dup1\n      calldatasize\n      sub\n      dup2\n      add\n      swap1\n      tag_39\n      swap2\n      swap1\n      tag_40\n      jump\t// in\n    tag_39:\n      tag_41\n      jump\t// in\n    tag_38:\n      mload(0x40)\n      tag_42\n      swap2\n      swap1\n      tag_33\n      jump\t// in\n    tag_42:\n      mload(0x40)\n      dup1\n      swap2\n      sub\n      swap1\n      return\n        /* \"contracts/ERC20/FlowerCoin.sol\":738:831  function removeMinter(address _addr) public onlyOwner {... */\n    tag_7:\n      tag_43\n      0x04\n      dup1\n      calldatasize\n      sub\n      dup2\n      add\n      swap1\n      tag_44\n      swap2\n      swap1\n      tag_45\n      jump\t// in\n    tag_44:\n      tag_46\n      jump\t// in\n    tag_43:\n      stop\n        /* \"@openzeppelin/contracts/token/ERC20/ERC20.sol\":3091:3182  function decimals() public view virtual override returns (uint8) {... */\n    tag_8:\n      tag_47\n      tag_48\n      jump\t// in\n    tag_47:\n      mload(0x40)\n      tag_49\n      swap2\n      swap1\n      tag_50\n      jump\t// in\n    tag_49:\n      mload(0x40)\n      dup1\n      swap2\n      sub\n      swap1\n      return\n        /* \"@openzeppelin/contracts/token/ERC20/ERC20.sol\":5871:6105  function increaseAllowance(address spender, uint256 addedValue) public virtual returns (bool) {... */\n    tag_9:\n      tag_51\n      0x04\n      dup1\n      calldatasize\n      sub\n      dup2\n      add\n      swap1\n      tag_52\n      swap2\n      swap1\n      tag_30\n      jump\t// in\n    tag_52:\n      tag_53\n      jump\t// in\n    tag_51:\n      mload(0x40)\n      tag_54\n      swap2\n      swap1\n      tag_33\n      jump\t// in\n    tag_54:\n      mload(0x40)\n      dup1\n      swap2\n      sub\n      swap1\n      return\n        /* \"contracts/ERC20/FlowerCoin.sol\":837:935  function mint(address _to, uint256 _amount) public onlyMinter {... */\n    tag_10:\n      tag_55\n      0x04\n      dup1\n      calldatasize\n      sub\n      dup2\n      add\n      swap1\n      tag_56\n      swap2\n      swap1\n      tag_30\n      jump\t// in\n    tag_56:\n      tag_57\n      jump\t// in\n    tag_55:\n      stop\n        /* \"@openzeppelin/contracts/token/ERC20/ERC20.sol\":3406:3531  function balanceOf(address account) public view virtual override returns (uint256) {... */\n    tag_11:\n      tag_58\n      0x04\n      dup1\n      calldatasize\n      sub\n      dup2\n      add\n      swap1\n      tag_59\n      swap2\n      swap1\n      tag_45\n      jump\t// in\n    tag_59:\n      tag_60\n      jump\t// in\n    tag_58:\n      mload(0x40)\n      tag_61\n      swap2\n      swap1\n      tag_37\n      jump\t// in\n    tag_61:\n      mload(0x40)\n      dup1\n      swap2\n      sub\n      swap1\n      return\n        /* \"@openzeppelin/contracts/access/Ownable.sol\":1831:1932  function renounceOwnership() public virtual onlyOwner {... */\n    tag_12:\n      tag_62\n      tag_63\n      jump\t// in\n    tag_62:\n      stop\n        /* \"@openzeppelin/contracts/access/Ownable.sol\":1201:1286  function owner() public view virtual returns (address) {... */\n    tag_13:\n      tag_64\n      tag_65\n      jump\t// in\n    tag_64:\n      mload(0x40)\n      tag_66\n      swap2\n      swap1\n      tag_67\n      jump\t// in\n    tag_66:\n      mload(0x40)\n      dup1\n      swap2\n      sub\n      swap1\n      return\n        /* \"@openzeppelin/contracts/token/ERC20/ERC20.sol\":2365:2467  function symbol() public view virtual override returns (string memory) {... */\n    tag_14:\n      tag_68\n      tag_69\n      jump\t// in\n    tag_68:\n      mload(0x40)\n      tag_70\n      swap2\n      swap1\n      tag_27\n      jump\t// in\n    tag_70:\n      mload(0x40)\n      dup1\n      swap2\n      sub\n      swap1\n      return\n        /* \"contracts/ERC20/FlowerCoin.sol\":643:732  function addMinter(address _addr) public onlyOwner {... */\n    tag_15:\n      tag_71\n      0x04\n      dup1\n      calldatasize\n      sub\n      dup2\n      add\n      swap1\n      tag_72\n      swap2\n      swap1\n      tag_45\n      jump\t// in\n    tag_72:\n      tag_73\n      jump\t// in\n    tag_71:\n      stop\n        /* \"@openzeppelin/contracts/token/ERC20/ERC20.sol\":6592:7019  function decreaseAllowance(address spender, uint256 subtractedValue) public virtual returns (bool) {... */\n    tag_16:\n      tag_74\n      0x04\n      dup1\n      calldatasize\n      sub\n      dup2\n      add\n      swap1\n      tag_75\n      swap2\n      swap1\n      tag_30\n      jump\t// in\n    tag_75:\n      tag_76\n      jump\t// in\n    tag_74:\n      mload(0x40)\n      tag_77\n      swap2\n      swap1\n      tag_33\n      jump\t// in\n    tag_77:\n      mload(0x40)\n      dup1\n      swap2\n      sub\n      swap1\n      return\n        /* \"@openzeppelin/contracts/token/ERC20/ERC20.sol\":3727:3916  function transfer(address to, uint256 amount) public virtual override returns (bool) {... */\n    tag_17:\n      tag_78\n      0x04\n      dup1\n      calldatasize\n      sub\n      dup2\n      add\n      swap1\n      tag_79\n      swap2\n      swap1\n      tag_30\n      jump\t// in\n    tag_79:\n      tag_80\n      jump\t// in\n    tag_78:\n      mload(0x40)\n      tag_81\n      swap2\n      swap1\n      tag_33\n      jump\t// in\n    tag_81:\n      mload(0x40)\n      dup1\n      swap2\n      sub\n      swap1\n      return\n        /* \"@openzeppelin/contracts/token/ERC20/ERC20.sol\":3974:4123  function allowance(address owner, address spender) public view virtual override returns (uint256) {... */\n    tag_18:\n      tag_82\n      0x04\n      dup1\n      calldatasize\n      sub\n      dup2\n      add\n      swap1\n      tag_83\n      swap2\n      swap1\n      tag_84\n      jump\t// in\n    tag_83:\n      tag_85\n      jump\t// in\n    tag_82:\n      mload(0x40)\n      tag_86\n      swap2\n      swap1\n      tag_37\n      jump\t// in\n    tag_86:\n      mload(0x40)\n      dup1\n      swap2\n      sub\n      swap1\n      return\n        /* \"@openzeppelin/contracts/access/Ownable.sol\":2081:2279  function transferOwnership(address newOwner) public virtual onlyOwner {... */\n    tag_19:\n      tag_87\n      0x04\n      dup1\n      calldatasize\n      sub\n      dup2\n      add\n      swap1\n      tag_88\n      swap2\n      swap1\n      tag_45\n      jump\t// in\n    tag_88:\n      tag_89\n      jump\t// in\n    tag_87:\n      stop\n        /* \"contracts/ERC20/FlowerCoin.sol\":260:299  mapping(address => bool) public minters */\n    tag_20:\n      tag_90\n      0x04\n      dup1\n      calldatasize\n      sub\n      dup2\n      add\n      swap1\n      tag_91\n      swap2\n      swap1\n      tag_45\n      jump\t// in\n    tag_91:\n      tag_92\n      jump\t// in\n    tag_90:\n      mload(0x40)\n      tag_93\n      swap2\n      swap1\n      tag_33\n      jump\t// in\n    tag_93:\n      mload(0x40)\n      dup1\n      swap2\n      sub\n      swap1\n      return\n        /* \"@openzeppelin/contracts/token/ERC20/ERC20.sol\":2154:2252  function name() public view virtual override returns (string memory) {... */\n    tag_25:\n        /* \"@openzeppelin/contracts/token/ERC20/ERC20.sol\":2208:2221  string memory */\n      0x60\n        /* \"@openzeppelin/contracts/token/ERC20/ERC20.sol\":2240:2245  _name */\n      0x03\n        /* \"@openzeppelin/contracts/token/ERC20/ERC20.sol\":2233:2245  return _name */\n      dup1\n      sload\n      tag_95\n      swap1\n      tag_96\n      jump\t// in\n    tag_95:\n      dup1\n      0x1f\n      add\n      0x20\n      dup1\n      swap2\n      div\n      mul\n      0x20\n      add\n      mload(0x40)\n      swap1\n      dup2\n      add\n      0x40\n      mstore\n      dup1\n      swap3\n      swap2\n      swap1\n      dup2\n      dup2\n      mstore\n      0x20\n      add\n      dup3\n      dup1\n      sload\n      tag_97\n      swap1\n      tag_96\n      jump\t// in\n    tag_97:\n      dup1\n      iszero\n      tag_98\n      jumpi\n      dup1\n      0x1f\n      lt\n      tag_99\n      jumpi\n      0x0100\n      dup1\n      dup4\n      sload\n      div\n      mul\n      dup4\n      mstore\n      swap2\n      0x20\n      add\n      swap2\n      jump(tag_98)\n    tag_99:\n      dup3\n      add\n      swap2\n      swap1\n      0x00\n      mstore\n      keccak256(0x00, 0x20)\n      swap1\n    tag_100:\n      dup2\n      sload\n      dup2\n      mstore\n      swap1\n      0x01\n      add\n      swap1\n      0x20\n      add\n      dup1\n      dup4\n      gt\n      tag_100\n      jumpi\n      dup3\n      swap1\n      sub\n      0x1f\n      and\n      dup3\n      add\n      swap2\n    tag_98:\n      pop\n      pop\n      pop\n      pop\n      pop\n      swap1\n      pop\n        /* \"@openzeppelin/contracts/token/ERC20/ERC20.sol\":2154:2252  function name() public view virtual override returns (string memory) {... */\n      swap1\n      jump\t// out\n        /* \"@openzeppelin/contracts/token/ERC20/ERC20.sol\":4431:4628  function approve(address spender, uint256 amount) public virtual override returns (bool) {... */\n    tag_31:\n        /* \"@openzeppelin/contracts/token/ERC20/ERC20.sol\":4514:4518  bool */\n      0x00\n        /* \"@openzeppelin/contracts/token/ERC20/ERC20.sol\":4530:4543  address owner */\n      dup1\n        /* \"@openzeppelin/contracts/token/ERC20/ERC20.sol\":4546:4558  _msgSender() */\n      tag_102\n        /* \"@openzeppelin/contracts/token/ERC20/ERC20.sol\":4546:4556  _msgSender */\n      tag_103\n        /* \"@openzeppelin/contracts/token/ERC20/ERC20.sol\":4546:4558  _msgSender() */\n      jump\t// in\n    tag_102:\n        /* \"@openzeppelin/contracts/token/ERC20/ERC20.sol\":4530:4558  address owner = _msgSender() */\n      swap1\n      pop\n        /* \"@openzeppelin/contracts/token/ERC20/ERC20.sol\":4568:4600  _approve(owner, spender, amount) */\n      tag_104\n        /* \"@openzeppelin/contracts/token/ERC20/ERC20.sol\":4577:4582  owner */\n      dup2\n        /* \"@openzeppelin/contracts/token/ERC20/ERC20.sol\":4584:4591  spender */\n      dup6\n        /* \"@openzeppelin/contracts/token/ERC20/ERC20.sol\":4593:4599  amount */\n      dup6\n        /* \"@openzeppelin/contracts/token/ERC20/ERC20.sol\":4568:4576  _approve */\n      tag_105\n        /* \"@openzeppelin/contracts/token/ERC20/ERC20.sol\":4568:4600  _approve(owner, spender, amount) */\n      jump\t// in\n    tag_104:\n        /* \"@openzeppelin/contracts/token/ERC20/ERC20.sol\":4617:4621  true */\n      0x01\n        /* \"@openzeppelin/contracts/token/ERC20/ERC20.sol\":4610:4621  return true */\n      swap2\n      pop\n      pop\n        /* \"@openzeppelin/contracts/token/ERC20/ERC20.sol\":4431:4628  function approve(address spender, uint256 amount) public virtual override returns (bool) {... */\n      swap3\n      swap2\n      pop\n      pop\n      jump\t// out\n        /* \"@openzeppelin/contracts/token/ERC20/ERC20.sol\":3242:3348  function totalSupply() public view virtual override returns (uint256) {... */\n    tag_35:\n        /* \"@openzeppelin/contracts/token/ERC20/ERC20.sol\":3303:3310  uint256 */\n      0x00\n        /* \"@openzeppelin/contracts/token/ERC20/ERC20.sol\":3329:3341  _totalSupply */\n      sload(0x02)\n        /* \"@openzeppelin/contracts/token/ERC20/ERC20.sol\":3322:3341  return _totalSupply */\n      swap1\n      pop\n        /* \"@openzeppelin/contracts/token/ERC20/ERC20.sol\":3242:3348  function totalSupply() public view virtual override returns (uint256) {... */\n      swap1\n      jump\t// out\n        /* \"@openzeppelin/contracts/token/ERC20/ERC20.sol\":5190:5476  function transferFrom(... */\n    tag_41:\n        /* \"@openzeppelin/contracts/token/ERC20/ERC20.sol\":5317:5321  bool */\n      0x00\n        /* \"@openzeppelin/contracts/token/ERC20/ERC20.sol\":5333:5348  address spender */\n      dup1\n        /* \"@openzeppelin/contracts/token/ERC20/ERC20.sol\":5351:5363  _msgSender() */\n      tag_108\n        /* \"@openzeppelin/contracts/token/ERC20/ERC20.sol\":5351:5361  _msgSender */\n      tag_103\n        /* \"@openzeppelin/contracts/token/ERC20/ERC20.sol\":5351:5363  _msgSender() */\n      jump\t// in\n    tag_108:\n        /* \"@openzeppelin/contracts/token/ERC20/ERC20.sol\":5333:5363  address spender = _msgSender() */\n      swap1\n      pop\n        /* \"@openzeppelin/contracts/token/ERC20/ERC20.sol\":5373:5411  _spendAllowance(from, spender, amount) */\n      tag_109\n        /* \"@openzeppelin/contracts/token/ERC20/ERC20.sol\":5389:5393  from */\n      dup6\n        /* \"@openzeppelin/contracts/token/ERC20/ERC20.sol\":5395:5402  spender */\n      dup3\n        /* \"@openzeppelin/contracts/token/ERC20/ERC20.sol\":5404:5410  amount */\n      dup6\n        /* \"@openzeppelin/contracts/token/ERC20/ERC20.sol\":5373:5388  _spendAllowance */\n      tag_110\n        /* \"@openzeppelin/contracts/token/ERC20/ERC20.sol\":5373:5411  _spendAllowance(from, spender, amount) */\n      jump\t// in\n    tag_109:\n        /* \"@openzeppelin/contracts/token/ERC20/ERC20.sol\":5421:5448  _transfer(from, to, amount) */\n      tag_111\n        /* \"@openzeppelin/contracts/token/ERC20/ERC20.sol\":5431:5435  from */\n      dup6\n        /* \"@openzeppelin/contracts/token/ERC20/ERC20.sol\":5437:5439  to */\n      dup6\n        /* \"@openzeppelin/contracts/token/ERC20/ERC20.sol\":5441:5447  amount */\n      dup6\n        /* \"@openzeppelin/contracts/token/ERC20/ERC20.sol\":5421:5430  _transfer */\n      tag_112\n        /* \"@openzeppelin/contracts/token/ERC20/ERC20.sol\":5421:5448  _transfer(from, to, amount) */\n      jump\t// in\n    tag_111:\n        /* \"@openzeppelin/contracts/token/ERC20/ERC20.sol\":5465:5469  true */\n      0x01\n        /* \"@openzeppelin/contracts/token/ERC20/ERC20.sol\":5458:5469  return true */\n      swap2\n      pop\n      pop\n        /* \"@openzeppelin/contracts/token/ERC20/ERC20.sol\":5190:5476  function transferFrom(... */\n      swap4\n      swap3\n      pop\n      pop\n      pop\n      jump\t// out\n        /* \"contracts/ERC20/FlowerCoin.sol\":738:831  function removeMinter(address _addr) public onlyOwner {... */\n    tag_46:\n        /* \"@openzeppelin/contracts/access/Ownable.sol\":1094:1107  _checkOwner() */\n      tag_114\n        /* \"@openzeppelin/contracts/access/Ownable.sol\":1094:1105  _checkOwner */\n      tag_115\n        /* \"@openzeppelin/contracts/access/Ownable.sol\":1094:1107  _checkOwner() */\n      jump\t// in\n    tag_114:\n        /* \"contracts/ERC20/FlowerCoin.sol\":819:824  false */\n      0x00\n        /* \"contracts/ERC20/FlowerCoin.sol\":802:809  minters */\n      0x06\n        /* \"contracts/ERC20/FlowerCoin.sol\":802:816  minters[_addr] */\n      0x00\n        /* \"contracts/ERC20/FlowerCoin.sol\":810:815  _addr */\n      dup4\n        /* \"contracts/ERC20/FlowerCoin.sol\":802:816  minters[_addr] */\n      0xffffffffffffffffffffffffffffffffffffffff\n      and\n      0xffffffffffffffffffffffffffffffffffffffff\n      and\n      dup2\n      mstore\n      0x20\n      add\n      swap1\n      dup2\n      mstore\n      0x20\n      add\n      0x00\n      keccak256\n      0x00\n        /* \"contracts/ERC20/FlowerCoin.sol\":802:824  minters[_addr] = false */\n      0x0100\n      exp\n      dup2\n      sload\n      dup2\n      0xff\n      mul\n      not\n      and\n      swap1\n      dup4\n      iszero\n      iszero\n      mul\n      or\n      swap1\n      sstore\n      pop\n        /* \"contracts/ERC20/FlowerCoin.sol\":738:831  function removeMinter(address _addr) public onlyOwner {... */\n      pop\n      jump\t// out\n        /* \"@openzeppelin/contracts/token/ERC20/ERC20.sol\":3091:3182  function decimals() public view virtual override returns (uint8) {... */\n    tag_48:\n        /* \"@openzeppelin/contracts/token/ERC20/ERC20.sol\":3149:3154  uint8 */\n      0x00\n        /* \"@openzeppelin/contracts/token/ERC20/ERC20.sol\":3173:3175  18 */\n      0x12\n        /* \"@openzeppelin/contracts/token/ERC20/ERC20.sol\":3166:3175  return 18 */\n      swap1\n      pop\n        /* \"@openzeppelin/contracts/token/ERC20/ERC20.sol\":3091:3182  function decimals() public view virtual override returns (uint8) {... */\n      swap1\n      jump\t// out\n        /* \"@openzeppelin/contracts/token/ERC20/ERC20.sol\":5871:6105  function increaseAllowance(address spender, uint256 addedValue) public virtual returns (bool) {... */\n    tag_53:\n        /* \"@openzeppelin/contracts/token/ERC20/ERC20.sol\":5959:5963  bool */\n      0x00\n        /* \"@openzeppelin/contracts/token/ERC20/ERC20.sol\":5975:5988  address owner */\n      dup1\n        /* \"@openzeppelin/contracts/token/ERC20/ERC20.sol\":5991:6003  _msgSender() */\n      tag_119\n        /* \"@openzeppelin/contracts/token/ERC20/ERC20.sol\":5991:6001  _msgSender */\n      tag_103\n        /* \"@openzeppelin/contracts/token/ERC20/ERC20.sol\":5991:6003  _msgSender() */\n      jump\t// in\n    tag_119:\n        /* \"@openzeppelin/contracts/token/ERC20/ERC20.sol\":5975:6003  address owner = _msgSender() */\n      swap1\n      pop\n        /* \"@openzeppelin/contracts/token/ERC20/ERC20.sol\":6013:6077  _approve(owner, spender, allowance(owner, spender) + addedValue) */\n      tag_120\n        /* \"@openzeppelin/contracts/token/ERC20/ERC20.sol\":6022:6027  owner */\n      dup2\n        /* \"@openzeppelin/contracts/token/ERC20/ERC20.sol\":6029:6036  spender */\n      dup6\n        /* \"@openzeppelin/contracts/token/ERC20/ERC20.sol\":6066:6076  addedValue */\n      dup6\n        /* \"@openzeppelin/contracts/token/ERC20/ERC20.sol\":6038:6063  allowance(owner, spender) */\n      tag_121\n        /* \"@openzeppelin/contracts/token/ERC20/ERC20.sol\":6048:6053  owner */\n      dup6\n        /* \"@openzeppelin/contracts/token/ERC20/ERC20.sol\":6055:6062  spender */\n      dup10\n        /* \"@openzeppelin/contracts/token/ERC20/ERC20.sol\":6038:6047  allowance */\n      tag_85\n        /* \"@openzeppelin/contracts/token/ERC20/ERC20.sol\":6038:6063  allowance(owner, spender) */\n      jump\t// in\n    tag_121:\n        /* \"@openzeppelin/contracts/token/ERC20/ERC20.sol\":6038:6076  allowance(owner, spender) + addedValue */\n      tag_122\n      swap2\n      swap1\n      tag_123\n      jump\t// in\n    tag_122:\n        /* \"@openzeppelin/contracts/token/ERC20/ERC20.sol\":6013:6021  _approve */\n      tag_105\n        /* \"@openzeppelin/contracts/token/ERC20/ERC20.sol\":6013:6077  _approve(owner, spender, allowance(owner, spender) + addedValue) */\n      jump\t// in\n    tag_120:\n        /* \"@openzeppelin/contracts/token/ERC20/ERC20.sol\":6094:6098  true */\n      0x01\n        /* \"@openzeppelin/contracts/token/ERC20/ERC20.sol\":6087:6098  return true */\n      swap2\n      pop\n      pop\n        /* \"@openzeppelin/contracts/token/ERC20/ERC20.sol\":5871:6105  function increaseAllowance(address spender, uint256 addedValue) public virtual returns (bool) {... */\n      swap3\n      swap2\n      pop\n      pop\n      jump\t// out\n        /* \"contracts/ERC20/FlowerCoin.sol\":837:935  function mint(address _to, uint256 _amount) public onlyMinter {... */\n    tag_57:\n        /* \"contracts/ERC20/FlowerCoin.sol\":579:583  true */\n      0x01\n        /* \"contracts/ERC20/FlowerCoin.sol\":556:583  minters[msg.sender] == true */\n      iszero\n      iszero\n        /* \"contracts/ERC20/FlowerCoin.sol\":556:563  minters */\n      0x06\n        /* \"contracts/ERC20/FlowerCoin.sol\":556:575  minters[msg.sender] */\n      0x00\n        /* \"contracts/ERC20/FlowerCoin.sol\":564:574  msg.sender */\n      caller\n        /* \"contracts/ERC20/FlowerCoin.sol\":556:575  minters[msg.sender] */\n      0xffffffffffffffffffffffffffffffffffffffff\n      and\n      0xffffffffffffffffffffffffffffffffffffffff\n      and\n      dup2\n      mstore\n      0x20\n      add\n      swap1\n      dup2\n      mstore\n      0x20\n      add\n      0x00\n      keccak256\n      0x00\n      swap1\n      sload\n      swap1\n      0x0100\n      exp\n      swap1\n      div\n      0xff\n      and\n        /* \"contracts/ERC20/FlowerCoin.sol\":556:583  minters[msg.sender] == true */\n      iszero\n      iszero\n      eq\n        /* \"contracts/ERC20/FlowerCoin.sol\":548:619  require(minters[msg.sender] == true, \"Only minters can perform action\") */\n      tag_125\n      jumpi\n      mload(0x40)\n      0x08c379a000000000000000000000000000000000000000000000000000000000\n      dup2\n      mstore\n      0x04\n      add\n      tag_126\n      swap1\n      tag_127\n      jump\t// in\n    tag_126:\n      mload(0x40)\n      dup1\n      swap2\n      sub\n      swap1\n      revert\n    tag_125:\n        /* \"contracts/ERC20/FlowerCoin.sol\":909:928  _mint(_to, _amount) */\n      tag_129\n        /* \"contracts/ERC20/FlowerCoin.sol\":915:918  _to */\n      dup3\n        /* \"contracts/ERC20/FlowerCoin.sol\":920:927  _amount */\n      dup3\n        /* \"contracts/ERC20/FlowerCoin.sol\":909:914  _mint */\n      tag_130\n        /* \"contracts/ERC20/FlowerCoin.sol\":909:928  _mint(_to, _amount) */\n      jump\t// in\n    tag_129:\n        /* \"contracts/ERC20/FlowerCoin.sol\":837:935  function mint(address _to, uint256 _amount) public onlyMinter {... */\n      pop\n      pop\n      jump\t// out\n        /* \"@openzeppelin/contracts/token/ERC20/ERC20.sol\":3406:3531  function balanceOf(address account) public view virtual override returns (uint256) {... */\n    tag_60:\n        /* \"@openzeppelin/contracts/token/ERC20/ERC20.sol\":3480:3487  uint256 */\n      0x00\n        /* \"@openzeppelin/contracts/token/ERC20/ERC20.sol\":3506:3515  _balances */\n      dup1\n        /* \"@openzeppelin/contracts/token/ERC20/ERC20.sol\":3506:3524  _balances[account] */\n      0x00\n        /* \"@openzeppelin/contracts/token/ERC20/ERC20.sol\":3516:3523  account */\n      dup4\n        /* \"@openzeppelin/contracts/token/ERC20/ERC20.sol\":3506:3524  _balances[account] */\n      0xffffffffffffffffffffffffffffffffffffffff\n      and\n      0xffffffffffffffffffffffffffffffffffffffff\n      and\n      dup2\n      mstore\n      0x20\n      add\n      swap1\n      dup2\n      mstore\n      0x20\n      add\n      0x00\n      keccak256\n      sload\n        /* \"@openzeppelin/contracts/token/ERC20/ERC20.sol\":3499:3524  return _balances[account] */\n      swap1\n      pop\n        /* \"@openzeppelin/contracts/token/ERC20/ERC20.sol\":3406:3531  function balanceOf(address account) public view virtual override returns (uint256) {... */\n      swap2\n      swap1\n      pop\n      jump\t// out\n        /* \"@openzeppelin/contracts/access/Ownable.sol\":1831:1932  function renounceOwnership() public virtual onlyOwner {... */\n    tag_63:\n        /* \"@openzeppelin/contracts/access/Ownable.sol\":1094:1107  _checkOwner() */\n      tag_133\n        /* \"@openzeppelin/contracts/access/Ownable.sol\":1094:1105  _checkOwner */\n      tag_115\n        /* \"@openzeppelin/contracts/access/Ownable.sol\":1094:1107  _checkOwner() */\n      jump\t// in\n    tag_133:\n        /* \"@openzeppelin/contracts/access/Ownable.sol\":1895:1925  _transferOwnership(address(0)) */\n      tag_135\n        /* \"@openzeppelin/contracts/access/Ownable.sol\":1922:1923  0 */\n      0x00\n        /* \"@openzeppelin/contracts/access/Ownable.sol\":1895:1913  _transferOwnership */\n      tag_136\n        /* \"@openzeppelin/contracts/access/Ownable.sol\":1895:1925  _transferOwnership(address(0)) */\n      jump\t// in\n    tag_135:\n        /* \"@openzeppelin/contracts/access/Ownable.sol\":1831:1932  function renounceOwnership() public virtual onlyOwner {... */\n      jump\t// out\n        /* \"@openzeppelin/contracts/access/Ownable.sol\":1201:1286  function owner() public view virtual returns (address) {... */\n    tag_65:\n        /* \"@openzeppelin/contracts/access/Ownable.sol\":1247:1254  address */\n      0x00\n        /* \"@openzeppelin/contracts/access/Ownable.sol\":1273:1279  _owner */\n      0x05\n      0x00\n      swap1\n      sload\n      swap1\n      0x0100\n      exp\n      swap1\n      div\n      0xffffffffffffffffffffffffffffffffffffffff\n      and\n        /* \"@openzeppelin/contracts/access/Ownable.sol\":1266:1279  return _owner */\n      swap1\n      pop\n        /* \"@openzeppelin/contracts/access/Ownable.sol\":1201:1286  function owner() public view virtual returns (address) {... */\n      swap1\n      jump\t// out\n        /* \"@openzeppelin/contracts/token/ERC20/ERC20.sol\":2365:2467  function symbol() public view virtual override returns (string memory) {... */\n    tag_69:\n        /* \"@openzeppelin/contracts/token/ERC20/ERC20.sol\":2421:2434  string memory */\n      0x60\n        /* \"@openzeppelin/contracts/token/ERC20/ERC20.sol\":2453:2460  _symbol */\n      0x04\n        /* \"@openzeppelin/contracts/token/ERC20/ERC20.sol\":2446:2460  return _symbol */\n      dup1\n      sload\n      tag_139\n      swap1\n      tag_96\n      jump\t// in\n    tag_139:\n      dup1\n      0x1f\n      add\n      0x20\n      dup1\n      swap2\n      div\n      mul\n      0x20\n      add\n      mload(0x40)\n      swap1\n      dup2\n      add\n      0x40\n      mstore\n      dup1\n      swap3\n      swap2\n      swap1\n      dup2\n      dup2\n      mstore\n      0x20\n      add\n      dup3\n      dup1\n      sload\n      tag_140\n      swap1\n      tag_96\n      jump\t// in\n    tag_140:\n      dup1\n      iszero\n      tag_141\n      jumpi\n      dup1\n      0x1f\n      lt\n      tag_142\n      jumpi\n      0x0100\n      dup1\n      dup4\n      sload\n      div\n      mul\n      dup4\n      mstore\n      swap2\n      0x20\n      add\n      swap2\n      jump(tag_141)\n    tag_142:\n      dup3\n      add\n      swap2\n      swap1\n      0x00\n      mstore\n      keccak256(0x00, 0x20)\n      swap1\n    tag_143:\n      dup2\n      sload\n      dup2\n      mstore\n      swap1\n      0x01\n      add\n      swap1\n      0x20\n      add\n      dup1\n      dup4\n      gt\n      tag_143\n      jumpi\n      dup3\n      swap1\n      sub\n      0x1f\n      and\n      dup3\n      add\n      swap2\n    tag_141:\n      pop\n      pop\n      pop\n      pop\n      pop\n      swap1\n      pop\n        /* \"@openzeppelin/contracts/token/ERC20/ERC20.sol\":2365:2467  function symbol() public view virtual override returns (string memory) {... */\n      swap1\n      jump\t// out\n        /* \"contracts/ERC20/FlowerCoin.sol\":643:732  function addMinter(address _addr) public onlyOwner {... */\n    tag_73:\n        /* \"@openzeppelin/contracts/access/Ownable.sol\":1094:1107  _checkOwner() */\n      tag_145\n        /* \"@openzeppelin/contracts/access/Ownable.sol\":1094:1105  _checkOwner */\n      tag_115\n        /* \"@openzeppelin/contracts/access/Ownable.sol\":1094:1107  _checkOwner() */\n      jump\t// in\n    tag_145:\n        /* \"contracts/ERC20/FlowerCoin.sol\":721:725  true */\n      0x01\n        /* \"contracts/ERC20/FlowerCoin.sol\":704:711  minters */\n      0x06\n        /* \"contracts/ERC20/FlowerCoin.sol\":704:718  minters[_addr] */\n      0x00\n        /* \"contracts/ERC20/FlowerCoin.sol\":712:717  _addr */\n      dup4\n        /* \"contracts/ERC20/FlowerCoin.sol\":704:718  minters[_addr] */\n      0xffffffffffffffffffffffffffffffffffffffff\n      and\n      0xffffffffffffffffffffffffffffffffffffffff\n      and\n      dup2\n      mstore\n      0x20\n      add\n      swap1\n      dup2\n      mstore\n      0x20\n      add\n      0x00\n      keccak256\n      0x00\n        /* \"contracts/ERC20/FlowerCoin.sol\":704:725  minters[_addr] = true */\n      0x0100\n      exp\n      dup2\n      sload\n      dup2\n      0xff\n      mul\n      not\n      and\n      swap1\n      dup4\n      iszero\n      iszero\n      mul\n      or\n      swap1\n      sstore\n      pop\n        /* \"contracts/ERC20/FlowerCoin.sol\":643:732  function addMinter(address _addr) public onlyOwner {... */\n      pop\n      jump\t// out\n        /* \"@openzeppelin/contracts/token/ERC20/ERC20.sol\":6592:7019  function decreaseAllowance(address spender, uint256 subtractedValue) public virtual returns (bool) {... */\n    tag_76:\n        /* \"@openzeppelin/contracts/token/ERC20/ERC20.sol\":6685:6689  bool */\n      0x00\n        /* \"@openzeppelin/contracts/token/ERC20/ERC20.sol\":6701:6714  address owner */\n      dup1\n        /* \"@openzeppelin/contracts/token/ERC20/ERC20.sol\":6717:6729  _msgSender() */\n      tag_148\n        /* \"@openzeppelin/contracts/token/ERC20/ERC20.sol\":6717:6727  _msgSender */\n      tag_103\n        /* \"@openzeppelin/contracts/token/ERC20/ERC20.sol\":6717:6729  _msgSender() */\n      jump\t// in\n    tag_148:\n        /* \"@openzeppelin/contracts/token/ERC20/ERC20.sol\":6701:6729  address owner = _msgSender() */\n      swap1\n      pop\n        /* \"@openzeppelin/contracts/token/ERC20/ERC20.sol\":6739:6763  uint256 currentAllowance */\n      0x00\n        /* \"@openzeppelin/contracts/token/ERC20/ERC20.sol\":6766:6791  allowance(owner, spender) */\n      tag_149\n        /* \"@openzeppelin/contracts/token/ERC20/ERC20.sol\":6776:6781  owner */\n      dup3\n        /* \"@openzeppelin/contracts/token/ERC20/ERC20.sol\":6783:6790  spender */\n      dup7\n        /* \"@openzeppelin/contracts/token/ERC20/ERC20.sol\":6766:6775  allowance */\n      tag_85\n        /* \"@openzeppelin/contracts/token/ERC20/ERC20.sol\":6766:6791  allowance(owner, spender) */\n      jump\t// in\n    tag_149:\n        /* \"@openzeppelin/contracts/token/ERC20/ERC20.sol\":6739:6791  uint256 currentAllowance = allowance(owner, spender) */\n      swap1\n      pop\n        /* \"@openzeppelin/contracts/token/ERC20/ERC20.sol\":6829:6844  subtractedValue */\n      dup4\n        /* \"@openzeppelin/contracts/token/ERC20/ERC20.sol\":6809:6825  currentAllowance */\n      dup2\n        /* \"@openzeppelin/contracts/token/ERC20/ERC20.sol\":6809:6844  currentAllowance >= subtractedValue */\n      lt\n      iszero\n        /* \"@openzeppelin/contracts/token/ERC20/ERC20.sol\":6801:6886  require(currentAllowance >= subtractedValue, \"ERC20: decreased allowance below zero\") */\n      tag_150\n      jumpi\n      mload(0x40)\n      0x08c379a000000000000000000000000000000000000000000000000000000000\n      dup2\n      mstore\n      0x04\n      add\n      tag_151\n      swap1\n      tag_152\n      jump\t// in\n    tag_151:\n      mload(0x40)\n      dup1\n      swap2\n      sub\n      swap1\n      revert\n    tag_150:\n        /* \"@openzeppelin/contracts/token/ERC20/ERC20.sol\":6920:6980  _approve(owner, spender, currentAllowance - subtractedValue) */\n      tag_153\n        /* \"@openzeppelin/contracts/token/ERC20/ERC20.sol\":6929:6934  owner */\n      dup3\n        /* \"@openzeppelin/contracts/token/ERC20/ERC20.sol\":6936:6943  spender */\n      dup7\n        /* \"@openzeppelin/contracts/token/ERC20/ERC20.sol\":6964:6979  subtractedValue */\n      dup7\n        /* \"@openzeppelin/contracts/token/ERC20/ERC20.sol\":6945:6961  currentAllowance */\n      dup5\n        /* \"@openzeppelin/contracts/token/ERC20/ERC20.sol\":6945:6979  currentAllowance - subtractedValue */\n      sub\n        /* \"@openzeppelin/contracts/token/ERC20/ERC20.sol\":6920:6928  _approve */\n      tag_105\n        /* \"@openzeppelin/contracts/token/ERC20/ERC20.sol\":6920:6980  _approve(owner, spender, currentAllowance - subtractedValue) */\n      jump\t// in\n    tag_153:\n        /* \"@openzeppelin/contracts/token/ERC20/ERC20.sol\":7008:7012  true */\n      0x01\n        /* \"@openzeppelin/contracts/token/ERC20/ERC20.sol\":7001:7012  return true */\n      swap3\n      pop\n      pop\n      pop\n        /* \"@openzeppelin/contracts/token/ERC20/ERC20.sol\":6592:7019  function decreaseAllowance(address spender, uint256 subtractedValue) public virtual returns (bool) {... */\n      swap3\n      swap2\n      pop\n      pop\n      jump\t// out\n        /* \"@openzeppelin/contracts/token/ERC20/ERC20.sol\":3727:3916  function transfer(address to, uint256 amount) public virtual override returns (bool) {... */\n    tag_80:\n        /* \"@openzeppelin/contracts/token/ERC20/ERC20.sol\":3806:3810  bool */\n      0x00\n        /* \"@openzeppelin/contracts/token/ERC20/ERC20.sol\":3822:3835  address owner */\n      dup1\n        /* \"@openzeppelin/contracts/token/ERC20/ERC20.sol\":3838:3850  _msgSender() */\n      tag_155\n        /* \"@openzeppelin/contracts/token/ERC20/ERC20.sol\":3838:3848  _msgSender */\n      tag_103\n        /* \"@openzeppelin/contracts/token/ERC20/ERC20.sol\":3838:3850  _msgSender() */\n      jump\t// in\n    tag_155:\n        /* \"@openzeppelin/contracts/token/ERC20/ERC20.sol\":3822:3850  address owner = _msgSender() */\n      swap1\n      pop\n        /* \"@openzeppelin/contracts/token/ERC20/ERC20.sol\":3860:3888  _transfer(owner, to, amount) */\n      tag_156\n        /* \"@openzeppelin/contracts/token/ERC20/ERC20.sol\":3870:3875  owner */\n      dup2\n        /* \"@openzeppelin/contracts/token/ERC20/ERC20.sol\":3877:3879  to */\n      dup6\n        /* \"@openzeppelin/contracts/token/ERC20/ERC20.sol\":3881:3887  amount */\n      dup6\n        /* \"@openzeppelin/contracts/token/ERC20/ERC20.sol\":3860:3869  _transfer */\n      tag_112\n        /* \"@openzeppelin/contracts/token/ERC20/ERC20.sol\":3860:3888  _transfer(owner, to, amount) */\n      jump\t// in\n    tag_156:\n        /* \"@openzeppelin/contracts/token/ERC20/ERC20.sol\":3905:3909  true */\n      0x01\n        /* \"@openzeppelin/contracts/token/ERC20/ERC20.sol\":3898:3909  return true */\n      swap2\n      pop\n      pop\n        /* \"@openzeppelin/contracts/token/ERC20/ERC20.sol\":3727:3916  function transfer(address to, uint256 amount) public virtual override returns (bool) {... */\n      swap3\n      swap2\n      pop\n      pop\n      jump\t// out\n        /* \"@openzeppelin/contracts/token/ERC20/ERC20.sol\":3974:4123  function allowance(address owner, address spender) public view virtual override returns (uint256) {... */\n    tag_85:\n        /* \"@openzeppelin/contracts/token/ERC20/ERC20.sol\":4063:4070  uint256 */\n      0x00\n        /* \"@openzeppelin/contracts/token/ERC20/ERC20.sol\":4089:4100  _allowances */\n      0x01\n        /* \"@openzeppelin/contracts/token/ERC20/ERC20.sol\":4089:4107  _allowances[owner] */\n      0x00\n        /* \"@openzeppelin/contracts/token/ERC20/ERC20.sol\":4101:4106  owner */\n      dup5\n        /* \"@openzeppelin/contracts/token/ERC20/ERC20.sol\":4089:4107  _allowances[owner] */\n      0xffffffffffffffffffffffffffffffffffffffff\n      and\n      0xffffffffffffffffffffffffffffffffffffffff\n      and\n      dup2\n      mstore\n      0x20\n      add\n      swap1\n      dup2\n      mstore\n      0x20\n      add\n      0x00\n      keccak256\n        /* \"@openzeppelin/contracts/token/ERC20/ERC20.sol\":4089:4116  _allowances[owner][spender] */\n      0x00\n        /* \"@openzeppelin/contracts/token/ERC20/ERC20.sol\":4108:4115  spender */\n      dup4\n        /* \"@openzeppelin/contracts/token/ERC20/ERC20.sol\":4089:4116  _allowances[owner][spender] */\n      0xffffffffffffffffffffffffffffffffffffffff\n      and\n      0xffffffffffffffffffffffffffffffffffffffff\n      and\n      dup2\n      mstore\n      0x20\n      add\n      swap1\n      dup2\n      mstore\n      0x20\n      add\n      0x00\n      keccak256\n      sload\n        /* \"@openzeppelin/contracts/token/ERC20/ERC20.sol\":4082:4116  return _allowances[owner][spender] */\n      swap1\n      pop\n        /* \"@openzeppelin/contracts/token/ERC20/ERC20.sol\":3974:4123  function allowance(address owner, address spender) public view virtual override returns (uint256) {... */\n      swap3\n      swap2\n      pop\n      pop\n      jump\t// out\n        /* \"@openzeppelin/contracts/access/Ownable.sol\":2081:2279  function transferOwnership(address newOwner) public virtual onlyOwner {... */\n    tag_89:\n        /* \"@openzeppelin/contracts/access/Ownable.sol\":1094:1107  _checkOwner() */\n      tag_159\n        /* \"@openzeppelin/contracts/access/Ownable.sol\":1094:1105  _checkOwner */\n      tag_115\n        /* \"@openzeppelin/contracts/access/Ownable.sol\":1094:1107  _checkOwner() */\n      jump\t// in\n    tag_159:\n        /* \"@openzeppelin/contracts/access/Ownable.sol\":2189:2190  0 */\n      0x00\n        /* \"@openzeppelin/contracts/access/Ownable.sol\":2169:2191  newOwner != address(0) */\n      0xffffffffffffffffffffffffffffffffffffffff\n      and\n        /* \"@openzeppelin/contracts/access/Ownable.sol\":2169:2177  newOwner */\n      dup2\n        /* \"@openzeppelin/contracts/access/Ownable.sol\":2169:2191  newOwner != address(0) */\n      0xffffffffffffffffffffffffffffffffffffffff\n      and\n      eq\n      iszero\n        /* \"@openzeppelin/contracts/access/Ownable.sol\":2161:2234  require(newOwner != address(0), \"Ownable: new owner is the zero address\") */\n      tag_161\n      jumpi\n      mload(0x40)\n      0x08c379a000000000000000000000000000000000000000000000000000000000\n      dup2\n      mstore\n      0x04\n      add\n      tag_162\n      swap1\n      tag_163\n      jump\t// in\n    tag_162:\n      mload(0x40)\n      dup1\n      swap2\n      sub\n      swap1\n      revert\n    tag_161:\n        /* \"@openzeppelin/contracts/access/Ownable.sol\":2244:2272  _transferOwnership(newOwner) */\n      tag_164\n        /* \"@openzeppelin/contracts/access/Ownable.sol\":2263:2271  newOwner */\n      dup2\n        /* \"@openzeppelin/contracts/access/Ownable.sol\":2244:2262  _transferOwnership */\n      tag_136\n        /* \"@openzeppelin/contracts/access/Ownable.sol\":2244:2272  _transferOwnership(newOwner) */\n      jump\t// in\n    tag_164:\n        /* \"@openzeppelin/contracts/access/Ownable.sol\":2081:2279  function transferOwnership(address newOwner) public virtual onlyOwner {... */\n      pop\n      jump\t// out\n        /* \"contracts/ERC20/FlowerCoin.sol\":260:299  mapping(address => bool) public minters */\n    tag_92:\n      mstore(0x20, 0x06)\n      dup1\n      0x00\n      mstore\n      keccak256(0x00, 0x40)\n      0x00\n      swap2\n      pop\n      sload\n      swap1\n      0x0100\n      exp\n      swap1\n      div\n      0xff\n      and\n      dup2\n      jump\t// out\n        /* \"@openzeppelin/contracts/utils/Context.sol\":640:736  function _msgSender() internal view virtual returns (address) {... */\n    tag_103:\n        /* \"@openzeppelin/contracts/utils/Context.sol\":693:700  address */\n      0x00\n        /* \"@openzeppelin/contracts/utils/Context.sol\":719:729  msg.sender */\n      caller\n        /* \"@openzeppelin/contracts/utils/Context.sol\":712:729  return msg.sender */\n      swap1\n      pop\n        /* \"@openzeppelin/contracts/utils/Context.sol\":640:736  function _msgSender() internal view virtual returns (address) {... */\n      swap1\n      jump\t// out\n        /* \"@openzeppelin/contracts/token/ERC20/ERC20.sol\":10504:10874  function _approve(... */\n    tag_105:\n        /* \"@openzeppelin/contracts/token/ERC20/ERC20.sol\":10652:10653  0 */\n      0x00\n        /* \"@openzeppelin/contracts/token/ERC20/ERC20.sol\":10635:10654  owner != address(0) */\n      0xffffffffffffffffffffffffffffffffffffffff\n      and\n        /* \"@openzeppelin/contracts/token/ERC20/ERC20.sol\":10635:10640  owner */\n      dup4\n        /* \"@openzeppelin/contracts/token/ERC20/ERC20.sol\":10635:10654  owner != address(0) */\n      0xffffffffffffffffffffffffffffffffffffffff\n      and\n      eq\n      iszero\n        /* \"@openzeppelin/contracts/token/ERC20/ERC20.sol\":10627:10695  require(owner != address(0), \"ERC20: approve from the zero address\") */\n      tag_167\n      jumpi\n      mload(0x40)\n      0x08c379a000000000000000000000000000000000000000000000000000000000\n      dup2\n      mstore\n      0x04\n      add\n      tag_168\n      swap1\n      tag_169\n      jump\t// in\n    tag_168:\n      mload(0x40)\n      dup1\n      swap2\n      sub\n      swap1\n      revert\n    tag_167:\n        /* \"@openzeppelin/contracts/token/ERC20/ERC20.sol\":10732:10733  0 */\n      0x00\n        /* \"@openzeppelin/contracts/token/ERC20/ERC20.sol\":10713:10734  spender != address(0) */\n      0xffffffffffffffffffffffffffffffffffffffff\n      and\n        /* \"@openzeppelin/contracts/token/ERC20/ERC20.sol\":10713:10720  spender */\n      dup3\n        /* \"@openzeppelin/contracts/token/ERC20/ERC20.sol\":10713:10734  spender != address(0) */\n      0xffffffffffffffffffffffffffffffffffffffff\n      and\n      eq\n      iszero\n        /* \"@openzeppelin/contracts/token/ERC20/ERC20.sol\":10705:10773  require(spender != address(0), \"ERC20: approve to the zero address\") */\n      tag_170\n      jumpi\n      mload(0x40)\n      0x08c379a000000000000000000000000000000000000000000000000000000000\n      dup2\n      mstore\n      0x04\n      add\n      tag_171\n      swap1\n      tag_172\n      jump\t// in\n    tag_171:\n      mload(0x40)\n      dup1\n      swap2\n      sub\n      swap1\n      revert\n    tag_170:\n        /* \"@openzeppelin/contracts/token/ERC20/ERC20.sol\":10814:10820  amount */\n      dup1\n        /* \"@openzeppelin/contracts/token/ERC20/ERC20.sol\":10784:10795  _allowances */\n      0x01\n        /* \"@openzeppelin/contracts/token/ERC20/ERC20.sol\":10784:10802  _allowances[owner] */\n      0x00\n        /* \"@openzeppelin/contracts/token/ERC20/ERC20.sol\":10796:10801  owner */\n      dup6\n        /* \"@openzeppelin/contracts/token/ERC20/ERC20.sol\":10784:10802  _allowances[owner] */\n      0xffffffffffffffffffffffffffffffffffffffff\n      and\n      0xffffffffffffffffffffffffffffffffffffffff\n      and\n      dup2\n      mstore\n      0x20\n      add\n      swap1\n      dup2\n      mstore\n      0x20\n      add\n      0x00\n      keccak256\n        /* \"@openzeppelin/contracts/token/ERC20/ERC20.sol\":10784:10811  _allowances[owner][spender] */\n      0x00\n        /* \"@openzeppelin/contracts/token/ERC20/ERC20.sol\":10803:10810  spender */\n      dup5\n        /* \"@openzeppelin/contracts/token/ERC20/ERC20.sol\":10784:10811  _allowances[owner][spender] */\n      0xffffffffffffffffffffffffffffffffffffffff\n      and\n      0xffffffffffffffffffffffffffffffffffffffff\n      and\n      dup2\n      mstore\n      0x20\n      add\n      swap1\n      dup2\n      mstore\n      0x20\n      add\n      0x00\n      keccak256\n        /* \"@openzeppelin/contracts/token/ERC20/ERC20.sol\":10784:10820  _allowances[owner][spender] = amount */\n      dup2\n      swap1\n      sstore\n      pop\n        /* \"@openzeppelin/contracts/token/ERC20/ERC20.sol\":10851:10858  spender */\n      dup2\n        /* \"@openzeppelin/contracts/token/ERC20/ERC20.sol\":10835:10867  Approval(owner, spender, amount) */\n      0xffffffffffffffffffffffffffffffffffffffff\n      and\n        /* \"@openzeppelin/contracts/token/ERC20/ERC20.sol\":10844:10849  owner */\n      dup4\n        /* \"@openzeppelin/contracts/token/ERC20/ERC20.sol\":10835:10867  Approval(owner, spender, amount) */\n      0xffffffffffffffffffffffffffffffffffffffff\n      and\n      0x8c5be1e5ebec7d5bd14f71427d1e84f3dd0314c0f7b2291e5b200ac8c7c3b925\n        /* \"@openzeppelin/contracts/token/ERC20/ERC20.sol\":10860:10866  amount */\n      dup4\n        /* \"@openzeppelin/contracts/token/ERC20/ERC20.sol\":10835:10867  Approval(owner, spender, amount) */\n      mload(0x40)\n      tag_173\n      swap2\n      swap1\n      tag_37\n      jump\t// in\n    tag_173:\n      mload(0x40)\n      dup1\n      swap2\n      sub\n      swap1\n      log3\n        /* \"@openzeppelin/contracts/token/ERC20/ERC20.sol\":10504:10874  function _approve(... */\n      pop\n      pop\n      pop\n      jump\t// out\n        /* \"@openzeppelin/contracts/token/ERC20/ERC20.sol\":11155:11596  function _spendAllowance(... */\n    tag_110:\n        /* \"@openzeppelin/contracts/token/ERC20/ERC20.sol\":11285:11309  uint256 currentAllowance */\n      0x00\n        /* \"@openzeppelin/contracts/token/ERC20/ERC20.sol\":11312:11337  allowance(owner, spender) */\n      tag_175\n        /* \"@openzeppelin/contracts/token/ERC20/ERC20.sol\":11322:11327  owner */\n      dup5\n        /* \"@openzeppelin/contracts/token/ERC20/ERC20.sol\":11329:11336  spender */\n      dup5\n        /* \"@openzeppelin/contracts/token/ERC20/ERC20.sol\":11312:11321  allowance */\n      tag_85\n        /* \"@openzeppelin/contracts/token/ERC20/ERC20.sol\":11312:11337  allowance(owner, spender) */\n      jump\t// in\n    tag_175:\n        /* \"@openzeppelin/contracts/token/ERC20/ERC20.sol\":11285:11337  uint256 currentAllowance = allowance(owner, spender) */\n      swap1\n      pop\n        /* \"@openzeppelin/contracts/token/ERC20/ERC20.sol\":11371:11388  type(uint256).max */\n      0xffffffffffffffffffffffffffffffffffffffffffffffffffffffffffffffff\n        /* \"@openzeppelin/contracts/token/ERC20/ERC20.sol\":11351:11367  currentAllowance */\n      dup2\n        /* \"@openzeppelin/contracts/token/ERC20/ERC20.sol\":11351:11388  currentAllowance != type(uint256).max */\n      eq\n        /* \"@openzeppelin/contracts/token/ERC20/ERC20.sol\":11347:11590  if (currentAllowance != type(uint256).max) {... */\n      tag_176\n      jumpi\n        /* \"@openzeppelin/contracts/token/ERC20/ERC20.sol\":11432:11438  amount */\n      dup2\n        /* \"@openzeppelin/contracts/token/ERC20/ERC20.sol\":11412:11428  currentAllowance */\n      dup2\n        /* \"@openzeppelin/contracts/token/ERC20/ERC20.sol\":11412:11438  currentAllowance >= amount */\n      lt\n      iszero\n        /* \"@openzeppelin/contracts/token/ERC20/ERC20.sol\":11404:11472  require(currentAllowance >= amount, \"ERC20: insufficient allowance\") */\n      tag_177\n      jumpi\n      mload(0x40)\n      0x08c379a000000000000000000000000000000000000000000000000000000000\n      dup2\n      mstore\n      0x04\n      add\n      tag_178\n      swap1\n      tag_179\n      jump\t// in\n    tag_178:\n      mload(0x40)\n      dup1\n      swap2\n      sub\n      swap1\n      revert\n    tag_177:\n        /* \"@openzeppelin/contracts/token/ERC20/ERC20.sol\":11514:11565  _approve(owner, spender, currentAllowance - amount) */\n      tag_180\n        /* \"@openzeppelin/contracts/token/ERC20/ERC20.sol\":11523:11528  owner */\n      dup5\n        /* \"@openzeppelin/contracts/token/ERC20/ERC20.sol\":11530:11537  spender */\n      dup5\n        /* \"@openzeppelin/contracts/token/ERC20/ERC20.sol\":11558:11564  amount */\n      dup5\n        /* \"@openzeppelin/contracts/token/ERC20/ERC20.sol\":11539:11555  currentAllowance */\n      dup5\n        /* \"@openzeppelin/contracts/token/ERC20/ERC20.sol\":11539:11564  currentAllowance - amount */\n      sub\n        /* \"@openzeppelin/contracts/token/ERC20/ERC20.sol\":11514:11522  _approve */\n      tag_105\n        /* \"@openzeppelin/contracts/token/ERC20/ERC20.sol\":11514:11565  _approve(owner, spender, currentAllowance - amount) */\n      jump\t// in\n    tag_180:\n        /* \"@openzeppelin/contracts/token/ERC20/ERC20.sol\":11347:11590  if (currentAllowance != type(uint256).max) {... */\n    tag_176:\n        /* \"@openzeppelin/contracts/token/ERC20/ERC20.sol\":11155:11596  function _spendAllowance(... */\n      pop\n      pop\n      pop\n      pop\n      jump\t// out\n        /* \"@openzeppelin/contracts/token/ERC20/ERC20.sol\":7473:8291  function _transfer(... */\n    tag_112:\n        /* \"@openzeppelin/contracts/token/ERC20/ERC20.sol\":7615:7616  0 */\n      0x00\n        /* \"@openzeppelin/contracts/token/ERC20/ERC20.sol\":7599:7617  from != address(0) */\n      0xffffffffffffffffffffffffffffffffffffffff\n      and\n        /* \"@openzeppelin/contracts/token/ERC20/ERC20.sol\":7599:7603  from */\n      dup4\n        /* \"@openzeppelin/contracts/token/ERC20/ERC20.sol\":7599:7617  from != address(0) */\n      0xffffffffffffffffffffffffffffffffffffffff\n      and\n      eq\n      iszero\n        /* \"@openzeppelin/contracts/token/ERC20/ERC20.sol\":7591:7659  require(from != address(0), \"ERC20: transfer from the zero address\") */\n      tag_182\n      jumpi\n      mload(0x40)\n      0x08c379a000000000000000000000000000000000000000000000000000000000\n      dup2\n      mstore\n      0x04\n      add\n      tag_183\n      swap1\n      tag_184\n      jump\t// in\n    tag_183:\n      mload(0x40)\n      dup1\n      swap2\n      sub\n      swap1\n      revert\n    tag_182:\n        /* \"@openzeppelin/contracts/token/ERC20/ERC20.sol\":7691:7692  0 */\n      0x00\n        /* \"@openzeppelin/contracts/token/ERC20/ERC20.sol\":7677:7693  to != address(0) */\n      0xffffffffffffffffffffffffffffffffffffffff\n      and\n        /* \"@openzeppelin/contracts/token/ERC20/ERC20.sol\":7677:7679  to */\n      dup3\n        /* \"@openzeppelin/contracts/token/ERC20/ERC20.sol\":7677:7693  to != address(0) */\n      0xffffffffffffffffffffffffffffffffffffffff\n      and\n      eq\n      iszero\n        /* \"@openzeppelin/contracts/token/ERC20/ERC20.sol\":7669:7733  require(to != address(0), \"ERC20: transfer to the zero address\") */\n      tag_185\n      jumpi\n      mload(0x40)\n      0x08c379a000000000000000000000000000000000000000000000000000000000\n      dup2\n      mstore\n      0x04\n      add\n      tag_186\n      swap1\n      tag_187\n      jump\t// in\n    tag_186:\n      mload(0x40)\n      dup1\n      swap2\n      sub\n      swap1\n      revert\n    tag_185:\n        /* \"@openzeppelin/contracts/token/ERC20/ERC20.sol\":7744:7782  _beforeTokenTransfer(from, to, amount) */\n      tag_188\n        /* \"@openzeppelin/contracts/token/ERC20/ERC20.sol\":7765:7769  from */\n      dup4\n        /* \"@openzeppelin/contracts/token/ERC20/ERC20.sol\":7771:7773  to */\n      dup4\n        /* \"@openzeppelin/contracts/token/ERC20/ERC20.sol\":7775:7781  amount */\n      dup4\n        /* \"@openzeppelin/contracts/token/ERC20/ERC20.sol\":7744:7764  _beforeTokenTransfer */\n      tag_189\n        /* \"@openzeppelin/contracts/token/ERC20/ERC20.sol\":7744:7782  _beforeTokenTransfer(from, to, amount) */\n      jump\t// in\n    tag_188:\n        /* \"@openzeppelin/contracts/token/ERC20/ERC20.sol\":7793:7812  uint256 fromBalance */\n      0x00\n        /* \"@openzeppelin/contracts/token/ERC20/ERC20.sol\":7815:7824  _balances */\n      dup1\n        /* \"@openzeppelin/contracts/token/ERC20/ERC20.sol\":7815:7830  _balances[from] */\n      0x00\n        /* \"@openzeppelin/contracts/token/ERC20/ERC20.sol\":7825:7829  from */\n      dup6\n        /* \"@openzeppelin/contracts/token/ERC20/ERC20.sol\":7815:7830  _balances[from] */\n      0xffffffffffffffffffffffffffffffffffffffff\n      and\n      0xffffffffffffffffffffffffffffffffffffffff\n      and\n      dup2\n      mstore\n      0x20\n      add\n      swap1\n      dup2\n      mstore\n      0x20\n      add\n      0x00\n      keccak256\n      sload\n        /* \"@openzeppelin/contracts/token/ERC20/ERC20.sol\":7793:7830  uint256 fromBalance = _balances[from] */\n      swap1\n      pop\n        /* \"@openzeppelin/contracts/token/ERC20/ERC20.sol\":7863:7869  amount */\n      dup2\n        /* \"@openzeppelin/contracts/token/ERC20/ERC20.sol\":7848:7859  fromBalance */\n      dup2\n        /* \"@openzeppelin/contracts/token/ERC20/ERC20.sol\":7848:7869  fromBalance >= amount */\n      lt\n      iszero\n        /* \"@openzeppelin/contracts/token/ERC20/ERC20.sol\":7840:7912  require(fromBalance >= amount, \"ERC20: transfer amount exceeds balance\") */\n      tag_190\n      jumpi\n      mload(0x40)\n      0x08c379a000000000000000000000000000000000000000000000000000000000\n      dup2\n      mstore\n      0x04\n      add\n      tag_191\n      swap1\n      tag_192\n      jump\t// in\n    tag_191:\n      mload(0x40)\n      dup1\n      swap2\n      sub\n      swap1\n      revert\n    tag_190:\n        /* \"@openzeppelin/contracts/token/ERC20/ERC20.sol\":7978:7984  amount */\n      dup2\n        /* \"@openzeppelin/contracts/token/ERC20/ERC20.sol\":7964:7975  fromBalance */\n      dup2\n        /* \"@openzeppelin/contracts/token/ERC20/ERC20.sol\":7964:7984  fromBalance - amount */\n      sub\n        /* \"@openzeppelin/contracts/token/ERC20/ERC20.sol\":7946:7955  _balances */\n      0x00\n        /* \"@openzeppelin/contracts/token/ERC20/ERC20.sol\":7946:7961  _balances[from] */\n      dup1\n        /* \"@openzeppelin/contracts/token/ERC20/ERC20.sol\":7956:7960  from */\n      dup7\n        /* \"@openzeppelin/contracts/token/ERC20/ERC20.sol\":7946:7961  _balances[from] */\n      0xffffffffffffffffffffffffffffffffffffffff\n      and\n      0xffffffffffffffffffffffffffffffffffffffff\n      and\n      dup2\n      mstore\n      0x20\n      add\n      swap1\n      dup2\n      mstore\n      0x20\n      add\n      0x00\n      keccak256\n        /* \"@openzeppelin/contracts/token/ERC20/ERC20.sol\":7946:7984  _balances[from] = fromBalance - amount */\n      dup2\n      swap1\n      sstore\n      pop\n        /* \"@openzeppelin/contracts/token/ERC20/ERC20.sol\":8178:8184  amount */\n      dup2\n        /* \"@openzeppelin/contracts/token/ERC20/ERC20.sol\":8161:8170  _balances */\n      0x00\n        /* \"@openzeppelin/contracts/token/ERC20/ERC20.sol\":8161:8174  _balances[to] */\n      dup1\n        /* \"@openzeppelin/contracts/token/ERC20/ERC20.sol\":8171:8173  to */\n      dup6\n        /* \"@openzeppelin/contracts/token/ERC20/ERC20.sol\":8161:8174  _balances[to] */\n      0xffffffffffffffffffffffffffffffffffffffff\n      and\n      0xffffffffffffffffffffffffffffffffffffffff\n      and\n      dup2\n      mstore\n      0x20\n      add\n      swap1\n      dup2\n      mstore\n      0x20\n      add\n      0x00\n      keccak256\n      0x00\n        /* \"@openzeppelin/contracts/token/ERC20/ERC20.sol\":8161:8184  _balances[to] += amount */\n      dup3\n      dup3\n      sload\n      add\n      swap3\n      pop\n      pop\n      dup2\n      swap1\n      sstore\n      pop\n        /* \"@openzeppelin/contracts/token/ERC20/ERC20.sol\":8225:8227  to */\n      dup3\n        /* \"@openzeppelin/contracts/token/ERC20/ERC20.sol\":8210:8236  Transfer(from, to, amount) */\n      0xffffffffffffffffffffffffffffffffffffffff\n      and\n        /* \"@openzeppelin/contracts/token/ERC20/ERC20.sol\":8219:8223  from */\n      dup5\n        /* \"@openzeppelin/contracts/token/ERC20/ERC20.sol\":8210:8236  Transfer(from, to, amount) */\n      0xffffffffffffffffffffffffffffffffffffffff\n      and\n      0xddf252ad1be2c89b69c2b068fc378daa952ba7f163c4a11628f55a4df523b3ef\n        /* \"@openzeppelin/contracts/token/ERC20/ERC20.sol\":8229:8235  amount */\n      dup5\n        /* \"@openzeppelin/contracts/token/ERC20/ERC20.sol\":8210:8236  Transfer(from, to, amount) */\n      mload(0x40)\n      tag_193\n      swap2\n      swap1\n      tag_37\n      jump\t// in\n    tag_193:\n      mload(0x40)\n      dup1\n      swap2\n      sub\n      swap1\n      log3\n        /* \"@openzeppelin/contracts/token/ERC20/ERC20.sol\":8247:8284  _afterTokenTransfer(from, to, amount) */\n      tag_194\n        /* \"@openzeppelin/contracts/token/ERC20/ERC20.sol\":8267:8271  from */\n      dup5\n        /* \"@openzeppelin/contracts/token/ERC20/ERC20.sol\":8273:8275  to */\n      dup5\n        /* \"@openzeppelin/contracts/token/ERC20/ERC20.sol\":8277:8283  amount */\n      dup5\n        /* \"@openzeppelin/contracts/token/ERC20/ERC20.sol\":8247:8266  _afterTokenTransfer */\n      tag_195\n        /* \"@openzeppelin/contracts/token/ERC20/ERC20.sol\":8247:8284  _afterTokenTransfer(from, to, amount) */\n      jump\t// in\n    tag_194:\n        /* \"@openzeppelin/contracts/token/ERC20/ERC20.sol\":7473:8291  function _transfer(... */\n      pop\n      pop\n      pop\n      pop\n      jump\t// out\n        /* \"@openzeppelin/contracts/access/Ownable.sol\":1359:1489  function _checkOwner() internal view virtual {... */\n    tag_115:\n        /* \"@openzeppelin/contracts/access/Ownable.sol\":1433:1445  _msgSender() */\n      tag_197\n        /* \"@openzeppelin/contracts/access/Ownable.sol\":1433:1443  _msgSender */\n      tag_103\n        /* \"@openzeppelin/contracts/access/Ownable.sol\":1433:1445  _msgSender() */\n      jump\t// in\n    tag_197:\n        /* \"@openzeppelin/contracts/access/Ownable.sol\":1422:1445  owner() == _msgSender() */\n      0xffffffffffffffffffffffffffffffffffffffff\n      and\n        /* \"@openzeppelin/contracts/access/Ownable.sol\":1422:1429  owner() */\n      tag_198\n        /* \"@openzeppelin/contracts/access/Ownable.sol\":1422:1427  owner */\n      tag_65\n        /* \"@openzeppelin/contracts/access/Ownable.sol\":1422:1429  owner() */\n      jump\t// in\n    tag_198:\n        /* \"@openzeppelin/contracts/access/Ownable.sol\":1422:1445  owner() == _msgSender() */\n      0xffffffffffffffffffffffffffffffffffffffff\n      and\n      eq\n        /* \"@openzeppelin/contracts/access/Ownable.sol\":1414:1482  require(owner() == _msgSender(), \"Ownable: caller is not the owner\") */\n      tag_199\n      jumpi\n      mload(0x40)\n      0x08c379a000000000000000000000000000000000000000000000000000000000\n      dup2\n      mstore\n      0x04\n      add\n      tag_200\n      swap1\n      tag_201\n      jump\t// in\n    tag_200:\n      mload(0x40)\n      dup1\n      swap2\n      sub\n      swap1\n      revert\n    tag_199:\n        /* \"@openzeppelin/contracts/access/Ownable.sol\":1359:1489  function _checkOwner() internal view virtual {... */\n      jump\t// out\n        /* \"@openzeppelin/contracts/token/ERC20/ERC20.sol\":8567:9102  function _mint(address account, uint256 amount) internal virtual {... */\n    tag_130:\n        /* \"@openzeppelin/contracts/token/ERC20/ERC20.sol\":8669:8670  0 */\n      0x00\n        /* \"@openzeppelin/contracts/token/ERC20/ERC20.sol\":8650:8671  account != address(0) */\n      0xffffffffffffffffffffffffffffffffffffffff\n      and\n        /* \"@openzeppelin/contracts/token/ERC20/ERC20.sol\":8650:8657  account */\n      dup3\n        /* \"@openzeppelin/contracts/token/ERC20/ERC20.sol\":8650:8671  account != address(0) */\n      0xffffffffffffffffffffffffffffffffffffffff\n      and\n      eq\n      iszero\n        /* \"@openzeppelin/contracts/token/ERC20/ERC20.sol\":8642:8707  require(account != address(0), \"ERC20: mint to the zero address\") */\n      tag_203\n      jumpi\n      mload(0x40)\n      0x08c379a000000000000000000000000000000000000000000000000000000000\n      dup2\n      mstore\n      0x04\n      add\n      tag_204\n      swap1\n      tag_205\n      jump\t// in\n    tag_204:\n      mload(0x40)\n      dup1\n      swap2\n      sub\n      swap1\n      revert\n    tag_203:\n        /* \"@openzeppelin/contracts/token/ERC20/ERC20.sol\":8718:8767  _beforeTokenTransfer(address(0), account, amount) */\n      tag_206\n        /* \"@openzeppelin/contracts/token/ERC20/ERC20.sol\":8747:8748  0 */\n      0x00\n        /* \"@openzeppelin/contracts/token/ERC20/ERC20.sol\":8751:8758  account */\n      dup4\n        /* \"@openzeppelin/contracts/token/ERC20/ERC20.sol\":8760:8766  amount */\n      dup4\n        /* \"@openzeppelin/contracts/token/ERC20/ERC20.sol\":8718:8738  _beforeTokenTransfer */\n      tag_189\n        /* \"@openzeppelin/contracts/token/ERC20/ERC20.sol\":8718:8767  _beforeTokenTransfer(address(0), account, amount) */\n      jump\t// in\n    tag_206:\n        /* \"@openzeppelin/contracts/token/ERC20/ERC20.sol\":8794:8800  amount */\n      dup1\n        /* \"@openzeppelin/contracts/token/ERC20/ERC20.sol\":8778:8790  _totalSupply */\n      0x02\n      0x00\n        /* \"@openzeppelin/contracts/token/ERC20/ERC20.sol\":8778:8800  _totalSupply += amount */\n      dup3\n      dup3\n      sload\n      tag_207\n      swap2\n      swap1\n      tag_123\n      jump\t// in\n    tag_207:\n      swap3\n      pop\n      pop\n      dup2\n      swap1\n      sstore\n      pop\n        /* \"@openzeppelin/contracts/token/ERC20/ERC20.sol\":8968:8974  amount */\n      dup1\n        /* \"@openzeppelin/contracts/token/ERC20/ERC20.sol\":8946:8955  _balances */\n      0x00\n        /* \"@openzeppelin/contracts/token/ERC20/ERC20.sol\":8946:8964  _balances[account] */\n      dup1\n        /* \"@openzeppelin/contracts/token/ERC20/ERC20.sol\":8956:8963  account */\n      dup5\n        /* \"@openzeppelin/contracts/token/ERC20/ERC20.sol\":8946:8964  _balances[account] */\n      0xffffffffffffffffffffffffffffffffffffffff\n      and\n      0xffffffffffffffffffffffffffffffffffffffff\n      and\n      dup2\n      mstore\n      0x20\n      add\n      swap1\n      dup2\n      mstore\n      0x20\n      add\n      0x00\n      keccak256\n      0x00\n        /* \"@openzeppelin/contracts/token/ERC20/ERC20.sol\":8946:8974  _balances[account] += amount */\n      dup3\n      dup3\n      sload\n      add\n      swap3\n      pop\n      pop\n      dup2\n      swap1\n      sstore\n      pop\n        /* \"@openzeppelin/contracts/token/ERC20/ERC20.sol\":9020:9027  account */\n      dup2\n        /* \"@openzeppelin/contracts/token/ERC20/ERC20.sol\":8999:9036  Transfer(address(0), account, amount) */\n      0xffffffffffffffffffffffffffffffffffffffff\n      and\n        /* \"@openzeppelin/contracts/token/ERC20/ERC20.sol\":9016:9017  0 */\n      0x00\n        /* \"@openzeppelin/contracts/token/ERC20/ERC20.sol\":8999:9036  Transfer(address(0), account, amount) */\n      0xffffffffffffffffffffffffffffffffffffffff\n      and\n      0xddf252ad1be2c89b69c2b068fc378daa952ba7f163c4a11628f55a4df523b3ef\n        /* \"@openzeppelin/contracts/token/ERC20/ERC20.sol\":9029:9035  amount */\n      dup4\n        /* \"@openzeppelin/contracts/token/ERC20/ERC20.sol\":8999:9036  Transfer(address(0), account, amount) */\n      mload(0x40)\n      tag_208\n      swap2\n      swap1\n      tag_37\n      jump\t// in\n    tag_208:\n      mload(0x40)\n      dup1\n      swap2\n      sub\n      swap1\n      log3\n        /* \"@openzeppelin/contracts/token/ERC20/ERC20.sol\":9047:9095  _afterTokenTransfer(address(0), account, amount) */\n      tag_209\n        /* \"@openzeppelin/contracts/token/ERC20/ERC20.sol\":9075:9076  0 */\n      0x00\n        /* \"@openzeppelin/contracts/token/ERC20/ERC20.sol\":9079:9086  account */\n      dup4\n        /* \"@openzeppelin/contracts/token/ERC20/ERC20.sol\":9088:9094  amount */\n      dup4\n        /* \"@openzeppelin/contracts/token/ERC20/ERC20.sol\":9047:9066  _afterTokenTransfer */\n      tag_195\n        /* \"@openzeppelin/contracts/token/ERC20/ERC20.sol\":9047:9095  _afterTokenTransfer(address(0), account, amount) */\n      jump\t// in\n    tag_209:\n        /* \"@openzeppelin/contracts/token/ERC20/ERC20.sol\":8567:9102  function _mint(address account, uint256 amount) internal virtual {... */\n      pop\n      pop\n      jump\t// out\n        /* \"@openzeppelin/contracts/access/Ownable.sol\":2433:2620  function _transferOwnership(address newOwner) internal virtual {... */\n    tag_136:\n        /* \"@openzeppelin/contracts/access/Ownable.sol\":2506:2522  address oldOwner */\n      0x00\n        /* \"@openzeppelin/contracts/access/Ownable.sol\":2525:2531  _owner */\n      0x05\n      0x00\n      swap1\n      sload\n      swap1\n      0x0100\n      exp\n      swap1\n      div\n      0xffffffffffffffffffffffffffffffffffffffff\n      and\n        /* \"@openzeppelin/contracts/access/Ownable.sol\":2506:2531  address oldOwner = _owner */\n      swap1\n      pop\n        /* \"@openzeppelin/contracts/access/Ownable.sol\":2550:2558  newOwner */\n      dup2\n        /* \"@openzeppelin/contracts/access/Ownable.sol\":2541:2547  _owner */\n      0x05\n      0x00\n        /* \"@openzeppelin/contracts/access/Ownable.sol\":2541:2558  _owner = newOwner */\n      0x0100\n      exp\n      dup2\n      sload\n      dup2\n      0xffffffffffffffffffffffffffffffffffffffff\n      mul\n      not\n      and\n      swap1\n      dup4\n      0xffffffffffffffffffffffffffffffffffffffff\n      and\n      mul\n      or\n      swap1\n      sstore\n      pop\n        /* \"@openzeppelin/contracts/access/Ownable.sol\":2604:2612  newOwner */\n      dup2\n        /* \"@openzeppelin/contracts/access/Ownable.sol\":2573:2613  OwnershipTransferred(oldOwner, newOwner) */\n      0xffffffffffffffffffffffffffffffffffffffff\n      and\n        /* \"@openzeppelin/contracts/access/Ownable.sol\":2594:2602  oldOwner */\n      dup2\n        /* \"@openzeppelin/contracts/access/Ownable.sol\":2573:2613  OwnershipTransferred(oldOwner, newOwner) */\n      0xffffffffffffffffffffffffffffffffffffffff\n      and\n      0x8be0079c531659141344cd1fd0a4f28419497f9722a3daafe3b4186f6b6457e0\n      mload(0x40)\n      mload(0x40)\n      dup1\n      swap2\n      sub\n      swap1\n      log3\n        /* \"@openzeppelin/contracts/access/Ownable.sol\":2433:2620  function _transferOwnership(address newOwner) internal virtual {... */\n      pop\n      pop\n      jump\t// out\n        /* \"@openzeppelin/contracts/token/ERC20/ERC20.sol\":12180:12301  function _beforeTokenTransfer(... */\n    tag_189:\n      pop\n      pop\n      pop\n      jump\t// out\n        /* \"@openzeppelin/contracts/token/ERC20/ERC20.sol\":12889:13009  function _afterTokenTransfer(... */\n    tag_195:\n      pop\n      pop\n      pop\n      jump\t// out\n        /* \"#utility.yul\":7:146   */\n    tag_214:\n        /* \"#utility.yul\":53:58   */\n      0x00\n        /* \"#utility.yul\":91:97   */\n      dup2\n        /* \"#utility.yul\":78:98   */\n      calldataload\n        /* \"#utility.yul\":69:98   */\n      swap1\n      pop\n        /* \"#utility.yul\":107:140   */\n      tag_216\n        /* \"#utility.yul\":134:139   */\n      dup2\n        /* \"#utility.yul\":107:140   */\n      tag_217\n      jump\t// in\n    tag_216:\n        /* \"#utility.yul\":59:146   */\n      swap3\n      swap2\n      pop\n      pop\n      jump\t// out\n        /* \"#utility.yul\":152:291   */\n    tag_218:\n        /* \"#utility.yul\":198:203   */\n      0x00\n        /* \"#utility.yul\":236:242   */\n      dup2\n        /* \"#utility.yul\":223:243   */\n      calldataload\n        /* \"#utility.yul\":214:243   */\n      swap1\n      pop\n        /* \"#utility.yul\":252:285   */\n      tag_220\n        /* \"#utility.yul\":279:284   */\n      dup2\n        /* \"#utility.yul\":252:285   */\n      tag_221\n      jump\t// in\n    tag_220:\n        /* \"#utility.yul\":204:291   */\n      swap3\n      swap2\n      pop\n      pop\n      jump\t// out\n        /* \"#utility.yul\":297:559   */\n    tag_45:\n        /* \"#utility.yul\":356:362   */\n      0x00\n        /* \"#utility.yul\":405:407   */\n      0x20\n        /* \"#utility.yul\":393:402   */\n      dup3\n        /* \"#utility.yul\":384:391   */\n      dup5\n        /* \"#utility.yul\":380:403   */\n      sub\n        /* \"#utility.yul\":376:408   */\n      slt\n        /* \"#utility.yul\":373:375   */\n      iszero\n      tag_223\n      jumpi\n        /* \"#utility.yul\":421:422   */\n      0x00\n        /* \"#utility.yul\":418:419   */\n      dup1\n        /* \"#utility.yul\":411:423   */\n      revert\n        /* \"#utility.yul\":373:375   */\n    tag_223:\n        /* \"#utility.yul\":464:465   */\n      0x00\n        /* \"#utility.yul\":489:542   */\n      tag_224\n        /* \"#utility.yul\":534:541   */\n      dup5\n        /* \"#utility.yul\":525:531   */\n      dup3\n        /* \"#utility.yul\":514:523   */\n      dup6\n        /* \"#utility.yul\":510:532   */\n      add\n        /* \"#utility.yul\":489:542   */\n      tag_214\n      jump\t// in\n    tag_224:\n        /* \"#utility.yul\":479:542   */\n      swap2\n      pop\n        /* \"#utility.yul\":435:552   */\n      pop\n        /* \"#utility.yul\":363:559   */\n      swap3\n      swap2\n      pop\n      pop\n      jump\t// out\n        /* \"#utility.yul\":565:972   */\n    tag_84:\n        /* \"#utility.yul\":633:639   */\n      0x00\n        /* \"#utility.yul\":641:647   */\n      dup1\n        /* \"#utility.yul\":690:692   */\n      0x40\n        /* \"#utility.yul\":678:687   */\n      dup4\n        /* \"#utility.yul\":669:676   */\n      dup6\n        /* \"#utility.yul\":665:688   */\n      sub\n        /* \"#utility.yul\":661:693   */\n      slt\n        /* \"#utility.yul\":658:660   */\n      iszero\n      tag_226\n      jumpi\n        /* \"#utility.yul\":706:707   */\n      0x00\n        /* \"#utility.yul\":703:704   */\n      dup1\n        /* \"#utility.yul\":696:708   */\n      revert\n        /* \"#utility.yul\":658:660   */\n    tag_226:\n        /* \"#utility.yul\":749:750   */\n      0x00\n        /* \"#utility.yul\":774:827   */\n      tag_227\n        /* \"#utility.yul\":819:826   */\n      dup6\n        /* \"#utility.yul\":810:816   */\n      dup3\n        /* \"#utility.yul\":799:808   */\n      dup7\n        /* \"#utility.yul\":795:817   */\n      add\n        /* \"#utility.yul\":774:827   */\n      tag_214\n      jump\t// in\n    tag_227:\n        /* \"#utility.yul\":764:827   */\n      swap3\n      pop\n        /* \"#utility.yul\":720:837   */\n      pop\n        /* \"#utility.yul\":876:878   */\n      0x20\n        /* \"#utility.yul\":902:955   */\n      tag_228\n        /* \"#utility.yul\":947:954   */\n      dup6\n        /* \"#utility.yul\":938:944   */\n      dup3\n        /* \"#utility.yul\":927:936   */\n      dup7\n        /* \"#utility.yul\":923:945   */\n      add\n        /* \"#utility.yul\":902:955   */\n      tag_214\n      jump\t// in\n    tag_228:\n        /* \"#utility.yul\":892:955   */\n      swap2\n      pop\n        /* \"#utility.yul\":847:965   */\n      pop\n        /* \"#utility.yul\":648:972   */\n      swap3\n      pop\n      swap3\n      swap1\n      pop\n      jump\t// out\n        /* \"#utility.yul\":978:1530   */\n    tag_40:\n        /* \"#utility.yul\":1055:1061   */\n      0x00\n        /* \"#utility.yul\":1063:1069   */\n      dup1\n        /* \"#utility.yul\":1071:1077   */\n      0x00\n        /* \"#utility.yul\":1120:1122   */\n      0x60\n        /* \"#utility.yul\":1108:1117   */\n      dup5\n        /* \"#utility.yul\":1099:1106   */\n      dup7\n        /* \"#utility.yul\":1095:1118   */\n      sub\n        /* \"#utility.yul\":1091:1123   */\n      slt\n        /* \"#utility.yul\":1088:1090   */\n      iszero\n      tag_230\n      jumpi\n        /* \"#utility.yul\":1136:1137   */\n      0x00\n        /* \"#utility.yul\":1133:1134   */\n      dup1\n        /* \"#utility.yul\":1126:1138   */\n      revert\n        /* \"#utility.yul\":1088:1090   */\n    tag_230:\n        /* \"#utility.yul\":1179:1180   */\n      0x00\n        /* \"#utility.yul\":1204:1257   */\n      tag_231\n        /* \"#utility.yul\":1249:1256   */\n      dup7\n        /* \"#utility.yul\":1240:1246   */\n      dup3\n        /* \"#utility.yul\":1229:1238   */\n      dup8\n        /* \"#utility.yul\":1225:1247   */\n      add\n        /* \"#utility.yul\":1204:1257   */\n      tag_214\n      jump\t// in\n    tag_231:\n        /* \"#utility.yul\":1194:1257   */\n      swap4\n      pop\n        /* \"#utility.yul\":1150:1267   */\n      pop\n        /* \"#utility.yul\":1306:1308   */\n      0x20\n        /* \"#utility.yul\":1332:1385   */\n      tag_232\n        /* \"#utility.yul\":1377:1384   */\n      dup7\n        /* \"#utility.yul\":1368:1374   */\n      dup3\n        /* \"#utility.yul\":1357:1366   */\n      dup8\n        /* \"#utility.yul\":1353:1375   */\n      add\n        /* \"#utility.yul\":1332:1385   */\n      tag_214\n      jump\t// in\n    tag_232:\n        /* \"#utility.yul\":1322:1385   */\n      swap3\n      pop\n        /* \"#utility.yul\":1277:1395   */\n      pop\n        /* \"#utility.yul\":1434:1436   */\n      0x40\n        /* \"#utility.yul\":1460:1513   */\n      tag_233\n        /* \"#utility.yul\":1505:1512   */\n      dup7\n        /* \"#utility.yul\":1496:1502   */\n      dup3\n        /* \"#utility.yul\":1485:1494   */\n      dup8\n        /* \"#utility.yul\":1481:1503   */\n      add\n        /* \"#utility.yul\":1460:1513   */\n      tag_218\n      jump\t// in\n    tag_233:\n        /* \"#utility.yul\":1450:1513   */\n      swap2\n      pop\n        /* \"#utility.yul\":1405:1523   */\n      pop\n        /* \"#utility.yul\":1078:1530   */\n      swap3\n      pop\n      swap3\n      pop\n      swap3\n      jump\t// out\n        /* \"#utility.yul\":1536:1943   */\n    tag_30:\n        /* \"#utility.yul\":1604:1610   */\n      0x00\n        /* \"#utility.yul\":1612:1618   */\n      dup1\n        /* \"#utility.yul\":1661:1663   */\n      0x40\n        /* \"#utility.yul\":1649:1658   */\n      dup4\n        /* \"#utility.yul\":1640:1647   */\n      dup6\n        /* \"#utility.yul\":1636:1659   */\n      sub\n        /* \"#utility.yul\":1632:1664   */\n      slt\n        /* \"#utility.yul\":1629:1631   */\n      iszero\n      tag_235\n      jumpi\n        /* \"#utility.yul\":1677:1678   */\n      0x00\n        /* \"#utility.yul\":1674:1675   */\n      dup1\n        /* \"#utility.yul\":1667:1679   */\n      revert\n        /* \"#utility.yul\":1629:1631   */\n    tag_235:\n        /* \"#utility.yul\":1720:1721   */\n      0x00\n        /* \"#utility.yul\":1745:1798   */\n      tag_236\n        /* \"#utility.yul\":1790:1797   */\n      dup6\n        /* \"#utility.yul\":1781:1787   */\n      dup3\n        /* \"#utility.yul\":1770:1779   */\n      dup7\n        /* \"#utility.yul\":1766:1788   */\n      add\n        /* \"#utility.yul\":1745:1798   */\n      tag_214\n      jump\t// in\n    tag_236:\n        /* \"#utility.yul\":1735:1798   */\n      swap3\n      pop\n        /* \"#utility.yul\":1691:1808   */\n      pop\n        /* \"#utility.yul\":1847:1849   */\n      0x20\n        /* \"#utility.yul\":1873:1926   */\n      tag_237\n        /* \"#utility.yul\":1918:1925   */\n      dup6\n        /* \"#utility.yul\":1909:1915   */\n      dup3\n        /* \"#utility.yul\":1898:1907   */\n      dup7\n        /* \"#utility.yul\":1894:1916   */\n      add\n        /* \"#utility.yul\":1873:1926   */\n      tag_218\n      jump\t// in\n    tag_237:\n        /* \"#utility.yul\":1863:1926   */\n      swap2\n      pop\n        /* \"#utility.yul\":1818:1936   */\n      pop\n        /* \"#utility.yul\":1619:1943   */\n      swap3\n      pop\n      swap3\n      swap1\n      pop\n      jump\t// out\n        /* \"#utility.yul\":1949:2067   */\n    tag_238:\n        /* \"#utility.yul\":2036:2060   */\n      tag_240\n        /* \"#utility.yul\":2054:2059   */\n      dup2\n        /* \"#utility.yul\":2036:2060   */\n      tag_241\n      jump\t// in\n    tag_240:\n        /* \"#utility.yul\":2031:2034   */\n      dup3\n        /* \"#utility.yul\":2024:2061   */\n      mstore\n        /* \"#utility.yul\":2014:2067   */\n      pop\n      pop\n      jump\t// out\n        /* \"#utility.yul\":2073:2182   */\n    tag_242:\n        /* \"#utility.yul\":2154:2175   */\n      tag_244\n        /* \"#utility.yul\":2169:2174   */\n      dup2\n        /* \"#utility.yul\":2154:2175   */\n      tag_245\n      jump\t// in\n    tag_244:\n        /* \"#utility.yul\":2149:2152   */\n      dup3\n        /* \"#utility.yul\":2142:2176   */\n      mstore\n        /* \"#utility.yul\":2132:2182   */\n      pop\n      pop\n      jump\t// out\n        /* \"#utility.yul\":2188:2552   */\n    tag_246:\n        /* \"#utility.yul\":2276:2279   */\n      0x00\n        /* \"#utility.yul\":2304:2343   */\n      tag_248\n        /* \"#utility.yul\":2337:2342   */\n      dup3\n        /* \"#utility.yul\":2304:2343   */\n      tag_249\n      jump\t// in\n    tag_248:\n        /* \"#utility.yul\":2359:2430   */\n      tag_250\n        /* \"#utility.yul\":2423:2429   */\n      dup2\n        /* \"#utility.yul\":2418:2421   */\n      dup6\n        /* \"#utility.yul\":2359:2430   */\n      tag_251\n      jump\t// in\n    tag_250:\n        /* \"#utility.yul\":2352:2430   */\n      swap4\n      pop\n        /* \"#utility.yul\":2439:2491   */\n      tag_252\n        /* \"#utility.yul\":2484:2490   */\n      dup2\n        /* \"#utility.yul\":2479:2482   */\n      dup6\n        /* \"#utility.yul\":2472:2476   */\n      0x20\n        /* \"#utility.yul\":2465:2470   */\n      dup7\n        /* \"#utility.yul\":2461:2477   */\n      add\n        /* \"#utility.yul\":2439:2491   */\n      tag_253\n      jump\t// in\n    tag_252:\n        /* \"#utility.yul\":2516:2545   */\n      tag_254\n        /* \"#utility.yul\":2538:2544   */\n      dup2\n        /* \"#utility.yul\":2516:2545   */\n      tag_255\n      jump\t// in\n    tag_254:\n        /* \"#utility.yul\":2511:2514   */\n      dup5\n        /* \"#utility.yul\":2507:2546   */\n      add\n        /* \"#utility.yul\":2500:2546   */\n      swap2\n      pop\n        /* \"#utility.yul\":2280:2552   */\n      pop\n      swap3\n      swap2\n      pop\n      pop\n      jump\t// out\n        /* \"#utility.yul\":2558:2924   */\n    tag_256:\n        /* \"#utility.yul\":2700:2703   */\n      0x00\n        /* \"#utility.yul\":2721:2788   */\n      tag_258\n        /* \"#utility.yul\":2785:2787   */\n      0x23\n        /* \"#utility.yul\":2780:2783   */\n      dup4\n        /* \"#utility.yul\":2721:2788   */\n      tag_251\n      jump\t// in\n    tag_258:\n        /* \"#utility.yul\":2714:2788   */\n      swap2\n      pop\n        /* \"#utility.yul\":2797:2890   */\n      tag_259\n        /* \"#utility.yul\":2886:2889   */\n      dup3\n        /* \"#utility.yul\":2797:2890   */\n      tag_260\n      jump\t// in\n    tag_259:\n        /* \"#utility.yul\":2915:2917   */\n      0x40\n        /* \"#utility.yul\":2910:2913   */\n      dup3\n        /* \"#utility.yul\":2906:2918   */\n      add\n        /* \"#utility.yul\":2899:2918   */\n      swap1\n      pop\n        /* \"#utility.yul\":2704:2924   */\n      swap2\n      swap1\n      pop\n      jump\t// out\n        /* \"#utility.yul\":2930:3296   */\n    tag_261:\n        /* \"#utility.yul\":3072:3075   */\n      0x00\n        /* \"#utility.yul\":3093:3160   */\n      tag_263\n        /* \"#utility.yul\":3157:3159   */\n      0x26\n        /* \"#utility.yul\":3152:3155   */\n      dup4\n        /* \"#utility.yul\":3093:3160   */\n      tag_251\n      jump\t// in\n    tag_263:\n        /* \"#utility.yul\":3086:3160   */\n      swap2\n      pop\n        /* \"#utility.yul\":3169:3262   */\n      tag_264\n        /* \"#utility.yul\":3258:3261   */\n      dup3\n        /* \"#utility.yul\":3169:3262   */\n      tag_265\n      jump\t// in\n    tag_264:\n        /* \"#utility.yul\":3287:3289   */\n      0x40\n        /* \"#utility.yul\":3282:3285   */\n      dup3\n        /* \"#utility.yul\":3278:3290   */\n      add\n        /* \"#utility.yul\":3271:3290   */\n      swap1\n      pop\n        /* \"#utility.yul\":3076:3296   */\n      swap2\n      swap1\n      pop\n      jump\t// out\n        /* \"#utility.yul\":3302:3668   */\n    tag_266:\n        /* \"#utility.yul\":3444:3447   */\n      0x00\n        /* \"#utility.yul\":3465:3532   */\n      tag_268\n        /* \"#utility.yul\":3529:3531   */\n      0x22\n        /* \"#utility.yul\":3524:3527   */\n      dup4\n        /* \"#utility.yul\":3465:3532   */\n      tag_251\n      jump\t// in\n    tag_268:\n        /* \"#utility.yul\":3458:3532   */\n      swap2\n      pop\n        /* \"#utility.yul\":3541:3634   */\n      tag_269\n        /* \"#utility.yul\":3630:3633   */\n      dup3\n        /* \"#utility.yul\":3541:3634   */\n      tag_270\n      jump\t// in\n    tag_269:\n        /* \"#utility.yul\":3659:3661   */\n      0x40\n        /* \"#utility.yul\":3654:3657   */\n      dup3\n        /* \"#utility.yul\":3650:3662   */\n      add\n        /* \"#utility.yul\":3643:3662   */\n      swap1\n      pop\n        /* \"#utility.yul\":3448:3668   */\n      swap2\n      swap1\n      pop\n      jump\t// out\n        /* \"#utility.yul\":3674:4040   */\n    tag_271:\n        /* \"#utility.yul\":3816:3819   */\n      0x00\n        /* \"#utility.yul\":3837:3904   */\n      tag_273\n        /* \"#utility.yul\":3901:3903   */\n      0x1d\n        /* \"#utility.yul\":3896:3899   */\n      dup4\n        /* \"#utility.yul\":3837:3904   */\n      tag_251\n      jump\t// in\n    tag_273:\n        /* \"#utility.yul\":3830:3904   */\n      swap2\n      pop\n        /* \"#utility.yul\":3913:4006   */\n      tag_274\n        /* \"#utility.yul\":4002:4005   */\n      dup3\n        /* \"#utility.yul\":3913:4006   */\n      tag_275\n      jump\t// in\n    tag_274:\n        /* \"#utility.yul\":4031:4033   */\n      0x20\n        /* \"#utility.yul\":4026:4029   */\n      dup3\n        /* \"#utility.yul\":4022:4034   */\n      add\n        /* \"#utility.yul\":4015:4034   */\n      swap1\n      pop\n        /* \"#utility.yul\":3820:4040   */\n      swap2\n      swap1\n      pop\n      jump\t// out\n        /* \"#utility.yul\":4046:4412   */\n    tag_276:\n        /* \"#utility.yul\":4188:4191   */\n      0x00\n        /* \"#utility.yul\":4209:4276   */\n      tag_278\n        /* \"#utility.yul\":4273:4275   */\n      0x26\n        /* \"#utility.yul\":4268:4271   */\n      dup4\n        /* \"#utility.yul\":4209:4276   */\n      tag_251\n      jump\t// in\n    tag_278:\n        /* \"#utility.yul\":4202:4276   */\n      swap2\n      pop\n        /* \"#utility.yul\":4285:4378   */\n      tag_279\n        /* \"#utility.yul\":4374:4377   */\n      dup3\n        /* \"#utility.yul\":4285:4378   */\n      tag_280\n      jump\t// in\n    tag_279:\n        /* \"#utility.yul\":4403:4405   */\n      0x40\n        /* \"#utility.yul\":4398:4401   */\n      dup3\n        /* \"#utility.yul\":4394:4406   */\n      add\n        /* \"#utility.yul\":4387:4406   */\n      swap1\n      pop\n        /* \"#utility.yul\":4192:4412   */\n      swap2\n      swap1\n      pop\n      jump\t// out\n        /* \"#utility.yul\":4418:4784   */\n    tag_281:\n        /* \"#utility.yul\":4560:4563   */\n      0x00\n        /* \"#utility.yul\":4581:4648   */\n      tag_283\n        /* \"#utility.yul\":4645:4647   */\n      0x20\n        /* \"#utility.yul\":4640:4643   */\n      dup4\n        /* \"#utility.yul\":4581:4648   */\n      tag_251\n      jump\t// in\n    tag_283:\n        /* \"#utility.yul\":4574:4648   */\n      swap2\n      pop\n        /* \"#utility.yul\":4657:4750   */\n      tag_284\n        /* \"#utility.yul\":4746:4749   */\n      dup3\n        /* \"#utility.yul\":4657:4750   */\n      tag_285\n      jump\t// in\n    tag_284:\n        /* \"#utility.yul\":4775:4777   */\n      0x20\n        /* \"#utility.yul\":4770:4773   */\n      dup3\n        /* \"#utility.yul\":4766:4778   */\n      add\n        /* \"#utility.yul\":4759:4778   */\n      swap1\n      pop\n        /* \"#utility.yul\":4564:4784   */\n      swap2\n      swap1\n      pop\n      jump\t// out\n        /* \"#utility.yul\":4790:5156   */\n    tag_286:\n        /* \"#utility.yul\":4932:4935   */\n      0x00\n        /* \"#utility.yul\":4953:5020   */\n      tag_288\n        /* \"#utility.yul\":5017:5019   */\n      0x1f\n        /* \"#utility.yul\":5012:5015   */\n      dup4\n        /* \"#utility.yul\":4953:5020   */\n      tag_251\n      jump\t// in\n    tag_288:\n        /* \"#utility.yul\":4946:5020   */\n      swap2\n      pop\n        /* \"#utility.yul\":5029:5122   */\n      tag_289\n        /* \"#utility.yul\":5118:5121   */\n      dup3\n        /* \"#utility.yul\":5029:5122   */\n      tag_290\n      jump\t// in\n    tag_289:\n        /* \"#utility.yul\":5147:5149   */\n      0x20\n        /* \"#utility.yul\":5142:5145   */\n      dup3\n        /* \"#utility.yul\":5138:5150   */\n      add\n        /* \"#utility.yul\":5131:5150   */\n      swap1\n      pop\n        /* \"#utility.yul\":4936:5156   */\n      swap2\n      swap1\n      pop\n      jump\t// out\n        /* \"#utility.yul\":5162:5528   */\n    tag_291:\n        /* \"#utility.yul\":5304:5307   */\n      0x00\n        /* \"#utility.yul\":5325:5392   */\n      tag_293\n        /* \"#utility.yul\":5389:5391   */\n      0x25\n        /* \"#utility.yul\":5384:5387   */\n      dup4\n        /* \"#utility.yul\":5325:5392   */\n      tag_251\n      jump\t// in\n    tag_293:\n        /* \"#utility.yul\":5318:5392   */\n      swap2\n      pop\n        /* \"#utility.yul\":5401:5494   */\n      tag_294\n        /* \"#utility.yul\":5490:5493   */\n      dup3\n        /* \"#utility.yul\":5401:5494   */\n      tag_295\n      jump\t// in\n    tag_294:\n        /* \"#utility.yul\":5519:5521   */\n      0x40\n        /* \"#utility.yul\":5514:5517   */\n      dup3\n        /* \"#utility.yul\":5510:5522   */\n      add\n        /* \"#utility.yul\":5503:5522   */\n      swap1\n      pop\n        /* \"#utility.yul\":5308:5528   */\n      swap2\n      swap1\n      pop\n      jump\t// out\n        /* \"#utility.yul\":5534:5900   */\n    tag_296:\n        /* \"#utility.yul\":5676:5679   */\n      0x00\n        /* \"#utility.yul\":5697:5764   */\n      tag_298\n        /* \"#utility.yul\":5761:5763   */\n      0x24\n        /* \"#utility.yul\":5756:5759   */\n      dup4\n        /* \"#utility.yul\":5697:5764   */\n      tag_251\n      jump\t// in\n    tag_298:\n        /* \"#utility.yul\":5690:5764   */\n      swap2\n      pop\n        /* \"#utility.yul\":5773:5866   */\n      tag_299\n        /* \"#utility.yul\":5862:5865   */\n      dup3\n        /* \"#utility.yul\":5773:5866   */\n      tag_300\n      jump\t// in\n    tag_299:\n        /* \"#utility.yul\":5891:5893   */\n      0x40\n        /* \"#utility.yul\":5886:5889   */\n      dup3\n        /* \"#utility.yul\":5882:5894   */\n      add\n        /* \"#utility.yul\":5875:5894   */\n      swap1\n      pop\n        /* \"#utility.yul\":5680:5900   */\n      swap2\n      swap1\n      pop\n      jump\t// out\n        /* \"#utility.yul\":5906:6272   */\n    tag_301:\n        /* \"#utility.yul\":6048:6051   */\n      0x00\n        /* \"#utility.yul\":6069:6136   */\n      tag_303\n        /* \"#utility.yul\":6133:6135   */\n      0x25\n        /* \"#utility.yul\":6128:6131   */\n      dup4\n        /* \"#utility.yul\":6069:6136   */\n      tag_251\n      jump\t// in\n    tag_303:\n        /* \"#utility.yul\":6062:6136   */\n      swap2\n      pop\n        /* \"#utility.yul\":6145:6238   */\n      tag_304\n        /* \"#utility.yul\":6234:6237   */\n      dup3\n        /* \"#utility.yul\":6145:6238   */\n      tag_305\n      jump\t// in\n    tag_304:\n        /* \"#utility.yul\":6263:6265   */\n      0x40\n        /* \"#utility.yul\":6258:6261   */\n      dup3\n        /* \"#utility.yul\":6254:6266   */\n      add\n        /* \"#utility.yul\":6247:6266   */\n      swap1\n      pop\n        /* \"#utility.yul\":6052:6272   */\n      swap2\n      swap1\n      pop\n      jump\t// out\n        /* \"#utility.yul\":6278:6644   */\n    tag_306:\n        /* \"#utility.yul\":6420:6423   */\n      0x00\n        /* \"#utility.yul\":6441:6508   */\n      tag_308\n        /* \"#utility.yul\":6505:6507   */\n      0x1f\n        /* \"#utility.yul\":6500:6503   */\n      dup4\n        /* \"#utility.yul\":6441:6508   */\n      tag_251\n      jump\t// in\n    tag_308:\n        /* \"#utility.yul\":6434:6508   */\n      swap2\n      pop\n        /* \"#utility.yul\":6517:6610   */\n      tag_309\n        /* \"#utility.yul\":6606:6609   */\n      dup3\n        /* \"#utility.yul\":6517:6610   */\n      tag_310\n      jump\t// in\n    tag_309:\n        /* \"#utility.yul\":6635:6637   */\n      0x20\n        /* \"#utility.yul\":6630:6633   */\n      dup3\n        /* \"#utility.yul\":6626:6638   */\n      add\n        /* \"#utility.yul\":6619:6638   */\n      swap1\n      pop\n        /* \"#utility.yul\":6424:6644   */\n      swap2\n      swap1\n      pop\n      jump\t// out\n        /* \"#utility.yul\":6650:6768   */\n    tag_311:\n        /* \"#utility.yul\":6737:6761   */\n      tag_313\n        /* \"#utility.yul\":6755:6760   */\n      dup2\n        /* \"#utility.yul\":6737:6761   */\n      tag_314\n      jump\t// in\n    tag_313:\n        /* \"#utility.yul\":6732:6735   */\n      dup3\n        /* \"#utility.yul\":6725:6762   */\n      mstore\n        /* \"#utility.yul\":6715:6768   */\n      pop\n      pop\n      jump\t// out\n        /* \"#utility.yul\":6774:6886   */\n    tag_315:\n        /* \"#utility.yul\":6857:6879   */\n      tag_317\n        /* \"#utility.yul\":6873:6878   */\n      dup2\n        /* \"#utility.yul\":6857:6879   */\n      tag_318\n      jump\t// in\n    tag_317:\n        /* \"#utility.yul\":6852:6855   */\n      dup3\n        /* \"#utility.yul\":6845:6880   */\n      mstore\n        /* \"#utility.yul\":6835:6886   */\n      pop\n      pop\n      jump\t// out\n        /* \"#utility.yul\":6892:7114   */\n    tag_67:\n        /* \"#utility.yul\":6985:6989   */\n      0x00\n        /* \"#utility.yul\":7023:7025   */\n      0x20\n        /* \"#utility.yul\":7012:7021   */\n      dup3\n        /* \"#utility.yul\":7008:7026   */\n      add\n        /* \"#utility.yul\":7000:7026   */\n      swap1\n      pop\n        /* \"#utility.yul\":7036:7107   */\n      tag_320\n        /* \"#utility.yul\":7104:7105   */\n      0x00\n        /* \"#utility.yul\":7093:7102   */\n      dup4\n        /* \"#utility.yul\":7089:7106   */\n      add\n        /* \"#utility.yul\":7080:7086   */\n      dup5\n        /* \"#utility.yul\":7036:7107   */\n      tag_238\n      jump\t// in\n    tag_320:\n        /* \"#utility.yul\":6990:7114   */\n      swap3\n      swap2\n      pop\n      pop\n      jump\t// out\n        /* \"#utility.yul\":7120:7330   */\n    tag_33:\n        /* \"#utility.yul\":7207:7211   */\n      0x00\n        /* \"#utility.yul\":7245:7247   */\n      0x20\n        /* \"#utility.yul\":7234:7243   */\n      dup3\n        /* \"#utility.yul\":7230:7248   */\n      add\n        /* \"#utility.yul\":7222:7248   */\n      swap1\n      pop\n        /* \"#utility.yul\":7258:7323   */\n      tag_322\n        /* \"#utility.yul\":7320:7321   */\n      0x00\n        /* \"#utility.yul\":7309:7318   */\n      dup4\n        /* \"#utility.yul\":7305:7322   */\n      add\n        /* \"#utility.yul\":7296:7302   */\n      dup5\n        /* \"#utility.yul\":7258:7323   */\n      tag_242\n      jump\t// in\n    tag_322:\n        /* \"#utility.yul\":7212:7330   */\n      swap3\n      swap2\n      pop\n      pop\n      jump\t// out\n        /* \"#utility.yul\":7336:7649   */\n    tag_27:\n        /* \"#utility.yul\":7449:7453   */\n      0x00\n        /* \"#utility.yul\":7487:7489   */\n      0x20\n        /* \"#utility.yul\":7476:7485   */\n      dup3\n        /* \"#utility.yul\":7472:7490   */\n      add\n        /* \"#utility.yul\":7464:7490   */\n      swap1\n      pop\n        /* \"#utility.yul\":7536:7545   */\n      dup2\n        /* \"#utility.yul\":7530:7534   */\n      dup2\n        /* \"#utility.yul\":7526:7546   */\n      sub\n        /* \"#utility.yul\":7522:7523   */\n      0x00\n        /* \"#utility.yul\":7511:7520   */\n      dup4\n        /* \"#utility.yul\":7507:7524   */\n      add\n        /* \"#utility.yul\":7500:7547   */\n      mstore\n        /* \"#utility.yul\":7564:7642   */\n      tag_324\n        /* \"#utility.yul\":7637:7641   */\n      dup2\n        /* \"#utility.yul\":7628:7634   */\n      dup5\n        /* \"#utility.yul\":7564:7642   */\n      tag_246\n      jump\t// in\n    tag_324:\n        /* \"#utility.yul\":7556:7642   */\n      swap1\n      pop\n        /* \"#utility.yul\":7454:7649   */\n      swap3\n      swap2\n      pop\n      pop\n      jump\t// out\n        /* \"#utility.yul\":7655:8074   */\n    tag_187:\n        /* \"#utility.yul\":7821:7825   */\n      0x00\n        /* \"#utility.yul\":7859:7861   */\n      0x20\n        /* \"#utility.yul\":7848:7857   */\n      dup3\n        /* \"#utility.yul\":7844:7862   */\n      add\n        /* \"#utility.yul\":7836:7862   */\n      swap1\n      pop\n        /* \"#utility.yul\":7908:7917   */\n      dup2\n        /* \"#utility.yul\":7902:7906   */\n      dup2\n        /* \"#utility.yul\":7898:7918   */\n      sub\n        /* \"#utility.yul\":7894:7895   */\n      0x00\n        /* \"#utility.yul\":7883:7892   */\n      dup4\n        /* \"#utility.yul\":7879:7896   */\n      add\n        /* \"#utility.yul\":7872:7919   */\n      mstore\n        /* \"#utility.yul\":7936:8067   */\n      tag_326\n        /* \"#utility.yul\":8062:8066   */\n      dup2\n        /* \"#utility.yul\":7936:8067   */\n      tag_256\n      jump\t// in\n    tag_326:\n        /* \"#utility.yul\":7928:8067   */\n      swap1\n      pop\n        /* \"#utility.yul\":7826:8074   */\n      swap2\n      swap1\n      pop\n      jump\t// out\n        /* \"#utility.yul\":8080:8499   */\n    tag_163:\n        /* \"#utility.yul\":8246:8250   */\n      0x00\n        /* \"#utility.yul\":8284:8286   */\n      0x20\n        /* \"#utility.yul\":8273:8282   */\n      dup3\n        /* \"#utility.yul\":8269:8287   */\n      add\n        /* \"#utility.yul\":8261:8287   */\n      swap1\n      pop\n        /* \"#utility.yul\":8333:8342   */\n      dup2\n        /* \"#utility.yul\":8327:8331   */\n      dup2\n        /* \"#utility.yul\":8323:8343   */\n      sub\n        /* \"#utility.yul\":8319:8320   */\n      0x00\n        /* \"#utility.yul\":8308:8317   */\n      dup4\n        /* \"#utility.yul\":8304:8321   */\n      add\n        /* \"#utility.yul\":8297:8344   */\n      mstore\n        /* \"#utility.yul\":8361:8492   */\n      tag_328\n        /* \"#utility.yul\":8487:8491   */\n      dup2\n        /* \"#utility.yul\":8361:8492   */\n      tag_261\n      jump\t// in\n    tag_328:\n        /* \"#utility.yul\":8353:8492   */\n      swap1\n      pop\n        /* \"#utility.yul\":8251:8499   */\n      swap2\n      swap1\n      pop\n      jump\t// out\n        /* \"#utility.yul\":8505:8924   */\n    tag_172:\n        /* \"#utility.yul\":8671:8675   */\n      0x00\n        /* \"#utility.yul\":8709:8711   */\n      0x20\n        /* \"#utility.yul\":8698:8707   */\n      dup3\n        /* \"#utility.yul\":8694:8712   */\n      add\n        /* \"#utility.yul\":8686:8712   */\n      swap1\n      pop\n        /* \"#utility.yul\":8758:8767   */\n      dup2\n        /* \"#utility.yul\":8752:8756   */\n      dup2\n        /* \"#utility.yul\":8748:8768   */\n      sub\n        /* \"#utility.yul\":8744:8745   */\n      0x00\n        /* \"#utility.yul\":8733:8742   */\n      dup4\n        /* \"#utility.yul\":8729:8746   */\n      add\n        /* \"#utility.yul\":8722:8769   */\n      mstore\n        /* \"#utility.yul\":8786:8917   */\n      tag_330\n        /* \"#utility.yul\":8912:8916   */\n      dup2\n        /* \"#utility.yul\":8786:8917   */\n      tag_266\n      jump\t// in\n    tag_330:\n        /* \"#utility.yul\":8778:8917   */\n      swap1\n      pop\n        /* \"#utility.yul\":8676:8924   */\n      swap2\n      swap1\n      pop\n      jump\t// out\n        /* \"#utility.yul\":8930:9349   */\n    tag_179:\n        /* \"#utility.yul\":9096:9100   */\n      0x00\n        /* \"#utility.yul\":9134:9136   */\n      0x20\n        /* \"#utility.yul\":9123:9132   */\n      dup3\n        /* \"#utility.yul\":9119:9137   */\n      add\n        /* \"#utility.yul\":9111:9137   */\n      swap1\n      pop\n        /* \"#utility.yul\":9183:9192   */\n      dup2\n        /* \"#utility.yul\":9177:9181   */\n      dup2\n        /* \"#utility.yul\":9173:9193   */\n      sub\n        /* \"#utility.yul\":9169:9170   */\n      0x00\n        /* \"#utility.yul\":9158:9167   */\n      dup4\n        /* \"#utility.yul\":9154:9171   */\n      add\n        /* \"#utility.yul\":9147:9194   */\n      mstore\n        /* \"#utility.yul\":9211:9342   */\n      tag_332\n        /* \"#utility.yul\":9337:9341   */\n      dup2\n        /* \"#utility.yul\":9211:9342   */\n      tag_271\n      jump\t// in\n    tag_332:\n        /* \"#utility.yul\":9203:9342   */\n      swap1\n      pop\n        /* \"#utility.yul\":9101:9349   */\n      swap2\n      swap1\n      pop\n      jump\t// out\n        /* \"#utility.yul\":9355:9774   */\n    tag_192:\n        /* \"#utility.yul\":9521:9525   */\n      0x00\n        /* \"#utility.yul\":9559:9561   */\n      0x20\n        /* \"#utility.yul\":9548:9557   */\n      dup3\n        /* \"#utility.yul\":9544:9562   */\n      add\n        /* \"#utility.yul\":9536:9562   */\n      swap1\n      pop\n        /* \"#utility.yul\":9608:9617   */\n      dup2\n        /* \"#utility.yul\":9602:9606   */\n      dup2\n        /* \"#utility.yul\":9598:9618   */\n      sub\n        /* \"#utility.yul\":9594:9595   */\n      0x00\n        /* \"#utility.yul\":9583:9592   */\n      dup4\n        /* \"#utility.yul\":9579:9596   */\n      add\n        /* \"#utility.yul\":9572:9619   */\n      mstore\n        /* \"#utility.yul\":9636:9767   */\n      tag_334\n        /* \"#utility.yul\":9762:9766   */\n      dup2\n        /* \"#utility.yul\":9636:9767   */\n      tag_276\n      jump\t// in\n    tag_334:\n        /* \"#utility.yul\":9628:9767   */\n      swap1\n      pop\n        /* \"#utility.yul\":9526:9774   */\n      swap2\n      swap1\n      pop\n      jump\t// out\n        /* \"#utility.yul\":9780:10199   */\n    tag_201:\n        /* \"#utility.yul\":9946:9950   */\n      0x00\n        /* \"#utility.yul\":9984:9986   */\n      0x20\n        /* \"#utility.yul\":9973:9982   */\n      dup3\n        /* \"#utility.yul\":9969:9987   */\n      add\n        /* \"#utility.yul\":9961:9987   */\n      swap1\n      pop\n        /* \"#utility.yul\":10033:10042   */\n      dup2\n        /* \"#utility.yul\":10027:10031   */\n      dup2\n        /* \"#utility.yul\":10023:10043   */\n      sub\n        /* \"#utility.yul\":10019:10020   */\n      0x00\n        /* \"#utility.yul\":10008:10017   */\n      dup4\n        /* \"#utility.yul\":10004:10021   */\n      add\n        /* \"#utility.yul\":9997:10044   */\n      mstore\n        /* \"#utility.yul\":10061:10192   */\n      tag_336\n        /* \"#utility.yul\":10187:10191   */\n      dup2\n        /* \"#utility.yul\":10061:10192   */\n      tag_281\n      jump\t// in\n    tag_336:\n        /* \"#utility.yul\":10053:10192   */\n      swap1\n      pop\n        /* \"#utility.yul\":9951:10199   */\n      swap2\n      swap1\n      pop\n      jump\t// out\n        /* \"#utility.yul\":10205:10624   */\n    tag_127:\n        /* \"#utility.yul\":10371:10375   */\n      0x00\n        /* \"#utility.yul\":10409:10411   */\n      0x20\n        /* \"#utility.yul\":10398:10407   */\n      dup3\n        /* \"#utility.yul\":10394:10412   */\n      add\n        /* \"#utility.yul\":10386:10412   */\n      swap1\n      pop\n        /* \"#utility.yul\":10458:10467   */\n      dup2\n        /* \"#utility.yul\":10452:10456   */\n      dup2\n        /* \"#utility.yul\":10448:10468   */\n      sub\n        /* \"#utility.yul\":10444:10445   */\n      0x00\n        /* \"#utility.yul\":10433:10442   */\n      dup4\n        /* \"#utility.yul\":10429:10446   */\n      add\n        /* \"#utility.yul\":10422:10469   */\n      mstore\n        /* \"#utility.yul\":10486:10617   */\n      tag_338\n        /* \"#utility.yul\":10612:10616   */\n      dup2\n        /* \"#utility.yul\":10486:10617   */\n      tag_286\n      jump\t// in\n    tag_338:\n        /* \"#utility.yul\":10478:10617   */\n      swap1\n      pop\n        /* \"#utility.yul\":10376:10624   */\n      swap2\n      swap1\n      pop\n      jump\t// out\n        /* \"#utility.yul\":10630:11049   */\n    tag_184:\n        /* \"#utility.yul\":10796:10800   */\n      0x00\n        /* \"#utility.yul\":10834:10836   */\n      0x20\n        /* \"#utility.yul\":10823:10832   */\n      dup3\n        /* \"#utility.yul\":10819:10837   */\n      add\n        /* \"#utility.yul\":10811:10837   */\n      swap1\n      pop\n        /* \"#utility.yul\":10883:10892   */\n      dup2\n        /* \"#utility.yul\":10877:10881   */\n      dup2\n        /* \"#utility.yul\":10873:10893   */\n      sub\n        /* \"#utility.yul\":10869:10870   */\n      0x00\n        /* \"#utility.yul\":10858:10867   */\n      dup4\n        /* \"#utility.yul\":10854:10871   */\n      add\n        /* \"#utility.yul\":10847:10894   */\n      mstore\n        /* \"#utility.yul\":10911:11042   */\n      tag_340\n        /* \"#utility.yul\":11037:11041   */\n      dup2\n        /* \"#utility.yul\":10911:11042   */\n      tag_291\n      jump\t// in\n    tag_340:\n        /* \"#utility.yul\":10903:11042   */\n      swap1\n      pop\n        /* \"#utility.yul\":10801:11049   */\n      swap2\n      swap1\n      pop\n      jump\t// out\n        /* \"#utility.yul\":11055:11474   */\n    tag_169:\n        /* \"#utility.yul\":11221:11225   */\n      0x00\n        /* \"#utility.yul\":11259:11261   */\n      0x20\n        /* \"#utility.yul\":11248:11257   */\n      dup3\n        /* \"#utility.yul\":11244:11262   */\n      add\n        /* \"#utility.yul\":11236:11262   */\n      swap1\n      pop\n        /* \"#utility.yul\":11308:11317   */\n      dup2\n        /* \"#utility.yul\":11302:11306   */\n      dup2\n        /* \"#utility.yul\":11298:11318   */\n      sub\n        /* \"#utility.yul\":11294:11295   */\n      0x00\n        /* \"#utility.yul\":11283:11292   */\n      dup4\n        /* \"#utility.yul\":11279:11296   */\n      add\n        /* \"#utility.yul\":11272:11319   */\n      mstore\n        /* \"#utility.yul\":11336:11467   */\n      tag_342\n        /* \"#utility.yul\":11462:11466   */\n      dup2\n        /* \"#utility.yul\":11336:11467   */\n      tag_296\n      jump\t// in\n    tag_342:\n        /* \"#utility.yul\":11328:11467   */\n      swap1\n      pop\n        /* \"#utility.yul\":11226:11474   */\n      swap2\n      swap1\n      pop\n      jump\t// out\n        /* \"#utility.yul\":11480:11899   */\n    tag_152:\n        /* \"#utility.yul\":11646:11650   */\n      0x00\n        /* \"#utility.yul\":11684:11686   */\n      0x20\n        /* \"#utility.yul\":11673:11682   */\n      dup3\n        /* \"#utility.yul\":11669:11687   */\n      add\n        /* \"#utility.yul\":11661:11687   */\n      swap1\n      pop\n        /* \"#utility.yul\":11733:11742   */\n      dup2\n        /* \"#utility.yul\":11727:11731   */\n      dup2\n        /* \"#utility.yul\":11723:11743   */\n      sub\n        /* \"#utility.yul\":11719:11720   */\n      0x00\n        /* \"#utility.yul\":11708:11717   */\n      dup4\n        /* \"#utility.yul\":11704:11721   */\n      add\n        /* \"#utility.yul\":11697:11744   */\n      mstore\n        /* \"#utility.yul\":11761:11892   */\n      tag_344\n        /* \"#utility.yul\":11887:11891   */\n      dup2\n        /* \"#utility.yul\":11761:11892   */\n      tag_301\n      jump\t// in\n    tag_344:\n        /* \"#utility.yul\":11753:11892   */\n      swap1\n      pop\n        /* \"#utility.yul\":11651:11899   */\n      swap2\n      swap1\n      pop\n      jump\t// out\n        /* \"#utility.yul\":11905:12324   */\n    tag_205:\n        /* \"#utility.yul\":12071:12075   */\n      0x00\n        /* \"#utility.yul\":12109:12111   */\n      0x20\n        /* \"#utility.yul\":12098:12107   */\n      dup3\n        /* \"#utility.yul\":12094:12112   */\n      add\n        /* \"#utility.yul\":12086:12112   */\n      swap1\n      pop\n        /* \"#utility.yul\":12158:12167   */\n      dup2\n        /* \"#utility.yul\":12152:12156   */\n      dup2\n        /* \"#utility.yul\":12148:12168   */\n      sub\n        /* \"#utility.yul\":12144:12145   */\n      0x00\n        /* \"#utility.yul\":12133:12142   */\n      dup4\n        /* \"#utility.yul\":12129:12146   */\n      add\n        /* \"#utility.yul\":12122:12169   */\n      mstore\n        /* \"#utility.yul\":12186:12317   */\n      tag_346\n        /* \"#utility.yul\":12312:12316   */\n      dup2\n        /* \"#utility.yul\":12186:12317   */\n      tag_306\n      jump\t// in\n    tag_346:\n        /* \"#utility.yul\":12178:12317   */\n      swap1\n      pop\n        /* \"#utility.yul\":12076:12324   */\n      swap2\n      swap1\n      pop\n      jump\t// out\n        /* \"#utility.yul\":12330:12552   */\n    tag_37:\n        /* \"#utility.yul\":12423:12427   */\n      0x00\n        /* \"#utility.yul\":12461:12463   */\n      0x20\n        /* \"#utility.yul\":12450:12459   */\n      dup3\n        /* \"#utility.yul\":12446:12464   */\n      add\n        /* \"#utility.yul\":12438:12464   */\n      swap1\n      pop\n        /* \"#utility.yul\":12474:12545   */\n      tag_348\n        /* \"#utility.yul\":12542:12543   */\n      0x00\n        /* \"#utility.yul\":12531:12540   */\n      dup4\n        /* \"#utility.yul\":12527:12544   */\n      add\n        /* \"#utility.yul\":12518:12524   */\n      dup5\n        /* \"#utility.yul\":12474:12545   */\n      tag_311\n      jump\t// in\n    tag_348:\n        /* \"#utility.yul\":12428:12552   */\n      swap3\n      swap2\n      pop\n      pop\n      jump\t// out\n        /* \"#utility.yul\":12558:12772   */\n    tag_50:\n        /* \"#utility.yul\":12647:12651   */\n      0x00\n        /* \"#utility.yul\":12685:12687   */\n      0x20\n        /* \"#utility.yul\":12674:12683   */\n      dup3\n        /* \"#utility.yul\":12670:12688   */\n      add\n        /* \"#utility.yul\":12662:12688   */\n      swap1\n      pop\n        /* \"#utility.yul\":12698:12765   */\n      tag_350\n        /* \"#utility.yul\":12762:12763   */\n      0x00\n        /* \"#utility.yul\":12751:12760   */\n      dup4\n        /* \"#utility.yul\":12747:12764   */\n      add\n        /* \"#utility.yul\":12738:12744   */\n      dup5\n        /* \"#utility.yul\":12698:12765   */\n      tag_315\n      jump\t// in\n    tag_350:\n        /* \"#utility.yul\":12652:12772   */\n      swap3\n      swap2\n      pop\n      pop\n      jump\t// out\n        /* \"#utility.yul\":12778:12877   */\n    tag_249:\n        /* \"#utility.yul\":12830:12836   */\n      0x00\n        /* \"#utility.yul\":12864:12869   */\n      dup2\n        /* \"#utility.yul\":12858:12870   */\n      mload\n        /* \"#utility.yul\":12848:12870   */\n      swap1\n      pop\n        /* \"#utility.yul\":12837:12877   */\n      swap2\n      swap1\n      pop\n      jump\t// out\n        /* \"#utility.yul\":12883:13052   */\n    tag_251:\n        /* \"#utility.yul\":12967:12978   */\n      0x00\n        /* \"#utility.yul\":13001:13007   */\n      dup3\n        /* \"#utility.yul\":12996:12999   */\n      dup3\n        /* \"#utility.yul\":12989:13008   */\n      mstore\n        /* \"#utility.yul\":13041:13045   */\n      0x20\n        /* \"#utility.yul\":13036:13039   */\n      dup3\n        /* \"#utility.yul\":13032:13046   */\n      add\n        /* \"#utility.yul\":13017:13046   */\n      swap1\n      pop\n        /* \"#utility.yul\":12979:13052   */\n      swap3\n      swap2\n      pop\n      pop\n      jump\t// out\n        /* \"#utility.yul\":13058:13363   */\n    tag_123:\n        /* \"#utility.yul\":13098:13101   */\n      0x00\n        /* \"#utility.yul\":13117:13137   */\n      tag_354\n        /* \"#utility.yul\":13135:13136   */\n      dup3\n        /* \"#utility.yul\":13117:13137   */\n      tag_314\n      jump\t// in\n    tag_354:\n        /* \"#utility.yul\":13112:13137   */\n      swap2\n      pop\n        /* \"#utility.yul\":13151:13171   */\n      tag_355\n        /* \"#utility.yul\":13169:13170   */\n      dup4\n        /* \"#utility.yul\":13151:13171   */\n      tag_314\n      jump\t// in\n    tag_355:\n        /* \"#utility.yul\":13146:13171   */\n      swap3\n      pop\n        /* \"#utility.yul\":13305:13306   */\n      dup3\n        /* \"#utility.yul\":13237:13303   */\n      0xffffffffffffffffffffffffffffffffffffffffffffffffffffffffffffffff\n        /* \"#utility.yul\":13233:13307   */\n      sub\n        /* \"#utility.yul\":13230:13231   */\n      dup3\n        /* \"#utility.yul\":13227:13308   */\n      gt\n        /* \"#utility.yul\":13224:13226   */\n      iszero\n      tag_356\n      jumpi\n        /* \"#utility.yul\":13311:13329   */\n      tag_357\n      tag_358\n      jump\t// in\n    tag_357:\n        /* \"#utility.yul\":13224:13226   */\n    tag_356:\n        /* \"#utility.yul\":13355:13356   */\n      dup3\n        /* \"#utility.yul\":13352:13353   */\n      dup3\n        /* \"#utility.yul\":13348:13357   */\n      add\n        /* \"#utility.yul\":13341:13357   */\n      swap1\n      pop\n        /* \"#utility.yul\":13102:13363   */\n      swap3\n      swap2\n      pop\n      pop\n      jump\t// out\n        /* \"#utility.yul\":13369:13465   */\n    tag_241:\n        /* \"#utility.yul\":13406:13413   */\n      0x00\n        /* \"#utility.yul\":13435:13459   */\n      tag_360\n        /* \"#utility.yul\":13453:13458   */\n      dup3\n        /* \"#utility.yul\":13435:13459   */\n      tag_361\n      jump\t// in\n    tag_360:\n        /* \"#utility.yul\":13424:13459   */\n      swap1\n      pop\n        /* \"#utility.yul\":13414:13465   */\n      swap2\n      swap1\n      pop\n      jump\t// out\n        /* \"#utility.yul\":13471:13561   */\n    tag_245:\n        /* \"#utility.yul\":13505:13512   */\n      0x00\n        /* \"#utility.yul\":13548:13553   */\n      dup2\n        /* \"#utility.yul\":13541:13554   */\n      iszero\n        /* \"#utility.yul\":13534:13555   */\n      iszero\n        /* \"#utility.yul\":13523:13555   */\n      swap1\n      pop\n        /* \"#utility.yul\":13513:13561   */\n      swap2\n      swap1\n      pop\n      jump\t// out\n        /* \"#utility.yul\":13567:13693   */\n    tag_361:\n        /* \"#utility.yul\":13604:13611   */\n      0x00\n        /* \"#utility.yul\":13644:13686   */\n      0xffffffffffffffffffffffffffffffffffffffff\n        /* \"#utility.yul\":13637:13642   */\n      dup3\n        /* \"#utility.yul\":13633:13687   */\n      and\n        /* \"#utility.yul\":13622:13687   */\n      swap1\n      pop\n        /* \"#utility.yul\":13612:13693   */\n      swap2\n      swap1\n      pop\n      jump\t// out\n        /* \"#utility.yul\":13699:13776   */\n    tag_314:\n        /* \"#utility.yul\":13736:13743   */\n      0x00\n        /* \"#utility.yul\":13765:13770   */\n      dup2\n        /* \"#utility.yul\":13754:13770   */\n      swap1\n      pop\n        /* \"#utility.yul\":13744:13776   */\n      swap2\n      swap1\n      pop\n      jump\t// out\n        /* \"#utility.yul\":13782:13868   */\n    tag_318:\n        /* \"#utility.yul\":13817:13824   */\n      0x00\n        /* \"#utility.yul\":13857:13861   */\n      0xff\n        /* \"#utility.yul\":13850:13855   */\n      dup3\n        /* \"#utility.yul\":13846:13862   */\n      and\n        /* \"#utility.yul\":13835:13862   */\n      swap1\n      pop\n        /* \"#utility.yul\":13825:13868   */\n      swap2\n      swap1\n      pop\n      jump\t// out\n        /* \"#utility.yul\":13874:14181   */\n    tag_253:\n        /* \"#utility.yul\":13942:13943   */\n      0x00\n        /* \"#utility.yul\":13952:14065   */\n    tag_367:\n        /* \"#utility.yul\":13966:13972   */\n      dup4\n        /* \"#utility.yul\":13963:13964   */\n      dup2\n        /* \"#utility.yul\":13960:13973   */\n      lt\n        /* \"#utility.yul\":13952:14065   */\n      iszero\n      tag_369\n      jumpi\n        /* \"#utility.yul\":14051:14052   */\n      dup1\n        /* \"#utility.yul\":14046:14049   */\n      dup3\n        /* \"#utility.yul\":14042:14053   */\n      add\n        /* \"#utility.yul\":14036:14054   */\n      mload\n        /* \"#utility.yul\":14032:14033   */\n      dup2\n        /* \"#utility.yul\":14027:14030   */\n      dup5\n        /* \"#utility.yul\":14023:14034   */\n      add\n        /* \"#utility.yul\":14016:14055   */\n      mstore\n        /* \"#utility.yul\":13988:13990   */\n      0x20\n        /* \"#utility.yul\":13985:13986   */\n      dup2\n        /* \"#utility.yul\":13981:13991   */\n      add\n        /* \"#utility.yul\":13976:13991   */\n      swap1\n      pop\n        /* \"#utility.yul\":13952:14065   */\n      jump(tag_367)\n    tag_369:\n        /* \"#utility.yul\":14083:14089   */\n      dup4\n        /* \"#utility.yul\":14080:14081   */\n      dup2\n        /* \"#utility.yul\":14077:14090   */\n      gt\n        /* \"#utility.yul\":14074:14076   */\n      iszero\n      tag_370\n      jumpi\n        /* \"#utility.yul\":14163:14164   */\n      0x00\n        /* \"#utility.yul\":14154:14160   */\n      dup5\n        /* \"#utility.yul\":14149:14152   */\n      dup5\n        /* \"#utility.yul\":14145:14161   */\n      add\n        /* \"#utility.yul\":14138:14165   */\n      mstore\n        /* \"#utility.yul\":14074:14076   */\n    tag_370:\n        /* \"#utility.yul\":13923:14181   */\n      pop\n      pop\n      pop\n      pop\n      jump\t// out\n        /* \"#utility.yul\":14187:14507   */\n    tag_96:\n        /* \"#utility.yul\":14231:14237   */\n      0x00\n        /* \"#utility.yul\":14268:14269   */\n      0x02\n        /* \"#utility.yul\":14262:14266   */\n      dup3\n        /* \"#utility.yul\":14258:14270   */\n      div\n        /* \"#utility.yul\":14248:14270   */\n      swap1\n      pop\n        /* \"#utility.yul\":14315:14316   */\n      0x01\n        /* \"#utility.yul\":14309:14313   */\n      dup3\n        /* \"#utility.yul\":14305:14317   */\n      and\n        /* \"#utility.yul\":14336:14354   */\n      dup1\n        /* \"#utility.yul\":14326:14328   */\n      tag_372\n      jumpi\n        /* \"#utility.yul\":14392:14396   */\n      0x7f\n        /* \"#utility.yul\":14384:14390   */\n      dup3\n        /* \"#utility.yul\":14380:14397   */\n      and\n        /* \"#utility.yul\":14370:14397   */\n      swap2\n      pop\n        /* \"#utility.yul\":14326:14328   */\n    tag_372:\n        /* \"#utility.yul\":14454:14456   */\n      0x20\n        /* \"#utility.yul\":14446:14452   */\n      dup3\n        /* \"#utility.yul\":14443:14457   */\n      lt\n        /* \"#utility.yul\":14423:14441   */\n      dup2\n        /* \"#utility.yul\":14420:14458   */\n      eq\n        /* \"#utility.yul\":14417:14419   */\n      iszero\n      tag_373\n      jumpi\n        /* \"#utility.yul\":14473:14491   */\n      tag_374\n      tag_375\n      jump\t// in\n    tag_374:\n        /* \"#utility.yul\":14417:14419   */\n    tag_373:\n        /* \"#utility.yul\":14238:14507   */\n      pop\n      swap2\n      swap1\n      pop\n      jump\t// out\n        /* \"#utility.yul\":14513:14693   */\n    tag_358:\n        /* \"#utility.yul\":14561:14638   */\n      0x4e487b7100000000000000000000000000000000000000000000000000000000\n        /* \"#utility.yul\":14558:14559   */\n      0x00\n        /* \"#utility.yul\":14551:14639   */\n      mstore\n        /* \"#utility.yul\":14658:14662   */\n      0x11\n        /* \"#utility.yul\":14655:14656   */\n      0x04\n        /* \"#utility.yul\":14648:14663   */\n      mstore\n        /* \"#utility.yul\":14682:14686   */\n      0x24\n        /* \"#utility.yul\":14679:14680   */\n      0x00\n        /* \"#utility.yul\":14672:14687   */\n      revert\n        /* \"#utility.yul\":14699:14879   */\n    tag_375:\n        /* \"#utility.yul\":14747:14824   */\n      0x4e487b7100000000000000000000000000000000000000000000000000000000\n        /* \"#utility.yul\":14744:14745   */\n      0x00\n        /* \"#utility.yul\":14737:14825   */\n      mstore\n        /* \"#utility.yul\":14844:14848   */\n      0x22\n        /* \"#utility.yul\":14841:14842   */\n      0x04\n        /* \"#utility.yul\":14834:14849   */\n      mstore\n        /* \"#utility.yul\":14868:14872   */\n      0x24\n        /* \"#utility.yul\":14865:14866   */\n      0x00\n        /* \"#utility.yul\":14858:14873   */\n      revert\n        /* \"#utility.yul\":14885:14987   */\n    tag_255:\n        /* \"#utility.yul\":14926:14932   */\n      0x00\n        /* \"#utility.yul\":14977:14979   */\n      0x1f\n        /* \"#utility.yul\":14973:14980   */\n      not\n        /* \"#utility.yul\":14968:14970   */\n      0x1f\n        /* \"#utility.yul\":14961:14966   */\n      dup4\n        /* \"#utility.yul\":14957:14971   */\n      add\n        /* \"#utility.yul\":14953:14981   */\n      and\n        /* \"#utility.yul\":14943:14981   */\n      swap1\n      pop\n        /* \"#utility.yul\":14933:14987   */\n      swap2\n      swap1\n      pop\n      jump\t// out\n        /* \"#utility.yul\":14993:15215   */\n    tag_260:\n        /* \"#utility.yul\":15133:15167   */\n      0x45524332303a207472616e7366657220746f20746865207a65726f2061646472\n        /* \"#utility.yul\":15129:15130   */\n      0x00\n        /* \"#utility.yul\":15121:15127   */\n      dup3\n        /* \"#utility.yul\":15117:15131   */\n      add\n        /* \"#utility.yul\":15110:15168   */\n      mstore\n        /* \"#utility.yul\":15202:15207   */\n      0x6573730000000000000000000000000000000000000000000000000000000000\n        /* \"#utility.yul\":15197:15199   */\n      0x20\n        /* \"#utility.yul\":15189:15195   */\n      dup3\n        /* \"#utility.yul\":15185:15200   */\n      add\n        /* \"#utility.yul\":15178:15208   */\n      mstore\n        /* \"#utility.yul\":15099:15215   */\n      pop\n      jump\t// out\n        /* \"#utility.yul\":15221:15446   */\n    tag_265:\n        /* \"#utility.yul\":15361:15395   */\n      0x4f776e61626c653a206e6577206f776e657220697320746865207a65726f2061\n        /* \"#utility.yul\":15357:15358   */\n      0x00\n        /* \"#utility.yul\":15349:15355   */\n      dup3\n        /* \"#utility.yul\":15345:15359   */\n      add\n        /* \"#utility.yul\":15338:15396   */\n      mstore\n        /* \"#utility.yul\":15430:15438   */\n      0x6464726573730000000000000000000000000000000000000000000000000000\n        /* \"#utility.yul\":15425:15427   */\n      0x20\n        /* \"#utility.yul\":15417:15423   */\n      dup3\n        /* \"#utility.yul\":15413:15428   */\n      add\n        /* \"#utility.yul\":15406:15439   */\n      mstore\n        /* \"#utility.yul\":15327:15446   */\n      pop\n      jump\t// out\n        /* \"#utility.yul\":15452:15673   */\n    tag_270:\n        /* \"#utility.yul\":15592:15626   */\n      0x45524332303a20617070726f766520746f20746865207a65726f206164647265\n        /* \"#utility.yul\":15588:15589   */\n      0x00\n        /* \"#utility.yul\":15580:15586   */\n      dup3\n        /* \"#utility.yul\":15576:15590   */\n      add\n        /* \"#utility.yul\":15569:15627   */\n      mstore\n        /* \"#utility.yul\":15661:15665   */\n      0x7373000000000000000000000000000000000000000000000000000000000000\n        /* \"#utility.yul\":15656:15658   */\n      0x20\n        /* \"#utility.yul\":15648:15654   */\n      dup3\n        /* \"#utility.yul\":15644:15659   */\n      add\n        /* \"#utility.yul\":15637:15666   */\n      mstore\n        /* \"#utility.yul\":15558:15673   */\n      pop\n      jump\t// out\n        /* \"#utility.yul\":15679:15858   */\n    tag_275:\n        /* \"#utility.yul\":15819:15850   */\n      0x45524332303a20696e73756666696369656e7420616c6c6f77616e6365000000\n        /* \"#utility.yul\":15815:15816   */\n      0x00\n        /* \"#utility.yul\":15807:15813   */\n      dup3\n        /* \"#utility.yul\":15803:15817   */\n      add\n        /* \"#utility.yul\":15796:15851   */\n      mstore\n        /* \"#utility.yul\":15785:15858   */\n      pop\n      jump\t// out\n        /* \"#utility.yul\":15864:16089   */\n    tag_280:\n        /* \"#utility.yul\":16004:16038   */\n      0x45524332303a207472616e7366657220616d6f756e7420657863656564732062\n        /* \"#utility.yul\":16000:16001   */\n      0x00\n        /* \"#utility.yul\":15992:15998   */\n      dup3\n        /* \"#utility.yul\":15988:16002   */\n      add\n        /* \"#utility.yul\":15981:16039   */\n      mstore\n        /* \"#utility.yul\":16073:16081   */\n      0x616c616e63650000000000000000000000000000000000000000000000000000\n        /* \"#utility.yul\":16068:16070   */\n      0x20\n        /* \"#utility.yul\":16060:16066   */\n      dup3\n        /* \"#utility.yul\":16056:16071   */\n      add\n        /* \"#utility.yul\":16049:16082   */\n      mstore\n        /* \"#utility.yul\":15970:16089   */\n      pop\n      jump\t// out\n        /* \"#utility.yul\":16095:16277   */\n    tag_285:\n        /* \"#utility.yul\":16235:16269   */\n      0x4f776e61626c653a2063616c6c6572206973206e6f7420746865206f776e6572\n        /* \"#utility.yul\":16231:16232   */\n      0x00\n        /* \"#utility.yul\":16223:16229   */\n      dup3\n        /* \"#utility.yul\":16219:16233   */\n      add\n        /* \"#utility.yul\":16212:16270   */\n      mstore\n        /* \"#utility.yul\":16201:16277   */\n      pop\n      jump\t// out\n        /* \"#utility.yul\":16283:16464   */\n    tag_290:\n        /* \"#utility.yul\":16423:16456   */\n      0x4f6e6c79206d696e746572732063616e20706572666f726d20616374696f6e00\n        /* \"#utility.yul\":16419:16420   */\n      0x00\n        /* \"#utility.yul\":16411:16417   */\n      dup3\n        /* \"#utility.yul\":16407:16421   */\n      add\n        /* \"#utility.yul\":16400:16457   */\n      mstore\n        /* \"#utility.yul\":16389:16464   */\n      pop\n      jump\t// out\n        /* \"#utility.yul\":16470:16694   */\n    tag_295:\n        /* \"#utility.yul\":16610:16644   */\n      0x45524332303a207472616e736665722066726f6d20746865207a65726f206164\n        /* \"#utility.yul\":16606:16607   */\n      0x00\n        /* \"#utility.yul\":16598:16604   */\n      dup3\n        /* \"#utility.yul\":16594:16608   */\n      add\n        /* \"#utility.yul\":16587:16645   */\n      mstore\n        /* \"#utility.yul\":16679:16686   */\n      0x6472657373000000000000000000000000000000000000000000000000000000\n        /* \"#utility.yul\":16674:16676   */\n      0x20\n        /* \"#utility.yul\":16666:16672   */\n      dup3\n        /* \"#utility.yul\":16662:16677   */\n      add\n        /* \"#utility.yul\":16655:16687   */\n      mstore\n        /* \"#utility.yul\":16576:16694   */\n      pop\n      jump\t// out\n        /* \"#utility.yul\":16700:16923   */\n    tag_300:\n        /* \"#utility.yul\":16840:16874   */\n      0x45524332303a20617070726f76652066726f6d20746865207a65726f20616464\n        /* \"#utility.yul\":16836:16837   */\n      0x00\n        /* \"#utility.yul\":16828:16834   */\n      dup3\n        /* \"#utility.yul\":16824:16838   */\n      add\n        /* \"#utility.yul\":16817:16875   */\n      mstore\n        /* \"#utility.yul\":16909:16915   */\n      0x7265737300000000000000000000000000000000000000000000000000000000\n        /* \"#utility.yul\":16904:16906   */\n      0x20\n        /* \"#utility.yul\":16896:16902   */\n      dup3\n        /* \"#utility.yul\":16892:16907   */\n      add\n        /* \"#utility.yul\":16885:16916   */\n      mstore\n        /* \"#utility.yul\":16806:16923   */\n      pop\n      jump\t// out\n        /* \"#utility.yul\":16929:17153   */\n    tag_305:\n        /* \"#utility.yul\":17069:17103   */\n      0x45524332303a2064656372656173656420616c6c6f77616e63652062656c6f77\n        /* \"#utility.yul\":17065:17066   */\n      0x00\n        /* \"#utility.yul\":17057:17063   */\n      dup3\n        /* \"#utility.yul\":17053:17067   */\n      add\n        /* \"#utility.yul\":17046:17104   */\n      mstore\n        /* \"#utility.yul\":17138:17145   */\n      0x207a65726f000000000000000000000000000000000000000000000000000000\n        /* \"#utility.yul\":17133:17135   */\n      0x20\n        /* \"#utility.yul\":17125:17131   */\n      dup3\n        /* \"#utility.yul\":17121:17136   */\n      add\n        /* \"#utility.yul\":17114:17146   */\n      mstore\n        /* \"#utility.yul\":17035:17153   */\n      pop\n      jump\t// out\n        /* \"#utility.yul\":17159:17340   */\n    tag_310:\n        /* \"#utility.yul\":17299:17332   */\n      0x45524332303a206d696e7420746f20746865207a65726f206164647265737300\n        /* \"#utility.yul\":17295:17296   */\n      0x00\n        /* \"#utility.yul\":17287:17293   */\n      dup3\n        /* \"#utility.yul\":17283:17297   */\n      add\n        /* \"#utility.yul\":17276:17333   */\n      mstore\n        /* \"#utility.yul\":17265:17340   */\n      pop\n      jump\t// out\n        /* \"#utility.yul\":17346:17468   */\n    tag_217:\n        /* \"#utility.yul\":17419:17443   */\n      tag_391\n        /* \"#utility.yul\":17437:17442   */\n      dup2\n        /* \"#utility.yul\":17419:17443   */\n      tag_241\n      jump\t// in\n    tag_391:\n        /* \"#utility.yul\":17412:17417   */\n      dup2\n        /* \"#utility.yul\":17409:17444   */\n      eq\n        /* \"#utility.yul\":17399:17401   */\n      tag_392\n      jumpi\n        /* \"#utility.yul\":17458:17459   */\n      0x00\n        /* \"#utility.yul\":17455:17456   */\n      dup1\n        /* \"#utility.yul\":17448:17460   */\n      revert\n        /* \"#utility.yul\":17399:17401   */\n    tag_392:\n        /* \"#utility.yul\":17389:17468   */\n      pop\n      jump\t// out\n        /* \"#utility.yul\":17474:17596   */\n    tag_221:\n        /* \"#utility.yul\":17547:17571   */\n      tag_394\n        /* \"#utility.yul\":17565:17570   */\n      dup2\n        /* \"#utility.yul\":17547:17571   */\n      tag_314\n      jump\t// in\n    tag_394:\n        /* \"#utility.yul\":17540:17545   */\n      dup2\n        /* \"#utility.yul\":17537:17572   */\n      eq\n        /* \"#utility.yul\":17527:17529   */\n      tag_395\n      jumpi\n        /* \"#utility.yul\":17586:17587   */\n      0x00\n        /* \"#utility.yul\":17583:17584   */\n      dup1\n        /* \"#utility.yul\":17576:17588   */\n      revert\n        /* \"#utility.yul\":17527:17529   */\n    tag_395:\n        /* \"#utility.yul\":17517:17596   */\n      pop\n      jump\t// out\n\n    auxdata: 0xa2646970667358221220eb60515345aa63f050a51df53a203c03327d79d799fd3d941c5d3089a47a9dc664736f6c63430008040033\n}\n",
				"bytecode": {
					"linkReferences": {},
					"object": "60806040523480156200001157600080fd5b506040518060400160405280600a81526020017f466c6f776572436f696e000000000000000000000000000000000000000000008152506040518060400160405280600a81526020017f464c4f574552434f494e0000000000000000000000000000000000000000000081525081600390805190602001906200009692919062000309565b508060049080519060200190620000af92919062000309565b505050620000d2620000c6620000e960201b60201c565b620000f160201b60201c565b620000e333620001b760201b60201c565b62000539565b600033905090565b6000600560009054906101000a900473ffffffffffffffffffffffffffffffffffffffff16905081600560006101000a81548173ffffffffffffffffffffffffffffffffffffffff021916908373ffffffffffffffffffffffffffffffffffffffff1602179055508173ffffffffffffffffffffffffffffffffffffffff168173ffffffffffffffffffffffffffffffffffffffff167f8be0079c531659141344cd1fd0a4f28419497f9722a3daafe3b4186f6b6457e060405160405180910390a35050565b620001c76200024e60201b60201c565b600073ffffffffffffffffffffffffffffffffffffffff168173ffffffffffffffffffffffffffffffffffffffff1614156200023a576040517f08c379a0000000000000000000000000000000000000000000000000000000008152600401620002319062000407565b60405180910390fd5b6200024b81620000f160201b60201c565b50565b6200025e620000e960201b60201c565b73ffffffffffffffffffffffffffffffffffffffff1662000284620002df60201b60201c565b73ffffffffffffffffffffffffffffffffffffffff1614620002dd576040517f08c379a0000000000000000000000000000000000000000000000000000000008152600401620002d49062000429565b60405180910390fd5b565b6000600560009054906101000a900473ffffffffffffffffffffffffffffffffffffffff16905090565b82805462000317906200045c565b90600052602060002090601f0160209004810192826200033b576000855562000387565b82601f106200035657805160ff191683800117855562000387565b8280016001018555821562000387579182015b828111156200038657825182559160200191906001019062000369565b5b5090506200039691906200039a565b5090565b5b80821115620003b55760008160009055506001016200039b565b5090565b6000620003c86026836200044b565b9150620003d582620004c1565b604082019050919050565b6000620003ef6020836200044b565b9150620003fc8262000510565b602082019050919050565b600060208201905081810360008301526200042281620003b9565b9050919050565b600060208201905081810360008301526200044481620003e0565b9050919050565b600082825260208201905092915050565b600060028204905060018216806200047557607f821691505b602082108114156200048c576200048b62000492565b5b50919050565b7f4e487b7100000000000000000000000000000000000000000000000000000000600052602260045260246000fd5b7f4f776e61626c653a206e6577206f776e657220697320746865207a65726f206160008201527f6464726573730000000000000000000000000000000000000000000000000000602082015250565b7f4f776e61626c653a2063616c6c6572206973206e6f7420746865206f776e6572600082015250565b611a6380620005496000396000f3fe608060405234801561001057600080fd5b50600436106101165760003560e01c8063715018a6116100a2578063a457c2d711610071578063a457c2d7146102cf578063a9059cbb146102ff578063dd62ed3e1461032f578063f2fde38b1461035f578063f46eccc41461037b57610116565b8063715018a61461026d5780638da5cb5b1461027757806395d89b4114610295578063983b2d56146102b357610116565b80633092afd5116100e95780633092afd5146101b7578063313ce567146101d357806339509351146101f157806340c10f191461022157806370a082311461023d57610116565b806306fdde031461011b578063095ea7b31461013957806318160ddd1461016957806323b872dd14610187575b600080fd5b6101236103ab565b60405161013091906113df565b60405180910390f35b610153600480360381019061014e9190611177565b61043d565b60405161016091906113c4565b60405180910390f35b610171610460565b60405161017e9190611561565b60405180910390f35b6101a1600480360381019061019c9190611128565b61046a565b6040516101ae91906113c4565b60405180910390f35b6101d160048036038101906101cc91906110c3565b610499565b005b6101db6104fc565b6040516101e8919061157c565b60405180910390f35b61020b60048036038101906102069190611177565b610505565b60405161021891906113c4565b60405180910390f35b61023b60048036038101906102369190611177565b61053c565b005b610257600480360381019061025291906110c3565b6105dd565b6040516102649190611561565b60405180910390f35b610275610625565b005b61027f610639565b60405161028c91906113a9565b60405180910390f35b61029d610663565b6040516102aa91906113df565b60405180910390f35b6102cd60048036038101906102c891906110c3565b6106f5565b005b6102e960048036038101906102e49190611177565b610758565b6040516102f691906113c4565b60405180910390f35b61031960048036038101906103149190611177565b6107cf565b60405161032691906113c4565b60405180910390f35b610349600480360381019061034491906110ec565b6107f2565b6040516103569190611561565b60405180910390f35b610379600480360381019061037491906110c3565b610879565b005b610395600480360381019061039091906110c3565b6108fd565b6040516103a291906113c4565b60405180910390f35b6060600380546103ba90611691565b80601f01602080910402602001604051908101604052809291908181526020018280546103e690611691565b80156104335780601f1061040857610100808354040283529160200191610433565b820191906000526020600020905b81548152906001019060200180831161041657829003601f168201915b5050505050905090565b60008061044861091d565b9050610455818585610925565b600191505092915050565b6000600254905090565b60008061047561091d565b9050610482858285610af0565b61048d858585610b7c565b60019150509392505050565b6104a1610df4565b6000600660008373ffffffffffffffffffffffffffffffffffffffff1673ffffffffffffffffffffffffffffffffffffffff16815260200190815260200160002060006101000a81548160ff02191690831515021790555050565b60006012905090565b60008061051061091d565b905061053181858561052285896107f2565b61052c91906115b3565b610925565b600191505092915050565b60011515600660003373ffffffffffffffffffffffffffffffffffffffff1673ffffffffffffffffffffffffffffffffffffffff16815260200190815260200160002060009054906101000a900460ff161515146105cf576040517f08c379a00000000000000000000000000000000000000000000000000000000081526004016105c6906114c1565b60405180910390fd5b6105d98282610e72565b5050565b60008060008373ffffffffffffffffffffffffffffffffffffffff1673ffffffffffffffffffffffffffffffffffffffff168152602001908152602001600020549050919050565b61062d610df4565b6106376000610fc9565b565b6000600560009054906101000a900473ffffffffffffffffffffffffffffffffffffffff16905090565b60606004805461067290611691565b80601f016020809104026020016040519081016040528092919081815260200182805461069e90611691565b80156106eb5780601f106106c0576101008083540402835291602001916106eb565b820191906000526020600020905b8154815290600101906020018083116106ce57829003601f168201915b5050505050905090565b6106fd610df4565b6001600660008373ffffffffffffffffffffffffffffffffffffffff1673ffffffffffffffffffffffffffffffffffffffff16815260200190815260200160002060006101000a81548160ff02191690831515021790555050565b60008061076361091d565b9050600061077182866107f2565b9050838110156107b6576040517f08c379a00000000000000000000000000000000000000000000000000000000081526004016107ad90611521565b60405180910390fd5b6107c38286868403610925565b60019250505092915050565b6000806107da61091d565b90506107e7818585610b7c565b600191505092915050565b6000600160008473ffffffffffffffffffffffffffffffffffffffff1673ffffffffffffffffffffffffffffffffffffffff16815260200190815260200160002060008373ffffffffffffffffffffffffffffffffffffffff1673ffffffffffffffffffffffffffffffffffffffff16815260200190815260200160002054905092915050565b610881610df4565b600073ffffffffffffffffffffffffffffffffffffffff168173ffffffffffffffffffffffffffffffffffffffff1614156108f1576040517f08c379a00000000000000000000000000000000000000000000000000000000081526004016108e890611421565b60405180910390fd5b6108fa81610fc9565b50565b60066020528060005260406000206000915054906101000a900460ff1681565b600033905090565b600073ffffffffffffffffffffffffffffffffffffffff168373ffffffffffffffffffffffffffffffffffffffff161415610995576040517f08c379a000000000000000000000000000000000000000000000000000000000815260040161098c90611501565b60405180910390fd5b600073ffffffffffffffffffffffffffffffffffffffff168273ffffffffffffffffffffffffffffffffffffffff161415610a05576040517f08c379a00000000000000000000000000000000000000000000000000000000081526004016109fc90611441565b60405180910390fd5b80600160008573ffffffffffffffffffffffffffffffffffffffff1673ffffffffffffffffffffffffffffffffffffffff16815260200190815260200160002060008473ffffffffffffffffffffffffffffffffffffffff1673ffffffffffffffffffffffffffffffffffffffff168152602001908152602001600020819055508173ffffffffffffffffffffffffffffffffffffffff168373ffffffffffffffffffffffffffffffffffffffff167f8c5be1e5ebec7d5bd14f71427d1e84f3dd0314c0f7b2291e5b200ac8c7c3b92583604051610ae39190611561565b60405180910390a3505050565b6000610afc84846107f2565b90507fffffffffffffffffffffffffffffffffffffffffffffffffffffffffffffffff8114610b765781811015610b68576040517f08c379a0000000000000000000000000000000000000000000000000000000008152600401610b5f90611461565b60405180910390fd5b610b758484848403610925565b5b50505050565b600073ffffffffffffffffffffffffffffffffffffffff168373ffffffffffffffffffffffffffffffffffffffff161415610bec576040517f08c379a0000000000000000000000000000000000000000000000000000000008152600401610be3906114e1565b60405180910390fd5b600073ffffffffffffffffffffffffffffffffffffffff168273ffffffffffffffffffffffffffffffffffffffff161415610c5c576040517f08c379a0000000000000000000000000000000000000000000000000000000008152600401610c5390611401565b60405180910390fd5b610c6783838361108f565b60008060008573ffffffffffffffffffffffffffffffffffffffff1673ffffffffffffffffffffffffffffffffffffffff16815260200190815260200160002054905081811015610ced576040517f08c379a0000000000000000000000000000000000000000000000000000000008152600401610ce490611481565b60405180910390fd5b8181036000808673ffffffffffffffffffffffffffffffffffffffff1673ffffffffffffffffffffffffffffffffffffffff16815260200190815260200160002081905550816000808573ffffffffffffffffffffffffffffffffffffffff1673ffffffffffffffffffffffffffffffffffffffff168152602001908152602001600020600082825401925050819055508273ffffffffffffffffffffffffffffffffffffffff168473ffffffffffffffffffffffffffffffffffffffff167fddf252ad1be2c89b69c2b068fc378daa952ba7f163c4a11628f55a4df523b3ef84604051610ddb9190611561565b60405180910390a3610dee848484611094565b50505050565b610dfc61091d565b73ffffffffffffffffffffffffffffffffffffffff16610e1a610639565b73ffffffffffffffffffffffffffffffffffffffff1614610e70576040517f08c379a0000000000000000000000000000000000000000000000000000000008152600401610e67906114a1565b60405180910390fd5b565b600073ffffffffffffffffffffffffffffffffffffffff168273ffffffffffffffffffffffffffffffffffffffff161415610ee2576040517f08c379a0000000000000000000000000000000000000000000000000000000008152600401610ed990611541565b60405180910390fd5b610eee6000838361108f565b8060026000828254610f0091906115b3565b92505081905550806000808473ffffffffffffffffffffffffffffffffffffffff1673ffffffffffffffffffffffffffffffffffffffff168152602001908152602001600020600082825401925050819055508173ffffffffffffffffffffffffffffffffffffffff16600073ffffffffffffffffffffffffffffffffffffffff167fddf252ad1be2c89b69c2b068fc378daa952ba7f163c4a11628f55a4df523b3ef83604051610fb19190611561565b60405180910390a3610fc560008383611094565b5050565b6000600560009054906101000a900473ffffffffffffffffffffffffffffffffffffffff16905081600560006101000a81548173ffffffffffffffffffffffffffffffffffffffff021916908373ffffffffffffffffffffffffffffffffffffffff1602179055508173ffffffffffffffffffffffffffffffffffffffff168173ffffffffffffffffffffffffffffffffffffffff167f8be0079c531659141344cd1fd0a4f28419497f9722a3daafe3b4186f6b6457e060405160405180910390a35050565b505050565b505050565b6000813590506110a8816119ff565b92915050565b6000813590506110bd81611a16565b92915050565b6000602082840312156110d557600080fd5b60006110e384828501611099565b91505092915050565b600080604083850312156110ff57600080fd5b600061110d85828601611099565b925050602061111e85828601611099565b9150509250929050565b60008060006060848603121561113d57600080fd5b600061114b86828701611099565b935050602061115c86828701611099565b925050604061116d868287016110ae565b9150509250925092565b6000806040838503121561118a57600080fd5b600061119885828601611099565b92505060206111a9858286016110ae565b9150509250929050565b6111bc81611609565b82525050565b6111cb8161161b565b82525050565b60006111dc82611597565b6111e681856115a2565b93506111f681856020860161165e565b6111ff81611721565b840191505092915050565b60006112176023836115a2565b915061122282611732565b604082019050919050565b600061123a6026836115a2565b915061124582611781565b604082019050919050565b600061125d6022836115a2565b9150611268826117d0565b604082019050919050565b6000611280601d836115a2565b915061128b8261181f565b602082019050919050565b60006112a36026836115a2565b91506112ae82611848565b604082019050919050565b60006112c66020836115a2565b91506112d182611897565b602082019050919050565b60006112e9601f836115a2565b91506112f4826118c0565b602082019050919050565b600061130c6025836115a2565b9150611317826118e9565b604082019050919050565b600061132f6024836115a2565b915061133a82611938565b604082019050919050565b60006113526025836115a2565b915061135d82611987565b604082019050919050565b6000611375601f836115a2565b9150611380826119d6565b602082019050919050565b61139481611647565b82525050565b6113a381611651565b82525050565b60006020820190506113be60008301846111b3565b92915050565b60006020820190506113d960008301846111c2565b92915050565b600060208201905081810360008301526113f981846111d1565b905092915050565b6000602082019050818103600083015261141a8161120a565b9050919050565b6000602082019050818103600083015261143a8161122d565b9050919050565b6000602082019050818103600083015261145a81611250565b9050919050565b6000602082019050818103600083015261147a81611273565b9050919050565b6000602082019050818103600083015261149a81611296565b9050919050565b600060208201905081810360008301526114ba816112b9565b9050919050565b600060208201905081810360008301526114da816112dc565b9050919050565b600060208201905081810360008301526114fa816112ff565b9050919050565b6000602082019050818103600083015261151a81611322565b9050919050565b6000602082019050818103600083015261153a81611345565b9050919050565b6000602082019050818103600083015261155a81611368565b9050919050565b6000602082019050611576600083018461138b565b92915050565b6000602082019050611591600083018461139a565b92915050565b600081519050919050565b600082825260208201905092915050565b60006115be82611647565b91506115c983611647565b9250827fffffffffffffffffffffffffffffffffffffffffffffffffffffffffffffffff038211156115fe576115fd6116c3565b5b828201905092915050565b600061161482611627565b9050919050565b60008115159050919050565b600073ffffffffffffffffffffffffffffffffffffffff82169050919050565b6000819050919050565b600060ff82169050919050565b60005b8381101561167c578082015181840152602081019050611661565b8381111561168b576000848401525b50505050565b600060028204905060018216806116a957607f821691505b602082108114156116bd576116bc6116f2565b5b50919050565b7f4e487b7100000000000000000000000000000000000000000000000000000000600052601160045260246000fd5b7f4e487b7100000000000000000000000000000000000000000000000000000000600052602260045260246000fd5b6000601f19601f8301169050919050565b7f45524332303a207472616e7366657220746f20746865207a65726f206164647260008201527f6573730000000000000000000000000000000000000000000000000000000000602082015250565b7f4f776e61626c653a206e6577206f776e657220697320746865207a65726f206160008201527f6464726573730000000000000000000000000000000000000000000000000000602082015250565b7f45524332303a20617070726f766520746f20746865207a65726f20616464726560008201527f7373000000000000000000000000000000000000000000000000000000000000602082015250565b7f45524332303a20696e73756666696369656e7420616c6c6f77616e6365000000600082015250565b7f45524332303a207472616e7366657220616d6f756e742065786365656473206260008201527f616c616e63650000000000000000000000000000000000000000000000000000602082015250565b7f4f776e61626c653a2063616c6c6572206973206e6f7420746865206f776e6572600082015250565b7f4f6e6c79206d696e746572732063616e20706572666f726d20616374696f6e00600082015250565b7f45524332303a207472616e736665722066726f6d20746865207a65726f20616460008201527f6472657373000000000000000000000000000000000000000000000000000000602082015250565b7f45524332303a20617070726f76652066726f6d20746865207a65726f2061646460008201527f7265737300000000000000000000000000000000000000000000000000000000602082015250565b7f45524332303a2064656372656173656420616c6c6f77616e63652062656c6f7760008201527f207a65726f000000000000000000000000000000000000000000000000000000602082015250565b7f45524332303a206d696e7420746f20746865207a65726f206164647265737300600082015250565b611a0881611609565b8114611a1357600080fd5b50565b611a1f81611647565b8114611a2a57600080fd5b5056fea2646970667358221220eb60515345aa63f050a51df53a203c03327d79d799fd3d941c5d3089a47a9dc664736f6c63430008040033",
					"opcodes": "PUSH1 0x80 PUSH1 0x40 MSTORE CALLVALUE DUP1 ISZERO PUSH3 0x11 JUMPI PUSH1 0x0 DUP1 REVERT JUMPDEST POP PUSH1 0x40 MLOAD DUP1 PUSH1 0x40 ADD PUSH1 0x40 MSTORE DUP1 PUSH1 0xA DUP2 MSTORE PUSH1 0x20 ADD PUSH32 0x466C6F776572436F696E00000000000000000000000000000000000000000000 DUP2 MSTORE POP PUSH1 0x40 MLOAD DUP1 PUSH1 0x40 ADD PUSH1 0x40 MSTORE DUP1 PUSH1 0xA DUP2 MSTORE PUSH1 0x20 ADD PUSH32 0x464C4F574552434F494E00000000000000000000000000000000000000000000 DUP2 MSTORE POP DUP2 PUSH1 0x3 SWAP1 DUP1 MLOAD SWAP1 PUSH1 0x20 ADD SWAP1 PUSH3 0x96 SWAP3 SWAP2 SWAP1 PUSH3 0x309 JUMP JUMPDEST POP DUP1 PUSH1 0x4 SWAP1 DUP1 MLOAD SWAP1 PUSH1 0x20 ADD SWAP1 PUSH3 0xAF SWAP3 SWAP2 SWAP1 PUSH3 0x309 JUMP JUMPDEST POP POP POP PUSH3 0xD2 PUSH3 0xC6 PUSH3 0xE9 PUSH1 0x20 SHL PUSH1 0x20 SHR JUMP JUMPDEST PUSH3 0xF1 PUSH1 0x20 SHL PUSH1 0x20 SHR JUMP JUMPDEST PUSH3 0xE3 CALLER PUSH3 0x1B7 PUSH1 0x20 SHL PUSH1 0x20 SHR JUMP JUMPDEST PUSH3 0x539 JUMP JUMPDEST PUSH1 0x0 CALLER SWAP1 POP SWAP1 JUMP JUMPDEST PUSH1 0x0 PUSH1 0x5 PUSH1 0x0 SWAP1 SLOAD SWAP1 PUSH2 0x100 EXP SWAP1 DIV PUSH20 0xFFFFFFFFFFFFFFFFFFFFFFFFFFFFFFFFFFFFFFFF AND SWAP1 POP DUP2 PUSH1 0x5 PUSH1 0x0 PUSH2 0x100 EXP DUP2 SLOAD DUP2 PUSH20 0xFFFFFFFFFFFFFFFFFFFFFFFFFFFFFFFFFFFFFFFF MUL NOT AND SWAP1 DUP4 PUSH20 0xFFFFFFFFFFFFFFFFFFFFFFFFFFFFFFFFFFFFFFFF AND MUL OR SWAP1 SSTORE POP DUP2 PUSH20 0xFFFFFFFFFFFFFFFFFFFFFFFFFFFFFFFFFFFFFFFF AND DUP2 PUSH20 0xFFFFFFFFFFFFFFFFFFFFFFFFFFFFFFFFFFFFFFFF AND PUSH32 0x8BE0079C531659141344CD1FD0A4F28419497F9722A3DAAFE3B4186F6B6457E0 PUSH1 0x40 MLOAD PUSH1 0x40 MLOAD DUP1 SWAP2 SUB SWAP1 LOG3 POP POP JUMP JUMPDEST PUSH3 0x1C7 PUSH3 0x24E PUSH1 0x20 SHL PUSH1 0x20 SHR JUMP JUMPDEST PUSH1 0x0 PUSH20 0xFFFFFFFFFFFFFFFFFFFFFFFFFFFFFFFFFFFFFFFF AND DUP2 PUSH20 0xFFFFFFFFFFFFFFFFFFFFFFFFFFFFFFFFFFFFFFFF AND EQ ISZERO PUSH3 0x23A JUMPI PUSH1 0x40 MLOAD PUSH32 0x8C379A000000000000000000000000000000000000000000000000000000000 DUP2 MSTORE PUSH1 0x4 ADD PUSH3 0x231 SWAP1 PUSH3 0x407 JUMP JUMPDEST PUSH1 0x40 MLOAD DUP1 SWAP2 SUB SWAP1 REVERT JUMPDEST PUSH3 0x24B DUP2 PUSH3 0xF1 PUSH1 0x20 SHL PUSH1 0x20 SHR JUMP JUMPDEST POP JUMP JUMPDEST PUSH3 0x25E PUSH3 0xE9 PUSH1 0x20 SHL PUSH1 0x20 SHR JUMP JUMPDEST PUSH20 0xFFFFFFFFFFFFFFFFFFFFFFFFFFFFFFFFFFFFFFFF AND PUSH3 0x284 PUSH3 0x2DF PUSH1 0x20 SHL PUSH1 0x20 SHR JUMP JUMPDEST PUSH20 0xFFFFFFFFFFFFFFFFFFFFFFFFFFFFFFFFFFFFFFFF AND EQ PUSH3 0x2DD JUMPI PUSH1 0x40 MLOAD PUSH32 0x8C379A000000000000000000000000000000000000000000000000000000000 DUP2 MSTORE PUSH1 0x4 ADD PUSH3 0x2D4 SWAP1 PUSH3 0x429 JUMP JUMPDEST PUSH1 0x40 MLOAD DUP1 SWAP2 SUB SWAP1 REVERT JUMPDEST JUMP JUMPDEST PUSH1 0x0 PUSH1 0x5 PUSH1 0x0 SWAP1 SLOAD SWAP1 PUSH2 0x100 EXP SWAP1 DIV PUSH20 0xFFFFFFFFFFFFFFFFFFFFFFFFFFFFFFFFFFFFFFFF AND SWAP1 POP SWAP1 JUMP JUMPDEST DUP3 DUP1 SLOAD PUSH3 0x317 SWAP1 PUSH3 0x45C JUMP JUMPDEST SWAP1 PUSH1 0x0 MSTORE PUSH1 0x20 PUSH1 0x0 KECCAK256 SWAP1 PUSH1 0x1F ADD PUSH1 0x20 SWAP1 DIV DUP2 ADD SWAP3 DUP3 PUSH3 0x33B JUMPI PUSH1 0x0 DUP6 SSTORE PUSH3 0x387 JUMP JUMPDEST DUP3 PUSH1 0x1F LT PUSH3 0x356 JUMPI DUP1 MLOAD PUSH1 0xFF NOT AND DUP4 DUP1 ADD OR DUP6 SSTORE PUSH3 0x387 JUMP JUMPDEST DUP3 DUP1 ADD PUSH1 0x1 ADD DUP6 SSTORE DUP3 ISZERO PUSH3 0x387 JUMPI SWAP2 DUP3 ADD JUMPDEST DUP3 DUP2 GT ISZERO PUSH3 0x386 JUMPI DUP3 MLOAD DUP3 SSTORE SWAP2 PUSH1 0x20 ADD SWAP2 SWAP1 PUSH1 0x1 ADD SWAP1 PUSH3 0x369 JUMP JUMPDEST JUMPDEST POP SWAP1 POP PUSH3 0x396 SWAP2 SWAP1 PUSH3 0x39A JUMP JUMPDEST POP SWAP1 JUMP JUMPDEST JUMPDEST DUP1 DUP3 GT ISZERO PUSH3 0x3B5 JUMPI PUSH1 0x0 DUP2 PUSH1 0x0 SWAP1 SSTORE POP PUSH1 0x1 ADD PUSH3 0x39B JUMP JUMPDEST POP SWAP1 JUMP JUMPDEST PUSH1 0x0 PUSH3 0x3C8 PUSH1 0x26 DUP4 PUSH3 0x44B JUMP JUMPDEST SWAP2 POP PUSH3 0x3D5 DUP3 PUSH3 0x4C1 JUMP JUMPDEST PUSH1 0x40 DUP3 ADD SWAP1 POP SWAP2 SWAP1 POP JUMP JUMPDEST PUSH1 0x0 PUSH3 0x3EF PUSH1 0x20 DUP4 PUSH3 0x44B JUMP JUMPDEST SWAP2 POP PUSH3 0x3FC DUP3 PUSH3 0x510 JUMP JUMPDEST PUSH1 0x20 DUP3 ADD SWAP1 POP SWAP2 SWAP1 POP JUMP JUMPDEST PUSH1 0x0 PUSH1 0x20 DUP3 ADD SWAP1 POP DUP2 DUP2 SUB PUSH1 0x0 DUP4 ADD MSTORE PUSH3 0x422 DUP2 PUSH3 0x3B9 JUMP JUMPDEST SWAP1 POP SWAP2 SWAP1 POP JUMP JUMPDEST PUSH1 0x0 PUSH1 0x20 DUP3 ADD SWAP1 POP DUP2 DUP2 SUB PUSH1 0x0 DUP4 ADD MSTORE PUSH3 0x444 DUP2 PUSH3 0x3E0 JUMP JUMPDEST SWAP1 POP SWAP2 SWAP1 POP JUMP JUMPDEST PUSH1 0x0 DUP3 DUP3 MSTORE PUSH1 0x20 DUP3 ADD SWAP1 POP SWAP3 SWAP2 POP POP JUMP JUMPDEST PUSH1 0x0 PUSH1 0x2 DUP3 DIV SWAP1 POP PUSH1 0x1 DUP3 AND DUP1 PUSH3 0x475 JUMPI PUSH1 0x7F DUP3 AND SWAP2 POP JUMPDEST PUSH1 0x20 DUP3 LT DUP2 EQ ISZERO PUSH3 0x48C JUMPI PUSH3 0x48B PUSH3 0x492 JUMP JUMPDEST JUMPDEST POP SWAP2 SWAP1 POP JUMP JUMPDEST PUSH32 0x4E487B7100000000000000000000000000000000000000000000000000000000 PUSH1 0x0 MSTORE PUSH1 0x22 PUSH1 0x4 MSTORE PUSH1 0x24 PUSH1 0x0 REVERT JUMPDEST PUSH32 0x4F776E61626C653A206E6577206F776E657220697320746865207A65726F2061 PUSH1 0x0 DUP3 ADD MSTORE PUSH32 0x6464726573730000000000000000000000000000000000000000000000000000 PUSH1 0x20 DUP3 ADD MSTORE POP JUMP JUMPDEST PUSH32 0x4F776E61626C653A2063616C6C6572206973206E6F7420746865206F776E6572 PUSH1 0x0 DUP3 ADD MSTORE POP JUMP JUMPDEST PUSH2 0x1A63 DUP1 PUSH3 0x549 PUSH1 0x0 CODECOPY PUSH1 0x0 RETURN INVALID PUSH1 0x80 PUSH1 0x40 MSTORE CALLVALUE DUP1 ISZERO PUSH2 0x10 JUMPI PUSH1 0x0 DUP1 REVERT JUMPDEST POP PUSH1 0x4 CALLDATASIZE LT PUSH2 0x116 JUMPI PUSH1 0x0 CALLDATALOAD PUSH1 0xE0 SHR DUP1 PUSH4 0x715018A6 GT PUSH2 0xA2 JUMPI DUP1 PUSH4 0xA457C2D7 GT PUSH2 0x71 JUMPI DUP1 PUSH4 0xA457C2D7 EQ PUSH2 0x2CF JUMPI DUP1 PUSH4 0xA9059CBB EQ PUSH2 0x2FF JUMPI DUP1 PUSH4 0xDD62ED3E EQ PUSH2 0x32F JUMPI DUP1 PUSH4 0xF2FDE38B EQ PUSH2 0x35F JUMPI DUP1 PUSH4 0xF46ECCC4 EQ PUSH2 0x37B JUMPI PUSH2 0x116 JUMP JUMPDEST DUP1 PUSH4 0x715018A6 EQ PUSH2 0x26D JUMPI DUP1 PUSH4 0x8DA5CB5B EQ PUSH2 0x277 JUMPI DUP1 PUSH4 0x95D89B41 EQ PUSH2 0x295 JUMPI DUP1 PUSH4 0x983B2D56 EQ PUSH2 0x2B3 JUMPI PUSH2 0x116 JUMP JUMPDEST DUP1 PUSH4 0x3092AFD5 GT PUSH2 0xE9 JUMPI DUP1 PUSH4 0x3092AFD5 EQ PUSH2 0x1B7 JUMPI DUP1 PUSH4 0x313CE567 EQ PUSH2 0x1D3 JUMPI DUP1 PUSH4 0x39509351 EQ PUSH2 0x1F1 JUMPI DUP1 PUSH4 0x40C10F19 EQ PUSH2 0x221 JUMPI DUP1 PUSH4 0x70A08231 EQ PUSH2 0x23D JUMPI PUSH2 0x116 JUMP JUMPDEST DUP1 PUSH4 0x6FDDE03 EQ PUSH2 0x11B JUMPI DUP1 PUSH4 0x95EA7B3 EQ PUSH2 0x139 JUMPI DUP1 PUSH4 0x18160DDD EQ PUSH2 0x169 JUMPI DUP1 PUSH4 0x23B872DD EQ PUSH2 0x187 JUMPI JUMPDEST PUSH1 0x0 DUP1 REVERT JUMPDEST PUSH2 0x123 PUSH2 0x3AB JUMP JUMPDEST PUSH1 0x40 MLOAD PUSH2 0x130 SWAP2 SWAP1 PUSH2 0x13DF JUMP JUMPDEST PUSH1 0x40 MLOAD DUP1 SWAP2 SUB SWAP1 RETURN JUMPDEST PUSH2 0x153 PUSH1 0x4 DUP1 CALLDATASIZE SUB DUP2 ADD SWAP1 PUSH2 0x14E SWAP2 SWAP1 PUSH2 0x1177 JUMP JUMPDEST PUSH2 0x43D JUMP JUMPDEST PUSH1 0x40 MLOAD PUSH2 0x160 SWAP2 SWAP1 PUSH2 0x13C4 JUMP JUMPDEST PUSH1 0x40 MLOAD DUP1 SWAP2 SUB SWAP1 RETURN JUMPDEST PUSH2 0x171 PUSH2 0x460 JUMP JUMPDEST PUSH1 0x40 MLOAD PUSH2 0x17E SWAP2 SWAP1 PUSH2 0x1561 JUMP JUMPDEST PUSH1 0x40 MLOAD DUP1 SWAP2 SUB SWAP1 RETURN JUMPDEST PUSH2 0x1A1 PUSH1 0x4 DUP1 CALLDATASIZE SUB DUP2 ADD SWAP1 PUSH2 0x19C SWAP2 SWAP1 PUSH2 0x1128 JUMP JUMPDEST PUSH2 0x46A JUMP JUMPDEST PUSH1 0x40 MLOAD PUSH2 0x1AE SWAP2 SWAP1 PUSH2 0x13C4 JUMP JUMPDEST PUSH1 0x40 MLOAD DUP1 SWAP2 SUB SWAP1 RETURN JUMPDEST PUSH2 0x1D1 PUSH1 0x4 DUP1 CALLDATASIZE SUB DUP2 ADD SWAP1 PUSH2 0x1CC SWAP2 SWAP1 PUSH2 0x10C3 JUMP JUMPDEST PUSH2 0x499 JUMP JUMPDEST STOP JUMPDEST PUSH2 0x1DB PUSH2 0x4FC JUMP JUMPDEST PUSH1 0x40 MLOAD PUSH2 0x1E8 SWAP2 SWAP1 PUSH2 0x157C JUMP JUMPDEST PUSH1 0x40 MLOAD DUP1 SWAP2 SUB SWAP1 RETURN JUMPDEST PUSH2 0x20B PUSH1 0x4 DUP1 CALLDATASIZE SUB DUP2 ADD SWAP1 PUSH2 0x206 SWAP2 SWAP1 PUSH2 0x1177 JUMP JUMPDEST PUSH2 0x505 JUMP JUMPDEST PUSH1 0x40 MLOAD PUSH2 0x218 SWAP2 SWAP1 PUSH2 0x13C4 JUMP JUMPDEST PUSH1 0x40 MLOAD DUP1 SWAP2 SUB SWAP1 RETURN JUMPDEST PUSH2 0x23B PUSH1 0x4 DUP1 CALLDATASIZE SUB DUP2 ADD SWAP1 PUSH2 0x236 SWAP2 SWAP1 PUSH2 0x1177 JUMP JUMPDEST PUSH2 0x53C JUMP JUMPDEST STOP JUMPDEST PUSH2 0x257 PUSH1 0x4 DUP1 CALLDATASIZE SUB DUP2 ADD SWAP1 PUSH2 0x252 SWAP2 SWAP1 PUSH2 0x10C3 JUMP JUMPDEST PUSH2 0x5DD JUMP JUMPDEST PUSH1 0x40 MLOAD PUSH2 0x264 SWAP2 SWAP1 PUSH2 0x1561 JUMP JUMPDEST PUSH1 0x40 MLOAD DUP1 SWAP2 SUB SWAP1 RETURN JUMPDEST PUSH2 0x275 PUSH2 0x625 JUMP JUMPDEST STOP JUMPDEST PUSH2 0x27F PUSH2 0x639 JUMP JUMPDEST PUSH1 0x40 MLOAD PUSH2 0x28C SWAP2 SWAP1 PUSH2 0x13A9 JUMP JUMPDEST PUSH1 0x40 MLOAD DUP1 SWAP2 SUB SWAP1 RETURN JUMPDEST PUSH2 0x29D PUSH2 0x663 JUMP JUMPDEST PUSH1 0x40 MLOAD PUSH2 0x2AA SWAP2 SWAP1 PUSH2 0x13DF JUMP JUMPDEST PUSH1 0x40 MLOAD DUP1 SWAP2 SUB SWAP1 RETURN JUMPDEST PUSH2 0x2CD PUSH1 0x4 DUP1 CALLDATASIZE SUB DUP2 ADD SWAP1 PUSH2 0x2C8 SWAP2 SWAP1 PUSH2 0x10C3 JUMP JUMPDEST PUSH2 0x6F5 JUMP JUMPDEST STOP JUMPDEST PUSH2 0x2E9 PUSH1 0x4 DUP1 CALLDATASIZE SUB DUP2 ADD SWAP1 PUSH2 0x2E4 SWAP2 SWAP1 PUSH2 0x1177 JUMP JUMPDEST PUSH2 0x758 JUMP JUMPDEST PUSH1 0x40 MLOAD PUSH2 0x2F6 SWAP2 SWAP1 PUSH2 0x13C4 JUMP JUMPDEST PUSH1 0x40 MLOAD DUP1 SWAP2 SUB SWAP1 RETURN JUMPDEST PUSH2 0x319 PUSH1 0x4 DUP1 CALLDATASIZE SUB DUP2 ADD SWAP1 PUSH2 0x314 SWAP2 SWAP1 PUSH2 0x1177 JUMP JUMPDEST PUSH2 0x7CF JUMP JUMPDEST PUSH1 0x40 MLOAD PUSH2 0x326 SWAP2 SWAP1 PUSH2 0x13C4 JUMP JUMPDEST PUSH1 0x40 MLOAD DUP1 SWAP2 SUB SWAP1 RETURN JUMPDEST PUSH2 0x349 PUSH1 0x4 DUP1 CALLDATASIZE SUB DUP2 ADD SWAP1 PUSH2 0x344 SWAP2 SWAP1 PUSH2 0x10EC JUMP JUMPDEST PUSH2 0x7F2 JUMP JUMPDEST PUSH1 0x40 MLOAD PUSH2 0x356 SWAP2 SWAP1 PUSH2 0x1561 JUMP JUMPDEST PUSH1 0x40 MLOAD DUP1 SWAP2 SUB SWAP1 RETURN JUMPDEST PUSH2 0x379 PUSH1 0x4 DUP1 CALLDATASIZE SUB DUP2 ADD SWAP1 PUSH2 0x374 SWAP2 SWAP1 PUSH2 0x10C3 JUMP JUMPDEST PUSH2 0x879 JUMP JUMPDEST STOP JUMPDEST PUSH2 0x395 PUSH1 0x4 DUP1 CALLDATASIZE SUB DUP2 ADD SWAP1 PUSH2 0x390 SWAP2 SWAP1 PUSH2 0x10C3 JUMP JUMPDEST PUSH2 0x8FD JUMP JUMPDEST PUSH1 0x40 MLOAD PUSH2 0x3A2 SWAP2 SWAP1 PUSH2 0x13C4 JUMP JUMPDEST PUSH1 0x40 MLOAD DUP1 SWAP2 SUB SWAP1 RETURN JUMPDEST PUSH1 0x60 PUSH1 0x3 DUP1 SLOAD PUSH2 0x3BA SWAP1 PUSH2 0x1691 JUMP JUMPDEST DUP1 PUSH1 0x1F ADD PUSH1 0x20 DUP1 SWAP2 DIV MUL PUSH1 0x20 ADD PUSH1 0x40 MLOAD SWAP1 DUP2 ADD PUSH1 0x40 MSTORE DUP1 SWAP3 SWAP2 SWAP1 DUP2 DUP2 MSTORE PUSH1 0x20 ADD DUP3 DUP1 SLOAD PUSH2 0x3E6 SWAP1 PUSH2 0x1691 JUMP JUMPDEST DUP1 ISZERO PUSH2 0x433 JUMPI DUP1 PUSH1 0x1F LT PUSH2 0x408 JUMPI PUSH2 0x100 DUP1 DUP4 SLOAD DIV MUL DUP4 MSTORE SWAP2 PUSH1 0x20 ADD SWAP2 PUSH2 0x433 JUMP JUMPDEST DUP3 ADD SWAP2 SWAP1 PUSH1 0x0 MSTORE PUSH1 0x20 PUSH1 0x0 KECCAK256 SWAP1 JUMPDEST DUP2 SLOAD DUP2 MSTORE SWAP1 PUSH1 0x1 ADD SWAP1 PUSH1 0x20 ADD DUP1 DUP4 GT PUSH2 0x416 JUMPI DUP3 SWAP1 SUB PUSH1 0x1F AND DUP3 ADD SWAP2 JUMPDEST POP POP POP POP POP SWAP1 POP SWAP1 JUMP JUMPDEST PUSH1 0x0 DUP1 PUSH2 0x448 PUSH2 0x91D JUMP JUMPDEST SWAP1 POP PUSH2 0x455 DUP2 DUP6 DUP6 PUSH2 0x925 JUMP JUMPDEST PUSH1 0x1 SWAP2 POP POP SWAP3 SWAP2 POP POP JUMP JUMPDEST PUSH1 0x0 PUSH1 0x2 SLOAD SWAP1 POP SWAP1 JUMP JUMPDEST PUSH1 0x0 DUP1 PUSH2 0x475 PUSH2 0x91D JUMP JUMPDEST SWAP1 POP PUSH2 0x482 DUP6 DUP3 DUP6 PUSH2 0xAF0 JUMP JUMPDEST PUSH2 0x48D DUP6 DUP6 DUP6 PUSH2 0xB7C JUMP JUMPDEST PUSH1 0x1 SWAP2 POP POP SWAP4 SWAP3 POP POP POP JUMP JUMPDEST PUSH2 0x4A1 PUSH2 0xDF4 JUMP JUMPDEST PUSH1 0x0 PUSH1 0x6 PUSH1 0x0 DUP4 PUSH20 0xFFFFFFFFFFFFFFFFFFFFFFFFFFFFFFFFFFFFFFFF AND PUSH20 0xFFFFFFFFFFFFFFFFFFFFFFFFFFFFFFFFFFFFFFFF AND DUP2 MSTORE PUSH1 0x20 ADD SWAP1 DUP2 MSTORE PUSH1 0x20 ADD PUSH1 0x0 KECCAK256 PUSH1 0x0 PUSH2 0x100 EXP DUP2 SLOAD DUP2 PUSH1 0xFF MUL NOT AND SWAP1 DUP4 ISZERO ISZERO MUL OR SWAP1 SSTORE POP POP JUMP JUMPDEST PUSH1 0x0 PUSH1 0x12 SWAP1 POP SWAP1 JUMP JUMPDEST PUSH1 0x0 DUP1 PUSH2 0x510 PUSH2 0x91D JUMP JUMPDEST SWAP1 POP PUSH2 0x531 DUP2 DUP6 DUP6 PUSH2 0x522 DUP6 DUP10 PUSH2 0x7F2 JUMP JUMPDEST PUSH2 0x52C SWAP2 SWAP1 PUSH2 0x15B3 JUMP JUMPDEST PUSH2 0x925 JUMP JUMPDEST PUSH1 0x1 SWAP2 POP POP SWAP3 SWAP2 POP POP JUMP JUMPDEST PUSH1 0x1 ISZERO ISZERO PUSH1 0x6 PUSH1 0x0 CALLER PUSH20 0xFFFFFFFFFFFFFFFFFFFFFFFFFFFFFFFFFFFFFFFF AND PUSH20 0xFFFFFFFFFFFFFFFFFFFFFFFFFFFFFFFFFFFFFFFF AND DUP2 MSTORE PUSH1 0x20 ADD SWAP1 DUP2 MSTORE PUSH1 0x20 ADD PUSH1 0x0 KECCAK256 PUSH1 0x0 SWAP1 SLOAD SWAP1 PUSH2 0x100 EXP SWAP1 DIV PUSH1 0xFF AND ISZERO ISZERO EQ PUSH2 0x5CF JUMPI PUSH1 0x40 MLOAD PUSH32 0x8C379A000000000000000000000000000000000000000000000000000000000 DUP2 MSTORE PUSH1 0x4 ADD PUSH2 0x5C6 SWAP1 PUSH2 0x14C1 JUMP JUMPDEST PUSH1 0x40 MLOAD DUP1 SWAP2 SUB SWAP1 REVERT JUMPDEST PUSH2 0x5D9 DUP3 DUP3 PUSH2 0xE72 JUMP JUMPDEST POP POP JUMP JUMPDEST PUSH1 0x0 DUP1 PUSH1 0x0 DUP4 PUSH20 0xFFFFFFFFFFFFFFFFFFFFFFFFFFFFFFFFFFFFFFFF AND PUSH20 0xFFFFFFFFFFFFFFFFFFFFFFFFFFFFFFFFFFFFFFFF AND DUP2 MSTORE PUSH1 0x20 ADD SWAP1 DUP2 MSTORE PUSH1 0x20 ADD PUSH1 0x0 KECCAK256 SLOAD SWAP1 POP SWAP2 SWAP1 POP JUMP JUMPDEST PUSH2 0x62D PUSH2 0xDF4 JUMP JUMPDEST PUSH2 0x637 PUSH1 0x0 PUSH2 0xFC9 JUMP JUMPDEST JUMP JUMPDEST PUSH1 0x0 PUSH1 0x5 PUSH1 0x0 SWAP1 SLOAD SWAP1 PUSH2 0x100 EXP SWAP1 DIV PUSH20 0xFFFFFFFFFFFFFFFFFFFFFFFFFFFFFFFFFFFFFFFF AND SWAP1 POP SWAP1 JUMP JUMPDEST PUSH1 0x60 PUSH1 0x4 DUP1 SLOAD PUSH2 0x672 SWAP1 PUSH2 0x1691 JUMP JUMPDEST DUP1 PUSH1 0x1F ADD PUSH1 0x20 DUP1 SWAP2 DIV MUL PUSH1 0x20 ADD PUSH1 0x40 MLOAD SWAP1 DUP2 ADD PUSH1 0x40 MSTORE DUP1 SWAP3 SWAP2 SWAP1 DUP2 DUP2 MSTORE PUSH1 0x20 ADD DUP3 DUP1 SLOAD PUSH2 0x69E SWAP1 PUSH2 0x1691 JUMP JUMPDEST DUP1 ISZERO PUSH2 0x6EB JUMPI DUP1 PUSH1 0x1F LT PUSH2 0x6C0 JUMPI PUSH2 0x100 DUP1 DUP4 SLOAD DIV MUL DUP4 MSTORE SWAP2 PUSH1 0x20 ADD SWAP2 PUSH2 0x6EB JUMP JUMPDEST DUP3 ADD SWAP2 SWAP1 PUSH1 0x0 MSTORE PUSH1 0x20 PUSH1 0x0 KECCAK256 SWAP1 JUMPDEST DUP2 SLOAD DUP2 MSTORE SWAP1 PUSH1 0x1 ADD SWAP1 PUSH1 0x20 ADD DUP1 DUP4 GT PUSH2 0x6CE JUMPI DUP3 SWAP1 SUB PUSH1 0x1F AND DUP3 ADD SWAP2 JUMPDEST POP POP POP POP POP SWAP1 POP SWAP1 JUMP JUMPDEST PUSH2 0x6FD PUSH2 0xDF4 JUMP JUMPDEST PUSH1 0x1 PUSH1 0x6 PUSH1 0x0 DUP4 PUSH20 0xFFFFFFFFFFFFFFFFFFFFFFFFFFFFFFFFFFFFFFFF AND PUSH20 0xFFFFFFFFFFFFFFFFFFFFFFFFFFFFFFFFFFFFFFFF AND DUP2 MSTORE PUSH1 0x20 ADD SWAP1 DUP2 MSTORE PUSH1 0x20 ADD PUSH1 0x0 KECCAK256 PUSH1 0x0 PUSH2 0x100 EXP DUP2 SLOAD DUP2 PUSH1 0xFF MUL NOT AND SWAP1 DUP4 ISZERO ISZERO MUL OR SWAP1 SSTORE POP POP JUMP JUMPDEST PUSH1 0x0 DUP1 PUSH2 0x763 PUSH2 0x91D JUMP JUMPDEST SWAP1 POP PUSH1 0x0 PUSH2 0x771 DUP3 DUP7 PUSH2 0x7F2 JUMP JUMPDEST SWAP1 POP DUP4 DUP2 LT ISZERO PUSH2 0x7B6 JUMPI PUSH1 0x40 MLOAD PUSH32 0x8C379A000000000000000000000000000000000000000000000000000000000 DUP2 MSTORE PUSH1 0x4 ADD PUSH2 0x7AD SWAP1 PUSH2 0x1521 JUMP JUMPDEST PUSH1 0x40 MLOAD DUP1 SWAP2 SUB SWAP1 REVERT JUMPDEST PUSH2 0x7C3 DUP3 DUP7 DUP7 DUP5 SUB PUSH2 0x925 JUMP JUMPDEST PUSH1 0x1 SWAP3 POP POP POP SWAP3 SWAP2 POP POP JUMP JUMPDEST PUSH1 0x0 DUP1 PUSH2 0x7DA PUSH2 0x91D JUMP JUMPDEST SWAP1 POP PUSH2 0x7E7 DUP2 DUP6 DUP6 PUSH2 0xB7C JUMP JUMPDEST PUSH1 0x1 SWAP2 POP POP SWAP3 SWAP2 POP POP JUMP JUMPDEST PUSH1 0x0 PUSH1 0x1 PUSH1 0x0 DUP5 PUSH20 0xFFFFFFFFFFFFFFFFFFFFFFFFFFFFFFFFFFFFFFFF AND PUSH20 0xFFFFFFFFFFFFFFFFFFFFFFFFFFFFFFFFFFFFFFFF AND DUP2 MSTORE PUSH1 0x20 ADD SWAP1 DUP2 MSTORE PUSH1 0x20 ADD PUSH1 0x0 KECCAK256 PUSH1 0x0 DUP4 PUSH20 0xFFFFFFFFFFFFFFFFFFFFFFFFFFFFFFFFFFFFFFFF AND PUSH20 0xFFFFFFFFFFFFFFFFFFFFFFFFFFFFFFFFFFFFFFFF AND DUP2 MSTORE PUSH1 0x20 ADD SWAP1 DUP2 MSTORE PUSH1 0x20 ADD PUSH1 0x0 KECCAK256 SLOAD SWAP1 POP SWAP3 SWAP2 POP POP JUMP JUMPDEST PUSH2 0x881 PUSH2 0xDF4 JUMP JUMPDEST PUSH1 0x0 PUSH20 0xFFFFFFFFFFFFFFFFFFFFFFFFFFFFFFFFFFFFFFFF AND DUP2 PUSH20 0xFFFFFFFFFFFFFFFFFFFFFFFFFFFFFFFFFFFFFFFF AND EQ ISZERO PUSH2 0x8F1 JUMPI PUSH1 0x40 MLOAD PUSH32 0x8C379A000000000000000000000000000000000000000000000000000000000 DUP2 MSTORE PUSH1 0x4 ADD PUSH2 0x8E8 SWAP1 PUSH2 0x1421 JUMP JUMPDEST PUSH1 0x40 MLOAD DUP1 SWAP2 SUB SWAP1 REVERT JUMPDEST PUSH2 0x8FA DUP2 PUSH2 0xFC9 JUMP JUMPDEST POP JUMP JUMPDEST PUSH1 0x6 PUSH1 0x20 MSTORE DUP1 PUSH1 0x0 MSTORE PUSH1 0x40 PUSH1 0x0 KECCAK256 PUSH1 0x0 SWAP2 POP SLOAD SWAP1 PUSH2 0x100 EXP SWAP1 DIV PUSH1 0xFF AND DUP2 JUMP JUMPDEST PUSH1 0x0 CALLER SWAP1 POP SWAP1 JUMP JUMPDEST PUSH1 0x0 PUSH20 0xFFFFFFFFFFFFFFFFFFFFFFFFFFFFFFFFFFFFFFFF AND DUP4 PUSH20 0xFFFFFFFFFFFFFFFFFFFFFFFFFFFFFFFFFFFFFFFF AND EQ ISZERO PUSH2 0x995 JUMPI PUSH1 0x40 MLOAD PUSH32 0x8C379A000000000000000000000000000000000000000000000000000000000 DUP2 MSTORE PUSH1 0x4 ADD PUSH2 0x98C SWAP1 PUSH2 0x1501 JUMP JUMPDEST PUSH1 0x40 MLOAD DUP1 SWAP2 SUB SWAP1 REVERT JUMPDEST PUSH1 0x0 PUSH20 0xFFFFFFFFFFFFFFFFFFFFFFFFFFFFFFFFFFFFFFFF AND DUP3 PUSH20 0xFFFFFFFFFFFFFFFFFFFFFFFFFFFFFFFFFFFFFFFF AND EQ ISZERO PUSH2 0xA05 JUMPI PUSH1 0x40 MLOAD PUSH32 0x8C379A000000000000000000000000000000000000000000000000000000000 DUP2 MSTORE PUSH1 0x4 ADD PUSH2 0x9FC SWAP1 PUSH2 0x1441 JUMP JUMPDEST PUSH1 0x40 MLOAD DUP1 SWAP2 SUB SWAP1 REVERT JUMPDEST DUP1 PUSH1 0x1 PUSH1 0x0 DUP6 PUSH20 0xFFFFFFFFFFFFFFFFFFFFFFFFFFFFFFFFFFFFFFFF AND PUSH20 0xFFFFFFFFFFFFFFFFFFFFFFFFFFFFFFFFFFFFFFFF AND DUP2 MSTORE PUSH1 0x20 ADD SWAP1 DUP2 MSTORE PUSH1 0x20 ADD PUSH1 0x0 KECCAK256 PUSH1 0x0 DUP5 PUSH20 0xFFFFFFFFFFFFFFFFFFFFFFFFFFFFFFFFFFFFFFFF AND PUSH20 0xFFFFFFFFFFFFFFFFFFFFFFFFFFFFFFFFFFFFFFFF AND DUP2 MSTORE PUSH1 0x20 ADD SWAP1 DUP2 MSTORE PUSH1 0x20 ADD PUSH1 0x0 KECCAK256 DUP2 SWAP1 SSTORE POP DUP2 PUSH20 0xFFFFFFFFFFFFFFFFFFFFFFFFFFFFFFFFFFFFFFFF AND DUP4 PUSH20 0xFFFFFFFFFFFFFFFFFFFFFFFFFFFFFFFFFFFFFFFF AND PUSH32 0x8C5BE1E5EBEC7D5BD14F71427D1E84F3DD0314C0F7B2291E5B200AC8C7C3B925 DUP4 PUSH1 0x40 MLOAD PUSH2 0xAE3 SWAP2 SWAP1 PUSH2 0x1561 JUMP JUMPDEST PUSH1 0x40 MLOAD DUP1 SWAP2 SUB SWAP1 LOG3 POP POP POP JUMP JUMPDEST PUSH1 0x0 PUSH2 0xAFC DUP5 DUP5 PUSH2 0x7F2 JUMP JUMPDEST SWAP1 POP PUSH32 0xFFFFFFFFFFFFFFFFFFFFFFFFFFFFFFFFFFFFFFFFFFFFFFFFFFFFFFFFFFFFFFFF DUP2 EQ PUSH2 0xB76 JUMPI DUP2 DUP2 LT ISZERO PUSH2 0xB68 JUMPI PUSH1 0x40 MLOAD PUSH32 0x8C379A000000000000000000000000000000000000000000000000000000000 DUP2 MSTORE PUSH1 0x4 ADD PUSH2 0xB5F SWAP1 PUSH2 0x1461 JUMP JUMPDEST PUSH1 0x40 MLOAD DUP1 SWAP2 SUB SWAP1 REVERT JUMPDEST PUSH2 0xB75 DUP5 DUP5 DUP5 DUP5 SUB PUSH2 0x925 JUMP JUMPDEST JUMPDEST POP POP POP POP JUMP JUMPDEST PUSH1 0x0 PUSH20 0xFFFFFFFFFFFFFFFFFFFFFFFFFFFFFFFFFFFFFFFF AND DUP4 PUSH20 0xFFFFFFFFFFFFFFFFFFFFFFFFFFFFFFFFFFFFFFFF AND EQ ISZERO PUSH2 0xBEC JUMPI PUSH1 0x40 MLOAD PUSH32 0x8C379A000000000000000000000000000000000000000000000000000000000 DUP2 MSTORE PUSH1 0x4 ADD PUSH2 0xBE3 SWAP1 PUSH2 0x14E1 JUMP JUMPDEST PUSH1 0x40 MLOAD DUP1 SWAP2 SUB SWAP1 REVERT JUMPDEST PUSH1 0x0 PUSH20 0xFFFFFFFFFFFFFFFFFFFFFFFFFFFFFFFFFFFFFFFF AND DUP3 PUSH20 0xFFFFFFFFFFFFFFFFFFFFFFFFFFFFFFFFFFFFFFFF AND EQ ISZERO PUSH2 0xC5C JUMPI PUSH1 0x40 MLOAD PUSH32 0x8C379A000000000000000000000000000000000000000000000000000000000 DUP2 MSTORE PUSH1 0x4 ADD PUSH2 0xC53 SWAP1 PUSH2 0x1401 JUMP JUMPDEST PUSH1 0x40 MLOAD DUP1 SWAP2 SUB SWAP1 REVERT JUMPDEST PUSH2 0xC67 DUP4 DUP4 DUP4 PUSH2 0x108F JUMP JUMPDEST PUSH1 0x0 DUP1 PUSH1 0x0 DUP6 PUSH20 0xFFFFFFFFFFFFFFFFFFFFFFFFFFFFFFFFFFFFFFFF AND PUSH20 0xFFFFFFFFFFFFFFFFFFFFFFFFFFFFFFFFFFFFFFFF AND DUP2 MSTORE PUSH1 0x20 ADD SWAP1 DUP2 MSTORE PUSH1 0x20 ADD PUSH1 0x0 KECCAK256 SLOAD SWAP1 POP DUP2 DUP2 LT ISZERO PUSH2 0xCED JUMPI PUSH1 0x40 MLOAD PUSH32 0x8C379A000000000000000000000000000000000000000000000000000000000 DUP2 MSTORE PUSH1 0x4 ADD PUSH2 0xCE4 SWAP1 PUSH2 0x1481 JUMP JUMPDEST PUSH1 0x40 MLOAD DUP1 SWAP2 SUB SWAP1 REVERT JUMPDEST DUP2 DUP2 SUB PUSH1 0x0 DUP1 DUP7 PUSH20 0xFFFFFFFFFFFFFFFFFFFFFFFFFFFFFFFFFFFFFFFF AND PUSH20 0xFFFFFFFFFFFFFFFFFFFFFFFFFFFFFFFFFFFFFFFF AND DUP2 MSTORE PUSH1 0x20 ADD SWAP1 DUP2 MSTORE PUSH1 0x20 ADD PUSH1 0x0 KECCAK256 DUP2 SWAP1 SSTORE POP DUP2 PUSH1 0x0 DUP1 DUP6 PUSH20 0xFFFFFFFFFFFFFFFFFFFFFFFFFFFFFFFFFFFFFFFF AND PUSH20 0xFFFFFFFFFFFFFFFFFFFFFFFFFFFFFFFFFFFFFFFF AND DUP2 MSTORE PUSH1 0x20 ADD SWAP1 DUP2 MSTORE PUSH1 0x20 ADD PUSH1 0x0 KECCAK256 PUSH1 0x0 DUP3 DUP3 SLOAD ADD SWAP3 POP POP DUP2 SWAP1 SSTORE POP DUP3 PUSH20 0xFFFFFFFFFFFFFFFFFFFFFFFFFFFFFFFFFFFFFFFF AND DUP5 PUSH20 0xFFFFFFFFFFFFFFFFFFFFFFFFFFFFFFFFFFFFFFFF AND PUSH32 0xDDF252AD1BE2C89B69C2B068FC378DAA952BA7F163C4A11628F55A4DF523B3EF DUP5 PUSH1 0x40 MLOAD PUSH2 0xDDB SWAP2 SWAP1 PUSH2 0x1561 JUMP JUMPDEST PUSH1 0x40 MLOAD DUP1 SWAP2 SUB SWAP1 LOG3 PUSH2 0xDEE DUP5 DUP5 DUP5 PUSH2 0x1094 JUMP JUMPDEST POP POP POP POP JUMP JUMPDEST PUSH2 0xDFC PUSH2 0x91D JUMP JUMPDEST PUSH20 0xFFFFFFFFFFFFFFFFFFFFFFFFFFFFFFFFFFFFFFFF AND PUSH2 0xE1A PUSH2 0x639 JUMP JUMPDEST PUSH20 0xFFFFFFFFFFFFFFFFFFFFFFFFFFFFFFFFFFFFFFFF AND EQ PUSH2 0xE70 JUMPI PUSH1 0x40 MLOAD PUSH32 0x8C379A000000000000000000000000000000000000000000000000000000000 DUP2 MSTORE PUSH1 0x4 ADD PUSH2 0xE67 SWAP1 PUSH2 0x14A1 JUMP JUMPDEST PUSH1 0x40 MLOAD DUP1 SWAP2 SUB SWAP1 REVERT JUMPDEST JUMP JUMPDEST PUSH1 0x0 PUSH20 0xFFFFFFFFFFFFFFFFFFFFFFFFFFFFFFFFFFFFFFFF AND DUP3 PUSH20 0xFFFFFFFFFFFFFFFFFFFFFFFFFFFFFFFFFFFFFFFF AND EQ ISZERO PUSH2 0xEE2 JUMPI PUSH1 0x40 MLOAD PUSH32 0x8C379A000000000000000000000000000000000000000000000000000000000 DUP2 MSTORE PUSH1 0x4 ADD PUSH2 0xED9 SWAP1 PUSH2 0x1541 JUMP JUMPDEST PUSH1 0x40 MLOAD DUP1 SWAP2 SUB SWAP1 REVERT JUMPDEST PUSH2 0xEEE PUSH1 0x0 DUP4 DUP4 PUSH2 0x108F JUMP JUMPDEST DUP1 PUSH1 0x2 PUSH1 0x0 DUP3 DUP3 SLOAD PUSH2 0xF00 SWAP2 SWAP1 PUSH2 0x15B3 JUMP JUMPDEST SWAP3 POP POP DUP2 SWAP1 SSTORE POP DUP1 PUSH1 0x0 DUP1 DUP5 PUSH20 0xFFFFFFFFFFFFFFFFFFFFFFFFFFFFFFFFFFFFFFFF AND PUSH20 0xFFFFFFFFFFFFFFFFFFFFFFFFFFFFFFFFFFFFFFFF AND DUP2 MSTORE PUSH1 0x20 ADD SWAP1 DUP2 MSTORE PUSH1 0x20 ADD PUSH1 0x0 KECCAK256 PUSH1 0x0 DUP3 DUP3 SLOAD ADD SWAP3 POP POP DUP2 SWAP1 SSTORE POP DUP2 PUSH20 0xFFFFFFFFFFFFFFFFFFFFFFFFFFFFFFFFFFFFFFFF AND PUSH1 0x0 PUSH20 0xFFFFFFFFFFFFFFFFFFFFFFFFFFFFFFFFFFFFFFFF AND PUSH32 0xDDF252AD1BE2C89B69C2B068FC378DAA952BA7F163C4A11628F55A4DF523B3EF DUP4 PUSH1 0x40 MLOAD PUSH2 0xFB1 SWAP2 SWAP1 PUSH2 0x1561 JUMP JUMPDEST PUSH1 0x40 MLOAD DUP1 SWAP2 SUB SWAP1 LOG3 PUSH2 0xFC5 PUSH1 0x0 DUP4 DUP4 PUSH2 0x1094 JUMP JUMPDEST POP POP JUMP JUMPDEST PUSH1 0x0 PUSH1 0x5 PUSH1 0x0 SWAP1 SLOAD SWAP1 PUSH2 0x100 EXP SWAP1 DIV PUSH20 0xFFFFFFFFFFFFFFFFFFFFFFFFFFFFFFFFFFFFFFFF AND SWAP1 POP DUP2 PUSH1 0x5 PUSH1 0x0 PUSH2 0x100 EXP DUP2 SLOAD DUP2 PUSH20 0xFFFFFFFFFFFFFFFFFFFFFFFFFFFFFFFFFFFFFFFF MUL NOT AND SWAP1 DUP4 PUSH20 0xFFFFFFFFFFFFFFFFFFFFFFFFFFFFFFFFFFFFFFFF AND MUL OR SWAP1 SSTORE POP DUP2 PUSH20 0xFFFFFFFFFFFFFFFFFFFFFFFFFFFFFFFFFFFFFFFF AND DUP2 PUSH20 0xFFFFFFFFFFFFFFFFFFFFFFFFFFFFFFFFFFFFFFFF AND PUSH32 0x8BE0079C531659141344CD1FD0A4F28419497F9722A3DAAFE3B4186F6B6457E0 PUSH1 0x40 MLOAD PUSH1 0x40 MLOAD DUP1 SWAP2 SUB SWAP1 LOG3 POP POP JUMP JUMPDEST POP POP POP JUMP JUMPDEST POP POP POP JUMP JUMPDEST PUSH1 0x0 DUP2 CALLDATALOAD SWAP1 POP PUSH2 0x10A8 DUP2 PUSH2 0x19FF JUMP JUMPDEST SWAP3 SWAP2 POP POP JUMP JUMPDEST PUSH1 0x0 DUP2 CALLDATALOAD SWAP1 POP PUSH2 0x10BD DUP2 PUSH2 0x1A16 JUMP JUMPDEST SWAP3 SWAP2 POP POP JUMP JUMPDEST PUSH1 0x0 PUSH1 0x20 DUP3 DUP5 SUB SLT ISZERO PUSH2 0x10D5 JUMPI PUSH1 0x0 DUP1 REVERT JUMPDEST PUSH1 0x0 PUSH2 0x10E3 DUP5 DUP3 DUP6 ADD PUSH2 0x1099 JUMP JUMPDEST SWAP2 POP POP SWAP3 SWAP2 POP POP JUMP JUMPDEST PUSH1 0x0 DUP1 PUSH1 0x40 DUP4 DUP6 SUB SLT ISZERO PUSH2 0x10FF JUMPI PUSH1 0x0 DUP1 REVERT JUMPDEST PUSH1 0x0 PUSH2 0x110D DUP6 DUP3 DUP7 ADD PUSH2 0x1099 JUMP JUMPDEST SWAP3 POP POP PUSH1 0x20 PUSH2 0x111E DUP6 DUP3 DUP7 ADD PUSH2 0x1099 JUMP JUMPDEST SWAP2 POP POP SWAP3 POP SWAP3 SWAP1 POP JUMP JUMPDEST PUSH1 0x0 DUP1 PUSH1 0x0 PUSH1 0x60 DUP5 DUP7 SUB SLT ISZERO PUSH2 0x113D JUMPI PUSH1 0x0 DUP1 REVERT JUMPDEST PUSH1 0x0 PUSH2 0x114B DUP7 DUP3 DUP8 ADD PUSH2 0x1099 JUMP JUMPDEST SWAP4 POP POP PUSH1 0x20 PUSH2 0x115C DUP7 DUP3 DUP8 ADD PUSH2 0x1099 JUMP JUMPDEST SWAP3 POP POP PUSH1 0x40 PUSH2 0x116D DUP7 DUP3 DUP8 ADD PUSH2 0x10AE JUMP JUMPDEST SWAP2 POP POP SWAP3 POP SWAP3 POP SWAP3 JUMP JUMPDEST PUSH1 0x0 DUP1 PUSH1 0x40 DUP4 DUP6 SUB SLT ISZERO PUSH2 0x118A JUMPI PUSH1 0x0 DUP1 REVERT JUMPDEST PUSH1 0x0 PUSH2 0x1198 DUP6 DUP3 DUP7 ADD PUSH2 0x1099 JUMP JUMPDEST SWAP3 POP POP PUSH1 0x20 PUSH2 0x11A9 DUP6 DUP3 DUP7 ADD PUSH2 0x10AE JUMP JUMPDEST SWAP2 POP POP SWAP3 POP SWAP3 SWAP1 POP JUMP JUMPDEST PUSH2 0x11BC DUP2 PUSH2 0x1609 JUMP JUMPDEST DUP3 MSTORE POP POP JUMP JUMPDEST PUSH2 0x11CB DUP2 PUSH2 0x161B JUMP JUMPDEST DUP3 MSTORE POP POP JUMP JUMPDEST PUSH1 0x0 PUSH2 0x11DC DUP3 PUSH2 0x1597 JUMP JUMPDEST PUSH2 0x11E6 DUP2 DUP6 PUSH2 0x15A2 JUMP JUMPDEST SWAP4 POP PUSH2 0x11F6 DUP2 DUP6 PUSH1 0x20 DUP7 ADD PUSH2 0x165E JUMP JUMPDEST PUSH2 0x11FF DUP2 PUSH2 0x1721 JUMP JUMPDEST DUP5 ADD SWAP2 POP POP SWAP3 SWAP2 POP POP JUMP JUMPDEST PUSH1 0x0 PUSH2 0x1217 PUSH1 0x23 DUP4 PUSH2 0x15A2 JUMP JUMPDEST SWAP2 POP PUSH2 0x1222 DUP3 PUSH2 0x1732 JUMP JUMPDEST PUSH1 0x40 DUP3 ADD SWAP1 POP SWAP2 SWAP1 POP JUMP JUMPDEST PUSH1 0x0 PUSH2 0x123A PUSH1 0x26 DUP4 PUSH2 0x15A2 JUMP JUMPDEST SWAP2 POP PUSH2 0x1245 DUP3 PUSH2 0x1781 JUMP JUMPDEST PUSH1 0x40 DUP3 ADD SWAP1 POP SWAP2 SWAP1 POP JUMP JUMPDEST PUSH1 0x0 PUSH2 0x125D PUSH1 0x22 DUP4 PUSH2 0x15A2 JUMP JUMPDEST SWAP2 POP PUSH2 0x1268 DUP3 PUSH2 0x17D0 JUMP JUMPDEST PUSH1 0x40 DUP3 ADD SWAP1 POP SWAP2 SWAP1 POP JUMP JUMPDEST PUSH1 0x0 PUSH2 0x1280 PUSH1 0x1D DUP4 PUSH2 0x15A2 JUMP JUMPDEST SWAP2 POP PUSH2 0x128B DUP3 PUSH2 0x181F JUMP JUMPDEST PUSH1 0x20 DUP3 ADD SWAP1 POP SWAP2 SWAP1 POP JUMP JUMPDEST PUSH1 0x0 PUSH2 0x12A3 PUSH1 0x26 DUP4 PUSH2 0x15A2 JUMP JUMPDEST SWAP2 POP PUSH2 0x12AE DUP3 PUSH2 0x1848 JUMP JUMPDEST PUSH1 0x40 DUP3 ADD SWAP1 POP SWAP2 SWAP1 POP JUMP JUMPDEST PUSH1 0x0 PUSH2 0x12C6 PUSH1 0x20 DUP4 PUSH2 0x15A2 JUMP JUMPDEST SWAP2 POP PUSH2 0x12D1 DUP3 PUSH2 0x1897 JUMP JUMPDEST PUSH1 0x20 DUP3 ADD SWAP1 POP SWAP2 SWAP1 POP JUMP JUMPDEST PUSH1 0x0 PUSH2 0x12E9 PUSH1 0x1F DUP4 PUSH2 0x15A2 JUMP JUMPDEST SWAP2 POP PUSH2 0x12F4 DUP3 PUSH2 0x18C0 JUMP JUMPDEST PUSH1 0x20 DUP3 ADD SWAP1 POP SWAP2 SWAP1 POP JUMP JUMPDEST PUSH1 0x0 PUSH2 0x130C PUSH1 0x25 DUP4 PUSH2 0x15A2 JUMP JUMPDEST SWAP2 POP PUSH2 0x1317 DUP3 PUSH2 0x18E9 JUMP JUMPDEST PUSH1 0x40 DUP3 ADD SWAP1 POP SWAP2 SWAP1 POP JUMP JUMPDEST PUSH1 0x0 PUSH2 0x132F PUSH1 0x24 DUP4 PUSH2 0x15A2 JUMP JUMPDEST SWAP2 POP PUSH2 0x133A DUP3 PUSH2 0x1938 JUMP JUMPDEST PUSH1 0x40 DUP3 ADD SWAP1 POP SWAP2 SWAP1 POP JUMP JUMPDEST PUSH1 0x0 PUSH2 0x1352 PUSH1 0x25 DUP4 PUSH2 0x15A2 JUMP JUMPDEST SWAP2 POP PUSH2 0x135D DUP3 PUSH2 0x1987 JUMP JUMPDEST PUSH1 0x40 DUP3 ADD SWAP1 POP SWAP2 SWAP1 POP JUMP JUMPDEST PUSH1 0x0 PUSH2 0x1375 PUSH1 0x1F DUP4 PUSH2 0x15A2 JUMP JUMPDEST SWAP2 POP PUSH2 0x1380 DUP3 PUSH2 0x19D6 JUMP JUMPDEST PUSH1 0x20 DUP3 ADD SWAP1 POP SWAP2 SWAP1 POP JUMP JUMPDEST PUSH2 0x1394 DUP2 PUSH2 0x1647 JUMP JUMPDEST DUP3 MSTORE POP POP JUMP JUMPDEST PUSH2 0x13A3 DUP2 PUSH2 0x1651 JUMP JUMPDEST DUP3 MSTORE POP POP JUMP JUMPDEST PUSH1 0x0 PUSH1 0x20 DUP3 ADD SWAP1 POP PUSH2 0x13BE PUSH1 0x0 DUP4 ADD DUP5 PUSH2 0x11B3 JUMP JUMPDEST SWAP3 SWAP2 POP POP JUMP JUMPDEST PUSH1 0x0 PUSH1 0x20 DUP3 ADD SWAP1 POP PUSH2 0x13D9 PUSH1 0x0 DUP4 ADD DUP5 PUSH2 0x11C2 JUMP JUMPDEST SWAP3 SWAP2 POP POP JUMP JUMPDEST PUSH1 0x0 PUSH1 0x20 DUP3 ADD SWAP1 POP DUP2 DUP2 SUB PUSH1 0x0 DUP4 ADD MSTORE PUSH2 0x13F9 DUP2 DUP5 PUSH2 0x11D1 JUMP JUMPDEST SWAP1 POP SWAP3 SWAP2 POP POP JUMP JUMPDEST PUSH1 0x0 PUSH1 0x20 DUP3 ADD SWAP1 POP DUP2 DUP2 SUB PUSH1 0x0 DUP4 ADD MSTORE PUSH2 0x141A DUP2 PUSH2 0x120A JUMP JUMPDEST SWAP1 POP SWAP2 SWAP1 POP JUMP JUMPDEST PUSH1 0x0 PUSH1 0x20 DUP3 ADD SWAP1 POP DUP2 DUP2 SUB PUSH1 0x0 DUP4 ADD MSTORE PUSH2 0x143A DUP2 PUSH2 0x122D JUMP JUMPDEST SWAP1 POP SWAP2 SWAP1 POP JUMP JUMPDEST PUSH1 0x0 PUSH1 0x20 DUP3 ADD SWAP1 POP DUP2 DUP2 SUB PUSH1 0x0 DUP4 ADD MSTORE PUSH2 0x145A DUP2 PUSH2 0x1250 JUMP JUMPDEST SWAP1 POP SWAP2 SWAP1 POP JUMP JUMPDEST PUSH1 0x0 PUSH1 0x20 DUP3 ADD SWAP1 POP DUP2 DUP2 SUB PUSH1 0x0 DUP4 ADD MSTORE PUSH2 0x147A DUP2 PUSH2 0x1273 JUMP JUMPDEST SWAP1 POP SWAP2 SWAP1 POP JUMP JUMPDEST PUSH1 0x0 PUSH1 0x20 DUP3 ADD SWAP1 POP DUP2 DUP2 SUB PUSH1 0x0 DUP4 ADD MSTORE PUSH2 0x149A DUP2 PUSH2 0x1296 JUMP JUMPDEST SWAP1 POP SWAP2 SWAP1 POP JUMP JUMPDEST PUSH1 0x0 PUSH1 0x20 DUP3 ADD SWAP1 POP DUP2 DUP2 SUB PUSH1 0x0 DUP4 ADD MSTORE PUSH2 0x14BA DUP2 PUSH2 0x12B9 JUMP JUMPDEST SWAP1 POP SWAP2 SWAP1 POP JUMP JUMPDEST PUSH1 0x0 PUSH1 0x20 DUP3 ADD SWAP1 POP DUP2 DUP2 SUB PUSH1 0x0 DUP4 ADD MSTORE PUSH2 0x14DA DUP2 PUSH2 0x12DC JUMP JUMPDEST SWAP1 POP SWAP2 SWAP1 POP JUMP JUMPDEST PUSH1 0x0 PUSH1 0x20 DUP3 ADD SWAP1 POP DUP2 DUP2 SUB PUSH1 0x0 DUP4 ADD MSTORE PUSH2 0x14FA DUP2 PUSH2 0x12FF JUMP JUMPDEST SWAP1 POP SWAP2 SWAP1 POP JUMP JUMPDEST PUSH1 0x0 PUSH1 0x20 DUP3 ADD SWAP1 POP DUP2 DUP2 SUB PUSH1 0x0 DUP4 ADD MSTORE PUSH2 0x151A DUP2 PUSH2 0x1322 JUMP JUMPDEST SWAP1 POP SWAP2 SWAP1 POP JUMP JUMPDEST PUSH1 0x0 PUSH1 0x20 DUP3 ADD SWAP1 POP DUP2 DUP2 SUB PUSH1 0x0 DUP4 ADD MSTORE PUSH2 0x153A DUP2 PUSH2 0x1345 JUMP JUMPDEST SWAP1 POP SWAP2 SWAP1 POP JUMP JUMPDEST PUSH1 0x0 PUSH1 0x20 DUP3 ADD SWAP1 POP DUP2 DUP2 SUB PUSH1 0x0 DUP4 ADD MSTORE PUSH2 0x155A DUP2 PUSH2 0x1368 JUMP JUMPDEST SWAP1 POP SWAP2 SWAP1 POP JUMP JUMPDEST PUSH1 0x0 PUSH1 0x20 DUP3 ADD SWAP1 POP PUSH2 0x1576 PUSH1 0x0 DUP4 ADD DUP5 PUSH2 0x138B JUMP JUMPDEST SWAP3 SWAP2 POP POP JUMP JUMPDEST PUSH1 0x0 PUSH1 0x20 DUP3 ADD SWAP1 POP PUSH2 0x1591 PUSH1 0x0 DUP4 ADD DUP5 PUSH2 0x139A JUMP JUMPDEST SWAP3 SWAP2 POP POP JUMP JUMPDEST PUSH1 0x0 DUP2 MLOAD SWAP1 POP SWAP2 SWAP1 POP JUMP JUMPDEST PUSH1 0x0 DUP3 DUP3 MSTORE PUSH1 0x20 DUP3 ADD SWAP1 POP SWAP3 SWAP2 POP POP JUMP JUMPDEST PUSH1 0x0 PUSH2 0x15BE DUP3 PUSH2 0x1647 JUMP JUMPDEST SWAP2 POP PUSH2 0x15C9 DUP4 PUSH2 0x1647 JUMP JUMPDEST SWAP3 POP DUP3 PUSH32 0xFFFFFFFFFFFFFFFFFFFFFFFFFFFFFFFFFFFFFFFFFFFFFFFFFFFFFFFFFFFFFFFF SUB DUP3 GT ISZERO PUSH2 0x15FE JUMPI PUSH2 0x15FD PUSH2 0x16C3 JUMP JUMPDEST JUMPDEST DUP3 DUP3 ADD SWAP1 POP SWAP3 SWAP2 POP POP JUMP JUMPDEST PUSH1 0x0 PUSH2 0x1614 DUP3 PUSH2 0x1627 JUMP JUMPDEST SWAP1 POP SWAP2 SWAP1 POP JUMP JUMPDEST PUSH1 0x0 DUP2 ISZERO ISZERO SWAP1 POP SWAP2 SWAP1 POP JUMP JUMPDEST PUSH1 0x0 PUSH20 0xFFFFFFFFFFFFFFFFFFFFFFFFFFFFFFFFFFFFFFFF DUP3 AND SWAP1 POP SWAP2 SWAP1 POP JUMP JUMPDEST PUSH1 0x0 DUP2 SWAP1 POP SWAP2 SWAP1 POP JUMP JUMPDEST PUSH1 0x0 PUSH1 0xFF DUP3 AND SWAP1 POP SWAP2 SWAP1 POP JUMP JUMPDEST PUSH1 0x0 JUMPDEST DUP4 DUP2 LT ISZERO PUSH2 0x167C JUMPI DUP1 DUP3 ADD MLOAD DUP2 DUP5 ADD MSTORE PUSH1 0x20 DUP2 ADD SWAP1 POP PUSH2 0x1661 JUMP JUMPDEST DUP4 DUP2 GT ISZERO PUSH2 0x168B JUMPI PUSH1 0x0 DUP5 DUP5 ADD MSTORE JUMPDEST POP POP POP POP JUMP JUMPDEST PUSH1 0x0 PUSH1 0x2 DUP3 DIV SWAP1 POP PUSH1 0x1 DUP3 AND DUP1 PUSH2 0x16A9 JUMPI PUSH1 0x7F DUP3 AND SWAP2 POP JUMPDEST PUSH1 0x20 DUP3 LT DUP2 EQ ISZERO PUSH2 0x16BD JUMPI PUSH2 0x16BC PUSH2 0x16F2 JUMP JUMPDEST JUMPDEST POP SWAP2 SWAP1 POP JUMP JUMPDEST PUSH32 0x4E487B7100000000000000000000000000000000000000000000000000000000 PUSH1 0x0 MSTORE PUSH1 0x11 PUSH1 0x4 MSTORE PUSH1 0x24 PUSH1 0x0 REVERT JUMPDEST PUSH32 0x4E487B7100000000000000000000000000000000000000000000000000000000 PUSH1 0x0 MSTORE PUSH1 0x22 PUSH1 0x4 MSTORE PUSH1 0x24 PUSH1 0x0 REVERT JUMPDEST PUSH1 0x0 PUSH1 0x1F NOT PUSH1 0x1F DUP4 ADD AND SWAP1 POP SWAP2 SWAP1 POP JUMP JUMPDEST PUSH32 0x45524332303A207472616E7366657220746F20746865207A65726F2061646472 PUSH1 0x0 DUP3 ADD MSTORE PUSH32 0x6573730000000000000000000000000000000000000000000000000000000000 PUSH1 0x20 DUP3 ADD MSTORE POP JUMP JUMPDEST PUSH32 0x4F776E61626C653A206E6577206F776E657220697320746865207A65726F2061 PUSH1 0x0 DUP3 ADD MSTORE PUSH32 0x6464726573730000000000000000000000000000000000000000000000000000 PUSH1 0x20 DUP3 ADD MSTORE POP JUMP JUMPDEST PUSH32 0x45524332303A20617070726F766520746F20746865207A65726F206164647265 PUSH1 0x0 DUP3 ADD MSTORE PUSH32 0x7373000000000000000000000000000000000000000000000000000000000000 PUSH1 0x20 DUP3 ADD MSTORE POP JUMP JUMPDEST PUSH32 0x45524332303A20696E73756666696369656E7420616C6C6F77616E6365000000 PUSH1 0x0 DUP3 ADD MSTORE POP JUMP JUMPDEST PUSH32 0x45524332303A207472616E7366657220616D6F756E7420657863656564732062 PUSH1 0x0 DUP3 ADD MSTORE PUSH32 0x616C616E63650000000000000000000000000000000000000000000000000000 PUSH1 0x20 DUP3 ADD MSTORE POP JUMP JUMPDEST PUSH32 0x4F776E61626C653A2063616C6C6572206973206E6F7420746865206F776E6572 PUSH1 0x0 DUP3 ADD MSTORE POP JUMP JUMPDEST PUSH32 0x4F6E6C79206D696E746572732063616E20706572666F726D20616374696F6E00 PUSH1 0x0 DUP3 ADD MSTORE POP JUMP JUMPDEST PUSH32 0x45524332303A207472616E736665722066726F6D20746865207A65726F206164 PUSH1 0x0 DUP3 ADD MSTORE PUSH32 0x6472657373000000000000000000000000000000000000000000000000000000 PUSH1 0x20 DUP3 ADD MSTORE POP JUMP JUMPDEST PUSH32 0x45524332303A20617070726F76652066726F6D20746865207A65726F20616464 PUSH1 0x0 DUP3 ADD MSTORE PUSH32 0x7265737300000000000000000000000000000000000000000000000000000000 PUSH1 0x20 DUP3 ADD MSTORE POP JUMP JUMPDEST PUSH32 0x45524332303A2064656372656173656420616C6C6F77616E63652062656C6F77 PUSH1 0x0 DUP3 ADD MSTORE PUSH32 0x207A65726F000000000000000000000000000000000000000000000000000000 PUSH1 0x20 DUP3 ADD MSTORE POP JUMP JUMPDEST PUSH32 0x45524332303A206D696E7420746F20746865207A65726F206164647265737300 PUSH1 0x0 DUP3 ADD MSTORE POP JUMP JUMPDEST PUSH2 0x1A08 DUP2 PUSH2 0x1609 JUMP JUMPDEST DUP2 EQ PUSH2 0x1A13 JUMPI PUSH1 0x0 DUP1 REVERT JUMPDEST POP JUMP JUMPDEST PUSH2 0x1A1F DUP2 PUSH2 0x1647 JUMP JUMPDEST DUP2 EQ PUSH2 0x1A2A JUMPI PUSH1 0x0 DUP1 REVERT JUMPDEST POP JUMP INVALID LOG2 PUSH5 0x6970667358 0x22 SLT KECCAK256 0xEB PUSH1 0x51 MSTORE8 GASLIMIT 0xAA PUSH4 0xF050A51D CREATE2 GASPRICE KECCAK256 EXTCODECOPY SUB ORIGIN PUSH30 0x79D799FD3D941C5D3089A47A9DC664736F6C634300080400330000000000 "
				},
				"gasEstimates": {
					"creation": {
						"codeDepositCost": "1351000",
						"executionCost": "infinite",
						"totalCost": "infinite"
					},
					"external": {
						"addMinter(address)": "22465",
						"allowance(address,address)": "infinite",
						"approve(address,uint256)": "infinite",
						"balanceOf(address)": "1652",
						"decimals()": "388",
						"decreaseAllowance(address,uint256)": "infinite",
						"increaseAllowance(address,uint256)": "infinite",
						"mint(address,uint256)": "infinite",
						"minters(address)": "1655",
						"name()": "infinite",
						"owner()": "1267",
						"removeMinter(address)": "22399",
						"renounceOwnership()": "24421",
						"symbol()": "infinite",
						"totalSupply()": "1205",
						"transfer(address,uint256)": "infinite",
						"transferFrom(address,address,uint256)": "infinite",
						"transferOwnership(address)": "24835"
					}
				},
				"methodIdentifiers": {
					"addMinter(address)": "983b2d56",
					"allowance(address,address)": "dd62ed3e",
					"approve(address,uint256)": "095ea7b3",
					"balanceOf(address)": "70a08231",
					"decimals()": "313ce567",
					"decreaseAllowance(address,uint256)": "a457c2d7",
					"increaseAllowance(address,uint256)": "39509351",
					"mint(address,uint256)": "40c10f19",
					"minters(address)": "f46eccc4",
					"name()": "06fdde03",
					"owner()": "8da5cb5b",
					"removeMinter(address)": "3092afd5",
					"renounceOwnership()": "715018a6",
					"symbol()": "95d89b41",
					"totalSupply()": "18160ddd",
					"transfer(address,uint256)": "a9059cbb",
					"transferFrom(address,address,uint256)": "23b872dd",
					"transferOwnership(address)": "f2fde38b"
				}
			},
			"storageLayout": {
				"storage": [
					{
						"astId": 128,
						"contract": "contracts/ERC20/FlowerCoin.sol:FlowerCoin",
						"label": "_balances",
						"offset": 0,
						"slot": "0",
						"type": "t_mapping(t_address,t_uint256)"
					},
					{
						"astId": 134,
						"contract": "contracts/ERC20/FlowerCoin.sol:FlowerCoin",
						"label": "_allowances",
						"offset": 0,
						"slot": "1",
						"type": "t_mapping(t_address,t_mapping(t_address,t_uint256))"
					},
					{
						"astId": 136,
						"contract": "contracts/ERC20/FlowerCoin.sol:FlowerCoin",
						"label": "_totalSupply",
						"offset": 0,
						"slot": "2",
						"type": "t_uint256"
					},
					{
						"astId": 138,
						"contract": "contracts/ERC20/FlowerCoin.sol:FlowerCoin",
						"label": "_name",
						"offset": 0,
						"slot": "3",
						"type": "t_string_storage"
					},
					{
						"astId": 140,
						"contract": "contracts/ERC20/FlowerCoin.sol:FlowerCoin",
						"label": "_symbol",
						"offset": 0,
						"slot": "4",
						"type": "t_string_storage"
					},
					{
						"astId": 7,
						"contract": "contracts/ERC20/FlowerCoin.sol:FlowerCoin",
						"label": "_owner",
						"offset": 0,
						"slot": "5",
						"type": "t_address"
					},
					{
						"astId": 836,
						"contract": "contracts/ERC20/FlowerCoin.sol:FlowerCoin",
						"label": "minters",
						"offset": 0,
						"slot": "6",
						"type": "t_mapping(t_address,t_bool)"
					}
				],
				"types": {
					"t_address": {
						"encoding": "inplace",
						"label": "address",
						"numberOfBytes": "20"
					},
					"t_bool": {
						"encoding": "inplace",
						"label": "bool",
						"numberOfBytes": "1"
					},
					"t_mapping(t_address,t_bool)": {
						"encoding": "mapping",
						"key": "t_address",
						"label": "mapping(address => bool)",
						"numberOfBytes": "32",
						"value": "t_bool"
					},
					"t_mapping(t_address,t_mapping(t_address,t_uint256))": {
						"encoding": "mapping",
						"key": "t_address",
						"label": "mapping(address => mapping(address => uint256))",
						"numberOfBytes": "32",
						"value": "t_mapping(t_address,t_uint256)"
					},
					"t_mapping(t_address,t_uint256)": {
						"encoding": "mapping",
						"key": "t_address",
						"label": "mapping(address => uint256)",
						"numberOfBytes": "32",
						"value": "t_uint256"
					},
					"t_string_storage": {
						"encoding": "bytes",
						"label": "string",
						"numberOfBytes": "32"
					},
					"t_uint256": {
						"encoding": "inplace",
						"label": "uint256",
						"numberOfBytes": "32"
					}
				}
			},
			"userdoc": {
				"kind": "user",
				"methods": {},
				"version": 1
			}
		}
	}
}