{
	"data": {
		"bytecode": {
			"linkReferences": {},
			"object": "608060405234801561001057600080fd5b5060405161001d906100e7565b604051809103906000f080158015610039573d6000803e3d6000fd5b506000806101000a81548173ffffffffffffffffffffffffffffffffffffffff021916908373ffffffffffffffffffffffffffffffffffffffff160217905550604051610085906100f4565b604051809103906000f0801580156100a1573d6000803e3d6000fd5b50600160006101000a81548173ffffffffffffffffffffffffffffffffffffffff021916908373ffffffffffffffffffffffffffffffffffffffff160217905550610101565b6114e9806102c383390190565b610ee6806117ac83390190565b6101b3806101106000396000f3fe608060405234801561001057600080fd5b50600436106100365760003560e01c80631f054bbe1461003b578063b7f6d90614610059575b600080fd5b610043610077565b60405161005091906100fa565b60405180910390f35b61006161009b565b60405161006e91906100df565b60405180910390f35b60008054906101000a900473ffffffffffffffffffffffffffffffffffffffff1681565b600160009054906101000a900473ffffffffffffffffffffffffffffffffffffffff1681565b6100ca81610135565b82525050565b6100d981610159565b82525050565b60006020820190506100f460008301846100c1565b92915050565b600060208201905061010f60008301846100d0565b92915050565b600073ffffffffffffffffffffffffffffffffffffffff82169050919050565b600061014082610147565b9050919050565b600061015282610115565b9050919050565b60006101648261016b565b9050919050565b600061017682610115565b905091905056fea2646970667358221220eebe12fad151bff7c7fc0ef5f4755fb4f04f6b1c902f5e468ce14bac5fe4d86664736f6c6343000804003360806040523480156200001157600080fd5b5062000032620000266200004960201b60201c565b6200005160201b60201c565b62000043336200011560201b60201c565b62000381565b600033905090565b60008060009054906101000a900473ffffffffffffffffffffffffffffffffffffffff169050816000806101000a81548173ffffffffffffffffffffffffffffffffffffffff021916908373ffffffffffffffffffffffffffffffffffffffff1602179055508173ffffffffffffffffffffffffffffffffffffffff168173ffffffffffffffffffffffffffffffffffffffff167f8be0079c531659141344cd1fd0a4f28419497f9722a3daafe3b4186f6b6457e060405160405180910390a35050565b62000125620001ac60201b60201c565b600073ffffffffffffffffffffffffffffffffffffffff168173ffffffffffffffffffffffffffffffffffffffff16141562000198576040517f08c379a00000000000000000000000000000000000000000000000000000000081526004016200018f90620002b4565b60405180910390fd5b620001a9816200005160201b60201c565b50565b620001bc6200004960201b60201c565b73ffffffffffffffffffffffffffffffffffffffff16620001e26200023d60201b60201c565b73ffffffffffffffffffffffffffffffffffffffff16146200023b576040517f08c379a00000000000000000000000000000000000000000000000000000000081526004016200023290620002d6565b60405180910390fd5b565b60008060009054906101000a900473ffffffffffffffffffffffffffffffffffffffff16905090565b600062000275602683620002f8565b9150620002828262000309565b604082019050919050565b60006200029c602083620002f8565b9150620002a98262000358565b602082019050919050565b60006020820190508181036000830152620002cf8162000266565b9050919050565b60006020820190508181036000830152620002f1816200028d565b9050919050565b600082825260208201905092915050565b7f4f776e61626c653a206e6577206f776e657220697320746865207a65726f206160008201527f6464726573730000000000000000000000000000000000000000000000000000602082015250565b7f4f776e61626c653a2063616c6c6572206973206e6f7420746865206f776e6572600082015250565b61115880620003916000396000f3fe608060405234801561001057600080fd5b50600436106101585760003560e01c8063baafd2d8116100c3578063d89b5ed61161007c578063d89b5ed61461039b578063e468688e146103b7578063ee650665146103d3578063efe54dd5146103ef578063f2fde38b14610421578063f94762781461043d57610158565b8063baafd2d8146102db578063c39139911461030b578063ce5e936514610327578063cfd4f18a14610345578063d53045c814610361578063d89135cd1461037d57610158565b80637ab436f8116101155780637ab436f81461020957806385393a8e146102255780638da5cb5b1461024157806393f0f55a1461025f578063aee9c8721461027b578063b1398144146102ab57610158565b806318160ddd1461015d57806321e5383a1461017b5780634b9ecd54146101975780634eb84791146101b35780636e76c3cf146101cf578063715018a6146101ff575b600080fd5b610165610459565b6040516101729190610f24565b60405180910390f35b61019560048036038101906101909190610d45565b61045f565b005b6101b160048036038101906101ac9190610dd0565b6104c1565b005b6101cd60048036038101906101c89190610d81565b6104e5565b005b6101e960048036038101906101e49190610d1c565b61070e565b6040516101f69190610f24565b60405180910390f35b610207610726565b005b610223600480360381019061021e9190610d45565b61073a565b005b61023f600480360381019061023a9190610d45565b61078a565b005b6102496107da565b6040516102569190610eae565b60405180910390f35b61027960048036038101906102749190610dd0565b610803565b005b61029560048036038101906102909190610d1c565b610827565b6040516102a29190610f24565b60405180910390f35b6102c560048036038101906102c09190610d45565b61083f565b6040516102d29190610f09565b60405180910390f35b6102f560048036038101906102f09190610d1c565b6108c8565b6040516103029190610f24565b60405180910390f35b61032560048036038101906103209190610dd0565b6108e0565b005b61032f610904565b60405161033c9190610f24565b60405180910390f35b61035f600480360381019061035a9190610d45565b61090a565b005b61037b60048036038101906103769190610dd0565b61096c565b005b610385610990565b6040516103929190610f24565b60405180910390f35b6103b560048036038101906103b09190610d45565b610996565b005b6103d160048036038101906103cc9190610dd0565b610a0d565b005b6103ed60048036038101906103e89190610d81565b610a31565b005b61040960048036038101906104049190610d45565b610aa8565b60405161041893929190610f3f565b60405180910390f35b61043b60048036038101906104369190610d1c565b610adf565b005b61045760048036038101906104529190610dd0565b610b63565b005b60025481565b610467610b87565b80600160008473ffffffffffffffffffffffffffffffffffffffff1673ffffffffffffffffffffffffffffffffffffffff16815260200190815260200160002060008282546104b69190610f87565b925050819055505050565b6104c9610b87565b80600260008282546104db9190610fdd565b9250508190555050565b6104ed610b87565b60006040518060600160405280848152602001838152602001600081525090506000600660008673ffffffffffffffffffffffffffffffffffffffff1673ffffffffffffffffffffffffffffffffffffffff16815260200190815260200160002054905060006001826105609190610f87565b905082600760008873ffffffffffffffffffffffffffffffffffffffff1673ffffffffffffffffffffffffffffffffffffffff1681526020019081526020016000206000838152602001908152602001600020600082015181600001556020820151816001015560408201518160020155905050600082146106355780600760008873ffffffffffffffffffffffffffffffffffffffff1673ffffffffffffffffffffffffffffffffffffffff1681526020019081526020016000206000848152602001908152602001600020600201819055505b80600660008873ffffffffffffffffffffffffffffffffffffffff1673ffffffffffffffffffffffffffffffffffffffff168152602001908152602001600020819055506000600560008873ffffffffffffffffffffffffffffffffffffffff1673ffffffffffffffffffffffffffffffffffffffff1681526020019081526020016000205414156107065780600560008873ffffffffffffffffffffffffffffffffffffffff1673ffffffffffffffffffffffffffffffffffffffff168152602001908152602001600020819055505b505050505050565b60056020528060005260406000206000915090505481565b61072e610b87565b6107386000610c05565b565b610742610b87565b80600560008473ffffffffffffffffffffffffffffffffffffffff1673ffffffffffffffffffffffffffffffffffffffff168152602001908152602001600020819055505050565b610792610b87565b80600660008473ffffffffffffffffffffffffffffffffffffffff1673ffffffffffffffffffffffffffffffffffffffff168152602001908152602001600020819055505050565b60008060009054906101000a900473ffffffffffffffffffffffffffffffffffffffff16905090565b61080b610b87565b806004600082825461081d9190610f87565b9250508190555050565b60016020528060005260406000206000915090505481565b610847610cd1565b600760008473ffffffffffffffffffffffffffffffffffffffff1673ffffffffffffffffffffffffffffffffffffffff16815260200190815260200160002060008381526020019081526020016000206040518060600160405290816000820154815260200160018201548152602001600282015481525050905092915050565b60066020528060005260406000206000915090505481565b6108e8610b87565b80600460008282546108fa9190610fdd565b9250508190555050565b60035481565b610912610b87565b80600160008473ffffffffffffffffffffffffffffffffffffffff1673ffffffffffffffffffffffffffffffffffffffff16815260200190815260200160002060008282546109619190610fdd565b925050819055505050565b610974610b87565b80600360008282546109869190610f87565b9250508190555050565b60045481565b61099e610b87565b600760008373ffffffffffffffffffffffffffffffffffffffff1673ffffffffffffffffffffffffffffffffffffffff16815260200190815260200160002060008281526020019081526020016000206000808201600090556001820160009055600282016000905550505050565b610a15610b87565b8060026000828254610a279190610f87565b9250508190555050565b610a39610b87565b80600760008573ffffffffffffffffffffffffffffffffffffffff1673ffffffffffffffffffffffffffffffffffffffff16815260200190815260200160002060008481526020019081526020016000206001016000828254610a9c9190610fdd565b92505081905550505050565b6007602052816000526040600020602052806000526040600020600091509150508060000154908060010154908060020154905083565b610ae7610b87565b600073ffffffffffffffffffffffffffffffffffffffff168173ffffffffffffffffffffffffffffffffffffffff161415610b57576040517f08c379a0000000000000000000000000000000000000000000000000000000008152600401610b4e90610ec9565b60405180910390fd5b610b6081610c05565b50565b610b6b610b87565b8060036000828254610b7d9190610fdd565b9250508190555050565b610b8f610cc9565b73ffffffffffffffffffffffffffffffffffffffff16610bad6107da565b73ffffffffffffffffffffffffffffffffffffffff1614610c03576040517f08c379a0000000000000000000000000000000000000000000000000000000008152600401610bfa90610ee9565b60405180910390fd5b565b60008060009054906101000a900473ffffffffffffffffffffffffffffffffffffffff169050816000806101000a81548173ffffffffffffffffffffffffffffffffffffffff021916908373ffffffffffffffffffffffffffffffffffffffff1602179055508173ffffffffffffffffffffffffffffffffffffffff168173ffffffffffffffffffffffffffffffffffffffff167f8be0079c531659141344cd1fd0a4f28419497f9722a3daafe3b4186f6b6457e060405160405180910390a35050565b600033905090565b60405180606001604052806000815260200160008152602001600081525090565b600081359050610d01816110f4565b92915050565b600081359050610d168161110b565b92915050565b600060208284031215610d2e57600080fd5b6000610d3c84828501610cf2565b91505092915050565b60008060408385031215610d5857600080fd5b6000610d6685828601610cf2565b9250506020610d7785828601610d07565b9150509250929050565b600080600060608486031215610d9657600080fd5b6000610da486828701610cf2565b9350506020610db586828701610d07565b9250506040610dc686828701610d07565b9150509250925092565b600060208284031215610de257600080fd5b6000610df084828501610d07565b91505092915050565b610e0281611011565b82525050565b6000610e15602683610f76565b9150610e208261107c565b604082019050919050565b6000610e38602083610f76565b9150610e43826110cb565b602082019050919050565b606082016000820151610e646000850182610e90565b506020820151610e776020850182610e90565b506040820151610e8a6040850182610e90565b50505050565b610e9981611043565b82525050565b610ea881611043565b82525050565b6000602082019050610ec36000830184610df9565b92915050565b60006020820190508181036000830152610ee281610e08565b9050919050565b60006020820190508181036000830152610f0281610e2b565b9050919050565b6000606082019050610f1e6000830184610e4e565b92915050565b6000602082019050610f396000830184610e9f565b92915050565b6000606082019050610f546000830186610e9f565b610f616020830185610e9f565b610f6e6040830184610e9f565b949350505050565b600082825260208201905092915050565b6000610f9282611043565b9150610f9d83611043565b9250827fffffffffffffffffffffffffffffffffffffffffffffffffffffffffffffffff03821115610fd257610fd161104d565b5b828201905092915050565b6000610fe882611043565b9150610ff383611043565b9250828210156110065761100561104d565b5b828203905092915050565b600061101c82611023565b9050919050565b600073ffffffffffffffffffffffffffffffffffffffff82169050919050565b6000819050919050565b7f4e487b7100000000000000000000000000000000000000000000000000000000600052601160045260246000fd5b7f4f776e61626c653a206e6577206f776e657220697320746865207a65726f206160008201527f6464726573730000000000000000000000000000000000000000000000000000602082015250565b7f4f776e61626c653a2063616c6c6572206973206e6f7420746865206f776e6572600082015250565b6110fd81611011565b811461110857600080fd5b50565b61111481611043565b811461111f57600080fd5b5056fea26469706673582212200cc1e498e48a35f0deda2d2458cc22aeecaabd8ad1aa0540f1a0a7be05fba95464736f6c6343000804003360806040523480156200001157600080fd5b5062000032620000266200004960201b60201c565b6200005160201b60201c565b62000043336200011560201b60201c565b62000381565b600033905090565b60008060009054906101000a900473ffffffffffffffffffffffffffffffffffffffff169050816000806101000a81548173ffffffffffffffffffffffffffffffffffffffff021916908373ffffffffffffffffffffffffffffffffffffffff1602179055508173ffffffffffffffffffffffffffffffffffffffff168173ffffffffffffffffffffffffffffffffffffffff167f8be0079c531659141344cd1fd0a4f28419497f9722a3daafe3b4186f6b6457e060405160405180910390a35050565b62000125620001ac60201b60201c565b600073ffffffffffffffffffffffffffffffffffffffff168173ffffffffffffffffffffffffffffffffffffffff16141562000198576040517f08c379a00000000000000000000000000000000000000000000000000000000081526004016200018f90620002b4565b60405180910390fd5b620001a9816200005160201b60201c565b50565b620001bc6200004960201b60201c565b73ffffffffffffffffffffffffffffffffffffffff16620001e26200023d60201b60201c565b73ffffffffffffffffffffffffffffffffffffffff16146200023b576040517f08c379a00000000000000000000000000000000000000000000000000000000081526004016200023290620002d6565b60405180910390fd5b565b60008060009054906101000a900473ffffffffffffffffffffffffffffffffffffffff16905090565b600062000275602683620002f8565b9150620002828262000309565b604082019050919050565b60006200029c602083620002f8565b9150620002a98262000358565b602082019050919050565b60006020820190508181036000830152620002cf8162000266565b9050919050565b60006020820190508181036000830152620002f1816200028d565b9050919050565b600082825260208201905092915050565b7f4f776e61626c653a206e6577206f776e657220697320746865207a65726f206160008201527f6464726573730000000000000000000000000000000000000000000000000000602082015250565b7f4f776e61626c653a2063616c6c6572206973206e6f7420746865206f776e6572600082015250565b610b5580620003916000396000f3fe608060405234801561001057600080fd5b50600436106100935760003560e01c80639dc29fac116100665780639dc29fac146100fa578063aee9c87214610116578063beabacc814610146578063d89135cd14610162578063f2fde38b1461018057610093565b806318160ddd1461009857806340c10f19146100b6578063715018a6146100d25780638da5cb5b146100dc575b600080fd5b6100a061019c565b6040516100ad91906108ba565b60405180910390f35b6100d060048036038101906100cb9190610739565b6101a2565b005b6100da61021d565b005b6100e4610231565b6040516100f1919061081f565b60405180910390f35b610114600480360381019061010f9190610739565b61025a565b005b610130600480360381019061012b91906106c1565b610370565b60405161013d91906108ba565b60405180910390f35b610160600480360381019061015b91906106ea565b610388565b005b61016a6104c3565b60405161017791906108ba565b60405180910390f35b61019a600480360381019061019591906106c1565b6104c9565b005b60025481565b6101aa61054d565b80600160008473ffffffffffffffffffffffffffffffffffffffff1673ffffffffffffffffffffffffffffffffffffffff16815260200190815260200160002060008282546101f991906108e6565b92505081905550806002600082825461021291906108e6565b925050819055505050565b61022561054d565b61022f60006105cb565b565b60008060009054906101000a900473ffffffffffffffffffffffffffffffffffffffff16905090565b61026261054d565b80600160008473ffffffffffffffffffffffffffffffffffffffff1673ffffffffffffffffffffffffffffffffffffffff1681526020019081526020016000205410156102e4576040517f08c379a00000000000000000000000000000000000000000000000000000000081526004016102db9061087a565b60405180910390fd5b80600160008473ffffffffffffffffffffffffffffffffffffffff1673ffffffffffffffffffffffffffffffffffffffff1681526020019081526020016000206000828254610333919061093c565b92505081905550806002600082825461034c919061093c565b92505081905550806003600082825461036591906108e6565b925050819055505050565b60016020528060005260406000206000915090505481565b61039061054d565b80600160008573ffffffffffffffffffffffffffffffffffffffff1673ffffffffffffffffffffffffffffffffffffffff168152602001908152602001600020541015610412576040517f08c379a00000000000000000000000000000000000000000000000000000000081526004016104099061083a565b60405180910390fd5b80600160008573ffffffffffffffffffffffffffffffffffffffff1673ffffffffffffffffffffffffffffffffffffffff1681526020019081526020016000206000828254610461919061093c565b9250508190555080600160008473ffffffffffffffffffffffffffffffffffffffff1673ffffffffffffffffffffffffffffffffffffffff16815260200190815260200160002060008282546104b791906108e6565b92505081905550505050565b60035481565b6104d161054d565b600073ffffffffffffffffffffffffffffffffffffffff168173ffffffffffffffffffffffffffffffffffffffff161415610541576040517f08c379a00000000000000000000000000000000000000000000000000000000081526004016105389061085a565b60405180910390fd5b61054a816105cb565b50565b61055561068f565b73ffffffffffffffffffffffffffffffffffffffff16610573610231565b73ffffffffffffffffffffffffffffffffffffffff16146105c9576040517f08c379a00000000000000000000000000000000000000000000000000000000081526004016105c09061089a565b60405180910390fd5b565b60008060009054906101000a900473ffffffffffffffffffffffffffffffffffffffff169050816000806101000a81548173ffffffffffffffffffffffffffffffffffffffff021916908373ffffffffffffffffffffffffffffffffffffffff1602179055508173ffffffffffffffffffffffffffffffffffffffff168173ffffffffffffffffffffffffffffffffffffffff167f8be0079c531659141344cd1fd0a4f28419497f9722a3daafe3b4186f6b6457e060405160405180910390a35050565b600033905090565b6000813590506106a681610af1565b92915050565b6000813590506106bb81610b08565b92915050565b6000602082840312156106d357600080fd5b60006106e184828501610697565b91505092915050565b6000806000606084860312156106ff57600080fd5b600061070d86828701610697565b935050602061071e86828701610697565b925050604061072f868287016106ac565b9150509250925092565b6000806040838503121561074c57600080fd5b600061075a85828601610697565b925050602061076b858286016106ac565b9150509250929050565b61077e81610970565b82525050565b60006107916039836108d5565b915061079c826109db565b604082019050919050565b60006107b46026836108d5565b91506107bf82610a2a565b604082019050919050565b60006107d76030836108d5565b91506107e282610a79565b604082019050919050565b60006107fa6020836108d5565b915061080582610ac8565b602082019050919050565b610819816109a2565b82525050565b60006020820190506108346000830184610775565b92915050565b6000602082019050818103600083015261085381610784565b9050919050565b60006020820190508181036000830152610873816107a7565b9050919050565b60006020820190508181036000830152610893816107ca565b9050919050565b600060208201905081810360008301526108b3816107ed565b9050919050565b60006020820190506108cf6000830184610810565b92915050565b600082825260208201905092915050565b60006108f1826109a2565b91506108fc836109a2565b9250827fffffffffffffffffffffffffffffffffffffffffffffffffffffffffffffffff03821115610931576109306109ac565b5b828201905092915050565b6000610947826109a2565b9150610952836109a2565b925082821015610965576109646109ac565b5b828203905092915050565b600061097b82610982565b9050919050565b600073ffffffffffffffffffffffffffffffffffffffff82169050919050565b6000819050919050565b7f4e487b7100000000000000000000000000000000000000000000000000000000600052601160045260246000fd5b7f46726f6d206164647265737320646f6573206e6f74206861766520656e6f756760008201527f6820466c6f776572436f696e7320746f207472616e7366657200000000000000602082015250565b7f4f776e61626c653a206e6577206f776e657220697320746865207a65726f206160008201527f6464726573730000000000000000000000000000000000000000000000000000602082015250565b7f4164647265737320646f6573206e6f74206861766520656e6f75676820466c6f60008201527f776572436f696e7320746f206275726e00000000000000000000000000000000602082015250565b7f4f776e61626c653a2063616c6c6572206973206e6f7420746865206f776e6572600082015250565b610afa81610970565b8114610b0557600080fd5b50565b610b11816109a2565b8114610b1c57600080fd5b5056fea2646970667358221220db4759f687203e3ac1b048fe1c9cd5f3393feb8453e8adde2ad05ab72636284a64736f6c63430008040033",
			"opcodes": "PUSH1 0x80 PUSH1 0x40 MSTORE CALLVALUE DUP1 ISZERO PUSH2 0x10 JUMPI PUSH1 0x0 DUP1 REVERT JUMPDEST POP PUSH1 0x40 MLOAD PUSH2 0x1D SWAP1 PUSH2 0xE7 JUMP JUMPDEST PUSH1 0x40 MLOAD DUP1 SWAP2 SUB SWAP1 PUSH1 0x0 CREATE DUP1 ISZERO DUP1 ISZERO PUSH2 0x39 JUMPI RETURNDATASIZE PUSH1 0x0 DUP1 RETURNDATACOPY RETURNDATASIZE PUSH1 0x0 REVERT JUMPDEST POP PUSH1 0x0 DUP1 PUSH2 0x100 EXP DUP2 SLOAD DUP2 PUSH20 0xFFFFFFFFFFFFFFFFFFFFFFFFFFFFFFFFFFFFFFFF MUL NOT AND SWAP1 DUP4 PUSH20 0xFFFFFFFFFFFFFFFFFFFFFFFFFFFFFFFFFFFFFFFF AND MUL OR SWAP1 SSTORE POP PUSH1 0x40 MLOAD PUSH2 0x85 SWAP1 PUSH2 0xF4 JUMP JUMPDEST PUSH1 0x40 MLOAD DUP1 SWAP2 SUB SWAP1 PUSH1 0x0 CREATE DUP1 ISZERO DUP1 ISZERO PUSH2 0xA1 JUMPI RETURNDATASIZE PUSH1 0x0 DUP1 RETURNDATACOPY RETURNDATASIZE PUSH1 0x0 REVERT JUMPDEST POP PUSH1 0x1 PUSH1 0x0 PUSH2 0x100 EXP DUP2 SLOAD DUP2 PUSH20 0xFFFFFFFFFFFFFFFFFFFFFFFFFFFFFFFFFFFFFFFF MUL NOT AND SWAP1 DUP4 PUSH20 0xFFFFFFFFFFFFFFFFFFFFFFFFFFFFFFFFFFFFFFFF AND MUL OR SWAP1 SSTORE POP PUSH2 0x101 JUMP JUMPDEST PUSH2 0x14E9 DUP1 PUSH2 0x2C3 DUP4 CODECOPY ADD SWAP1 JUMP JUMPDEST PUSH2 0xEE6 DUP1 PUSH2 0x17AC DUP4 CODECOPY ADD SWAP1 JUMP JUMPDEST PUSH2 0x1B3 DUP1 PUSH2 0x110 PUSH1 0x0 CODECOPY PUSH1 0x0 RETURN INVALID PUSH1 0x80 PUSH1 0x40 MSTORE CALLVALUE DUP1 ISZERO PUSH2 0x10 JUMPI PUSH1 0x0 DUP1 REVERT JUMPDEST POP PUSH1 0x4 CALLDATASIZE LT PUSH2 0x36 JUMPI PUSH1 0x0 CALLDATALOAD PUSH1 0xE0 SHR DUP1 PUSH4 0x1F054BBE EQ PUSH2 0x3B JUMPI DUP1 PUSH4 0xB7F6D906 EQ PUSH2 0x59 JUMPI JUMPDEST PUSH1 0x0 DUP1 REVERT JUMPDEST PUSH2 0x43 PUSH2 0x77 JUMP JUMPDEST PUSH1 0x40 MLOAD PUSH2 0x50 SWAP2 SWAP1 PUSH2 0xFA JUMP JUMPDEST PUSH1 0x40 MLOAD DUP1 SWAP2 SUB SWAP1 RETURN JUMPDEST PUSH2 0x61 PUSH2 0x9B JUMP JUMPDEST PUSH1 0x40 MLOAD PUSH2 0x6E SWAP2 SWAP1 PUSH2 0xDF JUMP JUMPDEST PUSH1 0x40 MLOAD DUP1 SWAP2 SUB SWAP1 RETURN JUMPDEST PUSH1 0x0 DUP1 SLOAD SWAP1 PUSH2 0x100 EXP SWAP1 DIV PUSH20 0xFFFFFFFFFFFFFFFFFFFFFFFFFFFFFFFFFFFFFFFF AND DUP2 JUMP JUMPDEST PUSH1 0x1 PUSH1 0x0 SWAP1 SLOAD SWAP1 PUSH2 0x100 EXP SWAP1 DIV PUSH20 0xFFFFFFFFFFFFFFFFFFFFFFFFFFFFFFFFFFFFFFFF AND DUP2 JUMP JUMPDEST PUSH2 0xCA DUP2 PUSH2 0x135 JUMP JUMPDEST DUP3 MSTORE POP POP JUMP JUMPDEST PUSH2 0xD9 DUP2 PUSH2 0x159 JUMP JUMPDEST DUP3 MSTORE POP POP JUMP JUMPDEST PUSH1 0x0 PUSH1 0x20 DUP3 ADD SWAP1 POP PUSH2 0xF4 PUSH1 0x0 DUP4 ADD DUP5 PUSH2 0xC1 JUMP JUMPDEST SWAP3 SWAP2 POP POP JUMP JUMPDEST PUSH1 0x0 PUSH1 0x20 DUP3 ADD SWAP1 POP PUSH2 0x10F PUSH1 0x0 DUP4 ADD DUP5 PUSH2 0xD0 JUMP JUMPDEST SWAP3 SWAP2 POP POP JUMP JUMPDEST PUSH1 0x0 PUSH20 0xFFFFFFFFFFFFFFFFFFFFFFFFFFFFFFFFFFFFFFFF DUP3 AND SWAP1 POP SWAP2 SWAP1 POP JUMP JUMPDEST PUSH1 0x0 PUSH2 0x140 DUP3 PUSH2 0x147 JUMP JUMPDEST SWAP1 POP SWAP2 SWAP1 POP JUMP JUMPDEST PUSH1 0x0 PUSH2 0x152 DUP3 PUSH2 0x115 JUMP JUMPDEST SWAP1 POP SWAP2 SWAP1 POP JUMP JUMPDEST PUSH1 0x0 PUSH2 0x164 DUP3 PUSH2 0x16B JUMP JUMPDEST SWAP1 POP SWAP2 SWAP1 POP JUMP JUMPDEST PUSH1 0x0 PUSH2 0x176 DUP3 PUSH2 0x115 JUMP JUMPDEST SWAP1 POP SWAP2 SWAP1 POP JUMP INVALID LOG2 PUSH5 0x6970667358 0x22 SLT KECCAK256 0xEE 0xBE SLT STATICCALL 0xD1 MLOAD 0xBF 0xF7 0xC7 0xFC 0xE CREATE2 DELEGATECALL PUSH22 0x5FB4F04F6B1C902F5E468CE14BAC5FE4D86664736F6C PUSH4 0x43000804 STOP CALLER PUSH1 0x80 PUSH1 0x40 MSTORE CALLVALUE DUP1 ISZERO PUSH3 0x11 JUMPI PUSH1 0x0 DUP1 REVERT JUMPDEST POP PUSH3 0x32 PUSH3 0x26 PUSH3 0x49 PUSH1 0x20 SHL PUSH1 0x20 SHR JUMP JUMPDEST PUSH3 0x51 PUSH1 0x20 SHL PUSH1 0x20 SHR JUMP JUMPDEST PUSH3 0x43 CALLER PUSH3 0x115 PUSH1 0x20 SHL PUSH1 0x20 SHR JUMP JUMPDEST PUSH3 0x381 JUMP JUMPDEST PUSH1 0x0 CALLER SWAP1 POP SWAP1 JUMP JUMPDEST PUSH1 0x0 DUP1 PUSH1 0x0 SWAP1 SLOAD SWAP1 PUSH2 0x100 EXP SWAP1 DIV PUSH20 0xFFFFFFFFFFFFFFFFFFFFFFFFFFFFFFFFFFFFFFFF AND SWAP1 POP DUP2 PUSH1 0x0 DUP1 PUSH2 0x100 EXP DUP2 SLOAD DUP2 PUSH20 0xFFFFFFFFFFFFFFFFFFFFFFFFFFFFFFFFFFFFFFFF MUL NOT AND SWAP1 DUP4 PUSH20 0xFFFFFFFFFFFFFFFFFFFFFFFFFFFFFFFFFFFFFFFF AND MUL OR SWAP1 SSTORE POP DUP2 PUSH20 0xFFFFFFFFFFFFFFFFFFFFFFFFFFFFFFFFFFFFFFFF AND DUP2 PUSH20 0xFFFFFFFFFFFFFFFFFFFFFFFFFFFFFFFFFFFFFFFF AND PUSH32 0x8BE0079C531659141344CD1FD0A4F28419497F9722A3DAAFE3B4186F6B6457E0 PUSH1 0x40 MLOAD PUSH1 0x40 MLOAD DUP1 SWAP2 SUB SWAP1 LOG3 POP POP JUMP JUMPDEST PUSH3 0x125 PUSH3 0x1AC PUSH1 0x20 SHL PUSH1 0x20 SHR JUMP JUMPDEST PUSH1 0x0 PUSH20 0xFFFFFFFFFFFFFFFFFFFFFFFFFFFFFFFFFFFFFFFF AND DUP2 PUSH20 0xFFFFFFFFFFFFFFFFFFFFFFFFFFFFFFFFFFFFFFFF AND EQ ISZERO PUSH3 0x198 JUMPI PUSH1 0x40 MLOAD PUSH32 0x8C379A000000000000000000000000000000000000000000000000000000000 DUP2 MSTORE PUSH1 0x4 ADD PUSH3 0x18F SWAP1 PUSH3 0x2B4 JUMP JUMPDEST PUSH1 0x40 MLOAD DUP1 SWAP2 SUB SWAP1 REVERT JUMPDEST PUSH3 0x1A9 DUP2 PUSH3 0x51 PUSH1 0x20 SHL PUSH1 0x20 SHR JUMP JUMPDEST POP JUMP JUMPDEST PUSH3 0x1BC PUSH3 0x49 PUSH1 0x20 SHL PUSH1 0x20 SHR JUMP JUMPDEST PUSH20 0xFFFFFFFFFFFFFFFFFFFFFFFFFFFFFFFFFFFFFFFF AND PUSH3 0x1E2 PUSH3 0x23D PUSH1 0x20 SHL PUSH1 0x20 SHR JUMP JUMPDEST PUSH20 0xFFFFFFFFFFFFFFFFFFFFFFFFFFFFFFFFFFFFFFFF AND EQ PUSH3 0x23B JUMPI PUSH1 0x40 MLOAD PUSH32 0x8C379A000000000000000000000000000000000000000000000000000000000 DUP2 MSTORE PUSH1 0x4 ADD PUSH3 0x232 SWAP1 PUSH3 0x2D6 JUMP JUMPDEST PUSH1 0x40 MLOAD DUP1 SWAP2 SUB SWAP1 REVERT JUMPDEST JUMP JUMPDEST PUSH1 0x0 DUP1 PUSH1 0x0 SWAP1 SLOAD SWAP1 PUSH2 0x100 EXP SWAP1 DIV PUSH20 0xFFFFFFFFFFFFFFFFFFFFFFFFFFFFFFFFFFFFFFFF AND SWAP1 POP SWAP1 JUMP JUMPDEST PUSH1 0x0 PUSH3 0x275 PUSH1 0x26 DUP4 PUSH3 0x2F8 JUMP JUMPDEST SWAP2 POP PUSH3 0x282 DUP3 PUSH3 0x309 JUMP JUMPDEST PUSH1 0x40 DUP3 ADD SWAP1 POP SWAP2 SWAP1 POP JUMP JUMPDEST PUSH1 0x0 PUSH3 0x29C PUSH1 0x20 DUP4 PUSH3 0x2F8 JUMP JUMPDEST SWAP2 POP PUSH3 0x2A9 DUP3 PUSH3 0x358 JUMP JUMPDEST PUSH1 0x20 DUP3 ADD SWAP1 POP SWAP2 SWAP1 POP JUMP JUMPDEST PUSH1 0x0 PUSH1 0x20 DUP3 ADD SWAP1 POP DUP2 DUP2 SUB PUSH1 0x0 DUP4 ADD MSTORE PUSH3 0x2CF DUP2 PUSH3 0x266 JUMP JUMPDEST SWAP1 POP SWAP2 SWAP1 POP JUMP JUMPDEST PUSH1 0x0 PUSH1 0x20 DUP3 ADD SWAP1 POP DUP2 DUP2 SUB PUSH1 0x0 DUP4 ADD MSTORE PUSH3 0x2F1 DUP2 PUSH3 0x28D JUMP JUMPDEST SWAP1 POP SWAP2 SWAP1 POP JUMP JUMPDEST PUSH1 0x0 DUP3 DUP3 MSTORE PUSH1 0x20 DUP3 ADD SWAP1 POP SWAP3 SWAP2 POP POP JUMP JUMPDEST PUSH32 0x4F776E61626C653A206E6577206F776E657220697320746865207A65726F2061 PUSH1 0x0 DUP3 ADD MSTORE PUSH32 0x6464726573730000000000000000000000000000000000000000000000000000 PUSH1 0x20 DUP3 ADD MSTORE POP JUMP JUMPDEST PUSH32 0x4F776E61626C653A2063616C6C6572206973206E6F7420746865206F776E6572 PUSH1 0x0 DUP3 ADD MSTORE POP JUMP JUMPDEST PUSH2 0x1158 DUP1 PUSH3 0x391 PUSH1 0x0 CODECOPY PUSH1 0x0 RETURN INVALID PUSH1 0x80 PUSH1 0x40 MSTORE CALLVALUE DUP1 ISZERO PUSH2 0x10 JUMPI PUSH1 0x0 DUP1 REVERT JUMPDEST POP PUSH1 0x4 CALLDATASIZE LT PUSH2 0x158 JUMPI PUSH1 0x0 CALLDATALOAD PUSH1 0xE0 SHR DUP1 PUSH4 0xBAAFD2D8 GT PUSH2 0xC3 JUMPI DUP1 PUSH4 0xD89B5ED6 GT PUSH2 0x7C JUMPI DUP1 PUSH4 0xD89B5ED6 EQ PUSH2 0x39B JUMPI DUP1 PUSH4 0xE468688E EQ PUSH2 0x3B7 JUMPI DUP1 PUSH4 0xEE650665 EQ PUSH2 0x3D3 JUMPI DUP1 PUSH4 0xEFE54DD5 EQ PUSH2 0x3EF JUMPI DUP1 PUSH4 0xF2FDE38B EQ PUSH2 0x421 JUMPI DUP1 PUSH4 0xF9476278 EQ PUSH2 0x43D JUMPI PUSH2 0x158 JUMP JUMPDEST DUP1 PUSH4 0xBAAFD2D8 EQ PUSH2 0x2DB JUMPI DUP1 PUSH4 0xC3913991 EQ PUSH2 0x30B JUMPI DUP1 PUSH4 0xCE5E9365 EQ PUSH2 0x327 JUMPI DUP1 PUSH4 0xCFD4F18A EQ PUSH2 0x345 JUMPI DUP1 PUSH4 0xD53045C8 EQ PUSH2 0x361 JUMPI DUP1 PUSH4 0xD89135CD EQ PUSH2 0x37D JUMPI PUSH2 0x158 JUMP JUMPDEST DUP1 PUSH4 0x7AB436F8 GT PUSH2 0x115 JUMPI DUP1 PUSH4 0x7AB436F8 EQ PUSH2 0x209 JUMPI DUP1 PUSH4 0x85393A8E EQ PUSH2 0x225 JUMPI DUP1 PUSH4 0x8DA5CB5B EQ PUSH2 0x241 JUMPI DUP1 PUSH4 0x93F0F55A EQ PUSH2 0x25F JUMPI DUP1 PUSH4 0xAEE9C872 EQ PUSH2 0x27B JUMPI DUP1 PUSH4 0xB1398144 EQ PUSH2 0x2AB JUMPI PUSH2 0x158 JUMP JUMPDEST DUP1 PUSH4 0x18160DDD EQ PUSH2 0x15D JUMPI DUP1 PUSH4 0x21E5383A EQ PUSH2 0x17B JUMPI DUP1 PUSH4 0x4B9ECD54 EQ PUSH2 0x197 JUMPI DUP1 PUSH4 0x4EB84791 EQ PUSH2 0x1B3 JUMPI DUP1 PUSH4 0x6E76C3CF EQ PUSH2 0x1CF JUMPI DUP1 PUSH4 0x715018A6 EQ PUSH2 0x1FF JUMPI JUMPDEST PUSH1 0x0 DUP1 REVERT JUMPDEST PUSH2 0x165 PUSH2 0x459 JUMP JUMPDEST PUSH1 0x40 MLOAD PUSH2 0x172 SWAP2 SWAP1 PUSH2 0xF24 JUMP JUMPDEST PUSH1 0x40 MLOAD DUP1 SWAP2 SUB SWAP1 RETURN JUMPDEST PUSH2 0x195 PUSH1 0x4 DUP1 CALLDATASIZE SUB DUP2 ADD SWAP1 PUSH2 0x190 SWAP2 SWAP1 PUSH2 0xD45 JUMP JUMPDEST PUSH2 0x45F JUMP JUMPDEST STOP JUMPDEST PUSH2 0x1B1 PUSH1 0x4 DUP1 CALLDATASIZE SUB DUP2 ADD SWAP1 PUSH2 0x1AC SWAP2 SWAP1 PUSH2 0xDD0 JUMP JUMPDEST PUSH2 0x4C1 JUMP JUMPDEST STOP JUMPDEST PUSH2 0x1CD PUSH1 0x4 DUP1 CALLDATASIZE SUB DUP2 ADD SWAP1 PUSH2 0x1C8 SWAP2 SWAP1 PUSH2 0xD81 JUMP JUMPDEST PUSH2 0x4E5 JUMP JUMPDEST STOP JUMPDEST PUSH2 0x1E9 PUSH1 0x4 DUP1 CALLDATASIZE SUB DUP2 ADD SWAP1 PUSH2 0x1E4 SWAP2 SWAP1 PUSH2 0xD1C JUMP JUMPDEST PUSH2 0x70E JUMP JUMPDEST PUSH1 0x40 MLOAD PUSH2 0x1F6 SWAP2 SWAP1 PUSH2 0xF24 JUMP JUMPDEST PUSH1 0x40 MLOAD DUP1 SWAP2 SUB SWAP1 RETURN JUMPDEST PUSH2 0x207 PUSH2 0x726 JUMP JUMPDEST STOP JUMPDEST PUSH2 0x223 PUSH1 0x4 DUP1 CALLDATASIZE SUB DUP2 ADD SWAP1 PUSH2 0x21E SWAP2 SWAP1 PUSH2 0xD45 JUMP JUMPDEST PUSH2 0x73A JUMP JUMPDEST STOP JUMPDEST PUSH2 0x23F PUSH1 0x4 DUP1 CALLDATASIZE SUB DUP2 ADD SWAP1 PUSH2 0x23A SWAP2 SWAP1 PUSH2 0xD45 JUMP JUMPDEST PUSH2 0x78A JUMP JUMPDEST STOP JUMPDEST PUSH2 0x249 PUSH2 0x7DA JUMP JUMPDEST PUSH1 0x40 MLOAD PUSH2 0x256 SWAP2 SWAP1 PUSH2 0xEAE JUMP JUMPDEST PUSH1 0x40 MLOAD DUP1 SWAP2 SUB SWAP1 RETURN JUMPDEST PUSH2 0x279 PUSH1 0x4 DUP1 CALLDATASIZE SUB DUP2 ADD SWAP1 PUSH2 0x274 SWAP2 SWAP1 PUSH2 0xDD0 JUMP JUMPDEST PUSH2 0x803 JUMP JUMPDEST STOP JUMPDEST PUSH2 0x295 PUSH1 0x4 DUP1 CALLDATASIZE SUB DUP2 ADD SWAP1 PUSH2 0x290 SWAP2 SWAP1 PUSH2 0xD1C JUMP JUMPDEST PUSH2 0x827 JUMP JUMPDEST PUSH1 0x40 MLOAD PUSH2 0x2A2 SWAP2 SWAP1 PUSH2 0xF24 JUMP JUMPDEST PUSH1 0x40 MLOAD DUP1 SWAP2 SUB SWAP1 RETURN JUMPDEST PUSH2 0x2C5 PUSH1 0x4 DUP1 CALLDATASIZE SUB DUP2 ADD SWAP1 PUSH2 0x2C0 SWAP2 SWAP1 PUSH2 0xD45 JUMP JUMPDEST PUSH2 0x83F JUMP JUMPDEST PUSH1 0x40 MLOAD PUSH2 0x2D2 SWAP2 SWAP1 PUSH2 0xF09 JUMP JUMPDEST PUSH1 0x40 MLOAD DUP1 SWAP2 SUB SWAP1 RETURN JUMPDEST PUSH2 0x2F5 PUSH1 0x4 DUP1 CALLDATASIZE SUB DUP2 ADD SWAP1 PUSH2 0x2F0 SWAP2 SWAP1 PUSH2 0xD1C JUMP JUMPDEST PUSH2 0x8C8 JUMP JUMPDEST PUSH1 0x40 MLOAD PUSH2 0x302 SWAP2 SWAP1 PUSH2 0xF24 JUMP JUMPDEST PUSH1 0x40 MLOAD DUP1 SWAP2 SUB SWAP1 RETURN JUMPDEST PUSH2 0x325 PUSH1 0x4 DUP1 CALLDATASIZE SUB DUP2 ADD SWAP1 PUSH2 0x320 SWAP2 SWAP1 PUSH2 0xDD0 JUMP JUMPDEST PUSH2 0x8E0 JUMP JUMPDEST STOP JUMPDEST PUSH2 0x32F PUSH2 0x904 JUMP JUMPDEST PUSH1 0x40 MLOAD PUSH2 0x33C SWAP2 SWAP1 PUSH2 0xF24 JUMP JUMPDEST PUSH1 0x40 MLOAD DUP1 SWAP2 SUB SWAP1 RETURN JUMPDEST PUSH2 0x35F PUSH1 0x4 DUP1 CALLDATASIZE SUB DUP2 ADD SWAP1 PUSH2 0x35A SWAP2 SWAP1 PUSH2 0xD45 JUMP JUMPDEST PUSH2 0x90A JUMP JUMPDEST STOP JUMPDEST PUSH2 0x37B PUSH1 0x4 DUP1 CALLDATASIZE SUB DUP2 ADD SWAP1 PUSH2 0x376 SWAP2 SWAP1 PUSH2 0xDD0 JUMP JUMPDEST PUSH2 0x96C JUMP JUMPDEST STOP JUMPDEST PUSH2 0x385 PUSH2 0x990 JUMP JUMPDEST PUSH1 0x40 MLOAD PUSH2 0x392 SWAP2 SWAP1 PUSH2 0xF24 JUMP JUMPDEST PUSH1 0x40 MLOAD DUP1 SWAP2 SUB SWAP1 RETURN JUMPDEST PUSH2 0x3B5 PUSH1 0x4 DUP1 CALLDATASIZE SUB DUP2 ADD SWAP1 PUSH2 0x3B0 SWAP2 SWAP1 PUSH2 0xD45 JUMP JUMPDEST PUSH2 0x996 JUMP JUMPDEST STOP JUMPDEST PUSH2 0x3D1 PUSH1 0x4 DUP1 CALLDATASIZE SUB DUP2 ADD SWAP1 PUSH2 0x3CC SWAP2 SWAP1 PUSH2 0xDD0 JUMP JUMPDEST PUSH2 0xA0D JUMP JUMPDEST STOP JUMPDEST PUSH2 0x3ED PUSH1 0x4 DUP1 CALLDATASIZE SUB DUP2 ADD SWAP1 PUSH2 0x3E8 SWAP2 SWAP1 PUSH2 0xD81 JUMP JUMPDEST PUSH2 0xA31 JUMP JUMPDEST STOP JUMPDEST PUSH2 0x409 PUSH1 0x4 DUP1 CALLDATASIZE SUB DUP2 ADD SWAP1 PUSH2 0x404 SWAP2 SWAP1 PUSH2 0xD45 JUMP JUMPDEST PUSH2 0xAA8 JUMP JUMPDEST PUSH1 0x40 MLOAD PUSH2 0x418 SWAP4 SWAP3 SWAP2 SWAP1 PUSH2 0xF3F JUMP JUMPDEST PUSH1 0x40 MLOAD DUP1 SWAP2 SUB SWAP1 RETURN JUMPDEST PUSH2 0x43B PUSH1 0x4 DUP1 CALLDATASIZE SUB DUP2 ADD SWAP1 PUSH2 0x436 SWAP2 SWAP1 PUSH2 0xD1C JUMP JUMPDEST PUSH2 0xADF JUMP JUMPDEST STOP JUMPDEST PUSH2 0x457 PUSH1 0x4 DUP1 CALLDATASIZE SUB DUP2 ADD SWAP1 PUSH2 0x452 SWAP2 SWAP1 PUSH2 0xDD0 JUMP JUMPDEST PUSH2 0xB63 JUMP JUMPDEST STOP JUMPDEST PUSH1 0x2 SLOAD DUP2 JUMP JUMPDEST PUSH2 0x467 PUSH2 0xB87 JUMP JUMPDEST DUP1 PUSH1 0x1 PUSH1 0x0 DUP5 PUSH20 0xFFFFFFFFFFFFFFFFFFFFFFFFFFFFFFFFFFFFFFFF AND PUSH20 0xFFFFFFFFFFFFFFFFFFFFFFFFFFFFFFFFFFFFFFFF AND DUP2 MSTORE PUSH1 0x20 ADD SWAP1 DUP2 MSTORE PUSH1 0x20 ADD PUSH1 0x0 KECCAK256 PUSH1 0x0 DUP3 DUP3 SLOAD PUSH2 0x4B6 SWAP2 SWAP1 PUSH2 0xF87 JUMP JUMPDEST SWAP3 POP POP DUP2 SWAP1 SSTORE POP POP POP JUMP JUMPDEST PUSH2 0x4C9 PUSH2 0xB87 JUMP JUMPDEST DUP1 PUSH1 0x2 PUSH1 0x0 DUP3 DUP3 SLOAD PUSH2 0x4DB SWAP2 SWAP1 PUSH2 0xFDD JUMP JUMPDEST SWAP3 POP POP DUP2 SWAP1 SSTORE POP POP JUMP JUMPDEST PUSH2 0x4ED PUSH2 0xB87 JUMP JUMPDEST PUSH1 0x0 PUSH1 0x40 MLOAD DUP1 PUSH1 0x60 ADD PUSH1 0x40 MSTORE DUP1 DUP5 DUP2 MSTORE PUSH1 0x20 ADD DUP4 DUP2 MSTORE PUSH1 0x20 ADD PUSH1 0x0 DUP2 MSTORE POP SWAP1 POP PUSH1 0x0 PUSH1 0x6 PUSH1 0x0 DUP7 PUSH20 0xFFFFFFFFFFFFFFFFFFFFFFFFFFFFFFFFFFFFFFFF AND PUSH20 0xFFFFFFFFFFFFFFFFFFFFFFFFFFFFFFFFFFFFFFFF AND DUP2 MSTORE PUSH1 0x20 ADD SWAP1 DUP2 MSTORE PUSH1 0x20 ADD PUSH1 0x0 KECCAK256 SLOAD SWAP1 POP PUSH1 0x0 PUSH1 0x1 DUP3 PUSH2 0x560 SWAP2 SWAP1 PUSH2 0xF87 JUMP JUMPDEST SWAP1 POP DUP3 PUSH1 0x7 PUSH1 0x0 DUP9 PUSH20 0xFFFFFFFFFFFFFFFFFFFFFFFFFFFFFFFFFFFFFFFF AND PUSH20 0xFFFFFFFFFFFFFFFFFFFFFFFFFFFFFFFFFFFFFFFF AND DUP2 MSTORE PUSH1 0x20 ADD SWAP1 DUP2 MSTORE PUSH1 0x20 ADD PUSH1 0x0 KECCAK256 PUSH1 0x0 DUP4 DUP2 MSTORE PUSH1 0x20 ADD SWAP1 DUP2 MSTORE PUSH1 0x20 ADD PUSH1 0x0 KECCAK256 PUSH1 0x0 DUP3 ADD MLOAD DUP2 PUSH1 0x0 ADD SSTORE PUSH1 0x20 DUP3 ADD MLOAD DUP2 PUSH1 0x1 ADD SSTORE PUSH1 0x40 DUP3 ADD MLOAD DUP2 PUSH1 0x2 ADD SSTORE SWAP1 POP POP PUSH1 0x0 DUP3 EQ PUSH2 0x635 JUMPI DUP1 PUSH1 0x7 PUSH1 0x0 DUP9 PUSH20 0xFFFFFFFFFFFFFFFFFFFFFFFFFFFFFFFFFFFFFFFF AND PUSH20 0xFFFFFFFFFFFFFFFFFFFFFFFFFFFFFFFFFFFFFFFF AND DUP2 MSTORE PUSH1 0x20 ADD SWAP1 DUP2 MSTORE PUSH1 0x20 ADD PUSH1 0x0 KECCAK256 PUSH1 0x0 DUP5 DUP2 MSTORE PUSH1 0x20 ADD SWAP1 DUP2 MSTORE PUSH1 0x20 ADD PUSH1 0x0 KECCAK256 PUSH1 0x2 ADD DUP2 SWAP1 SSTORE POP JUMPDEST DUP1 PUSH1 0x6 PUSH1 0x0 DUP9 PUSH20 0xFFFFFFFFFFFFFFFFFFFFFFFFFFFFFFFFFFFFFFFF AND PUSH20 0xFFFFFFFFFFFFFFFFFFFFFFFFFFFFFFFFFFFFFFFF AND DUP2 MSTORE PUSH1 0x20 ADD SWAP1 DUP2 MSTORE PUSH1 0x20 ADD PUSH1 0x0 KECCAK256 DUP2 SWAP1 SSTORE POP PUSH1 0x0 PUSH1 0x5 PUSH1 0x0 DUP9 PUSH20 0xFFFFFFFFFFFFFFFFFFFFFFFFFFFFFFFFFFFFFFFF AND PUSH20 0xFFFFFFFFFFFFFFFFFFFFFFFFFFFFFFFFFFFFFFFF AND DUP2 MSTORE PUSH1 0x20 ADD SWAP1 DUP2 MSTORE PUSH1 0x20 ADD PUSH1 0x0 KECCAK256 SLOAD EQ ISZERO PUSH2 0x706 JUMPI DUP1 PUSH1 0x5 PUSH1 0x0 DUP9 PUSH20 0xFFFFFFFFFFFFFFFFFFFFFFFFFFFFFFFFFFFFFFFF AND PUSH20 0xFFFFFFFFFFFFFFFFFFFFFFFFFFFFFFFFFFFFFFFF AND DUP2 MSTORE PUSH1 0x20 ADD SWAP1 DUP2 MSTORE PUSH1 0x20 ADD PUSH1 0x0 KECCAK256 DUP2 SWAP1 SSTORE POP JUMPDEST POP POP POP POP POP POP JUMP JUMPDEST PUSH1 0x5 PUSH1 0x20 MSTORE DUP1 PUSH1 0x0 MSTORE PUSH1 0x40 PUSH1 0x0 KECCAK256 PUSH1 0x0 SWAP2 POP SWAP1 POP SLOAD DUP2 JUMP JUMPDEST PUSH2 0x72E PUSH2 0xB87 JUMP JUMPDEST PUSH2 0x738 PUSH1 0x0 PUSH2 0xC05 JUMP JUMPDEST JUMP JUMPDEST PUSH2 0x742 PUSH2 0xB87 JUMP JUMPDEST DUP1 PUSH1 0x5 PUSH1 0x0 DUP5 PUSH20 0xFFFFFFFFFFFFFFFFFFFFFFFFFFFFFFFFFFFFFFFF AND PUSH20 0xFFFFFFFFFFFFFFFFFFFFFFFFFFFFFFFFFFFFFFFF AND DUP2 MSTORE PUSH1 0x20 ADD SWAP1 DUP2 MSTORE PUSH1 0x20 ADD PUSH1 0x0 KECCAK256 DUP2 SWAP1 SSTORE POP POP POP JUMP JUMPDEST PUSH2 0x792 PUSH2 0xB87 JUMP JUMPDEST DUP1 PUSH1 0x6 PUSH1 0x0 DUP5 PUSH20 0xFFFFFFFFFFFFFFFFFFFFFFFFFFFFFFFFFFFFFFFF AND PUSH20 0xFFFFFFFFFFFFFFFFFFFFFFFFFFFFFFFFFFFFFFFF AND DUP2 MSTORE PUSH1 0x20 ADD SWAP1 DUP2 MSTORE PUSH1 0x20 ADD PUSH1 0x0 KECCAK256 DUP2 SWAP1 SSTORE POP POP POP JUMP JUMPDEST PUSH1 0x0 DUP1 PUSH1 0x0 SWAP1 SLOAD SWAP1 PUSH2 0x100 EXP SWAP1 DIV PUSH20 0xFFFFFFFFFFFFFFFFFFFFFFFFFFFFFFFFFFFFFFFF AND SWAP1 POP SWAP1 JUMP JUMPDEST PUSH2 0x80B PUSH2 0xB87 JUMP JUMPDEST DUP1 PUSH1 0x4 PUSH1 0x0 DUP3 DUP3 SLOAD PUSH2 0x81D SWAP2 SWAP1 PUSH2 0xF87 JUMP JUMPDEST SWAP3 POP POP DUP2 SWAP1 SSTORE POP POP JUMP JUMPDEST PUSH1 0x1 PUSH1 0x20 MSTORE DUP1 PUSH1 0x0 MSTORE PUSH1 0x40 PUSH1 0x0 KECCAK256 PUSH1 0x0 SWAP2 POP SWAP1 POP SLOAD DUP2 JUMP JUMPDEST PUSH2 0x847 PUSH2 0xCD1 JUMP JUMPDEST PUSH1 0x7 PUSH1 0x0 DUP5 PUSH20 0xFFFFFFFFFFFFFFFFFFFFFFFFFFFFFFFFFFFFFFFF AND PUSH20 0xFFFFFFFFFFFFFFFFFFFFFFFFFFFFFFFFFFFFFFFF AND DUP2 MSTORE PUSH1 0x20 ADD SWAP1 DUP2 MSTORE PUSH1 0x20 ADD PUSH1 0x0 KECCAK256 PUSH1 0x0 DUP4 DUP2 MSTORE PUSH1 0x20 ADD SWAP1 DUP2 MSTORE PUSH1 0x20 ADD PUSH1 0x0 KECCAK256 PUSH1 0x40 MLOAD DUP1 PUSH1 0x60 ADD PUSH1 0x40 MSTORE SWAP1 DUP2 PUSH1 0x0 DUP3 ADD SLOAD DUP2 MSTORE PUSH1 0x20 ADD PUSH1 0x1 DUP3 ADD SLOAD DUP2 MSTORE PUSH1 0x20 ADD PUSH1 0x2 DUP3 ADD SLOAD DUP2 MSTORE POP POP SWAP1 POP SWAP3 SWAP2 POP POP JUMP JUMPDEST PUSH1 0x6 PUSH1 0x20 MSTORE DUP1 PUSH1 0x0 MSTORE PUSH1 0x40 PUSH1 0x0 KECCAK256 PUSH1 0x0 SWAP2 POP SWAP1 POP SLOAD DUP2 JUMP JUMPDEST PUSH2 0x8E8 PUSH2 0xB87 JUMP JUMPDEST DUP1 PUSH1 0x4 PUSH1 0x0 DUP3 DUP3 SLOAD PUSH2 0x8FA SWAP2 SWAP1 PUSH2 0xFDD JUMP JUMPDEST SWAP3 POP POP DUP2 SWAP1 SSTORE POP POP JUMP JUMPDEST PUSH1 0x3 SLOAD DUP2 JUMP JUMPDEST PUSH2 0x912 PUSH2 0xB87 JUMP JUMPDEST DUP1 PUSH1 0x1 PUSH1 0x0 DUP5 PUSH20 0xFFFFFFFFFFFFFFFFFFFFFFFFFFFFFFFFFFFFFFFF AND PUSH20 0xFFFFFFFFFFFFFFFFFFFFFFFFFFFFFFFFFFFFFFFF AND DUP2 MSTORE PUSH1 0x20 ADD SWAP1 DUP2 MSTORE PUSH1 0x20 ADD PUSH1 0x0 KECCAK256 PUSH1 0x0 DUP3 DUP3 SLOAD PUSH2 0x961 SWAP2 SWAP1 PUSH2 0xFDD JUMP JUMPDEST SWAP3 POP POP DUP2 SWAP1 SSTORE POP POP POP JUMP JUMPDEST PUSH2 0x974 PUSH2 0xB87 JUMP JUMPDEST DUP1 PUSH1 0x3 PUSH1 0x0 DUP3 DUP3 SLOAD PUSH2 0x986 SWAP2 SWAP1 PUSH2 0xF87 JUMP JUMPDEST SWAP3 POP POP DUP2 SWAP1 SSTORE POP POP JUMP JUMPDEST PUSH1 0x4 SLOAD DUP2 JUMP JUMPDEST PUSH2 0x99E PUSH2 0xB87 JUMP JUMPDEST PUSH1 0x7 PUSH1 0x0 DUP4 PUSH20 0xFFFFFFFFFFFFFFFFFFFFFFFFFFFFFFFFFFFFFFFF AND PUSH20 0xFFFFFFFFFFFFFFFFFFFFFFFFFFFFFFFFFFFFFFFF AND DUP2 MSTORE PUSH1 0x20 ADD SWAP1 DUP2 MSTORE PUSH1 0x20 ADD PUSH1 0x0 KECCAK256 PUSH1 0x0 DUP3 DUP2 MSTORE PUSH1 0x20 ADD SWAP1 DUP2 MSTORE PUSH1 0x20 ADD PUSH1 0x0 KECCAK256 PUSH1 0x0 DUP1 DUP3 ADD PUSH1 0x0 SWAP1 SSTORE PUSH1 0x1 DUP3 ADD PUSH1 0x0 SWAP1 SSTORE PUSH1 0x2 DUP3 ADD PUSH1 0x0 SWAP1 SSTORE POP POP POP POP JUMP JUMPDEST PUSH2 0xA15 PUSH2 0xB87 JUMP JUMPDEST DUP1 PUSH1 0x2 PUSH1 0x0 DUP3 DUP3 SLOAD PUSH2 0xA27 SWAP2 SWAP1 PUSH2 0xF87 JUMP JUMPDEST SWAP3 POP POP DUP2 SWAP1 SSTORE POP POP JUMP JUMPDEST PUSH2 0xA39 PUSH2 0xB87 JUMP JUMPDEST DUP1 PUSH1 0x7 PUSH1 0x0 DUP6 PUSH20 0xFFFFFFFFFFFFFFFFFFFFFFFFFFFFFFFFFFFFFFFF AND PUSH20 0xFFFFFFFFFFFFFFFFFFFFFFFFFFFFFFFFFFFFFFFF AND DUP2 MSTORE PUSH1 0x20 ADD SWAP1 DUP2 MSTORE PUSH1 0x20 ADD PUSH1 0x0 KECCAK256 PUSH1 0x0 DUP5 DUP2 MSTORE PUSH1 0x20 ADD SWAP1 DUP2 MSTORE PUSH1 0x20 ADD PUSH1 0x0 KECCAK256 PUSH1 0x1 ADD PUSH1 0x0 DUP3 DUP3 SLOAD PUSH2 0xA9C SWAP2 SWAP1 PUSH2 0xFDD JUMP JUMPDEST SWAP3 POP POP DUP2 SWAP1 SSTORE POP POP POP POP JUMP JUMPDEST PUSH1 0x7 PUSH1 0x20 MSTORE DUP2 PUSH1 0x0 MSTORE PUSH1 0x40 PUSH1 0x0 KECCAK256 PUSH1 0x20 MSTORE DUP1 PUSH1 0x0 MSTORE PUSH1 0x40 PUSH1 0x0 KECCAK256 PUSH1 0x0 SWAP2 POP SWAP2 POP POP DUP1 PUSH1 0x0 ADD SLOAD SWAP1 DUP1 PUSH1 0x1 ADD SLOAD SWAP1 DUP1 PUSH1 0x2 ADD SLOAD SWAP1 POP DUP4 JUMP JUMPDEST PUSH2 0xAE7 PUSH2 0xB87 JUMP JUMPDEST PUSH1 0x0 PUSH20 0xFFFFFFFFFFFFFFFFFFFFFFFFFFFFFFFFFFFFFFFF AND DUP2 PUSH20 0xFFFFFFFFFFFFFFFFFFFFFFFFFFFFFFFFFFFFFFFF AND EQ ISZERO PUSH2 0xB57 JUMPI PUSH1 0x40 MLOAD PUSH32 0x8C379A000000000000000000000000000000000000000000000000000000000 DUP2 MSTORE PUSH1 0x4 ADD PUSH2 0xB4E SWAP1 PUSH2 0xEC9 JUMP JUMPDEST PUSH1 0x40 MLOAD DUP1 SWAP2 SUB SWAP1 REVERT JUMPDEST PUSH2 0xB60 DUP2 PUSH2 0xC05 JUMP JUMPDEST POP JUMP JUMPDEST PUSH2 0xB6B PUSH2 0xB87 JUMP JUMPDEST DUP1 PUSH1 0x3 PUSH1 0x0 DUP3 DUP3 SLOAD PUSH2 0xB7D SWAP2 SWAP1 PUSH2 0xFDD JUMP JUMPDEST SWAP3 POP POP DUP2 SWAP1 SSTORE POP POP JUMP JUMPDEST PUSH2 0xB8F PUSH2 0xCC9 JUMP JUMPDEST PUSH20 0xFFFFFFFFFFFFFFFFFFFFFFFFFFFFFFFFFFFFFFFF AND PUSH2 0xBAD PUSH2 0x7DA JUMP JUMPDEST PUSH20 0xFFFFFFFFFFFFFFFFFFFFFFFFFFFFFFFFFFFFFFFF AND EQ PUSH2 0xC03 JUMPI PUSH1 0x40 MLOAD PUSH32 0x8C379A000000000000000000000000000000000000000000000000000000000 DUP2 MSTORE PUSH1 0x4 ADD PUSH2 0xBFA SWAP1 PUSH2 0xEE9 JUMP JUMPDEST PUSH1 0x40 MLOAD DUP1 SWAP2 SUB SWAP1 REVERT JUMPDEST JUMP JUMPDEST PUSH1 0x0 DUP1 PUSH1 0x0 SWAP1 SLOAD SWAP1 PUSH2 0x100 EXP SWAP1 DIV PUSH20 0xFFFFFFFFFFFFFFFFFFFFFFFFFFFFFFFFFFFFFFFF AND SWAP1 POP DUP2 PUSH1 0x0 DUP1 PUSH2 0x100 EXP DUP2 SLOAD DUP2 PUSH20 0xFFFFFFFFFFFFFFFFFFFFFFFFFFFFFFFFFFFFFFFF MUL NOT AND SWAP1 DUP4 PUSH20 0xFFFFFFFFFFFFFFFFFFFFFFFFFFFFFFFFFFFFFFFF AND MUL OR SWAP1 SSTORE POP DUP2 PUSH20 0xFFFFFFFFFFFFFFFFFFFFFFFFFFFFFFFFFFFFFFFF AND DUP2 PUSH20 0xFFFFFFFFFFFFFFFFFFFFFFFFFFFFFFFFFFFFFFFF AND PUSH32 0x8BE0079C531659141344CD1FD0A4F28419497F9722A3DAAFE3B4186F6B6457E0 PUSH1 0x40 MLOAD PUSH1 0x40 MLOAD DUP1 SWAP2 SUB SWAP1 LOG3 POP POP JUMP JUMPDEST PUSH1 0x0 CALLER SWAP1 POP SWAP1 JUMP JUMPDEST PUSH1 0x40 MLOAD DUP1 PUSH1 0x60 ADD PUSH1 0x40 MSTORE DUP1 PUSH1 0x0 DUP2 MSTORE PUSH1 0x20 ADD PUSH1 0x0 DUP2 MSTORE PUSH1 0x20 ADD PUSH1 0x0 DUP2 MSTORE POP SWAP1 JUMP JUMPDEST PUSH1 0x0 DUP2 CALLDATALOAD SWAP1 POP PUSH2 0xD01 DUP2 PUSH2 0x10F4 JUMP JUMPDEST SWAP3 SWAP2 POP POP JUMP JUMPDEST PUSH1 0x0 DUP2 CALLDATALOAD SWAP1 POP PUSH2 0xD16 DUP2 PUSH2 0x110B JUMP JUMPDEST SWAP3 SWAP2 POP POP JUMP JUMPDEST PUSH1 0x0 PUSH1 0x20 DUP3 DUP5 SUB SLT ISZERO PUSH2 0xD2E JUMPI PUSH1 0x0 DUP1 REVERT JUMPDEST PUSH1 0x0 PUSH2 0xD3C DUP5 DUP3 DUP6 ADD PUSH2 0xCF2 JUMP JUMPDEST SWAP2 POP POP SWAP3 SWAP2 POP POP JUMP JUMPDEST PUSH1 0x0 DUP1 PUSH1 0x40 DUP4 DUP6 SUB SLT ISZERO PUSH2 0xD58 JUMPI PUSH1 0x0 DUP1 REVERT JUMPDEST PUSH1 0x0 PUSH2 0xD66 DUP6 DUP3 DUP7 ADD PUSH2 0xCF2 JUMP JUMPDEST SWAP3 POP POP PUSH1 0x20 PUSH2 0xD77 DUP6 DUP3 DUP7 ADD PUSH2 0xD07 JUMP JUMPDEST SWAP2 POP POP SWAP3 POP SWAP3 SWAP1 POP JUMP JUMPDEST PUSH1 0x0 DUP1 PUSH1 0x0 PUSH1 0x60 DUP5 DUP7 SUB SLT ISZERO PUSH2 0xD96 JUMPI PUSH1 0x0 DUP1 REVERT JUMPDEST PUSH1 0x0 PUSH2 0xDA4 DUP7 DUP3 DUP8 ADD PUSH2 0xCF2 JUMP JUMPDEST SWAP4 POP POP PUSH1 0x20 PUSH2 0xDB5 DUP7 DUP3 DUP8 ADD PUSH2 0xD07 JUMP JUMPDEST SWAP3 POP POP PUSH1 0x40 PUSH2 0xDC6 DUP7 DUP3 DUP8 ADD PUSH2 0xD07 JUMP JUMPDEST SWAP2 POP POP SWAP3 POP SWAP3 POP SWAP3 JUMP JUMPDEST PUSH1 0x0 PUSH1 0x20 DUP3 DUP5 SUB SLT ISZERO PUSH2 0xDE2 JUMPI PUSH1 0x0 DUP1 REVERT JUMPDEST PUSH1 0x0 PUSH2 0xDF0 DUP5 DUP3 DUP6 ADD PUSH2 0xD07 JUMP JUMPDEST SWAP2 POP POP SWAP3 SWAP2 POP POP JUMP JUMPDEST PUSH2 0xE02 DUP2 PUSH2 0x1011 JUMP JUMPDEST DUP3 MSTORE POP POP JUMP JUMPDEST PUSH1 0x0 PUSH2 0xE15 PUSH1 0x26 DUP4 PUSH2 0xF76 JUMP JUMPDEST SWAP2 POP PUSH2 0xE20 DUP3 PUSH2 0x107C JUMP JUMPDEST PUSH1 0x40 DUP3 ADD SWAP1 POP SWAP2 SWAP1 POP JUMP JUMPDEST PUSH1 0x0 PUSH2 0xE38 PUSH1 0x20 DUP4 PUSH2 0xF76 JUMP JUMPDEST SWAP2 POP PUSH2 0xE43 DUP3 PUSH2 0x10CB JUMP JUMPDEST PUSH1 0x20 DUP3 ADD SWAP1 POP SWAP2 SWAP1 POP JUMP JUMPDEST PUSH1 0x60 DUP3 ADD PUSH1 0x0 DUP3 ADD MLOAD PUSH2 0xE64 PUSH1 0x0 DUP6 ADD DUP3 PUSH2 0xE90 JUMP JUMPDEST POP PUSH1 0x20 DUP3 ADD MLOAD PUSH2 0xE77 PUSH1 0x20 DUP6 ADD DUP3 PUSH2 0xE90 JUMP JUMPDEST POP PUSH1 0x40 DUP3 ADD MLOAD PUSH2 0xE8A PUSH1 0x40 DUP6 ADD DUP3 PUSH2 0xE90 JUMP JUMPDEST POP POP POP POP JUMP JUMPDEST PUSH2 0xE99 DUP2 PUSH2 0x1043 JUMP JUMPDEST DUP3 MSTORE POP POP JUMP JUMPDEST PUSH2 0xEA8 DUP2 PUSH2 0x1043 JUMP JUMPDEST DUP3 MSTORE POP POP JUMP JUMPDEST PUSH1 0x0 PUSH1 0x20 DUP3 ADD SWAP1 POP PUSH2 0xEC3 PUSH1 0x0 DUP4 ADD DUP5 PUSH2 0xDF9 JUMP JUMPDEST SWAP3 SWAP2 POP POP JUMP JUMPDEST PUSH1 0x0 PUSH1 0x20 DUP3 ADD SWAP1 POP DUP2 DUP2 SUB PUSH1 0x0 DUP4 ADD MSTORE PUSH2 0xEE2 DUP2 PUSH2 0xE08 JUMP JUMPDEST SWAP1 POP SWAP2 SWAP1 POP JUMP JUMPDEST PUSH1 0x0 PUSH1 0x20 DUP3 ADD SWAP1 POP DUP2 DUP2 SUB PUSH1 0x0 DUP4 ADD MSTORE PUSH2 0xF02 DUP2 PUSH2 0xE2B JUMP JUMPDEST SWAP1 POP SWAP2 SWAP1 POP JUMP JUMPDEST PUSH1 0x0 PUSH1 0x60 DUP3 ADD SWAP1 POP PUSH2 0xF1E PUSH1 0x0 DUP4 ADD DUP5 PUSH2 0xE4E JUMP JUMPDEST SWAP3 SWAP2 POP POP JUMP JUMPDEST PUSH1 0x0 PUSH1 0x20 DUP3 ADD SWAP1 POP PUSH2 0xF39 PUSH1 0x0 DUP4 ADD DUP5 PUSH2 0xE9F JUMP JUMPDEST SWAP3 SWAP2 POP POP JUMP JUMPDEST PUSH1 0x0 PUSH1 0x60 DUP3 ADD SWAP1 POP PUSH2 0xF54 PUSH1 0x0 DUP4 ADD DUP7 PUSH2 0xE9F JUMP JUMPDEST PUSH2 0xF61 PUSH1 0x20 DUP4 ADD DUP6 PUSH2 0xE9F JUMP JUMPDEST PUSH2 0xF6E PUSH1 0x40 DUP4 ADD DUP5 PUSH2 0xE9F JUMP JUMPDEST SWAP5 SWAP4 POP POP POP POP JUMP JUMPDEST PUSH1 0x0 DUP3 DUP3 MSTORE PUSH1 0x20 DUP3 ADD SWAP1 POP SWAP3 SWAP2 POP POP JUMP JUMPDEST PUSH1 0x0 PUSH2 0xF92 DUP3 PUSH2 0x1043 JUMP JUMPDEST SWAP2 POP PUSH2 0xF9D DUP4 PUSH2 0x1043 JUMP JUMPDEST SWAP3 POP DUP3 PUSH32 0xFFFFFFFFFFFFFFFFFFFFFFFFFFFFFFFFFFFFFFFFFFFFFFFFFFFFFFFFFFFFFFFF SUB DUP3 GT ISZERO PUSH2 0xFD2 JUMPI PUSH2 0xFD1 PUSH2 0x104D JUMP JUMPDEST JUMPDEST DUP3 DUP3 ADD SWAP1 POP SWAP3 SWAP2 POP POP JUMP JUMPDEST PUSH1 0x0 PUSH2 0xFE8 DUP3 PUSH2 0x1043 JUMP JUMPDEST SWAP2 POP PUSH2 0xFF3 DUP4 PUSH2 0x1043 JUMP JUMPDEST SWAP3 POP DUP3 DUP3 LT ISZERO PUSH2 0x1006 JUMPI PUSH2 0x1005 PUSH2 0x104D JUMP JUMPDEST JUMPDEST DUP3 DUP3 SUB SWAP1 POP SWAP3 SWAP2 POP POP JUMP JUMPDEST PUSH1 0x0 PUSH2 0x101C DUP3 PUSH2 0x1023 JUMP JUMPDEST SWAP1 POP SWAP2 SWAP1 POP JUMP JUMPDEST PUSH1 0x0 PUSH20 0xFFFFFFFFFFFFFFFFFFFFFFFFFFFFFFFFFFFFFFFF DUP3 AND SWAP1 POP SWAP2 SWAP1 POP JUMP JUMPDEST PUSH1 0x0 DUP2 SWAP1 POP SWAP2 SWAP1 POP JUMP JUMPDEST PUSH32 0x4E487B7100000000000000000000000000000000000000000000000000000000 PUSH1 0x0 MSTORE PUSH1 0x11 PUSH1 0x4 MSTORE PUSH1 0x24 PUSH1 0x0 REVERT JUMPDEST PUSH32 0x4F776E61626C653A206E6577206F776E657220697320746865207A65726F2061 PUSH1 0x0 DUP3 ADD MSTORE PUSH32 0x6464726573730000000000000000000000000000000000000000000000000000 PUSH1 0x20 DUP3 ADD MSTORE POP JUMP JUMPDEST PUSH32 0x4F776E61626C653A2063616C6C6572206973206E6F7420746865206F776E6572 PUSH1 0x0 DUP3 ADD MSTORE POP JUMP JUMPDEST PUSH2 0x10FD DUP2 PUSH2 0x1011 JUMP JUMPDEST DUP2 EQ PUSH2 0x1108 JUMPI PUSH1 0x0 DUP1 REVERT JUMPDEST POP JUMP JUMPDEST PUSH2 0x1114 DUP2 PUSH2 0x1043 JUMP JUMPDEST DUP2 EQ PUSH2 0x111F JUMPI PUSH1 0x0 DUP1 REVERT JUMPDEST POP JUMP INVALID LOG2 PUSH5 0x6970667358 0x22 SLT KECCAK256 0xC 0xC1 0xE4 SWAP9 0xE4 DUP11 CALLDATALOAD CREATE 0xDE 0xDA 0x2D 0x24 PC 0xCC 0x22 0xAE 0xEC 0xAA 0xBD DUP11 0xD1 0xAA SDIV BLOCKHASH CALL LOG0 0xA7 0xBE SDIV 0xFB 0xA9 SLOAD PUSH5 0x736F6C6343 STOP ADDMOD DIV STOP CALLER PUSH1 0x80 PUSH1 0x40 MSTORE CALLVALUE DUP1 ISZERO PUSH3 0x11 JUMPI PUSH1 0x0 DUP1 REVERT JUMPDEST POP PUSH3 0x32 PUSH3 0x26 PUSH3 0x49 PUSH1 0x20 SHL PUSH1 0x20 SHR JUMP JUMPDEST PUSH3 0x51 PUSH1 0x20 SHL PUSH1 0x20 SHR JUMP JUMPDEST PUSH3 0x43 CALLER PUSH3 0x115 PUSH1 0x20 SHL PUSH1 0x20 SHR JUMP JUMPDEST PUSH3 0x381 JUMP JUMPDEST PUSH1 0x0 CALLER SWAP1 POP SWAP1 JUMP JUMPDEST PUSH1 0x0 DUP1 PUSH1 0x0 SWAP1 SLOAD SWAP1 PUSH2 0x100 EXP SWAP1 DIV PUSH20 0xFFFFFFFFFFFFFFFFFFFFFFFFFFFFFFFFFFFFFFFF AND SWAP1 POP DUP2 PUSH1 0x0 DUP1 PUSH2 0x100 EXP DUP2 SLOAD DUP2 PUSH20 0xFFFFFFFFFFFFFFFFFFFFFFFFFFFFFFFFFFFFFFFF MUL NOT AND SWAP1 DUP4 PUSH20 0xFFFFFFFFFFFFFFFFFFFFFFFFFFFFFFFFFFFFFFFF AND MUL OR SWAP1 SSTORE POP DUP2 PUSH20 0xFFFFFFFFFFFFFFFFFFFFFFFFFFFFFFFFFFFFFFFF AND DUP2 PUSH20 0xFFFFFFFFFFFFFFFFFFFFFFFFFFFFFFFFFFFFFFFF AND PUSH32 0x8BE0079C531659141344CD1FD0A4F28419497F9722A3DAAFE3B4186F6B6457E0 PUSH1 0x40 MLOAD PUSH1 0x40 MLOAD DUP1 SWAP2 SUB SWAP1 LOG3 POP POP JUMP JUMPDEST PUSH3 0x125 PUSH3 0x1AC PUSH1 0x20 SHL PUSH1 0x20 SHR JUMP JUMPDEST PUSH1 0x0 PUSH20 0xFFFFFFFFFFFFFFFFFFFFFFFFFFFFFFFFFFFFFFFF AND DUP2 PUSH20 0xFFFFFFFFFFFFFFFFFFFFFFFFFFFFFFFFFFFFFFFF AND EQ ISZERO PUSH3 0x198 JUMPI PUSH1 0x40 MLOAD PUSH32 0x8C379A000000000000000000000000000000000000000000000000000000000 DUP2 MSTORE PUSH1 0x4 ADD PUSH3 0x18F SWAP1 PUSH3 0x2B4 JUMP JUMPDEST PUSH1 0x40 MLOAD DUP1 SWAP2 SUB SWAP1 REVERT JUMPDEST PUSH3 0x1A9 DUP2 PUSH3 0x51 PUSH1 0x20 SHL PUSH1 0x20 SHR JUMP JUMPDEST POP JUMP JUMPDEST PUSH3 0x1BC PUSH3 0x49 PUSH1 0x20 SHL PUSH1 0x20 SHR JUMP JUMPDEST PUSH20 0xFFFFFFFFFFFFFFFFFFFFFFFFFFFFFFFFFFFFFFFF AND PUSH3 0x1E2 PUSH3 0x23D PUSH1 0x20 SHL PUSH1 0x20 SHR JUMP JUMPDEST PUSH20 0xFFFFFFFFFFFFFFFFFFFFFFFFFFFFFFFFFFFFFFFF AND EQ PUSH3 0x23B JUMPI PUSH1 0x40 MLOAD PUSH32 0x8C379A000000000000000000000000000000000000000000000000000000000 DUP2 MSTORE PUSH1 0x4 ADD PUSH3 0x232 SWAP1 PUSH3 0x2D6 JUMP JUMPDEST PUSH1 0x40 MLOAD DUP1 SWAP2 SUB SWAP1 REVERT JUMPDEST JUMP JUMPDEST PUSH1 0x0 DUP1 PUSH1 0x0 SWAP1 SLOAD SWAP1 PUSH2 0x100 EXP SWAP1 DIV PUSH20 0xFFFFFFFFFFFFFFFFFFFFFFFFFFFFFFFFFFFFFFFF AND SWAP1 POP SWAP1 JUMP JUMPDEST PUSH1 0x0 PUSH3 0x275 PUSH1 0x26 DUP4 PUSH3 0x2F8 JUMP JUMPDEST SWAP2 POP PUSH3 0x282 DUP3 PUSH3 0x309 JUMP JUMPDEST PUSH1 0x40 DUP3 ADD SWAP1 POP SWAP2 SWAP1 POP JUMP JUMPDEST PUSH1 0x0 PUSH3 0x29C PUSH1 0x20 DUP4 PUSH3 0x2F8 JUMP JUMPDEST SWAP2 POP PUSH3 0x2A9 DUP3 PUSH3 0x358 JUMP JUMPDEST PUSH1 0x20 DUP3 ADD SWAP1 POP SWAP2 SWAP1 POP JUMP JUMPDEST PUSH1 0x0 PUSH1 0x20 DUP3 ADD SWAP1 POP DUP2 DUP2 SUB PUSH1 0x0 DUP4 ADD MSTORE PUSH3 0x2CF DUP2 PUSH3 0x266 JUMP JUMPDEST SWAP1 POP SWAP2 SWAP1 POP JUMP JUMPDEST PUSH1 0x0 PUSH1 0x20 DUP3 ADD SWAP1 POP DUP2 DUP2 SUB PUSH1 0x0 DUP4 ADD MSTORE PUSH3 0x2F1 DUP2 PUSH3 0x28D JUMP JUMPDEST SWAP1 POP SWAP2 SWAP1 POP JUMP JUMPDEST PUSH1 0x0 DUP3 DUP3 MSTORE PUSH1 0x20 DUP3 ADD SWAP1 POP SWAP3 SWAP2 POP POP JUMP JUMPDEST PUSH32 0x4F776E61626C653A206E6577206F776E657220697320746865207A65726F2061 PUSH1 0x0 DUP3 ADD MSTORE PUSH32 0x6464726573730000000000000000000000000000000000000000000000000000 PUSH1 0x20 DUP3 ADD MSTORE POP JUMP JUMPDEST PUSH32 0x4F776E61626C653A2063616C6C6572206973206E6F7420746865206F776E6572 PUSH1 0x0 DUP3 ADD MSTORE POP JUMP JUMPDEST PUSH2 0xB55 DUP1 PUSH3 0x391 PUSH1 0x0 CODECOPY PUSH1 0x0 RETURN INVALID PUSH1 0x80 PUSH1 0x40 MSTORE CALLVALUE DUP1 ISZERO PUSH2 0x10 JUMPI PUSH1 0x0 DUP1 REVERT JUMPDEST POP PUSH1 0x4 CALLDATASIZE LT PUSH2 0x93 JUMPI PUSH1 0x0 CALLDATALOAD PUSH1 0xE0 SHR DUP1 PUSH4 0x9DC29FAC GT PUSH2 0x66 JUMPI DUP1 PUSH4 0x9DC29FAC EQ PUSH2 0xFA JUMPI DUP1 PUSH4 0xAEE9C872 EQ PUSH2 0x116 JUMPI DUP1 PUSH4 0xBEABACC8 EQ PUSH2 0x146 JUMPI DUP1 PUSH4 0xD89135CD EQ PUSH2 0x162 JUMPI DUP1 PUSH4 0xF2FDE38B EQ PUSH2 0x180 JUMPI PUSH2 0x93 JUMP JUMPDEST DUP1 PUSH4 0x18160DDD EQ PUSH2 0x98 JUMPI DUP1 PUSH4 0x40C10F19 EQ PUSH2 0xB6 JUMPI DUP1 PUSH4 0x715018A6 EQ PUSH2 0xD2 JUMPI DUP1 PUSH4 0x8DA5CB5B EQ PUSH2 0xDC JUMPI JUMPDEST PUSH1 0x0 DUP1 REVERT JUMPDEST PUSH2 0xA0 PUSH2 0x19C JUMP JUMPDEST PUSH1 0x40 MLOAD PUSH2 0xAD SWAP2 SWAP1 PUSH2 0x8BA JUMP JUMPDEST PUSH1 0x40 MLOAD DUP1 SWAP2 SUB SWAP1 RETURN JUMPDEST PUSH2 0xD0 PUSH1 0x4 DUP1 CALLDATASIZE SUB DUP2 ADD SWAP1 PUSH2 0xCB SWAP2 SWAP1 PUSH2 0x739 JUMP JUMPDEST PUSH2 0x1A2 JUMP JUMPDEST STOP JUMPDEST PUSH2 0xDA PUSH2 0x21D JUMP JUMPDEST STOP JUMPDEST PUSH2 0xE4 PUSH2 0x231 JUMP JUMPDEST PUSH1 0x40 MLOAD PUSH2 0xF1 SWAP2 SWAP1 PUSH2 0x81F JUMP JUMPDEST PUSH1 0x40 MLOAD DUP1 SWAP2 SUB SWAP1 RETURN JUMPDEST PUSH2 0x114 PUSH1 0x4 DUP1 CALLDATASIZE SUB DUP2 ADD SWAP1 PUSH2 0x10F SWAP2 SWAP1 PUSH2 0x739 JUMP JUMPDEST PUSH2 0x25A JUMP JUMPDEST STOP JUMPDEST PUSH2 0x130 PUSH1 0x4 DUP1 CALLDATASIZE SUB DUP2 ADD SWAP1 PUSH2 0x12B SWAP2 SWAP1 PUSH2 0x6C1 JUMP JUMPDEST PUSH2 0x370 JUMP JUMPDEST PUSH1 0x40 MLOAD PUSH2 0x13D SWAP2 SWAP1 PUSH2 0x8BA JUMP JUMPDEST PUSH1 0x40 MLOAD DUP1 SWAP2 SUB SWAP1 RETURN JUMPDEST PUSH2 0x160 PUSH1 0x4 DUP1 CALLDATASIZE SUB DUP2 ADD SWAP1 PUSH2 0x15B SWAP2 SWAP1 PUSH2 0x6EA JUMP JUMPDEST PUSH2 0x388 JUMP JUMPDEST STOP JUMPDEST PUSH2 0x16A PUSH2 0x4C3 JUMP JUMPDEST PUSH1 0x40 MLOAD PUSH2 0x177 SWAP2 SWAP1 PUSH2 0x8BA JUMP JUMPDEST PUSH1 0x40 MLOAD DUP1 SWAP2 SUB SWAP1 RETURN JUMPDEST PUSH2 0x19A PUSH1 0x4 DUP1 CALLDATASIZE SUB DUP2 ADD SWAP1 PUSH2 0x195 SWAP2 SWAP1 PUSH2 0x6C1 JUMP JUMPDEST PUSH2 0x4C9 JUMP JUMPDEST STOP JUMPDEST PUSH1 0x2 SLOAD DUP2 JUMP JUMPDEST PUSH2 0x1AA PUSH2 0x54D JUMP JUMPDEST DUP1 PUSH1 0x1 PUSH1 0x0 DUP5 PUSH20 0xFFFFFFFFFFFFFFFFFFFFFFFFFFFFFFFFFFFFFFFF AND PUSH20 0xFFFFFFFFFFFFFFFFFFFFFFFFFFFFFFFFFFFFFFFF AND DUP2 MSTORE PUSH1 0x20 ADD SWAP1 DUP2 MSTORE PUSH1 0x20 ADD PUSH1 0x0 KECCAK256 PUSH1 0x0 DUP3 DUP3 SLOAD PUSH2 0x1F9 SWAP2 SWAP1 PUSH2 0x8E6 JUMP JUMPDEST SWAP3 POP POP DUP2 SWAP1 SSTORE POP DUP1 PUSH1 0x2 PUSH1 0x0 DUP3 DUP3 SLOAD PUSH2 0x212 SWAP2 SWAP1 PUSH2 0x8E6 JUMP JUMPDEST SWAP3 POP POP DUP2 SWAP1 SSTORE POP POP POP JUMP JUMPDEST PUSH2 0x225 PUSH2 0x54D JUMP JUMPDEST PUSH2 0x22F PUSH1 0x0 PUSH2 0x5CB JUMP JUMPDEST JUMP JUMPDEST PUSH1 0x0 DUP1 PUSH1 0x0 SWAP1 SLOAD SWAP1 PUSH2 0x100 EXP SWAP1 DIV PUSH20 0xFFFFFFFFFFFFFFFFFFFFFFFFFFFFFFFFFFFFFFFF AND SWAP1 POP SWAP1 JUMP JUMPDEST PUSH2 0x262 PUSH2 0x54D JUMP JUMPDEST DUP1 PUSH1 0x1 PUSH1 0x0 DUP5 PUSH20 0xFFFFFFFFFFFFFFFFFFFFFFFFFFFFFFFFFFFFFFFF AND PUSH20 0xFFFFFFFFFFFFFFFFFFFFFFFFFFFFFFFFFFFFFFFF AND DUP2 MSTORE PUSH1 0x20 ADD SWAP1 DUP2 MSTORE PUSH1 0x20 ADD PUSH1 0x0 KECCAK256 SLOAD LT ISZERO PUSH2 0x2E4 JUMPI PUSH1 0x40 MLOAD PUSH32 0x8C379A000000000000000000000000000000000000000000000000000000000 DUP2 MSTORE PUSH1 0x4 ADD PUSH2 0x2DB SWAP1 PUSH2 0x87A JUMP JUMPDEST PUSH1 0x40 MLOAD DUP1 SWAP2 SUB SWAP1 REVERT JUMPDEST DUP1 PUSH1 0x1 PUSH1 0x0 DUP5 PUSH20 0xFFFFFFFFFFFFFFFFFFFFFFFFFFFFFFFFFFFFFFFF AND PUSH20 0xFFFFFFFFFFFFFFFFFFFFFFFFFFFFFFFFFFFFFFFF AND DUP2 MSTORE PUSH1 0x20 ADD SWAP1 DUP2 MSTORE PUSH1 0x20 ADD PUSH1 0x0 KECCAK256 PUSH1 0x0 DUP3 DUP3 SLOAD PUSH2 0x333 SWAP2 SWAP1 PUSH2 0x93C JUMP JUMPDEST SWAP3 POP POP DUP2 SWAP1 SSTORE POP DUP1 PUSH1 0x2 PUSH1 0x0 DUP3 DUP3 SLOAD PUSH2 0x34C SWAP2 SWAP1 PUSH2 0x93C JUMP JUMPDEST SWAP3 POP POP DUP2 SWAP1 SSTORE POP DUP1 PUSH1 0x3 PUSH1 0x0 DUP3 DUP3 SLOAD PUSH2 0x365 SWAP2 SWAP1 PUSH2 0x8E6 JUMP JUMPDEST SWAP3 POP POP DUP2 SWAP1 SSTORE POP POP POP JUMP JUMPDEST PUSH1 0x1 PUSH1 0x20 MSTORE DUP1 PUSH1 0x0 MSTORE PUSH1 0x40 PUSH1 0x0 KECCAK256 PUSH1 0x0 SWAP2 POP SWAP1 POP SLOAD DUP2 JUMP JUMPDEST PUSH2 0x390 PUSH2 0x54D JUMP JUMPDEST DUP1 PUSH1 0x1 PUSH1 0x0 DUP6 PUSH20 0xFFFFFFFFFFFFFFFFFFFFFFFFFFFFFFFFFFFFFFFF AND PUSH20 0xFFFFFFFFFFFFFFFFFFFFFFFFFFFFFFFFFFFFFFFF AND DUP2 MSTORE PUSH1 0x20 ADD SWAP1 DUP2 MSTORE PUSH1 0x20 ADD PUSH1 0x0 KECCAK256 SLOAD LT ISZERO PUSH2 0x412 JUMPI PUSH1 0x40 MLOAD PUSH32 0x8C379A000000000000000000000000000000000000000000000000000000000 DUP2 MSTORE PUSH1 0x4 ADD PUSH2 0x409 SWAP1 PUSH2 0x83A JUMP JUMPDEST PUSH1 0x40 MLOAD DUP1 SWAP2 SUB SWAP1 REVERT JUMPDEST DUP1 PUSH1 0x1 PUSH1 0x0 DUP6 PUSH20 0xFFFFFFFFFFFFFFFFFFFFFFFFFFFFFFFFFFFFFFFF AND PUSH20 0xFFFFFFFFFFFFFFFFFFFFFFFFFFFFFFFFFFFFFFFF AND DUP2 MSTORE PUSH1 0x20 ADD SWAP1 DUP2 MSTORE PUSH1 0x20 ADD PUSH1 0x0 KECCAK256 PUSH1 0x0 DUP3 DUP3 SLOAD PUSH2 0x461 SWAP2 SWAP1 PUSH2 0x93C JUMP JUMPDEST SWAP3 POP POP DUP2 SWAP1 SSTORE POP DUP1 PUSH1 0x1 PUSH1 0x0 DUP5 PUSH20 0xFFFFFFFFFFFFFFFFFFFFFFFFFFFFFFFFFFFFFFFF AND PUSH20 0xFFFFFFFFFFFFFFFFFFFFFFFFFFFFFFFFFFFFFFFF AND DUP2 MSTORE PUSH1 0x20 ADD SWAP1 DUP2 MSTORE PUSH1 0x20 ADD PUSH1 0x0 KECCAK256 PUSH1 0x0 DUP3 DUP3 SLOAD PUSH2 0x4B7 SWAP2 SWAP1 PUSH2 0x8E6 JUMP JUMPDEST SWAP3 POP POP DUP2 SWAP1 SSTORE POP POP POP POP JUMP JUMPDEST PUSH1 0x3 SLOAD DUP2 JUMP JUMPDEST PUSH2 0x4D1 PUSH2 0x54D JUMP JUMPDEST PUSH1 0x0 PUSH20 0xFFFFFFFFFFFFFFFFFFFFFFFFFFFFFFFFFFFFFFFF AND DUP2 PUSH20 0xFFFFFFFFFFFFFFFFFFFFFFFFFFFFFFFFFFFFFFFF AND EQ ISZERO PUSH2 0x541 JUMPI PUSH1 0x40 MLOAD PUSH32 0x8C379A000000000000000000000000000000000000000000000000000000000 DUP2 MSTORE PUSH1 0x4 ADD PUSH2 0x538 SWAP1 PUSH2 0x85A JUMP JUMPDEST PUSH1 0x40 MLOAD DUP1 SWAP2 SUB SWAP1 REVERT JUMPDEST PUSH2 0x54A DUP2 PUSH2 0x5CB JUMP JUMPDEST POP JUMP JUMPDEST PUSH2 0x555 PUSH2 0x68F JUMP JUMPDEST PUSH20 0xFFFFFFFFFFFFFFFFFFFFFFFFFFFFFFFFFFFFFFFF AND PUSH2 0x573 PUSH2 0x231 JUMP JUMPDEST PUSH20 0xFFFFFFFFFFFFFFFFFFFFFFFFFFFFFFFFFFFFFFFF AND EQ PUSH2 0x5C9 JUMPI PUSH1 0x40 MLOAD PUSH32 0x8C379A000000000000000000000000000000000000000000000000000000000 DUP2 MSTORE PUSH1 0x4 ADD PUSH2 0x5C0 SWAP1 PUSH2 0x89A JUMP JUMPDEST PUSH1 0x40 MLOAD DUP1 SWAP2 SUB SWAP1 REVERT JUMPDEST JUMP JUMPDEST PUSH1 0x0 DUP1 PUSH1 0x0 SWAP1 SLOAD SWAP1 PUSH2 0x100 EXP SWAP1 DIV PUSH20 0xFFFFFFFFFFFFFFFFFFFFFFFFFFFFFFFFFFFFFFFF AND SWAP1 POP DUP2 PUSH1 0x0 DUP1 PUSH2 0x100 EXP DUP2 SLOAD DUP2 PUSH20 0xFFFFFFFFFFFFFFFFFFFFFFFFFFFFFFFFFFFFFFFF MUL NOT AND SWAP1 DUP4 PUSH20 0xFFFFFFFFFFFFFFFFFFFFFFFFFFFFFFFFFFFFFFFF AND MUL OR SWAP1 SSTORE POP DUP2 PUSH20 0xFFFFFFFFFFFFFFFFFFFFFFFFFFFFFFFFFFFFFFFF AND DUP2 PUSH20 0xFFFFFFFFFFFFFFFFFFFFFFFFFFFFFFFFFFFFFFFF AND PUSH32 0x8BE0079C531659141344CD1FD0A4F28419497F9722A3DAAFE3B4186F6B6457E0 PUSH1 0x40 MLOAD PUSH1 0x40 MLOAD DUP1 SWAP2 SUB SWAP1 LOG3 POP POP JUMP JUMPDEST PUSH1 0x0 CALLER SWAP1 POP SWAP1 JUMP JUMPDEST PUSH1 0x0 DUP2 CALLDATALOAD SWAP1 POP PUSH2 0x6A6 DUP2 PUSH2 0xAF1 JUMP JUMPDEST SWAP3 SWAP2 POP POP JUMP JUMPDEST PUSH1 0x0 DUP2 CALLDATALOAD SWAP1 POP PUSH2 0x6BB DUP2 PUSH2 0xB08 JUMP JUMPDEST SWAP3 SWAP2 POP POP JUMP JUMPDEST PUSH1 0x0 PUSH1 0x20 DUP3 DUP5 SUB SLT ISZERO PUSH2 0x6D3 JUMPI PUSH1 0x0 DUP1 REVERT JUMPDEST PUSH1 0x0 PUSH2 0x6E1 DUP5 DUP3 DUP6 ADD PUSH2 0x697 JUMP JUMPDEST SWAP2 POP POP SWAP3 SWAP2 POP POP JUMP JUMPDEST PUSH1 0x0 DUP1 PUSH1 0x0 PUSH1 0x60 DUP5 DUP7 SUB SLT ISZERO PUSH2 0x6FF JUMPI PUSH1 0x0 DUP1 REVERT JUMPDEST PUSH1 0x0 PUSH2 0x70D DUP7 DUP3 DUP8 ADD PUSH2 0x697 JUMP JUMPDEST SWAP4 POP POP PUSH1 0x20 PUSH2 0x71E DUP7 DUP3 DUP8 ADD PUSH2 0x697 JUMP JUMPDEST SWAP3 POP POP PUSH1 0x40 PUSH2 0x72F DUP7 DUP3 DUP8 ADD PUSH2 0x6AC JUMP JUMPDEST SWAP2 POP POP SWAP3 POP SWAP3 POP SWAP3 JUMP JUMPDEST PUSH1 0x0 DUP1 PUSH1 0x40 DUP4 DUP6 SUB SLT ISZERO PUSH2 0x74C JUMPI PUSH1 0x0 DUP1 REVERT JUMPDEST PUSH1 0x0 PUSH2 0x75A DUP6 DUP3 DUP7 ADD PUSH2 0x697 JUMP JUMPDEST SWAP3 POP POP PUSH1 0x20 PUSH2 0x76B DUP6 DUP3 DUP7 ADD PUSH2 0x6AC JUMP JUMPDEST SWAP2 POP POP SWAP3 POP SWAP3 SWAP1 POP JUMP JUMPDEST PUSH2 0x77E DUP2 PUSH2 0x970 JUMP JUMPDEST DUP3 MSTORE POP POP JUMP JUMPDEST PUSH1 0x0 PUSH2 0x791 PUSH1 0x39 DUP4 PUSH2 0x8D5 JUMP JUMPDEST SWAP2 POP PUSH2 0x79C DUP3 PUSH2 0x9DB JUMP JUMPDEST PUSH1 0x40 DUP3 ADD SWAP1 POP SWAP2 SWAP1 POP JUMP JUMPDEST PUSH1 0x0 PUSH2 0x7B4 PUSH1 0x26 DUP4 PUSH2 0x8D5 JUMP JUMPDEST SWAP2 POP PUSH2 0x7BF DUP3 PUSH2 0xA2A JUMP JUMPDEST PUSH1 0x40 DUP3 ADD SWAP1 POP SWAP2 SWAP1 POP JUMP JUMPDEST PUSH1 0x0 PUSH2 0x7D7 PUSH1 0x30 DUP4 PUSH2 0x8D5 JUMP JUMPDEST SWAP2 POP PUSH2 0x7E2 DUP3 PUSH2 0xA79 JUMP JUMPDEST PUSH1 0x40 DUP3 ADD SWAP1 POP SWAP2 SWAP1 POP JUMP JUMPDEST PUSH1 0x0 PUSH2 0x7FA PUSH1 0x20 DUP4 PUSH2 0x8D5 JUMP JUMPDEST SWAP2 POP PUSH2 0x805 DUP3 PUSH2 0xAC8 JUMP JUMPDEST PUSH1 0x20 DUP3 ADD SWAP1 POP SWAP2 SWAP1 POP JUMP JUMPDEST PUSH2 0x819 DUP2 PUSH2 0x9A2 JUMP JUMPDEST DUP3 MSTORE POP POP JUMP JUMPDEST PUSH1 0x0 PUSH1 0x20 DUP3 ADD SWAP1 POP PUSH2 0x834 PUSH1 0x0 DUP4 ADD DUP5 PUSH2 0x775 JUMP JUMPDEST SWAP3 SWAP2 POP POP JUMP JUMPDEST PUSH1 0x0 PUSH1 0x20 DUP3 ADD SWAP1 POP DUP2 DUP2 SUB PUSH1 0x0 DUP4 ADD MSTORE PUSH2 0x853 DUP2 PUSH2 0x784 JUMP JUMPDEST SWAP1 POP SWAP2 SWAP1 POP JUMP JUMPDEST PUSH1 0x0 PUSH1 0x20 DUP3 ADD SWAP1 POP DUP2 DUP2 SUB PUSH1 0x0 DUP4 ADD MSTORE PUSH2 0x873 DUP2 PUSH2 0x7A7 JUMP JUMPDEST SWAP1 POP SWAP2 SWAP1 POP JUMP JUMPDEST PUSH1 0x0 PUSH1 0x20 DUP3 ADD SWAP1 POP DUP2 DUP2 SUB PUSH1 0x0 DUP4 ADD MSTORE PUSH2 0x893 DUP2 PUSH2 0x7CA JUMP JUMPDEST SWAP1 POP SWAP2 SWAP1 POP JUMP JUMPDEST PUSH1 0x0 PUSH1 0x20 DUP3 ADD SWAP1 POP DUP2 DUP2 SUB PUSH1 0x0 DUP4 ADD MSTORE PUSH2 0x8B3 DUP2 PUSH2 0x7ED JUMP JUMPDEST SWAP1 POP SWAP2 SWAP1 POP JUMP JUMPDEST PUSH1 0x0 PUSH1 0x20 DUP3 ADD SWAP1 POP PUSH2 0x8CF PUSH1 0x0 DUP4 ADD DUP5 PUSH2 0x810 JUMP JUMPDEST SWAP3 SWAP2 POP POP JUMP JUMPDEST PUSH1 0x0 DUP3 DUP3 MSTORE PUSH1 0x20 DUP3 ADD SWAP1 POP SWAP3 SWAP2 POP POP JUMP JUMPDEST PUSH1 0x0 PUSH2 0x8F1 DUP3 PUSH2 0x9A2 JUMP JUMPDEST SWAP2 POP PUSH2 0x8FC DUP4 PUSH2 0x9A2 JUMP JUMPDEST SWAP3 POP DUP3 PUSH32 0xFFFFFFFFFFFFFFFFFFFFFFFFFFFFFFFFFFFFFFFFFFFFFFFFFFFFFFFFFFFFFFFF SUB DUP3 GT ISZERO PUSH2 0x931 JUMPI PUSH2 0x930 PUSH2 0x9AC JUMP JUMPDEST JUMPDEST DUP3 DUP3 ADD SWAP1 POP SWAP3 SWAP2 POP POP JUMP JUMPDEST PUSH1 0x0 PUSH2 0x947 DUP3 PUSH2 0x9A2 JUMP JUMPDEST SWAP2 POP PUSH2 0x952 DUP4 PUSH2 0x9A2 JUMP JUMPDEST SWAP3 POP DUP3 DUP3 LT ISZERO PUSH2 0x965 JUMPI PUSH2 0x964 PUSH2 0x9AC JUMP JUMPDEST JUMPDEST DUP3 DUP3 SUB SWAP1 POP SWAP3 SWAP2 POP POP JUMP JUMPDEST PUSH1 0x0 PUSH2 0x97B DUP3 PUSH2 0x982 JUMP JUMPDEST SWAP1 POP SWAP2 SWAP1 POP JUMP JUMPDEST PUSH1 0x0 PUSH20 0xFFFFFFFFFFFFFFFFFFFFFFFFFFFFFFFFFFFFFFFF DUP3 AND SWAP1 POP SWAP2 SWAP1 POP JUMP JUMPDEST PUSH1 0x0 DUP2 SWAP1 POP SWAP2 SWAP1 POP JUMP JUMPDEST PUSH32 0x4E487B7100000000000000000000000000000000000000000000000000000000 PUSH1 0x0 MSTORE PUSH1 0x11 PUSH1 0x4 MSTORE PUSH1 0x24 PUSH1 0x0 REVERT JUMPDEST PUSH32 0x46726F6D206164647265737320646F6573206E6F74206861766520656E6F7567 PUSH1 0x0 DUP3 ADD MSTORE PUSH32 0x6820466C6F776572436F696E7320746F207472616E7366657200000000000000 PUSH1 0x20 DUP3 ADD MSTORE POP JUMP JUMPDEST PUSH32 0x4F776E61626C653A206E6577206F776E657220697320746865207A65726F2061 PUSH1 0x0 DUP3 ADD MSTORE PUSH32 0x6464726573730000000000000000000000000000000000000000000000000000 PUSH1 0x20 DUP3 ADD MSTORE POP JUMP JUMPDEST PUSH32 0x4164647265737320646F6573206E6F74206861766520656E6F75676820466C6F PUSH1 0x0 DUP3 ADD MSTORE PUSH32 0x776572436F696E7320746F206275726E00000000000000000000000000000000 PUSH1 0x20 DUP3 ADD MSTORE POP JUMP JUMPDEST PUSH32 0x4F776E61626C653A2063616C6C6572206973206E6F7420746865206F776E6572 PUSH1 0x0 DUP3 ADD MSTORE POP JUMP JUMPDEST PUSH2 0xAFA DUP2 PUSH2 0x970 JUMP JUMPDEST DUP2 EQ PUSH2 0xB05 JUMPI PUSH1 0x0 DUP1 REVERT JUMPDEST POP JUMP JUMPDEST PUSH2 0xB11 DUP2 PUSH2 0x9A2 JUMP JUMPDEST DUP2 EQ PUSH2 0xB1C JUMPI PUSH1 0x0 DUP1 REVERT JUMPDEST POP JUMP INVALID LOG2 PUSH5 0x6970667358 0x22 SLT KECCAK256 0xDB SELFBALANCE MSIZE 0xF6 DUP8 KECCAK256 RETURNDATACOPY GASPRICE 0xC1 0xB0 0x48 INVALID SHR SWAP13 0xD5 RETURN CODECOPY EXTCODEHASH 0xEB DUP5 MSTORE8 0xE8 0xAD 0xDE 0x2A 0xD0 GAS 0xB7 0x26 CALLDATASIZE 0x28 0x4A PUSH5 0x736F6C6343 STOP ADDMOD DIV STOP CALLER "
		},
		"gasEstimates": {
			"creation": {
				"codeDepositCost": "87000",
				"executionCost": "infinite",
				"totalCost": "infinite"
			},
			"external": {
				"flowerCoinStorage()": "1257",
				"flowerStorage()": "1232"
			}
		},
		"methodIdentifiers": {
			"flowerCoinStorage()": "b7f6d906",
			"flowerStorage()": "1f054bbe"
		}
	},
	"abi": [
		{
			"inputs": [],
			"stateMutability": "nonpayable",
			"type": "constructor"
		},
		{
			"inputs": [],
			"name": "flowerCoinStorage",
			"outputs": [
				{
					"internalType": "contract FlowerCoinStorage",
					"name": "",
					"type": "address"
				}
			],
			"stateMutability": "view",
			"type": "function"
		},
		{
			"inputs": [],
			"name": "flowerStorage",
			"outputs": [
				{
					"internalType": "contract FlowerStorage",
					"name": "",
					"type": "address"
				}
			],
			"stateMutability": "view",
			"type": "function"
		}
	]
}