{
	"data": {
		"bytecode": {
			"linkReferences": {},
			"object": "608060405234801561001057600080fd5b5060405161001d9061019f565b604051809103906000f080158015610039573d6000803e3d6000fd5b506000806101000a81548173ffffffffffffffffffffffffffffffffffffffff021916908373ffffffffffffffffffffffffffffffffffffffff160217905550604051610085906101ac565b604051809103906000f0801580156100a1573d6000803e3d6000fd5b50600160006101000a81548173ffffffffffffffffffffffffffffffffffffffff021916908373ffffffffffffffffffffffffffffffffffffffff16021790555060008054906101000a900473ffffffffffffffffffffffffffffffffffffffff16600160009054906101000a900473ffffffffffffffffffffffffffffffffffffffff16604051610132906101b9565b61013d9291906101d5565b604051809103906000f080158015610159573d6000803e3d6000fd5b50600260006101000a81548173ffffffffffffffffffffffffffffffffffffffff021916908373ffffffffffffffffffffffffffffffffffffffff160217905550610230565b6114e98061048f83390190565b610ee68061197883390190565b612f448061285e83390190565b6101cf816101fe565b82525050565b60006040820190506101ea60008301856101c6565b6101f760208301846101c6565b9392505050565b600061020982610210565b9050919050565b600073ffffffffffffffffffffffffffffffffffffffff82169050919050565b6102508061023f6000396000f3fe608060405234801561001057600080fd5b50600436106100415760003560e01c80631f054bbe14610046578063b7f6d90614610064578063bc7e99fd14610082575b600080fd5b61004e6100a0565b60405161005b9190610173565b60405180910390f35b61006c6100c4565b604051610079919061013d565b60405180910390f35b61008a6100ea565b6040516100979190610158565b60405180910390f35b60008054906101000a900473ffffffffffffffffffffffffffffffffffffffff1681565b600160009054906101000a900473ffffffffffffffffffffffffffffffffffffffff1681565b600260009054906101000a900473ffffffffffffffffffffffffffffffffffffffff1681565b610119816101ae565b82525050565b610128816101d2565b82525050565b610137816101f6565b82525050565b60006020820190506101526000830184610110565b92915050565b600060208201905061016d600083018461011f565b92915050565b6000602082019050610188600083018461012e565b92915050565b600073ffffffffffffffffffffffffffffffffffffffff82169050919050565b60006101b9826101c0565b9050919050565b60006101cb8261018e565b9050919050565b60006101dd826101e4565b9050919050565b60006101ef8261018e565b9050919050565b600061020182610208565b9050919050565b60006102138261018e565b905091905056fea26469706673582212204faba28aa2d32d51c4a6d460f59b4dffa4e475c1a59132bef3815134c2c243ea64736f6c6343000804003360806040523480156200001157600080fd5b5062000032620000266200004960201b60201c565b6200005160201b60201c565b62000043336200011560201b60201c565b62000381565b600033905090565b60008060009054906101000a900473ffffffffffffffffffffffffffffffffffffffff169050816000806101000a81548173ffffffffffffffffffffffffffffffffffffffff021916908373ffffffffffffffffffffffffffffffffffffffff1602179055508173ffffffffffffffffffffffffffffffffffffffff168173ffffffffffffffffffffffffffffffffffffffff167f8be0079c531659141344cd1fd0a4f28419497f9722a3daafe3b4186f6b6457e060405160405180910390a35050565b62000125620001ac60201b60201c565b600073ffffffffffffffffffffffffffffffffffffffff168173ffffffffffffffffffffffffffffffffffffffff16141562000198576040517f08c379a00000000000000000000000000000000000000000000000000000000081526004016200018f90620002b4565b60405180910390fd5b620001a9816200005160201b60201c565b50565b620001bc6200004960201b60201c565b73ffffffffffffffffffffffffffffffffffffffff16620001e26200023d60201b60201c565b73ffffffffffffffffffffffffffffffffffffffff16146200023b576040517f08c379a00000000000000000000000000000000000000000000000000000000081526004016200023290620002d6565b60405180910390fd5b565b60008060009054906101000a900473ffffffffffffffffffffffffffffffffffffffff16905090565b600062000275602683620002f8565b9150620002828262000309565b604082019050919050565b60006200029c602083620002f8565b9150620002a98262000358565b602082019050919050565b60006020820190508181036000830152620002cf8162000266565b9050919050565b60006020820190508181036000830152620002f1816200028d565b9050919050565b600082825260208201905092915050565b7f4f776e61626c653a206e6577206f776e657220697320746865207a65726f206160008201527f6464726573730000000000000000000000000000000000000000000000000000602082015250565b7f4f776e61626c653a2063616c6c6572206973206e6f7420746865206f776e6572600082015250565b61115880620003916000396000f3fe608060405234801561001057600080fd5b50600436106101585760003560e01c8063baafd2d8116100c3578063d89b5ed61161007c578063d89b5ed61461039b578063e468688e146103b7578063ee650665146103d3578063efe54dd5146103ef578063f2fde38b14610421578063f94762781461043d57610158565b8063baafd2d8146102db578063c39139911461030b578063ce5e936514610327578063cfd4f18a14610345578063d53045c814610361578063d89135cd1461037d57610158565b80637ab436f8116101155780637ab436f81461020957806385393a8e146102255780638da5cb5b1461024157806393f0f55a1461025f578063aee9c8721461027b578063b1398144146102ab57610158565b806318160ddd1461015d57806321e5383a1461017b5780634b9ecd54146101975780634eb84791146101b35780636e76c3cf146101cf578063715018a6146101ff575b600080fd5b610165610459565b6040516101729190610f24565b60405180910390f35b61019560048036038101906101909190610d45565b61045f565b005b6101b160048036038101906101ac9190610dd0565b6104c1565b005b6101cd60048036038101906101c89190610d81565b6104e5565b005b6101e960048036038101906101e49190610d1c565b61070e565b6040516101f69190610f24565b60405180910390f35b610207610726565b005b610223600480360381019061021e9190610d45565b61073a565b005b61023f600480360381019061023a9190610d45565b61078a565b005b6102496107da565b6040516102569190610eae565b60405180910390f35b61027960048036038101906102749190610dd0565b610803565b005b61029560048036038101906102909190610d1c565b610827565b6040516102a29190610f24565b60405180910390f35b6102c560048036038101906102c09190610d45565b61083f565b6040516102d29190610f09565b60405180910390f35b6102f560048036038101906102f09190610d1c565b6108c8565b6040516103029190610f24565b60405180910390f35b61032560048036038101906103209190610dd0565b6108e0565b005b61032f610904565b60405161033c9190610f24565b60405180910390f35b61035f600480360381019061035a9190610d45565b61090a565b005b61037b60048036038101906103769190610dd0565b61096c565b005b610385610990565b6040516103929190610f24565b60405180910390f35b6103b560048036038101906103b09190610d45565b610996565b005b6103d160048036038101906103cc9190610dd0565b610a0d565b005b6103ed60048036038101906103e89190610d81565b610a31565b005b61040960048036038101906104049190610d45565b610aa8565b60405161041893929190610f3f565b60405180910390f35b61043b60048036038101906104369190610d1c565b610adf565b005b61045760048036038101906104529190610dd0565b610b63565b005b60025481565b610467610b87565b80600160008473ffffffffffffffffffffffffffffffffffffffff1673ffffffffffffffffffffffffffffffffffffffff16815260200190815260200160002060008282546104b69190610f87565b925050819055505050565b6104c9610b87565b80600260008282546104db9190610fdd565b9250508190555050565b6104ed610b87565b60006040518060600160405280848152602001838152602001600081525090506000600660008673ffffffffffffffffffffffffffffffffffffffff1673ffffffffffffffffffffffffffffffffffffffff16815260200190815260200160002054905060006001826105609190610f87565b905082600760008873ffffffffffffffffffffffffffffffffffffffff1673ffffffffffffffffffffffffffffffffffffffff1681526020019081526020016000206000838152602001908152602001600020600082015181600001556020820151816001015560408201518160020155905050600082146106355780600760008873ffffffffffffffffffffffffffffffffffffffff1673ffffffffffffffffffffffffffffffffffffffff1681526020019081526020016000206000848152602001908152602001600020600201819055505b80600660008873ffffffffffffffffffffffffffffffffffffffff1673ffffffffffffffffffffffffffffffffffffffff168152602001908152602001600020819055506000600560008873ffffffffffffffffffffffffffffffffffffffff1673ffffffffffffffffffffffffffffffffffffffff1681526020019081526020016000205414156107065780600560008873ffffffffffffffffffffffffffffffffffffffff1673ffffffffffffffffffffffffffffffffffffffff168152602001908152602001600020819055505b505050505050565b60056020528060005260406000206000915090505481565b61072e610b87565b6107386000610c05565b565b610742610b87565b80600560008473ffffffffffffffffffffffffffffffffffffffff1673ffffffffffffffffffffffffffffffffffffffff168152602001908152602001600020819055505050565b610792610b87565b80600660008473ffffffffffffffffffffffffffffffffffffffff1673ffffffffffffffffffffffffffffffffffffffff168152602001908152602001600020819055505050565b60008060009054906101000a900473ffffffffffffffffffffffffffffffffffffffff16905090565b61080b610b87565b806004600082825461081d9190610f87565b9250508190555050565b60016020528060005260406000206000915090505481565b610847610cd1565b600760008473ffffffffffffffffffffffffffffffffffffffff1673ffffffffffffffffffffffffffffffffffffffff16815260200190815260200160002060008381526020019081526020016000206040518060600160405290816000820154815260200160018201548152602001600282015481525050905092915050565b60066020528060005260406000206000915090505481565b6108e8610b87565b80600460008282546108fa9190610fdd565b9250508190555050565b60035481565b610912610b87565b80600160008473ffffffffffffffffffffffffffffffffffffffff1673ffffffffffffffffffffffffffffffffffffffff16815260200190815260200160002060008282546109619190610fdd565b925050819055505050565b610974610b87565b80600360008282546109869190610f87565b9250508190555050565b60045481565b61099e610b87565b600760008373ffffffffffffffffffffffffffffffffffffffff1673ffffffffffffffffffffffffffffffffffffffff16815260200190815260200160002060008281526020019081526020016000206000808201600090556001820160009055600282016000905550505050565b610a15610b87565b8060026000828254610a279190610f87565b9250508190555050565b610a39610b87565b80600760008573ffffffffffffffffffffffffffffffffffffffff1673ffffffffffffffffffffffffffffffffffffffff16815260200190815260200160002060008481526020019081526020016000206001016000828254610a9c9190610fdd565b92505081905550505050565b6007602052816000526040600020602052806000526040600020600091509150508060000154908060010154908060020154905083565b610ae7610b87565b600073ffffffffffffffffffffffffffffffffffffffff168173ffffffffffffffffffffffffffffffffffffffff161415610b57576040517f08c379a0000000000000000000000000000000000000000000000000000000008152600401610b4e90610ec9565b60405180910390fd5b610b6081610c05565b50565b610b6b610b87565b8060036000828254610b7d9190610fdd565b9250508190555050565b610b8f610cc9565b73ffffffffffffffffffffffffffffffffffffffff16610bad6107da565b73ffffffffffffffffffffffffffffffffffffffff1614610c03576040517f08c379a0000000000000000000000000000000000000000000000000000000008152600401610bfa90610ee9565b60405180910390fd5b565b60008060009054906101000a900473ffffffffffffffffffffffffffffffffffffffff169050816000806101000a81548173ffffffffffffffffffffffffffffffffffffffff021916908373ffffffffffffffffffffffffffffffffffffffff1602179055508173ffffffffffffffffffffffffffffffffffffffff168173ffffffffffffffffffffffffffffffffffffffff167f8be0079c531659141344cd1fd0a4f28419497f9722a3daafe3b4186f6b6457e060405160405180910390a35050565b600033905090565b60405180606001604052806000815260200160008152602001600081525090565b600081359050610d01816110f4565b92915050565b600081359050610d168161110b565b92915050565b600060208284031215610d2e57600080fd5b6000610d3c84828501610cf2565b91505092915050565b60008060408385031215610d5857600080fd5b6000610d6685828601610cf2565b9250506020610d7785828601610d07565b9150509250929050565b600080600060608486031215610d9657600080fd5b6000610da486828701610cf2565b9350506020610db586828701610d07565b9250506040610dc686828701610d07565b9150509250925092565b600060208284031215610de257600080fd5b6000610df084828501610d07565b91505092915050565b610e0281611011565b82525050565b6000610e15602683610f76565b9150610e208261107c565b604082019050919050565b6000610e38602083610f76565b9150610e43826110cb565b602082019050919050565b606082016000820151610e646000850182610e90565b506020820151610e776020850182610e90565b506040820151610e8a6040850182610e90565b50505050565b610e9981611043565b82525050565b610ea881611043565b82525050565b6000602082019050610ec36000830184610df9565b92915050565b60006020820190508181036000830152610ee281610e08565b9050919050565b60006020820190508181036000830152610f0281610e2b565b9050919050565b6000606082019050610f1e6000830184610e4e565b92915050565b6000602082019050610f396000830184610e9f565b92915050565b6000606082019050610f546000830186610e9f565b610f616020830185610e9f565b610f6e6040830184610e9f565b949350505050565b600082825260208201905092915050565b6000610f9282611043565b9150610f9d83611043565b9250827fffffffffffffffffffffffffffffffffffffffffffffffffffffffffffffffff03821115610fd257610fd161104d565b5b828201905092915050565b6000610fe882611043565b9150610ff383611043565b9250828210156110065761100561104d565b5b828203905092915050565b600061101c82611023565b9050919050565b600073ffffffffffffffffffffffffffffffffffffffff82169050919050565b6000819050919050565b7f4e487b7100000000000000000000000000000000000000000000000000000000600052601160045260246000fd5b7f4f776e61626c653a206e6577206f776e657220697320746865207a65726f206160008201527f6464726573730000000000000000000000000000000000000000000000000000602082015250565b7f4f776e61626c653a2063616c6c6572206973206e6f7420746865206f776e6572600082015250565b6110fd81611011565b811461110857600080fd5b50565b61111481611043565b811461111f57600080fd5b5056fea26469706673582212200cc1e498e48a35f0deda2d2458cc22aeecaabd8ad1aa0540f1a0a7be05fba95464736f6c6343000804003360806040523480156200001157600080fd5b5062000032620000266200004960201b60201c565b6200005160201b60201c565b62000043336200011560201b60201c565b62000381565b600033905090565b60008060009054906101000a900473ffffffffffffffffffffffffffffffffffffffff169050816000806101000a81548173ffffffffffffffffffffffffffffffffffffffff021916908373ffffffffffffffffffffffffffffffffffffffff1602179055508173ffffffffffffffffffffffffffffffffffffffff168173ffffffffffffffffffffffffffffffffffffffff167f8be0079c531659141344cd1fd0a4f28419497f9722a3daafe3b4186f6b6457e060405160405180910390a35050565b62000125620001ac60201b60201c565b600073ffffffffffffffffffffffffffffffffffffffff168173ffffffffffffffffffffffffffffffffffffffff16141562000198576040517f08c379a00000000000000000000000000000000000000000000000000000000081526004016200018f90620002b4565b60405180910390fd5b620001a9816200005160201b60201c565b50565b620001bc6200004960201b60201c565b73ffffffffffffffffffffffffffffffffffffffff16620001e26200023d60201b60201c565b73ffffffffffffffffffffffffffffffffffffffff16146200023b576040517f08c379a00000000000000000000000000000000000000000000000000000000081526004016200023290620002d6565b60405180910390fd5b565b60008060009054906101000a900473ffffffffffffffffffffffffffffffffffffffff16905090565b600062000275602683620002f8565b9150620002828262000309565b604082019050919050565b60006200029c602083620002f8565b9150620002a98262000358565b602082019050919050565b60006020820190508181036000830152620002cf8162000266565b9050919050565b60006020820190508181036000830152620002f1816200028d565b9050919050565b600082825260208201905092915050565b7f4f776e61626c653a206e6577206f776e657220697320746865207a65726f206160008201527f6464726573730000000000000000000000000000000000000000000000000000602082015250565b7f4f776e61626c653a2063616c6c6572206973206e6f7420746865206f776e6572600082015250565b610b5580620003916000396000f3fe608060405234801561001057600080fd5b50600436106100935760003560e01c80639dc29fac116100665780639dc29fac146100fa578063aee9c87214610116578063beabacc814610146578063d89135cd14610162578063f2fde38b1461018057610093565b806318160ddd1461009857806340c10f19146100b6578063715018a6146100d25780638da5cb5b146100dc575b600080fd5b6100a061019c565b6040516100ad91906108ba565b60405180910390f35b6100d060048036038101906100cb9190610739565b6101a2565b005b6100da61021d565b005b6100e4610231565b6040516100f1919061081f565b60405180910390f35b610114600480360381019061010f9190610739565b61025a565b005b610130600480360381019061012b91906106c1565b610370565b60405161013d91906108ba565b60405180910390f35b610160600480360381019061015b91906106ea565b610388565b005b61016a6104c3565b60405161017791906108ba565b60405180910390f35b61019a600480360381019061019591906106c1565b6104c9565b005b60025481565b6101aa61054d565b80600160008473ffffffffffffffffffffffffffffffffffffffff1673ffffffffffffffffffffffffffffffffffffffff16815260200190815260200160002060008282546101f991906108e6565b92505081905550806002600082825461021291906108e6565b925050819055505050565b61022561054d565b61022f60006105cb565b565b60008060009054906101000a900473ffffffffffffffffffffffffffffffffffffffff16905090565b61026261054d565b80600160008473ffffffffffffffffffffffffffffffffffffffff1673ffffffffffffffffffffffffffffffffffffffff1681526020019081526020016000205410156102e4576040517f08c379a00000000000000000000000000000000000000000000000000000000081526004016102db9061087a565b60405180910390fd5b80600160008473ffffffffffffffffffffffffffffffffffffffff1673ffffffffffffffffffffffffffffffffffffffff1681526020019081526020016000206000828254610333919061093c565b92505081905550806002600082825461034c919061093c565b92505081905550806003600082825461036591906108e6565b925050819055505050565b60016020528060005260406000206000915090505481565b61039061054d565b80600160008573ffffffffffffffffffffffffffffffffffffffff1673ffffffffffffffffffffffffffffffffffffffff168152602001908152602001600020541015610412576040517f08c379a00000000000000000000000000000000000000000000000000000000081526004016104099061083a565b60405180910390fd5b80600160008573ffffffffffffffffffffffffffffffffffffffff1673ffffffffffffffffffffffffffffffffffffffff1681526020019081526020016000206000828254610461919061093c565b9250508190555080600160008473ffffffffffffffffffffffffffffffffffffffff1673ffffffffffffffffffffffffffffffffffffffff16815260200190815260200160002060008282546104b791906108e6565b92505081905550505050565b60035481565b6104d161054d565b600073ffffffffffffffffffffffffffffffffffffffff168173ffffffffffffffffffffffffffffffffffffffff161415610541576040517f08c379a00000000000000000000000000000000000000000000000000000000081526004016105389061085a565b60405180910390fd5b61054a816105cb565b50565b61055561068f565b73ffffffffffffffffffffffffffffffffffffffff16610573610231565b73ffffffffffffffffffffffffffffffffffffffff16146105c9576040517f08c379a00000000000000000000000000000000000000000000000000000000081526004016105c09061089a565b60405180910390fd5b565b60008060009054906101000a900473ffffffffffffffffffffffffffffffffffffffff169050816000806101000a81548173ffffffffffffffffffffffffffffffffffffffff021916908373ffffffffffffffffffffffffffffffffffffffff1602179055508173ffffffffffffffffffffffffffffffffffffffff168173ffffffffffffffffffffffffffffffffffffffff167f8be0079c531659141344cd1fd0a4f28419497f9722a3daafe3b4186f6b6457e060405160405180910390a35050565b600033905090565b6000813590506106a681610af1565b92915050565b6000813590506106bb81610b08565b92915050565b6000602082840312156106d357600080fd5b60006106e184828501610697565b91505092915050565b6000806000606084860312156106ff57600080fd5b600061070d86828701610697565b935050602061071e86828701610697565b925050604061072f868287016106ac565b9150509250925092565b6000806040838503121561074c57600080fd5b600061075a85828601610697565b925050602061076b858286016106ac565b9150509250929050565b61077e81610970565b82525050565b60006107916039836108d5565b915061079c826109db565b604082019050919050565b60006107b46026836108d5565b91506107bf82610a2a565b604082019050919050565b60006107d76030836108d5565b91506107e282610a79565b604082019050919050565b60006107fa6020836108d5565b915061080582610ac8565b602082019050919050565b610819816109a2565b82525050565b60006020820190506108346000830184610775565b92915050565b6000602082019050818103600083015261085381610784565b9050919050565b60006020820190508181036000830152610873816107a7565b9050919050565b60006020820190508181036000830152610893816107ca565b9050919050565b600060208201905081810360008301526108b3816107ed565b9050919050565b60006020820190506108cf6000830184610810565b92915050565b600082825260208201905092915050565b60006108f1826109a2565b91506108fc836109a2565b9250827fffffffffffffffffffffffffffffffffffffffffffffffffffffffffffffffff03821115610931576109306109ac565b5b828201905092915050565b6000610947826109a2565b9150610952836109a2565b925082821015610965576109646109ac565b5b828203905092915050565b600061097b82610982565b9050919050565b600073ffffffffffffffffffffffffffffffffffffffff82169050919050565b6000819050919050565b7f4e487b7100000000000000000000000000000000000000000000000000000000600052601160045260246000fd5b7f46726f6d206164647265737320646f6573206e6f74206861766520656e6f756760008201527f6820466c6f776572436f696e7320746f207472616e7366657200000000000000602082015250565b7f4f776e61626c653a206e6577206f776e657220697320746865207a65726f206160008201527f6464726573730000000000000000000000000000000000000000000000000000602082015250565b7f4164647265737320646f6573206e6f74206861766520656e6f75676820466c6f60008201527f776572436f696e7320746f206275726e00000000000000000000000000000000602082015250565b7f4f776e61626c653a2063616c6c6572206973206e6f7420746865206f776e6572600082015250565b610afa81610970565b8114610b0557600080fd5b50565b610b11816109a2565b8114610b1c57600080fd5b5056fea2646970667358221220db4759f687203e3ac1b048fe1c9cd5f3393feb8453e8adde2ad05ab72636284a64736f6c634300080400336080604052601e60035560016004553480156200001b57600080fd5b5060405162002f4438038062002f44833981810160405281019062000041919062000330565b6200006162000055620000fc60201b60201c565b6200010460201b60201c565b6200007233620001c860201b60201c565b81600160006101000a81548173ffffffffffffffffffffffffffffffffffffffff021916908373ffffffffffffffffffffffffffffffffffffffff16021790555080600260006101000a81548173ffffffffffffffffffffffffffffffffffffffff021916908373ffffffffffffffffffffffffffffffffffffffff1602179055505050620004da565b600033905090565b60008060009054906101000a900473ffffffffffffffffffffffffffffffffffffffff169050816000806101000a81548173ffffffffffffffffffffffffffffffffffffffff021916908373ffffffffffffffffffffffffffffffffffffffff1602179055508173ffffffffffffffffffffffffffffffffffffffff168173ffffffffffffffffffffffffffffffffffffffff167f8be0079c531659141344cd1fd0a4f28419497f9722a3daafe3b4186f6b6457e060405160405180910390a35050565b620001d86200025f60201b60201c565b600073ffffffffffffffffffffffffffffffffffffffff168173ffffffffffffffffffffffffffffffffffffffff1614156200024b576040517f08c379a00000000000000000000000000000000000000000000000000000000081526004016200024290620003bf565b60405180910390fd5b6200025c816200010460201b60201c565b50565b6200026f620000fc60201b60201c565b73ffffffffffffffffffffffffffffffffffffffff1662000295620002f060201b60201c565b73ffffffffffffffffffffffffffffffffffffffff1614620002ee576040517f08c379a0000000000000000000000000000000000000000000000000000000008152600401620002e590620003e1565b60405180910390fd5b565b60008060009054906101000a900473ffffffffffffffffffffffffffffffffffffffff16905090565b6000815190506200032a81620004c0565b92915050565b600080604083850312156200034457600080fd5b6000620003548582860162000319565b9250506020620003678582860162000319565b9150509250929050565b60006200038060268362000403565b91506200038d8262000448565b604082019050919050565b6000620003a760208362000403565b9150620003b48262000497565b602082019050919050565b60006020820190508181036000830152620003da8162000371565b9050919050565b60006020820190508181036000830152620003fc8162000398565b9050919050565b600082825260208201905092915050565b6000620004218262000428565b9050919050565b600073ffffffffffffffffffffffffffffffffffffffff82169050919050565b7f4f776e61626c653a206e6577206f776e657220697320746865207a65726f206160008201527f6464726573730000000000000000000000000000000000000000000000000000602082015250565b7f4f776e61626c653a2063616c6c6572206973206e6f7420746865206f776e6572600082015250565b620004cb8162000414565b8114620004d757600080fd5b50565b612a5a80620004ea6000396000f3fe608060405234801561001057600080fd5b50600436106101735760003560e01c80638da5cb5b116100de578063be1cba2f11610097578063d45519a111610071578063d45519a1146103ee578063f2fde38b1461040a578063f699aca714610426578063fe5907241461044257610173565b8063be1cba2f14610382578063cc55209b146103a0578063d140bbe1146103be57610173565b80638da5cb5b146102c05780639f9db463146102de578063ae9957ec1461030e578063aec898ca1461032a578063b5e6de7514610348578063b7f6d9061461036457610173565b80634d781330116101305780634d781330146102245780636219005d14610242578063644b637e1461025e578063715018a61461027a5780638a67f1e5146102845780638bf02357146102a257610173565b8063095bcdb6146101785780630c39fc27146101945780631f054bbe146101b05780632cd3d43d146101ce57806348db11f8146101ea5780634d2e899414610206575b600080fd5b610192600480360381019061018d91906122da565b610472565b005b6101ae60048036038101906101a99190612352565b61048b565b005b6101b861049d565b6040516101c591906125ff565b60405180910390f35b6101e860048036038101906101e39190612275565b6104c3565b005b61020460048036038101906101ff919061229e565b610b39565b005b61020e611348565b60405161021b919061267a565b60405180910390f35b61022c6113ef565b604051610239919061267a565b60405180910390f35b61025c60048036038101906102579190612352565b611496565b005b6102786004803603810190610273919061229e565b6114a8565b005b610282611670565b005b61028c611684565b604051610299919061267a565b60405180910390f35b6102aa61172b565b6040516102b7919061267a565b60405180910390f35b6102c8611731565b6040516102d59190612510565b60405180910390f35b6102f860048036038101906102f39190612275565b61175a565b604051610305919061267a565b60405180910390f35b6103286004803603810190610323919061229e565b61180e565b005b6103326118a9565b60405161033f919061267a565b60405180910390f35b610362600480360381019061035d919061229e565b611950565b005b61036c6119eb565b60405161037991906125e4565b60405180910390f35b61038a611a11565b604051610397919061267a565b60405180910390f35b6103a8611ab8565b6040516103b5919061267a565b60405180910390f35b6103d860048036038101906103d39190612275565b611abe565b6040516103e5919061267a565b60405180910390f35b6104086004803603810190610403919061229e565b611b72565b005b610424600480360381019061041f9190612275565b611c1c565b005b610440600480360381019061043b919061229e565b611ca0565b005b61045c6004803603810190610457919061229e565b611d35565b60405161046991906125c2565b60405180910390f35b61047c8383611b72565b6104868382611ca0565b505050565b61049361206b565b8060048190555050565b600160009054906101000a900473ffffffffffffffffffffffffffffffffffffffff1681565b6104cb61206b565b6000600160009054906101000a900473ffffffffffffffffffffffffffffffffffffffff1673ffffffffffffffffffffffffffffffffffffffff16636e76c3cf836040518263ffffffff1660e01b81526004016105289190612510565b60206040518083038186803b15801561054057600080fd5b505afa158015610554573d6000803e3d6000fd5b505050506040513d601f19601f82011682018060405250810190610578919061237b565b90506000600160009054906101000a900473ffffffffffffffffffffffffffffffffffffffff1673ffffffffffffffffffffffffffffffffffffffff1663b139814484846040518363ffffffff1660e01b81526004016105d9929190612562565b60606040518083038186803b1580156105f157600080fd5b505afa158015610605573d6000803e3d6000fd5b505050506040513d601f19601f820116820180604052508101906106299190612329565b905060005b60008314158015610650575042600354836000015161064d9190612704565b11155b1561098a57600160009054906101000a900473ffffffffffffffffffffffffffffffffffffffff1673ffffffffffffffffffffffffffffffffffffffff16637ab436f88584604001516040518363ffffffff1660e01b81526004016106b6929190612562565b600060405180830381600087803b1580156106d057600080fd5b505af11580156106e4573d6000803e3d6000fd5b5050505082600160009054906101000a900473ffffffffffffffffffffffffffffffffffffffff1673ffffffffffffffffffffffffffffffffffffffff1663baafd2d8866040518263ffffffff1660e01b81526004016107449190612510565b60206040518083038186803b15801561075c57600080fd5b505afa158015610770573d6000803e3d6000fd5b505050506040513d601f19601f82011682018060405250810190610794919061237b565b141561082e57600160009054906101000a900473ffffffffffffffffffffffffffffffffffffffff1673ffffffffffffffffffffffffffffffffffffffff166385393a8e8584604001516040518363ffffffff1660e01b81526004016107fb929190612562565b600060405180830381600087803b15801561081557600080fd5b505af1158015610829573d6000803e3d6000fd5b505050505b81602001518161083e9190612704565b9050600160009054906101000a900473ffffffffffffffffffffffffffffffffffffffff1673ffffffffffffffffffffffffffffffffffffffff1663d89b5ed685856040518363ffffffff1660e01b815260040161089d929190612562565b600060405180830381600087803b1580156108b757600080fd5b505af11580156108cb573d6000803e3d6000fd5b5050505081604001519250600160009054906101000a900473ffffffffffffffffffffffffffffffffffffffff1673ffffffffffffffffffffffffffffffffffffffff1663b139814485856040518363ffffffff1660e01b8152600401610933929190612562565b60606040518083038186803b15801561094b57600080fd5b505afa15801561095f573d6000803e3d6000fd5b505050506040513d601f19601f820116820180604052508101906109839190612329565b915061062e565b600160009054906101000a900473ffffffffffffffffffffffffffffffffffffffff1673ffffffffffffffffffffffffffffffffffffffff1663cfd4f18a85836040518363ffffffff1660e01b81526004016109e7929190612562565b600060405180830381600087803b158015610a0157600080fd5b505af1158015610a15573d6000803e3d6000fd5b50505050600160009054906101000a900473ffffffffffffffffffffffffffffffffffffffff1673ffffffffffffffffffffffffffffffffffffffff16634b9ecd54826040518263ffffffff1660e01b8152600401610a74919061267a565b600060405180830381600087803b158015610a8e57600080fd5b505af1158015610aa2573d6000803e3d6000fd5b50505050600160009054906101000a900473ffffffffffffffffffffffffffffffffffffffff1673ffffffffffffffffffffffffffffffffffffffff1663d53045c8826040518263ffffffff1660e01b8152600401610b01919061267a565b600060405180830381600087803b158015610b1b57600080fd5b505af1158015610b2f573d6000803e3d6000fd5b5050505050505050565b610b4161206b565b610b4a826104c3565b80600160009054906101000a900473ffffffffffffffffffffffffffffffffffffffff1673ffffffffffffffffffffffffffffffffffffffff1663aee9c872846040518263ffffffff1660e01b8152600401610ba69190612510565b60206040518083038186803b158015610bbe57600080fd5b505afa158015610bd2573d6000803e3d6000fd5b505050506040513d601f19601f82011682018060405250810190610bf6919061237b565b1015610c37576040517f08c379a0000000000000000000000000000000000000000000000000000000008152600401610c2e9061263a565b60405180910390fd5b6000600160009054906101000a900473ffffffffffffffffffffffffffffffffffffffff1673ffffffffffffffffffffffffffffffffffffffff16636e76c3cf846040518263ffffffff1660e01b8152600401610c949190612510565b60206040518083038186803b158015610cac57600080fd5b505afa158015610cc0573d6000803e3d6000fd5b505050506040513d601f19601f82011682018060405250810190610ce4919061237b565b90506000600160009054906101000a900473ffffffffffffffffffffffffffffffffffffffff1673ffffffffffffffffffffffffffffffffffffffff1663b139814485846040518363ffffffff1660e01b8152600401610d45929190612562565b60606040518083038186803b158015610d5d57600080fd5b505afa158015610d71573d6000803e3d6000fd5b505050506040513d601f19601f82011682018060405250810190610d959190612329565b905060005b838110156111985760008185610db091906127b4565b9050826020015181106110f257826020015182610dcd9190612704565b9150600160009054906101000a900473ffffffffffffffffffffffffffffffffffffffff1673ffffffffffffffffffffffffffffffffffffffff1663d89b5ed687866040518363ffffffff1660e01b8152600401610e2c929190612562565b600060405180830381600087803b158015610e4657600080fd5b505af1158015610e5a573d6000803e3d6000fd5b50505050600160009054906101000a900473ffffffffffffffffffffffffffffffffffffffff1673ffffffffffffffffffffffffffffffffffffffff16637ab436f88785604001516040518363ffffffff1660e01b8152600401610ebf929190612562565b600060405180830381600087803b158015610ed957600080fd5b505af1158015610eed573d6000803e3d6000fd5b5050505083600160009054906101000a900473ffffffffffffffffffffffffffffffffffffffff1673ffffffffffffffffffffffffffffffffffffffff1663baafd2d8886040518263ffffffff1660e01b8152600401610f4d9190612510565b60206040518083038186803b158015610f6557600080fd5b505afa158015610f79573d6000803e3d6000fd5b505050506040513d601f19601f82011682018060405250810190610f9d919061237b565b141561103757600160009054906101000a900473ffffffffffffffffffffffffffffffffffffffff1673ffffffffffffffffffffffffffffffffffffffff166385393a8e8785604001516040518363ffffffff1660e01b8152600401611004929190612562565b600060405180830381600087803b15801561101e57600080fd5b505af1158015611032573d6000803e3d6000fd5b505050505b82604001519350600160009054906101000a900473ffffffffffffffffffffffffffffffffffffffff1673ffffffffffffffffffffffffffffffffffffffff1663b139814487866040518363ffffffff1660e01b815260040161109b929190612562565b60606040518083038186803b1580156110b357600080fd5b505afa1580156110c7573d6000803e3d6000fd5b505050506040513d601f19601f820116820180604052508101906110eb9190612329565b9250611192565b80826110fe9190612704565b9150600160009054906101000a900473ffffffffffffffffffffffffffffffffffffffff1673ffffffffffffffffffffffffffffffffffffffff1663ee6506658786846040518463ffffffff1660e01b815260040161115f9392919061258b565b600060405180830381600087803b15801561117957600080fd5b505af115801561118d573d6000803e3d6000fd5b505050505b50610d9a565b600160009054906101000a900473ffffffffffffffffffffffffffffffffffffffff1673ffffffffffffffffffffffffffffffffffffffff1663cfd4f18a86836040518363ffffffff1660e01b81526004016111f5929190612562565b600060405180830381600087803b15801561120f57600080fd5b505af1158015611223573d6000803e3d6000fd5b50505050600160009054906101000a900473ffffffffffffffffffffffffffffffffffffffff1673ffffffffffffffffffffffffffffffffffffffff16634b9ecd54826040518263ffffffff1660e01b8152600401611282919061267a565b600060405180830381600087803b15801561129c57600080fd5b505af11580156112b0573d6000803e3d6000fd5b50505050600160009054906101000a900473ffffffffffffffffffffffffffffffffffffffff1673ffffffffffffffffffffffffffffffffffffffff166393f0f55a826040518263ffffffff1660e01b815260040161130f919061267a565b600060405180830381600087803b15801561132957600080fd5b505af115801561133d573d6000803e3d6000fd5b505050505050505050565b6000600160009054906101000a900473ffffffffffffffffffffffffffffffffffffffff1673ffffffffffffffffffffffffffffffffffffffff1663ce5e93656040518163ffffffff1660e01b815260040160206040518083038186803b1580156113b257600080fd5b505afa1580156113c6573d6000803e3d6000fd5b505050506040513d601f19601f820116820180604052508101906113ea919061237b565b905090565b6000600160009054906101000a900473ffffffffffffffffffffffffffffffffffffffff1673ffffffffffffffffffffffffffffffffffffffff1663d89135cd6040518163ffffffff1660e01b815260040160206040518083038186803b15801561145957600080fd5b505afa15801561146d573d6000803e3d6000fd5b505050506040513d601f19601f82011682018060405250810190611491919061237b565b905090565b61149e61206b565b8060038190555050565b6114b061206b565b6114b9826104c3565b6000429050600160009054906101000a900473ffffffffffffffffffffffffffffffffffffffff1673ffffffffffffffffffffffffffffffffffffffff16634eb847918483856040518463ffffffff1660e01b815260040161151d9392919061258b565b600060405180830381600087803b15801561153757600080fd5b505af115801561154b573d6000803e3d6000fd5b50505050600160009054906101000a900473ffffffffffffffffffffffffffffffffffffffff1673ffffffffffffffffffffffffffffffffffffffff166321e5383a84846040518363ffffffff1660e01b81526004016115ac929190612562565b600060405180830381600087803b1580156115c657600080fd5b505af11580156115da573d6000803e3d6000fd5b50505050600160009054906101000a900473ffffffffffffffffffffffffffffffffffffffff1673ffffffffffffffffffffffffffffffffffffffff1663e468688e836040518263ffffffff1660e01b8152600401611639919061267a565b600060405180830381600087803b15801561165357600080fd5b505af1158015611667573d6000803e3d6000fd5b50505050505050565b61167861206b565b61168260006120e9565b565b6000600160009054906101000a900473ffffffffffffffffffffffffffffffffffffffff1673ffffffffffffffffffffffffffffffffffffffff166318160ddd6040518163ffffffff1660e01b815260040160206040518083038186803b1580156116ee57600080fd5b505afa158015611702573d6000803e3d6000fd5b505050506040513d601f19601f82011682018060405250810190611726919061237b565b905090565b60035481565b60008060009054906101000a900473ffffffffffffffffffffffffffffffffffffffff16905090565b6000600260009054906101000a900473ffffffffffffffffffffffffffffffffffffffff1673ffffffffffffffffffffffffffffffffffffffff1663aee9c872836040518263ffffffff1660e01b81526004016117b79190612510565b60206040518083038186803b1580156117cf57600080fd5b505afa1580156117e3573d6000803e3d6000fd5b505050506040513d601f19601f82011682018060405250810190611807919061237b565b9050919050565b61181661206b565b600260009054906101000a900473ffffffffffffffffffffffffffffffffffffffff1673ffffffffffffffffffffffffffffffffffffffff166340c10f1983836040518363ffffffff1660e01b8152600401611873929190612562565b600060405180830381600087803b15801561188d57600080fd5b505af11580156118a1573d6000803e3d6000fd5b505050505050565b6000600260009054906101000a900473ffffffffffffffffffffffffffffffffffffffff1673ffffffffffffffffffffffffffffffffffffffff166318160ddd6040518163ffffffff1660e01b815260040160206040518083038186803b15801561191357600080fd5b505afa158015611927573d6000803e3d6000fd5b505050506040513d601f19601f8201168201806040525081019061194b919061237b565b905090565b61195861206b565b600260009054906101000a900473ffffffffffffffffffffffffffffffffffffffff1673ffffffffffffffffffffffffffffffffffffffff16639dc29fac83836040518363ffffffff1660e01b81526004016119b5929190612562565b600060405180830381600087803b1580156119cf57600080fd5b505af11580156119e3573d6000803e3d6000fd5b505050505050565b600260009054906101000a900473ffffffffffffffffffffffffffffffffffffffff1681565b6000600260009054906101000a900473ffffffffffffffffffffffffffffffffffffffff1673ffffffffffffffffffffffffffffffffffffffff1663d89135cd6040518163ffffffff1660e01b815260040160206040518083038186803b158015611a7b57600080fd5b505afa158015611a8f573d6000803e3d6000fd5b505050506040513d601f19601f82011682018060405250810190611ab3919061237b565b905090565b60045481565b6000600160009054906101000a900473ffffffffffffffffffffffffffffffffffffffff1673ffffffffffffffffffffffffffffffffffffffff1663aee9c872836040518263ffffffff1660e01b8152600401611b1b9190612510565b60206040518083038186803b158015611b3357600080fd5b505afa158015611b47573d6000803e3d6000fd5b505050506040513d601f19601f82011682018060405250810190611b6b919061237b565b9050919050565b611b893360045483611b84919061275a565b610b39565b600260009054906101000a900473ffffffffffffffffffffffffffffffffffffffff1673ffffffffffffffffffffffffffffffffffffffff166340c10f1983836040518363ffffffff1660e01b8152600401611be6929190612562565b600060405180830381600087803b158015611c0057600080fd5b505af1158015611c14573d6000803e3d6000fd5b505050505050565b611c2461206b565b600073ffffffffffffffffffffffffffffffffffffffff168173ffffffffffffffffffffffffffffffffffffffff161415611c94576040517f08c379a0000000000000000000000000000000000000000000000000000000008152600401611c8b9061261a565b60405180910390fd5b611c9d816120e9565b50565b600260009054906101000a900473ffffffffffffffffffffffffffffffffffffffff1673ffffffffffffffffffffffffffffffffffffffff1663beabacc83384846040518463ffffffff1660e01b8152600401611cff9392919061252b565b600060405180830381600087803b158015611d1957600080fd5b505af1158015611d2d573d6000803e3d6000fd5b505050505050565b60606000600160009054906101000a900473ffffffffffffffffffffffffffffffffffffffff1673ffffffffffffffffffffffffffffffffffffffff16636e76c3cf856040518263ffffffff1660e01b8152600401611d949190612510565b60206040518083038186803b158015611dac57600080fd5b505afa158015611dc0573d6000803e3d6000fd5b505050506040513d601f19601f82011682018060405250810190611de4919061237b565b90506000600182600160009054906101000a900473ffffffffffffffffffffffffffffffffffffffff1673ffffffffffffffffffffffffffffffffffffffff1663baafd2d8886040518263ffffffff1660e01b8152600401611e469190612510565b60206040518083038186803b158015611e5e57600080fd5b505afa158015611e72573d6000803e3d6000fd5b505050506040513d601f19601f82011682018060405250810190611e96919061237b565b611ea091906127b4565b611eaa9190612704565b90506000841480611eba57508084115b15611ec3578093505b60008467ffffffffffffffff811115611f05577f4e487b7100000000000000000000000000000000000000000000000000000000600052604160045260246000fd5b604051908082528060200260200182016040528015611f3e57816020015b611f2b6121b5565b815260200190600190039081611f235790505b50905060005b8581101561205e57600160009054906101000a900473ffffffffffffffffffffffffffffffffffffffff1673ffffffffffffffffffffffffffffffffffffffff1663b139814488866040518363ffffffff1660e01b8152600401611fa9929190612562565b60606040518083038186803b158015611fc157600080fd5b505afa158015611fd5573d6000803e3d6000fd5b505050506040513d601f19601f82011682018060405250810190611ff99190612329565b828281518110612032577f4e487b7100000000000000000000000000000000000000000000000000000000600052603260045260246000fd5b602002602001018190525083806120489061289d565b94505080806120569061289d565b915050611f44565b8194505050505092915050565b6120736121ad565b73ffffffffffffffffffffffffffffffffffffffff16612091611731565b73ffffffffffffffffffffffffffffffffffffffff16146120e7576040517f08c379a00000000000000000000000000000000000000000000000000000000081526004016120de9061265a565b60405180910390fd5b565b60008060009054906101000a900473ffffffffffffffffffffffffffffffffffffffff169050816000806101000a81548173ffffffffffffffffffffffffffffffffffffffff021916908373ffffffffffffffffffffffffffffffffffffffff1602179055508173ffffffffffffffffffffffffffffffffffffffff168173ffffffffffffffffffffffffffffffffffffffff167f8be0079c531659141344cd1fd0a4f28419497f9722a3daafe3b4186f6b6457e060405160405180910390a35050565b600033905090565b60405180606001604052806000815260200160008152602001600081525090565b6000813590506121e5816129f6565b92915050565b6000606082840312156121fd57600080fd5b6122076060612695565b9050600061221784828501612260565b600083015250602061222b84828501612260565b602083015250604061223f84828501612260565b60408301525092915050565b60008135905061225a81612a0d565b92915050565b60008151905061226f81612a0d565b92915050565b60006020828403121561228757600080fd5b6000612295848285016121d6565b91505092915050565b600080604083850312156122b157600080fd5b60006122bf858286016121d6565b92505060206122d08582860161224b565b9150509250929050565b6000806000606084860312156122ef57600080fd5b60006122fd868287016121d6565b935050602061230e8682870161224b565b925050604061231f8682870161224b565b9150509250925092565b60006060828403121561233b57600080fd5b6000612349848285016121eb565b91505092915050565b60006020828403121561236457600080fd5b60006123728482850161224b565b91505092915050565b60006020828403121561238d57600080fd5b600061239b84828501612260565b91505092915050565b60006123b083836124b0565b60608301905092915050565b6123c5816127e8565b82525050565b60006123d6826126ca565b6123e081856126e2565b93506123eb836126ba565b8060005b8381101561241c57815161240388826123a4565b975061240e836126d5565b9250506001810190506123ef565b5085935050505092915050565b61243281612824565b82525050565b61244181612848565b82525050565b60006124546026836126f3565b915061245f82612955565b604082019050919050565b60006124776019836126f3565b9150612482826129a4565b602082019050919050565b600061249a6020836126f3565b91506124a5826129cd565b602082019050919050565b6060820160008201516124c660008501826124f2565b5060208201516124d960208501826124f2565b5060408201516124ec60408501826124f2565b50505050565b6124fb8161281a565b82525050565b61250a8161281a565b82525050565b600060208201905061252560008301846123bc565b92915050565b600060608201905061254060008301866123bc565b61254d60208301856123bc565b61255a6040830184612501565b949350505050565b600060408201905061257760008301856123bc565b6125846020830184612501565b9392505050565b60006060820190506125a060008301866123bc565b6125ad6020830185612501565b6125ba6040830184612501565b949350505050565b600060208201905081810360008301526125dc81846123cb565b905092915050565b60006020820190506125f96000830184612429565b92915050565b60006020820190506126146000830184612438565b92915050565b6000602082019050818103600083015261263381612447565b9050919050565b600060208201905081810360008301526126538161246a565b9050919050565b600060208201905081810360008301526126738161248d565b9050919050565b600060208201905061268f6000830184612501565b92915050565b600061269f6126b0565b90506126ab828261286c565b919050565b6000604051905090565b6000819050602082019050919050565b600081519050919050565b6000602082019050919050565b600082825260208201905092915050565b600082825260208201905092915050565b600061270f8261281a565b915061271a8361281a565b9250827fffffffffffffffffffffffffffffffffffffffffffffffffffffffffffffffff0382111561274f5761274e6128e6565b5b828201905092915050565b60006127658261281a565b91506127708361281a565b9250817fffffffffffffffffffffffffffffffffffffffffffffffffffffffffffffffff04831182151516156127a9576127a86128e6565b5b828202905092915050565b60006127bf8261281a565b91506127ca8361281a565b9250828210156127dd576127dc6128e6565b5b828203905092915050565b60006127f3826127fa565b9050919050565b600073ffffffffffffffffffffffffffffffffffffffff82169050919050565b6000819050919050565b600061282f82612836565b9050919050565b6000612841826127fa565b9050919050565b60006128538261285a565b9050919050565b6000612865826127fa565b9050919050565b61287582612944565b810181811067ffffffffffffffff8211171561289457612893612915565b5b80604052505050565b60006128a88261281a565b91507fffffffffffffffffffffffffffffffffffffffffffffffffffffffffffffffff8214156128db576128da6128e6565b5b600182019050919050565b7f4e487b7100000000000000000000000000000000000000000000000000000000600052601160045260246000fd5b7f4e487b7100000000000000000000000000000000000000000000000000000000600052604160045260246000fd5b6000601f19601f8301169050919050565b7f4f776e61626c653a206e6577206f776e657220697320746865207a65726f206160008201527f6464726573730000000000000000000000000000000000000000000000000000602082015250565b7f4e6f7420656e6f75676820746f6b656e7320746f206275726e00000000000000600082015250565b7f4f776e61626c653a2063616c6c6572206973206e6f7420746865206f776e6572600082015250565b6129ff816127e8565b8114612a0a57600080fd5b50565b612a168161281a565b8114612a2157600080fd5b5056fea264697066735822122031688d316a20a838a14394f74d2eab607264ca34d366c804006aba622b3fcf8664736f6c63430008040033",
			"opcodes": "PUSH1 0x80 PUSH1 0x40 MSTORE CALLVALUE DUP1 ISZERO PUSH2 0x10 JUMPI PUSH1 0x0 DUP1 REVERT JUMPDEST POP PUSH1 0x40 MLOAD PUSH2 0x1D SWAP1 PUSH2 0x19F JUMP JUMPDEST PUSH1 0x40 MLOAD DUP1 SWAP2 SUB SWAP1 PUSH1 0x0 CREATE DUP1 ISZERO DUP1 ISZERO PUSH2 0x39 JUMPI RETURNDATASIZE PUSH1 0x0 DUP1 RETURNDATACOPY RETURNDATASIZE PUSH1 0x0 REVERT JUMPDEST POP PUSH1 0x0 DUP1 PUSH2 0x100 EXP DUP2 SLOAD DUP2 PUSH20 0xFFFFFFFFFFFFFFFFFFFFFFFFFFFFFFFFFFFFFFFF MUL NOT AND SWAP1 DUP4 PUSH20 0xFFFFFFFFFFFFFFFFFFFFFFFFFFFFFFFFFFFFFFFF AND MUL OR SWAP1 SSTORE POP PUSH1 0x40 MLOAD PUSH2 0x85 SWAP1 PUSH2 0x1AC JUMP JUMPDEST PUSH1 0x40 MLOAD DUP1 SWAP2 SUB SWAP1 PUSH1 0x0 CREATE DUP1 ISZERO DUP1 ISZERO PUSH2 0xA1 JUMPI RETURNDATASIZE PUSH1 0x0 DUP1 RETURNDATACOPY RETURNDATASIZE PUSH1 0x0 REVERT JUMPDEST POP PUSH1 0x1 PUSH1 0x0 PUSH2 0x100 EXP DUP2 SLOAD DUP2 PUSH20 0xFFFFFFFFFFFFFFFFFFFFFFFFFFFFFFFFFFFFFFFF MUL NOT AND SWAP1 DUP4 PUSH20 0xFFFFFFFFFFFFFFFFFFFFFFFFFFFFFFFFFFFFFFFF AND MUL OR SWAP1 SSTORE POP PUSH1 0x0 DUP1 SLOAD SWAP1 PUSH2 0x100 EXP SWAP1 DIV PUSH20 0xFFFFFFFFFFFFFFFFFFFFFFFFFFFFFFFFFFFFFFFF AND PUSH1 0x1 PUSH1 0x0 SWAP1 SLOAD SWAP1 PUSH2 0x100 EXP SWAP1 DIV PUSH20 0xFFFFFFFFFFFFFFFFFFFFFFFFFFFFFFFFFFFFFFFF AND PUSH1 0x40 MLOAD PUSH2 0x132 SWAP1 PUSH2 0x1B9 JUMP JUMPDEST PUSH2 0x13D SWAP3 SWAP2 SWAP1 PUSH2 0x1D5 JUMP JUMPDEST PUSH1 0x40 MLOAD DUP1 SWAP2 SUB SWAP1 PUSH1 0x0 CREATE DUP1 ISZERO DUP1 ISZERO PUSH2 0x159 JUMPI RETURNDATASIZE PUSH1 0x0 DUP1 RETURNDATACOPY RETURNDATASIZE PUSH1 0x0 REVERT JUMPDEST POP PUSH1 0x2 PUSH1 0x0 PUSH2 0x100 EXP DUP2 SLOAD DUP2 PUSH20 0xFFFFFFFFFFFFFFFFFFFFFFFFFFFFFFFFFFFFFFFF MUL NOT AND SWAP1 DUP4 PUSH20 0xFFFFFFFFFFFFFFFFFFFFFFFFFFFFFFFFFFFFFFFF AND MUL OR SWAP1 SSTORE POP PUSH2 0x230 JUMP JUMPDEST PUSH2 0x14E9 DUP1 PUSH2 0x48F DUP4 CODECOPY ADD SWAP1 JUMP JUMPDEST PUSH2 0xEE6 DUP1 PUSH2 0x1978 DUP4 CODECOPY ADD SWAP1 JUMP JUMPDEST PUSH2 0x2F44 DUP1 PUSH2 0x285E DUP4 CODECOPY ADD SWAP1 JUMP JUMPDEST PUSH2 0x1CF DUP2 PUSH2 0x1FE JUMP JUMPDEST DUP3 MSTORE POP POP JUMP JUMPDEST PUSH1 0x0 PUSH1 0x40 DUP3 ADD SWAP1 POP PUSH2 0x1EA PUSH1 0x0 DUP4 ADD DUP6 PUSH2 0x1C6 JUMP JUMPDEST PUSH2 0x1F7 PUSH1 0x20 DUP4 ADD DUP5 PUSH2 0x1C6 JUMP JUMPDEST SWAP4 SWAP3 POP POP POP JUMP JUMPDEST PUSH1 0x0 PUSH2 0x209 DUP3 PUSH2 0x210 JUMP JUMPDEST SWAP1 POP SWAP2 SWAP1 POP JUMP JUMPDEST PUSH1 0x0 PUSH20 0xFFFFFFFFFFFFFFFFFFFFFFFFFFFFFFFFFFFFFFFF DUP3 AND SWAP1 POP SWAP2 SWAP1 POP JUMP JUMPDEST PUSH2 0x250 DUP1 PUSH2 0x23F PUSH1 0x0 CODECOPY PUSH1 0x0 RETURN INVALID PUSH1 0x80 PUSH1 0x40 MSTORE CALLVALUE DUP1 ISZERO PUSH2 0x10 JUMPI PUSH1 0x0 DUP1 REVERT JUMPDEST POP PUSH1 0x4 CALLDATASIZE LT PUSH2 0x41 JUMPI PUSH1 0x0 CALLDATALOAD PUSH1 0xE0 SHR DUP1 PUSH4 0x1F054BBE EQ PUSH2 0x46 JUMPI DUP1 PUSH4 0xB7F6D906 EQ PUSH2 0x64 JUMPI DUP1 PUSH4 0xBC7E99FD EQ PUSH2 0x82 JUMPI JUMPDEST PUSH1 0x0 DUP1 REVERT JUMPDEST PUSH2 0x4E PUSH2 0xA0 JUMP JUMPDEST PUSH1 0x40 MLOAD PUSH2 0x5B SWAP2 SWAP1 PUSH2 0x173 JUMP JUMPDEST PUSH1 0x40 MLOAD DUP1 SWAP2 SUB SWAP1 RETURN JUMPDEST PUSH2 0x6C PUSH2 0xC4 JUMP JUMPDEST PUSH1 0x40 MLOAD PUSH2 0x79 SWAP2 SWAP1 PUSH2 0x13D JUMP JUMPDEST PUSH1 0x40 MLOAD DUP1 SWAP2 SUB SWAP1 RETURN JUMPDEST PUSH2 0x8A PUSH2 0xEA JUMP JUMPDEST PUSH1 0x40 MLOAD PUSH2 0x97 SWAP2 SWAP1 PUSH2 0x158 JUMP JUMPDEST PUSH1 0x40 MLOAD DUP1 SWAP2 SUB SWAP1 RETURN JUMPDEST PUSH1 0x0 DUP1 SLOAD SWAP1 PUSH2 0x100 EXP SWAP1 DIV PUSH20 0xFFFFFFFFFFFFFFFFFFFFFFFFFFFFFFFFFFFFFFFF AND DUP2 JUMP JUMPDEST PUSH1 0x1 PUSH1 0x0 SWAP1 SLOAD SWAP1 PUSH2 0x100 EXP SWAP1 DIV PUSH20 0xFFFFFFFFFFFFFFFFFFFFFFFFFFFFFFFFFFFFFFFF AND DUP2 JUMP JUMPDEST PUSH1 0x2 PUSH1 0x0 SWAP1 SLOAD SWAP1 PUSH2 0x100 EXP SWAP1 DIV PUSH20 0xFFFFFFFFFFFFFFFFFFFFFFFFFFFFFFFFFFFFFFFF AND DUP2 JUMP JUMPDEST PUSH2 0x119 DUP2 PUSH2 0x1AE JUMP JUMPDEST DUP3 MSTORE POP POP JUMP JUMPDEST PUSH2 0x128 DUP2 PUSH2 0x1D2 JUMP JUMPDEST DUP3 MSTORE POP POP JUMP JUMPDEST PUSH2 0x137 DUP2 PUSH2 0x1F6 JUMP JUMPDEST DUP3 MSTORE POP POP JUMP JUMPDEST PUSH1 0x0 PUSH1 0x20 DUP3 ADD SWAP1 POP PUSH2 0x152 PUSH1 0x0 DUP4 ADD DUP5 PUSH2 0x110 JUMP JUMPDEST SWAP3 SWAP2 POP POP JUMP JUMPDEST PUSH1 0x0 PUSH1 0x20 DUP3 ADD SWAP1 POP PUSH2 0x16D PUSH1 0x0 DUP4 ADD DUP5 PUSH2 0x11F JUMP JUMPDEST SWAP3 SWAP2 POP POP JUMP JUMPDEST PUSH1 0x0 PUSH1 0x20 DUP3 ADD SWAP1 POP PUSH2 0x188 PUSH1 0x0 DUP4 ADD DUP5 PUSH2 0x12E JUMP JUMPDEST SWAP3 SWAP2 POP POP JUMP JUMPDEST PUSH1 0x0 PUSH20 0xFFFFFFFFFFFFFFFFFFFFFFFFFFFFFFFFFFFFFFFF DUP3 AND SWAP1 POP SWAP2 SWAP1 POP JUMP JUMPDEST PUSH1 0x0 PUSH2 0x1B9 DUP3 PUSH2 0x1C0 JUMP JUMPDEST SWAP1 POP SWAP2 SWAP1 POP JUMP JUMPDEST PUSH1 0x0 PUSH2 0x1CB DUP3 PUSH2 0x18E JUMP JUMPDEST SWAP1 POP SWAP2 SWAP1 POP JUMP JUMPDEST PUSH1 0x0 PUSH2 0x1DD DUP3 PUSH2 0x1E4 JUMP JUMPDEST SWAP1 POP SWAP2 SWAP1 POP JUMP JUMPDEST PUSH1 0x0 PUSH2 0x1EF DUP3 PUSH2 0x18E JUMP JUMPDEST SWAP1 POP SWAP2 SWAP1 POP JUMP JUMPDEST PUSH1 0x0 PUSH2 0x201 DUP3 PUSH2 0x208 JUMP JUMPDEST SWAP1 POP SWAP2 SWAP1 POP JUMP JUMPDEST PUSH1 0x0 PUSH2 0x213 DUP3 PUSH2 0x18E JUMP JUMPDEST SWAP1 POP SWAP2 SWAP1 POP JUMP INVALID LOG2 PUSH5 0x6970667358 0x22 SLT KECCAK256 0x4F 0xAB LOG2 DUP11 LOG2 0xD3 0x2D MLOAD 0xC4 0xA6 0xD4 PUSH1 0xF5 SWAP12 0x4D SELFDESTRUCT LOG4 0xE4 PUSH22 0xC1A59132BEF3815134C2C243EA64736F6C6343000804 STOP CALLER PUSH1 0x80 PUSH1 0x40 MSTORE CALLVALUE DUP1 ISZERO PUSH3 0x11 JUMPI PUSH1 0x0 DUP1 REVERT JUMPDEST POP PUSH3 0x32 PUSH3 0x26 PUSH3 0x49 PUSH1 0x20 SHL PUSH1 0x20 SHR JUMP JUMPDEST PUSH3 0x51 PUSH1 0x20 SHL PUSH1 0x20 SHR JUMP JUMPDEST PUSH3 0x43 CALLER PUSH3 0x115 PUSH1 0x20 SHL PUSH1 0x20 SHR JUMP JUMPDEST PUSH3 0x381 JUMP JUMPDEST PUSH1 0x0 CALLER SWAP1 POP SWAP1 JUMP JUMPDEST PUSH1 0x0 DUP1 PUSH1 0x0 SWAP1 SLOAD SWAP1 PUSH2 0x100 EXP SWAP1 DIV PUSH20 0xFFFFFFFFFFFFFFFFFFFFFFFFFFFFFFFFFFFFFFFF AND SWAP1 POP DUP2 PUSH1 0x0 DUP1 PUSH2 0x100 EXP DUP2 SLOAD DUP2 PUSH20 0xFFFFFFFFFFFFFFFFFFFFFFFFFFFFFFFFFFFFFFFF MUL NOT AND SWAP1 DUP4 PUSH20 0xFFFFFFFFFFFFFFFFFFFFFFFFFFFFFFFFFFFFFFFF AND MUL OR SWAP1 SSTORE POP DUP2 PUSH20 0xFFFFFFFFFFFFFFFFFFFFFFFFFFFFFFFFFFFFFFFF AND DUP2 PUSH20 0xFFFFFFFFFFFFFFFFFFFFFFFFFFFFFFFFFFFFFFFF AND PUSH32 0x8BE0079C531659141344CD1FD0A4F28419497F9722A3DAAFE3B4186F6B6457E0 PUSH1 0x40 MLOAD PUSH1 0x40 MLOAD DUP1 SWAP2 SUB SWAP1 LOG3 POP POP JUMP JUMPDEST PUSH3 0x125 PUSH3 0x1AC PUSH1 0x20 SHL PUSH1 0x20 SHR JUMP JUMPDEST PUSH1 0x0 PUSH20 0xFFFFFFFFFFFFFFFFFFFFFFFFFFFFFFFFFFFFFFFF AND DUP2 PUSH20 0xFFFFFFFFFFFFFFFFFFFFFFFFFFFFFFFFFFFFFFFF AND EQ ISZERO PUSH3 0x198 JUMPI PUSH1 0x40 MLOAD PUSH32 0x8C379A000000000000000000000000000000000000000000000000000000000 DUP2 MSTORE PUSH1 0x4 ADD PUSH3 0x18F SWAP1 PUSH3 0x2B4 JUMP JUMPDEST PUSH1 0x40 MLOAD DUP1 SWAP2 SUB SWAP1 REVERT JUMPDEST PUSH3 0x1A9 DUP2 PUSH3 0x51 PUSH1 0x20 SHL PUSH1 0x20 SHR JUMP JUMPDEST POP JUMP JUMPDEST PUSH3 0x1BC PUSH3 0x49 PUSH1 0x20 SHL PUSH1 0x20 SHR JUMP JUMPDEST PUSH20 0xFFFFFFFFFFFFFFFFFFFFFFFFFFFFFFFFFFFFFFFF AND PUSH3 0x1E2 PUSH3 0x23D PUSH1 0x20 SHL PUSH1 0x20 SHR JUMP JUMPDEST PUSH20 0xFFFFFFFFFFFFFFFFFFFFFFFFFFFFFFFFFFFFFFFF AND EQ PUSH3 0x23B JUMPI PUSH1 0x40 MLOAD PUSH32 0x8C379A000000000000000000000000000000000000000000000000000000000 DUP2 MSTORE PUSH1 0x4 ADD PUSH3 0x232 SWAP1 PUSH3 0x2D6 JUMP JUMPDEST PUSH1 0x40 MLOAD DUP1 SWAP2 SUB SWAP1 REVERT JUMPDEST JUMP JUMPDEST PUSH1 0x0 DUP1 PUSH1 0x0 SWAP1 SLOAD SWAP1 PUSH2 0x100 EXP SWAP1 DIV PUSH20 0xFFFFFFFFFFFFFFFFFFFFFFFFFFFFFFFFFFFFFFFF AND SWAP1 POP SWAP1 JUMP JUMPDEST PUSH1 0x0 PUSH3 0x275 PUSH1 0x26 DUP4 PUSH3 0x2F8 JUMP JUMPDEST SWAP2 POP PUSH3 0x282 DUP3 PUSH3 0x309 JUMP JUMPDEST PUSH1 0x40 DUP3 ADD SWAP1 POP SWAP2 SWAP1 POP JUMP JUMPDEST PUSH1 0x0 PUSH3 0x29C PUSH1 0x20 DUP4 PUSH3 0x2F8 JUMP JUMPDEST SWAP2 POP PUSH3 0x2A9 DUP3 PUSH3 0x358 JUMP JUMPDEST PUSH1 0x20 DUP3 ADD SWAP1 POP SWAP2 SWAP1 POP JUMP JUMPDEST PUSH1 0x0 PUSH1 0x20 DUP3 ADD SWAP1 POP DUP2 DUP2 SUB PUSH1 0x0 DUP4 ADD MSTORE PUSH3 0x2CF DUP2 PUSH3 0x266 JUMP JUMPDEST SWAP1 POP SWAP2 SWAP1 POP JUMP JUMPDEST PUSH1 0x0 PUSH1 0x20 DUP3 ADD SWAP1 POP DUP2 DUP2 SUB PUSH1 0x0 DUP4 ADD MSTORE PUSH3 0x2F1 DUP2 PUSH3 0x28D JUMP JUMPDEST SWAP1 POP SWAP2 SWAP1 POP JUMP JUMPDEST PUSH1 0x0 DUP3 DUP3 MSTORE PUSH1 0x20 DUP3 ADD SWAP1 POP SWAP3 SWAP2 POP POP JUMP JUMPDEST PUSH32 0x4F776E61626C653A206E6577206F776E657220697320746865207A65726F2061 PUSH1 0x0 DUP3 ADD MSTORE PUSH32 0x6464726573730000000000000000000000000000000000000000000000000000 PUSH1 0x20 DUP3 ADD MSTORE POP JUMP JUMPDEST PUSH32 0x4F776E61626C653A2063616C6C6572206973206E6F7420746865206F776E6572 PUSH1 0x0 DUP3 ADD MSTORE POP JUMP JUMPDEST PUSH2 0x1158 DUP1 PUSH3 0x391 PUSH1 0x0 CODECOPY PUSH1 0x0 RETURN INVALID PUSH1 0x80 PUSH1 0x40 MSTORE CALLVALUE DUP1 ISZERO PUSH2 0x10 JUMPI PUSH1 0x0 DUP1 REVERT JUMPDEST POP PUSH1 0x4 CALLDATASIZE LT PUSH2 0x158 JUMPI PUSH1 0x0 CALLDATALOAD PUSH1 0xE0 SHR DUP1 PUSH4 0xBAAFD2D8 GT PUSH2 0xC3 JUMPI DUP1 PUSH4 0xD89B5ED6 GT PUSH2 0x7C JUMPI DUP1 PUSH4 0xD89B5ED6 EQ PUSH2 0x39B JUMPI DUP1 PUSH4 0xE468688E EQ PUSH2 0x3B7 JUMPI DUP1 PUSH4 0xEE650665 EQ PUSH2 0x3D3 JUMPI DUP1 PUSH4 0xEFE54DD5 EQ PUSH2 0x3EF JUMPI DUP1 PUSH4 0xF2FDE38B EQ PUSH2 0x421 JUMPI DUP1 PUSH4 0xF9476278 EQ PUSH2 0x43D JUMPI PUSH2 0x158 JUMP JUMPDEST DUP1 PUSH4 0xBAAFD2D8 EQ PUSH2 0x2DB JUMPI DUP1 PUSH4 0xC3913991 EQ PUSH2 0x30B JUMPI DUP1 PUSH4 0xCE5E9365 EQ PUSH2 0x327 JUMPI DUP1 PUSH4 0xCFD4F18A EQ PUSH2 0x345 JUMPI DUP1 PUSH4 0xD53045C8 EQ PUSH2 0x361 JUMPI DUP1 PUSH4 0xD89135CD EQ PUSH2 0x37D JUMPI PUSH2 0x158 JUMP JUMPDEST DUP1 PUSH4 0x7AB436F8 GT PUSH2 0x115 JUMPI DUP1 PUSH4 0x7AB436F8 EQ PUSH2 0x209 JUMPI DUP1 PUSH4 0x85393A8E EQ PUSH2 0x225 JUMPI DUP1 PUSH4 0x8DA5CB5B EQ PUSH2 0x241 JUMPI DUP1 PUSH4 0x93F0F55A EQ PUSH2 0x25F JUMPI DUP1 PUSH4 0xAEE9C872 EQ PUSH2 0x27B JUMPI DUP1 PUSH4 0xB1398144 EQ PUSH2 0x2AB JUMPI PUSH2 0x158 JUMP JUMPDEST DUP1 PUSH4 0x18160DDD EQ PUSH2 0x15D JUMPI DUP1 PUSH4 0x21E5383A EQ PUSH2 0x17B JUMPI DUP1 PUSH4 0x4B9ECD54 EQ PUSH2 0x197 JUMPI DUP1 PUSH4 0x4EB84791 EQ PUSH2 0x1B3 JUMPI DUP1 PUSH4 0x6E76C3CF EQ PUSH2 0x1CF JUMPI DUP1 PUSH4 0x715018A6 EQ PUSH2 0x1FF JUMPI JUMPDEST PUSH1 0x0 DUP1 REVERT JUMPDEST PUSH2 0x165 PUSH2 0x459 JUMP JUMPDEST PUSH1 0x40 MLOAD PUSH2 0x172 SWAP2 SWAP1 PUSH2 0xF24 JUMP JUMPDEST PUSH1 0x40 MLOAD DUP1 SWAP2 SUB SWAP1 RETURN JUMPDEST PUSH2 0x195 PUSH1 0x4 DUP1 CALLDATASIZE SUB DUP2 ADD SWAP1 PUSH2 0x190 SWAP2 SWAP1 PUSH2 0xD45 JUMP JUMPDEST PUSH2 0x45F JUMP JUMPDEST STOP JUMPDEST PUSH2 0x1B1 PUSH1 0x4 DUP1 CALLDATASIZE SUB DUP2 ADD SWAP1 PUSH2 0x1AC SWAP2 SWAP1 PUSH2 0xDD0 JUMP JUMPDEST PUSH2 0x4C1 JUMP JUMPDEST STOP JUMPDEST PUSH2 0x1CD PUSH1 0x4 DUP1 CALLDATASIZE SUB DUP2 ADD SWAP1 PUSH2 0x1C8 SWAP2 SWAP1 PUSH2 0xD81 JUMP JUMPDEST PUSH2 0x4E5 JUMP JUMPDEST STOP JUMPDEST PUSH2 0x1E9 PUSH1 0x4 DUP1 CALLDATASIZE SUB DUP2 ADD SWAP1 PUSH2 0x1E4 SWAP2 SWAP1 PUSH2 0xD1C JUMP JUMPDEST PUSH2 0x70E JUMP JUMPDEST PUSH1 0x40 MLOAD PUSH2 0x1F6 SWAP2 SWAP1 PUSH2 0xF24 JUMP JUMPDEST PUSH1 0x40 MLOAD DUP1 SWAP2 SUB SWAP1 RETURN JUMPDEST PUSH2 0x207 PUSH2 0x726 JUMP JUMPDEST STOP JUMPDEST PUSH2 0x223 PUSH1 0x4 DUP1 CALLDATASIZE SUB DUP2 ADD SWAP1 PUSH2 0x21E SWAP2 SWAP1 PUSH2 0xD45 JUMP JUMPDEST PUSH2 0x73A JUMP JUMPDEST STOP JUMPDEST PUSH2 0x23F PUSH1 0x4 DUP1 CALLDATASIZE SUB DUP2 ADD SWAP1 PUSH2 0x23A SWAP2 SWAP1 PUSH2 0xD45 JUMP JUMPDEST PUSH2 0x78A JUMP JUMPDEST STOP JUMPDEST PUSH2 0x249 PUSH2 0x7DA JUMP JUMPDEST PUSH1 0x40 MLOAD PUSH2 0x256 SWAP2 SWAP1 PUSH2 0xEAE JUMP JUMPDEST PUSH1 0x40 MLOAD DUP1 SWAP2 SUB SWAP1 RETURN JUMPDEST PUSH2 0x279 PUSH1 0x4 DUP1 CALLDATASIZE SUB DUP2 ADD SWAP1 PUSH2 0x274 SWAP2 SWAP1 PUSH2 0xDD0 JUMP JUMPDEST PUSH2 0x803 JUMP JUMPDEST STOP JUMPDEST PUSH2 0x295 PUSH1 0x4 DUP1 CALLDATASIZE SUB DUP2 ADD SWAP1 PUSH2 0x290 SWAP2 SWAP1 PUSH2 0xD1C JUMP JUMPDEST PUSH2 0x827 JUMP JUMPDEST PUSH1 0x40 MLOAD PUSH2 0x2A2 SWAP2 SWAP1 PUSH2 0xF24 JUMP JUMPDEST PUSH1 0x40 MLOAD DUP1 SWAP2 SUB SWAP1 RETURN JUMPDEST PUSH2 0x2C5 PUSH1 0x4 DUP1 CALLDATASIZE SUB DUP2 ADD SWAP1 PUSH2 0x2C0 SWAP2 SWAP1 PUSH2 0xD45 JUMP JUMPDEST PUSH2 0x83F JUMP JUMPDEST PUSH1 0x40 MLOAD PUSH2 0x2D2 SWAP2 SWAP1 PUSH2 0xF09 JUMP JUMPDEST PUSH1 0x40 MLOAD DUP1 SWAP2 SUB SWAP1 RETURN JUMPDEST PUSH2 0x2F5 PUSH1 0x4 DUP1 CALLDATASIZE SUB DUP2 ADD SWAP1 PUSH2 0x2F0 SWAP2 SWAP1 PUSH2 0xD1C JUMP JUMPDEST PUSH2 0x8C8 JUMP JUMPDEST PUSH1 0x40 MLOAD PUSH2 0x302 SWAP2 SWAP1 PUSH2 0xF24 JUMP JUMPDEST PUSH1 0x40 MLOAD DUP1 SWAP2 SUB SWAP1 RETURN JUMPDEST PUSH2 0x325 PUSH1 0x4 DUP1 CALLDATASIZE SUB DUP2 ADD SWAP1 PUSH2 0x320 SWAP2 SWAP1 PUSH2 0xDD0 JUMP JUMPDEST PUSH2 0x8E0 JUMP JUMPDEST STOP JUMPDEST PUSH2 0x32F PUSH2 0x904 JUMP JUMPDEST PUSH1 0x40 MLOAD PUSH2 0x33C SWAP2 SWAP1 PUSH2 0xF24 JUMP JUMPDEST PUSH1 0x40 MLOAD DUP1 SWAP2 SUB SWAP1 RETURN JUMPDEST PUSH2 0x35F PUSH1 0x4 DUP1 CALLDATASIZE SUB DUP2 ADD SWAP1 PUSH2 0x35A SWAP2 SWAP1 PUSH2 0xD45 JUMP JUMPDEST PUSH2 0x90A JUMP JUMPDEST STOP JUMPDEST PUSH2 0x37B PUSH1 0x4 DUP1 CALLDATASIZE SUB DUP2 ADD SWAP1 PUSH2 0x376 SWAP2 SWAP1 PUSH2 0xDD0 JUMP JUMPDEST PUSH2 0x96C JUMP JUMPDEST STOP JUMPDEST PUSH2 0x385 PUSH2 0x990 JUMP JUMPDEST PUSH1 0x40 MLOAD PUSH2 0x392 SWAP2 SWAP1 PUSH2 0xF24 JUMP JUMPDEST PUSH1 0x40 MLOAD DUP1 SWAP2 SUB SWAP1 RETURN JUMPDEST PUSH2 0x3B5 PUSH1 0x4 DUP1 CALLDATASIZE SUB DUP2 ADD SWAP1 PUSH2 0x3B0 SWAP2 SWAP1 PUSH2 0xD45 JUMP JUMPDEST PUSH2 0x996 JUMP JUMPDEST STOP JUMPDEST PUSH2 0x3D1 PUSH1 0x4 DUP1 CALLDATASIZE SUB DUP2 ADD SWAP1 PUSH2 0x3CC SWAP2 SWAP1 PUSH2 0xDD0 JUMP JUMPDEST PUSH2 0xA0D JUMP JUMPDEST STOP JUMPDEST PUSH2 0x3ED PUSH1 0x4 DUP1 CALLDATASIZE SUB DUP2 ADD SWAP1 PUSH2 0x3E8 SWAP2 SWAP1 PUSH2 0xD81 JUMP JUMPDEST PUSH2 0xA31 JUMP JUMPDEST STOP JUMPDEST PUSH2 0x409 PUSH1 0x4 DUP1 CALLDATASIZE SUB DUP2 ADD SWAP1 PUSH2 0x404 SWAP2 SWAP1 PUSH2 0xD45 JUMP JUMPDEST PUSH2 0xAA8 JUMP JUMPDEST PUSH1 0x40 MLOAD PUSH2 0x418 SWAP4 SWAP3 SWAP2 SWAP1 PUSH2 0xF3F JUMP JUMPDEST PUSH1 0x40 MLOAD DUP1 SWAP2 SUB SWAP1 RETURN JUMPDEST PUSH2 0x43B PUSH1 0x4 DUP1 CALLDATASIZE SUB DUP2 ADD SWAP1 PUSH2 0x436 SWAP2 SWAP1 PUSH2 0xD1C JUMP JUMPDEST PUSH2 0xADF JUMP JUMPDEST STOP JUMPDEST PUSH2 0x457 PUSH1 0x4 DUP1 CALLDATASIZE SUB DUP2 ADD SWAP1 PUSH2 0x452 SWAP2 SWAP1 PUSH2 0xDD0 JUMP JUMPDEST PUSH2 0xB63 JUMP JUMPDEST STOP JUMPDEST PUSH1 0x2 SLOAD DUP2 JUMP JUMPDEST PUSH2 0x467 PUSH2 0xB87 JUMP JUMPDEST DUP1 PUSH1 0x1 PUSH1 0x0 DUP5 PUSH20 0xFFFFFFFFFFFFFFFFFFFFFFFFFFFFFFFFFFFFFFFF AND PUSH20 0xFFFFFFFFFFFFFFFFFFFFFFFFFFFFFFFFFFFFFFFF AND DUP2 MSTORE PUSH1 0x20 ADD SWAP1 DUP2 MSTORE PUSH1 0x20 ADD PUSH1 0x0 KECCAK256 PUSH1 0x0 DUP3 DUP3 SLOAD PUSH2 0x4B6 SWAP2 SWAP1 PUSH2 0xF87 JUMP JUMPDEST SWAP3 POP POP DUP2 SWAP1 SSTORE POP POP POP JUMP JUMPDEST PUSH2 0x4C9 PUSH2 0xB87 JUMP JUMPDEST DUP1 PUSH1 0x2 PUSH1 0x0 DUP3 DUP3 SLOAD PUSH2 0x4DB SWAP2 SWAP1 PUSH2 0xFDD JUMP JUMPDEST SWAP3 POP POP DUP2 SWAP1 SSTORE POP POP JUMP JUMPDEST PUSH2 0x4ED PUSH2 0xB87 JUMP JUMPDEST PUSH1 0x0 PUSH1 0x40 MLOAD DUP1 PUSH1 0x60 ADD PUSH1 0x40 MSTORE DUP1 DUP5 DUP2 MSTORE PUSH1 0x20 ADD DUP4 DUP2 MSTORE PUSH1 0x20 ADD PUSH1 0x0 DUP2 MSTORE POP SWAP1 POP PUSH1 0x0 PUSH1 0x6 PUSH1 0x0 DUP7 PUSH20 0xFFFFFFFFFFFFFFFFFFFFFFFFFFFFFFFFFFFFFFFF AND PUSH20 0xFFFFFFFFFFFFFFFFFFFFFFFFFFFFFFFFFFFFFFFF AND DUP2 MSTORE PUSH1 0x20 ADD SWAP1 DUP2 MSTORE PUSH1 0x20 ADD PUSH1 0x0 KECCAK256 SLOAD SWAP1 POP PUSH1 0x0 PUSH1 0x1 DUP3 PUSH2 0x560 SWAP2 SWAP1 PUSH2 0xF87 JUMP JUMPDEST SWAP1 POP DUP3 PUSH1 0x7 PUSH1 0x0 DUP9 PUSH20 0xFFFFFFFFFFFFFFFFFFFFFFFFFFFFFFFFFFFFFFFF AND PUSH20 0xFFFFFFFFFFFFFFFFFFFFFFFFFFFFFFFFFFFFFFFF AND DUP2 MSTORE PUSH1 0x20 ADD SWAP1 DUP2 MSTORE PUSH1 0x20 ADD PUSH1 0x0 KECCAK256 PUSH1 0x0 DUP4 DUP2 MSTORE PUSH1 0x20 ADD SWAP1 DUP2 MSTORE PUSH1 0x20 ADD PUSH1 0x0 KECCAK256 PUSH1 0x0 DUP3 ADD MLOAD DUP2 PUSH1 0x0 ADD SSTORE PUSH1 0x20 DUP3 ADD MLOAD DUP2 PUSH1 0x1 ADD SSTORE PUSH1 0x40 DUP3 ADD MLOAD DUP2 PUSH1 0x2 ADD SSTORE SWAP1 POP POP PUSH1 0x0 DUP3 EQ PUSH2 0x635 JUMPI DUP1 PUSH1 0x7 PUSH1 0x0 DUP9 PUSH20 0xFFFFFFFFFFFFFFFFFFFFFFFFFFFFFFFFFFFFFFFF AND PUSH20 0xFFFFFFFFFFFFFFFFFFFFFFFFFFFFFFFFFFFFFFFF AND DUP2 MSTORE PUSH1 0x20 ADD SWAP1 DUP2 MSTORE PUSH1 0x20 ADD PUSH1 0x0 KECCAK256 PUSH1 0x0 DUP5 DUP2 MSTORE PUSH1 0x20 ADD SWAP1 DUP2 MSTORE PUSH1 0x20 ADD PUSH1 0x0 KECCAK256 PUSH1 0x2 ADD DUP2 SWAP1 SSTORE POP JUMPDEST DUP1 PUSH1 0x6 PUSH1 0x0 DUP9 PUSH20 0xFFFFFFFFFFFFFFFFFFFFFFFFFFFFFFFFFFFFFFFF AND PUSH20 0xFFFFFFFFFFFFFFFFFFFFFFFFFFFFFFFFFFFFFFFF AND DUP2 MSTORE PUSH1 0x20 ADD SWAP1 DUP2 MSTORE PUSH1 0x20 ADD PUSH1 0x0 KECCAK256 DUP2 SWAP1 SSTORE POP PUSH1 0x0 PUSH1 0x5 PUSH1 0x0 DUP9 PUSH20 0xFFFFFFFFFFFFFFFFFFFFFFFFFFFFFFFFFFFFFFFF AND PUSH20 0xFFFFFFFFFFFFFFFFFFFFFFFFFFFFFFFFFFFFFFFF AND DUP2 MSTORE PUSH1 0x20 ADD SWAP1 DUP2 MSTORE PUSH1 0x20 ADD PUSH1 0x0 KECCAK256 SLOAD EQ ISZERO PUSH2 0x706 JUMPI DUP1 PUSH1 0x5 PUSH1 0x0 DUP9 PUSH20 0xFFFFFFFFFFFFFFFFFFFFFFFFFFFFFFFFFFFFFFFF AND PUSH20 0xFFFFFFFFFFFFFFFFFFFFFFFFFFFFFFFFFFFFFFFF AND DUP2 MSTORE PUSH1 0x20 ADD SWAP1 DUP2 MSTORE PUSH1 0x20 ADD PUSH1 0x0 KECCAK256 DUP2 SWAP1 SSTORE POP JUMPDEST POP POP POP POP POP POP JUMP JUMPDEST PUSH1 0x5 PUSH1 0x20 MSTORE DUP1 PUSH1 0x0 MSTORE PUSH1 0x40 PUSH1 0x0 KECCAK256 PUSH1 0x0 SWAP2 POP SWAP1 POP SLOAD DUP2 JUMP JUMPDEST PUSH2 0x72E PUSH2 0xB87 JUMP JUMPDEST PUSH2 0x738 PUSH1 0x0 PUSH2 0xC05 JUMP JUMPDEST JUMP JUMPDEST PUSH2 0x742 PUSH2 0xB87 JUMP JUMPDEST DUP1 PUSH1 0x5 PUSH1 0x0 DUP5 PUSH20 0xFFFFFFFFFFFFFFFFFFFFFFFFFFFFFFFFFFFFFFFF AND PUSH20 0xFFFFFFFFFFFFFFFFFFFFFFFFFFFFFFFFFFFFFFFF AND DUP2 MSTORE PUSH1 0x20 ADD SWAP1 DUP2 MSTORE PUSH1 0x20 ADD PUSH1 0x0 KECCAK256 DUP2 SWAP1 SSTORE POP POP POP JUMP JUMPDEST PUSH2 0x792 PUSH2 0xB87 JUMP JUMPDEST DUP1 PUSH1 0x6 PUSH1 0x0 DUP5 PUSH20 0xFFFFFFFFFFFFFFFFFFFFFFFFFFFFFFFFFFFFFFFF AND PUSH20 0xFFFFFFFFFFFFFFFFFFFFFFFFFFFFFFFFFFFFFFFF AND DUP2 MSTORE PUSH1 0x20 ADD SWAP1 DUP2 MSTORE PUSH1 0x20 ADD PUSH1 0x0 KECCAK256 DUP2 SWAP1 SSTORE POP POP POP JUMP JUMPDEST PUSH1 0x0 DUP1 PUSH1 0x0 SWAP1 SLOAD SWAP1 PUSH2 0x100 EXP SWAP1 DIV PUSH20 0xFFFFFFFFFFFFFFFFFFFFFFFFFFFFFFFFFFFFFFFF AND SWAP1 POP SWAP1 JUMP JUMPDEST PUSH2 0x80B PUSH2 0xB87 JUMP JUMPDEST DUP1 PUSH1 0x4 PUSH1 0x0 DUP3 DUP3 SLOAD PUSH2 0x81D SWAP2 SWAP1 PUSH2 0xF87 JUMP JUMPDEST SWAP3 POP POP DUP2 SWAP1 SSTORE POP POP JUMP JUMPDEST PUSH1 0x1 PUSH1 0x20 MSTORE DUP1 PUSH1 0x0 MSTORE PUSH1 0x40 PUSH1 0x0 KECCAK256 PUSH1 0x0 SWAP2 POP SWAP1 POP SLOAD DUP2 JUMP JUMPDEST PUSH2 0x847 PUSH2 0xCD1 JUMP JUMPDEST PUSH1 0x7 PUSH1 0x0 DUP5 PUSH20 0xFFFFFFFFFFFFFFFFFFFFFFFFFFFFFFFFFFFFFFFF AND PUSH20 0xFFFFFFFFFFFFFFFFFFFFFFFFFFFFFFFFFFFFFFFF AND DUP2 MSTORE PUSH1 0x20 ADD SWAP1 DUP2 MSTORE PUSH1 0x20 ADD PUSH1 0x0 KECCAK256 PUSH1 0x0 DUP4 DUP2 MSTORE PUSH1 0x20 ADD SWAP1 DUP2 MSTORE PUSH1 0x20 ADD PUSH1 0x0 KECCAK256 PUSH1 0x40 MLOAD DUP1 PUSH1 0x60 ADD PUSH1 0x40 MSTORE SWAP1 DUP2 PUSH1 0x0 DUP3 ADD SLOAD DUP2 MSTORE PUSH1 0x20 ADD PUSH1 0x1 DUP3 ADD SLOAD DUP2 MSTORE PUSH1 0x20 ADD PUSH1 0x2 DUP3 ADD SLOAD DUP2 MSTORE POP POP SWAP1 POP SWAP3 SWAP2 POP POP JUMP JUMPDEST PUSH1 0x6 PUSH1 0x20 MSTORE DUP1 PUSH1 0x0 MSTORE PUSH1 0x40 PUSH1 0x0 KECCAK256 PUSH1 0x0 SWAP2 POP SWAP1 POP SLOAD DUP2 JUMP JUMPDEST PUSH2 0x8E8 PUSH2 0xB87 JUMP JUMPDEST DUP1 PUSH1 0x4 PUSH1 0x0 DUP3 DUP3 SLOAD PUSH2 0x8FA SWAP2 SWAP1 PUSH2 0xFDD JUMP JUMPDEST SWAP3 POP POP DUP2 SWAP1 SSTORE POP POP JUMP JUMPDEST PUSH1 0x3 SLOAD DUP2 JUMP JUMPDEST PUSH2 0x912 PUSH2 0xB87 JUMP JUMPDEST DUP1 PUSH1 0x1 PUSH1 0x0 DUP5 PUSH20 0xFFFFFFFFFFFFFFFFFFFFFFFFFFFFFFFFFFFFFFFF AND PUSH20 0xFFFFFFFFFFFFFFFFFFFFFFFFFFFFFFFFFFFFFFFF AND DUP2 MSTORE PUSH1 0x20 ADD SWAP1 DUP2 MSTORE PUSH1 0x20 ADD PUSH1 0x0 KECCAK256 PUSH1 0x0 DUP3 DUP3 SLOAD PUSH2 0x961 SWAP2 SWAP1 PUSH2 0xFDD JUMP JUMPDEST SWAP3 POP POP DUP2 SWAP1 SSTORE POP POP POP JUMP JUMPDEST PUSH2 0x974 PUSH2 0xB87 JUMP JUMPDEST DUP1 PUSH1 0x3 PUSH1 0x0 DUP3 DUP3 SLOAD PUSH2 0x986 SWAP2 SWAP1 PUSH2 0xF87 JUMP JUMPDEST SWAP3 POP POP DUP2 SWAP1 SSTORE POP POP JUMP JUMPDEST PUSH1 0x4 SLOAD DUP2 JUMP JUMPDEST PUSH2 0x99E PUSH2 0xB87 JUMP JUMPDEST PUSH1 0x7 PUSH1 0x0 DUP4 PUSH20 0xFFFFFFFFFFFFFFFFFFFFFFFFFFFFFFFFFFFFFFFF AND PUSH20 0xFFFFFFFFFFFFFFFFFFFFFFFFFFFFFFFFFFFFFFFF AND DUP2 MSTORE PUSH1 0x20 ADD SWAP1 DUP2 MSTORE PUSH1 0x20 ADD PUSH1 0x0 KECCAK256 PUSH1 0x0 DUP3 DUP2 MSTORE PUSH1 0x20 ADD SWAP1 DUP2 MSTORE PUSH1 0x20 ADD PUSH1 0x0 KECCAK256 PUSH1 0x0 DUP1 DUP3 ADD PUSH1 0x0 SWAP1 SSTORE PUSH1 0x1 DUP3 ADD PUSH1 0x0 SWAP1 SSTORE PUSH1 0x2 DUP3 ADD PUSH1 0x0 SWAP1 SSTORE POP POP POP POP JUMP JUMPDEST PUSH2 0xA15 PUSH2 0xB87 JUMP JUMPDEST DUP1 PUSH1 0x2 PUSH1 0x0 DUP3 DUP3 SLOAD PUSH2 0xA27 SWAP2 SWAP1 PUSH2 0xF87 JUMP JUMPDEST SWAP3 POP POP DUP2 SWAP1 SSTORE POP POP JUMP JUMPDEST PUSH2 0xA39 PUSH2 0xB87 JUMP JUMPDEST DUP1 PUSH1 0x7 PUSH1 0x0 DUP6 PUSH20 0xFFFFFFFFFFFFFFFFFFFFFFFFFFFFFFFFFFFFFFFF AND PUSH20 0xFFFFFFFFFFFFFFFFFFFFFFFFFFFFFFFFFFFFFFFF AND DUP2 MSTORE PUSH1 0x20 ADD SWAP1 DUP2 MSTORE PUSH1 0x20 ADD PUSH1 0x0 KECCAK256 PUSH1 0x0 DUP5 DUP2 MSTORE PUSH1 0x20 ADD SWAP1 DUP2 MSTORE PUSH1 0x20 ADD PUSH1 0x0 KECCAK256 PUSH1 0x1 ADD PUSH1 0x0 DUP3 DUP3 SLOAD PUSH2 0xA9C SWAP2 SWAP1 PUSH2 0xFDD JUMP JUMPDEST SWAP3 POP POP DUP2 SWAP1 SSTORE POP POP POP POP JUMP JUMPDEST PUSH1 0x7 PUSH1 0x20 MSTORE DUP2 PUSH1 0x0 MSTORE PUSH1 0x40 PUSH1 0x0 KECCAK256 PUSH1 0x20 MSTORE DUP1 PUSH1 0x0 MSTORE PUSH1 0x40 PUSH1 0x0 KECCAK256 PUSH1 0x0 SWAP2 POP SWAP2 POP POP DUP1 PUSH1 0x0 ADD SLOAD SWAP1 DUP1 PUSH1 0x1 ADD SLOAD SWAP1 DUP1 PUSH1 0x2 ADD SLOAD SWAP1 POP DUP4 JUMP JUMPDEST PUSH2 0xAE7 PUSH2 0xB87 JUMP JUMPDEST PUSH1 0x0 PUSH20 0xFFFFFFFFFFFFFFFFFFFFFFFFFFFFFFFFFFFFFFFF AND DUP2 PUSH20 0xFFFFFFFFFFFFFFFFFFFFFFFFFFFFFFFFFFFFFFFF AND EQ ISZERO PUSH2 0xB57 JUMPI PUSH1 0x40 MLOAD PUSH32 0x8C379A000000000000000000000000000000000000000000000000000000000 DUP2 MSTORE PUSH1 0x4 ADD PUSH2 0xB4E SWAP1 PUSH2 0xEC9 JUMP JUMPDEST PUSH1 0x40 MLOAD DUP1 SWAP2 SUB SWAP1 REVERT JUMPDEST PUSH2 0xB60 DUP2 PUSH2 0xC05 JUMP JUMPDEST POP JUMP JUMPDEST PUSH2 0xB6B PUSH2 0xB87 JUMP JUMPDEST DUP1 PUSH1 0x3 PUSH1 0x0 DUP3 DUP3 SLOAD PUSH2 0xB7D SWAP2 SWAP1 PUSH2 0xFDD JUMP JUMPDEST SWAP3 POP POP DUP2 SWAP1 SSTORE POP POP JUMP JUMPDEST PUSH2 0xB8F PUSH2 0xCC9 JUMP JUMPDEST PUSH20 0xFFFFFFFFFFFFFFFFFFFFFFFFFFFFFFFFFFFFFFFF AND PUSH2 0xBAD PUSH2 0x7DA JUMP JUMPDEST PUSH20 0xFFFFFFFFFFFFFFFFFFFFFFFFFFFFFFFFFFFFFFFF AND EQ PUSH2 0xC03 JUMPI PUSH1 0x40 MLOAD PUSH32 0x8C379A000000000000000000000000000000000000000000000000000000000 DUP2 MSTORE PUSH1 0x4 ADD PUSH2 0xBFA SWAP1 PUSH2 0xEE9 JUMP JUMPDEST PUSH1 0x40 MLOAD DUP1 SWAP2 SUB SWAP1 REVERT JUMPDEST JUMP JUMPDEST PUSH1 0x0 DUP1 PUSH1 0x0 SWAP1 SLOAD SWAP1 PUSH2 0x100 EXP SWAP1 DIV PUSH20 0xFFFFFFFFFFFFFFFFFFFFFFFFFFFFFFFFFFFFFFFF AND SWAP1 POP DUP2 PUSH1 0x0 DUP1 PUSH2 0x100 EXP DUP2 SLOAD DUP2 PUSH20 0xFFFFFFFFFFFFFFFFFFFFFFFFFFFFFFFFFFFFFFFF MUL NOT AND SWAP1 DUP4 PUSH20 0xFFFFFFFFFFFFFFFFFFFFFFFFFFFFFFFFFFFFFFFF AND MUL OR SWAP1 SSTORE POP DUP2 PUSH20 0xFFFFFFFFFFFFFFFFFFFFFFFFFFFFFFFFFFFFFFFF AND DUP2 PUSH20 0xFFFFFFFFFFFFFFFFFFFFFFFFFFFFFFFFFFFFFFFF AND PUSH32 0x8BE0079C531659141344CD1FD0A4F28419497F9722A3DAAFE3B4186F6B6457E0 PUSH1 0x40 MLOAD PUSH1 0x40 MLOAD DUP1 SWAP2 SUB SWAP1 LOG3 POP POP JUMP JUMPDEST PUSH1 0x0 CALLER SWAP1 POP SWAP1 JUMP JUMPDEST PUSH1 0x40 MLOAD DUP1 PUSH1 0x60 ADD PUSH1 0x40 MSTORE DUP1 PUSH1 0x0 DUP2 MSTORE PUSH1 0x20 ADD PUSH1 0x0 DUP2 MSTORE PUSH1 0x20 ADD PUSH1 0x0 DUP2 MSTORE POP SWAP1 JUMP JUMPDEST PUSH1 0x0 DUP2 CALLDATALOAD SWAP1 POP PUSH2 0xD01 DUP2 PUSH2 0x10F4 JUMP JUMPDEST SWAP3 SWAP2 POP POP JUMP JUMPDEST PUSH1 0x0 DUP2 CALLDATALOAD SWAP1 POP PUSH2 0xD16 DUP2 PUSH2 0x110B JUMP JUMPDEST SWAP3 SWAP2 POP POP JUMP JUMPDEST PUSH1 0x0 PUSH1 0x20 DUP3 DUP5 SUB SLT ISZERO PUSH2 0xD2E JUMPI PUSH1 0x0 DUP1 REVERT JUMPDEST PUSH1 0x0 PUSH2 0xD3C DUP5 DUP3 DUP6 ADD PUSH2 0xCF2 JUMP JUMPDEST SWAP2 POP POP SWAP3 SWAP2 POP POP JUMP JUMPDEST PUSH1 0x0 DUP1 PUSH1 0x40 DUP4 DUP6 SUB SLT ISZERO PUSH2 0xD58 JUMPI PUSH1 0x0 DUP1 REVERT JUMPDEST PUSH1 0x0 PUSH2 0xD66 DUP6 DUP3 DUP7 ADD PUSH2 0xCF2 JUMP JUMPDEST SWAP3 POP POP PUSH1 0x20 PUSH2 0xD77 DUP6 DUP3 DUP7 ADD PUSH2 0xD07 JUMP JUMPDEST SWAP2 POP POP SWAP3 POP SWAP3 SWAP1 POP JUMP JUMPDEST PUSH1 0x0 DUP1 PUSH1 0x0 PUSH1 0x60 DUP5 DUP7 SUB SLT ISZERO PUSH2 0xD96 JUMPI PUSH1 0x0 DUP1 REVERT JUMPDEST PUSH1 0x0 PUSH2 0xDA4 DUP7 DUP3 DUP8 ADD PUSH2 0xCF2 JUMP JUMPDEST SWAP4 POP POP PUSH1 0x20 PUSH2 0xDB5 DUP7 DUP3 DUP8 ADD PUSH2 0xD07 JUMP JUMPDEST SWAP3 POP POP PUSH1 0x40 PUSH2 0xDC6 DUP7 DUP3 DUP8 ADD PUSH2 0xD07 JUMP JUMPDEST SWAP2 POP POP SWAP3 POP SWAP3 POP SWAP3 JUMP JUMPDEST PUSH1 0x0 PUSH1 0x20 DUP3 DUP5 SUB SLT ISZERO PUSH2 0xDE2 JUMPI PUSH1 0x0 DUP1 REVERT JUMPDEST PUSH1 0x0 PUSH2 0xDF0 DUP5 DUP3 DUP6 ADD PUSH2 0xD07 JUMP JUMPDEST SWAP2 POP POP SWAP3 SWAP2 POP POP JUMP JUMPDEST PUSH2 0xE02 DUP2 PUSH2 0x1011 JUMP JUMPDEST DUP3 MSTORE POP POP JUMP JUMPDEST PUSH1 0x0 PUSH2 0xE15 PUSH1 0x26 DUP4 PUSH2 0xF76 JUMP JUMPDEST SWAP2 POP PUSH2 0xE20 DUP3 PUSH2 0x107C JUMP JUMPDEST PUSH1 0x40 DUP3 ADD SWAP1 POP SWAP2 SWAP1 POP JUMP JUMPDEST PUSH1 0x0 PUSH2 0xE38 PUSH1 0x20 DUP4 PUSH2 0xF76 JUMP JUMPDEST SWAP2 POP PUSH2 0xE43 DUP3 PUSH2 0x10CB JUMP JUMPDEST PUSH1 0x20 DUP3 ADD SWAP1 POP SWAP2 SWAP1 POP JUMP JUMPDEST PUSH1 0x60 DUP3 ADD PUSH1 0x0 DUP3 ADD MLOAD PUSH2 0xE64 PUSH1 0x0 DUP6 ADD DUP3 PUSH2 0xE90 JUMP JUMPDEST POP PUSH1 0x20 DUP3 ADD MLOAD PUSH2 0xE77 PUSH1 0x20 DUP6 ADD DUP3 PUSH2 0xE90 JUMP JUMPDEST POP PUSH1 0x40 DUP3 ADD MLOAD PUSH2 0xE8A PUSH1 0x40 DUP6 ADD DUP3 PUSH2 0xE90 JUMP JUMPDEST POP POP POP POP JUMP JUMPDEST PUSH2 0xE99 DUP2 PUSH2 0x1043 JUMP JUMPDEST DUP3 MSTORE POP POP JUMP JUMPDEST PUSH2 0xEA8 DUP2 PUSH2 0x1043 JUMP JUMPDEST DUP3 MSTORE POP POP JUMP JUMPDEST PUSH1 0x0 PUSH1 0x20 DUP3 ADD SWAP1 POP PUSH2 0xEC3 PUSH1 0x0 DUP4 ADD DUP5 PUSH2 0xDF9 JUMP JUMPDEST SWAP3 SWAP2 POP POP JUMP JUMPDEST PUSH1 0x0 PUSH1 0x20 DUP3 ADD SWAP1 POP DUP2 DUP2 SUB PUSH1 0x0 DUP4 ADD MSTORE PUSH2 0xEE2 DUP2 PUSH2 0xE08 JUMP JUMPDEST SWAP1 POP SWAP2 SWAP1 POP JUMP JUMPDEST PUSH1 0x0 PUSH1 0x20 DUP3 ADD SWAP1 POP DUP2 DUP2 SUB PUSH1 0x0 DUP4 ADD MSTORE PUSH2 0xF02 DUP2 PUSH2 0xE2B JUMP JUMPDEST SWAP1 POP SWAP2 SWAP1 POP JUMP JUMPDEST PUSH1 0x0 PUSH1 0x60 DUP3 ADD SWAP1 POP PUSH2 0xF1E PUSH1 0x0 DUP4 ADD DUP5 PUSH2 0xE4E JUMP JUMPDEST SWAP3 SWAP2 POP POP JUMP JUMPDEST PUSH1 0x0 PUSH1 0x20 DUP3 ADD SWAP1 POP PUSH2 0xF39 PUSH1 0x0 DUP4 ADD DUP5 PUSH2 0xE9F JUMP JUMPDEST SWAP3 SWAP2 POP POP JUMP JUMPDEST PUSH1 0x0 PUSH1 0x60 DUP3 ADD SWAP1 POP PUSH2 0xF54 PUSH1 0x0 DUP4 ADD DUP7 PUSH2 0xE9F JUMP JUMPDEST PUSH2 0xF61 PUSH1 0x20 DUP4 ADD DUP6 PUSH2 0xE9F JUMP JUMPDEST PUSH2 0xF6E PUSH1 0x40 DUP4 ADD DUP5 PUSH2 0xE9F JUMP JUMPDEST SWAP5 SWAP4 POP POP POP POP JUMP JUMPDEST PUSH1 0x0 DUP3 DUP3 MSTORE PUSH1 0x20 DUP3 ADD SWAP1 POP SWAP3 SWAP2 POP POP JUMP JUMPDEST PUSH1 0x0 PUSH2 0xF92 DUP3 PUSH2 0x1043 JUMP JUMPDEST SWAP2 POP PUSH2 0xF9D DUP4 PUSH2 0x1043 JUMP JUMPDEST SWAP3 POP DUP3 PUSH32 0xFFFFFFFFFFFFFFFFFFFFFFFFFFFFFFFFFFFFFFFFFFFFFFFFFFFFFFFFFFFFFFFF SUB DUP3 GT ISZERO PUSH2 0xFD2 JUMPI PUSH2 0xFD1 PUSH2 0x104D JUMP JUMPDEST JUMPDEST DUP3 DUP3 ADD SWAP1 POP SWAP3 SWAP2 POP POP JUMP JUMPDEST PUSH1 0x0 PUSH2 0xFE8 DUP3 PUSH2 0x1043 JUMP JUMPDEST SWAP2 POP PUSH2 0xFF3 DUP4 PUSH2 0x1043 JUMP JUMPDEST SWAP3 POP DUP3 DUP3 LT ISZERO PUSH2 0x1006 JUMPI PUSH2 0x1005 PUSH2 0x104D JUMP JUMPDEST JUMPDEST DUP3 DUP3 SUB SWAP1 POP SWAP3 SWAP2 POP POP JUMP JUMPDEST PUSH1 0x0 PUSH2 0x101C DUP3 PUSH2 0x1023 JUMP JUMPDEST SWAP1 POP SWAP2 SWAP1 POP JUMP JUMPDEST PUSH1 0x0 PUSH20 0xFFFFFFFFFFFFFFFFFFFFFFFFFFFFFFFFFFFFFFFF DUP3 AND SWAP1 POP SWAP2 SWAP1 POP JUMP JUMPDEST PUSH1 0x0 DUP2 SWAP1 POP SWAP2 SWAP1 POP JUMP JUMPDEST PUSH32 0x4E487B7100000000000000000000000000000000000000000000000000000000 PUSH1 0x0 MSTORE PUSH1 0x11 PUSH1 0x4 MSTORE PUSH1 0x24 PUSH1 0x0 REVERT JUMPDEST PUSH32 0x4F776E61626C653A206E6577206F776E657220697320746865207A65726F2061 PUSH1 0x0 DUP3 ADD MSTORE PUSH32 0x6464726573730000000000000000000000000000000000000000000000000000 PUSH1 0x20 DUP3 ADD MSTORE POP JUMP JUMPDEST PUSH32 0x4F776E61626C653A2063616C6C6572206973206E6F7420746865206F776E6572 PUSH1 0x0 DUP3 ADD MSTORE POP JUMP JUMPDEST PUSH2 0x10FD DUP2 PUSH2 0x1011 JUMP JUMPDEST DUP2 EQ PUSH2 0x1108 JUMPI PUSH1 0x0 DUP1 REVERT JUMPDEST POP JUMP JUMPDEST PUSH2 0x1114 DUP2 PUSH2 0x1043 JUMP JUMPDEST DUP2 EQ PUSH2 0x111F JUMPI PUSH1 0x0 DUP1 REVERT JUMPDEST POP JUMP INVALID LOG2 PUSH5 0x6970667358 0x22 SLT KECCAK256 0xC 0xC1 0xE4 SWAP9 0xE4 DUP11 CALLDATALOAD CREATE 0xDE 0xDA 0x2D 0x24 PC 0xCC 0x22 0xAE 0xEC 0xAA 0xBD DUP11 0xD1 0xAA SDIV BLOCKHASH CALL LOG0 0xA7 0xBE SDIV 0xFB 0xA9 SLOAD PUSH5 0x736F6C6343 STOP ADDMOD DIV STOP CALLER PUSH1 0x80 PUSH1 0x40 MSTORE CALLVALUE DUP1 ISZERO PUSH3 0x11 JUMPI PUSH1 0x0 DUP1 REVERT JUMPDEST POP PUSH3 0x32 PUSH3 0x26 PUSH3 0x49 PUSH1 0x20 SHL PUSH1 0x20 SHR JUMP JUMPDEST PUSH3 0x51 PUSH1 0x20 SHL PUSH1 0x20 SHR JUMP JUMPDEST PUSH3 0x43 CALLER PUSH3 0x115 PUSH1 0x20 SHL PUSH1 0x20 SHR JUMP JUMPDEST PUSH3 0x381 JUMP JUMPDEST PUSH1 0x0 CALLER SWAP1 POP SWAP1 JUMP JUMPDEST PUSH1 0x0 DUP1 PUSH1 0x0 SWAP1 SLOAD SWAP1 PUSH2 0x100 EXP SWAP1 DIV PUSH20 0xFFFFFFFFFFFFFFFFFFFFFFFFFFFFFFFFFFFFFFFF AND SWAP1 POP DUP2 PUSH1 0x0 DUP1 PUSH2 0x100 EXP DUP2 SLOAD DUP2 PUSH20 0xFFFFFFFFFFFFFFFFFFFFFFFFFFFFFFFFFFFFFFFF MUL NOT AND SWAP1 DUP4 PUSH20 0xFFFFFFFFFFFFFFFFFFFFFFFFFFFFFFFFFFFFFFFF AND MUL OR SWAP1 SSTORE POP DUP2 PUSH20 0xFFFFFFFFFFFFFFFFFFFFFFFFFFFFFFFFFFFFFFFF AND DUP2 PUSH20 0xFFFFFFFFFFFFFFFFFFFFFFFFFFFFFFFFFFFFFFFF AND PUSH32 0x8BE0079C531659141344CD1FD0A4F28419497F9722A3DAAFE3B4186F6B6457E0 PUSH1 0x40 MLOAD PUSH1 0x40 MLOAD DUP1 SWAP2 SUB SWAP1 LOG3 POP POP JUMP JUMPDEST PUSH3 0x125 PUSH3 0x1AC PUSH1 0x20 SHL PUSH1 0x20 SHR JUMP JUMPDEST PUSH1 0x0 PUSH20 0xFFFFFFFFFFFFFFFFFFFFFFFFFFFFFFFFFFFFFFFF AND DUP2 PUSH20 0xFFFFFFFFFFFFFFFFFFFFFFFFFFFFFFFFFFFFFFFF AND EQ ISZERO PUSH3 0x198 JUMPI PUSH1 0x40 MLOAD PUSH32 0x8C379A000000000000000000000000000000000000000000000000000000000 DUP2 MSTORE PUSH1 0x4 ADD PUSH3 0x18F SWAP1 PUSH3 0x2B4 JUMP JUMPDEST PUSH1 0x40 MLOAD DUP1 SWAP2 SUB SWAP1 REVERT JUMPDEST PUSH3 0x1A9 DUP2 PUSH3 0x51 PUSH1 0x20 SHL PUSH1 0x20 SHR JUMP JUMPDEST POP JUMP JUMPDEST PUSH3 0x1BC PUSH3 0x49 PUSH1 0x20 SHL PUSH1 0x20 SHR JUMP JUMPDEST PUSH20 0xFFFFFFFFFFFFFFFFFFFFFFFFFFFFFFFFFFFFFFFF AND PUSH3 0x1E2 PUSH3 0x23D PUSH1 0x20 SHL PUSH1 0x20 SHR JUMP JUMPDEST PUSH20 0xFFFFFFFFFFFFFFFFFFFFFFFFFFFFFFFFFFFFFFFF AND EQ PUSH3 0x23B JUMPI PUSH1 0x40 MLOAD PUSH32 0x8C379A000000000000000000000000000000000000000000000000000000000 DUP2 MSTORE PUSH1 0x4 ADD PUSH3 0x232 SWAP1 PUSH3 0x2D6 JUMP JUMPDEST PUSH1 0x40 MLOAD DUP1 SWAP2 SUB SWAP1 REVERT JUMPDEST JUMP JUMPDEST PUSH1 0x0 DUP1 PUSH1 0x0 SWAP1 SLOAD SWAP1 PUSH2 0x100 EXP SWAP1 DIV PUSH20 0xFFFFFFFFFFFFFFFFFFFFFFFFFFFFFFFFFFFFFFFF AND SWAP1 POP SWAP1 JUMP JUMPDEST PUSH1 0x0 PUSH3 0x275 PUSH1 0x26 DUP4 PUSH3 0x2F8 JUMP JUMPDEST SWAP2 POP PUSH3 0x282 DUP3 PUSH3 0x309 JUMP JUMPDEST PUSH1 0x40 DUP3 ADD SWAP1 POP SWAP2 SWAP1 POP JUMP JUMPDEST PUSH1 0x0 PUSH3 0x29C PUSH1 0x20 DUP4 PUSH3 0x2F8 JUMP JUMPDEST SWAP2 POP PUSH3 0x2A9 DUP3 PUSH3 0x358 JUMP JUMPDEST PUSH1 0x20 DUP3 ADD SWAP1 POP SWAP2 SWAP1 POP JUMP JUMPDEST PUSH1 0x0 PUSH1 0x20 DUP3 ADD SWAP1 POP DUP2 DUP2 SUB PUSH1 0x0 DUP4 ADD MSTORE PUSH3 0x2CF DUP2 PUSH3 0x266 JUMP JUMPDEST SWAP1 POP SWAP2 SWAP1 POP JUMP JUMPDEST PUSH1 0x0 PUSH1 0x20 DUP3 ADD SWAP1 POP DUP2 DUP2 SUB PUSH1 0x0 DUP4 ADD MSTORE PUSH3 0x2F1 DUP2 PUSH3 0x28D JUMP JUMPDEST SWAP1 POP SWAP2 SWAP1 POP JUMP JUMPDEST PUSH1 0x0 DUP3 DUP3 MSTORE PUSH1 0x20 DUP3 ADD SWAP1 POP SWAP3 SWAP2 POP POP JUMP JUMPDEST PUSH32 0x4F776E61626C653A206E6577206F776E657220697320746865207A65726F2061 PUSH1 0x0 DUP3 ADD MSTORE PUSH32 0x6464726573730000000000000000000000000000000000000000000000000000 PUSH1 0x20 DUP3 ADD MSTORE POP JUMP JUMPDEST PUSH32 0x4F776E61626C653A2063616C6C6572206973206E6F7420746865206F776E6572 PUSH1 0x0 DUP3 ADD MSTORE POP JUMP JUMPDEST PUSH2 0xB55 DUP1 PUSH3 0x391 PUSH1 0x0 CODECOPY PUSH1 0x0 RETURN INVALID PUSH1 0x80 PUSH1 0x40 MSTORE CALLVALUE DUP1 ISZERO PUSH2 0x10 JUMPI PUSH1 0x0 DUP1 REVERT JUMPDEST POP PUSH1 0x4 CALLDATASIZE LT PUSH2 0x93 JUMPI PUSH1 0x0 CALLDATALOAD PUSH1 0xE0 SHR DUP1 PUSH4 0x9DC29FAC GT PUSH2 0x66 JUMPI DUP1 PUSH4 0x9DC29FAC EQ PUSH2 0xFA JUMPI DUP1 PUSH4 0xAEE9C872 EQ PUSH2 0x116 JUMPI DUP1 PUSH4 0xBEABACC8 EQ PUSH2 0x146 JUMPI DUP1 PUSH4 0xD89135CD EQ PUSH2 0x162 JUMPI DUP1 PUSH4 0xF2FDE38B EQ PUSH2 0x180 JUMPI PUSH2 0x93 JUMP JUMPDEST DUP1 PUSH4 0x18160DDD EQ PUSH2 0x98 JUMPI DUP1 PUSH4 0x40C10F19 EQ PUSH2 0xB6 JUMPI DUP1 PUSH4 0x715018A6 EQ PUSH2 0xD2 JUMPI DUP1 PUSH4 0x8DA5CB5B EQ PUSH2 0xDC JUMPI JUMPDEST PUSH1 0x0 DUP1 REVERT JUMPDEST PUSH2 0xA0 PUSH2 0x19C JUMP JUMPDEST PUSH1 0x40 MLOAD PUSH2 0xAD SWAP2 SWAP1 PUSH2 0x8BA JUMP JUMPDEST PUSH1 0x40 MLOAD DUP1 SWAP2 SUB SWAP1 RETURN JUMPDEST PUSH2 0xD0 PUSH1 0x4 DUP1 CALLDATASIZE SUB DUP2 ADD SWAP1 PUSH2 0xCB SWAP2 SWAP1 PUSH2 0x739 JUMP JUMPDEST PUSH2 0x1A2 JUMP JUMPDEST STOP JUMPDEST PUSH2 0xDA PUSH2 0x21D JUMP JUMPDEST STOP JUMPDEST PUSH2 0xE4 PUSH2 0x231 JUMP JUMPDEST PUSH1 0x40 MLOAD PUSH2 0xF1 SWAP2 SWAP1 PUSH2 0x81F JUMP JUMPDEST PUSH1 0x40 MLOAD DUP1 SWAP2 SUB SWAP1 RETURN JUMPDEST PUSH2 0x114 PUSH1 0x4 DUP1 CALLDATASIZE SUB DUP2 ADD SWAP1 PUSH2 0x10F SWAP2 SWAP1 PUSH2 0x739 JUMP JUMPDEST PUSH2 0x25A JUMP JUMPDEST STOP JUMPDEST PUSH2 0x130 PUSH1 0x4 DUP1 CALLDATASIZE SUB DUP2 ADD SWAP1 PUSH2 0x12B SWAP2 SWAP1 PUSH2 0x6C1 JUMP JUMPDEST PUSH2 0x370 JUMP JUMPDEST PUSH1 0x40 MLOAD PUSH2 0x13D SWAP2 SWAP1 PUSH2 0x8BA JUMP JUMPDEST PUSH1 0x40 MLOAD DUP1 SWAP2 SUB SWAP1 RETURN JUMPDEST PUSH2 0x160 PUSH1 0x4 DUP1 CALLDATASIZE SUB DUP2 ADD SWAP1 PUSH2 0x15B SWAP2 SWAP1 PUSH2 0x6EA JUMP JUMPDEST PUSH2 0x388 JUMP JUMPDEST STOP JUMPDEST PUSH2 0x16A PUSH2 0x4C3 JUMP JUMPDEST PUSH1 0x40 MLOAD PUSH2 0x177 SWAP2 SWAP1 PUSH2 0x8BA JUMP JUMPDEST PUSH1 0x40 MLOAD DUP1 SWAP2 SUB SWAP1 RETURN JUMPDEST PUSH2 0x19A PUSH1 0x4 DUP1 CALLDATASIZE SUB DUP2 ADD SWAP1 PUSH2 0x195 SWAP2 SWAP1 PUSH2 0x6C1 JUMP JUMPDEST PUSH2 0x4C9 JUMP JUMPDEST STOP JUMPDEST PUSH1 0x2 SLOAD DUP2 JUMP JUMPDEST PUSH2 0x1AA PUSH2 0x54D JUMP JUMPDEST DUP1 PUSH1 0x1 PUSH1 0x0 DUP5 PUSH20 0xFFFFFFFFFFFFFFFFFFFFFFFFFFFFFFFFFFFFFFFF AND PUSH20 0xFFFFFFFFFFFFFFFFFFFFFFFFFFFFFFFFFFFFFFFF AND DUP2 MSTORE PUSH1 0x20 ADD SWAP1 DUP2 MSTORE PUSH1 0x20 ADD PUSH1 0x0 KECCAK256 PUSH1 0x0 DUP3 DUP3 SLOAD PUSH2 0x1F9 SWAP2 SWAP1 PUSH2 0x8E6 JUMP JUMPDEST SWAP3 POP POP DUP2 SWAP1 SSTORE POP DUP1 PUSH1 0x2 PUSH1 0x0 DUP3 DUP3 SLOAD PUSH2 0x212 SWAP2 SWAP1 PUSH2 0x8E6 JUMP JUMPDEST SWAP3 POP POP DUP2 SWAP1 SSTORE POP POP POP JUMP JUMPDEST PUSH2 0x225 PUSH2 0x54D JUMP JUMPDEST PUSH2 0x22F PUSH1 0x0 PUSH2 0x5CB JUMP JUMPDEST JUMP JUMPDEST PUSH1 0x0 DUP1 PUSH1 0x0 SWAP1 SLOAD SWAP1 PUSH2 0x100 EXP SWAP1 DIV PUSH20 0xFFFFFFFFFFFFFFFFFFFFFFFFFFFFFFFFFFFFFFFF AND SWAP1 POP SWAP1 JUMP JUMPDEST PUSH2 0x262 PUSH2 0x54D JUMP JUMPDEST DUP1 PUSH1 0x1 PUSH1 0x0 DUP5 PUSH20 0xFFFFFFFFFFFFFFFFFFFFFFFFFFFFFFFFFFFFFFFF AND PUSH20 0xFFFFFFFFFFFFFFFFFFFFFFFFFFFFFFFFFFFFFFFF AND DUP2 MSTORE PUSH1 0x20 ADD SWAP1 DUP2 MSTORE PUSH1 0x20 ADD PUSH1 0x0 KECCAK256 SLOAD LT ISZERO PUSH2 0x2E4 JUMPI PUSH1 0x40 MLOAD PUSH32 0x8C379A000000000000000000000000000000000000000000000000000000000 DUP2 MSTORE PUSH1 0x4 ADD PUSH2 0x2DB SWAP1 PUSH2 0x87A JUMP JUMPDEST PUSH1 0x40 MLOAD DUP1 SWAP2 SUB SWAP1 REVERT JUMPDEST DUP1 PUSH1 0x1 PUSH1 0x0 DUP5 PUSH20 0xFFFFFFFFFFFFFFFFFFFFFFFFFFFFFFFFFFFFFFFF AND PUSH20 0xFFFFFFFFFFFFFFFFFFFFFFFFFFFFFFFFFFFFFFFF AND DUP2 MSTORE PUSH1 0x20 ADD SWAP1 DUP2 MSTORE PUSH1 0x20 ADD PUSH1 0x0 KECCAK256 PUSH1 0x0 DUP3 DUP3 SLOAD PUSH2 0x333 SWAP2 SWAP1 PUSH2 0x93C JUMP JUMPDEST SWAP3 POP POP DUP2 SWAP1 SSTORE POP DUP1 PUSH1 0x2 PUSH1 0x0 DUP3 DUP3 SLOAD PUSH2 0x34C SWAP2 SWAP1 PUSH2 0x93C JUMP JUMPDEST SWAP3 POP POP DUP2 SWAP1 SSTORE POP DUP1 PUSH1 0x3 PUSH1 0x0 DUP3 DUP3 SLOAD PUSH2 0x365 SWAP2 SWAP1 PUSH2 0x8E6 JUMP JUMPDEST SWAP3 POP POP DUP2 SWAP1 SSTORE POP POP POP JUMP JUMPDEST PUSH1 0x1 PUSH1 0x20 MSTORE DUP1 PUSH1 0x0 MSTORE PUSH1 0x40 PUSH1 0x0 KECCAK256 PUSH1 0x0 SWAP2 POP SWAP1 POP SLOAD DUP2 JUMP JUMPDEST PUSH2 0x390 PUSH2 0x54D JUMP JUMPDEST DUP1 PUSH1 0x1 PUSH1 0x0 DUP6 PUSH20 0xFFFFFFFFFFFFFFFFFFFFFFFFFFFFFFFFFFFFFFFF AND PUSH20 0xFFFFFFFFFFFFFFFFFFFFFFFFFFFFFFFFFFFFFFFF AND DUP2 MSTORE PUSH1 0x20 ADD SWAP1 DUP2 MSTORE PUSH1 0x20 ADD PUSH1 0x0 KECCAK256 SLOAD LT ISZERO PUSH2 0x412 JUMPI PUSH1 0x40 MLOAD PUSH32 0x8C379A000000000000000000000000000000000000000000000000000000000 DUP2 MSTORE PUSH1 0x4 ADD PUSH2 0x409 SWAP1 PUSH2 0x83A JUMP JUMPDEST PUSH1 0x40 MLOAD DUP1 SWAP2 SUB SWAP1 REVERT JUMPDEST DUP1 PUSH1 0x1 PUSH1 0x0 DUP6 PUSH20 0xFFFFFFFFFFFFFFFFFFFFFFFFFFFFFFFFFFFFFFFF AND PUSH20 0xFFFFFFFFFFFFFFFFFFFFFFFFFFFFFFFFFFFFFFFF AND DUP2 MSTORE PUSH1 0x20 ADD SWAP1 DUP2 MSTORE PUSH1 0x20 ADD PUSH1 0x0 KECCAK256 PUSH1 0x0 DUP3 DUP3 SLOAD PUSH2 0x461 SWAP2 SWAP1 PUSH2 0x93C JUMP JUMPDEST SWAP3 POP POP DUP2 SWAP1 SSTORE POP DUP1 PUSH1 0x1 PUSH1 0x0 DUP5 PUSH20 0xFFFFFFFFFFFFFFFFFFFFFFFFFFFFFFFFFFFFFFFF AND PUSH20 0xFFFFFFFFFFFFFFFFFFFFFFFFFFFFFFFFFFFFFFFF AND DUP2 MSTORE PUSH1 0x20 ADD SWAP1 DUP2 MSTORE PUSH1 0x20 ADD PUSH1 0x0 KECCAK256 PUSH1 0x0 DUP3 DUP3 SLOAD PUSH2 0x4B7 SWAP2 SWAP1 PUSH2 0x8E6 JUMP JUMPDEST SWAP3 POP POP DUP2 SWAP1 SSTORE POP POP POP POP JUMP JUMPDEST PUSH1 0x3 SLOAD DUP2 JUMP JUMPDEST PUSH2 0x4D1 PUSH2 0x54D JUMP JUMPDEST PUSH1 0x0 PUSH20 0xFFFFFFFFFFFFFFFFFFFFFFFFFFFFFFFFFFFFFFFF AND DUP2 PUSH20 0xFFFFFFFFFFFFFFFFFFFFFFFFFFFFFFFFFFFFFFFF AND EQ ISZERO PUSH2 0x541 JUMPI PUSH1 0x40 MLOAD PUSH32 0x8C379A000000000000000000000000000000000000000000000000000000000 DUP2 MSTORE PUSH1 0x4 ADD PUSH2 0x538 SWAP1 PUSH2 0x85A JUMP JUMPDEST PUSH1 0x40 MLOAD DUP1 SWAP2 SUB SWAP1 REVERT JUMPDEST PUSH2 0x54A DUP2 PUSH2 0x5CB JUMP JUMPDEST POP JUMP JUMPDEST PUSH2 0x555 PUSH2 0x68F JUMP JUMPDEST PUSH20 0xFFFFFFFFFFFFFFFFFFFFFFFFFFFFFFFFFFFFFFFF AND PUSH2 0x573 PUSH2 0x231 JUMP JUMPDEST PUSH20 0xFFFFFFFFFFFFFFFFFFFFFFFFFFFFFFFFFFFFFFFF AND EQ PUSH2 0x5C9 JUMPI PUSH1 0x40 MLOAD PUSH32 0x8C379A000000000000000000000000000000000000000000000000000000000 DUP2 MSTORE PUSH1 0x4 ADD PUSH2 0x5C0 SWAP1 PUSH2 0x89A JUMP JUMPDEST PUSH1 0x40 MLOAD DUP1 SWAP2 SUB SWAP1 REVERT JUMPDEST JUMP JUMPDEST PUSH1 0x0 DUP1 PUSH1 0x0 SWAP1 SLOAD SWAP1 PUSH2 0x100 EXP SWAP1 DIV PUSH20 0xFFFFFFFFFFFFFFFFFFFFFFFFFFFFFFFFFFFFFFFF AND SWAP1 POP DUP2 PUSH1 0x0 DUP1 PUSH2 0x100 EXP DUP2 SLOAD DUP2 PUSH20 0xFFFFFFFFFFFFFFFFFFFFFFFFFFFFFFFFFFFFFFFF MUL NOT AND SWAP1 DUP4 PUSH20 0xFFFFFFFFFFFFFFFFFFFFFFFFFFFFFFFFFFFFFFFF AND MUL OR SWAP1 SSTORE POP DUP2 PUSH20 0xFFFFFFFFFFFFFFFFFFFFFFFFFFFFFFFFFFFFFFFF AND DUP2 PUSH20 0xFFFFFFFFFFFFFFFFFFFFFFFFFFFFFFFFFFFFFFFF AND PUSH32 0x8BE0079C531659141344CD1FD0A4F28419497F9722A3DAAFE3B4186F6B6457E0 PUSH1 0x40 MLOAD PUSH1 0x40 MLOAD DUP1 SWAP2 SUB SWAP1 LOG3 POP POP JUMP JUMPDEST PUSH1 0x0 CALLER SWAP1 POP SWAP1 JUMP JUMPDEST PUSH1 0x0 DUP2 CALLDATALOAD SWAP1 POP PUSH2 0x6A6 DUP2 PUSH2 0xAF1 JUMP JUMPDEST SWAP3 SWAP2 POP POP JUMP JUMPDEST PUSH1 0x0 DUP2 CALLDATALOAD SWAP1 POP PUSH2 0x6BB DUP2 PUSH2 0xB08 JUMP JUMPDEST SWAP3 SWAP2 POP POP JUMP JUMPDEST PUSH1 0x0 PUSH1 0x20 DUP3 DUP5 SUB SLT ISZERO PUSH2 0x6D3 JUMPI PUSH1 0x0 DUP1 REVERT JUMPDEST PUSH1 0x0 PUSH2 0x6E1 DUP5 DUP3 DUP6 ADD PUSH2 0x697 JUMP JUMPDEST SWAP2 POP POP SWAP3 SWAP2 POP POP JUMP JUMPDEST PUSH1 0x0 DUP1 PUSH1 0x0 PUSH1 0x60 DUP5 DUP7 SUB SLT ISZERO PUSH2 0x6FF JUMPI PUSH1 0x0 DUP1 REVERT JUMPDEST PUSH1 0x0 PUSH2 0x70D DUP7 DUP3 DUP8 ADD PUSH2 0x697 JUMP JUMPDEST SWAP4 POP POP PUSH1 0x20 PUSH2 0x71E DUP7 DUP3 DUP8 ADD PUSH2 0x697 JUMP JUMPDEST SWAP3 POP POP PUSH1 0x40 PUSH2 0x72F DUP7 DUP3 DUP8 ADD PUSH2 0x6AC JUMP JUMPDEST SWAP2 POP POP SWAP3 POP SWAP3 POP SWAP3 JUMP JUMPDEST PUSH1 0x0 DUP1 PUSH1 0x40 DUP4 DUP6 SUB SLT ISZERO PUSH2 0x74C JUMPI PUSH1 0x0 DUP1 REVERT JUMPDEST PUSH1 0x0 PUSH2 0x75A DUP6 DUP3 DUP7 ADD PUSH2 0x697 JUMP JUMPDEST SWAP3 POP POP PUSH1 0x20 PUSH2 0x76B DUP6 DUP3 DUP7 ADD PUSH2 0x6AC JUMP JUMPDEST SWAP2 POP POP SWAP3 POP SWAP3 SWAP1 POP JUMP JUMPDEST PUSH2 0x77E DUP2 PUSH2 0x970 JUMP JUMPDEST DUP3 MSTORE POP POP JUMP JUMPDEST PUSH1 0x0 PUSH2 0x791 PUSH1 0x39 DUP4 PUSH2 0x8D5 JUMP JUMPDEST SWAP2 POP PUSH2 0x79C DUP3 PUSH2 0x9DB JUMP JUMPDEST PUSH1 0x40 DUP3 ADD SWAP1 POP SWAP2 SWAP1 POP JUMP JUMPDEST PUSH1 0x0 PUSH2 0x7B4 PUSH1 0x26 DUP4 PUSH2 0x8D5 JUMP JUMPDEST SWAP2 POP PUSH2 0x7BF DUP3 PUSH2 0xA2A JUMP JUMPDEST PUSH1 0x40 DUP3 ADD SWAP1 POP SWAP2 SWAP1 POP JUMP JUMPDEST PUSH1 0x0 PUSH2 0x7D7 PUSH1 0x30 DUP4 PUSH2 0x8D5 JUMP JUMPDEST SWAP2 POP PUSH2 0x7E2 DUP3 PUSH2 0xA79 JUMP JUMPDEST PUSH1 0x40 DUP3 ADD SWAP1 POP SWAP2 SWAP1 POP JUMP JUMPDEST PUSH1 0x0 PUSH2 0x7FA PUSH1 0x20 DUP4 PUSH2 0x8D5 JUMP JUMPDEST SWAP2 POP PUSH2 0x805 DUP3 PUSH2 0xAC8 JUMP JUMPDEST PUSH1 0x20 DUP3 ADD SWAP1 POP SWAP2 SWAP1 POP JUMP JUMPDEST PUSH2 0x819 DUP2 PUSH2 0x9A2 JUMP JUMPDEST DUP3 MSTORE POP POP JUMP JUMPDEST PUSH1 0x0 PUSH1 0x20 DUP3 ADD SWAP1 POP PUSH2 0x834 PUSH1 0x0 DUP4 ADD DUP5 PUSH2 0x775 JUMP JUMPDEST SWAP3 SWAP2 POP POP JUMP JUMPDEST PUSH1 0x0 PUSH1 0x20 DUP3 ADD SWAP1 POP DUP2 DUP2 SUB PUSH1 0x0 DUP4 ADD MSTORE PUSH2 0x853 DUP2 PUSH2 0x784 JUMP JUMPDEST SWAP1 POP SWAP2 SWAP1 POP JUMP JUMPDEST PUSH1 0x0 PUSH1 0x20 DUP3 ADD SWAP1 POP DUP2 DUP2 SUB PUSH1 0x0 DUP4 ADD MSTORE PUSH2 0x873 DUP2 PUSH2 0x7A7 JUMP JUMPDEST SWAP1 POP SWAP2 SWAP1 POP JUMP JUMPDEST PUSH1 0x0 PUSH1 0x20 DUP3 ADD SWAP1 POP DUP2 DUP2 SUB PUSH1 0x0 DUP4 ADD MSTORE PUSH2 0x893 DUP2 PUSH2 0x7CA JUMP JUMPDEST SWAP1 POP SWAP2 SWAP1 POP JUMP JUMPDEST PUSH1 0x0 PUSH1 0x20 DUP3 ADD SWAP1 POP DUP2 DUP2 SUB PUSH1 0x0 DUP4 ADD MSTORE PUSH2 0x8B3 DUP2 PUSH2 0x7ED JUMP JUMPDEST SWAP1 POP SWAP2 SWAP1 POP JUMP JUMPDEST PUSH1 0x0 PUSH1 0x20 DUP3 ADD SWAP1 POP PUSH2 0x8CF PUSH1 0x0 DUP4 ADD DUP5 PUSH2 0x810 JUMP JUMPDEST SWAP3 SWAP2 POP POP JUMP JUMPDEST PUSH1 0x0 DUP3 DUP3 MSTORE PUSH1 0x20 DUP3 ADD SWAP1 POP SWAP3 SWAP2 POP POP JUMP JUMPDEST PUSH1 0x0 PUSH2 0x8F1 DUP3 PUSH2 0x9A2 JUMP JUMPDEST SWAP2 POP PUSH2 0x8FC DUP4 PUSH2 0x9A2 JUMP JUMPDEST SWAP3 POP DUP3 PUSH32 0xFFFFFFFFFFFFFFFFFFFFFFFFFFFFFFFFFFFFFFFFFFFFFFFFFFFFFFFFFFFFFFFF SUB DUP3 GT ISZERO PUSH2 0x931 JUMPI PUSH2 0x930 PUSH2 0x9AC JUMP JUMPDEST JUMPDEST DUP3 DUP3 ADD SWAP1 POP SWAP3 SWAP2 POP POP JUMP JUMPDEST PUSH1 0x0 PUSH2 0x947 DUP3 PUSH2 0x9A2 JUMP JUMPDEST SWAP2 POP PUSH2 0x952 DUP4 PUSH2 0x9A2 JUMP JUMPDEST SWAP3 POP DUP3 DUP3 LT ISZERO PUSH2 0x965 JUMPI PUSH2 0x964 PUSH2 0x9AC JUMP JUMPDEST JUMPDEST DUP3 DUP3 SUB SWAP1 POP SWAP3 SWAP2 POP POP JUMP JUMPDEST PUSH1 0x0 PUSH2 0x97B DUP3 PUSH2 0x982 JUMP JUMPDEST SWAP1 POP SWAP2 SWAP1 POP JUMP JUMPDEST PUSH1 0x0 PUSH20 0xFFFFFFFFFFFFFFFFFFFFFFFFFFFFFFFFFFFFFFFF DUP3 AND SWAP1 POP SWAP2 SWAP1 POP JUMP JUMPDEST PUSH1 0x0 DUP2 SWAP1 POP SWAP2 SWAP1 POP JUMP JUMPDEST PUSH32 0x4E487B7100000000000000000000000000000000000000000000000000000000 PUSH1 0x0 MSTORE PUSH1 0x11 PUSH1 0x4 MSTORE PUSH1 0x24 PUSH1 0x0 REVERT JUMPDEST PUSH32 0x46726F6D206164647265737320646F6573206E6F74206861766520656E6F7567 PUSH1 0x0 DUP3 ADD MSTORE PUSH32 0x6820466C6F776572436F696E7320746F207472616E7366657200000000000000 PUSH1 0x20 DUP3 ADD MSTORE POP JUMP JUMPDEST PUSH32 0x4F776E61626C653A206E6577206F776E657220697320746865207A65726F2061 PUSH1 0x0 DUP3 ADD MSTORE PUSH32 0x6464726573730000000000000000000000000000000000000000000000000000 PUSH1 0x20 DUP3 ADD MSTORE POP JUMP JUMPDEST PUSH32 0x4164647265737320646F6573206E6F74206861766520656E6F75676820466C6F PUSH1 0x0 DUP3 ADD MSTORE PUSH32 0x776572436F696E7320746F206275726E00000000000000000000000000000000 PUSH1 0x20 DUP3 ADD MSTORE POP JUMP JUMPDEST PUSH32 0x4F776E61626C653A2063616C6C6572206973206E6F7420746865206F776E6572 PUSH1 0x0 DUP3 ADD MSTORE POP JUMP JUMPDEST PUSH2 0xAFA DUP2 PUSH2 0x970 JUMP JUMPDEST DUP2 EQ PUSH2 0xB05 JUMPI PUSH1 0x0 DUP1 REVERT JUMPDEST POP JUMP JUMPDEST PUSH2 0xB11 DUP2 PUSH2 0x9A2 JUMP JUMPDEST DUP2 EQ PUSH2 0xB1C JUMPI PUSH1 0x0 DUP1 REVERT JUMPDEST POP JUMP INVALID LOG2 PUSH5 0x6970667358 0x22 SLT KECCAK256 0xDB SELFBALANCE MSIZE 0xF6 DUP8 KECCAK256 RETURNDATACOPY GASPRICE 0xC1 0xB0 0x48 INVALID SHR SWAP13 0xD5 RETURN CODECOPY EXTCODEHASH 0xEB DUP5 MSTORE8 0xE8 0xAD 0xDE 0x2A 0xD0 GAS 0xB7 0x26 CALLDATASIZE 0x28 0x4A PUSH5 0x736F6C6343 STOP ADDMOD DIV STOP CALLER PUSH1 0x80 PUSH1 0x40 MSTORE PUSH1 0x1E PUSH1 0x3 SSTORE PUSH1 0x1 PUSH1 0x4 SSTORE CALLVALUE DUP1 ISZERO PUSH3 0x1B JUMPI PUSH1 0x0 DUP1 REVERT JUMPDEST POP PUSH1 0x40 MLOAD PUSH3 0x2F44 CODESIZE SUB DUP1 PUSH3 0x2F44 DUP4 CODECOPY DUP2 DUP2 ADD PUSH1 0x40 MSTORE DUP2 ADD SWAP1 PUSH3 0x41 SWAP2 SWAP1 PUSH3 0x330 JUMP JUMPDEST PUSH3 0x61 PUSH3 0x55 PUSH3 0xFC PUSH1 0x20 SHL PUSH1 0x20 SHR JUMP JUMPDEST PUSH3 0x104 PUSH1 0x20 SHL PUSH1 0x20 SHR JUMP JUMPDEST PUSH3 0x72 CALLER PUSH3 0x1C8 PUSH1 0x20 SHL PUSH1 0x20 SHR JUMP JUMPDEST DUP2 PUSH1 0x1 PUSH1 0x0 PUSH2 0x100 EXP DUP2 SLOAD DUP2 PUSH20 0xFFFFFFFFFFFFFFFFFFFFFFFFFFFFFFFFFFFFFFFF MUL NOT AND SWAP1 DUP4 PUSH20 0xFFFFFFFFFFFFFFFFFFFFFFFFFFFFFFFFFFFFFFFF AND MUL OR SWAP1 SSTORE POP DUP1 PUSH1 0x2 PUSH1 0x0 PUSH2 0x100 EXP DUP2 SLOAD DUP2 PUSH20 0xFFFFFFFFFFFFFFFFFFFFFFFFFFFFFFFFFFFFFFFF MUL NOT AND SWAP1 DUP4 PUSH20 0xFFFFFFFFFFFFFFFFFFFFFFFFFFFFFFFFFFFFFFFF AND MUL OR SWAP1 SSTORE POP POP POP PUSH3 0x4DA JUMP JUMPDEST PUSH1 0x0 CALLER SWAP1 POP SWAP1 JUMP JUMPDEST PUSH1 0x0 DUP1 PUSH1 0x0 SWAP1 SLOAD SWAP1 PUSH2 0x100 EXP SWAP1 DIV PUSH20 0xFFFFFFFFFFFFFFFFFFFFFFFFFFFFFFFFFFFFFFFF AND SWAP1 POP DUP2 PUSH1 0x0 DUP1 PUSH2 0x100 EXP DUP2 SLOAD DUP2 PUSH20 0xFFFFFFFFFFFFFFFFFFFFFFFFFFFFFFFFFFFFFFFF MUL NOT AND SWAP1 DUP4 PUSH20 0xFFFFFFFFFFFFFFFFFFFFFFFFFFFFFFFFFFFFFFFF AND MUL OR SWAP1 SSTORE POP DUP2 PUSH20 0xFFFFFFFFFFFFFFFFFFFFFFFFFFFFFFFFFFFFFFFF AND DUP2 PUSH20 0xFFFFFFFFFFFFFFFFFFFFFFFFFFFFFFFFFFFFFFFF AND PUSH32 0x8BE0079C531659141344CD1FD0A4F28419497F9722A3DAAFE3B4186F6B6457E0 PUSH1 0x40 MLOAD PUSH1 0x40 MLOAD DUP1 SWAP2 SUB SWAP1 LOG3 POP POP JUMP JUMPDEST PUSH3 0x1D8 PUSH3 0x25F PUSH1 0x20 SHL PUSH1 0x20 SHR JUMP JUMPDEST PUSH1 0x0 PUSH20 0xFFFFFFFFFFFFFFFFFFFFFFFFFFFFFFFFFFFFFFFF AND DUP2 PUSH20 0xFFFFFFFFFFFFFFFFFFFFFFFFFFFFFFFFFFFFFFFF AND EQ ISZERO PUSH3 0x24B JUMPI PUSH1 0x40 MLOAD PUSH32 0x8C379A000000000000000000000000000000000000000000000000000000000 DUP2 MSTORE PUSH1 0x4 ADD PUSH3 0x242 SWAP1 PUSH3 0x3BF JUMP JUMPDEST PUSH1 0x40 MLOAD DUP1 SWAP2 SUB SWAP1 REVERT JUMPDEST PUSH3 0x25C DUP2 PUSH3 0x104 PUSH1 0x20 SHL PUSH1 0x20 SHR JUMP JUMPDEST POP JUMP JUMPDEST PUSH3 0x26F PUSH3 0xFC PUSH1 0x20 SHL PUSH1 0x20 SHR JUMP JUMPDEST PUSH20 0xFFFFFFFFFFFFFFFFFFFFFFFFFFFFFFFFFFFFFFFF AND PUSH3 0x295 PUSH3 0x2F0 PUSH1 0x20 SHL PUSH1 0x20 SHR JUMP JUMPDEST PUSH20 0xFFFFFFFFFFFFFFFFFFFFFFFFFFFFFFFFFFFFFFFF AND EQ PUSH3 0x2EE JUMPI PUSH1 0x40 MLOAD PUSH32 0x8C379A000000000000000000000000000000000000000000000000000000000 DUP2 MSTORE PUSH1 0x4 ADD PUSH3 0x2E5 SWAP1 PUSH3 0x3E1 JUMP JUMPDEST PUSH1 0x40 MLOAD DUP1 SWAP2 SUB SWAP1 REVERT JUMPDEST JUMP JUMPDEST PUSH1 0x0 DUP1 PUSH1 0x0 SWAP1 SLOAD SWAP1 PUSH2 0x100 EXP SWAP1 DIV PUSH20 0xFFFFFFFFFFFFFFFFFFFFFFFFFFFFFFFFFFFFFFFF AND SWAP1 POP SWAP1 JUMP JUMPDEST PUSH1 0x0 DUP2 MLOAD SWAP1 POP PUSH3 0x32A DUP2 PUSH3 0x4C0 JUMP JUMPDEST SWAP3 SWAP2 POP POP JUMP JUMPDEST PUSH1 0x0 DUP1 PUSH1 0x40 DUP4 DUP6 SUB SLT ISZERO PUSH3 0x344 JUMPI PUSH1 0x0 DUP1 REVERT JUMPDEST PUSH1 0x0 PUSH3 0x354 DUP6 DUP3 DUP7 ADD PUSH3 0x319 JUMP JUMPDEST SWAP3 POP POP PUSH1 0x20 PUSH3 0x367 DUP6 DUP3 DUP7 ADD PUSH3 0x319 JUMP JUMPDEST SWAP2 POP POP SWAP3 POP SWAP3 SWAP1 POP JUMP JUMPDEST PUSH1 0x0 PUSH3 0x380 PUSH1 0x26 DUP4 PUSH3 0x403 JUMP JUMPDEST SWAP2 POP PUSH3 0x38D DUP3 PUSH3 0x448 JUMP JUMPDEST PUSH1 0x40 DUP3 ADD SWAP1 POP SWAP2 SWAP1 POP JUMP JUMPDEST PUSH1 0x0 PUSH3 0x3A7 PUSH1 0x20 DUP4 PUSH3 0x403 JUMP JUMPDEST SWAP2 POP PUSH3 0x3B4 DUP3 PUSH3 0x497 JUMP JUMPDEST PUSH1 0x20 DUP3 ADD SWAP1 POP SWAP2 SWAP1 POP JUMP JUMPDEST PUSH1 0x0 PUSH1 0x20 DUP3 ADD SWAP1 POP DUP2 DUP2 SUB PUSH1 0x0 DUP4 ADD MSTORE PUSH3 0x3DA DUP2 PUSH3 0x371 JUMP JUMPDEST SWAP1 POP SWAP2 SWAP1 POP JUMP JUMPDEST PUSH1 0x0 PUSH1 0x20 DUP3 ADD SWAP1 POP DUP2 DUP2 SUB PUSH1 0x0 DUP4 ADD MSTORE PUSH3 0x3FC DUP2 PUSH3 0x398 JUMP JUMPDEST SWAP1 POP SWAP2 SWAP1 POP JUMP JUMPDEST PUSH1 0x0 DUP3 DUP3 MSTORE PUSH1 0x20 DUP3 ADD SWAP1 POP SWAP3 SWAP2 POP POP JUMP JUMPDEST PUSH1 0x0 PUSH3 0x421 DUP3 PUSH3 0x428 JUMP JUMPDEST SWAP1 POP SWAP2 SWAP1 POP JUMP JUMPDEST PUSH1 0x0 PUSH20 0xFFFFFFFFFFFFFFFFFFFFFFFFFFFFFFFFFFFFFFFF DUP3 AND SWAP1 POP SWAP2 SWAP1 POP JUMP JUMPDEST PUSH32 0x4F776E61626C653A206E6577206F776E657220697320746865207A65726F2061 PUSH1 0x0 DUP3 ADD MSTORE PUSH32 0x6464726573730000000000000000000000000000000000000000000000000000 PUSH1 0x20 DUP3 ADD MSTORE POP JUMP JUMPDEST PUSH32 0x4F776E61626C653A2063616C6C6572206973206E6F7420746865206F776E6572 PUSH1 0x0 DUP3 ADD MSTORE POP JUMP JUMPDEST PUSH3 0x4CB DUP2 PUSH3 0x414 JUMP JUMPDEST DUP2 EQ PUSH3 0x4D7 JUMPI PUSH1 0x0 DUP1 REVERT JUMPDEST POP JUMP JUMPDEST PUSH2 0x2A5A DUP1 PUSH3 0x4EA PUSH1 0x0 CODECOPY PUSH1 0x0 RETURN INVALID PUSH1 0x80 PUSH1 0x40 MSTORE CALLVALUE DUP1 ISZERO PUSH2 0x10 JUMPI PUSH1 0x0 DUP1 REVERT JUMPDEST POP PUSH1 0x4 CALLDATASIZE LT PUSH2 0x173 JUMPI PUSH1 0x0 CALLDATALOAD PUSH1 0xE0 SHR DUP1 PUSH4 0x8DA5CB5B GT PUSH2 0xDE JUMPI DUP1 PUSH4 0xBE1CBA2F GT PUSH2 0x97 JUMPI DUP1 PUSH4 0xD45519A1 GT PUSH2 0x71 JUMPI DUP1 PUSH4 0xD45519A1 EQ PUSH2 0x3EE JUMPI DUP1 PUSH4 0xF2FDE38B EQ PUSH2 0x40A JUMPI DUP1 PUSH4 0xF699ACA7 EQ PUSH2 0x426 JUMPI DUP1 PUSH4 0xFE590724 EQ PUSH2 0x442 JUMPI PUSH2 0x173 JUMP JUMPDEST DUP1 PUSH4 0xBE1CBA2F EQ PUSH2 0x382 JUMPI DUP1 PUSH4 0xCC55209B EQ PUSH2 0x3A0 JUMPI DUP1 PUSH4 0xD140BBE1 EQ PUSH2 0x3BE JUMPI PUSH2 0x173 JUMP JUMPDEST DUP1 PUSH4 0x8DA5CB5B EQ PUSH2 0x2C0 JUMPI DUP1 PUSH4 0x9F9DB463 EQ PUSH2 0x2DE JUMPI DUP1 PUSH4 0xAE9957EC EQ PUSH2 0x30E JUMPI DUP1 PUSH4 0xAEC898CA EQ PUSH2 0x32A JUMPI DUP1 PUSH4 0xB5E6DE75 EQ PUSH2 0x348 JUMPI DUP1 PUSH4 0xB7F6D906 EQ PUSH2 0x364 JUMPI PUSH2 0x173 JUMP JUMPDEST DUP1 PUSH4 0x4D781330 GT PUSH2 0x130 JUMPI DUP1 PUSH4 0x4D781330 EQ PUSH2 0x224 JUMPI DUP1 PUSH4 0x6219005D EQ PUSH2 0x242 JUMPI DUP1 PUSH4 0x644B637E EQ PUSH2 0x25E JUMPI DUP1 PUSH4 0x715018A6 EQ PUSH2 0x27A JUMPI DUP1 PUSH4 0x8A67F1E5 EQ PUSH2 0x284 JUMPI DUP1 PUSH4 0x8BF02357 EQ PUSH2 0x2A2 JUMPI PUSH2 0x173 JUMP JUMPDEST DUP1 PUSH4 0x95BCDB6 EQ PUSH2 0x178 JUMPI DUP1 PUSH4 0xC39FC27 EQ PUSH2 0x194 JUMPI DUP1 PUSH4 0x1F054BBE EQ PUSH2 0x1B0 JUMPI DUP1 PUSH4 0x2CD3D43D EQ PUSH2 0x1CE JUMPI DUP1 PUSH4 0x48DB11F8 EQ PUSH2 0x1EA JUMPI DUP1 PUSH4 0x4D2E8994 EQ PUSH2 0x206 JUMPI JUMPDEST PUSH1 0x0 DUP1 REVERT JUMPDEST PUSH2 0x192 PUSH1 0x4 DUP1 CALLDATASIZE SUB DUP2 ADD SWAP1 PUSH2 0x18D SWAP2 SWAP1 PUSH2 0x22DA JUMP JUMPDEST PUSH2 0x472 JUMP JUMPDEST STOP JUMPDEST PUSH2 0x1AE PUSH1 0x4 DUP1 CALLDATASIZE SUB DUP2 ADD SWAP1 PUSH2 0x1A9 SWAP2 SWAP1 PUSH2 0x2352 JUMP JUMPDEST PUSH2 0x48B JUMP JUMPDEST STOP JUMPDEST PUSH2 0x1B8 PUSH2 0x49D JUMP JUMPDEST PUSH1 0x40 MLOAD PUSH2 0x1C5 SWAP2 SWAP1 PUSH2 0x25FF JUMP JUMPDEST PUSH1 0x40 MLOAD DUP1 SWAP2 SUB SWAP1 RETURN JUMPDEST PUSH2 0x1E8 PUSH1 0x4 DUP1 CALLDATASIZE SUB DUP2 ADD SWAP1 PUSH2 0x1E3 SWAP2 SWAP1 PUSH2 0x2275 JUMP JUMPDEST PUSH2 0x4C3 JUMP JUMPDEST STOP JUMPDEST PUSH2 0x204 PUSH1 0x4 DUP1 CALLDATASIZE SUB DUP2 ADD SWAP1 PUSH2 0x1FF SWAP2 SWAP1 PUSH2 0x229E JUMP JUMPDEST PUSH2 0xB39 JUMP JUMPDEST STOP JUMPDEST PUSH2 0x20E PUSH2 0x1348 JUMP JUMPDEST PUSH1 0x40 MLOAD PUSH2 0x21B SWAP2 SWAP1 PUSH2 0x267A JUMP JUMPDEST PUSH1 0x40 MLOAD DUP1 SWAP2 SUB SWAP1 RETURN JUMPDEST PUSH2 0x22C PUSH2 0x13EF JUMP JUMPDEST PUSH1 0x40 MLOAD PUSH2 0x239 SWAP2 SWAP1 PUSH2 0x267A JUMP JUMPDEST PUSH1 0x40 MLOAD DUP1 SWAP2 SUB SWAP1 RETURN JUMPDEST PUSH2 0x25C PUSH1 0x4 DUP1 CALLDATASIZE SUB DUP2 ADD SWAP1 PUSH2 0x257 SWAP2 SWAP1 PUSH2 0x2352 JUMP JUMPDEST PUSH2 0x1496 JUMP JUMPDEST STOP JUMPDEST PUSH2 0x278 PUSH1 0x4 DUP1 CALLDATASIZE SUB DUP2 ADD SWAP1 PUSH2 0x273 SWAP2 SWAP1 PUSH2 0x229E JUMP JUMPDEST PUSH2 0x14A8 JUMP JUMPDEST STOP JUMPDEST PUSH2 0x282 PUSH2 0x1670 JUMP JUMPDEST STOP JUMPDEST PUSH2 0x28C PUSH2 0x1684 JUMP JUMPDEST PUSH1 0x40 MLOAD PUSH2 0x299 SWAP2 SWAP1 PUSH2 0x267A JUMP JUMPDEST PUSH1 0x40 MLOAD DUP1 SWAP2 SUB SWAP1 RETURN JUMPDEST PUSH2 0x2AA PUSH2 0x172B JUMP JUMPDEST PUSH1 0x40 MLOAD PUSH2 0x2B7 SWAP2 SWAP1 PUSH2 0x267A JUMP JUMPDEST PUSH1 0x40 MLOAD DUP1 SWAP2 SUB SWAP1 RETURN JUMPDEST PUSH2 0x2C8 PUSH2 0x1731 JUMP JUMPDEST PUSH1 0x40 MLOAD PUSH2 0x2D5 SWAP2 SWAP1 PUSH2 0x2510 JUMP JUMPDEST PUSH1 0x40 MLOAD DUP1 SWAP2 SUB SWAP1 RETURN JUMPDEST PUSH2 0x2F8 PUSH1 0x4 DUP1 CALLDATASIZE SUB DUP2 ADD SWAP1 PUSH2 0x2F3 SWAP2 SWAP1 PUSH2 0x2275 JUMP JUMPDEST PUSH2 0x175A JUMP JUMPDEST PUSH1 0x40 MLOAD PUSH2 0x305 SWAP2 SWAP1 PUSH2 0x267A JUMP JUMPDEST PUSH1 0x40 MLOAD DUP1 SWAP2 SUB SWAP1 RETURN JUMPDEST PUSH2 0x328 PUSH1 0x4 DUP1 CALLDATASIZE SUB DUP2 ADD SWAP1 PUSH2 0x323 SWAP2 SWAP1 PUSH2 0x229E JUMP JUMPDEST PUSH2 0x180E JUMP JUMPDEST STOP JUMPDEST PUSH2 0x332 PUSH2 0x18A9 JUMP JUMPDEST PUSH1 0x40 MLOAD PUSH2 0x33F SWAP2 SWAP1 PUSH2 0x267A JUMP JUMPDEST PUSH1 0x40 MLOAD DUP1 SWAP2 SUB SWAP1 RETURN JUMPDEST PUSH2 0x362 PUSH1 0x4 DUP1 CALLDATASIZE SUB DUP2 ADD SWAP1 PUSH2 0x35D SWAP2 SWAP1 PUSH2 0x229E JUMP JUMPDEST PUSH2 0x1950 JUMP JUMPDEST STOP JUMPDEST PUSH2 0x36C PUSH2 0x19EB JUMP JUMPDEST PUSH1 0x40 MLOAD PUSH2 0x379 SWAP2 SWAP1 PUSH2 0x25E4 JUMP JUMPDEST PUSH1 0x40 MLOAD DUP1 SWAP2 SUB SWAP1 RETURN JUMPDEST PUSH2 0x38A PUSH2 0x1A11 JUMP JUMPDEST PUSH1 0x40 MLOAD PUSH2 0x397 SWAP2 SWAP1 PUSH2 0x267A JUMP JUMPDEST PUSH1 0x40 MLOAD DUP1 SWAP2 SUB SWAP1 RETURN JUMPDEST PUSH2 0x3A8 PUSH2 0x1AB8 JUMP JUMPDEST PUSH1 0x40 MLOAD PUSH2 0x3B5 SWAP2 SWAP1 PUSH2 0x267A JUMP JUMPDEST PUSH1 0x40 MLOAD DUP1 SWAP2 SUB SWAP1 RETURN JUMPDEST PUSH2 0x3D8 PUSH1 0x4 DUP1 CALLDATASIZE SUB DUP2 ADD SWAP1 PUSH2 0x3D3 SWAP2 SWAP1 PUSH2 0x2275 JUMP JUMPDEST PUSH2 0x1ABE JUMP JUMPDEST PUSH1 0x40 MLOAD PUSH2 0x3E5 SWAP2 SWAP1 PUSH2 0x267A JUMP JUMPDEST PUSH1 0x40 MLOAD DUP1 SWAP2 SUB SWAP1 RETURN JUMPDEST PUSH2 0x408 PUSH1 0x4 DUP1 CALLDATASIZE SUB DUP2 ADD SWAP1 PUSH2 0x403 SWAP2 SWAP1 PUSH2 0x229E JUMP JUMPDEST PUSH2 0x1B72 JUMP JUMPDEST STOP JUMPDEST PUSH2 0x424 PUSH1 0x4 DUP1 CALLDATASIZE SUB DUP2 ADD SWAP1 PUSH2 0x41F SWAP2 SWAP1 PUSH2 0x2275 JUMP JUMPDEST PUSH2 0x1C1C JUMP JUMPDEST STOP JUMPDEST PUSH2 0x440 PUSH1 0x4 DUP1 CALLDATASIZE SUB DUP2 ADD SWAP1 PUSH2 0x43B SWAP2 SWAP1 PUSH2 0x229E JUMP JUMPDEST PUSH2 0x1CA0 JUMP JUMPDEST STOP JUMPDEST PUSH2 0x45C PUSH1 0x4 DUP1 CALLDATASIZE SUB DUP2 ADD SWAP1 PUSH2 0x457 SWAP2 SWAP1 PUSH2 0x229E JUMP JUMPDEST PUSH2 0x1D35 JUMP JUMPDEST PUSH1 0x40 MLOAD PUSH2 0x469 SWAP2 SWAP1 PUSH2 0x25C2 JUMP JUMPDEST PUSH1 0x40 MLOAD DUP1 SWAP2 SUB SWAP1 RETURN JUMPDEST PUSH2 0x47C DUP4 DUP4 PUSH2 0x1B72 JUMP JUMPDEST PUSH2 0x486 DUP4 DUP3 PUSH2 0x1CA0 JUMP JUMPDEST POP POP POP JUMP JUMPDEST PUSH2 0x493 PUSH2 0x206B JUMP JUMPDEST DUP1 PUSH1 0x4 DUP2 SWAP1 SSTORE POP POP JUMP JUMPDEST PUSH1 0x1 PUSH1 0x0 SWAP1 SLOAD SWAP1 PUSH2 0x100 EXP SWAP1 DIV PUSH20 0xFFFFFFFFFFFFFFFFFFFFFFFFFFFFFFFFFFFFFFFF AND DUP2 JUMP JUMPDEST PUSH2 0x4CB PUSH2 0x206B JUMP JUMPDEST PUSH1 0x0 PUSH1 0x1 PUSH1 0x0 SWAP1 SLOAD SWAP1 PUSH2 0x100 EXP SWAP1 DIV PUSH20 0xFFFFFFFFFFFFFFFFFFFFFFFFFFFFFFFFFFFFFFFF AND PUSH20 0xFFFFFFFFFFFFFFFFFFFFFFFFFFFFFFFFFFFFFFFF AND PUSH4 0x6E76C3CF DUP4 PUSH1 0x40 MLOAD DUP3 PUSH4 0xFFFFFFFF AND PUSH1 0xE0 SHL DUP2 MSTORE PUSH1 0x4 ADD PUSH2 0x528 SWAP2 SWAP1 PUSH2 0x2510 JUMP JUMPDEST PUSH1 0x20 PUSH1 0x40 MLOAD DUP1 DUP4 SUB DUP2 DUP7 DUP1 EXTCODESIZE ISZERO DUP1 ISZERO PUSH2 0x540 JUMPI PUSH1 0x0 DUP1 REVERT JUMPDEST POP GAS STATICCALL ISZERO DUP1 ISZERO PUSH2 0x554 JUMPI RETURNDATASIZE PUSH1 0x0 DUP1 RETURNDATACOPY RETURNDATASIZE PUSH1 0x0 REVERT JUMPDEST POP POP POP POP PUSH1 0x40 MLOAD RETURNDATASIZE PUSH1 0x1F NOT PUSH1 0x1F DUP3 ADD AND DUP3 ADD DUP1 PUSH1 0x40 MSTORE POP DUP2 ADD SWAP1 PUSH2 0x578 SWAP2 SWAP1 PUSH2 0x237B JUMP JUMPDEST SWAP1 POP PUSH1 0x0 PUSH1 0x1 PUSH1 0x0 SWAP1 SLOAD SWAP1 PUSH2 0x100 EXP SWAP1 DIV PUSH20 0xFFFFFFFFFFFFFFFFFFFFFFFFFFFFFFFFFFFFFFFF AND PUSH20 0xFFFFFFFFFFFFFFFFFFFFFFFFFFFFFFFFFFFFFFFF AND PUSH4 0xB1398144 DUP5 DUP5 PUSH1 0x40 MLOAD DUP4 PUSH4 0xFFFFFFFF AND PUSH1 0xE0 SHL DUP2 MSTORE PUSH1 0x4 ADD PUSH2 0x5D9 SWAP3 SWAP2 SWAP1 PUSH2 0x2562 JUMP JUMPDEST PUSH1 0x60 PUSH1 0x40 MLOAD DUP1 DUP4 SUB DUP2 DUP7 DUP1 EXTCODESIZE ISZERO DUP1 ISZERO PUSH2 0x5F1 JUMPI PUSH1 0x0 DUP1 REVERT JUMPDEST POP GAS STATICCALL ISZERO DUP1 ISZERO PUSH2 0x605 JUMPI RETURNDATASIZE PUSH1 0x0 DUP1 RETURNDATACOPY RETURNDATASIZE PUSH1 0x0 REVERT JUMPDEST POP POP POP POP PUSH1 0x40 MLOAD RETURNDATASIZE PUSH1 0x1F NOT PUSH1 0x1F DUP3 ADD AND DUP3 ADD DUP1 PUSH1 0x40 MSTORE POP DUP2 ADD SWAP1 PUSH2 0x629 SWAP2 SWAP1 PUSH2 0x2329 JUMP JUMPDEST SWAP1 POP PUSH1 0x0 JUMPDEST PUSH1 0x0 DUP4 EQ ISZERO DUP1 ISZERO PUSH2 0x650 JUMPI POP TIMESTAMP PUSH1 0x3 SLOAD DUP4 PUSH1 0x0 ADD MLOAD PUSH2 0x64D SWAP2 SWAP1 PUSH2 0x2704 JUMP JUMPDEST GT ISZERO JUMPDEST ISZERO PUSH2 0x98A JUMPI PUSH1 0x1 PUSH1 0x0 SWAP1 SLOAD SWAP1 PUSH2 0x100 EXP SWAP1 DIV PUSH20 0xFFFFFFFFFFFFFFFFFFFFFFFFFFFFFFFFFFFFFFFF AND PUSH20 0xFFFFFFFFFFFFFFFFFFFFFFFFFFFFFFFFFFFFFFFF AND PUSH4 0x7AB436F8 DUP6 DUP5 PUSH1 0x40 ADD MLOAD PUSH1 0x40 MLOAD DUP4 PUSH4 0xFFFFFFFF AND PUSH1 0xE0 SHL DUP2 MSTORE PUSH1 0x4 ADD PUSH2 0x6B6 SWAP3 SWAP2 SWAP1 PUSH2 0x2562 JUMP JUMPDEST PUSH1 0x0 PUSH1 0x40 MLOAD DUP1 DUP4 SUB DUP2 PUSH1 0x0 DUP8 DUP1 EXTCODESIZE ISZERO DUP1 ISZERO PUSH2 0x6D0 JUMPI PUSH1 0x0 DUP1 REVERT JUMPDEST POP GAS CALL ISZERO DUP1 ISZERO PUSH2 0x6E4 JUMPI RETURNDATASIZE PUSH1 0x0 DUP1 RETURNDATACOPY RETURNDATASIZE PUSH1 0x0 REVERT JUMPDEST POP POP POP POP DUP3 PUSH1 0x1 PUSH1 0x0 SWAP1 SLOAD SWAP1 PUSH2 0x100 EXP SWAP1 DIV PUSH20 0xFFFFFFFFFFFFFFFFFFFFFFFFFFFFFFFFFFFFFFFF AND PUSH20 0xFFFFFFFFFFFFFFFFFFFFFFFFFFFFFFFFFFFFFFFF AND PUSH4 0xBAAFD2D8 DUP7 PUSH1 0x40 MLOAD DUP3 PUSH4 0xFFFFFFFF AND PUSH1 0xE0 SHL DUP2 MSTORE PUSH1 0x4 ADD PUSH2 0x744 SWAP2 SWAP1 PUSH2 0x2510 JUMP JUMPDEST PUSH1 0x20 PUSH1 0x40 MLOAD DUP1 DUP4 SUB DUP2 DUP7 DUP1 EXTCODESIZE ISZERO DUP1 ISZERO PUSH2 0x75C JUMPI PUSH1 0x0 DUP1 REVERT JUMPDEST POP GAS STATICCALL ISZERO DUP1 ISZERO PUSH2 0x770 JUMPI RETURNDATASIZE PUSH1 0x0 DUP1 RETURNDATACOPY RETURNDATASIZE PUSH1 0x0 REVERT JUMPDEST POP POP POP POP PUSH1 0x40 MLOAD RETURNDATASIZE PUSH1 0x1F NOT PUSH1 0x1F DUP3 ADD AND DUP3 ADD DUP1 PUSH1 0x40 MSTORE POP DUP2 ADD SWAP1 PUSH2 0x794 SWAP2 SWAP1 PUSH2 0x237B JUMP JUMPDEST EQ ISZERO PUSH2 0x82E JUMPI PUSH1 0x1 PUSH1 0x0 SWAP1 SLOAD SWAP1 PUSH2 0x100 EXP SWAP1 DIV PUSH20 0xFFFFFFFFFFFFFFFFFFFFFFFFFFFFFFFFFFFFFFFF AND PUSH20 0xFFFFFFFFFFFFFFFFFFFFFFFFFFFFFFFFFFFFFFFF AND PUSH4 0x85393A8E DUP6 DUP5 PUSH1 0x40 ADD MLOAD PUSH1 0x40 MLOAD DUP4 PUSH4 0xFFFFFFFF AND PUSH1 0xE0 SHL DUP2 MSTORE PUSH1 0x4 ADD PUSH2 0x7FB SWAP3 SWAP2 SWAP1 PUSH2 0x2562 JUMP JUMPDEST PUSH1 0x0 PUSH1 0x40 MLOAD DUP1 DUP4 SUB DUP2 PUSH1 0x0 DUP8 DUP1 EXTCODESIZE ISZERO DUP1 ISZERO PUSH2 0x815 JUMPI PUSH1 0x0 DUP1 REVERT JUMPDEST POP GAS CALL ISZERO DUP1 ISZERO PUSH2 0x829 JUMPI RETURNDATASIZE PUSH1 0x0 DUP1 RETURNDATACOPY RETURNDATASIZE PUSH1 0x0 REVERT JUMPDEST POP POP POP POP JUMPDEST DUP2 PUSH1 0x20 ADD MLOAD DUP2 PUSH2 0x83E SWAP2 SWAP1 PUSH2 0x2704 JUMP JUMPDEST SWAP1 POP PUSH1 0x1 PUSH1 0x0 SWAP1 SLOAD SWAP1 PUSH2 0x100 EXP SWAP1 DIV PUSH20 0xFFFFFFFFFFFFFFFFFFFFFFFFFFFFFFFFFFFFFFFF AND PUSH20 0xFFFFFFFFFFFFFFFFFFFFFFFFFFFFFFFFFFFFFFFF AND PUSH4 0xD89B5ED6 DUP6 DUP6 PUSH1 0x40 MLOAD DUP4 PUSH4 0xFFFFFFFF AND PUSH1 0xE0 SHL DUP2 MSTORE PUSH1 0x4 ADD PUSH2 0x89D SWAP3 SWAP2 SWAP1 PUSH2 0x2562 JUMP JUMPDEST PUSH1 0x0 PUSH1 0x40 MLOAD DUP1 DUP4 SUB DUP2 PUSH1 0x0 DUP8 DUP1 EXTCODESIZE ISZERO DUP1 ISZERO PUSH2 0x8B7 JUMPI PUSH1 0x0 DUP1 REVERT JUMPDEST POP GAS CALL ISZERO DUP1 ISZERO PUSH2 0x8CB JUMPI RETURNDATASIZE PUSH1 0x0 DUP1 RETURNDATACOPY RETURNDATASIZE PUSH1 0x0 REVERT JUMPDEST POP POP POP POP DUP2 PUSH1 0x40 ADD MLOAD SWAP3 POP PUSH1 0x1 PUSH1 0x0 SWAP1 SLOAD SWAP1 PUSH2 0x100 EXP SWAP1 DIV PUSH20 0xFFFFFFFFFFFFFFFFFFFFFFFFFFFFFFFFFFFFFFFF AND PUSH20 0xFFFFFFFFFFFFFFFFFFFFFFFFFFFFFFFFFFFFFFFF AND PUSH4 0xB1398144 DUP6 DUP6 PUSH1 0x40 MLOAD DUP4 PUSH4 0xFFFFFFFF AND PUSH1 0xE0 SHL DUP2 MSTORE PUSH1 0x4 ADD PUSH2 0x933 SWAP3 SWAP2 SWAP1 PUSH2 0x2562 JUMP JUMPDEST PUSH1 0x60 PUSH1 0x40 MLOAD DUP1 DUP4 SUB DUP2 DUP7 DUP1 EXTCODESIZE ISZERO DUP1 ISZERO PUSH2 0x94B JUMPI PUSH1 0x0 DUP1 REVERT JUMPDEST POP GAS STATICCALL ISZERO DUP1 ISZERO PUSH2 0x95F JUMPI RETURNDATASIZE PUSH1 0x0 DUP1 RETURNDATACOPY RETURNDATASIZE PUSH1 0x0 REVERT JUMPDEST POP POP POP POP PUSH1 0x40 MLOAD RETURNDATASIZE PUSH1 0x1F NOT PUSH1 0x1F DUP3 ADD AND DUP3 ADD DUP1 PUSH1 0x40 MSTORE POP DUP2 ADD SWAP1 PUSH2 0x983 SWAP2 SWAP1 PUSH2 0x2329 JUMP JUMPDEST SWAP2 POP PUSH2 0x62E JUMP JUMPDEST PUSH1 0x1 PUSH1 0x0 SWAP1 SLOAD SWAP1 PUSH2 0x100 EXP SWAP1 DIV PUSH20 0xFFFFFFFFFFFFFFFFFFFFFFFFFFFFFFFFFFFFFFFF AND PUSH20 0xFFFFFFFFFFFFFFFFFFFFFFFFFFFFFFFFFFFFFFFF AND PUSH4 0xCFD4F18A DUP6 DUP4 PUSH1 0x40 MLOAD DUP4 PUSH4 0xFFFFFFFF AND PUSH1 0xE0 SHL DUP2 MSTORE PUSH1 0x4 ADD PUSH2 0x9E7 SWAP3 SWAP2 SWAP1 PUSH2 0x2562 JUMP JUMPDEST PUSH1 0x0 PUSH1 0x40 MLOAD DUP1 DUP4 SUB DUP2 PUSH1 0x0 DUP8 DUP1 EXTCODESIZE ISZERO DUP1 ISZERO PUSH2 0xA01 JUMPI PUSH1 0x0 DUP1 REVERT JUMPDEST POP GAS CALL ISZERO DUP1 ISZERO PUSH2 0xA15 JUMPI RETURNDATASIZE PUSH1 0x0 DUP1 RETURNDATACOPY RETURNDATASIZE PUSH1 0x0 REVERT JUMPDEST POP POP POP POP PUSH1 0x1 PUSH1 0x0 SWAP1 SLOAD SWAP1 PUSH2 0x100 EXP SWAP1 DIV PUSH20 0xFFFFFFFFFFFFFFFFFFFFFFFFFFFFFFFFFFFFFFFF AND PUSH20 0xFFFFFFFFFFFFFFFFFFFFFFFFFFFFFFFFFFFFFFFF AND PUSH4 0x4B9ECD54 DUP3 PUSH1 0x40 MLOAD DUP3 PUSH4 0xFFFFFFFF AND PUSH1 0xE0 SHL DUP2 MSTORE PUSH1 0x4 ADD PUSH2 0xA74 SWAP2 SWAP1 PUSH2 0x267A JUMP JUMPDEST PUSH1 0x0 PUSH1 0x40 MLOAD DUP1 DUP4 SUB DUP2 PUSH1 0x0 DUP8 DUP1 EXTCODESIZE ISZERO DUP1 ISZERO PUSH2 0xA8E JUMPI PUSH1 0x0 DUP1 REVERT JUMPDEST POP GAS CALL ISZERO DUP1 ISZERO PUSH2 0xAA2 JUMPI RETURNDATASIZE PUSH1 0x0 DUP1 RETURNDATACOPY RETURNDATASIZE PUSH1 0x0 REVERT JUMPDEST POP POP POP POP PUSH1 0x1 PUSH1 0x0 SWAP1 SLOAD SWAP1 PUSH2 0x100 EXP SWAP1 DIV PUSH20 0xFFFFFFFFFFFFFFFFFFFFFFFFFFFFFFFFFFFFFFFF AND PUSH20 0xFFFFFFFFFFFFFFFFFFFFFFFFFFFFFFFFFFFFFFFF AND PUSH4 0xD53045C8 DUP3 PUSH1 0x40 MLOAD DUP3 PUSH4 0xFFFFFFFF AND PUSH1 0xE0 SHL DUP2 MSTORE PUSH1 0x4 ADD PUSH2 0xB01 SWAP2 SWAP1 PUSH2 0x267A JUMP JUMPDEST PUSH1 0x0 PUSH1 0x40 MLOAD DUP1 DUP4 SUB DUP2 PUSH1 0x0 DUP8 DUP1 EXTCODESIZE ISZERO DUP1 ISZERO PUSH2 0xB1B JUMPI PUSH1 0x0 DUP1 REVERT JUMPDEST POP GAS CALL ISZERO DUP1 ISZERO PUSH2 0xB2F JUMPI RETURNDATASIZE PUSH1 0x0 DUP1 RETURNDATACOPY RETURNDATASIZE PUSH1 0x0 REVERT JUMPDEST POP POP POP POP POP POP POP POP JUMP JUMPDEST PUSH2 0xB41 PUSH2 0x206B JUMP JUMPDEST PUSH2 0xB4A DUP3 PUSH2 0x4C3 JUMP JUMPDEST DUP1 PUSH1 0x1 PUSH1 0x0 SWAP1 SLOAD SWAP1 PUSH2 0x100 EXP SWAP1 DIV PUSH20 0xFFFFFFFFFFFFFFFFFFFFFFFFFFFFFFFFFFFFFFFF AND PUSH20 0xFFFFFFFFFFFFFFFFFFFFFFFFFFFFFFFFFFFFFFFF AND PUSH4 0xAEE9C872 DUP5 PUSH1 0x40 MLOAD DUP3 PUSH4 0xFFFFFFFF AND PUSH1 0xE0 SHL DUP2 MSTORE PUSH1 0x4 ADD PUSH2 0xBA6 SWAP2 SWAP1 PUSH2 0x2510 JUMP JUMPDEST PUSH1 0x20 PUSH1 0x40 MLOAD DUP1 DUP4 SUB DUP2 DUP7 DUP1 EXTCODESIZE ISZERO DUP1 ISZERO PUSH2 0xBBE JUMPI PUSH1 0x0 DUP1 REVERT JUMPDEST POP GAS STATICCALL ISZERO DUP1 ISZERO PUSH2 0xBD2 JUMPI RETURNDATASIZE PUSH1 0x0 DUP1 RETURNDATACOPY RETURNDATASIZE PUSH1 0x0 REVERT JUMPDEST POP POP POP POP PUSH1 0x40 MLOAD RETURNDATASIZE PUSH1 0x1F NOT PUSH1 0x1F DUP3 ADD AND DUP3 ADD DUP1 PUSH1 0x40 MSTORE POP DUP2 ADD SWAP1 PUSH2 0xBF6 SWAP2 SWAP1 PUSH2 0x237B JUMP JUMPDEST LT ISZERO PUSH2 0xC37 JUMPI PUSH1 0x40 MLOAD PUSH32 0x8C379A000000000000000000000000000000000000000000000000000000000 DUP2 MSTORE PUSH1 0x4 ADD PUSH2 0xC2E SWAP1 PUSH2 0x263A JUMP JUMPDEST PUSH1 0x40 MLOAD DUP1 SWAP2 SUB SWAP1 REVERT JUMPDEST PUSH1 0x0 PUSH1 0x1 PUSH1 0x0 SWAP1 SLOAD SWAP1 PUSH2 0x100 EXP SWAP1 DIV PUSH20 0xFFFFFFFFFFFFFFFFFFFFFFFFFFFFFFFFFFFFFFFF AND PUSH20 0xFFFFFFFFFFFFFFFFFFFFFFFFFFFFFFFFFFFFFFFF AND PUSH4 0x6E76C3CF DUP5 PUSH1 0x40 MLOAD DUP3 PUSH4 0xFFFFFFFF AND PUSH1 0xE0 SHL DUP2 MSTORE PUSH1 0x4 ADD PUSH2 0xC94 SWAP2 SWAP1 PUSH2 0x2510 JUMP JUMPDEST PUSH1 0x20 PUSH1 0x40 MLOAD DUP1 DUP4 SUB DUP2 DUP7 DUP1 EXTCODESIZE ISZERO DUP1 ISZERO PUSH2 0xCAC JUMPI PUSH1 0x0 DUP1 REVERT JUMPDEST POP GAS STATICCALL ISZERO DUP1 ISZERO PUSH2 0xCC0 JUMPI RETURNDATASIZE PUSH1 0x0 DUP1 RETURNDATACOPY RETURNDATASIZE PUSH1 0x0 REVERT JUMPDEST POP POP POP POP PUSH1 0x40 MLOAD RETURNDATASIZE PUSH1 0x1F NOT PUSH1 0x1F DUP3 ADD AND DUP3 ADD DUP1 PUSH1 0x40 MSTORE POP DUP2 ADD SWAP1 PUSH2 0xCE4 SWAP2 SWAP1 PUSH2 0x237B JUMP JUMPDEST SWAP1 POP PUSH1 0x0 PUSH1 0x1 PUSH1 0x0 SWAP1 SLOAD SWAP1 PUSH2 0x100 EXP SWAP1 DIV PUSH20 0xFFFFFFFFFFFFFFFFFFFFFFFFFFFFFFFFFFFFFFFF AND PUSH20 0xFFFFFFFFFFFFFFFFFFFFFFFFFFFFFFFFFFFFFFFF AND PUSH4 0xB1398144 DUP6 DUP5 PUSH1 0x40 MLOAD DUP4 PUSH4 0xFFFFFFFF AND PUSH1 0xE0 SHL DUP2 MSTORE PUSH1 0x4 ADD PUSH2 0xD45 SWAP3 SWAP2 SWAP1 PUSH2 0x2562 JUMP JUMPDEST PUSH1 0x60 PUSH1 0x40 MLOAD DUP1 DUP4 SUB DUP2 DUP7 DUP1 EXTCODESIZE ISZERO DUP1 ISZERO PUSH2 0xD5D JUMPI PUSH1 0x0 DUP1 REVERT JUMPDEST POP GAS STATICCALL ISZERO DUP1 ISZERO PUSH2 0xD71 JUMPI RETURNDATASIZE PUSH1 0x0 DUP1 RETURNDATACOPY RETURNDATASIZE PUSH1 0x0 REVERT JUMPDEST POP POP POP POP PUSH1 0x40 MLOAD RETURNDATASIZE PUSH1 0x1F NOT PUSH1 0x1F DUP3 ADD AND DUP3 ADD DUP1 PUSH1 0x40 MSTORE POP DUP2 ADD SWAP1 PUSH2 0xD95 SWAP2 SWAP1 PUSH2 0x2329 JUMP JUMPDEST SWAP1 POP PUSH1 0x0 JUMPDEST DUP4 DUP2 LT ISZERO PUSH2 0x1198 JUMPI PUSH1 0x0 DUP2 DUP6 PUSH2 0xDB0 SWAP2 SWAP1 PUSH2 0x27B4 JUMP JUMPDEST SWAP1 POP DUP3 PUSH1 0x20 ADD MLOAD DUP2 LT PUSH2 0x10F2 JUMPI DUP3 PUSH1 0x20 ADD MLOAD DUP3 PUSH2 0xDCD SWAP2 SWAP1 PUSH2 0x2704 JUMP JUMPDEST SWAP2 POP PUSH1 0x1 PUSH1 0x0 SWAP1 SLOAD SWAP1 PUSH2 0x100 EXP SWAP1 DIV PUSH20 0xFFFFFFFFFFFFFFFFFFFFFFFFFFFFFFFFFFFFFFFF AND PUSH20 0xFFFFFFFFFFFFFFFFFFFFFFFFFFFFFFFFFFFFFFFF AND PUSH4 0xD89B5ED6 DUP8 DUP7 PUSH1 0x40 MLOAD DUP4 PUSH4 0xFFFFFFFF AND PUSH1 0xE0 SHL DUP2 MSTORE PUSH1 0x4 ADD PUSH2 0xE2C SWAP3 SWAP2 SWAP1 PUSH2 0x2562 JUMP JUMPDEST PUSH1 0x0 PUSH1 0x40 MLOAD DUP1 DUP4 SUB DUP2 PUSH1 0x0 DUP8 DUP1 EXTCODESIZE ISZERO DUP1 ISZERO PUSH2 0xE46 JUMPI PUSH1 0x0 DUP1 REVERT JUMPDEST POP GAS CALL ISZERO DUP1 ISZERO PUSH2 0xE5A JUMPI RETURNDATASIZE PUSH1 0x0 DUP1 RETURNDATACOPY RETURNDATASIZE PUSH1 0x0 REVERT JUMPDEST POP POP POP POP PUSH1 0x1 PUSH1 0x0 SWAP1 SLOAD SWAP1 PUSH2 0x100 EXP SWAP1 DIV PUSH20 0xFFFFFFFFFFFFFFFFFFFFFFFFFFFFFFFFFFFFFFFF AND PUSH20 0xFFFFFFFFFFFFFFFFFFFFFFFFFFFFFFFFFFFFFFFF AND PUSH4 0x7AB436F8 DUP8 DUP6 PUSH1 0x40 ADD MLOAD PUSH1 0x40 MLOAD DUP4 PUSH4 0xFFFFFFFF AND PUSH1 0xE0 SHL DUP2 MSTORE PUSH1 0x4 ADD PUSH2 0xEBF SWAP3 SWAP2 SWAP1 PUSH2 0x2562 JUMP JUMPDEST PUSH1 0x0 PUSH1 0x40 MLOAD DUP1 DUP4 SUB DUP2 PUSH1 0x0 DUP8 DUP1 EXTCODESIZE ISZERO DUP1 ISZERO PUSH2 0xED9 JUMPI PUSH1 0x0 DUP1 REVERT JUMPDEST POP GAS CALL ISZERO DUP1 ISZERO PUSH2 0xEED JUMPI RETURNDATASIZE PUSH1 0x0 DUP1 RETURNDATACOPY RETURNDATASIZE PUSH1 0x0 REVERT JUMPDEST POP POP POP POP DUP4 PUSH1 0x1 PUSH1 0x0 SWAP1 SLOAD SWAP1 PUSH2 0x100 EXP SWAP1 DIV PUSH20 0xFFFFFFFFFFFFFFFFFFFFFFFFFFFFFFFFFFFFFFFF AND PUSH20 0xFFFFFFFFFFFFFFFFFFFFFFFFFFFFFFFFFFFFFFFF AND PUSH4 0xBAAFD2D8 DUP9 PUSH1 0x40 MLOAD DUP3 PUSH4 0xFFFFFFFF AND PUSH1 0xE0 SHL DUP2 MSTORE PUSH1 0x4 ADD PUSH2 0xF4D SWAP2 SWAP1 PUSH2 0x2510 JUMP JUMPDEST PUSH1 0x20 PUSH1 0x40 MLOAD DUP1 DUP4 SUB DUP2 DUP7 DUP1 EXTCODESIZE ISZERO DUP1 ISZERO PUSH2 0xF65 JUMPI PUSH1 0x0 DUP1 REVERT JUMPDEST POP GAS STATICCALL ISZERO DUP1 ISZERO PUSH2 0xF79 JUMPI RETURNDATASIZE PUSH1 0x0 DUP1 RETURNDATACOPY RETURNDATASIZE PUSH1 0x0 REVERT JUMPDEST POP POP POP POP PUSH1 0x40 MLOAD RETURNDATASIZE PUSH1 0x1F NOT PUSH1 0x1F DUP3 ADD AND DUP3 ADD DUP1 PUSH1 0x40 MSTORE POP DUP2 ADD SWAP1 PUSH2 0xF9D SWAP2 SWAP1 PUSH2 0x237B JUMP JUMPDEST EQ ISZERO PUSH2 0x1037 JUMPI PUSH1 0x1 PUSH1 0x0 SWAP1 SLOAD SWAP1 PUSH2 0x100 EXP SWAP1 DIV PUSH20 0xFFFFFFFFFFFFFFFFFFFFFFFFFFFFFFFFFFFFFFFF AND PUSH20 0xFFFFFFFFFFFFFFFFFFFFFFFFFFFFFFFFFFFFFFFF AND PUSH4 0x85393A8E DUP8 DUP6 PUSH1 0x40 ADD MLOAD PUSH1 0x40 MLOAD DUP4 PUSH4 0xFFFFFFFF AND PUSH1 0xE0 SHL DUP2 MSTORE PUSH1 0x4 ADD PUSH2 0x1004 SWAP3 SWAP2 SWAP1 PUSH2 0x2562 JUMP JUMPDEST PUSH1 0x0 PUSH1 0x40 MLOAD DUP1 DUP4 SUB DUP2 PUSH1 0x0 DUP8 DUP1 EXTCODESIZE ISZERO DUP1 ISZERO PUSH2 0x101E JUMPI PUSH1 0x0 DUP1 REVERT JUMPDEST POP GAS CALL ISZERO DUP1 ISZERO PUSH2 0x1032 JUMPI RETURNDATASIZE PUSH1 0x0 DUP1 RETURNDATACOPY RETURNDATASIZE PUSH1 0x0 REVERT JUMPDEST POP POP POP POP JUMPDEST DUP3 PUSH1 0x40 ADD MLOAD SWAP4 POP PUSH1 0x1 PUSH1 0x0 SWAP1 SLOAD SWAP1 PUSH2 0x100 EXP SWAP1 DIV PUSH20 0xFFFFFFFFFFFFFFFFFFFFFFFFFFFFFFFFFFFFFFFF AND PUSH20 0xFFFFFFFFFFFFFFFFFFFFFFFFFFFFFFFFFFFFFFFF AND PUSH4 0xB1398144 DUP8 DUP7 PUSH1 0x40 MLOAD DUP4 PUSH4 0xFFFFFFFF AND PUSH1 0xE0 SHL DUP2 MSTORE PUSH1 0x4 ADD PUSH2 0x109B SWAP3 SWAP2 SWAP1 PUSH2 0x2562 JUMP JUMPDEST PUSH1 0x60 PUSH1 0x40 MLOAD DUP1 DUP4 SUB DUP2 DUP7 DUP1 EXTCODESIZE ISZERO DUP1 ISZERO PUSH2 0x10B3 JUMPI PUSH1 0x0 DUP1 REVERT JUMPDEST POP GAS STATICCALL ISZERO DUP1 ISZERO PUSH2 0x10C7 JUMPI RETURNDATASIZE PUSH1 0x0 DUP1 RETURNDATACOPY RETURNDATASIZE PUSH1 0x0 REVERT JUMPDEST POP POP POP POP PUSH1 0x40 MLOAD RETURNDATASIZE PUSH1 0x1F NOT PUSH1 0x1F DUP3 ADD AND DUP3 ADD DUP1 PUSH1 0x40 MSTORE POP DUP2 ADD SWAP1 PUSH2 0x10EB SWAP2 SWAP1 PUSH2 0x2329 JUMP JUMPDEST SWAP3 POP PUSH2 0x1192 JUMP JUMPDEST DUP1 DUP3 PUSH2 0x10FE SWAP2 SWAP1 PUSH2 0x2704 JUMP JUMPDEST SWAP2 POP PUSH1 0x1 PUSH1 0x0 SWAP1 SLOAD SWAP1 PUSH2 0x100 EXP SWAP1 DIV PUSH20 0xFFFFFFFFFFFFFFFFFFFFFFFFFFFFFFFFFFFFFFFF AND PUSH20 0xFFFFFFFFFFFFFFFFFFFFFFFFFFFFFFFFFFFFFFFF AND PUSH4 0xEE650665 DUP8 DUP7 DUP5 PUSH1 0x40 MLOAD DUP5 PUSH4 0xFFFFFFFF AND PUSH1 0xE0 SHL DUP2 MSTORE PUSH1 0x4 ADD PUSH2 0x115F SWAP4 SWAP3 SWAP2 SWAP1 PUSH2 0x258B JUMP JUMPDEST PUSH1 0x0 PUSH1 0x40 MLOAD DUP1 DUP4 SUB DUP2 PUSH1 0x0 DUP8 DUP1 EXTCODESIZE ISZERO DUP1 ISZERO PUSH2 0x1179 JUMPI PUSH1 0x0 DUP1 REVERT JUMPDEST POP GAS CALL ISZERO DUP1 ISZERO PUSH2 0x118D JUMPI RETURNDATASIZE PUSH1 0x0 DUP1 RETURNDATACOPY RETURNDATASIZE PUSH1 0x0 REVERT JUMPDEST POP POP POP POP JUMPDEST POP PUSH2 0xD9A JUMP JUMPDEST PUSH1 0x1 PUSH1 0x0 SWAP1 SLOAD SWAP1 PUSH2 0x100 EXP SWAP1 DIV PUSH20 0xFFFFFFFFFFFFFFFFFFFFFFFFFFFFFFFFFFFFFFFF AND PUSH20 0xFFFFFFFFFFFFFFFFFFFFFFFFFFFFFFFFFFFFFFFF AND PUSH4 0xCFD4F18A DUP7 DUP4 PUSH1 0x40 MLOAD DUP4 PUSH4 0xFFFFFFFF AND PUSH1 0xE0 SHL DUP2 MSTORE PUSH1 0x4 ADD PUSH2 0x11F5 SWAP3 SWAP2 SWAP1 PUSH2 0x2562 JUMP JUMPDEST PUSH1 0x0 PUSH1 0x40 MLOAD DUP1 DUP4 SUB DUP2 PUSH1 0x0 DUP8 DUP1 EXTCODESIZE ISZERO DUP1 ISZERO PUSH2 0x120F JUMPI PUSH1 0x0 DUP1 REVERT JUMPDEST POP GAS CALL ISZERO DUP1 ISZERO PUSH2 0x1223 JUMPI RETURNDATASIZE PUSH1 0x0 DUP1 RETURNDATACOPY RETURNDATASIZE PUSH1 0x0 REVERT JUMPDEST POP POP POP POP PUSH1 0x1 PUSH1 0x0 SWAP1 SLOAD SWAP1 PUSH2 0x100 EXP SWAP1 DIV PUSH20 0xFFFFFFFFFFFFFFFFFFFFFFFFFFFFFFFFFFFFFFFF AND PUSH20 0xFFFFFFFFFFFFFFFFFFFFFFFFFFFFFFFFFFFFFFFF AND PUSH4 0x4B9ECD54 DUP3 PUSH1 0x40 MLOAD DUP3 PUSH4 0xFFFFFFFF AND PUSH1 0xE0 SHL DUP2 MSTORE PUSH1 0x4 ADD PUSH2 0x1282 SWAP2 SWAP1 PUSH2 0x267A JUMP JUMPDEST PUSH1 0x0 PUSH1 0x40 MLOAD DUP1 DUP4 SUB DUP2 PUSH1 0x0 DUP8 DUP1 EXTCODESIZE ISZERO DUP1 ISZERO PUSH2 0x129C JUMPI PUSH1 0x0 DUP1 REVERT JUMPDEST POP GAS CALL ISZERO DUP1 ISZERO PUSH2 0x12B0 JUMPI RETURNDATASIZE PUSH1 0x0 DUP1 RETURNDATACOPY RETURNDATASIZE PUSH1 0x0 REVERT JUMPDEST POP POP POP POP PUSH1 0x1 PUSH1 0x0 SWAP1 SLOAD SWAP1 PUSH2 0x100 EXP SWAP1 DIV PUSH20 0xFFFFFFFFFFFFFFFFFFFFFFFFFFFFFFFFFFFFFFFF AND PUSH20 0xFFFFFFFFFFFFFFFFFFFFFFFFFFFFFFFFFFFFFFFF AND PUSH4 0x93F0F55A DUP3 PUSH1 0x40 MLOAD DUP3 PUSH4 0xFFFFFFFF AND PUSH1 0xE0 SHL DUP2 MSTORE PUSH1 0x4 ADD PUSH2 0x130F SWAP2 SWAP1 PUSH2 0x267A JUMP JUMPDEST PUSH1 0x0 PUSH1 0x40 MLOAD DUP1 DUP4 SUB DUP2 PUSH1 0x0 DUP8 DUP1 EXTCODESIZE ISZERO DUP1 ISZERO PUSH2 0x1329 JUMPI PUSH1 0x0 DUP1 REVERT JUMPDEST POP GAS CALL ISZERO DUP1 ISZERO PUSH2 0x133D JUMPI RETURNDATASIZE PUSH1 0x0 DUP1 RETURNDATACOPY RETURNDATASIZE PUSH1 0x0 REVERT JUMPDEST POP POP POP POP POP POP POP POP POP JUMP JUMPDEST PUSH1 0x0 PUSH1 0x1 PUSH1 0x0 SWAP1 SLOAD SWAP1 PUSH2 0x100 EXP SWAP1 DIV PUSH20 0xFFFFFFFFFFFFFFFFFFFFFFFFFFFFFFFFFFFFFFFF AND PUSH20 0xFFFFFFFFFFFFFFFFFFFFFFFFFFFFFFFFFFFFFFFF AND PUSH4 0xCE5E9365 PUSH1 0x40 MLOAD DUP2 PUSH4 0xFFFFFFFF AND PUSH1 0xE0 SHL DUP2 MSTORE PUSH1 0x4 ADD PUSH1 0x20 PUSH1 0x40 MLOAD DUP1 DUP4 SUB DUP2 DUP7 DUP1 EXTCODESIZE ISZERO DUP1 ISZERO PUSH2 0x13B2 JUMPI PUSH1 0x0 DUP1 REVERT JUMPDEST POP GAS STATICCALL ISZERO DUP1 ISZERO PUSH2 0x13C6 JUMPI RETURNDATASIZE PUSH1 0x0 DUP1 RETURNDATACOPY RETURNDATASIZE PUSH1 0x0 REVERT JUMPDEST POP POP POP POP PUSH1 0x40 MLOAD RETURNDATASIZE PUSH1 0x1F NOT PUSH1 0x1F DUP3 ADD AND DUP3 ADD DUP1 PUSH1 0x40 MSTORE POP DUP2 ADD SWAP1 PUSH2 0x13EA SWAP2 SWAP1 PUSH2 0x237B JUMP JUMPDEST SWAP1 POP SWAP1 JUMP JUMPDEST PUSH1 0x0 PUSH1 0x1 PUSH1 0x0 SWAP1 SLOAD SWAP1 PUSH2 0x100 EXP SWAP1 DIV PUSH20 0xFFFFFFFFFFFFFFFFFFFFFFFFFFFFFFFFFFFFFFFF AND PUSH20 0xFFFFFFFFFFFFFFFFFFFFFFFFFFFFFFFFFFFFFFFF AND PUSH4 0xD89135CD PUSH1 0x40 MLOAD DUP2 PUSH4 0xFFFFFFFF AND PUSH1 0xE0 SHL DUP2 MSTORE PUSH1 0x4 ADD PUSH1 0x20 PUSH1 0x40 MLOAD DUP1 DUP4 SUB DUP2 DUP7 DUP1 EXTCODESIZE ISZERO DUP1 ISZERO PUSH2 0x1459 JUMPI PUSH1 0x0 DUP1 REVERT JUMPDEST POP GAS STATICCALL ISZERO DUP1 ISZERO PUSH2 0x146D JUMPI RETURNDATASIZE PUSH1 0x0 DUP1 RETURNDATACOPY RETURNDATASIZE PUSH1 0x0 REVERT JUMPDEST POP POP POP POP PUSH1 0x40 MLOAD RETURNDATASIZE PUSH1 0x1F NOT PUSH1 0x1F DUP3 ADD AND DUP3 ADD DUP1 PUSH1 0x40 MSTORE POP DUP2 ADD SWAP1 PUSH2 0x1491 SWAP2 SWAP1 PUSH2 0x237B JUMP JUMPDEST SWAP1 POP SWAP1 JUMP JUMPDEST PUSH2 0x149E PUSH2 0x206B JUMP JUMPDEST DUP1 PUSH1 0x3 DUP2 SWAP1 SSTORE POP POP JUMP JUMPDEST PUSH2 0x14B0 PUSH2 0x206B JUMP JUMPDEST PUSH2 0x14B9 DUP3 PUSH2 0x4C3 JUMP JUMPDEST PUSH1 0x0 TIMESTAMP SWAP1 POP PUSH1 0x1 PUSH1 0x0 SWAP1 SLOAD SWAP1 PUSH2 0x100 EXP SWAP1 DIV PUSH20 0xFFFFFFFFFFFFFFFFFFFFFFFFFFFFFFFFFFFFFFFF AND PUSH20 0xFFFFFFFFFFFFFFFFFFFFFFFFFFFFFFFFFFFFFFFF AND PUSH4 0x4EB84791 DUP5 DUP4 DUP6 PUSH1 0x40 MLOAD DUP5 PUSH4 0xFFFFFFFF AND PUSH1 0xE0 SHL DUP2 MSTORE PUSH1 0x4 ADD PUSH2 0x151D SWAP4 SWAP3 SWAP2 SWAP1 PUSH2 0x258B JUMP JUMPDEST PUSH1 0x0 PUSH1 0x40 MLOAD DUP1 DUP4 SUB DUP2 PUSH1 0x0 DUP8 DUP1 EXTCODESIZE ISZERO DUP1 ISZERO PUSH2 0x1537 JUMPI PUSH1 0x0 DUP1 REVERT JUMPDEST POP GAS CALL ISZERO DUP1 ISZERO PUSH2 0x154B JUMPI RETURNDATASIZE PUSH1 0x0 DUP1 RETURNDATACOPY RETURNDATASIZE PUSH1 0x0 REVERT JUMPDEST POP POP POP POP PUSH1 0x1 PUSH1 0x0 SWAP1 SLOAD SWAP1 PUSH2 0x100 EXP SWAP1 DIV PUSH20 0xFFFFFFFFFFFFFFFFFFFFFFFFFFFFFFFFFFFFFFFF AND PUSH20 0xFFFFFFFFFFFFFFFFFFFFFFFFFFFFFFFFFFFFFFFF AND PUSH4 0x21E5383A DUP5 DUP5 PUSH1 0x40 MLOAD DUP4 PUSH4 0xFFFFFFFF AND PUSH1 0xE0 SHL DUP2 MSTORE PUSH1 0x4 ADD PUSH2 0x15AC SWAP3 SWAP2 SWAP1 PUSH2 0x2562 JUMP JUMPDEST PUSH1 0x0 PUSH1 0x40 MLOAD DUP1 DUP4 SUB DUP2 PUSH1 0x0 DUP8 DUP1 EXTCODESIZE ISZERO DUP1 ISZERO PUSH2 0x15C6 JUMPI PUSH1 0x0 DUP1 REVERT JUMPDEST POP GAS CALL ISZERO DUP1 ISZERO PUSH2 0x15DA JUMPI RETURNDATASIZE PUSH1 0x0 DUP1 RETURNDATACOPY RETURNDATASIZE PUSH1 0x0 REVERT JUMPDEST POP POP POP POP PUSH1 0x1 PUSH1 0x0 SWAP1 SLOAD SWAP1 PUSH2 0x100 EXP SWAP1 DIV PUSH20 0xFFFFFFFFFFFFFFFFFFFFFFFFFFFFFFFFFFFFFFFF AND PUSH20 0xFFFFFFFFFFFFFFFFFFFFFFFFFFFFFFFFFFFFFFFF AND PUSH4 0xE468688E DUP4 PUSH1 0x40 MLOAD DUP3 PUSH4 0xFFFFFFFF AND PUSH1 0xE0 SHL DUP2 MSTORE PUSH1 0x4 ADD PUSH2 0x1639 SWAP2 SWAP1 PUSH2 0x267A JUMP JUMPDEST PUSH1 0x0 PUSH1 0x40 MLOAD DUP1 DUP4 SUB DUP2 PUSH1 0x0 DUP8 DUP1 EXTCODESIZE ISZERO DUP1 ISZERO PUSH2 0x1653 JUMPI PUSH1 0x0 DUP1 REVERT JUMPDEST POP GAS CALL ISZERO DUP1 ISZERO PUSH2 0x1667 JUMPI RETURNDATASIZE PUSH1 0x0 DUP1 RETURNDATACOPY RETURNDATASIZE PUSH1 0x0 REVERT JUMPDEST POP POP POP POP POP POP POP JUMP JUMPDEST PUSH2 0x1678 PUSH2 0x206B JUMP JUMPDEST PUSH2 0x1682 PUSH1 0x0 PUSH2 0x20E9 JUMP JUMPDEST JUMP JUMPDEST PUSH1 0x0 PUSH1 0x1 PUSH1 0x0 SWAP1 SLOAD SWAP1 PUSH2 0x100 EXP SWAP1 DIV PUSH20 0xFFFFFFFFFFFFFFFFFFFFFFFFFFFFFFFFFFFFFFFF AND PUSH20 0xFFFFFFFFFFFFFFFFFFFFFFFFFFFFFFFFFFFFFFFF AND PUSH4 0x18160DDD PUSH1 0x40 MLOAD DUP2 PUSH4 0xFFFFFFFF AND PUSH1 0xE0 SHL DUP2 MSTORE PUSH1 0x4 ADD PUSH1 0x20 PUSH1 0x40 MLOAD DUP1 DUP4 SUB DUP2 DUP7 DUP1 EXTCODESIZE ISZERO DUP1 ISZERO PUSH2 0x16EE JUMPI PUSH1 0x0 DUP1 REVERT JUMPDEST POP GAS STATICCALL ISZERO DUP1 ISZERO PUSH2 0x1702 JUMPI RETURNDATASIZE PUSH1 0x0 DUP1 RETURNDATACOPY RETURNDATASIZE PUSH1 0x0 REVERT JUMPDEST POP POP POP POP PUSH1 0x40 MLOAD RETURNDATASIZE PUSH1 0x1F NOT PUSH1 0x1F DUP3 ADD AND DUP3 ADD DUP1 PUSH1 0x40 MSTORE POP DUP2 ADD SWAP1 PUSH2 0x1726 SWAP2 SWAP1 PUSH2 0x237B JUMP JUMPDEST SWAP1 POP SWAP1 JUMP JUMPDEST PUSH1 0x3 SLOAD DUP2 JUMP JUMPDEST PUSH1 0x0 DUP1 PUSH1 0x0 SWAP1 SLOAD SWAP1 PUSH2 0x100 EXP SWAP1 DIV PUSH20 0xFFFFFFFFFFFFFFFFFFFFFFFFFFFFFFFFFFFFFFFF AND SWAP1 POP SWAP1 JUMP JUMPDEST PUSH1 0x0 PUSH1 0x2 PUSH1 0x0 SWAP1 SLOAD SWAP1 PUSH2 0x100 EXP SWAP1 DIV PUSH20 0xFFFFFFFFFFFFFFFFFFFFFFFFFFFFFFFFFFFFFFFF AND PUSH20 0xFFFFFFFFFFFFFFFFFFFFFFFFFFFFFFFFFFFFFFFF AND PUSH4 0xAEE9C872 DUP4 PUSH1 0x40 MLOAD DUP3 PUSH4 0xFFFFFFFF AND PUSH1 0xE0 SHL DUP2 MSTORE PUSH1 0x4 ADD PUSH2 0x17B7 SWAP2 SWAP1 PUSH2 0x2510 JUMP JUMPDEST PUSH1 0x20 PUSH1 0x40 MLOAD DUP1 DUP4 SUB DUP2 DUP7 DUP1 EXTCODESIZE ISZERO DUP1 ISZERO PUSH2 0x17CF JUMPI PUSH1 0x0 DUP1 REVERT JUMPDEST POP GAS STATICCALL ISZERO DUP1 ISZERO PUSH2 0x17E3 JUMPI RETURNDATASIZE PUSH1 0x0 DUP1 RETURNDATACOPY RETURNDATASIZE PUSH1 0x0 REVERT JUMPDEST POP POP POP POP PUSH1 0x40 MLOAD RETURNDATASIZE PUSH1 0x1F NOT PUSH1 0x1F DUP3 ADD AND DUP3 ADD DUP1 PUSH1 0x40 MSTORE POP DUP2 ADD SWAP1 PUSH2 0x1807 SWAP2 SWAP1 PUSH2 0x237B JUMP JUMPDEST SWAP1 POP SWAP2 SWAP1 POP JUMP JUMPDEST PUSH2 0x1816 PUSH2 0x206B JUMP JUMPDEST PUSH1 0x2 PUSH1 0x0 SWAP1 SLOAD SWAP1 PUSH2 0x100 EXP SWAP1 DIV PUSH20 0xFFFFFFFFFFFFFFFFFFFFFFFFFFFFFFFFFFFFFFFF AND PUSH20 0xFFFFFFFFFFFFFFFFFFFFFFFFFFFFFFFFFFFFFFFF AND PUSH4 0x40C10F19 DUP4 DUP4 PUSH1 0x40 MLOAD DUP4 PUSH4 0xFFFFFFFF AND PUSH1 0xE0 SHL DUP2 MSTORE PUSH1 0x4 ADD PUSH2 0x1873 SWAP3 SWAP2 SWAP1 PUSH2 0x2562 JUMP JUMPDEST PUSH1 0x0 PUSH1 0x40 MLOAD DUP1 DUP4 SUB DUP2 PUSH1 0x0 DUP8 DUP1 EXTCODESIZE ISZERO DUP1 ISZERO PUSH2 0x188D JUMPI PUSH1 0x0 DUP1 REVERT JUMPDEST POP GAS CALL ISZERO DUP1 ISZERO PUSH2 0x18A1 JUMPI RETURNDATASIZE PUSH1 0x0 DUP1 RETURNDATACOPY RETURNDATASIZE PUSH1 0x0 REVERT JUMPDEST POP POP POP POP POP POP JUMP JUMPDEST PUSH1 0x0 PUSH1 0x2 PUSH1 0x0 SWAP1 SLOAD SWAP1 PUSH2 0x100 EXP SWAP1 DIV PUSH20 0xFFFFFFFFFFFFFFFFFFFFFFFFFFFFFFFFFFFFFFFF AND PUSH20 0xFFFFFFFFFFFFFFFFFFFFFFFFFFFFFFFFFFFFFFFF AND PUSH4 0x18160DDD PUSH1 0x40 MLOAD DUP2 PUSH4 0xFFFFFFFF AND PUSH1 0xE0 SHL DUP2 MSTORE PUSH1 0x4 ADD PUSH1 0x20 PUSH1 0x40 MLOAD DUP1 DUP4 SUB DUP2 DUP7 DUP1 EXTCODESIZE ISZERO DUP1 ISZERO PUSH2 0x1913 JUMPI PUSH1 0x0 DUP1 REVERT JUMPDEST POP GAS STATICCALL ISZERO DUP1 ISZERO PUSH2 0x1927 JUMPI RETURNDATASIZE PUSH1 0x0 DUP1 RETURNDATACOPY RETURNDATASIZE PUSH1 0x0 REVERT JUMPDEST POP POP POP POP PUSH1 0x40 MLOAD RETURNDATASIZE PUSH1 0x1F NOT PUSH1 0x1F DUP3 ADD AND DUP3 ADD DUP1 PUSH1 0x40 MSTORE POP DUP2 ADD SWAP1 PUSH2 0x194B SWAP2 SWAP1 PUSH2 0x237B JUMP JUMPDEST SWAP1 POP SWAP1 JUMP JUMPDEST PUSH2 0x1958 PUSH2 0x206B JUMP JUMPDEST PUSH1 0x2 PUSH1 0x0 SWAP1 SLOAD SWAP1 PUSH2 0x100 EXP SWAP1 DIV PUSH20 0xFFFFFFFFFFFFFFFFFFFFFFFFFFFFFFFFFFFFFFFF AND PUSH20 0xFFFFFFFFFFFFFFFFFFFFFFFFFFFFFFFFFFFFFFFF AND PUSH4 0x9DC29FAC DUP4 DUP4 PUSH1 0x40 MLOAD DUP4 PUSH4 0xFFFFFFFF AND PUSH1 0xE0 SHL DUP2 MSTORE PUSH1 0x4 ADD PUSH2 0x19B5 SWAP3 SWAP2 SWAP1 PUSH2 0x2562 JUMP JUMPDEST PUSH1 0x0 PUSH1 0x40 MLOAD DUP1 DUP4 SUB DUP2 PUSH1 0x0 DUP8 DUP1 EXTCODESIZE ISZERO DUP1 ISZERO PUSH2 0x19CF JUMPI PUSH1 0x0 DUP1 REVERT JUMPDEST POP GAS CALL ISZERO DUP1 ISZERO PUSH2 0x19E3 JUMPI RETURNDATASIZE PUSH1 0x0 DUP1 RETURNDATACOPY RETURNDATASIZE PUSH1 0x0 REVERT JUMPDEST POP POP POP POP POP POP JUMP JUMPDEST PUSH1 0x2 PUSH1 0x0 SWAP1 SLOAD SWAP1 PUSH2 0x100 EXP SWAP1 DIV PUSH20 0xFFFFFFFFFFFFFFFFFFFFFFFFFFFFFFFFFFFFFFFF AND DUP2 JUMP JUMPDEST PUSH1 0x0 PUSH1 0x2 PUSH1 0x0 SWAP1 SLOAD SWAP1 PUSH2 0x100 EXP SWAP1 DIV PUSH20 0xFFFFFFFFFFFFFFFFFFFFFFFFFFFFFFFFFFFFFFFF AND PUSH20 0xFFFFFFFFFFFFFFFFFFFFFFFFFFFFFFFFFFFFFFFF AND PUSH4 0xD89135CD PUSH1 0x40 MLOAD DUP2 PUSH4 0xFFFFFFFF AND PUSH1 0xE0 SHL DUP2 MSTORE PUSH1 0x4 ADD PUSH1 0x20 PUSH1 0x40 MLOAD DUP1 DUP4 SUB DUP2 DUP7 DUP1 EXTCODESIZE ISZERO DUP1 ISZERO PUSH2 0x1A7B JUMPI PUSH1 0x0 DUP1 REVERT JUMPDEST POP GAS STATICCALL ISZERO DUP1 ISZERO PUSH2 0x1A8F JUMPI RETURNDATASIZE PUSH1 0x0 DUP1 RETURNDATACOPY RETURNDATASIZE PUSH1 0x0 REVERT JUMPDEST POP POP POP POP PUSH1 0x40 MLOAD RETURNDATASIZE PUSH1 0x1F NOT PUSH1 0x1F DUP3 ADD AND DUP3 ADD DUP1 PUSH1 0x40 MSTORE POP DUP2 ADD SWAP1 PUSH2 0x1AB3 SWAP2 SWAP1 PUSH2 0x237B JUMP JUMPDEST SWAP1 POP SWAP1 JUMP JUMPDEST PUSH1 0x4 SLOAD DUP2 JUMP JUMPDEST PUSH1 0x0 PUSH1 0x1 PUSH1 0x0 SWAP1 SLOAD SWAP1 PUSH2 0x100 EXP SWAP1 DIV PUSH20 0xFFFFFFFFFFFFFFFFFFFFFFFFFFFFFFFFFFFFFFFF AND PUSH20 0xFFFFFFFFFFFFFFFFFFFFFFFFFFFFFFFFFFFFFFFF AND PUSH4 0xAEE9C872 DUP4 PUSH1 0x40 MLOAD DUP3 PUSH4 0xFFFFFFFF AND PUSH1 0xE0 SHL DUP2 MSTORE PUSH1 0x4 ADD PUSH2 0x1B1B SWAP2 SWAP1 PUSH2 0x2510 JUMP JUMPDEST PUSH1 0x20 PUSH1 0x40 MLOAD DUP1 DUP4 SUB DUP2 DUP7 DUP1 EXTCODESIZE ISZERO DUP1 ISZERO PUSH2 0x1B33 JUMPI PUSH1 0x0 DUP1 REVERT JUMPDEST POP GAS STATICCALL ISZERO DUP1 ISZERO PUSH2 0x1B47 JUMPI RETURNDATASIZE PUSH1 0x0 DUP1 RETURNDATACOPY RETURNDATASIZE PUSH1 0x0 REVERT JUMPDEST POP POP POP POP PUSH1 0x40 MLOAD RETURNDATASIZE PUSH1 0x1F NOT PUSH1 0x1F DUP3 ADD AND DUP3 ADD DUP1 PUSH1 0x40 MSTORE POP DUP2 ADD SWAP1 PUSH2 0x1B6B SWAP2 SWAP1 PUSH2 0x237B JUMP JUMPDEST SWAP1 POP SWAP2 SWAP1 POP JUMP JUMPDEST PUSH2 0x1B89 CALLER PUSH1 0x4 SLOAD DUP4 PUSH2 0x1B84 SWAP2 SWAP1 PUSH2 0x275A JUMP JUMPDEST PUSH2 0xB39 JUMP JUMPDEST PUSH1 0x2 PUSH1 0x0 SWAP1 SLOAD SWAP1 PUSH2 0x100 EXP SWAP1 DIV PUSH20 0xFFFFFFFFFFFFFFFFFFFFFFFFFFFFFFFFFFFFFFFF AND PUSH20 0xFFFFFFFFFFFFFFFFFFFFFFFFFFFFFFFFFFFFFFFF AND PUSH4 0x40C10F19 DUP4 DUP4 PUSH1 0x40 MLOAD DUP4 PUSH4 0xFFFFFFFF AND PUSH1 0xE0 SHL DUP2 MSTORE PUSH1 0x4 ADD PUSH2 0x1BE6 SWAP3 SWAP2 SWAP1 PUSH2 0x2562 JUMP JUMPDEST PUSH1 0x0 PUSH1 0x40 MLOAD DUP1 DUP4 SUB DUP2 PUSH1 0x0 DUP8 DUP1 EXTCODESIZE ISZERO DUP1 ISZERO PUSH2 0x1C00 JUMPI PUSH1 0x0 DUP1 REVERT JUMPDEST POP GAS CALL ISZERO DUP1 ISZERO PUSH2 0x1C14 JUMPI RETURNDATASIZE PUSH1 0x0 DUP1 RETURNDATACOPY RETURNDATASIZE PUSH1 0x0 REVERT JUMPDEST POP POP POP POP POP POP JUMP JUMPDEST PUSH2 0x1C24 PUSH2 0x206B JUMP JUMPDEST PUSH1 0x0 PUSH20 0xFFFFFFFFFFFFFFFFFFFFFFFFFFFFFFFFFFFFFFFF AND DUP2 PUSH20 0xFFFFFFFFFFFFFFFFFFFFFFFFFFFFFFFFFFFFFFFF AND EQ ISZERO PUSH2 0x1C94 JUMPI PUSH1 0x40 MLOAD PUSH32 0x8C379A000000000000000000000000000000000000000000000000000000000 DUP2 MSTORE PUSH1 0x4 ADD PUSH2 0x1C8B SWAP1 PUSH2 0x261A JUMP JUMPDEST PUSH1 0x40 MLOAD DUP1 SWAP2 SUB SWAP1 REVERT JUMPDEST PUSH2 0x1C9D DUP2 PUSH2 0x20E9 JUMP JUMPDEST POP JUMP JUMPDEST PUSH1 0x2 PUSH1 0x0 SWAP1 SLOAD SWAP1 PUSH2 0x100 EXP SWAP1 DIV PUSH20 0xFFFFFFFFFFFFFFFFFFFFFFFFFFFFFFFFFFFFFFFF AND PUSH20 0xFFFFFFFFFFFFFFFFFFFFFFFFFFFFFFFFFFFFFFFF AND PUSH4 0xBEABACC8 CALLER DUP5 DUP5 PUSH1 0x40 MLOAD DUP5 PUSH4 0xFFFFFFFF AND PUSH1 0xE0 SHL DUP2 MSTORE PUSH1 0x4 ADD PUSH2 0x1CFF SWAP4 SWAP3 SWAP2 SWAP1 PUSH2 0x252B JUMP JUMPDEST PUSH1 0x0 PUSH1 0x40 MLOAD DUP1 DUP4 SUB DUP2 PUSH1 0x0 DUP8 DUP1 EXTCODESIZE ISZERO DUP1 ISZERO PUSH2 0x1D19 JUMPI PUSH1 0x0 DUP1 REVERT JUMPDEST POP GAS CALL ISZERO DUP1 ISZERO PUSH2 0x1D2D JUMPI RETURNDATASIZE PUSH1 0x0 DUP1 RETURNDATACOPY RETURNDATASIZE PUSH1 0x0 REVERT JUMPDEST POP POP POP POP POP POP JUMP JUMPDEST PUSH1 0x60 PUSH1 0x0 PUSH1 0x1 PUSH1 0x0 SWAP1 SLOAD SWAP1 PUSH2 0x100 EXP SWAP1 DIV PUSH20 0xFFFFFFFFFFFFFFFFFFFFFFFFFFFFFFFFFFFFFFFF AND PUSH20 0xFFFFFFFFFFFFFFFFFFFFFFFFFFFFFFFFFFFFFFFF AND PUSH4 0x6E76C3CF DUP6 PUSH1 0x40 MLOAD DUP3 PUSH4 0xFFFFFFFF AND PUSH1 0xE0 SHL DUP2 MSTORE PUSH1 0x4 ADD PUSH2 0x1D94 SWAP2 SWAP1 PUSH2 0x2510 JUMP JUMPDEST PUSH1 0x20 PUSH1 0x40 MLOAD DUP1 DUP4 SUB DUP2 DUP7 DUP1 EXTCODESIZE ISZERO DUP1 ISZERO PUSH2 0x1DAC JUMPI PUSH1 0x0 DUP1 REVERT JUMPDEST POP GAS STATICCALL ISZERO DUP1 ISZERO PUSH2 0x1DC0 JUMPI RETURNDATASIZE PUSH1 0x0 DUP1 RETURNDATACOPY RETURNDATASIZE PUSH1 0x0 REVERT JUMPDEST POP POP POP POP PUSH1 0x40 MLOAD RETURNDATASIZE PUSH1 0x1F NOT PUSH1 0x1F DUP3 ADD AND DUP3 ADD DUP1 PUSH1 0x40 MSTORE POP DUP2 ADD SWAP1 PUSH2 0x1DE4 SWAP2 SWAP1 PUSH2 0x237B JUMP JUMPDEST SWAP1 POP PUSH1 0x0 PUSH1 0x1 DUP3 PUSH1 0x1 PUSH1 0x0 SWAP1 SLOAD SWAP1 PUSH2 0x100 EXP SWAP1 DIV PUSH20 0xFFFFFFFFFFFFFFFFFFFFFFFFFFFFFFFFFFFFFFFF AND PUSH20 0xFFFFFFFFFFFFFFFFFFFFFFFFFFFFFFFFFFFFFFFF AND PUSH4 0xBAAFD2D8 DUP9 PUSH1 0x40 MLOAD DUP3 PUSH4 0xFFFFFFFF AND PUSH1 0xE0 SHL DUP2 MSTORE PUSH1 0x4 ADD PUSH2 0x1E46 SWAP2 SWAP1 PUSH2 0x2510 JUMP JUMPDEST PUSH1 0x20 PUSH1 0x40 MLOAD DUP1 DUP4 SUB DUP2 DUP7 DUP1 EXTCODESIZE ISZERO DUP1 ISZERO PUSH2 0x1E5E JUMPI PUSH1 0x0 DUP1 REVERT JUMPDEST POP GAS STATICCALL ISZERO DUP1 ISZERO PUSH2 0x1E72 JUMPI RETURNDATASIZE PUSH1 0x0 DUP1 RETURNDATACOPY RETURNDATASIZE PUSH1 0x0 REVERT JUMPDEST POP POP POP POP PUSH1 0x40 MLOAD RETURNDATASIZE PUSH1 0x1F NOT PUSH1 0x1F DUP3 ADD AND DUP3 ADD DUP1 PUSH1 0x40 MSTORE POP DUP2 ADD SWAP1 PUSH2 0x1E96 SWAP2 SWAP1 PUSH2 0x237B JUMP JUMPDEST PUSH2 0x1EA0 SWAP2 SWAP1 PUSH2 0x27B4 JUMP JUMPDEST PUSH2 0x1EAA SWAP2 SWAP1 PUSH2 0x2704 JUMP JUMPDEST SWAP1 POP PUSH1 0x0 DUP5 EQ DUP1 PUSH2 0x1EBA JUMPI POP DUP1 DUP5 GT JUMPDEST ISZERO PUSH2 0x1EC3 JUMPI DUP1 SWAP4 POP JUMPDEST PUSH1 0x0 DUP5 PUSH8 0xFFFFFFFFFFFFFFFF DUP2 GT ISZERO PUSH2 0x1F05 JUMPI PUSH32 0x4E487B7100000000000000000000000000000000000000000000000000000000 PUSH1 0x0 MSTORE PUSH1 0x41 PUSH1 0x4 MSTORE PUSH1 0x24 PUSH1 0x0 REVERT JUMPDEST PUSH1 0x40 MLOAD SWAP1 DUP1 DUP3 MSTORE DUP1 PUSH1 0x20 MUL PUSH1 0x20 ADD DUP3 ADD PUSH1 0x40 MSTORE DUP1 ISZERO PUSH2 0x1F3E JUMPI DUP2 PUSH1 0x20 ADD JUMPDEST PUSH2 0x1F2B PUSH2 0x21B5 JUMP JUMPDEST DUP2 MSTORE PUSH1 0x20 ADD SWAP1 PUSH1 0x1 SWAP1 SUB SWAP1 DUP2 PUSH2 0x1F23 JUMPI SWAP1 POP JUMPDEST POP SWAP1 POP PUSH1 0x0 JUMPDEST DUP6 DUP2 LT ISZERO PUSH2 0x205E JUMPI PUSH1 0x1 PUSH1 0x0 SWAP1 SLOAD SWAP1 PUSH2 0x100 EXP SWAP1 DIV PUSH20 0xFFFFFFFFFFFFFFFFFFFFFFFFFFFFFFFFFFFFFFFF AND PUSH20 0xFFFFFFFFFFFFFFFFFFFFFFFFFFFFFFFFFFFFFFFF AND PUSH4 0xB1398144 DUP9 DUP7 PUSH1 0x40 MLOAD DUP4 PUSH4 0xFFFFFFFF AND PUSH1 0xE0 SHL DUP2 MSTORE PUSH1 0x4 ADD PUSH2 0x1FA9 SWAP3 SWAP2 SWAP1 PUSH2 0x2562 JUMP JUMPDEST PUSH1 0x60 PUSH1 0x40 MLOAD DUP1 DUP4 SUB DUP2 DUP7 DUP1 EXTCODESIZE ISZERO DUP1 ISZERO PUSH2 0x1FC1 JUMPI PUSH1 0x0 DUP1 REVERT JUMPDEST POP GAS STATICCALL ISZERO DUP1 ISZERO PUSH2 0x1FD5 JUMPI RETURNDATASIZE PUSH1 0x0 DUP1 RETURNDATACOPY RETURNDATASIZE PUSH1 0x0 REVERT JUMPDEST POP POP POP POP PUSH1 0x40 MLOAD RETURNDATASIZE PUSH1 0x1F NOT PUSH1 0x1F DUP3 ADD AND DUP3 ADD DUP1 PUSH1 0x40 MSTORE POP DUP2 ADD SWAP1 PUSH2 0x1FF9 SWAP2 SWAP1 PUSH2 0x2329 JUMP JUMPDEST DUP3 DUP3 DUP2 MLOAD DUP2 LT PUSH2 0x2032 JUMPI PUSH32 0x4E487B7100000000000000000000000000000000000000000000000000000000 PUSH1 0x0 MSTORE PUSH1 0x32 PUSH1 0x4 MSTORE PUSH1 0x24 PUSH1 0x0 REVERT JUMPDEST PUSH1 0x20 MUL PUSH1 0x20 ADD ADD DUP2 SWAP1 MSTORE POP DUP4 DUP1 PUSH2 0x2048 SWAP1 PUSH2 0x289D JUMP JUMPDEST SWAP5 POP POP DUP1 DUP1 PUSH2 0x2056 SWAP1 PUSH2 0x289D JUMP JUMPDEST SWAP2 POP POP PUSH2 0x1F44 JUMP JUMPDEST DUP2 SWAP5 POP POP POP POP POP SWAP3 SWAP2 POP POP JUMP JUMPDEST PUSH2 0x2073 PUSH2 0x21AD JUMP JUMPDEST PUSH20 0xFFFFFFFFFFFFFFFFFFFFFFFFFFFFFFFFFFFFFFFF AND PUSH2 0x2091 PUSH2 0x1731 JUMP JUMPDEST PUSH20 0xFFFFFFFFFFFFFFFFFFFFFFFFFFFFFFFFFFFFFFFF AND EQ PUSH2 0x20E7 JUMPI PUSH1 0x40 MLOAD PUSH32 0x8C379A000000000000000000000000000000000000000000000000000000000 DUP2 MSTORE PUSH1 0x4 ADD PUSH2 0x20DE SWAP1 PUSH2 0x265A JUMP JUMPDEST PUSH1 0x40 MLOAD DUP1 SWAP2 SUB SWAP1 REVERT JUMPDEST JUMP JUMPDEST PUSH1 0x0 DUP1 PUSH1 0x0 SWAP1 SLOAD SWAP1 PUSH2 0x100 EXP SWAP1 DIV PUSH20 0xFFFFFFFFFFFFFFFFFFFFFFFFFFFFFFFFFFFFFFFF AND SWAP1 POP DUP2 PUSH1 0x0 DUP1 PUSH2 0x100 EXP DUP2 SLOAD DUP2 PUSH20 0xFFFFFFFFFFFFFFFFFFFFFFFFFFFFFFFFFFFFFFFF MUL NOT AND SWAP1 DUP4 PUSH20 0xFFFFFFFFFFFFFFFFFFFFFFFFFFFFFFFFFFFFFFFF AND MUL OR SWAP1 SSTORE POP DUP2 PUSH20 0xFFFFFFFFFFFFFFFFFFFFFFFFFFFFFFFFFFFFFFFF AND DUP2 PUSH20 0xFFFFFFFFFFFFFFFFFFFFFFFFFFFFFFFFFFFFFFFF AND PUSH32 0x8BE0079C531659141344CD1FD0A4F28419497F9722A3DAAFE3B4186F6B6457E0 PUSH1 0x40 MLOAD PUSH1 0x40 MLOAD DUP1 SWAP2 SUB SWAP1 LOG3 POP POP JUMP JUMPDEST PUSH1 0x0 CALLER SWAP1 POP SWAP1 JUMP JUMPDEST PUSH1 0x40 MLOAD DUP1 PUSH1 0x60 ADD PUSH1 0x40 MSTORE DUP1 PUSH1 0x0 DUP2 MSTORE PUSH1 0x20 ADD PUSH1 0x0 DUP2 MSTORE PUSH1 0x20 ADD PUSH1 0x0 DUP2 MSTORE POP SWAP1 JUMP JUMPDEST PUSH1 0x0 DUP2 CALLDATALOAD SWAP1 POP PUSH2 0x21E5 DUP2 PUSH2 0x29F6 JUMP JUMPDEST SWAP3 SWAP2 POP POP JUMP JUMPDEST PUSH1 0x0 PUSH1 0x60 DUP3 DUP5 SUB SLT ISZERO PUSH2 0x21FD JUMPI PUSH1 0x0 DUP1 REVERT JUMPDEST PUSH2 0x2207 PUSH1 0x60 PUSH2 0x2695 JUMP JUMPDEST SWAP1 POP PUSH1 0x0 PUSH2 0x2217 DUP5 DUP3 DUP6 ADD PUSH2 0x2260 JUMP JUMPDEST PUSH1 0x0 DUP4 ADD MSTORE POP PUSH1 0x20 PUSH2 0x222B DUP5 DUP3 DUP6 ADD PUSH2 0x2260 JUMP JUMPDEST PUSH1 0x20 DUP4 ADD MSTORE POP PUSH1 0x40 PUSH2 0x223F DUP5 DUP3 DUP6 ADD PUSH2 0x2260 JUMP JUMPDEST PUSH1 0x40 DUP4 ADD MSTORE POP SWAP3 SWAP2 POP POP JUMP JUMPDEST PUSH1 0x0 DUP2 CALLDATALOAD SWAP1 POP PUSH2 0x225A DUP2 PUSH2 0x2A0D JUMP JUMPDEST SWAP3 SWAP2 POP POP JUMP JUMPDEST PUSH1 0x0 DUP2 MLOAD SWAP1 POP PUSH2 0x226F DUP2 PUSH2 0x2A0D JUMP JUMPDEST SWAP3 SWAP2 POP POP JUMP JUMPDEST PUSH1 0x0 PUSH1 0x20 DUP3 DUP5 SUB SLT ISZERO PUSH2 0x2287 JUMPI PUSH1 0x0 DUP1 REVERT JUMPDEST PUSH1 0x0 PUSH2 0x2295 DUP5 DUP3 DUP6 ADD PUSH2 0x21D6 JUMP JUMPDEST SWAP2 POP POP SWAP3 SWAP2 POP POP JUMP JUMPDEST PUSH1 0x0 DUP1 PUSH1 0x40 DUP4 DUP6 SUB SLT ISZERO PUSH2 0x22B1 JUMPI PUSH1 0x0 DUP1 REVERT JUMPDEST PUSH1 0x0 PUSH2 0x22BF DUP6 DUP3 DUP7 ADD PUSH2 0x21D6 JUMP JUMPDEST SWAP3 POP POP PUSH1 0x20 PUSH2 0x22D0 DUP6 DUP3 DUP7 ADD PUSH2 0x224B JUMP JUMPDEST SWAP2 POP POP SWAP3 POP SWAP3 SWAP1 POP JUMP JUMPDEST PUSH1 0x0 DUP1 PUSH1 0x0 PUSH1 0x60 DUP5 DUP7 SUB SLT ISZERO PUSH2 0x22EF JUMPI PUSH1 0x0 DUP1 REVERT JUMPDEST PUSH1 0x0 PUSH2 0x22FD DUP7 DUP3 DUP8 ADD PUSH2 0x21D6 JUMP JUMPDEST SWAP4 POP POP PUSH1 0x20 PUSH2 0x230E DUP7 DUP3 DUP8 ADD PUSH2 0x224B JUMP JUMPDEST SWAP3 POP POP PUSH1 0x40 PUSH2 0x231F DUP7 DUP3 DUP8 ADD PUSH2 0x224B JUMP JUMPDEST SWAP2 POP POP SWAP3 POP SWAP3 POP SWAP3 JUMP JUMPDEST PUSH1 0x0 PUSH1 0x60 DUP3 DUP5 SUB SLT ISZERO PUSH2 0x233B JUMPI PUSH1 0x0 DUP1 REVERT JUMPDEST PUSH1 0x0 PUSH2 0x2349 DUP5 DUP3 DUP6 ADD PUSH2 0x21EB JUMP JUMPDEST SWAP2 POP POP SWAP3 SWAP2 POP POP JUMP JUMPDEST PUSH1 0x0 PUSH1 0x20 DUP3 DUP5 SUB SLT ISZERO PUSH2 0x2364 JUMPI PUSH1 0x0 DUP1 REVERT JUMPDEST PUSH1 0x0 PUSH2 0x2372 DUP5 DUP3 DUP6 ADD PUSH2 0x224B JUMP JUMPDEST SWAP2 POP POP SWAP3 SWAP2 POP POP JUMP JUMPDEST PUSH1 0x0 PUSH1 0x20 DUP3 DUP5 SUB SLT ISZERO PUSH2 0x238D JUMPI PUSH1 0x0 DUP1 REVERT JUMPDEST PUSH1 0x0 PUSH2 0x239B DUP5 DUP3 DUP6 ADD PUSH2 0x2260 JUMP JUMPDEST SWAP2 POP POP SWAP3 SWAP2 POP POP JUMP JUMPDEST PUSH1 0x0 PUSH2 0x23B0 DUP4 DUP4 PUSH2 0x24B0 JUMP JUMPDEST PUSH1 0x60 DUP4 ADD SWAP1 POP SWAP3 SWAP2 POP POP JUMP JUMPDEST PUSH2 0x23C5 DUP2 PUSH2 0x27E8 JUMP JUMPDEST DUP3 MSTORE POP POP JUMP JUMPDEST PUSH1 0x0 PUSH2 0x23D6 DUP3 PUSH2 0x26CA JUMP JUMPDEST PUSH2 0x23E0 DUP2 DUP6 PUSH2 0x26E2 JUMP JUMPDEST SWAP4 POP PUSH2 0x23EB DUP4 PUSH2 0x26BA JUMP JUMPDEST DUP1 PUSH1 0x0 JUMPDEST DUP4 DUP2 LT ISZERO PUSH2 0x241C JUMPI DUP2 MLOAD PUSH2 0x2403 DUP9 DUP3 PUSH2 0x23A4 JUMP JUMPDEST SWAP8 POP PUSH2 0x240E DUP4 PUSH2 0x26D5 JUMP JUMPDEST SWAP3 POP POP PUSH1 0x1 DUP2 ADD SWAP1 POP PUSH2 0x23EF JUMP JUMPDEST POP DUP6 SWAP4 POP POP POP POP SWAP3 SWAP2 POP POP JUMP JUMPDEST PUSH2 0x2432 DUP2 PUSH2 0x2824 JUMP JUMPDEST DUP3 MSTORE POP POP JUMP JUMPDEST PUSH2 0x2441 DUP2 PUSH2 0x2848 JUMP JUMPDEST DUP3 MSTORE POP POP JUMP JUMPDEST PUSH1 0x0 PUSH2 0x2454 PUSH1 0x26 DUP4 PUSH2 0x26F3 JUMP JUMPDEST SWAP2 POP PUSH2 0x245F DUP3 PUSH2 0x2955 JUMP JUMPDEST PUSH1 0x40 DUP3 ADD SWAP1 POP SWAP2 SWAP1 POP JUMP JUMPDEST PUSH1 0x0 PUSH2 0x2477 PUSH1 0x19 DUP4 PUSH2 0x26F3 JUMP JUMPDEST SWAP2 POP PUSH2 0x2482 DUP3 PUSH2 0x29A4 JUMP JUMPDEST PUSH1 0x20 DUP3 ADD SWAP1 POP SWAP2 SWAP1 POP JUMP JUMPDEST PUSH1 0x0 PUSH2 0x249A PUSH1 0x20 DUP4 PUSH2 0x26F3 JUMP JUMPDEST SWAP2 POP PUSH2 0x24A5 DUP3 PUSH2 0x29CD JUMP JUMPDEST PUSH1 0x20 DUP3 ADD SWAP1 POP SWAP2 SWAP1 POP JUMP JUMPDEST PUSH1 0x60 DUP3 ADD PUSH1 0x0 DUP3 ADD MLOAD PUSH2 0x24C6 PUSH1 0x0 DUP6 ADD DUP3 PUSH2 0x24F2 JUMP JUMPDEST POP PUSH1 0x20 DUP3 ADD MLOAD PUSH2 0x24D9 PUSH1 0x20 DUP6 ADD DUP3 PUSH2 0x24F2 JUMP JUMPDEST POP PUSH1 0x40 DUP3 ADD MLOAD PUSH2 0x24EC PUSH1 0x40 DUP6 ADD DUP3 PUSH2 0x24F2 JUMP JUMPDEST POP POP POP POP JUMP JUMPDEST PUSH2 0x24FB DUP2 PUSH2 0x281A JUMP JUMPDEST DUP3 MSTORE POP POP JUMP JUMPDEST PUSH2 0x250A DUP2 PUSH2 0x281A JUMP JUMPDEST DUP3 MSTORE POP POP JUMP JUMPDEST PUSH1 0x0 PUSH1 0x20 DUP3 ADD SWAP1 POP PUSH2 0x2525 PUSH1 0x0 DUP4 ADD DUP5 PUSH2 0x23BC JUMP JUMPDEST SWAP3 SWAP2 POP POP JUMP JUMPDEST PUSH1 0x0 PUSH1 0x60 DUP3 ADD SWAP1 POP PUSH2 0x2540 PUSH1 0x0 DUP4 ADD DUP7 PUSH2 0x23BC JUMP JUMPDEST PUSH2 0x254D PUSH1 0x20 DUP4 ADD DUP6 PUSH2 0x23BC JUMP JUMPDEST PUSH2 0x255A PUSH1 0x40 DUP4 ADD DUP5 PUSH2 0x2501 JUMP JUMPDEST SWAP5 SWAP4 POP POP POP POP JUMP JUMPDEST PUSH1 0x0 PUSH1 0x40 DUP3 ADD SWAP1 POP PUSH2 0x2577 PUSH1 0x0 DUP4 ADD DUP6 PUSH2 0x23BC JUMP JUMPDEST PUSH2 0x2584 PUSH1 0x20 DUP4 ADD DUP5 PUSH2 0x2501 JUMP JUMPDEST SWAP4 SWAP3 POP POP POP JUMP JUMPDEST PUSH1 0x0 PUSH1 0x60 DUP3 ADD SWAP1 POP PUSH2 0x25A0 PUSH1 0x0 DUP4 ADD DUP7 PUSH2 0x23BC JUMP JUMPDEST PUSH2 0x25AD PUSH1 0x20 DUP4 ADD DUP6 PUSH2 0x2501 JUMP JUMPDEST PUSH2 0x25BA PUSH1 0x40 DUP4 ADD DUP5 PUSH2 0x2501 JUMP JUMPDEST SWAP5 SWAP4 POP POP POP POP JUMP JUMPDEST PUSH1 0x0 PUSH1 0x20 DUP3 ADD SWAP1 POP DUP2 DUP2 SUB PUSH1 0x0 DUP4 ADD MSTORE PUSH2 0x25DC DUP2 DUP5 PUSH2 0x23CB JUMP JUMPDEST SWAP1 POP SWAP3 SWAP2 POP POP JUMP JUMPDEST PUSH1 0x0 PUSH1 0x20 DUP3 ADD SWAP1 POP PUSH2 0x25F9 PUSH1 0x0 DUP4 ADD DUP5 PUSH2 0x2429 JUMP JUMPDEST SWAP3 SWAP2 POP POP JUMP JUMPDEST PUSH1 0x0 PUSH1 0x20 DUP3 ADD SWAP1 POP PUSH2 0x2614 PUSH1 0x0 DUP4 ADD DUP5 PUSH2 0x2438 JUMP JUMPDEST SWAP3 SWAP2 POP POP JUMP JUMPDEST PUSH1 0x0 PUSH1 0x20 DUP3 ADD SWAP1 POP DUP2 DUP2 SUB PUSH1 0x0 DUP4 ADD MSTORE PUSH2 0x2633 DUP2 PUSH2 0x2447 JUMP JUMPDEST SWAP1 POP SWAP2 SWAP1 POP JUMP JUMPDEST PUSH1 0x0 PUSH1 0x20 DUP3 ADD SWAP1 POP DUP2 DUP2 SUB PUSH1 0x0 DUP4 ADD MSTORE PUSH2 0x2653 DUP2 PUSH2 0x246A JUMP JUMPDEST SWAP1 POP SWAP2 SWAP1 POP JUMP JUMPDEST PUSH1 0x0 PUSH1 0x20 DUP3 ADD SWAP1 POP DUP2 DUP2 SUB PUSH1 0x0 DUP4 ADD MSTORE PUSH2 0x2673 DUP2 PUSH2 0x248D JUMP JUMPDEST SWAP1 POP SWAP2 SWAP1 POP JUMP JUMPDEST PUSH1 0x0 PUSH1 0x20 DUP3 ADD SWAP1 POP PUSH2 0x268F PUSH1 0x0 DUP4 ADD DUP5 PUSH2 0x2501 JUMP JUMPDEST SWAP3 SWAP2 POP POP JUMP JUMPDEST PUSH1 0x0 PUSH2 0x269F PUSH2 0x26B0 JUMP JUMPDEST SWAP1 POP PUSH2 0x26AB DUP3 DUP3 PUSH2 0x286C JUMP JUMPDEST SWAP2 SWAP1 POP JUMP JUMPDEST PUSH1 0x0 PUSH1 0x40 MLOAD SWAP1 POP SWAP1 JUMP JUMPDEST PUSH1 0x0 DUP2 SWAP1 POP PUSH1 0x20 DUP3 ADD SWAP1 POP SWAP2 SWAP1 POP JUMP JUMPDEST PUSH1 0x0 DUP2 MLOAD SWAP1 POP SWAP2 SWAP1 POP JUMP JUMPDEST PUSH1 0x0 PUSH1 0x20 DUP3 ADD SWAP1 POP SWAP2 SWAP1 POP JUMP JUMPDEST PUSH1 0x0 DUP3 DUP3 MSTORE PUSH1 0x20 DUP3 ADD SWAP1 POP SWAP3 SWAP2 POP POP JUMP JUMPDEST PUSH1 0x0 DUP3 DUP3 MSTORE PUSH1 0x20 DUP3 ADD SWAP1 POP SWAP3 SWAP2 POP POP JUMP JUMPDEST PUSH1 0x0 PUSH2 0x270F DUP3 PUSH2 0x281A JUMP JUMPDEST SWAP2 POP PUSH2 0x271A DUP4 PUSH2 0x281A JUMP JUMPDEST SWAP3 POP DUP3 PUSH32 0xFFFFFFFFFFFFFFFFFFFFFFFFFFFFFFFFFFFFFFFFFFFFFFFFFFFFFFFFFFFFFFFF SUB DUP3 GT ISZERO PUSH2 0x274F JUMPI PUSH2 0x274E PUSH2 0x28E6 JUMP JUMPDEST JUMPDEST DUP3 DUP3 ADD SWAP1 POP SWAP3 SWAP2 POP POP JUMP JUMPDEST PUSH1 0x0 PUSH2 0x2765 DUP3 PUSH2 0x281A JUMP JUMPDEST SWAP2 POP PUSH2 0x2770 DUP4 PUSH2 0x281A JUMP JUMPDEST SWAP3 POP DUP2 PUSH32 0xFFFFFFFFFFFFFFFFFFFFFFFFFFFFFFFFFFFFFFFFFFFFFFFFFFFFFFFFFFFFFFFF DIV DUP4 GT DUP3 ISZERO ISZERO AND ISZERO PUSH2 0x27A9 JUMPI PUSH2 0x27A8 PUSH2 0x28E6 JUMP JUMPDEST JUMPDEST DUP3 DUP3 MUL SWAP1 POP SWAP3 SWAP2 POP POP JUMP JUMPDEST PUSH1 0x0 PUSH2 0x27BF DUP3 PUSH2 0x281A JUMP JUMPDEST SWAP2 POP PUSH2 0x27CA DUP4 PUSH2 0x281A JUMP JUMPDEST SWAP3 POP DUP3 DUP3 LT ISZERO PUSH2 0x27DD JUMPI PUSH2 0x27DC PUSH2 0x28E6 JUMP JUMPDEST JUMPDEST DUP3 DUP3 SUB SWAP1 POP SWAP3 SWAP2 POP POP JUMP JUMPDEST PUSH1 0x0 PUSH2 0x27F3 DUP3 PUSH2 0x27FA JUMP JUMPDEST SWAP1 POP SWAP2 SWAP1 POP JUMP JUMPDEST PUSH1 0x0 PUSH20 0xFFFFFFFFFFFFFFFFFFFFFFFFFFFFFFFFFFFFFFFF DUP3 AND SWAP1 POP SWAP2 SWAP1 POP JUMP JUMPDEST PUSH1 0x0 DUP2 SWAP1 POP SWAP2 SWAP1 POP JUMP JUMPDEST PUSH1 0x0 PUSH2 0x282F DUP3 PUSH2 0x2836 JUMP JUMPDEST SWAP1 POP SWAP2 SWAP1 POP JUMP JUMPDEST PUSH1 0x0 PUSH2 0x2841 DUP3 PUSH2 0x27FA JUMP JUMPDEST SWAP1 POP SWAP2 SWAP1 POP JUMP JUMPDEST PUSH1 0x0 PUSH2 0x2853 DUP3 PUSH2 0x285A JUMP JUMPDEST SWAP1 POP SWAP2 SWAP1 POP JUMP JUMPDEST PUSH1 0x0 PUSH2 0x2865 DUP3 PUSH2 0x27FA JUMP JUMPDEST SWAP1 POP SWAP2 SWAP1 POP JUMP JUMPDEST PUSH2 0x2875 DUP3 PUSH2 0x2944 JUMP JUMPDEST DUP2 ADD DUP2 DUP2 LT PUSH8 0xFFFFFFFFFFFFFFFF DUP3 GT OR ISZERO PUSH2 0x2894 JUMPI PUSH2 0x2893 PUSH2 0x2915 JUMP JUMPDEST JUMPDEST DUP1 PUSH1 0x40 MSTORE POP POP POP JUMP JUMPDEST PUSH1 0x0 PUSH2 0x28A8 DUP3 PUSH2 0x281A JUMP JUMPDEST SWAP2 POP PUSH32 0xFFFFFFFFFFFFFFFFFFFFFFFFFFFFFFFFFFFFFFFFFFFFFFFFFFFFFFFFFFFFFFFF DUP3 EQ ISZERO PUSH2 0x28DB JUMPI PUSH2 0x28DA PUSH2 0x28E6 JUMP JUMPDEST JUMPDEST PUSH1 0x1 DUP3 ADD SWAP1 POP SWAP2 SWAP1 POP JUMP JUMPDEST PUSH32 0x4E487B7100000000000000000000000000000000000000000000000000000000 PUSH1 0x0 MSTORE PUSH1 0x11 PUSH1 0x4 MSTORE PUSH1 0x24 PUSH1 0x0 REVERT JUMPDEST PUSH32 0x4E487B7100000000000000000000000000000000000000000000000000000000 PUSH1 0x0 MSTORE PUSH1 0x41 PUSH1 0x4 MSTORE PUSH1 0x24 PUSH1 0x0 REVERT JUMPDEST PUSH1 0x0 PUSH1 0x1F NOT PUSH1 0x1F DUP4 ADD AND SWAP1 POP SWAP2 SWAP1 POP JUMP JUMPDEST PUSH32 0x4F776E61626C653A206E6577206F776E657220697320746865207A65726F2061 PUSH1 0x0 DUP3 ADD MSTORE PUSH32 0x6464726573730000000000000000000000000000000000000000000000000000 PUSH1 0x20 DUP3 ADD MSTORE POP JUMP JUMPDEST PUSH32 0x4E6F7420656E6F75676820746F6B656E7320746F206275726E00000000000000 PUSH1 0x0 DUP3 ADD MSTORE POP JUMP JUMPDEST PUSH32 0x4F776E61626C653A2063616C6C6572206973206E6F7420746865206F776E6572 PUSH1 0x0 DUP3 ADD MSTORE POP JUMP JUMPDEST PUSH2 0x29FF DUP2 PUSH2 0x27E8 JUMP JUMPDEST DUP2 EQ PUSH2 0x2A0A JUMPI PUSH1 0x0 DUP1 REVERT JUMPDEST POP JUMP JUMPDEST PUSH2 0x2A16 DUP2 PUSH2 0x281A JUMP JUMPDEST DUP2 EQ PUSH2 0x2A21 JUMPI PUSH1 0x0 DUP1 REVERT JUMPDEST POP JUMP INVALID LOG2 PUSH5 0x6970667358 0x22 SLT KECCAK256 BALANCE PUSH9 0x8D316A20A838A14394 0xF7 0x4D 0x2E 0xAB PUSH1 0x72 PUSH5 0xCA34D366C8 DIV STOP PUSH11 0xBA622B3FCF8664736F6C63 NUMBER STOP ADDMOD DIV STOP CALLER "
		},
		"gasEstimates": {
			"creation": {
				"codeDepositCost": "118400",
				"executionCost": "infinite",
				"totalCost": "infinite"
			},
			"external": {
				"flowerCoinStorage()": "1257",
				"flowerConductor()": "1279",
				"flowerStorage()": "1232"
			}
		},
		"methodIdentifiers": {
			"flowerCoinStorage()": "b7f6d906",
			"flowerConductor()": "bc7e99fd",
			"flowerStorage()": "1f054bbe"
		}
	},
	"abi": [
		{
			"inputs": [],
			"stateMutability": "nonpayable",
			"type": "constructor"
		},
		{
			"inputs": [],
			"name": "flowerCoinStorage",
			"outputs": [
				{
					"internalType": "contract FlowerCoinStorage",
					"name": "",
					"type": "address"
				}
			],
			"stateMutability": "view",
			"type": "function"
		},
		{
			"inputs": [],
			"name": "flowerConductor",
			"outputs": [
				{
					"internalType": "contract FlowerConductor",
					"name": "",
					"type": "address"
				}
			],
			"stateMutability": "view",
			"type": "function"
		},
		{
			"inputs": [],
			"name": "flowerStorage",
			"outputs": [
				{
					"internalType": "contract FlowerStorage",
					"name": "",
					"type": "address"
				}
			],
			"stateMutability": "view",
			"type": "function"
		}
	]
}